:400000000040002011000000F9080000F908000080B500AF00F060FE00F078FC80B500AF254B12221A6002F095FB244B181C02F0C3FB012002F09EFB202002F0DDF9204BC1
:40004000204A1A60204B8022D2051A601F4B1F4A126802210A431A601D4B1E4A1A601E4B00221A601D4B1D4A126808218A431A60FA23DB00181C02F00BFA194B181C02F052
:400080000DFB184B802252001A60174B174A1A60174B802212061A60164B802212031A60154B40221A60084B8022D2051A60024B11221A60BD4680BD30001040001BB700F4
:4000C00004010B40060000800C020B4078002E407C002E406A2D000064F02E406CF02E40DC050000000301400000014040FF008008010B4000010B400801014080B582B068
:4001000000AF72B6434B00221A60FB1D00221A7023E0FB1D1A78131C5B009B185B003E4A9B183B603B681A78597809020A43997809040A43DB781B061343191C3B681A79E1
:400140005B791B0213439BB2081C191C00F06AFCFB1D1A78FB1D01321A70FB1D1B78012BD7D92E4BEE2212061A602D4BEE221A602C4B992212041A602B4B992212041A6096
:400180002A4B992212041A60294B992212041A60284A284B1B78DBB202210B43DBB21370254A254B1B78DBB23C218B43DBB214210B43DBB213701F4A1E4B1B78DBB21621C7
:4001C0000B43DBB213701D4BD82212041A601C4B20221A601B4BC02292021A601A4B40221A601A4BC02252031A60194B40221A60184BC02252031A60174B03221A60174B28
:4002000024221A60FFF70AFF00F01CFCBD4602B080BDC0466CF02E40342E0000000002400005024000500F4010500F4020500F4030500F4000700F4001700F4008000440A3
:40024000000104400801044000020440080204400003044008030440000504400805044010B5064C2378002B07D1054B002B02D0044800E000BF0123237010BD580100203E
:4002800000000000302E000008B5084B002B03D00748084900E000BF07480368002B00D108BD064B002BFBD09847F9E700000000302E00005C010020D00000200000000047
:4002C00080B500AF002001F0F1FE002001F0C8FE62B600F005F802F02DFD00F059FCFEE780B500AFC046BD4680BDC04680B588B000AFF860081C7A60191C0A23FB18021CC3
:400300001A800923FB180A1C1A7001235B42FB610023BB610A23FB180A22BA1812881A800923FB180922BA1812781A708A4B1B68002B00D078E0884B01221A60874B002009
:4003400080211A1C00F09AFA844B5B7C9BB21B029AB2824B1B7C9BB213439AB2804B1A807E4B5B7B9BB21B029AB27C4B1B7B9BB213439AB27B4B1A80784B5B7A9BB21B020B
:4003800099B2764B1B7A9AB21423FB180A431A80724B1A79744B1A7000F09AF9031C1A1C1423FB181B88934202D06C4B00221A706A4B1B78562B0ED1FB68013338221A7094
:4003C0007B6807221A800023BB610023FB61674B00221A80B1E0614B1B784C2B17D1002000F0AAFC031E03D1002000F029FCA4E0FB68013338221A707B6807221A80002354
:40040000BB610023FB61594B00221A8095E0002000F092FC031E03D1002000F011FC8CE0002002F021F988E04B4B1B68012B00D083E04C4B1A884D4B1B889A4263D3484B0B
:400440001B884B4A934208D9454B1A881623FB1848498C4662441A8004E01623FB18404A12881A80FB68013339221A70FB6804333B4A12883E498A4201D9012200E00022F8
:400480001A70FB6805331622BA181288D2B21A70FB6806331622BA181288120A92B2D2B21A70324B1B880133DA01FB680733101C80211A1C00F0E2F92A4B1B88013B2B4A54
:4004C000128893420BD1FB68043301221A70FB680533FF221A70FB68063301221A707B688A221A808323BB610023FB611F4B1B8801339AB21D4B1A80194B1B8801339AB25B
:40050000174B1A8019E0154B002080211A1C00F0B5F9124B4C221A70104B002080211A1C00F056F9FB6801333B221A707B6807221A800023BB610023FB61FB69D9B2BB69F6
:400540009BB2FA68081C111C1A1C00F075F80023181CBD4608B080BD74010020E80200206A030020BA0100207A010020B8010020FF01000000FEFFFF80B500AF044B0022CD
:400580001A60044B00221A6000F008F9BD4680BDB40100207401002080B500AFBD4680BD80B584B000AFF860081C7A60191C0A23FB18021C1A800923FB180A1C1A700A2360
:4005C000FB180A22BA1812881A800923FB180922BA1812781A700023181CBD4604B080BD80B584B000AF78600A1CBB1C1A800E23FB1800221A8012E0BB1C1B88013B7A680A
:40060000D3181B7899B20E23FB180E22BA1812888A181A80BB1C1A88BB1C013A1A80BB1C1B88002BE8D10E23FB181B885B429BB2181CBD4604B080BD90B585B000AF396097
:40064000111CFB1D021C1A703B1D0A1C1A803B6801221A703B6802333A1D1288D2B21A703B6803333A1D1288120A92B2D2B21A703B1D1B8804339BB20E22BC183A68101CC5
:40068000191CFFF7ADFF031C23803B1D1B8804333A68D3180E22BA181288D2B21A703B1D1B8805333A68D3180E22BA181288120A92B2D2B21A703B1D1B8806333A68D318AD
:4006C00017221A700023181CBD4605B090BDC04680B5A2B000AF8423FB1800221A802E4B002080211A1C00F0C9F82B4B5B7B9BB21B0299B2284B1B7B9AB28023FB180A43AF
:400700001A808623FB1800221A802FE08623FB181B880133DA013B1C101C80211A1C00F0ADF88223FB1880221A8013E08223FB181A888223FB18013A1A808223FB181B8812
:400740003A1CD35C99B28423FB188422BA1812888A181A808223FB181B88002BE6D18623FB181A888623FB1801321A808623FA188023FB1812881B889A42C7D38423FB189F
:400780008422BA18128852421A808423FB181B88181CBD4622B080BDE802002080B500AF01F050FABD4680BD80B584B000AF786001235B42FB607B68181C0021002200F097
:4007C00007F8031CFB60FB68181CBD4604B080BD80B588B000AFF860B9607A6001235B42BB61FB68234A934201D9512200E050221723FB181A70FB681B0ADAB21E4B1A708F
:40080000FB68DAB21C4B5A700023FB610AE0FB6902337968FA698A181178174AD154FB690133FB61FA69BB689A42F0D31723FB181978BB680233104A081C111C1A1C00234E
:4008400001F096FAC04601F0B7FB021C02231340F9D001F0B1FB021C80239B00134001D10023BB6101F0CAFBBB69181CBD4608B080BDC046FFFF0000BC01002080B586B040
:4008800000AFF860B9607A60FB681A4A934201D9512200E050221323FB181A70FB68181CFFF782FF031C7B617B69002B1DD11323FB1819787A68BB68081C111C1A1C0023A1
:4008C00001F0E4FAC04601F077FB021C01231340F9D001F071FB021C80239B00134002D001235B427B6101F089FB7B69181CBD4606B080BDFFFF000080B500AF02F0D8F9BF
:40090000031C1B680C2B00D1FEE7FEE780B586B000AF224B7B61224B3B61204B7B6135E03B691B68FB603B695B68BB603B699B683B6000237B600CE0FB681A68BB681A60C9
:40094000BB680433BB60FB680433FB607B6804337B607A683B689A42EED13B69DB683B6000237B6008E0BB6800221A60BB680433BB607B6804337B607A683B689A42F2D143
:400980003B6910333B617B69013B7B617B69002BC6D102F093F9FFF793FCFEE701000000282F000080B582B000AF184B174A126801218A431A6000237B600FE07B68032B17
:4009C00004D8134B7A689200D35800E0114B124A796889008B507B6801337B607B682F2BECD9FFF78BFB0D4B00221A600C4B1B68002B02D10A4B00221A60044B034A1268FE
:400A000001210A431A60BD4602B080BD0000104000000000F908000000000020C8000020C000002080B582B000AF786039607A683B68101C00211A1C02F06FF9BD4602B004
:400A400080BDC04680B500AF054B03221A60054B03221A60044B00221A60BD4680BDC0463000304030003140000E3F4080B584B000AF78600A1CBB1C1A800E23FB18002285
:400A80001A8012E0BB1C1B88013B7A68D3181B7899B20E23FB180E22BA1812888A181A80BB1C1A88BB1C013A1A80BB1C1B88002BE8D10E23FB181B885B429BB2181CBD46A2
:400AC00004B080BD80B586B000AFF860B960BB1D1A801723FB1800221A701423FB1800221A801AE01423FB181A88FB68D3181B78DAB21423FB181B88B968CB181B789A4256
:400B000004D01723FB1802221A700DE01423FB181A881423FB1801321A801423FA18BB1D12881B889A42DDD31723FB181B78181CBD4606B080BDC04680B586B000AFF8608A
:400B4000B9607A601723FB1800221A70FB68002B02D0002001F088FD0FE07B68013B7B60FA68BB68D2187B68D31819781723FB181722BA1812788A181A707B68002BECD103
:400B80001723FB181B78181CBD4606B080BDC04690B583B000AF06237B60002000F0CCF8031E01D100237B601C4B1B681B68C03BFC1C0020C0211A1CFFF7BEFF031C237019
:400BC000174B1B681A78FB1CF91C09788A1A1A70FB1CFA1C127852421A70114B1B681B78FA1C12789A4204D10C4B1B681B68002B02D1002001F038FD0A4B1B68402B02D055
:400C00007B68002B05D0074B00221A60002000F001F900F009F8BD4603B090BDD8000020D4000020C000002080B500AF034B80221A6001F023FDBD4680BDC046C000002094
:400C400080B584B000AF021CFB1D1A70FB1D1B78022B03D11E4B00221A6034E0FB1D1B78181C00F069F8031E2AD10F23FB1800221A701CE00F23FB181A78131C5B069B1A82
:400C8000DB01144A99180F23FA18FB1D12781B78D31A5A425341DBB2081C191C00F050FE0F23FB181A780F23FB1801321A700F23FB181B78002BDDD0054B80221A6002E0B8
:400CC000034B00221A6001F0D9FCBD4604B080BDC0000020D0FF010080B582B000AF134B1B681022134002D1114B00221A60104B1B68802B17D1FB1D00221A700C4B0022AB
:400D00001A60FB1D1B780220191C00F065FE031E09D0FB1D1B780220191C00F05DFE031C181C00F007F8BD4602B080BD00030B40C00000200047C04690B587B000AF021CA5
:400D4000FB1D1A70FB1D1B780320191C00F044FE031C0133DC01FB1D1B780420191C00F03BFE031CE318FB601323FB1800221A701223FB1800221A70FB1D1B780320191CDE
:400D800000F02AFE031C0133DB017B611FE07A690B23FB1812781A700B23FB181B78002B08D00B23FB181B78FF2B03D01323FB1801221A701223FB181222B9180B22BA18EF
:400DC000097812788A181A707B6901337B617A69FB689A42DBD31223FB181222BA18127852421A701223FB181C78FB1D1B780120191C00F0F1FD031C9C4204D11323FB182C
:400E00001B78002B01D1062300E00023181CBD4607B090BD90B5D94CA54400AF021CD84BAC2189008C46BC4463441A70D54BFB1800221A80D44BFB180A221A70AA239B00E0
:400E4000FB1800221A70D14BFB1800221A80FFF793FB62B6CE4BFB1800221A70C84BAC2292009446BC4463441B78002B07D0C44BAC2292009446BC4463441B7800E0FF2346
:400E8000AA225200B81896225100A0229200BA18FFF72CFA031CA7229200BA181360B84BAC2292009446BC4463441B78002B06D0B54BFB181A78B44BFB18013A1A70B24B49
:400EC000FB181B78002B05D0A7239B00FB181B68002BC3D1A7239B00FB181B68002B01D000F098FCA0239B00FB181B88062B08D9A84BAC2292009446BC4463441B78012B5E
:400F000004D0A34BFB1804221A7073E0A14BAC2292009446BC446344DB789BB21B0299B29C4BAC2292009446BC4463449B789AB2944BFB180A431A80924BFB181B88073337
:400F4000A0229200BA181288934207D88D4BFB181B88DA1D96235B009A4204D98C4BFB1803221A7046E0874BFB181B880533894AAC2189008C46BC446244D35C9BB21B02F2
:400F800099B2804BFB181B880433824AAC2080008446BC446244D35C9AB27F4BFB180A431A80784BFB181B8806337A4AAC2189008C46BC446244D35C172B04D0744BFB180C
:400FC00004221A7016E06F4BFB181B8804339BB2AA225200BA18101C191CFFF747FD031C1A1C6D4BFB181B88934203D0684BFB1808221A70694BFB1800221A80644BFB18A2
:401000001B78002B01D000F0F7FB654BFB18614AAC2189008C46BC44624412791A705C4BFB1804221A705B4BAC2292009446BC4463445B78313B142B00D94DE39A00594B38
:40104000D3181B689F46AA239B00FB181B78012B1DD14C4BFB181B88002B18D10020FFF76BFE031C5A425341DBB21A1C494BAC2189008C46BC4463441A71484BFB1801224C
:401080001A80434BFB1800221A7000F0B5FB00F0B3FBAA239B00FB181B78012B00D09AE0384BFB181B88032B05D0364BFB181B88832B00D08FE0374BAC2292009446BC446B
:4010C00063449B799BB21B0299B2324BAC2292009446BC4463445B799AB2334BFB180A431A80A5239B00FB1800221A80284BFB1800221A70294BFB1800221A80214BFB1864
:401100001B88032B0DD01F4BFB181B88DA1E2823F918AA235B00FB180733081C191C01F0F3FD1F4BFB181B78012B4FD81C4BFB181B785A021C4BFB181B88D318DB01A42268
:401140009200BA181360A5239B00FB18802292001A80154BFA18A5239B00FB1812881B889A4201D2002200E00A22094BFB181A70074BFB181B78002B18D03DE34CFDFFFFEF
:4011800057FDFFFFAA020000A9020000A6020000AD020000A4FEFFFF9A020000AE02000099020000482E000096020000D34BFC18A4239B00FB181A682823FB18101C191CB2
:4011C0008022FFF77FFC031C237004E0CB4BFB1809221A7010E30FE3AA239B00FB181B78012B6BD1C64BFB181B88012B66D1C54BFB181B78012B61D8C34B1B681B681A0C8E
:40120000C24BFB181A70BF4BFA18C04BFB1812781B789A420BD1BC4B1B681B68DB099AB2A9239B00FB18D205D20D1A8013E0B54BFA18B64BFB1812781B789A4205D9A92332
:401240009B00FB1800221A8005E0A9239B00FB18802292001A80A9239B00FB181B88DAB2AB4BAC2189008C46BC4463441A71A9239B00FB181B881B0A9BB2DAB2A44BAC2107
:4012800089008C46BC4463445A71A14BAC2292009446BC446344FF229A719D4BAC2292009446BC4463440122DA719A4BFB1804221A80924BFB1800221A709DE29CE2944B01
:4012C000AC2292009446BC4463445B78342B1AD1AA239B00FB181B78012B00D08CE2884BFB181B88032B00D086E28B4BFB1880221A80894BFB181B882822BA18101C002171
:401300001A1C01F00AFDAA239B00FB181B78012B00D0AEE07A4BFB181B88022B00D8A8E07D4BFB181B882822BA18D118744BFB181B88DA1EAA235B00FB180733081C191C21
:4013400001F0E2FC744BFA186D4BFB1812881B88D3189AB2704BFB18033A1A80684BFB1880221A80A3239B00FB18802292001A80694BFA18624BFB1812881B889A4200D036
:401380006EE0634BAC2292009446BC4463449B799BB21B0299B25E4BAC2292009446BC4463445B799AB25C4BFB180A431A805A4BFA18A3239B00FB1812881B889A4201D225
:4013C000002200E00A224D4BFB181A704B4BFB181B78002B00D00FE24A4BFB181B789BB25B0299B24D4BFB184B4ABA1812888A181A80454B1B681B68DA09494BFB181A8090
:40140000414B1B681B687F22134006D0444BFB181A88434BFB1801321A80404BFA18404BFB1812881B889A4208D2344BFB180A221A70394BFB1800221A80DDE1374BFB1882
:401440001A882823FB18101C191C00F055FE031E01D00A2200E00022284BFB181A7003E0264BFB1803221A702B4BFB1800221A80C2E1C1E1AA239B00FB181B78012B04D1E9
:40148000254BFB1800221A80C4E1B5E1AA239B00FB181B78012B30D11F4BFB181A88184BFB181B88D3181A1C96235B009A421FD8124BFB1800221A70174BFB181B882822B9
:4014C000BA18D1180E4BFB181A88AA235B00FB180433081C191C01F017FC0F4BFB180E4AB918074ABA18098812888A181A8004E0024BFB1803221A707EE17DE1AD020000D5
:40150000AA02000099020000D80000208F020000A4FEFFFFAE020000A60200008A020000A2020000C74BFB181B88002B27D1C64BAC2292009446BC446344C44A03CA03C335
:40154000AA239B00FB1801221A70C14BFB1808221A80C04BFB1800221A80BD4BFB181A88AA235B00FB18191D2023FB18081C191C01F0CAFBB84BFB1800221A703CE1B64B13
:40158000FB1804221A7037E1AA239B00FB181B78012B00D092E0AB4BFB181B88032B00D08CE0AE4BAC2292009446BC4463449B799BB21B0299B2A94BAC2292009446BC44ED
:4015C00063445B799AB2A2239B00FB180A431A80A34BFB181B785A02A2239B00FB181B88D318DB01A1229200BA181360A2239B00FB181B889B4A934201D8002200E00A228C
:40160000954BFB181A70944BFB181B78002B00D0F2E0954BFC18A1239B00FB181B680020191C8022FFF788FA031C23708C4BFB181B789BB25B0299B28C4BFB18A22292001F
:40164000BA1812888A181A80854BFB181B78012B1FD1864BFB181B88854A934219D10520002100F0B9F9031CDAB27F4BFB187E49791809788A1A1A700620002100F0ACF9C8
:40168000031CDAB2784BFB187749791809788A1A1A70754BFB181B785B42DAB26F4BAC2189008C46BC4463441A716B4BFB1800221A70674BFB1801221A809DE09CE00020F6
:4016C000FFF73AFB031E02D16A4B80221A60FEF763FF00F0D3FF8FE0674B1B68002B00D184E0AA239B00FB181B78012B00D07DE05A4BAC2292009446BC4463445A785F4B74
:40170000AC2189008C46BC4463441A705B4BAC2292009446BC4463444A4ABA1812885A80564BAC2292009446BC446344AA225200BA1804325A600C23FB18181C00210C22C8
:4017400001F0EBFA4E4BAC2292009446BC446344AA225200BA1804329A60474B1B681822B9180C22BA18081C111C9847384BFB18434AAC2189008C46BC44624492881A8004
:40178000334BFB181A882623FF339A420CD93C4BAC2292009446BC4463449A68AA235B00FB1804339A420DD0354BAC2292009446BC4463449B68002B0DD1254BFB181B8892
:4017C000002B08D0244BFB180E221A70204BFB1800221A800FE02A4BAC2292009446BC4463441A681C4BFB181A7004E01A4BFB1805221A70FFE7C046174BFB181978AA23D9
:401800005B00FA18124BFB181B88081C111C1A1C00F03AF81B4BAC2292009446BC4463441B78002B01D1FFF715FBAA239B00FB181B78012B01D1FFF70DFBBD46AD239B002A
:401840009D4490BDAA02000070FDFFFF402E0000AE020000A6020000AD020000A4FEFFFF99020000FF010000A102000082020000FF030000C00000207C01002068FDFFFF6A
:401880005CFDFFFF57FDFFFF90B585B000AF3960111CFB1D021C1A703B1D0A1C1A803B6801221A703B680133FA1D12781A703B6802333A1D1288D2B21A703B6803333A1D5F
:4018C0001288120A92B2D2B21A703B1D1B8804339BB20E22BC183A68101C191CFFF7C6F8031C23803B1D1B8804333A68D3180E22BA181288D2B21A703B1D1B8805333A68A6
:40190000D3180E22BA181288120A92B2D2B21A703B1D1B8806333A68D31817221A703B1D1B8807339AB239683B1D081C111C1A1C9623FEF735FE031C181CBD4605B090BDF4
:4019400080B5A6B000AF78600A1CFB1C1A707B689022BA1813609023FB181B68DA098E23FB181A807B687F2293438822BA1813609623FB1800221A8014E09623FB181B88F6
:401980009622BA1811888822BA1812688A1811780822BA18D1549623FB181A889623FB1801321A809623FB181B887F2BE5D97B687F2213400822BA18F91C0978D1548E23A5
:4019C000FB181A880823FB18101C191C00F094FBBD4626B080BDC04680B586B000AF021CFB1D1A70BB1D0A1C1A701323FB1802221A700023FB60FB1D1B780C2B00D9A8E0DE
:401A00009A00774BD3181B689F46BB1D1A78131C5B069B1ADB01734A944663447B611323FB1801221A709AE0BB1D1A78131C5B069B1ADB016C4A944663447B611323FB18FB
:401A400004221A708BE0BB1D1A78131C5B069B1ADB01664A944663447B6180E0BB1D1A78131C5B069B1ADB01614A944663447B611323FB1804221A7071E0BB1D1A78131CDD
:401A80005B069B1ADB015B4A944663447B611323FB1801221A7062E0BB1D1A78131C5B069B1ADB01544A944663447B611323FB1801221A7053E0BB1D1A78131C5B069B1A9C
:401AC000DB014E4A944663447B6148E0BB1D1A78131C5B069B1ADB01494A944663447B613DE0BB1D1A78131C5B069B1ADB01454A944663447B6132E0BB1D1A78131C5B06D2
:401B00009B1ADB01404A944663447B611323FB1804221A7023E0BB1D1A78131C5B069B1ADB013A4A944663447B611323FB1801221A7014E0BB1D1A78131C5B069B1ADB0150
:401B4000334A944663447B611323FB1804221A7005E0002000F088FD00237B61C0461323FB181B78012B03D17B691B78DBB2FB601323FB181B78022B0BD17B691B78DBB2EF
:401B8000FB607B6901331B78DBB21B02FA681343FB601323FB181B78042B1BD17B691B78DBB2FB607B6901331B78DBB21B02FA681343FB607B6902331B78DBB21B04FA68EA
:401BC0001343FB607B6903331B78DBB21B06FA681343FB60FB68181CBD4606B080BDC0469C2E0000C0FF0100C1FF0100C5FF0100C9FF0100D0FF0100D1FF0100D6FF0100E3
:401C0000D2FF0100D4FF0100D8FF0100DCFF0100E0FF010080B500AF00F032F8BD4680BD80B500AF064B064A1268802109060A431A6000F019F800F01FF8BD4680BDC04668
:401C40000000254080B500AF064B1B78002B04D1FFF7E0FF034B01221A70FFF7E1FFBD4680BDC0468001002080B500AF0A2000F0D3FCBD4680BDC04680B500AFBD4680BD73
:401C800080B500AF234B234A126823490A401A60224B00221A60224B224A1A60224B234A1A60234B00221A60224B00221A60224B224A1A60224B00221A600A2000F0C0FCC6
:401CC0000A20032100F054FC1E4B0A20191C00F029FC1D4B00221A601C4B00221A601C4B00221A601B4B1422FF321A601A4B00221A601A4B00221A60194B10221A70194BA2
:401D000000221A80184B00221A60184B00221A60BD4680BD70002540EFEFFFFF000025406000254096080080000325400703008004032540100325400002254007010080EB
:401D400004022540D9270000C80E2540880E2540480F2540080F2540C80F2540880F25406C0300208C030020880300207C03002080B586B000AFF860B9607A603B600423A3
:401D80007B61BB68002B20D0324B1B78DBB2102B0CD10A2000F054FC2F4B1B680122134001D0082300E000237B610EE0294B1B78DBB2602B09D1294B1B889BB20822934351
:401DC0009AB2264B1A8000237B617B69002B38D1204B28221A70224B00221A60214B00221A60214B7A681A60204BBA681A603B68DAB21F4B1A70FB685B00FF221340FB60A6
:401E0000164B1B889BB2022293439AB2134B1A80184B194A1A60194B40221A60184B40221A603B680122134005D000F0FFF8154BFA681A6005E0134BFA681A60124B0222A3
:401E40001A600A2000F0E8FB7B69181CBD4606B080BDC0466C030020640025408C030020900300207C030020800300208403002070030020000F254017030000800F25401F
:401E8000880F2540400225406800254080B586B000AFF860B9607A603B6004237B61BB68002B20D0374B1B78DBB2102B0CD10A2000F0C6FB344B1B680122134001D0082368
:401EC00000E000237B610EE02E4B1B78DBB2602B09D12E4B1B889BB2082293439AB22B4B1A8000237B617B69002B43D1254B29221A70274B00221A60264B7A681A60264B9F
:401F0000BA681A603B68DAB2244B1A70FB685B00FF22134001221343FB601C4B1B889BB2012293439AB2194B1A801D4B1D4A1A60184B1B68072B03D81B4B04221A6009E012
:401F40001A4B1A4A1268802149000A431A60164B08221A603B680122134005D000F066F8134BFA681A6005E0114BFA681A60114B02221A600A2000F04FFB7B69181CBD465C
:401F800006B080BD6C030020640025408C03002088030020780300207403002070030020000F254017030000C80F254060002540400225406800254080B582B000AF0A2074
:401FC00000F03EFB0B4B1B889BB27B600A4B1B78DBB220221340DBB2002B03D07B68042213437B600A2000F017FB7B68181CBD4602B080BD8C0300206C03002080B582B0EE
:4020000000AF0A2000F01CFB074B1B889BB27B60054B00221A800A2000F0FEFA7B68181CBD4602B080BDC0468C03002080B582B000AF01237B60084B1B682022134001D076
:40204000082300E000237A6813437B60034B7A681A60BD4602B080BD640025406800254080B584B000AF021CFB1D1A700E4B1B68DAB20F23FB1840218A431A70FB1D1B7805
:402080009B01DBB240221340D9B20F23FB180F22BA1812780A431A70034B0F22BA1812781A60BD4604B080BD0002044080B584B000AF021CFB1D1A700E4B1B68DAB20F230D
:4020C000FB1840218A431A70FB1D1B789B01DBB240221340D9B20F23FB180F22BA1812780A431A70034B0F22BA1812781A60BD4604B080BD0003044090B5A9B000AF7860A3
:40210000396000239822BA18136000239422BA1813607B68594A934200D9A4E03B68002B00D1A0E00C23FB1808331A1C3B68101C191C802200F0E8FD7B68514A934201D994
:40214000504A00E0504A0C23FB181A600C23FB187F225A604D4B0C22BA181A604C4B4D4A1A60C046494B1B681B0F1A07F0231B069A4204D1454B1B68FF2213400BE0434BEB
:402180001B681B0F1A07A0231B069A4202D03F4B1B6800E000239822BA1813609823FB181B68002B5ED19F23FC1800F00EFB031C237000F075F8031C9422BA181360942356
:4021C000FB181B68002B05D100F0A6F8031C9822BA1813609823FB181B68002B30D10C23FB182D4A1A600C23FB181A687B681B041A430C23FB181A60244B0C22BA181A6024
:40220000234B264A1A60C046204B1B681B0F1A07F0231B069A4204D11C4B1B68FF2213400BE01A4B1B681B0F1A07A0231B069A4202D0164B1B6800E000239822BA1813602E
:402240009423FB181B68002B05D100F099F8031C9422BA1813609F23FB181B78181C00F0B8FA04E003E004239822BA1813609823FB181B68181CBD4629B090BDFF0300009A
:40228000FF010000B6D70001B6D70000080010400400104004000080B6D800000500008080B584B000AF0023FB603B1D154A1A60154A3B1D5A60154B3A1D1A60144B154A99
:4022C0001A60C046114B1B681B0F1A07F0231B069A4204D10D4B1B68FF2213400BE00B4B1B681B0F1A07A0231B069A4202D0074B1B6800E00023FB60FB68181CBD4604B0DE
:4023000080BDC046B6E900008C01002008001040040010401600008080B582B000AF00237B60134B134A1A60134B144A1A60C0460F4B1B681B0F1A07F0231B069A4204D13A
:402340000B4B1B68FF2213400BE0094B1B681B0F1A07A0231B069A4202D0054B1B6800E000237B607B68181CBD4602B080BDC04608001040B6E800000400104015000080D2
:4023800080B584B000AF0023FB603B1D154A1A60154A3B1D5A60154B3A1D1A60144B154A1A60C046114B1B681B0F1A07F0231B069A4204D10D4B1B68FF2213400BE00B4BD7
:4023C0001B681B0F1A07A0231B069A4202D0074B1B6800E00023FB60FB68181CBD4604B080BDC046B6EA00008C01002008001040040010401700008090B58BB000AF786022
:402400002723FC1800F0E1F9031C2370184B1A680C23FB181A60174B1A680C23FB185A607B68033B144AD35C1A1C0C23FB189A60124B1A680C23FB18DA601C23FB18104A1A
:402440001A600C23FA181C23FB185A600D4B1C22BA181A600C4B0D4A1A600A4B1B682723FB181B78181C00F0B4F9BD460BB090BD08010B4000010B40D02E000030001040C9
:40248000B6EA000008001040040010401700008080B584B000AF78600023FB60154B154A126801210A431A60134B144A1A60144B134A1268802109020A431A607B68002BBC
:4024C00012D01023FB600CE0012000F0E7F800F019F8031E02D00023FB6005E07B68013B7B607B68002BEFD1FB68181CBD4604B080BDC04660F02E4078002E40022000001A
:4025000010002E4080B582B000AF054B1B68012213407B607B68181CBD4602B080BDC0460C002E4080B584B000AF021C3960FB1D1A7080239B05FB60FB1D1B781F2B02D97B
:40254000002000F091F8FB1D1B7810339B00FA68D3181B68BB60FB1D1B7810339B00FA68D3183A681A60BB68181CBD4604B080BD90B587B000AF021CFB1D1A70BB1D0A1C28
:402580001A70BB1D1B78032B02D9002000F06CF8FB1D1B781F2B02D9002000F065F8FB1D1B7803221340DB0006337B611323FC1800F00BF9031C2370FB1D1B789B08DBB28E
:4025C0009B00144A944663441B68FB607B6903229A40131CDA43FB681340FB60BB1D1A787B699A40131CFA681343FB60FB1D1B789B08DBB29B00074A94466344FA681A60B5
:402600001323FB181B78181C00F0E3F8BD4607B090BDC04600E400E080B582B000AF021CFB1D1A70054BFA1D12781F210A40012191400A1C1A60BD4602B080BD00E100E057
:4026400080B582B000AF021CFB1D1A70054BFA1D12781F210A40012191400A1C1A60BD4602B080BD80E100E080B582B000AF021CFB1D1A7001BEBD4602B080BD80B500AFD8
:40268000044B044A12681204120C03490A431A60BD4680BD0CED00E00400FA0580B582B000AF021CBB1D1A80BB1D1B88044A12785343181C00F080F8BD4602B080BDC0467D
:4026C000E400002080B500AF0E4B0E4A126801218A431A600B4B0B4A126802218A431A60094B094A126830218A4310210A431A60054B054A126807218A4301210A431A60A1
:40270000BD4680BD00F02E4000FF2E4080B500AF0E4B0E4A126802218A431A600C4B0C4A126807218A4302210A431A60084B084A126830218A4320210A431A60034B034A2F
:40274000126801210A431A60BD4680BD00F02E4000FF2E4080B500AFFFF7B4FF044B044A1268802109060A431A60BD4680BDC04600F02E4080B584B000AF78600C4B1B6862
:4027800001221340FB607B68002B02D0012B03D005E0FFF797FF06E0FFF7B8FF03E00020FFF762FFC046FB68181CBD4604B080BD00F02E40000000000230800803D0013856
:4027C000FDD1C046C046C0467047EFF3108072B6704780F31088704780B582B000AF00233B60C04B1B68002B02D0BE4B1B689847BD4B1B680122134002D0BC4B00221A60EF
:40280000BB4B1B78DBB220221340DBB2002B38D0B84B1A6880235B0013400AD0B64B1B889BB2C022920013439AB2B34B1A8001233B60B04B1B68012213400AD0AE4B1B88A5
:402840009BB29022920013439AB2AB4B1A8001233B603B68002B14D0A54B1B78DBB201221340DBB2002B01D0012300E00223A24A128892B213439AB29F4B1A809C4B0022F3
:402880001A709B4B1B78DBB220221340DBB2002B00D1A4E1974B1B681022134018D0974B10221A60924B1B78DBB201221340DBB2002B01D0012300E002238F4A128892B2A9
:4028C00013439AB28C4B1A80894B10221A70AAE1874B1B78DBB208221340DBB2002B29D0844B1B68022213400ED0844B02221A60814B1B889BB28822920013439AB27E4B13
:402900001A8001233B6015E0794B1B78DBB201221340DBB2002B03D0754B25221A7009E0734B24221A70764B1B68002B02D0754B10221A606E4B1B78DBB204221340DBB2D0
:40294000002B00D113E16A4B1B78DBB201221340DBB2002B5BD06C4B1B680822134033D06A4B1A686A4B1B681F211940694B1B68CB18D31A7B607B68082B02D908237B609E
:402980000CE07B68002B09D1634B634A126863490A401A6008237B6001233B6010E0604B1A685C4B1B68D2185E4B1B68DBB21370584B1B685A1C574B1A607B68013B7B601A
:4029C0007B68002BEBD11EE04F4B1B680422134019D0534B1A684F4B1B68D218514B1B68DBB213704B4B1B685A1C4A4B1A60494B1A68464B1B689A4203D24B4B04221A608B
:402A000001E001233B60494B494A1A60AFE0394B1B680222134032D0384B02221A60454B1B681F221A40434B196880231B020B4001D0012300E00023D2183F4B1B689A1ABA
:402A40003D4B1A603C4B1A683C4B1A602A4B1B889BB28422920013439AB2274B1A80384B374A1268802149020A431A60344B344A126834490A401A6001233B6077E0324B83
:402A80001B681022134067D022E02B4B1A681C4B1B689A421BD21A4B1B685A1E264B1B689A4205D1294B40221A60164B40221A60274A284B1968204B1B68CB181B78DBB241
:402AC00013601D4B1B685A1C1B4B1A6000E005E0184B1B681F221340082BD6D11B4B10221A6044E0840100208C0E2540880E25406C0300200C0F25408C030020000F254002
:402B000080030020880F2540CC0F254078030020080325408803002060002540FFFEFFFF740300204003254068002540C00F2540ED0F000008022540900300207C03002043
:402B400004022540FFFFFEFF8C0F2540800F25404002254084030020344B1B684022134005D0334B1A68334B1A6001233B603B68002B58D0304B304A126830490A401A60C8
:402B80002F4B00221A602F4B00221A602E4B1B78DBB202221340DBB2002B15D02B4B1B78DBB201221340DBB2002B01D0092300E00A23274A128892B213439AB2244B1A8074
:402BC000224B60221A702EE0224B234A126820210A4001D0182200E010221A6023E01B4B1B78DBB210221340DBB2002B1BD11B4B1A4A1268520052081A60144B10221A70A1
:402C00000D4B0D4A126816490A401A600A4B0A4A126814490A401A60104B104A1268802109060A431A60BD4602B080BD8C0F2540900300207C03002060002540FFFEFFFF5A
:402C4000C80F2540880F2540700300206C0300208C030020680025406400254000002540FF5FFFFFFFFCFFFF80B582B000AF78600A1CBB1C1A80BB1C1A887B681A60BD469D
:402C800002B080BD80B582B000AF021CBB1D1A80BB1D1B88181CFFF701FDBD4602B080BD80B500AF0223FF33181CBD4680BDC046014B18687047C046500100200E4B70B5BD
:402CC00000251E1C0D4CE41AA410A54204D0AB00F35898470135F8E700F014F9084B00251E1C084CE41AA410A54204D0AB00F35898470135F8E770BD102F0000102F0000C0
:402D0000102F0000182F0000002310B5934203D0CC5CC4540133F9E710BD031C8218934202D019700133FAE7704700009B0000000030000038B5FFF7B3FF00F03DF80321FE
:402D40001948FFF791FF0120FFF79CFF16483038406A04218007800F084381B2009012480C38FFF781FF1148016802221143009189B2FFF779FFB8210D48FFF775FF0C488D
:402D8000032109021438FFF76FFF094C5321D83C2046FFF769FF07210648FFF765FF54212046FFF761FF38BD70F02E40001F2E40D8102E4098142E4010B5002400F006F8FB
:402DC000002800D00124204610BD0000174902460B680020002B08D10A605207520F012A04D0022A10D0086012207047112292018A80CA80032252020A810122D2024A81E4
:402E000040228A8105220DE0092252028A80CA80012252030A810322D2024A81012252028A810422CA810A82704700009C0100200000000000300F40000400400F4000046E
:402E40009E11340E0032010146100000D8110000D8160000BE12000074140000D81600008C14000024150000BE12000088150000BE160000D8160000D8160000D8160000D6
:402E8000D8160000D8160000D8160000D8160000D8160000D816000092100000521B00000A1A0000281A0000461A00005C1A00007A1A0000981A0000CC1A0000B61A000037
:402EC000E21A0000F81A0000161B0000341B0000030405060708090A0B0C0E0F101112131415161718191B1C1D1E1F2021222325262728292A2B2E2F303132333435000054
:402F000043000000F8B5C046F8BC08BC9E46704789020000A5090000F8B5C046F8BC08BC9E46704761020000382F0000D00000208800000040020000000000002C2D0000AC
:402F4000302D00000024F400803E0000100000000000401F010000000000000000000000000000000000000000000000000000000000000000000000002F0000000000007F
:402F80000000000000000000000000000000000000000000000000000000000000000000000000000000000000000000000000000000000000000000F00000200000000001
:402FC00000000000000000000000000000000000000000000000000000000000000000000000000000000000000000000000000000000000000000000000000000000000D1
:403000000000000000000000000000000000000000000000000000000000000000000000000000000000000000000000000000000000000000000000000000000000000090
:403040000000000000000000000000000000000000000000000000000000000000000000000000000000000000000000000000000000000000000000000000000000000050
:403080000000000000000000000000000000000000000000000000000000000000000000000000000000000000000000000000000000000000000000000000000000000010
:020000040001F9
:40FFC0000000000000000000000000000000000000000000010000000000000000000000000000000000000000000000000000000000000000000000000000000000000000
:0200000490303A
:02000000E07AA4
:0200000490402A
:4000000000000000000000000000000000000000000000000000000000000000000000000000000000000000000000000000000000000000000000000000000000000000C0
:400040000000000000000000000000000000000000000000000000000000000000000000000000000000000000000000000000000000000000000000000000000000000080
:0200000490501A
:0C00000000020E34119E00010E43F218A5
:0200000490600A
:0100000001FE
:00000001FF