:400000000040002011000000215100002151000080B500AF05F0B2F880B584B000AF021CFB1D1A70204A3B1C0B3312781A701F4A3B1C0A3312781A700423013BFB6018E036
:400040001B4B1868391C0B31FA68131C5B009B18C3185B780B70164B1868391C0A31FA68131C5B009B18C3189B780B70FB68013BFB60FB68002B0ADB0D4B1968FA68131CF1
:400080005B009B185B5CFA1D12789A42D8D9094B3A1C0B3212781A60074B3A1C0A3212781A60BD4604B080BDCCF1FF0FCDF1FF0FD40000201CFF0B4020FF0B4080B500AF47
:4000C0002D4B12221A603020FFF7A6FF2B4B2C4A1278D2B21A60052007F0CCFD294B35221A6007F0EBFAFA235B00181C07F09EFD012007F0F3FA244B244A1A60244B8022CA
:40010000D2051A60234B244A1A60244B234A126808218A431A60FA23DB00181C07F088FA1F4B181C07F0A6FD1E4B902252011A601D4B1E4A1A601E4B1E4A1A601A4B1E4A2B
:400140001A601E4BC82252011A60174B1C4A1A601C4B802212061A601B4B8022D2021A601A4B40221A601A4B42221A60194B41221A60BD4680BDC0463000104028FF0B40B5
:40018000FDF1FF0F2CFF0B4004010B40060000800C020B407C002E406A2D00006CF02E40DC050000000301400000014040FF008008030140007FBB0042FF0080040301409F
:4001C00041FF008008010B4000010B40200101401C0101400401014080B582B000AF72B6504B00221A60FB1D00221A7023E0FB1D1A78131C5B009B185B004B4A9B183B6038
:400200003B681A78597809020A43997809040A43DB781B0613431A1C3B6819795B791B020B439BB2101C191C05F02CF8FB1D1A78FB1D01321A70FB1D1B78012BD7D93B4A2F
:400240003B4B101C191C05F02DF83A4BEE2212061A60394B992212041A60384B802212021A60374BD82212041A60364B20221A60354BC42292021A60344B802292001A60EA
:40028000334B20221A60334B40221A60324B802212031A60314B802292011A60304B0C221A60304BC82212011A602F4B30221A602E4B992212041A602D4B992212041A60EF
:4002C0002C4B992212041A602B4B802292051A602A4B992212041A60294B802292031A60284B284A1278D2B202210A43D2B21A70254B254A1278D2B20C218A43D2B204212D
:400300000A43D2B21A701F4B1E4A1278D2B216210A43D2B21A70FFF7D1FE05F003F8BD4602B080BD6CF02E40A8A00100B4A00100B8A00100000002400001024000030240BE
:400340000800044000010440080104400C0104401801044000020440080204400C02044000030440080304400C03044000500F4010500F4020500F4024500F4030500F4083
:4003800034500F4000700F4001700F4010B5064C2378002B07D1054B002B02D0044800E000BF0123237010BDE0030020000000009899010008B5084B002B03D00748084997
:4003C00000E000BF07480368002B03D0064B002B00D0984708BDC0460000000098990100E4030020C80000200000000090B58DB002AF78603B1C273300221A703B1C0C3391
:4004000000221A6000225A6000229A600022DA6000221A6100225A6100221A833B1C27331B783A1C2732591C11707A6811783A1C0C32D1543B1C27331B783A1C0C32D218C4
:400440007B685B68101C191C062208F08CF83B1C27333A1C2732127806321A703B1C27331B783A1C2732591C11707A6851783A1C0C32D1543B1C27331B783A1C2732591C70
:4004800011707A68127CD1B23A1C0C32D1543B1C27331B783A1C2732591C11707A68117A3A1C0C32D154104B19887B681B7A1A1C3B1C27331B789BB20C483C1C0C34009445
:4004C00003F0C0FC7B681B7A002B07D07B68DA687B681B7A101C191C06F09EFD0023181CBD460BB090BDC046B42D00208A06000080B588B002AF78607B681B89DAB23B1CEB
:400500001633043A1A707B685A897B681B89101C191C07F027FF031C9AB23B1C15331A703B1C0F3300221A703B1C16331B78022B02D0102B05D009E03B1C0F3301221A7095
:4005400004E03B1C0F3302221A70C046304B1A887B6859893B1C15331B789BB2CB189BB27868C021C9000090081C111C1A1C022303F068FC3B1C173300221A702AE07B6862
:400580005A683B1C17331B78796809894B43D318181C042106F040FD3B1C0F33181C012106F03AFD7B685A683B1C17331B78796809894B430433D2183B1C16331B78101C57
:4005C000191C06F029FD3B1C17331A783B1C173301321A703A1C17323B1C153312781B789A42CCD37B685A687B685B89191C7B681B89CB1AD3183B613B695A88054B9A42FD
:4006000001D1012300E00023181CBD4606B080BDB42D0020FFFF000080B586B002AF78607B681B89023B9AB23B1C0C331A807B685A897B681B89101C191C07F093FE031C0F
:400640009AB23B1C0E331A70274B1A887B6859893B1C0E331B789BB2DB189BB2CB189BB2786822490090081C111C1A1C022303F0E9FB3B1C0F3300221A702AE07B685A68F9
:400680003B1C0F331B78796809894B43D318181C022106F0C1FC3B1C0C33181C022106F0BBFC7B685A683B1C0F331B78796809894B430233D2183B1C0C331B88101C191CF3
:4006C00006F0AAFC3B1C0F331A783B1C0F3301321A703A1C0F323B1C0E3312781B789A42CCD3BD4604B080BDB42D00200706000090B587B002AF78607B685A897B681B89C2
:40070000101C191C07F02EFE031C9AB23B1C0E331A703B1C093300221A703B1C0D3305221A707B681B89D9B23B1C0C333A1C0D3212788A1A1A703B1C0C331B78022B02D004
:40074000102B05D009E03B1C093301221A7004E03B1C093302221A70C046374B1A887B6859893B1C0E331B789BB2CB189BB2786832490090081C111C1A1C022303F062FB9D
:400780003B1C0F3300221A7030E07B685A683B1C0F331B78796809894B43D2183B1C0D331B78101C191C06F037FC3B1C0933181C012106F031FC7B685A683B1C0F331B7897
:4007C0007968098959433B1C0D331B78CB18D2183B1C0C331B78101C191C06F01DFC3B1C0F331A783B1C0F3301321A703A1C0F323B1C0E3312781B789A42C6D37B685A6873
:400800007B685B89191C7B681B89CB1AD3183C1C0A34181C05F0C4F8031C2380084B1B883A1C0A3212889A4201D1012300E00023181CBD4605B090BDB42D002003060000EE
:40084000AA2D002080B586B002AF78607B685A897B681B89101C191C07F084FD031C9AB23B1C0E331A703B1C0D3305221A707B681B89D9B23B1C0C333A1C0D3212788A1A27
:400880001A702B4B1A887B6859893B1C0C331B789BB2381C0E30007880B243439BB2CB1A9BB2786823490090081C111C1A1C022303F0C8FA3B1C0F3300221A7016E07B68BF
:4008C0005A683B1C0F331B78796809894B43D2183B1C0D331B78101C191C06F09DFB3B1C0F331A783B1C0F3301321A703A1C0F323B1C0E3312781B789A42E0D37B685A6805
:400900007B685B89191C7B681B89CB1AD318181C05F046F8031C1A1C074B1B889A4201D1012300E00023181CBD4604B080BDC046B42D002004060000AA2D002090B58DB02C
:4009400002AF78607B685A897B681B89101C191C07F008FD031C9AB23B1C23331A703B1C1F3300221A707B6859893B1C23331B789AB23B1C24338A181A803B1C223306223E
:400980001A703B1C22331B789AB27B681B899A4211D13B1C1F3302221A703B1C23331B789BB21B0199B23B1C24333A1C243212888A181A8003E03B1C1F3301221A70434B9B
:4009C0001A88786842493B1C24331B880090081C111C1A1C022303F035FA3B1C273300221A7043E07B685A683B1C27331B78796809894B43D2183B1C22331B78101C191C47
:400A000006F00AFB3B1C1F33181C012106F004FB3B1C1F331B78012B11D17B685A683B1C27331B787968098959433B1C22331B78CB18D318181C022106F0EEFA0FE03B1CFD
:400A40000C3300221A6000225A6000229A600022DA603B1C0C33181C102106F0DDFA3B1C27331A783B1C273301321A703A1C27323B1C233312781B789A42B3D37B685B892C
:400A8000DAB27B681B89DBB2D31ADAB23B1C273304321A707B685A683B1C27331B78D3183C1C2034181C04F07BFF031C2380094B1B883A1C203212889A4201D1012300E0DD
:400AC0000023181CBD460BB090BDC046B42D002002060000AA2D002090B585B000AF78603B1C0F3300221A701E4B1B881E4A934216D01D4A934203DC1C4A934222D02AE0C7
:400B00001B4A934215D01B4A934200D023E07B68181CFFF781FD3B1C0F3301221A701AE03C1C0F347B68181CFFF7E2FD031C237011E03C1C0F347B68181CFFF783FE031C4C
:400B4000237008E03C1C0F347B68181CFFF7F6FE031C2370C0463B1C0F331B78181CBD4605B090BDB42D002003FE000002FE000004FE000007FE000080B584B002AF786046
:400B8000154B1A887B681B7A9B009BB2786813490090081C111C1A1C022303F053F97B685A687B681B7A9B00101C191C06F034FA7B685A687B681B7A09495B189B00D31877
:400BC0005A88084B9A4201D1012300E00023181CBD4602B080BDC046B42D002001060000FFFFFF3FFFFF000080B588B002AF78603B1C163300221A807B681B7B012B07D0AF
:400C0000022B00D009E03B1C163310221A8004E03B1C163302221A80C0467B681B891A1C3B1C16331B880233101C191C07F09AFB031C1A1C3B1C12331A80354B1A883B1CF4
:400C400016331B8803339BB2391C123109884B439BB278682F490090081C111C1A1C022303F0F0F83B1C143300221A802EE07B685A683B1C14331B88391C163109880231E4
:400C80004B43D318181C022106F0C6F97B680C33181C012106F0C0F97B685A683B1C14331B88391C1631098802314B430233D2183B1C16331B88101C191C06F0ADF93B1CFE
:400CC00014331A883B1C143301321A803A1C14323B1C123312881B889A42C8D37B685A687B681B89191C3B1C16331B88CB1A023BD318FB60FB681A88074B1B889A4201D100
:400D0000012300E00023181CBD4606B080BDC046B42D002005060000AA2D002080B586B002AF78603B1C0E33454A1A803B1C0A3301221A803B1C0D3300221A703B1C0A337C
:400D4000181C12F039FE3F4B1B883F4A9B18092B00D971E09A003D4BD3181B689F463B1C0E333B4A1A803B1C0D3301221A7038E03B1C0E33C122D2001A807B681B891A1C13
:400D80003B1C0A331B88013B9A4204DA3B1C0D3301221A7025E024E03B1C0E332D4A1A803B1C0D3301221A701BE03B1C0E332A4A1A803B1C0D3301221A7012E03B1C0E335D
:400DC000264A1A807B681B891A1C3B1C0A331B88013B9A4204DA3B1C0D3301221A70FFE7C046184B1A887B681B8902339BB27868391C0E3109880090081C111C1A1C022380
:400E000003F020F87B680833181C022106F004F97B685A687B681B89101C191C06F0FCF83B1C0D331B78002B07D0064B1B88181C002103F0CBF800E0C046BD4604B080BDC3
:400E400004040000B42D0020FA01FFFF009A010006060000090600000A0600000B06000080B586B002AF78607B681A893B1C0E3304321A807968114A3B1C0E331B880091AF
:400E8000101C00211A1C022302F0DCFF7B680C33181C022106F0C0F87B680833181C022106F0BAF87B685A687B681B89101C191C06F0B2F8BD4604B080BDC0460C06000040
:400EC00080B586B002AF78607B68186812F044FE031C1A1C3B1C0C331A807B681A893B1C0E3306321A807968134A3B1C0E331B880091101C00211A1C022302F0A3FF7B68B9
:400F00000C33181C022106F087F83B1C0C33181C022106F081F87B680833181C022106F07BF87B685A687B681B89101C191C06F073F8BD4604B080BD0D06000090B59BB0E7
:400F400002AF786039607B687A2B01D900F053FC9A00D64BD3181B689F463B1C1833181C08F0B4F9031C002B08D13B1C183302221A703B1C1833181C08F0F6F9CC4B0122BB
:400F80001A70CC4B1B78181C11F0B4FE031CCA4A101C191C03F01AF800F02EFC3B681B78022B04D0032B1CD0012B36D036E0C34B1B78002B14D0C24B1A88C24B9A420FD1A2
:400FC000C14B00220092181C00210022002302F039FFBB4B1B88181C002102F0F7FF1DE01CE0B74B1B88DB099BB21A1C07231340042B11D1B24B1B88B44A00210091101C78
:40100000191C0022002302F01DFFAD4B1B88181C002102F0DBFF01E000E0C04600F0ECFB3B1C163300221A803B1C16331B8802339BB2A74A391D0091101C00211A1C02232D
:4010400002F000FF3B1C1633181C022105F0E4FF00F0D2FB3B1C143301221A803B1C14331B8802339BB29A4A391D0091101C00211A1C022302F0E6FE3B1C1433181C022197
:4010800005F0CAFF3B1C14331B883A68101C191C05F0C2FF00F0B0FB3B1C123301221A803B1C12331B8802339BB2894A391D0091101C00211A1C022302F0C4FE3B1C123311
:4010C000181C022105F0A8FF3B1C12331B883A68101C191C05F0A0FF00F08EFB784B1A88784B9A4215D13C1C5E343B68181CFFF77DF9031C23803B1C5E331B88002B08D047
:401100006F4B1A883B1C5E331B88101C191C02F05DFF71E36F4B704A0092181C00210422022302F08FFE3B68181C042105F074FF62E3634B1B88694A67490091101C191C51
:401140000022022302F07EFE56E35D4B1B88644A61490091101C191C0422022302F072FE3B68181C042105F057FF45E33B68BB653B1C103310221A803B1C10331B88023335
:401180009BB2534A391D0091101C00211A1C022302F058FE3B1C1033181C022105F03CFFBB6D1A1C1A323B1C10331B88101C191C05F032FF20E3424B1A884A4B9A4204D167
:4011C000484B181C002102F001FF15E33C4B1A88444B9A4211D1394B00221A70424A414B3D490091101C191C0122022302F02AFE3B68181C012105F00FFFFDE23B4B1A7892
:40120000354B1A70D223DB00334A0092181C00210122022302F016FE3B68181C012105F0FBFE264B1B78002B0FD0254B1A88304B9A4204D02F4B1A882D4B9A4205D12C4B33
:40124000181C002102F0C2FED6E2D5E23B687B653B1C523307221A80274A3B1C52331B881D490091101C00211A1C022302F0EAFD7B6D181C012105F0CFFE7B6D0233181C1D
:40128000022105F0C9FE7B6D0433181C022105F0C3FE7B6D0633181C022105F0BDFE084B1B88181C002102F091FEA5E2289A01000C040020CC00002007FC00000D04002095
:4012C000B42D002093FE000091060000110600000404000092060000F02D00208D0600008E06000099FE000093060000A82D002098FE0000AC2D0020840600003B68FB646A
:401300003B1C4A3307221A80CC4A3B1C4A331B88CB490091101C00211A1C022302F092FDFB6C181C012105F077FEFB6C0233181C022105F071FEFB6C0433181C022105F053
:401340006BFEFB6C0633181C022105F065FEBD4B1B88181C002102F039FE4DE23B687B64B94BB74A0092181C00210822022302F069FD7B6C181C022105F04EFE7B6C0233AD
:40138000181C022105F048FE7B6C0433181C022105F042FE7B6C0633181C022105F03CFE2AE23B681B88012B06D1A64B1B88181C002102F00BFE1FE21EE2A44B1A88A44B91
:4013C0009A4219D1A34B00221A70A34B00220092181C00210022002302F034FD9B4B1A883B681B78101C191C02F0F0FD974B181C0021082207F0C0F8924B1A88974B9A42E3
:4014000014D13B681B78002B10D0934B00220092181C00210022002302F014FD894B1A883B681B78101C191C02F0D0FDE4E13B683B643B6C9B79072B08D00A2B17D1814BD6
:401440001B88181C002102F0C1FD39E07D4B1A88834B9A4204D07B4B1A88824B9A4206D1784B1B88181C002102F0B0FD28E03B1C3F3304221A70774B00221A70714B1A8834
:401480003B1C3F331B789BB2386C77490090081C111C1A1C022302F0D5FC3B6C0233181C012105F0B9FD3B6C0433181C022105F0B3FD3B6C0633181C012105F0ADFDC0468E
:4014C0009AE15F4A3B68111C1A1C0223081C111C1A1C07F048F85A4B1A78644B1A70594B1B88634A56490091101C191C0022022302F0A8FC80E1534B1A885E4B9A4210D106
:40150000504B1B885C4A39680091101C191C0022042302F097FC4B4B1B88181C002102F055FD69E13B68181CFEF7E2FF031C002B05D0444B1B88181C002102F047FD5BE185
:401540003B68181CFFF7C8FA031C002B05D03D4B1B88181C002102F039FD4DE13B68181CFFF742FB031C002B05D0364B1B88181C002102F02BFD3FE13B68181CFFF7FCFA48
:40158000031C002B05D02F4B1B88181C002102F01DFD31E13B68181CFFF7C0FB2CE1294B1B88181C002102F011FD25E13B689B78002B06D0234B1B88181C002102F006FD63
:4015C0001AE1204B1B88181CFF2102F0FFFC13E13B68181CFFF744FC0EE13B68181CFFF76FFC09E13B68BB633B1C36330A221A80BB6B1A783B1C0C331A70A023DA003B1C7C
:4016000036331B88391C0C310091101C00211A1C022302F017FCBB6B0233181C022105F0FBFCBB6B0433181C022105F0F5FCBB6B0633181C062105F0EFFCDDE084060000B5
:40164000F02D0020B42D002096060000AC2D002094FE00000D0400209106000093FE00000FFE000008FE00000E060000A82D00208F06000012FE00000F0600003B683B6395
:401680003B1C2E330A221A803B6B1A783B1C08331A705B4B1A885B493B1C2E331B88381C08300090081C111C1A1C022302F0CAFB3B6B0233181C022105F0AEFC3B6B0433E4
:4016C000181C022105F0A8FC3B6B0633181C062105F0A2FC4A4B1B88181C002102F076FC8AE0494B3A680092181C00210022022302F0A8FB80E0424B1B88444A3968009189
:40170000101C191C0022042302F09CFB3C4B1B88181C002102F05AFC6EE03B68BB62BB6A1A893B1C263304321A80B96A384A3B1C26331B880091101C00211A1C022302F036
:4017400081FBBB6A0233181C022105F065FCBB6A0833181C022105F05FFCBB6A5A68BB6A1B89101C191C05F057FC45E0294B3A680092181C00210022042302F063FB3BE0B0
:40178000254B3A680092181C00210022062302F059FB31E03B683B623B6A1A893B1C1E3304321A80164B1A88386A1C493B1C1E331B880090081C111C1A1C022302F042FBCE
:4017C0003B6A0233181C022105F026FC3B6A0833181C022105F020FC3B6A5A683B6A1B89101C191C05F018FC054B1B88181C002102F0ECFB00E0C046BD4619B090BDC04619
:40180000B42D00200105000002050000030500000405000005050000060500000705000080B582B000AF786039607B687A2B0ED87B689A000B4BD3181B689F460A4B1B7865
:4018400001225340DBB2002B00D007E000E0C0467A683B68101C191CFFF770FBBD4602B080BDC046149C01000D04002080B586B002AF78600123FB607B681B888022D200CF
:40188000391C0C310091101C191C0022042302F0D9FA0023181CBD4604B080BD80B586B002AF78603A1C08320C4B111C1A1C0823081C111C1A1C06F056FE7B681B88084A39
:4018C000391C08310091101C191C0022082302F0B9FA0023181CBD4604B080BD009E01000104000080B586B002AF78603A1C08320C4B111C1A1C0823081C111C1A1C06F0A1
:4019000032FE7B681B88084A391C08310091101C191C0022082302F095FA0023181CBD4604B080BD089E01000204000080B586B002AF78603B1C0F3303221A707B681B8897
:40194000074A391C0F310091101C191C0022012302F078FA0023181CBD4604B080BDC0460504000080B586B002AF78603B1C0F3302221A707B681B88074A391C0F31009153
:40198000101C191C0022012302F05CFA0023181CBD4604B080BDC0460604000080B586B002AF78603B1C0F3303221A707B681B88074A391C0F310091101C191C00220123FD
:4019C00002F040FA0023181CBD4604B080BDC0460704000080B586B002AF78603B1C0F3303221A707B681B888122D200391C0F310091101C191C0022012302F023FA002329
:401A0000181CBD4604B080BD80B500AF094B1B78022B04D1084B1B78181C10F0BFFF03F0FDF8064B00221A70054B00221A70BD4680BDC046E62D0020F02D00200E04002010
:401A40000C04002080B582B000AF7860FFF7DCFF03F09CFA044B181C03F002FE031C181CBD4602B080BDC0462118000080B582B000AF78600A4B00221A700A4B1B78002BF2
:401A800009D0012003F048FEFFF7BEFF03F0B2F8054B00221A700023181CBD4602B080BD0D0400200E0400203408002080B582B000AF7860114B00221A70114B1B88DB09C6
:401AC0009BB21A1C07231340042B02D112F0C0F90EE00B4B1A880B4B9A4202D103F040FF06E0074B1A88084B9A4201D103F0CCFE0023181CBD4602B080BDC0460D040020F4
:401B0000B42D002097FE000093FE000080B586B002AF78603B1C0F332A221A703B1C0E3316221A707B681A883B1C0F331B789BB21449381C0E300090081C111C1A1C012399
:401B400002F080F93B1C0E331B780F4A101C191C05F062FA3B1C0E3313221A703B1C0E33181C012105F058FA3B1C0E331B78074A101C191C05F050FA0023181CBD4604B00E
:401B800080BDC0460A040000109E0100289E010080B586B002AF78603B1C083301221A803B1C083300225A803B1C083300229A803B1C08330022DA807B681B88074A391C85
:401BC00008310091101C191C0022082302F03AF90023181CBD4604B080BDC0460B04000090B587B002AF78603C1C0E343B1C0833181C06F091FD031C23807B681A883B1C61
:401C00000E331B88101C191C02F084F93B1C0E331B88002B0BD17B681B88084A391C08310091101C191C0022042302F00BF93B1C0E331B88181CBD4605B090BD030400009C
:401C400080B586B002AF786008F088F9031C1A1C3B1C0F331A707B681B88074A391C0F310091101C191C0022012302F0EBF80023181CBD4604B080BD0904000080B582B047
:401C800000AF78607B685B681A78064B1A70054B1B78181C11F02EF8031C181CBD4602B080BDC046CC00002080B584B002AF78607B681B88D022D20006490091101C191C98
:401CC0000022012302F0BEF80023181CBD4602B080BDC046CC00002090B589B002AF78603B1C0C3300221A703B1C0C3300225A703B1C0C3300229A703B1C0C330022DA702C
:401D00003B1C0C3300221A713B1C0C3300225A713B1C0C3300229A717B685B681A783B1C0C339A713C1C16343B1C0C33181C06F0EFFC031C23807B681A883B1C16331B886A
:401D4000101C191C02F0E6F83B1C16331B88002B12D17B681B880C4A391C0C310091101C191C0122062302F06DF83B1C0C330633181C012105F050F93B1C16331B88181C04
:401D8000BD4607B090BDC0468106000080B584B000AF78607B685B683A1C0832111C1A1C0623081C111C1A1C06F0DDFB7B685B689A793B1C08339A713B1C0833181C06F076
:401DC000BBFC031C181CBD4604B080BD90B589B002AF78603B1C0C3300221A703B1C0C3300225A703B1C0C3300229A703B1C0C330022DA703B1C0C3300221A713B1C0C337D
:401E000000225A713B1C0C3300229A717B685B68214A111C1A1C0223081C111C1A1C06F0A2FB1D4B1A783C1C16343B1C0C33101C191C10F0B7FE031C23807B681A883B1C59
:401E400016331B88101C191C02F064F83B1C16331B88002B18D17B681A887B6859680F4B0091181C111C0722022301F0EBFF3B1C0C33181C062105F0CFF83B1C0C33063356
:401E8000181C012105F0C8F83B1C16331B88181CBD4607B090BDC046F02D00208206000090B589B002AF78603A1C08322A4B111C1A1C0223081C111C1A1C06F054FB7B688B
:401EC0005B683A1C0C32111C1A1C0623081C111C1A1C06F048FB7B685B689A793B1C0C339A713C1C16343A1C08323B1C0C33101C191C10F068FE031C23807B681A883B1CB8
:401F000016331B88101C191C02F004F83B1C16331B88002B18D17B681B88104A391C08310091101C191C0722022301F08BFF3B1C0C33181C062105F06FF83B1C0C330633CA
:401F4000181C012105F068F83B1C16331B88181CBD4607B090BDC046F02D00208306000090B59BB002AF78603B1C0F3302221A703C1C5E343A1C0F323B1C1033101C191C90
:401F800010F001FE031C23803B1C5E331B88002B03D03B1C5E331B8834E07B685B681A783C1C5E34391C54313B1C10331A33081C111C1A1C10F00AFD031C23807B681A8880
:401FC0003B1C5E331B88101C191C01F0A3FF3B1C5E331B88002B12D17B681B880B4A391C54310091101C191C0122062301F02AFF3B1C54330633181C012105F00DF83B1CFE
:402000005E331B88181CBD4619B090BD8B06000080B582B000AF78600223181CBD4602B080BDC04680B586B002AF78603B1C0E3317221A807B681A8823493B1C0E331B88C4
:4020400022480090081C111C1A1C022301F0FAFE1F4B181C022104F0DFFF1E4B181C012104F0DAFF1C4B181C062104F0D5FF1B4B181C012104F0D0FF194B181C012104F0FB
:40208000CBFF184B181C022104F0C6FF164B181C022104F0C1FF154B181C022104F0BCFF134B181C022104F0B7FF124B181C022104F0B2FF104B181C022104F0ADFF0023E4
:4020C000181CBD4604B080BD85060000C82D0020CA2D0020CC2D0020CD2D0020D32D0020D42D0020D62D0020D82D0020DA2D0020DC2D0020DE2D0020E02D002080B584B034
:4021000000AF78603B1C0F3300221A707B685B68BB603B1C0F331B78BA68D318181C03F03FFC031C1A1C6B4B1A803B1C0F333A1C0F32127802321A703B1C0F331B78BA680C
:40214000D318181C03F02CFC031C1A1C614B5A803B1C0F333A1C0F32127802321A703B1C0F331B78BA68D3181A785A4B1A713B1C0F333A1C0F32127801321A703B1C0F33C7
:402180001B78BA68D3185349052289181A1C0623081C111C1A1C06F0E6F93B1C0F333A1C0F32127806321A703B1C0F331B78BA68D3181A78474BDA723B1C0F333A1C0F320B
:4021C000127801321A703B1C0F331B78BA68D3181A78404B1A733B1C0F333A1C0F32127801321A703B1C0F331B78BA68D318181C03F0D6FB031C1A1C364BDA813B1C0F3343
:402200003A1C0F32127802321A703B1C0F331B78BA68D318181C03F0C3FB031C1A1C2D4B1A823B1C0F333A1C0F32127802321A703B1C0F331B78BA68D318181C03F0B0FBB5
:40224000031C1A1C234B5A823B1C0F333A1C0F32127802321A703B1C0F331B78BA68D318181C03F09DFB031C1A1C1A4B9A823B1C0F333A1C0F32127802321A703B1C0F3368
:402280001B78BA68D318181C03F08AFB031C1A1C104BDA823B1C0F333A1C0F32127802321A703B1C0F331B78BA68D318181C03F077FB031C1A1C074B1A833B1C0F333A1C49
:4022C0000F32127802321A700023181CBD4604B080BDC046C82D002080B586B002AF78603B1C0E330A221A807B681A8819493B1C0E331B8818480090081C111C1A1C0123E0
:4023000001F0A0FD154B181C012104F085FE144B181C022104F080FE124B181C022104F07BFE114B181C012104F076FE0F4B181C012104F071FE0E4B181C022104F06CFE5E
:402340000C4B181C012104F067FE0023181CBD4604B080BD86060000E4000020E5000020E6000020E8000020EA000020EB000020EC000020EE00002080B584B000AF78604A
:402380003B1C0F3300221A707B685B68BB603B1C0F331B78BA68D3181A78414B1A703B1C0F333A1C0F32127801321A703B1C0F331B78BA68D3181A78394B5A703B1C0F330D
:4023C0003A1C0F32127801321A703B1C0F331B78BA68D318181C03F0E3FA031C1A1C304B5A803B1C0F333A1C0F32127802321A703B1C0F331B78BA68D318181C03F0D0FA76
:40240000031C1A1C264B9A803B1C0F333A1C0F32127802321A703B1C0F331B78BA68D3181A781F4B9A713B1C0F333A1C0F32127801321A703B1C0F331B78BA68D3181A78C2
:40244000174BDA713B1C0F333A1C0F32127801321A703B1C0F331B78BA68D318181C03F09FFA031C1A1C0E4B1A813B1C0F333A1C0F32127802321A703B1C0F331B78BA6830
:40248000D3181A78064B9A723B1C0F333A1C0F32127801321A700023181CBD4604B080BDE400002080B586B002AF78603B1C0E3303221A807B681A880F493B1C0E331B8819
:4024C0000E480090081C111C1A1C012301F0BAFC0B4B181C012104F09FFD0A4B181C012104F09AFD084B181C012104F095FD0023181CBD4604B080BD8706000024010020E6
:4025000025010020260100202701002080B584B000AF78603B1C0F3300221A707B685B68BB603B1C0F331B78BA68D3181A781D4B1A703B1C0F333A1C0F32127801321A709C
:402540003B1C0F331B78BA68D3181A78154B5A703B1C0F333A1C0F32127801321A703B1C0F331B78BA68D3181A780E4B9A703B1C0F333A1C0F32127801321A703B1C0F33B1
:402580001B78BA68D3181A78064BDA703B1C0F333A1C0F32127801321A700023181CBD4604B080BD2401002090B587B002AF78603B1C083300221A703B1C083300225A7086
:4025C0003B1C083300229A703B1C08330022DA707B685B681B4A111C1A1C0223081C111C1A1C05F0C0FF174B1A783C1C0E343B1C0833101C191C10F0F7FA031C23807B683A
:402600001A883B1C0E331B88101C191C01F082FC3B1C0E331B88002B0CD17B681B88D122D200391C08310091101C191C0022042301F008FC3B1C0E331B88181CBD4605B07A
:4026400090BDC046F02D002090B595B002AF78603C1C44343A1C41323B1C0833101C191C10F09CFA031C23807B681A883B1C44331B88101C191C01F04DFC3B1C44331B88D1
:40268000002B45D13B1C41331B783A1C4232191CC900CB1A13807B681A8821493B1C42331B8800200090081C111C1A1C002301F0C9FB3B1C463300221A8021E03B1C463371
:4026C0001A88391C0831131CDB009B1ACB18181C062104F0A1FC3B1C46331A88391C0831131CDB009B1ACB180633181C012104F093FC3B1C46331A883B1C463301321A8059
:402700003B1C41331B783A1C463212889A42D5D33B1C44331B88181CBD4613B090BDC0468906000090B587B000AF78603B1C1633FF221A807B685B683A1C0C32111C1A1C07
:402740000623081C111C1A1C05F00DFF7B685B689A793B1C0C339A713C1C16343B1C0C33181C10F065F8031C23803B1C16331B88181CBD4607B090BD90B587B000AF786042
:402780003B1C1633FF221A807B685B683A1C0C32111C1A1C0623081C111C1A1C05F0E3FE7B685B689A793B1C0C339A713C1C16343B1C0C33181C10F049FA031C23803B1C79
:4027C00016331B88002B02D1012002F0A5FF3B1C16331B88181CBD4607B090BD90B587B000AF78603B1C1633FF221A803B1C0C3300221A703B1C0C3300225A703B1C0C3302
:4028000000229A703B1C0C330022DA703B1C0C3300221A713B1C0C3300225A713B1C0C3300229A713C1C16343B1C0C33181C10F00DFA031C23803B1C16331B88002B02D16B
:40284000012002F069FF3B1C16331B88181CBD4607B090BD80B582B000AF7860022002F0C9FF031C181CBD4602B080BD80B584B000AF78603B1C0E3300221A80094B1A8816
:40288000094B9A4202D102F0FFFF03E03B1C0E3302221A803B1C0E331B88181CBD4604B080BDC046B42D002093FE000090B597B002AF78607B685B681A783C1C4E343B1C73
:4028C0000C33101C191C10F0D4F8031C23807B681A883B1C4E331B88101C191C01F01AFB3B1C4E331B88002B67D17B681B88364A00210091101C191C4522002301F0A2FA35
:402900003B1C0B3310221A703B1C0B33181C012104F082FB3B1C0B331B783A1C0C32101C191C04F079FB3B1C0B330A221A703B1C0B33181C012104F06FFB3B1C0B331B78A9
:402940003A1C0C321032101C191C04F065FB3B1C0B3310221A703B1C0B33181C012104F05BFB3B1C0B331B783A1C0C321A32101C191C04F051FB3B1C0C332B33181C06214E
:4029800004F04AFB3B1C0C332A33181C012104F043FB3B1C0B3310221A703B1C0B33181C012104F039FB3B1C0B331B783A1C0C323132101C191C04F02FFB3B1C4E331B88E6
:4029C000181CBD4615B090BD8C06000080B582B000AF78600223181CBD4602B080BDC04680B584B000AF78607B685B683A1C0832111C1A1C0623081C111C1A1C05F0B3FDDF
:402A00007B685B689A793B1C08339A713B1C0833181C02F049FF031C181CBD4604B080BD80B586B002AF7860134B1B78022B18D03B1C0F3300221A70D223DB000F4A0092FF
:402A4000181C00210122022301F0FCF93B1C0F33181C012104F0E0FA094B00221A70002306E07B685B681B78181C0FF097FF031C181CBD4604B080BDE62D0020F02D002054
:402A80000D04002080B582B000AF78607B685B680A4A111C1A1C0223081C111C1A1C05F062FD064B1A78064B101C191C0FF0FDFE031C181CBD4602B080BDC046F02D002083
:402AC0002401002090B587B000AF78607B685B683A1C0C32111C1A1C0623081C111C1A1C05F041FD7B685B689A793B1C0C339A713C1C16343B1C0C33181C10F0A7F8031C8A
:402B000023803B1C16331B88002B08D17B685B683C1C1634181C0FF08BFE031C23803B1C16331B88181CBD4607B090BD80B586B000AF78603B1C173302221A707B685B6880
:402B40003B613B1C17331B783A1C1732591C11703A69D3181B78FB60264B1A88264B9A4201D0022342E03B1C17331B783A1C1732591C11703A69D3181B781B02FA6813433D
:402B8000FB603B1C17331B783A1C1732591C11703A69D3181B781B04FA681343FB603B1C17331B783A1C1732591C11703A69D3181B781B06FA681343FB60104A3B69111C55
:402BC0001A1C0223081C111C1A1C05F0CCFC0B4B19783B1C17331B783A69D3181B78FA68081C111C1A1C0FF049FE031C181CBD4606B080BDB42D002099FE0000F02D0020AD
:402C000080B584B000AF78607B685B68FB600B4AFB68111C1A1C0223081C111C1A1C05F0A2FC064B1A78FB680233101C191C10F053F9031C181CBD4604B080BDF02D00209D
:402C400090B587B002AF78603C1C0E3402F088FE031C23807B681A883B1C0E331B88101C191C01F057F93B1C0E331B88002B0DD10A4B00221A707B681B88094A0021009149
:402C8000101C191C0022002301F0DCF83B1C0E331B88181CBD4605B090BDC0460D0400209406000090B58FB002AF78603C1C2C343B1C0C33181C0FF01EFF031C23807B6814
:402CC0001A883B1C2C331B88101C191C01F022F93B1C2C331B88002B46D13B1C0C331B783A1C2A32191CC900CB1A13807B681A8821493B1C2A331B8800200090081C111C39
:402D00001A1C002301F09EF83B1C2E3300221A8022E03B1C2E331A88391C0C31131CDB009B1ACB180133181C062104F075F93B1C2E331A88391C0C31131CDB009B1ACB1830
:402D40000733181C012104F067F93B1C2E331A883B1C2E3301321A803B1C0C331B783A1C2E3212889A42D4D33B1C2C331B88181CBD460DB090BDC0469506000090B585B0DF
:402D800000AF78607B685B68FB600D4AFB68111C1A1C0223081C111C1A1C05F0E4FB084B1C78FB680233181C02F0FAFD031C201C191C0DF02FFF031C181CBD4605B090BD3F
:402DC000F02D002090B599B002AF78607B685B687B657B6D19787B685B689A1C3C1C52343B1C1033081C111C1A1C0FF00DFF031C23807B681A883B1C52331B88101C191CF3
:402E000001F088F83B1C52331B88002B67D17B681B88364A796D0091101C191C4522022301F010F83B1C0F3310221A703B1C0F33181C012104F0F0F83B1C0F331B783A1C3A
:402E40001032101C191C04F0E7F83B1C0F330A221A703B1C0F33181C012104F0DDF83B1C0F331B783A1C10321032101C191C04F0D3F83B1C0F3310221A703B1C0F33181C8D
:402E8000012104F0C9F83B1C0F331B783A1C10321A32101C191C04F0BFF83B1C10332B33181C062104F0B8F83B1C10332A33181C012104F0B1F83B1C0F3310221A703B1C92
:402EC0000F33181C012104F0A7F83B1C0F331B783A1C10323132101C191C04F09DF83B1C52331B88181CBD4617B090BD9706000080B582B000AF78607B685B681A785B7836
:402F00001B021A4300231204120C1B0C1B041343181C10F05BFE031C181CBD4602B080BD80B586B000AF78603B1C173302221A703B1C163300221A707B685B682C4A111C7C
:402F40001A1C0223081C111C1A1C05F00CFB7B685A683B1C17331B78391C1731581C0870D2183B1C163312781A703B1C16331B78012B04D13B1C0C3302229A8008E03B1C2C
:402F800016331B78022B03D13B1C0C3310229A807B685B881A1C3B1C0C339B88191C3B1C17331B78CB189A4201D001231BE07B685A683B1C17331B78D2183B1C0C331A60B2
:402FC0000B4B3A1C0C3219785B781B02194300230904090C1B0C1B040B43181C1168526810F03EFE031C181CBD4606B080BDC046F02D002080B584B000AF78607B685B686C
:403000000233FB607B685B68104A111C1A1C0223081C111C1A1C05F0A6FAFB685A880C4B1A800A4BFA6819785B781B02194300230904090C1B0C1B040B43181C111C10F058
:403040003DFE031C181CBD4604B080BDF02D0020AA2D002080B584B000AF78607B685B680233FB607B685B68134A111C1A1C0223081C111C1A1C05F076FAFB685A880F4B5E
:403080001A800D4BFA6819785B781B02194300230904090C1B0C1B040B43118852881204114300220A1C181C111C10F073FD031C181CBD4604B080BDF02D0020AA2D002095
:4030C00090B58BB000AF021C3960FB1D1A703B1C273302221A703B1C243302221A803B1C233307221A703B685B685A4A111C1A1C0223081C111C1A1C05F035FA3B685A687B
:403100003B1C27331B78391C2731581C0870D3181A783B1C0C331A753B1C0C331B7D012B1CD13B685A683B1C27331B78D318181C02F036FC031C1A1C3B1C0C339A803B1C81
:4031400023333A1C2332127802321A703B1C27333A1C2732127802321A7022E03B1C0C331B7D022B1DD13B685A683B1C27331B78D3183A1C0C32111D1A1C1023081C111C03
:403180001A1C05F0F0F93B1C23333A1C2332127810321A703B1C27333A1C2732127810321A703B685A883B1C23331B789BB29A4244D13B685A683B1C27331B78D3183A1CAA
:4031C0000C32111C1A1C0423081C111C1A1C05F0CAF9FB1D1B78002B1AD03B1C0C335A881D4B1A803C1C24341A4B3A1C0C3219785B781B02194300230904090C1B0C1B047D
:403200000B43181C111C10F0F9FC031C238019E03C1C24340F4B3A1C0C3219785B781B02194300230904090C1B0C1B040B43181C111C10F0A9FD031C238003E03B1C243381
:4032400001221A803B1C24331B88181CBD460BB090BDC046F02D0020AA2D002080B582B000AF78607B680120191CFFF729FF031C181CBD4602B080BD80B584B000AF78604D
:403280007B685B680233FB607B685B68104A111C1A1C0223081C111C1A1C05F064F9FB685A880C4B1A800A4BFA6819785B781B02194300230904090C1B0C1B040B43181CA0
:4032C000111C10F051FC031C181CBD4604B080BDF02D0020AA2D002080B584B000AF78607B685B680233FB607B685B680F4A111C1A1C0223081C111C1A1C05F034F9FB6820
:403300001A880A4B19785B781B02194300230904090C1B0C1B040B43181C111C10F0F3FC031C181CBD4604B080BDC046F02D002080B582B000AF78607B680020191CFFF7EA
:40334000BFFE031C181CBD4602B080BD80B584B000AF78607B685B680233FB607B685B680E4A111C1A1C0223081C111C1A1C05F0FAF80A4BFA6819785B781B02194300237A
:403380000904090C1B0C1B040B43181C111C10F0D7FC031C181CBD4604B080BDF02D002080B584B000AF78607B685B685A883B1C08339A807B685B881A1C3B1C08339B88CA
:4033C00002335B009A4201D0012322E07B685B68124A111C1A1C0223081C111C1A1C05F0C2F87B685B681A1D3B1C08331A600B4B3A1C083219785B781B02194300230904CE
:40340000090C1B0C1B040B43181C111C10F0AEFC031C181CBD4604B080BDC046F02D002090B587B000AF021C3960FB1D1A703B1C153302221A703B1C163302221A803B687C
:403440005B684E4A111C1A1C0223081C111C1A1C05F089F83B685A683B1C15331B78D3181A883B1C08331A813B1C15333A1C1532127802321A703B685A683B1C15331B7800
:40348000D3181A883B1C08339A803B1C15333A1C1532127802321A703B685A683B1C15331B78D2183B1C08331A603B685B881A1C3B1C08339B88191C3B1C15331B78CB1807
:4034C0009A4204D13B1C08331B68002B04D13B1C163301221A804AE0FB1D1B78012B1AD0022B2ED0002B00D041E03C1C1634234B3A1C083219785B781B02194300230904CA
:40350000090C1B0C1B040B43181C111C10F0A6FC031C23802BE03C1C1634184B3A1C083219785B781B02194300230904090C1B0C1B040B43181C111C10F09AFC031C23800E
:4035400015E03C1C16340D4B3A1C083219785B781B02194300230904090C1B0C1B040B43181C111C10F0DAFC031C2380C0463B1C16331B88181CBD4607B090BDF02D00205C
:4035800080B582B000AF78607B680220191CFFF747FF031C181CBD4602B080BD80B582B000AF78607B680120191CFFF739FF031C181CBD4602B080BD90B585B000AF021C81
:4035C0003960FB1D1A703B1C0D3302221A703B1C0E3302221A803B685B68474A111C1A1C0223081C111C1A1C04F0BDFF3B685A683B1C0D331B78D3181A88404B1A813B1CA6
:403600000D333A1C0D32127802321A703B685A683B1C0D331B78D3181A88384B9A813B1C0D333A1C0D32127802321A703B685A683B1C0D331B78D3181A88304B9A803B1C37
:403640000D333A1C0D32127802321A703B685A683B1C0D331B78D218284B1A603B685B881A1C264B9B88191C3B1C0D331B78CB189A4203D1214B1B68002B04D13B1C0E33FE
:4036800001221A8030E0FB1D1B78002B14D13C1C0E34194B194A19785B781B02194300230904090C1B0C1B040B43181C111C10F0E9FB031C238017E0FB1D1B78012B13D1B2
:4036C0003C1C0E340C4B0D4A19785B781B02194300230904090C1B0C1B040B43181C111C10F0F6FB031C23803B1C0E331B88181CBD4605B090BDC046F02D0020FC030020E2
:4037000080B582B000AF78607B680120191CFFF753FF031C181CBD4602B080BD90B587B000AF78607B685B683B613B1C163302221A703B1C143302221A803B1C16331B78B3
:403740003A69D318181C02F02BF9031C1A1C3B1C0F331A703B1C0F331B78181C102104F0B1FE031C1A1C614B1A60604B1B68002B09D17B681A88FD231B02101C191C00F004
:40378000C9FB0123ADE0594B1B68BB603B1C16333A1C1632127802321A703B1C173300221A7066E03B1C17331B781B01BA68D4183B1C16331B783A69D318181C02F0F0F80C
:4037C000031C23813B1C16333A1C1632127802321A703B1C17331B781B01BA68D4183B1C16331B783A69D318181C02F0D9F8031CA3813B1C16333A1C1632127802321A70A1
:403800003B1C17331B781B01BA68D4183B1C16331B783A69D318181C02F0C2F8031CA3803B1C16333A1C1632127802321A703B1C17331B781B01BA68D3183A1C163212783C
:4038400039698A181A603B1C17331B781B01BA68D3189B88D9B23B1C16333A1C163212788A181A703B1C17331A783B1C173301321A703A1C17323B1C0F3312781B789A42C9
:4038800090D37B685A883B1C16331B789BB29A4204D03B1C143301221A801FE0144A3B69111C1A1C0223081C111C1A1C04F05BFE3C1C14340E4BB9683A1C0F32127818782D
:4038C0005B781B02184300230004000C1B0C1B040343181C10F078FA031C23803B1C14331B88181CBD4607B090BDC04630080020F02D002080B584B000AF78607B685B68A9
:40390000FB607B685B68104A111C1A1C0223081C111C1A1C04F027FEFB6802331A880A4B19785B781B02194300230904090C1B0C1B040B43181C111C10F0DEF9031C181C34
:40394000BD4604B080BDC046F02D002080B584B000AF78607B685B680233FB607B685B680E4A111C1A1C0223081C111C1A1C04F0FAFD0A4BFA6819785B781B02194300233B
:403980000904090C1B0C1B040B43181C111C10F0C1F9031C181CBD4604B080BDF02D002080B582B000AF78607B680020191CFFF737FD031C181CBD4602B080BD80B582B0B6
:4039C00000AF78607B680020191CFFF7F5FD031C181CBD4602B080BD80B582B000AF78607B685B68104A111C1A1C0223081C111C1A1C04F0B8FD7B685B6802331A880A4B63
:403A000019785B781B02194300230904090C1B0C1B040B43181C111C10F03EF9031C181CBD4602B080BDC046F02D002080B586B002AF78603B1C0E3302221A80154B1B8863
:403A4000DB099BB21A1C07231340042B1AD110F0FFF9114B00221A700E4B1B88181C002100F058FA0B4B1B88C222D20000210091101C191C0022002300F0E4F93B1C0E3349
:403A800000221A803B1C0E331B88181CBD4604B080BDC046B42D00200D04002090B585B000AF78607B685B683C1C0E34181C01F077FF031C23807B685B6802333C1C0C349E
:403AC000181C01F06DFF031C23803B1C0E331A883B1C0C331B88101C191C0CF077FF031C181CBD4605B090BD90B585B000AF78607B685B683C1C0E34181C01F051FF031C00
:403B000023803B1C0E331B88181C0CF0A0FF031C181CBD4605B090BD90B587B000AF78607B685B687B613B1C133302221A703B1C13331B787A69D3183C1C1034181C01F0F1
:403B40002FFF031C23803B1C13333A1C1332127802321A703B1C13331B787A69D3183C1C0E34181C01F01CFF031C23803B1C13333A1C1332127802321A703B1C13331B788B
:403B80007A69D318181C01F00BFF031C1A1C3B1C08331A803B1C13333A1C1332127802321A703B1C13331B787A69D318181C01F0F7FE031C1A1C3B1C08335A803B1C133391
:403BC0003A1C1332127802321A703B1C13331B787A69D318181C01F0E3FE031C1A1C3B1C08339A803B1C13333A1C1332127802321A707B6918783B1C103319883B1C0E3316
:403C00001A883B1C08330CF0C1FE031C181CBD4607B090BD90B587B000AF78607B685B687B613B1C133300221A703B1C13331B787A69D3183C1C1034181C01F0B1FE031CE0
:403C400023803B1C13333A1C1332127802321A703B1C13331B787A69D3183C1C0E34181C01F09EFE031C23803B1C13333A1C1332127802321A703B1C13331B787A69D31888
:403C8000181C01F08DFE031C1A1C3B1C08331A803B1C13333A1C1332127802321A703B1C13331B787A69D318181C01F079FE031C1A1C3B1C08335A803B1C13333A1C1332C0
:403CC000127802321A703B1C13331B787A69D318181C01F065FE031C1A1C3B1C08339A803B1C13333A1C1332127802321A703B1C103319883B1C0E331A883B1C0833081C4A
:403D0000111C1A1C0CF053FE031C181CBD4607B090BDC04690B585B000AF78607B685B683C1C0E34181C01F03BFE031C23807B685B6802333C1C0C34181C01F031FE031C2C
:403D400023803B1C0E331A883B1C0C331B88101C191C0CF071FE031C181CBD4605B090BD90B587B000AF78607B685B683B613B1C0F3302221A703B1C163301221A803B1CC9
:403D80000F331B783A69D3183C1C0C34181C01F007FE031C23803B1C0F333A1C0F32127802321A703B1C0F331B783A69D3183C1C0A34181C01F0F4FD031C23803B1C0F33E3
:403DC0003A1C0F32127802321A703B1C0A331A883B1C0F331B78D2187B685B889A4212D13B6918783B1C0F331B783A69D2183C1C16343B1C0C3319883B1C0A331B880CF01A
:403E000031FE031C23803B1C16331B88181CBD4607B090BD90B585B000AF78607B685B683C1C0E34181C01F0BBFD031C23803B1C0E331B88181C0CF0E2FE031C181CBD4692
:403E400005B090BD90B587B000AF041C081C111C1A1CBB1D1C803B1D1880BB1C19803B1C1A803B1C0A332A4A1A803B1C0A33181C022103F0D1F83B1C0C33BA1D12885A807F
:403E80003B1C1B8802339AB23B1C0C331A803B1C173304221A703B1D1B88002B13D03B1C0C333A1D12889A803B1C17333A1C1732127802321A703B1C0C331B8802339AB21A
:403EC0003B1C0C331A803B1C0C331A88BB1C1B88D3189AB23B1C0C331A803B1C17331B783A1C0C32101C191C03F096F83B1C1B88002B09D0BB6A002B06D03B1C1B88BA6A8D
:403F0000101C191C03F088F8BD4607B090BDC046BDA7FFFF80B586B000AF0A1CBB1D011C19803B1D1A803B1C0E33214A1A803B1D1B88002B16D01F4B1B88BA1D12889A427B
:403F40000AD11D4B00221A701C4A1D4B101C00211A1C04F011FB05E01A4B181C00210C2204F00AFB3B1C0E33181C022103F054F83B1C103306221A803B1C1033124A5A80E1
:403F80003B1C1033BA1D12889A803B1C10333A1D1288DA803B1C10331B8802333A1C1032101C191C03F038F8BD4606B080BDC046BDA7FFFFB42D00200D04002010040020A5
:403FC00004040000140800207E04000080B586B000AF0A1CBB1D011C19803B1D1A803B1C0E33254A1A803B1C0E33181C022103F013F8224B1B88BA1D12889A420AD1204B0A
:4040000000221A701F4A204B101C00211A1C04F0B3FA05E01D4B181C00210C2204F0ACFA1B4B1B783A1D128851424A41D2B2134002D0184B01221A703B1C103306221A8055
:404040003B1C1033144A5A803B1C1033BA1D12889A803B1C10333A1D1288DA803B1C10331B8802333A1C1032101C191C02F0D4FFBD4606B080BDC046BDA7FFFFB42D0020D5
:404080000D0400201004002004040000140800200C0400200E0400207F04000080B582B000AF104B7B60104B3B60104B1B78002B03D00F4B7B600F4B3B607B681A883B68F2
:4040C0001A807B685A883B685A803B685B88002B03D07B681A1D3B685A603B68181CBD4602B080BD10040020B42D00200D04002014080020AC2D002090B585B000AF3B1C05
:404100000A3306221A800023FB60FFF7C7FF031C7B607B681B88D9B2FB1C7F220A401A707B681B88DB099BB2D9B2BB1C07220A401A70BB1C1B78052B34D89A00754BD318AE
:404140001B689F46FB1C1B780D2B06D8FB1C1B78DA00714BD318FB6027E026E0FB1C1B78062B06D8FB1C1B78DA006C4BD318FB601BE01AE0FB1C1B78132B06D8FB1C1B78E5
:40418000DA00674BD318FB600FE00EE0FB1C1B78202B06D8FB1C1B78DA00624BD318FB6003E002E0C04600E0C0465F4B1B7801225340DBB2002B0CD0BB1C1B78002B08D061
:4041C0005A4B00221A707B681B88181C0221FFF7A1FE574B1B78002B09D0BB1C1B78002B05D0FB681B781A1C1023134006D0FB68002B03D0FB685B68002B09D14B4B00228D
:404200001A707B681B88181C0221FFF783FE7EE07B685A888023DB009A420BD9434B00221A707B681A88FD231B02101C191CFFF771FE6CE0FB681B781A1C0123134005D0B9
:40424000FB685A887B685B889A4207D17B685B88002B0DD07B685B68002B09D1334B00221A707B681B88181C0121FFF753FE4EE0304B1B78DBB2012B09D12C4B00221A70C7
:404280007B681B88181C0821FFF744FE3FE0FB681B781A1C0223134005D07B681B88181C0021FFF737FE04F043FA214B01221A701E4B00221A70FB685B683C1C0A347A6848
:4042C000101C9847031C2380FB681B781A1C0423134008D07B681A883B1C0A331B88101C191CFFF717FE3B1C0A331B88002B0ED1FB681B781A1C0823134008D07B681A8803
:404300003B1C0A331B88101C191CFFF75FFEBD4605B090BD8CA001003C9E010054A00100B49F0100AC9E01000C040020200800200D040020FF2D002090B583B000AF674B23
:404340007B60674B1A680423134000D1AFE0654B1B78002B01D0644B7B607A68624B9A4208D1624B1B78DBB2002B03D0604B04221A60AFE092E05F4B1B68591C5D4A116076
:404380007A68D41802F0DAFD031CDBB2237001F095F801F081F8584B1B78DBB2012B20D002DC002B05D079E0022B26D0032B57D074E0524B00221A804E4B1B68012B0FD9D4
:4043C0007B681B78432B07D17B6801331B78592B02D1494B01221A70464B00221A605DE05CE0464B00221A80424B1B68022B03D1414B02221A7051E050E03E4B1B68042BE5
:4044000029D17B685A883D4B1A803C4B1B889AB28023DB009A4209D9364B00221A60364B00221A70314B01221A7018E0334B1B889BB2002B03D0304B03221A700FE02D4B81
:4044400000221A602C4B00221A70284B01221A7001F034F822E0294B00221A801EE01DE0264B1B889BB2002B06D0244B1B889BB2013B9AB2214B1A80204B1B889BB2002B3E
:404480000BD11C4B00221A601B4B00221A70174B01221A7001F012F8FFE7C04602F05EFD031C002B00D066E7114B04221A600C4B1A6882231B0113400CD00F4B00221A7096
:4044C0000C4B00221A600A4B802212011A60084B20221A60BD4603B090BDC04610040020CC0F24400D0400201408002020080020C00F2440240800202108002028080020ED
:4045000080B582B000AF01F037F8031C7B607B68012B09D1074B00221A70074B00221A607B68181C01F032F800F078FFBD4602B080BDC046210800202408002080B500AF6C
:4045400000F07EFB00F0DEFC031C002B02D0024B01221A70BD4680BDBC2D002080B500AF094B1B78DBB25A1E9341DBB201225340DBB21A1C01231340DAB2034B1A7002F032
:40458000D7FEBD4680BDC0462C08002080B500AF02F08CFC0D4B181C02F0AEFC0C4B181C00F0D4FE0B4B181C02F0F8FD0A4B181C02F04CFE094B181C00F042FD00F0FCFBE5
:4045C00062B600F017FBBD4680BDC04639430000014500005D450000294C00003D45000080B500AFFFF7D2FF04F0A2F8204B1B78DBB2002B02D000F0CDFA38E01D4B1B7875
:4046000001225340DBB2002B08D01B4B1B68002B04D0194B1B68181C03F08CFF174B1B78DBB2002B02D0FFF767FD08E0144B1B7801225340DBB2002B01D000F02BF8114B52
:404640001B781A1C0123134011D004F071F802F0FDFC031C002B0AD1064B1B7801225340DBB2002B03D0002001F056F8BCE7BBE72C0800200D0400203008002020080020BE
:404680000E040020C02D002080B500AF00F07EFCBD4680BD90B587B000AF644B1B78DBB2012B00D1BEE0624B1B78012B64D0022B00D188E0002B00D08EE05E4B1B78052BBD
:4046C00017D15D4B1B78002B0AD05C4B181C01F0EBF8031C002B4ED1574B00221A704AE0574B1B78DBB2002B45D0022001F082F872E0504B1B78032B08D1514B1B78DBB230
:40470000002B38D04E4B00221A7065E04D4B1B78002B30D13B1C123301221A803B1D0F221A813B1D02229A803B1D3A1C12321A603C1C1634444B3A1D19785B781B02194381
:4047400000230904090C1B0C1B040B43181C111C0FF084FB031C23803B1C16331B88002B03D1334B02221A7005E0374B1B78181C0EF014F930E02FE0324B1B78002B02D0EC
:404780002B4B00221A703B1C153301221A703C1C1434022003F0B4FF031C237072B63C1C153405F0D3FB031C23703B1C14331B78022B06D13B1C15331B78022B01D003F0DB
:4047C0006DFA62B608E01F4B1B78002B03D0184B00221A70FFE7C046194B1B78DBB2002B20D0144B1B78022B0AD1174B1B78181C0EF0D4F8031C002B14D0FFF745FF11E077
:404800000C4B1B78042B07D101F0AAF8031C002B08D0FFF739FF05E0064B1B78032B01D101F032F8BD4607B090BDC046FF2D002034080020E62D002035080020380800201B
:4048400036080020E72D0020F02D002080B582B000AF021CFB1D1A7000F098FBFB1D1B786422D31A1A1C131CDB039B1A181C642103F078FD031C181C00F026FBBD4602B0C0
:4048800080BDC04680B584B000AF78603B1C0E3300221A807EE07B68DA683B1C0E331B88D2183B1C0C3312781A703B1C0E333A1C0E3212881A803B1C0C331B78002B69D030
:4048C0007B68DA683B1C0E331B880133D2183B1C0B3312781A703B1C0B331B78162B4CD13B1C0E331B88DAB23B1C0D3302321A7037E07B68DA683B1C0D331B78D318181C6A
:4049000001F04EF8031C1A1C294B9A4222D13B1C0D333A1C0D32127802321A703B1C0D331A783B1C0E3319883B1C0C331B78CB189A420FDA7B68DA683B1C0D331B78D318C7
:40494000181C01F02DF8031C1A1C1A4B9A4201D1012328E03B1C0D333A1C0D32127802321A703B1C0D331A783B1C0E3319883B1C0C331B78CB189A42BBDB3B1C0C331B78DC
:404980009AB23B1C0E331B88D3189AB23B1C0E3301321A807B681B7A3A1C0E3212889A4200D278E70023181CBD4604B080BDC046B5CA0000A2CA000080B582B000AF7860F5
:4049C000104B00221A707B68181CFFF75BFF031C002B13D000F058FF7B685B680A4A111C1A1C0623081C111C1A1C03F0BCFD7B685A78054B9A71034B01221A70BD4602B05C
:404A000080BDC046350800203808002080B586B002AF786039607B68272B40D00BD8042B06D8032B14D2012B15D0022B26D06BE0202B29D068E04D2B43D004D8282B3DD0CE
:404A4000402B26D060E0522B3FD0702B50D05BE0FFF71AFE58E03B1C0833181C04F036FC031C002B09D13B1C083302221A703B1C0833181C04F078FC46E045E0244B1B7802
:404A8000181C0DF08BFF3FE03B68181CFFF794FF3AE01F4B1B78181C0DF080FF34E000F075FA1C4B00221A701B4B002200920120191C0122012300F087F925E000F066FAF3
:404AC00022E0164B01221A701EE03B68FB60FB689B890E2B0BD1FB685B681B78FF2B06D0FB685B681B78181CFFF7B0FE0CE00BE0074B1B78181C01210CF08CF8031C002BE8
:404B000001D0FFF7C1FDC046BD4604B080BDC046F02D0020BC2D0020B80B00003408002080B500AF0B4B181C00F010FC0A4B181C02F034FB094B181C02F088FB00F0ACFCE2
:404B4000074B181C00F07CFA00F036F902F0AEF9BD4680BD014500005D450000294C00003D45000080B500AF02F0B2F900F0A6FC02F0FEFD80235B00181C02F0D1FE02F08D
:404B8000CDFD00F003FA00F0F3FB03F0A1F8BD4680BDC04690B583B000AFFB1D01221A70134B1B78032B01D100F06EFE03F0C0FDBC1D032003F0A4FD031C237072B6FC1D22
:404BC00005F0C4F9031C2370BB1D1B78032B0BD1FB1D1B78042B03D0FB1D1B78062B03D1FFF7C0FFFFF79CFF62B6BD4603B090BDE62D002080B500AF064B181C00F030FD65
:404C0000054B1B78DBB220221343DAB2024B1A70BD4680BD0D4A0000012E002080B500AF00F06CFDBD4680BD80B500AF034B01221A7002F065FBBD4680BDC04636080020D1
:404C400080B500AF524B1B7801225340DBB2002B00D19AE04F4B1A684F4B1B88101C191C00F030FA031C01225340DBB2002B0DD04A4B1B881A1C4A4B1B68D218484B1A60AC
:404C8000474B1B68181C02F0F7FB7EE0414B1A68414B1B88191C434B1B88CB18101C191C00F010FA031C01225340DBB2002B04D03B4B1A683A4B1A6067E0364B1A68364B55
:404CC0001B88191C374B1B88C918374B1B88CB18101C191C00F0F6F9031C01225340DBB2002B13D0314B1B881A1C2D4B1B689A4206D22B4B1A682D4B1B88D21A284B1A602E
:404D0000274B1B68181C02F0B7FB3EE0214B1A68214B1B88191C234B1B88C918224B1B88C918234B1B88CB18101C191C00F0CAF9031C01225340DBB2002B08D0184B002281
:404D40001A60174B1B68181C02F096FB1DE0194B1B78002B02D100F019F916E0154B1B78FF2B05D0134B1B78013BDAB2114B1A7000F09EF9021C074B1A60094B00221A6041
:404D8000074B1B68181C02F077FBBD4680BDC046580800204C080020400800205008002054080020420800204408002052080020460800204808002080B500AF02F0D0FA22
:404DC00002F04EF8BD4680BD90B583B000AF041C081C111C1A1CBB1D1C803B1D1880BB1C19803B1C1A8000F08DF8031C002B56D02C4BBA1D12881A802B4B3A1D12881A8040
:404E00002A4BBA1C12881A80294B3A1C12881A80284B3A1C183212781A7000F049F9021C254B1A60254B00221A60052002F05CFB224B1B68181C02F01FFBBB1D1B88002B44
:404E40000BD0BB1D1B88FA22D001191C03F08AFA031C9AB21A4B1A8008E0194BFA22D2011A80FA23DB01181C02F006FBBB1C1B88002B0BD0BB1C1B88FA22D001191C03F0D5
:404E800071FA031C9AB20F4B1A8003E00D4BFA22D2011A80FF2001F0CDFF02F0A7FABD4603B090BD40080020420800204408002046080020480800204C08002054080020E6
:404EC000500800205208002080B582B000AF786000F018F8031C002B0ED0094B01221A70052002F001FB7B68181C02F0C5FAFF2001F0A0FF02F07AFABD4602B080BDC046C1
:404F00005808002090B583B000AFFB1D00221A70174B1B881A1C174B1B88D218164B1B88D218164B1B88D3183B60154B1B78002B17D1144B1B7801225340DBB2002B10D01E
:404F40003B68002B0AD0104B1A68FC1D3B68101C191C00F0B7F8031C237002E0FB1D01221A70FB1D1B78181CBD4603B090BDC0464008002042080020440800204608002003
:404F800048080020580800204C08002080B500AF012002F0A9FA02F03BFA01F061FF0A4B00221A80094B00221A80094B00221A80084B00221A80084B00221A70074B0022C8
:404FC0001A70BD4680BDC04640080020420800204408002046080020480800205808002080B500AF02F018FD021C8023DB009A4200D01AE08023DB00181C02F01BFD0C4B05
:405000001B781A1C0B4B1B68D2180A4B1A600A4B1B68002B09D0094B1B7801225340DBB2002B02D0044B1B689847BD4680BDC046600800205C08002064080020BC2D00207A
:4050400080B582B000AF7860154B7A681A607B68002B02D0134B00221A7002F089FB124B0820191C02F01CFD082002F093FD0120012102F0BBFB01201F2102F085FC0120D7
:40508000012102F0E3FB80235B00181C02F016FC02F044FB054B01221A70BD4602B080BD64080020BC2D0020E14F00006008002080B500AF024B1B68181CBD4680BDC0462D
:4050C0005C08002080B584B000AF786039603B1C0F3300221A70114B1A687B68D21A3B689A4204D33B1C0F3301221A700FE00B4B1B687A689A420AD97A683B68D218074BEB
:405100001B689A4203D33B1C0F3301221A703B1C0F331B78181CBD4604B080BD5C08002080B500AFFEE7C04680B584B000AF7860104B1A687B68D3181A1C0F4BD21A802393
:40514000DB009A4209DC0B4B1B68FB60094B1A687B68D218074B1A6007E003F0BFF9031C0C221A6001235B42FB60FB68181CBD4604B080BDD00000201030002080B586B035
:4051800000AF224B7B61224B3B61204B7B6135E03B691B68FB603B695B68BB603B699B683B6000237B600CE0FB681A68BB681A60BB680433BB60FB680433FB607B6804335C
:4051C0007B607A683B689A42EED13B69DB683B6000237B6008E0BB6800221A60BB680433BB607B6804337B607A683B689A42F2D13B6910333B617B69013B7B617B69002B71
:40520000C6D103F071F9FFF7EBF9FEE70100000040A7010080B582B000AF154B144A126801218A431A6000237B600FE07B68032B04D8104B7A689200D35800E00E4B0F4AB5
:40524000796889008B507B6801337B607B682F2BECD9FAF7C1FF0A4B00221A60044B044A126801210A431A60BD4602B080BDC0460000104000000000215100000000002079
:40528000C000002080B582B000AF786039607A683B68101C00211A1C03F06EF9BD4602B080BDC04680B586B000AF7860396000233B6100237B612EE07B699B007A68D3188A
:4052C0001B68BB603B1C0F33BA681A70BB68FF229343BB6017E03B695B003A68D3181B781A1CBB68D3183A69520039688A1852781A703B6901333B613B1C0F331A783B1CBA
:405300000F33013A1A703B1C0F331B78002BE2D17B6901337B617B69002BCDD0BD4606B080BDC04680B500AF054B03221A60054B03221A60044B00221A60BD4680BDC046CD
:405340003000304030003140000E3F4080B582B000AF786000F058F87B68181C00F014F8032000F01FF800F045F8BD4602B080BD80B500AF00F048F8024B181C00F004F854
:40538000BD4680BD2151000080B582B000AF7860034A84237968D150BD4602B080BDC0460000002090B585B000AF021CFB1D1A700E23FB603C1C0B3402F0CFF8031C2370C8
:4053C0000A4B0A4A11680A4A1140FA1D1078FA68041C9440221C0A431A603B1C0B331B78181C02F0BEF8BD4605B090BD10E400E0FF3FFFFF80B500AF024B802292021A60F2
:40540000BD4680BD00E100E080B500AF024B802292021A60BD4680BD80E100E080B500AF024B802292021A60BD4680BD80E200E080B500AF084B812292041A60074B0C223C
:405440001A60012000F08CF8092000F05DF8002000F04CF8BD4680BD000120402401204090B583B000AFFC1D02F077F8031C2370084B084A126801210A431A60FB1D1B782F
:40548000181C02F06EF80120182100F04BF8BD4603B090BD0000204080B500AF064B1B78002B04D1FFF7C4FF034B01221A70FFF7D7FFBD4680BDC0466808002090B583B0DA
:4054C00000AFFC1D02F049F8031C2370064B064A126801218A431A60FB1D1B78181C02F040F8BD4603B090BD0000204080B582B000AF7860034B7A681204120C1A60BD4640
:4055000002B080BD0801204080B582B000AF7860034B7A681204120C1A60BD4602B080BD1401204090B585B000AF786039603C1C0F3402F012F8031C2370084B3A68796827
:40554000081C9040021C1A603B1C0F331B78181C02F007F8BD4605B090BDC0460800204080B582B000AF7860024B7A681A60BD4602B080BD3801204080B500AF024B1B6805
:40558000181CBD4680BDC0463001204080B582B000AF7860024B7A681A60BD4602B080BD3001204080B500AF1C4B00221A701C4B00221A701B4B00221A701B4B5A881B4BFC
:4055C0001A80194B9A88194B5A80174B9A79174B1A73154BDA79154B1A71144B0622DA81124B08221A82114B00225A820F4B0A229A820E4B0022DA820C4B012252421A83C8
:40560000094B01225A700A4B1E221A8000F014F8084B00221A70BD4680BDC046012E0020FF2D0020FE2D0020E4000020C82D0020E22D0020C02D002080B500AF064B181C15
:4056400000210A2202F098FF044B181C0021062202F092FFBD4680BDF42D0020E82D002090B585B000AF78603B1C0E3301221A801B4B1B78002B04D1FFF794FF184B0122F1
:405680001A707B68002B24D0164B7A681A603C1C0E341549154A80239B00081C111C1A1C03F070F8031C23803B1C0E331B88002B0FD10F4B01221A700E4B08221A703C1CB6
:4056C0000E340D4B181C0D210E220FF087FB031C23803B1C0E331B88181CBD4605B090BD70080020C42D00204D5D000078080020E62D0020E72D0020ACA1010080B500AF3B
:4057000003F02CF803F014F8024B00221A70BD4680BDC046E62D002090B585B000AF021CFB1D1A703B1C0E3300221A802D4B1B781A1C012313401ED03C1C0E34FB1D1B78B9
:40574000181C0AF023F9031C23803B1C0E331B88002B10D1234B1B7801229343DAB2214B1A70204B1B781A1C0223134003D03B1C0E3328221A803B1C0E331B88002B03D026
:40578000FB1D1B78002B26D0164B1B781A1C0223134020D0144B1B78042B1CD8124B1B785A00124BD2183C1C0E341149FB1D1B78081C111C02220AF0D7F8031C23803B1CEF
:4057C0000E331B88002B06D1064B1B7802229343DAB2044B1A703B1C0E331B88181CBD4605B090BDC02D0020F02D002080A10100E42D002090B585B000AF021CFB1D1A7086
:40580000FB1D1B78002B09D11C4B00221A811B4B04225A80194B04229A800EE0FB1D1B78012B0AD1154B96221A81144B802212015A80124BE122D2009A80114BFA1D127800
:405840001A703C1C0E340D4B181C0DF0C1FB031C23803B1C0E331B88002B07D1094B1B78DBB204221343DAB2064B1A703B1C0E331B88181CBD4605B090BDC046E4000020EA
:40588000FE2D0020012E002080B500AF0DF0CEFB044B1B78DBB208221343DAB2014B1A70BD4680BD012E002090B585B000AF7860284B1B78052B05D03B1C0E338322520029
:4058C0001A8040E07B68002B04D13B1C0E3301221A8038E03B1C0D3300221A7011E03B1C0D331B783A1C0D32127879688A5C1A49CB185A713B1C0D331A783B1C0D33013256
:405900001A703B1C0D331B78052BE8D97B689A79114BDA723C1C0E340F4B181C0DF006FB031C23803B1C0E331B88002B0BD1094B04221A70094B1B88002B04D0074B1B880B
:40594000181C09F0E3FF3B1C0E331B88181CBD4605B090BDE62D0020C82D0020E22D002090B583B000AFBC1D0DF0A8FA031C2380094B1B88002B01D009F0E2FFBB1D1B8884
:40598000002B02D1054B05221A70BB1D1B88181CBD4603B090BDC046E22D0020E62D002080B582B000AF78607B681B781A1C7B6801331B781B029BB213439BB2181CBD4646
:4059C00002B080BD90B585B000AF78603B1C0F3300221A707B689A8909239A4237D17B681A1D7B683C1C0F34101C00211A1C40230FF00CFA031C23703B1C0F331B78002BD0
:405A00001DD17B685B68181CFFF7CAFF031C1A1C022313409BB2002B08D0104B1B68822251007A68081C111C984708E00B4B1B680622111CFF317A68081C111C9847084B32
:405A40001B78DBB201229343DAB2054B1A703B1C0F331B78181CBD4605B090BDC42D0020012E002080B582B000AF78607B68DA880D4B9A4215D10D4B5B88002B08D17B6873
:405A80009A880A4B5A807B689A78084B1A7008E0074B1B687A68063286214900081C111C9847BD4602B080BD052A0000E82D0020C42D002080B582B000AF78607B689A8872
:405AC0000B4B9A4211D10B4B9B88002B04D17B685A88084B9A8008E0074B1B687A68043286214900081C111C9847BD4602B080BD02290000E82D0020C42D002080B582B028
:405B000000AF78600C4B5A887B689B899A420FD10A4B1B68832251007A68081C111C9847074B1B78DBB201229343DAB2044B1A70BD4602B080BDC046E82D0020C42D0020F4
:405B4000012E002090B585B000AF78603C1C0F347B68181CFFF736FF031C2370144B1B78DBB21A1C012313401FD13B1C0F331B78002B16D03B1C083312229A707B689A8917
:405B80003B1C08331A803B1C08333A1C0F321278DA707B683A1C08321868111C0EF0A4FC03E07B6818680EF0F3FCBD4605B090BD012E002080B582B000AF7860BD4602B0D4
:405BC00080BDC04680B582B000AF7860BD4602B080BDC04680B500AF094B00225A70084B00221A70074B1B78052B03D1054B07221A7002E0034B08221A70BD4680BDC04643
:405C0000F02D0020E72D002080B582B000AF78607B681B78032B3ED1254B1B78DBB21A1C0223134037D0234B1B78022B10D002DC012B05D024E0032B12D0042B18D01FE0F6
:405C40001D4B1B680822FF32101C0021984717E0194B1B6884225200101C002198470FE0154B1B680A22FF32101C0021984707E0114B1B6885225200101C00219847C04664
:405C80000B4B1B78DBB202229343DAB2084B1A70084B00221A707B681B78042B05D1074B1B78042B01D1FFF75BFEBD4602B080BD012E0020E72D0020C42D0020E62D0020A3
:405CC00080B500AFBD4680BD80B584B000AF78603B1C0E3300221A707B689B79002B1CD13B1C0F3300221A7012E03B1C0F331B787A68D35C002B04D03B1C0E3301221A7085
:405D00000BE03B1C0F331A783B1C0F3301321A703B1C0F331B78052BE7D93B1C0E331B78181CBD4604B080BD80B582B000AF021CBB1D1A80BD4602B080BDC04680B582B083
:405D400000AF7860BD4602B080BDC04680B584B000AF021C3960FB1D1A70B54B1B78DBB201221343DAB2B24B1A70FB1D1B78FA2B00D941E19A00AF4BD3181B689F463B1C7E
:405D80000C3308221A703B1C0C3300225A703B1C0C33181C04F01AF93B1C0C3301225A703B1C0C33181C04F011F9A34B1B68181CFFF78AFF031C002B05D09F4B1B68181C6E
:405DC00002F0BAFC0FE09D4B1A789D4B1A709D4B1A789B4B5A709C4B1A78994B9A70984B181C02F0A9FC03200CF084FF974B05221A7002E13B68181CFFF706FFFDE03B6877
:405E00001A78934B1A70F8E0894B1B78DBB21A1C202313400ED18F4B1B78102B02D18D4B0522DA708C4B1A788A4B101C191C0CF03CFDE2E0E1E03B68181CFFF77FFFDCE0CF
:405E40003B68181CFFF77AFF844B1B88002B01D009F076FD7D4B02221A70CEE07B4B05221A70CAE0794B1B78022B41D0704B1B78DBB21A1C012313403AD06D4B1B78DBB2BE
:405E80001A1C042313400BD0704B03221A70684B1B78DBB204229343DAB2654B1A7027E0634B1B78DBB21A1C082313400BD0674B05221A705E4B1B78DBB208229343DAB23C
:405EC0005B4B1A7014E0614B1B78032B10D15F4B05221A70624B1B78002B09D10120FFF789FC031C002B03D1584B03221A7084E083E03B681B88181CFFF716FF7DE0564A3B
:405F00003B68111C1A1C0223081C111C1A1C02F02AFB514B1B785A00524BD318524A111C1A1C0223081C111C1A1C02F01CFB4F4B00221A70FFF7C4FE5FE0FFF74BFE5CE01B
:405F40003B685A884A4B9A4205D83B1C0E333A6852881A8004E03B1C0E33802292001A803B683A1C0E321288198800230904090C1B0C1B040B43181C111C0EF0C1FA3CE0D3
:405F80003B68181CFFF7DEFD37E03B68181CFFF711FE32E03B68181C00F070F82DE03B68181C00F025FA28E03B68181C00F0CCFC23E03B68181C00F0D9FD1EE03B68181C06
:405FC000FFF79CFD1A4B1B78DBB21A1C0123134004D13B6818680DF0BFFD0EE00DE03B68181CFFF7EFFD08E0224B1B7801221343DAB2204B1A7000E0C0460D4B1B78DBB25B
:406000001A1C112313400FD0094B1B78DBB201229343DAB2064B1A70174B1B68FA1D11783A68081C111C9847BD4604B080BDC046012E002000A30100E00000207CF1FF0F31
:40604000D80000207DF1FF0F7BF1FF0FE62D0020FF2D002024010020F02D0020E22D0020FE2D002080A10100E42D0020E72D0020FF010000C02D0020C42D002080B586B0A7
:4060800000AF786000233B61754B1B78012B00D0E2E0744B1B78DBB21A1C0223134000D1DAE03B1C0C337A6812891A803B1C0C331B88062B05D03B1C0C331B88142B00D03D
:4060C000C3E03B1C0A337A6852891A803B1C143300221A8085E07B685A683B1C14331B88D3183B613B1C0C331B88062B00D06EE03B1C0F3300221A703B1C173300221A70CC
:406100005BE03B1C17331A785749131C5B009B185B00CB189A883B699B889A4246D13B1C17331A785049131C5B009B185B005B5A002B1AD13B1C17331A784B49131C5B007A
:406140009B185B003A69C9180423081C111C1A1C02F009FA454B1B780133DAB2434B1A703B1C0F3301221A7020E03B1C17331B78002B0ED13B1C17331B785A1C3A49131C0F
:406180005B009B185B00CB189A883B699B889A420CD0374B1B683A6904320C21FF31081C111C98473B1C0F3301221A703B1C17331A783B1C173301321A703B1C17331B787C
:4061C000012B04D83B1C0F331B78002B99D03B1C1433391C14313A1C0C32098812888A181A803A1C14323B1C0A3312881B889A4200D270E73B69002B1ED03B695A881D4B87
:406200009A4219D1164B02221A70184B00221A7000F032F8031C002B0ED0154B1B6884225200101C002198470E4B1B78DBB202229343DAB20B4B1A700A4B1B78DBB20122BA
:406240009343DAB2074B1A7006E0094B1B680822FF32101C00219847BD4606B080BDC046E72D0020012E002018010020002E0020C42D0020FFFF000090B583B000AF05E07B
:406280001A4B1B780133DAB2184B1A70174B1B78012B0AD8154B1B781A1C1549131C5B009B185B005B5A002BEAD0104B1B78012B11D80E4B1B781A1C131C5B009B185B00C0
:4062C0000B4A9A18BC1D0B4B1868111C0DF0F6FC031C238003E0BB1D802252001A80BB1D1B88181CBD4603B090BDC046002E002018010020F02D002080B582B000AF786057
:406300007B68DB88364A9B18042B00D963E09A00344BD3181B689F46334B1B88002B04D17B689A88304B1A8056E0304B1B687A68063286214900081C111C98474CE02A4BE3
:406340005B88002B04D17B689A88274B5A8043E0264B1B687A68063286214900081C111C984739E0204B9B88002B04D17B689A881D4B9A8030E01D4B1B687A6806328621AE
:406380004900081C111C984726E0174BDB88002B04D17B689A88144BDA801DE0134B1B687A68063286214900081C111C984713E00D4B1B89002B04D17B689A880A4B1A81DF
:4063C0000AE00A4B1B687A68063286214900081C111C984700E0C046BD4602B080BDC04600D6FFFFECA60100F42D0020C42D002080B592B000AF7860CA4B1B78DBB21A1CA1
:406400000223134000D11AE23B1C3E337A6812891A803B1C3C337A6852891A807B685B683B64C14B1B78032B00D0DEE03B1C463300221A80CFE03B6C181CFFF7B1FA031CA5
:406440001A1C3B1C24331A803B6C02333B643B6C1A783B1C24339A703B6C01333B643B6C181CFFF79DFA031C1A1C3B1C24339A803B6C02333B643B1C3E331B88152B12D12A
:406480003B1C243302229A753A1C2A323B6C111C1A1C1023081C111C1A1C02F064F83B6C10333B6432E03B1C3E331B88072B2DD13B1C243301229A753B6C181CFFF770FAE6
:4064C000031C1A1C3B1C2433DA803B6C02333B64964B1B781A1C9649131C5B009B185B00CB189B88C0225201934203D0914A934206D00BE03B1C2433181CFFF7FDFE05E097
:406500003B1C2433181CFFF7ADFAC0463B1C24339988864B1B781A1C8548131C5B009B185B00C3185B88994243D1804B1B780133DAB27E4B1A7000F08FF9031C002B37D021
:406540000222FF3293422BD1774B04221A70774B00221A7000F0C0FA031C002B1ED081225200934212D1704B05221A70724B1B681222FF32101C002198476A4B1B78DBB274
:4065800002229343DAB2674B1A7008E06A4B1B6885225200101C0021984700E0C04608E0654B1B680A22FF32101C0021984700E0C0465C4B1B78DBB201229343DAB2594B74
:4065C0001A703B1C4633391C46313A1C3E32098812888A181A803A1C46323B1C3C3312881B889A4200D226E729E14F4B1B78022B00D024E13B1C463300221A8016E13B6C59
:40660000181CFFF7CDF9031C1A1C3B1C0C331A803B6C02333B643B6C181CFFF7C1F9031C1A1C3B1C0C335A803B6C02333B643B6C181CFFF7B5F9031C1A1C3B1C0C339A801B
:406640003B6C02333B643B1C3E331B88062B04D13B1C0C3302229A7573E03B1C3E331B88082B00D06DE03B1C0C3301229A753B6C181CFFF795F9031C1A1C3B1C0C33DA80EB
:406680003B6C02333B643B1C443300221A8034E03B1C44331A882649131C5B009B185B00CB189A883B1C0C33DB889A421ED13B1C44331A881E49131C5B009B185B005B5A5D
:4066C000002B13D13B1C44331A881949131C5B009B185B00381C0C300222C91882180423081C111C1A1C01F03EFF0BE03B1C44331A883B1C443301321A803B1C44331B88AF
:40670000012BC5D9094B1B781A1C0949131C5B009B185B00CB189B881A1C084B9A420FD00FE0C046012E0020E72D0020002E00201801002001180000C42D002012180000EB
:40674000C0463B1C0C3319883E4B1B781A1C3E48131C5B009B185B00C3185B88994253D1384B1B780133DAB2364B1A70FFF784FD031C002B47D080225200934233D1334BAB
:4067800003221A702F4B00221A7000F065F8031C002B26D00222FF32934212D12B4B05221A702B4B1B681222FF32101C00219847284B1B78DBB202229343DAB2254B1A70A6
:4067C00010E0234B1B680A22FF32101C00219847204B1B78DBB202229343DAB21D4B1A7000E0C04610E01A4B1B6884225200101C00219847174B1B78DBB202229343DAB242
:40680000144B1A7000E0C046124B1B78DBB201229343DAB20F4B1A703B1C4633391C46313A1C3E32098812888A181A803A1C46323B1C3C3312881B889A4200D2DFE6BD4693
:4068400012B080BD002E002018010020E72D0020C42D0020012E002090B583B000AF05E01D4B1B780133DAB21B4B1A701A4B1B78012B0AD8184B1B781A1C1849131C5B002A
:406880009B185B005B5A002BEAD0134B1B78012B18D8114B1B78181CBC1D114A0F49031C5B001B185B00585ACB185B881B04191C014300230B1C1068191C0DF06BF9031CE5
:4068C000238003E0BB1D0222FF321A80BB1D1B88181CBD4603B090BD002E002018010020F02D002080B582B000AF3B1C00221A803B1C00225A80114B1B78002B09D1104B0A
:406900005B8801339AB23B1C1A800E4B1A893B1C5A803B1D3A1C12681A603A1D002311880904090C1B0C1B040B43528812041B041B0C1343181CBD4602B080BD002E00206B
:40694000E82D00201801002080B58AB000AF78603B1C083300225A805A4B1B78042B00D0ADE0594B1B78DBB21A1C0223134000D1A5E03B1C1E337A6812891A807B681A7B62
:406980003B1C08331A753B1C08337A6812881A803B1C08331B7D012B04D13B1C263304221A8003E03B1C263312221A807B685B683B623B1C243300221A803EE03B6A181C6E
:4069C000FEF7EEFF031C1A1C3B1C08335A803B6A02333B623B1C08331B7D022B0ED13A1C0C323B6A111C1A1C1023081C111C1A1C01F0B9FD3B6A10333B6214E03B6A181CF8
:406A0000FEF7CEFF031C1A1C3B1C08339A803B6A02333B622D4B1B78002B04D13B1C0833181CFFF747F83B1C2433391C24313A1C2632098812888A181A803A1C24323B1CA6
:406A40001E3312881B889A42B8D33B1C08335A881F4B1B889A422AD11C4B1B780133DAB21A4B1A7000F038F8031C002B1ED081225200934212D1134B05221A70154B1B6829
:406A80001222FF32101C002198470F4B1B78DBB202229343DAB20C4B1A7008E00D4B1B6885225200101C0021984700E0C046064B1B78DBB201229343DAB2034B1A70BD46C5
:406AC0000AB080BDE72D0020012E0020002E0020E8180020C42D002090B583B000AFFFF701FF031C1A1C3B1C1A600BE01C4B1B780133DAB21A4B1A70FFF7F4FE031C1A1C89
:406B00003B1C1A603B1C1B88012B09D03B1C5B88002B05D03B1C1A883B1C5B889A4203D90F4B1B78002BE1D00D4B1B78002B0DD1BC1D0C4B3A1C1868111C0DF015F8031C47
:406B400023803B1C5A88084B1A8003E0BB1D812252001A80BB1D1B88181CBD4603B090BD002E0020F02D0020E818002080B582B000AF7860AA4B1B78DBB21A1C02231340F4
:406B800000D149E17B689B790A2B00D044E1A54B1B78052B00D93EE19A00A34BD3181B689F46A04B02221A70A04B00221A70FFF763FB031C002B4ED08022520093423AD173
:406BC0009B4B1B681022FF32101C00219847954B03221A70954B00221A70FFF73DFE031C002B26D00222FF32934212D18D4B05221A708F4B1B681222FF32101C002198478D
:406C0000874B1B78DBB202229343DAB2844B1A7010E0874B1B680A22FF32101C002198477F4B1B78DBB202229343DAB27C4B1A7000E0C04610E07E4B1B6884225200101CAE
:406C400000219847764B1B78DBB202229343DAB2734B1A7000E0C046714B1B78DBB201229343DAB26E4B1A70D6E0704B1B780133DAB26E4B1A70FFF7FFFA031C002B3FD08C
:406C800080225200934233D1654B1B78DBB201229343DAB2624B1A70624B03221A70634B00221A70FFF7D8FD031C002B1ED00222FF32934212D15B4B05221A705C4B1B6834
:406CC0001222FF32101C00219847554B1B78DBB202229343DAB2524B1A7008E0544B1B680A22FF32101C0021984700E0C04608E04F4B1B6884225200101C0021984700E014
:406D0000C046474B1B78DBB201229343DAB2444B1A7081E0454B1B780133DAB2434B1A70FFF79AFD031C002B37D00222FF3293422BD13C4B04221A703C4B00221A70FFF73D
:406D4000CBFE031C002B1ED081225200934212D1344B05221A70364B1B681222FF32101C002198472E4B1B78DBB202229343DAB22B4B1A7008E02E4B1B6885225200101C78
:406D80000021984700E0C04608E0294B1B680A22FF32101C0021984700E0C046204B1B78DBB201229343DAB21D4B1A7034E01F4B1B780133DAB21D4B1A70FFF78DFE031C3A
:406DC000002B1ED081225200934212D1154B05221A70174B1B681222FF32101C002198470F4B1B78DBB202229343DAB20C4B1A7008E00F4B1B6885225200101C002198477B
:406E000000E0C046064B1B78DBB201229343DAB2034B1A7000E0C046BD4602B080BDC046012E0020E72D002000A70100002E0020C42D002080B582B000AF7860C046064BF1
:406E40001B68002BFBDB044B7A68120203490A431A60BD4602B080BD000001404000008080B500AFC046044B1B68002BFBDB024B024A1A60BD4680BD000001404000004072
:406E800080B500AF00F004F9BD4680BD80B500AF054B054A1268802109060A431A6000F037F8BD4680BDC0460000244080B500AF064B1B78002B04D1FFF7E2FF034B012274
:406EC0001A70FFF7E3FFBD4680BDC046EC18002080B500AF092000F073FE064B054A1268520052081A60092000F080FE00F018F8BD4680BD0000244080B582B000AF7860EF
:406F0000024B7A681A60BD4602B080BDF018002080B500AF092000F03DFEBD4680BDC04680B500AF034B034A1168034A0A401A60BD4680BD48002440FFDFFFFF80B582B0D8
:406F400000AF00237B60044B1B687B607B68181CBD4602B080BDC0464003244080B582B000AF054B1A681F2313407B607B68181CBD4602B080BDC0460803244080B584B0C2
:406F800000AF78601D4B1B680133FB60FA6880239B009A4202D10023FB60FFE7C046184B1B68FA689A42FAD0144B1A68144B1B689A4209D1134B1A681F231340102B03D02D
:406FC000114B7A681A6015E0104B02221A607B68DAB20F49FB68CB181A70084BFA681A600223BB600B4B1B68BA681343BB60094BBA681A60BD4604B080BDC046082E002039
:40700000042E00200802244040022440800F24400C2E0020880F244080B584B000AF786039600023FB6009E07A68FB68D3181B78181CFFF7A3FFFB680133FB60FA683B682C
:407040009A42F1D3BD4604B080BDC04680B582B000AF0D4B1B683B600C4B1A683B689A4205D30A4B1A683B68D31A7B6007E0074B1A683B68D31A802292009B187B607B6888
:40708000181CBD4602B080BD042E0020082E002080B500AF274B284A1A60284B00221A60274B01221A60274B274A1A60274B07221A60274B00221A60264B01221A60264BA3
:4070C000264A1A60264B00221A60264B04221A60092000F075FD0920032100F007FD224B0920191C00F0DCFC012000F069FD0120032100F0FBFC1D4B0120191C00F0D0FC0C
:407100001B4B00221A601B4B00221A601A4B00221A601A4B00221A60194B04221A60194B00221A60184B00221A60184B00221A60BD4680BD000024400F08000240002440E6
:40714000480024400003244007020080040324401003244044002440000224400700008004022440500024403D7D000091710000880E2440C80E2440480F2440080F2440B8
:40718000C80F2440880F2440082E0020042E002080B500AF00F0C0F9BD4680BD80B582B000AF786000F048F87B68181C00F008F8032000F011F800F035F8BD4602B080BDD4
:4071C00080B582B000AF7860024B7A68DA64BD4602B080BD0000002090B585B000AF021CFB1D1A701E23FB603C1C0B3400F0B5F9031C23700A4B0A4A126892009108FA1D51
:407200001078FA68041C9440221C0A431A603B1C0B331B78181C00F0A4F9BD4605B090BD00E400E080B500AF024B08221A60BD4680BDC04600E100E080B500AF024B082282
