:4000000000400020110000004D0B00004D0B000080B500AF00F0CEFD80B500AF244B12221A6001F0A5FC234B181C01F0D1FC012001F0AEFC302001F07BFB1F4B1F4A1A604D
:400040001F4B8022D2051A601E4B1E4A126802210A431A601C4B1D4A1A601D4B00221A601C4B1C4A126808218A431A60FA23DB00181C01F0A9FB184B181C01F01DFC174B27
:40008000882292011A60164B164A1A60164B802212061A60154B8022D2021A60144B40221A60074B8022D2051A60BD4680BDC04630001040001BB70004010B40060000807B
:4000C0000C020B4078002E407C002E406A2D000064F02E406CF02E40DC050000000301400000014040FF008008010B4000010B400401014080B582B000AF72B6374B0022C7
:400100001A60FB1D00221A7023E0FB1D1A78131C5B009B185B00324A9B183B603B681A78597809020A43997809040A43DB781B061343191C3B681A795B791B0213439BB2E0
:40014000081C191C00F0BAFDFB1D1A78FB1D01321A70FB1D1B78012BD7D9224BEE2212061A60214B992212041A60204B992212041A601F4B992212041A601E4A1D4B1B78E5
:40018000DBB202210B43DBB213701B4A1A4B1B78DBB23C218B43DBB214210B43DBB21370144A144B1B78DBB216210B43DBB21370124BD82212041A60114B20221A60114B2F
:4001C000C42292021A60104B20221A60FFF724FF00F084FDBD4602B080BDC0466CF02E40D0480100000002400001024000500F4010500F4000700F4001700F4008000440F1
:4002000000010440080104401801044010B5064C2378002B07D1054B002B02D0044800E000BF0123237010BDF80F0020000000005042010008B5084B002B03D007480849F6
:4002400000E000BF07480368002B00D108BD064B002BFBD09847F9E70000000050420100FC0F0020A80B00200000000090B597B000AF786039607B684E2B00D925E37B6801
:400280009A00D04BD3181B689F46CF4B181C02F00FF8CE4B181C02F00BF8C04600F016FE031CDAB2CA4B1A70C94B1B78002BF5D0C74B1A785623FB18303A1A70C44B1B78FC
:4002C0002F2B43D9C24B1B78342B3FD85623FB181B78181C0DF07EF8031C1A1CBD4B1A80BC4B1B88002B30D1BB4B181C01F064FFB74B1B78302B04D1B84B181C01F0D8FF8D
:4003000023E0B34B1B78312B04D1B54B181C01F0CFFF1AE0AE4B1B78322B04D1B14B181C01F0C6FF11E0AA4B1B78332B04D1AE4B181C01F0BDFF08E0A54B1B78342B04D142
:40034000AA4B181C01F0B4FF04E003E0A84B181C01F0AEFF002000F08BFEB7E2A54B181C01F0A6FFB2E2A44B1B78032B04D1A34B181C01F09DFF08E09F4B1B78042B04D107
:400380009F4B181C01F018FFA0E29FE29D4B181C01F08EFF9C4B1A789C4B101C191C0CF038FE93E2984A3B68111C1A1C0223081C111C1A1C01F0EFFE88E2954B181C01F031
:4003C00077FF914B00221A70924B00221A707DE2914B181C01F06CFF904B181C01F068FF5023FA183B68111C1A1C0523081C111C1A1C01F0D0FE5023FB181B78002B04D132
:40040000874B181C01F054FF26E05023FB181B78012B04D1834B181C01F04AFF1CE05023FB181B78022B04D17F4B181C01F040FF12E05023FB181B78032B04D17B4B181CC9
:4004400001F036FF08E05023FB181B78042B03D1774B181C01F02CFF3B685B78002B04D1744B181C01F024FF03E0734B181C01F01FFF3B689B781A1C704B181C111C01F0E6
:400480009BFE3B68DB781A1C6D4B181C111C01F093FE1BE26B4B181C01F00AFF16E23B681B68694A101C191C01F086FE674B181C01F0FEFE0AE2584B181C01F0F9FE644B27
:4004C000181C01F0F5FE0C23FA183B68111C1A1C4123081C111C1A1C01F05DFE5D4B181C01F06AFE5723FB1800221A7014E05723FB181B780F22D31A0C22BA18D35C1A1C61
:40050000554B181C111C01F057FE5723FB181A785723FB1801321A705723FB181B780F2BE5D94E4B181C01F047FE5723FB1800221A7015E05723FB181B780122D31A0C2264
:40054000BA18D3181B7C1A1C434B181C111C01F033FE5723FB181A785723FB1801321A705723FB181B78012BE4D93D4B181C01F023FE5723FB1802221A7015E05723FB18E3
:400580001B780B22D31A0C22BA18D3181B7C1A1C314B181C111C01F00FFE5723FB181A785723FB1801321A705723FB181B78092BE4D92C4B181C01F0FFFD5723FB1800223A
:4005C0001A7067E0C0460100544201006C4201006E2100206C21002088420100A8420100B8420100C8420100D8420100EC42010000430100144301007621002020430100C4
:40060000384301004C43010064210020600C002060430100141000207443010078430100A0430100B0430100DC430100084401002C4401005044010060440100704401007C
:400640008444010090440100C844010004450100304501004C4501005C4501006445010080450100944501005723FB181B780F22D31A0C22BA18D3189B7E1A1C954B181C05
:40068000111C01F099FD5723FB181A785723FB1801321A705723FB181B780F2BE4D98E4B181C01F089FD5723FB1801221A7017E05723FB181B780722D31A0C22BA182821D2
:4006C000D3185B189B781A1C824B181C111C01F073FD5723FB181A785723FB1801321A705723FB181B78062BE2D97C4B181C01F063FD0C23FB182A229B5C002B04D1784BBB
:40070000181C01F0D5FD03E0764B181C01F0D0FD754B181C01F050FD5723FB1800221A7017E05723FB181B780F22D31A0C22BA183021D3185B185B781A1C664B181C111CC2
:4007400001F03AFD5723FB181A785723FB1801321A705723FB181B780F2BE2D9634B181C01F0A6FDB2E0614B181C01F0A1FD3B681B78002B04D15E4B181C01F099FD0DE0D5
:400780003B681B78012B04D15A4B181C01F090FD04E0594B181C01F08BFD97E096E05023FA183B68111C1A1C0523081C111C1A1C01F0F1FC514B181C01F07AFD5023FB18B3
:4007C0001B78002B04D14E4B181C01F071FD26E05023FB181B78012B04D14A4B181C01F067FD1CE05023FB181B78022B04D1464B181C01F05DFD12E05023FB181B78032B9C
:4008000004D1424B181C01F053FD08E05023FB181B78042B03D13E4B181C01F049FD3B685B78002B04D13B4B181C01F041FD03E0394B181C01F03CFD3B689B781A1C374B57
:40084000181C111C01F0B8FC3B68DB781A1C344B181C111C01F0B0FC38E03B681B781A1C304B181C111C01F0A7FC2FE02E4B3A681A602D4B1B681A1D2B4B1B6855217C18FC
:40088000101C00211A1C40230EF0ECFD031C2370254B1B689B890E2B16D15523FB181B78002B11D1214B181C01F002FD204B01221A701D4B1B685B681B781A1C1D4B181C9C
:4008C000111C01F079FC01E000E0C046BD4617B090BDC0465C450100B4450100DC450100EC450100F4450100FC450100744301002446010034460100444601004C46010059
:40090000A0430100B0430100DC430100084401002C4401005044010060440100704401008444010068460100682100208C46010014100020B846010080B584B000AF0023A0
:40094000BB6062B600F0F6F9624B181C00F0FAFA02F0F6FB00F0BAFA031CDAB25E4B1A705D4B1B78002B00D182E05B4B1B78702B00D07DE0594B181C01F09AFC0023BB6004
:40098000574B7B600F23FB1800221A7036E001E002F0D6FB00F09AFA031CDAB24E4B1A704D4B1B78002BF3D04B4B1B782F2B20D9494B1B78392B1CD8474B1B78303B1A1CE3
:4009C0007B685343BA68D318BB607B68181C0A2101F024FA031C7B603F4B1B78181C00F0E5F90F23FB181A780F23FB1801321A7004E03C4B181C01F05BFC04E00F23FB1803
:400A00001B78052BC3D9384B181C01F051FC374B1A78BB68101C191C01220CF0E3FA031C1A1C334B1A80324B1B88012B04D1314B181C01F03DFC1AE02D4B1B88032B04D14E
:400A40002D4B181C01F034FC11E0294B1B88072B04D12A4B181C01F02BFC08E0244B1B88002B04D1264B181C01F022FCFFE7C046244B1B78002B2BD0234B1B78022B27D1F1
:400A8000204B00221A70214B1B685B681A78FB1C1A70FB1C1B780133DAB2FB1C1A701B4B1B68FA1C5A60194B1B685B681B781A1C174B181C111C01F07FFB144B1B681A1DBC
:400AC000124B1B68101C00211A1C00230EF0CAFC3EE7C0466D0200006E210020FC470100A08601001448010074430100642100206C21002024480100444801006C480100E2
:400B00008C480100141000207621002068210020A848010080B586B000AFF860B9607A6000237B6109E0BB685A1CBA601B78181C00F03CF97B6901337B617A697B689A42C9
:400B4000F1DB7B68181CBD4606B080BD80B500AF01F0E6FA031C1B680C2B00D1FEE7FEE780B584B000AF7860104B1A687B68D3181A1C0F4BD21A80231B019A4209DC0B4B86
:400B80001B68FB60094B1A687B68D218074B1A6007E001F0C5FA031C0C221A6001235B42FB60FB68181CBD4604B080BDAC0B00208821002080B586B000AF224B7B61224B73
:400BC0003B61204B7B6135E03B691B68FB603B695B68BB603B699B683B6000237B600CE0FB681A68BB681A60BB680433BB60FB680433FB607B6804337B607A683B689A428B
:400C0000EED13B69DB683B6000237B6008E0BB6800221A60BB680433BB607B6804337B607A683B689A42F2D13B6910333B617B69013B7B617B69002BC6D101F077FAFFF7C3
:400C40007BFEFEE701000000E84C010080B582B000AF154B144A126801218A431A6000237B600FE07B68032B04D8104B7A689200D35800E00E4B0F4A796889008B507B689B
:400C800001337B607B682F2BECD9FFF733FA0A4B00221A60044B044A126801210A431A60BD4602B080BDC04600001040000000004D0B000000000020C000002080B582B008
:400CC00000AF786039607A683B68101C00211A1C01F06AFABD4602B080BDC04680B500AF054B03221A60054B03221A60044B00221A60BD4680BDC04630003040300031404B
:400D0000000E3F4080B500AF00F066F8BD4680BD80B500AF064B064A1268802109060A431A6000F019F800F01BF8BD4680BDC0460000244080B500AF064B1B78002B04D1C8
:400D4000FFF7E0FF034B01221A70FFF7E1FFBD4680BDC0461610002080B500AFBD4680BD80B500AF00F098F8BD4680BD80B582B000AF00237B60044B1B687B607B68181CA1
:400D8000BD4602B080BDC0464003244080B582B000AF054B1B681F2213407B607B68181CBD4602B080BDC0460803244080B582B000AF7860C046064B1B681F221340082B2F
:400DC000F9D0044B7A681A60BD4602B080BDC046080224404002244080B500AF1B4B1C4A1A601C4B00221A601B4B01221A601B4B1B4A1A601B4B07221A601B4B00221A60F3
:400E00001A4B01221A601A4B154A1A60194B00221A60194B04221A60184B00221A60184B00221A60174B00221A60174B00221A60164B00221A60164B00221A60144B1B6898
:400E40009AB2144B1A80BD4680BDC046000024400B00000240002440480024400003244007000080040324401003244044002440000224400402244050002440880E244030
:400E8000C80E2440480F2440080F2440C80F2440880F24401810002080B500AF074B074A126807490A40902109040A431A60054B054A12881A60BD4680BDC04600010240E8
:400EC000FFFF0FFF880F24401810002080B582B000AF00237B60FFF759FF031E03D0FFF745FF031C7B60084B1A68D8239B00134005D000237B60044BD82292001A607B6850
:400F0000181CBD4602B080BDC00F244080B500AF064B00221A70064B00221A70054B00221A7000F009F8BD4680BDC0467F210020782100207E21002080B500AF00F0F4FB4C
:400F4000BD4680BDB0B594B004AF78603E23FB1800221A802823FA183E4B111C1A1C1423081C111C1A1C01F016F93B4B1B78002B04D1FFF7CBFF384B01221A707B68002BAF
:400F80005CD0364B7A681A603E23FB181B88002B29D11023FB181C22BA185A601023FB182022BA181A601023FB1800221A812023FB181B221A802023FB181B225A80202328
:400FC000FB1804221A711C23FB1800221A703E23FC181023FA180E23FB18101C191C02F08BF9031C23803E23FB181B88002B29D13E23FC181A481B49AE231A012823FD18D5
:401000000523009300230193002302932B1C02F0C9F8031C23803E23FB181B88002B11D1114B01221A703E23FC18104B181C0E210E220EF0FFF9031C238003E03E23FB182B
:4010400001221A803E23FB181B88181CBD4610B0B0BDC046DC4801001C10002070210020A1130000C8000020762100201849010090B585B000AF021CFB1D1A70FB1D1B78C7
:40108000022B04D90E23FB1801221A804BE0294B1B78042B42D1284B1B78DBB21A1C042313403BD1FB1D1B78002B0BD1234B1E221A82224B5B6820221A80204B5B683022DA
:4010C0005A8010E0FB1D1B78012B0CD11B4B96221A821A4B5B68C822D2001A80174B5B688022D2015A80164BFA1D12781A700E23FC18124B181C0CF0BFFA031C23800E23BC
:40110000FB181B88002B08D10B4B1B78DBB204221343DAB2084B1A7005E004E00E23FB180422FF321A800E23FB181B88181CBD4605B090BD762100207F210020E00B0020FA
:401140007E21002080B584B000AF78600A1CFB1C1A700023BB60BB68002B20D07B689A79BB681A700F23FB1800221A7012E00F23FB181B780133BA68D3180F22BA18127851
:4011800079688A5C1A700F23FB181A780F23FB1801321A700F23FB181B78052BE7D9BD4604B080BD80B582B000AF78607B681B789AB27B6801331B789BB21B029BB21343E2
:4011C0009BB2181CBD4602B080BDC04690B585B000AF78600F23FB1800221A707B689B890B22934237D17B681A1D7B680F217C18101C00211A1C40230EF034F9031C2370EF
:401200000F23FB181B78002B1DD17B685B68181CFFF7C8FF031C1A1C022313409BB2002B08D0104B1B68822251007A68081C111C984708E00B4B1B680622FF32111C7A68FB
:40124000081C111C9847084B1B78DBB201229343DAB2054B1A700F23FB181B78181CBD4605B090BD702100207F21002090B585B000AF78600F23FC187B68181CFFF7A6FFF1
:40128000031C2370144B1B78DBB21A1C012313401FD10F23FB181B78002B16D00823FB1812229A707B689A890823FB181A800823FB180F22BA181278DA707B680822BA1829
:4012C0001868111C0DF000FB03E07B6818680DF07DFBBD4605B090BD7F21002080B582B000AF7860BD4602B080BDC04680B500AF034B00225A70024B00221A70BD4680BD8C
:401300007C21002080B582B000AF7860BD4602B080BDC04680B500AFBD4680BD80B584B000AF78600E23FB1800221A707B689B79002B1CD10F23FB1800221A7012E00F23E2
:40134000FB181B787A68D35C002B04D00E23FB1801221A700BE00F23FB181A780F23FB1801321A700F23FB181B78052BE7D90E23FB181B78181CBD4604B080BD80B582B0D4
:4013800000AF021CBB1D1A80BD4602B080BDC04680B582B000AF7860BD4602B080BDC04680B588B000AF021C3960FB1D1A70CE4B1B78DBB201221343DAB2CB4B1A70FB1DA5
:4013C0001B78712B00D973E19A00C84BD3181B689F461023FB1807221A701023FB1800225A701023FB18181C03F04AFE1023FB1807221A701023FB1801225A701023FB183F
:40140000181C03F03DFEBA4B1B68181CFFF786FF031E11D0B64B1B68181C01F095FEB44B1B68181C0021FFF78DFEB14B1B68181C0121FFF787FE36E0AE4B1B781A1C3F23F3
:401440001A40AD4B1B78191C3F230B409B011A43AA4B1B78191C1F230B401B031A43A84B1B78191C7F230B405B041343BB61BB69DAB2A44B1A70BB691B0ADAB2A14B5A70BA
:40148000BB691B0CDAB29F4B9A709E4B181C01F05BFE9C4B181C0021FFF754FE994B181C0121FFF74FFE04200BF094FF0C23FB183F221A700C23FB1800225A700C23FB18AA
:4014C000181C0BF0A5FF904B04221A70F1E03B68181CFFF717FFECE03B681A788B4B1A70E7E03B687B617B691B78002B18D17B695B78002B0BD1864B0022DA80844B0022AC
:401500009A80834B834A1A607B69814A5A60764B1B78DBB201229343DAB2734B1A70C8E0C7E0714B1B78DBB21A1C2023134027D1794B1B78102B02D1774B0522DA70774B1C
:401540001A78754B101C191C0CF054F8031C1A1C0A23FB181A800A23FB181B88002B06D06F4B1B680A22BA183620111C98475E4B1B78DBB201221343DAB25B4B1A7098E04A
:4015800097E03B68181CFFF703FF92E03B68181CFFF7FEFE5C4B02221A708AE05A4B04221A7086E0584B1B78022B40D04E4B1B78DBB21A1C0123134039D04B4B1B78DBB298
:4015C0001A1C042313400BD04F4B03221A70464B1B78DBB204229343DAB2434B1A7026E0414B1B78DBB21A1C082313400BD0464B04221A703C4B1B78DBB208229343DAB211
:40160000394B1A7013E0404B1B78032B0FD13E4B04221A70434B1B78002B08D10120FFF727FD031E03D1384B03221A7041E040E03B681B88181CFFF7A1FE3AE0374A3B682F
:40164000111C1A1C0223081C111C1A1C00F0A3FD2E4B00221A70FFF75DFE2AE0FFF746FE27E03B685B88162B05D81E23FB183A6852881A8003E01E23FB1817221A803B684F
:401680001E22BA1811881A8800231204120C1B0C1B041343181C0DF021F90AE03B68181CFFF7E4FD05E03B68181CFFF717FE00E0C0460D4B1B78DBB21A1C112313400FD046
:4016C000094B1B78DBB201229343DAB2064B1A70134B1B68FA1D11783A68081C111C9847BD4608B080BDC0467F210020304A0100FC0B00207CF1FF0F7DF1FF0F7BF1FF0FF2
:4017000078F1FF0FF40B0020762100207821002040100020A80B0020600C00207C210020702100207E21002080B500AFBD4680BD90B58BB000AF78602723FC1800F051F9E4
:40174000031C2370184B1A680C23FB181A60174B1A680C23FB185A607B68033B144AD35C1A1C0C23FB189A60124B1A680C23FB18DA601C23FB18104A1A600C23FA181C2315
:40178000FB185A600D4B1C22BA181A600C4B0D4A1A600A4B1B682723FB181B78181C00F024F9BD460BB090BD08010B4000010B40F84B010030001040B6EA000008001040E2
:4017C000040010401700008080B584B000AF78600023FB60154B154A126801210A431A60134B144A1A60144B134A1268802109020A431A607B68002B12D01023FB600CE025
:40180000012000F059F800F019F8031E02D00023FB6005E07B68013B7B607B68002BEFD1FB68181CBD4604B080BDC04660F02E4078002E400220000010002E4080B582B0EB
:4018400000AF054B1B68012213407B607B68181CBD4602B080BDC0460C002E4080B582B000AF021CFB1D1A7001BEBD4602B080BD80B582B000AF786009E00C4B1B68181CA0
:4018800000F0A6F87B680A4A944663447B607A6880231B029A42F0D8064B1B687A685343181C00F095F8BD4602B080BD740C00200080FFFF6C0C002080B582B000AF021CE8
:4018C000BB1D1A80BB1D1B88044A12785343181C00F07EF8BD4602B080BDC046700C002080B500AF0E4B0E4A126801218A431A600B4B0B4A126802218A431A60094B094AB1
:40190000126830218A4310210A431A60054B054A126807218A4301210A431A60BD4680BD00F02E4000FF2E4080B500AF0E4B0E4A126802218A431A600C4B0C4A126807214D
:401940008A4302210A431A60084B084A126830218A4320210A431A60034B034A126801210A431A60BD4680BD00F02E4000FF2E4080B500AFFFF7B4FF044B044A126880211D
:4019800009060A431A60BD4680BDC04600F02E4080B584B000AF78600C4B1B6801221340FB607B68002B02D0012B03D005E0FFF797FF06E0FFF7B8FF03E00020FFF74EFFE9
:4019C000C046FB68181CBD4604B080BD00F02E400230800803D00138FDD1C046C046C0467047EFF3108072B6704780F31088704780B582B000AF78600A1CBB1C1A80BB1C2C
:401A00001A887B681A60BD4602B080BD80B582B000AF78600A1CBB1C1A80BB1C1A887B681A60BD4602B080BD80B584B000AF494B1B78DBB21B02484A1278D2B21343FB602E
:401A4000464B1B78DBB21B02454A1278D2B21343BB60BB68434A934207D1FB68072B04D1414BBB600423FB6009E0BA68D4231B019A4204D1FB68042B01D13B4BBB603B4B40
:401A8000BA681A603A4BFA681A603A4B1B78DBB21B02394A1278D2B21343FB60FA6880239B019A4202D0FB68002B01D1334BFB60334BFA681A60334B1B78DBB21B02324A0C
:401AC0001278D2B21343FB60FB68304A934206D0FB682F4A934202D0FB68052B01D12D4BFB602D4BFA681A602C4B1B681B097B602B4B1B68AA2B29D17B68012B26D9214B55
:401B00001B78DBB20E2B21D1264B1B78DBB29BB21B0299B2244B1B78DBB29AB2BB1C0A431A80224BBA1C12881A60214B1B78DBB29BB21B0299B21F4B1B78DBB29AB23B1CB6
:401B40000A431A801C4B3A1C12881A60BD4604B080BDC046D9F0FF0FD8F0FF0FDFF0FF0FDEF0FF0F580B0000580D00006C002E4074002E40DBF0FF0FDAF0FF0F02200000F6
:401B800078002E40DDF0FF0FDCF0FF0F0F0F000005050000050F000080002E40EC0F00F0E00F00F06DF2FF0F6CF2FF0F84002E406FF2FF0F6EF2FF0F94002E4080B582B085
:401BC00000AF021CBB1D1A80BB1D1B88181CFFF773FEBD4602B080BD80B582B000AF78607B68181CFFF744FEBD4602B080BDC04680B500AF00F0DEF8BD4680BD80B500AF9B
:401C000000F0E2F8BD4680BD80B500AF00F0DCF8044B181C00F09CF8032000F0A5F8BD4680BDC046111E000080B500AF024B181C00F07CF8BD4680BD111E000080B500AFAA
:401C40000223FF33181CBD4680BDC04680B582B000AF78602B23181CBD4602B080BDC04680B582B000AF78602B23181CBD4602B080BDC04680B582B000AF78602B23181C53
:401C8000BD4602B080BDC04680B582B000AF78602B23181CBD4602B080BDC04680B582B000AF78602B23181CBD4602B080BDC04680B582B000AF78602B23181CBD4602B037
:401CC00080BDC04680B582B000AF78602B23181CBD4602B080BDC04680B582B000AF78602B23181CBD4602B080BDC04680B500AF2B23181CBD4680BD80B582B000AF021CF7
:401D0000FB1D1A702B23181CBD4602B080BDC04680B582B000AF786039602B23181CBD4602B080BD80B500AFBD4680BD80B582B000AF786000F048F87B68181C00F008F843
:401D4000032000F011F800F035F8BD4602B080BD80B582B000AF7860024B7A681A67BD4602B080BD0000002090B585B000AF021CFB1D1A700623FB600B23FC18FFF731FEB4
:401D8000031C23700A4B0A4A1268C0218A43111CFA1D1078FA689040021C0A431A600B23FB181B78181CFFF720FEBD4605B090BD0CE400E080B500AF024B802252011A602C
:401DC000BD4680BD00E100E080B500AF024B802252011A60BD4680BD80E100E090B583B000AFFC1DFFF7FDFD031C2370074B074A126804218A431A6030BFFB1D1B78181C88
:401E0000FFF7F3FDBD4603B090BDC04610ED00E080B500AF12F008FABD4680BD002243088B4274D303098B425FD3030A8B4244D3030B8B4228D3030C8B420DD3FF22090273
:401E400012BA030C8B4202D31212090265D0030B8B4219D300E0090AC30B8B4201D3CB03C01A5241830B8B4201D38B03C01A5241430B8B4201D34B03C01A5241030B8B426E
:401E800001D30B03C01A5241C30A8B4201D3CB02C01A5241830A8B4201D38B02C01A5241430A8B4201D34B02C01A5241030A8B4201D30B02C01A5241CDD2C3098B4201D327
:401EC000CB01C01A524183098B4201D38B01C01A524143098B4201D34B01C01A524103098B4201D30B01C01A5241C3088B4201D3CB00C01A524183088B4201D38B00C01A82
:401F0000524143088B4201D34B00C01A5241411A00D20146524110467047FFE701B5002000F0FCF802BDC0460029F7D003B5FFF775FF0EBC4243891A1847C04603460B43F1
:401F40007FD4002243088B4274D303098B425FD3030A8B4244D3030B8B4228D3030C8B420DD3FF22090212BA030C8B4202D31212090265D0030B8B4219D300E0090AC30B6A
:401F80008B4201D3CB03C01A5241830B8B4201D38B03C01A5241430B8B4201D34B03C01A5241030B8B4201D30B03C01A5241C30A8B4201D3CB02C01A5241830A8B4201D371
:401FC0008B02C01A5241430A8B4201D34B02C01A5241030A8B4201D30B02C01A5241CDD2C3098B4201D3CB01C01A524183098B4201D38B01C01A524143098B4201D34B0173
:40200000C01A524103098B4201D30B01C01A5241C3088B4201D3CB00C01A524183088B4201D38B00C01A524143088B4201D34B00C01A5241411A00D201465241104670478D
:402040005DE0CA0F00D04942031000D34042534000229C4603098B422DD3030A8B4212D3FC22890112BA030A8B420CD3890192118B4208D3890192118B4204D389013AD0F1
:40208000921100E08909C3098B4201D3CB01C01A524183098B4201D38B01C01A524143098B4201D34B01C01A524103098B4201D30B01C01A5241C3088B4201D3CB00C01A62
:4020C000524183088B4201D38B00C01A5241D9D243088B4201D34B00C01A5241411A00D20146634652415B10104601D34042002B00D54942704763465B1000D3404201B5B2
:40210000002000F00BF802BD0029F8D003B5FFF715FF0EBC4243891A1847C0467047C046014B18687047C046F40F00200E4B70B500251E1C0D4CE41AA410A54204D0AB000C
:40214000F35898470135F8E712F0BCFD084B00251E1C084CE41AA410A54204D0AB00F35898470135F8E770BDD04C0100D04C0100D04C0100D84C010030B50024944208D0A8
:40218000035D651C0C5DA34201D0181B02E02C1CF4E7002030BD002310B5934203D0CC5CC4540133F9E710BD031C8218934202D019700133FAE770470FB40B4B13B51C680F
:4021C000002C05D0A369002B02D1201C00F03EFA05AB201CA168049A019300F0E7FB16BC08BC04B01847C046F40F002070B5051C0E1C002804D08369002B01D100F026FA40
:40220000AC68A3891B0702D52369002B19D1281C211C00F0AFF8002813D00120404245E03178002B1BDAA269934211DA221C281C00F048F8013042424241D0B20028ECD1F4
:402240000136A3683278013BA360002AE8D10CE023681970236819780A2903D1E6E723681970236801332360EAE7002B17DAA269934208DB0A2322681370236819780A29D1
:4022800011D1281C01E0281C0A21221C00F01AF8013042424241D0B2002806D0BDE70A23226813702368013323600A2070BD000008B5034B011C1868FFF798FF08BDC04639
:4022C000F40F002070B5051C0E1C141C002804D08369002B01D100F0B9F9234B9C4201D16C6808E0214B9C4201D1AC6803E0204B9C4200D1EC68A369A360A3891B070AD5FD
:402300002369002B07D023682269F6B2981A636998420FDB08E0281C211C00F02BF80028F1D0012040421DE0281C211C00F020F90028F6D1A3680130013BA36023685A1C15
:4023400022601E706369984205D0A389301CDB0708D50A2E06D1281C211C00F009F90028DFD1301C70BDC046304C0100504C0100704C0100354B70B51D68061C0C1C002D4A
:4023800005D0AB69002B02D1281C00F05FF9304B9C4201D16C6808E02E4B9C4201D1AC6803E02D4B9C4200D1EC68A3899AB2110723D4D10607D40922012032603732134352
:4023C000A381404240E0530713D5616B002908D0231C4433994202D0301C00F021FA002363632422A3899343A38100236360236923600822A3891343A3812369002B0BD1A1
:40240000A023A2899B00134080229200934203D0301C211C00F0ACF90123A289134005D00023A36063695B42A36103E0910700D46369A36000202369834205D1130603D566
:4024400040231A43A281013870BDC046F40F0020304C0100504C0100704C0100F7B58A89051C0C1C13075ED44B68002B02DC0B6C002B1ADDE76A002F17D000232E682B60BF
:4024800080235B011A4001D0626D15E0281C216A0123B847021C431C0ED12B68002B0BD01D2B01D0162B02D12E6000205EE04021A3890B43A38159E0A3895B0706D56368C2
:4024C000D21A636B002B01D0236CD21A0023281C216AE76AB847A389421C06D12A68002A03D01D2A01D0162A19D10022626022692260DB0405D5431C02D12B68002B00D1CC
:402500006065616B2E600029CFD0231C4433994202D0281C00F084F90020606326E040221343A38122E00F69002FBED00B680F60DB1B01930023920700D14B69A360019B58
:40254000002BB2DD281C216A3A1C019BA66AB047002806DC40220120A38940421343A38104E0019B3F181B1A0193E8E7FEBD000038B50B69051C0C1C002B01D100201CE037
:40258000002804D08369002B01D100F05FF80B4B9C4201D16C6808E0094B9C4201D1AC6803E0084B9C4200D1EC680C22A35E002BE4D0281C211CFFF751FF38BD304C010095
:4025C000504C0100704C010008B5024900F0AEF808BDC04671250000002310B5041C03604360836081814366C281036143618361191C08225C30FFF7D7FD054B2462636267
:40260000044BA362044BE362044B236310BDC046FD2E0000252F00005D2F0000892F000070B568254B1E5D430E1C291C743100F03DF9041E08D000212A1C016046600C30AE
:40264000A0606832FFF7B0FD201C70BD836913B5002B28D18364C3640365134B134A1B6882620193984201D101238361041C00F01FF86060201C00F01BF8A060201C00F0AA
:4026800017F80421E06000226068FFF7A5FFA06809210122FFF7A0FFE06812210222FFF79BFF0123A36113BD2C4C0100C9250000F8B51D4B061C1D68AB69002B02D1281C98
:4026C000FFF7C4FF4835AC686B68013B05D40C22A75E002F10D06834F7E72B68002B06D1301C0421FFF79CFF2860002801D02D68E9E70C23336016E00123201C5B42E38156
:402700000233A38167662760A760676027616761A7615C30391C0822FFF746FD201C6763A763A764E764F8BD2C4C0100F7B5041C071C002601914834002C16D06368A568E1
:402740000093009B013B00930DD4AB89012B08D90E22AB5E013304D0381C291C019B984706436835EDE72468E6E7301CFEBD0000F0B58B8991B09B0706D50B1C47330B6048
:402780000B6101234B6145E00C1C0E23C95E061C002904DA8023A5891D4010D10CE001AA00F01EFC0028F5DBF023029D1B021D40194BED186B425D418027FF0001E00025DB
:4027C0004027301C391C00F071F800280CD1A3899A051FD402221343A381231C4733236023610123636115E080220C4BB362A38920601343A38120616761002D0AD00E23C5
:40280000E15E301C00F0FEFB002803D00122A3891343A38111B0F0BD00E0FFFFC925000030B500293ED004390B68002B00DAC9181D4A1368141C002B02D14B60116031E037
:4028400099420DD208680A189A4203D11368C3180B6053684B60216024E08A4203D8131C5A68002AF9D11D685C198C420BD10968691858181960904214D11068526809189B
:4028800019605A600EE08C4202D90C23036009E008680C18944203D114685268001908604A60596030BDC04660210020032370B5CC1C9C430834051C0C2C01D20C2405E058
:4028C000002C03DA0C2300202B6042E08C42F9D3204A1368101C191C002913D00A68121B0DD40B2A02D90A608B181FE08B4202D15A6802601BE04A685A600B1C17E00B1CDB
:402900004968E9E7144E3368002B03D1281C00F0E3FA3060281C211C00F0DEFA031C421CD0D00322C61C964386420AD11C60181C07210B301A1D8843821A0AD05142995089
:4029400007E0311A281C00F0C7FA431CBAD0331CECE770BD602100205C210020936810B5013B9360002B05DA9469A34208DBCBB20A2B05D01368581C10601970C8B201E032
:40298000FFF7A0FC10BDF8B5061C0F1C141CD518AC4208D02178301C3A1CFFF7DFFF0134431CF5D100E00020F8BD0000F0B59FB0061C0F1C02920593002804D08369002B3D
:4029C00001D1FFF743FE794B9F4201D1776808E0774B9F4201D1B76803E0764B9F4200D1F768BB891B070AD53B69002B07D0002306AD6B6120336B761033AB763DE0301CB9
:402A0000391CFFF7B7FC0028F1D001204042CAE0059A111D12680591002A7EDB0992013423782E2B00D189E021786348032200F00FFB002808D0604B0134C01A40238340C1
:402A4000181C2B68184328602178631C5B4806220293297600F0FCFA002800D191E0584B002B00D084E00722059B07339343083305936B69039A9B186B61029C2378002B43
:402A800004D1029BE31A049311D003E0252BF8D00134F3E7049B301C391C029AFFF773FF431C7BD06A69049B944663446B612378002B73D00122002352426A6002A954329A
:402AC000521801342B60EB60AB601370AB6521783C48052200F0BCFA002809D0394B0134C01A01238340181C2B6818432860EEE72B68DA0604D55322202102A81218117088
:402B00001A0704D553222B2102A81218117022782A2A00D17CE7099B05E05242EA60022213432B607BE72278303A092A04D80A214B4301349B18F6E7099371E763782A2BE0
:402B400009D1059B02341A1D1B680592002B0DDA01235B420AE0002301342278303A092A04D80A214B4301349B18F6E707935BE705AB0093301C291C3A1C134B00E000BFAB
:402B800007E005AB0093301C291C3A1C0E4B00F08BF80390039B013300D06AE7BB895B0600D532E70B981FB0F0BDC046304C0100504C0100704C0100964C01009A4C010059
:402BC00000000000904C010087290000F7B5171C01930A698B6800900C1C934200DA131C221C3B6043321278002A01D001333B6023689B0602D53B6802333B60062523680B
:402C00001D401ED0231C43331B785A1E9341226892061CD53020E1184031C870211C5A1C45310978A21840320233D1700FE0221C0123009801991932089EB047431C0ED0BC
:402C40000135E3683A689B1A9D42F0DBDAE7221C009801994332089DA847431C02D10120404220E006232068E1683A6803400025042B03D18D1AEB43DB171D40A368226902
:402C8000934201DD9B1AED180027AF420ADA221C0123009801991A32089EB047431CDED00137F2E70020FEBDF0B58BB006920A1C43320793059004920A7E0C1C109B6E2A6A
:402CC00000D1A8E011D8632A22D009D8002A00D1B2E0582A00D0C2E045310A707C4A4FE0642A1DD0692A1BD0B9E0732A00D1A7E009D86F2A29D0702A00D0B0E02022096825
:402D00000A43226037E0752A1FD0782A33D0A6E00E1C1A684236111D196013683370A1E021681A68080606D4490604D5111D19600023D55E02E0111D19601568002D3BDA2A
:402D40002D23049A6D42137036E021681A68080606D4490604D51568111D1960ADB202E0111D196015685A4B227E03930A276F2A1DD108271BE0221C782145321170554A4E
:402D800019680392081D226818600D68100602D4500600D5ADB2D30702D520231A4322601027002D03D1202322689A432260231C002243331A7002E00A27454B039363684F
:402DC000A360002B03DB0422216891432160002D02D1049E002B0ED0049E281C391CFFF7A3F8039B013E5B5C281C3370391CFFF715F8051EF1D1082F09D12368DB0706D53B
:402E000063682269934202DC3023013E3370049B9B1B23612BE009681A68080607D4490605D5111D19601368A28A1A8004E0111D1960136862691A600023049E236116E0F9
:402E40001A68111D196016680021301C626800F0FFF8002801D0801B6060636803E0261C42363270012323610023049A1370079B05980093211C069B09AAFFF7A7FE431CE6
:402E800002D10120404221E0236905980699321C079DA847431CF4D023689B0705D4099BE068984212DA181C10E00025E368099A9B1A9D42F3DA221C012305980699193296
:402EC000079EB047431CDCD00135EFE70BB0F0BDA14C0100B24C010038B50023064C051C081C2360FDF73CFE431C03D12368002B00D02B6038BDC0468021002038B50C1C5D
:402F00000E25495F00F0B0F8002803DB636D1B18636503E0A289024B1340A38138BDC046FFEFFFFFF8B51E1C8B89051C0C1C171CDB0505D50E23C95E0022022300F074F868
:402F4000A289054B281C1340A3813A1C0E23E15E331C00F01FF8F8BDFFEFFFFF38B50C1C0E25495F00F060F8A389421C03D1054A1340A38104E0802252011343A3816065EA
:402F800038BDC046FFEFFFFF08B50E23C95E00F015F808BD38B5051C0020074C2060081C111C1A1CFDF7B6FD431C03D12368002B00D02B6038BDC0468021002038B5002314
:402FC000064C051C081C236000F062F8431C03D12368002B00D02B6038BDC0468021002038B50023064C051C081C111C236000F057F8431C03D12368002B00D02B6038BD9E
:403000008021002038B50023064C051C081C236000F04EF8431C03D12368002B00D02B6038BDC0468021002038B5051C0020074C2060081C111C1A1C00F042F8431C03D18A
:403040002368002B00D02B6038BDC04680210020C9B28218904204D003788B4202D00130F8E700207047000038B5051C0020074C2060081C111C1A1C00F02AF8431C03D1FA
:403080002368002B00D02B6038BDC0468021002058220120014B40421A6070478021002058220120014B40421A607047802100205822024B00201A607047C04680210020AE
:4030C00058220120014B40421A6070478021002058220120014B40421A60704780210020134A1088810703D08107890F401A001D11791030484381B25088820703D08207EE
:40310000920F801A001D800040180A494030098980B2CA0701D0503080B2890706D504495422091F09785143081880B270470000820C00205410002010B501F0C7FE10BD96
:4031400010B500F055FA10BD10B50749044609780220002907D1204601F008FF002802D120460AF02DFA10BD140E002070B504460120002C12D02368002B0FD06168002967
:403180000CD0074D06222889208118462968FFF702F86968606809780170002070BD000054100020FFB585B0002768460E9D07734F481C460078002802D0082009B0F0BD4E
:4031C00010990F9801900095029105A807C800F001F90028F2D16946264603AB84460873002C19D0002115E08A00B75A082F09D990198078002805D0083FB7521878401CAE
:40320000187005E0002914D00027B75290198770491CC9B2A942E7D360460028CED10F98002809D0109901F001FA002804D00120C4E701208446EFE701F048FE2D480021BF
:40324000416081600599016021888180022D07D3A1798171A17AC171A1890181218A418100211EE0481C19E082008B00A75AE65ABE46BE4211D26F463E80B4461E190296BB
:40328000B678BE7001967646E6521719029EBB78B3706646A652019EBE70401CA842E3D3491CA942DED3134822460C3000906846037B0799069800F015F90028B8D168463D
:4032C0000B4C007B60700B480C3001F02FFE0028AED1084907480C3107F0FEF80028A7D107F018F90028A3D10121217066E700007C0C002048100020F8B5054633480E46E3
:403300000078002802D002242046F8BD002E5BD000242F49002D16D02A89D0070DD02868002808D003881B3BE12B04D24088FB2801D81B2801D2012409E0900707D56868ED
:40334000002804D1F7E70020088108604860002CDAD11F482F8907811C481B21801D018041800421017119490020891C0870F80705D016480622801D2968FEF70CFF1449A1
:40338000B80703D56A681148127882700F480D46801D0860001F486001F00EFE0B48801D01F0FCFD28890DF055F928890DF0BCFA03461033FFF794FE1F21C0188901401814
:4033C0000249308088809FE701249DE77C0C002054100020FFB58446384F1C460020BB883F78054602460646002F11D100290ED0029999420BD36146002908D0002C06D0F9
:403400000A99002906D02E4B0B99994202D2012004B0F0BD002144E0AB001F19BF78002F3BD0E35A002B38D07B43591889B22B0000F04AF8050410161C253100A778238861
:40344000BC46FF27233BEB37BB4222D26346032B1FD322E0A388002B1FD0302B19D31CE02389002B19D0282B13D316E0A289002A13D01346134F233BBB420AD20DE0268AAA
:40348000002A0AD033460F4F233BBB4201D2964203D901200EE0002001E000280AD16D1CEDB2099B9D42B7D31C2463435B1802998B42ACD89642AAD8AAE700007C0C00202F
:4034C00079020000BAFF000030B47446641E2578641CAB4200D21D46635D5B00E31830BC18470000FFB583B0002469460C801F4606468C80002806D00598002803D00498A3
:403500003043800701D0012466E0002FFBD03449049809888842F6D3FEF786FBFEF76EFB00F00EFC002855D100F076FD002851D12C49084601F0AEF805042D0C4AD12A482C
:403540000499066081800021C18007810C98007AC00704D0684601F0D2FC040007D10C98007A800703D501A801F0D2FC0446BF1DFEB2002C20D13146059800F05DF8040026
:403580001AD10DF0DFF9040016D16A461088928808368518144AF1B29088D288AEB29319984207D3401B801A80B201F063FB050007D000E0FF25012400F05AFA002D04D030
:4035C00008E0F8B200F01CF9F6E700F07DFA07490120087000F0C6FB204607B0F0BD0000800C00202537000060100020880C002010B503480078012801D101F0DDF910BD29
:40360000880C002070B5084B0446DA889E8800205518B54206D81D68AA182260DA885118D98070BD032070BD60100020014800897047000060100020F0B587B007460D469B
:4036400000208900009006916846FFF7DBFF844600285DD1304800990160002117E02E4B88001A680629115406D22C4C0419667882185670628805E0C419203CA67A8218CE
:40368000567022891B68C018491C4280C9B2A942E5D300242DE0601CC2B2059025E01E4FA30039689600581840887118039604904E88B04217D938466F46FE80B6464F78DD
:4036C0006E4677710297049F4F800168039F5E18767879184E700168764659184E800068029F18184770521CD2B2AA42D7D30598C4B2AC42CFD36046002809D168460699F1
:40370000FFF780FF8446002802D1054900980860604607B0F0BD00008C0C0020F84C0100900C00207047000010B5002809D005494A68002A05D0011F08788000105801F049
:4037400047FA10BD8C0C002010B50446FFF76EFFC0B2801DA0420CD307484068002808D0A100405801F0A6F9002801D00470001D10BD002010BD00008C0C0020F8B516467C
:403780000D460446FFF752FFC0B2801DA04203D20020C0430090F8BDB2B2E9B2684601F0AFF90099481C03D0024AA000526811500098F8BD8C0C0020F8B50746FFF736FFB0
:4037C000801DC6B20A49002005460C680DE06178002907D06188B94202D32078FFF7B4FF002804D1241D6D1CEDB2B542EFD3F8BD8C0C002010B5002801D0FFF795FF10BD21
:4038000070B506460948002504680BE06178002905D062882078121D0023FFF7AFFF241D6D1CEDB2B542F1D370BD00008C0C0020FFB581B00A9C16002BD000F0EFF8054634
:40384000042826D0214F002C0BD02046FFF7B4FF2901C919486000281BD022460499FEF79AFC1A4928010E5046187481019805707D20029CC000444300F0BEF8074604285D
:403880000AD000F053FAA0420ED800F04FFA201A06E0FF2005B0F0BD204600F0ABFA0020F06035720020F5E700F040FA009000F0B7FA00980121001B009000F0EDF8034960
:4038C0003A0151180098C860E6E700006C100020F8B5060116483418217A042903D0E068002802D017E00020F8BD00F01FFA054600F096FA00F0A0F804280CD001010C483A
:403900000F18F8680021451900F0C6F80020F860284600F06FFA6068054D002801D0FFF769FF042020720020A8516081E060DAE76C100020FEB500266A4630460123254945
:40394000050169180D7A042D02D0C96800291BD000211154401CC0B20428F0D300246846005D002830D01B48210108184189476805680291002101604160042241810272BA
:40398000C160002E02D015E01354E3E700F054F804280ED001010F4808180190C6680021304600F079F801980021C160304600F021FA0126002D07D038460299A847002F8C
:4039C00002D03846FFF716FF641CE4B2042CC6D3FEBD00006C1000200EB5002005216A460090118150810348694600680DF01FFE0EBD0000940C0020074A0020010189186F
:403A00000B7A042B02D0C968002903D0401CC0B20428F3D3704700006C1000200549002002015218127A042A03D0401CC0B20428F6D370476C10002030B50A4B04200A4C8E
:403A400000210A011219157A042D06D0D268002A03D09A4201D808461346491CC9B20429EFD330BDFFFF00006C1000207047000030B50020074C05460423020111190B7245
:403A8000A5504D60401C4D81C0B2CD600428F4D330BD00006C10002030B5094C00231A011219157A042D04D0D568002906D02D18D5605B1CDBB2042BF1D330BD2D1AF7E729
:403AC0006C100020002070471CB5002469460C70142001902346054A05480DF0ADFD04480068401C00D1FF2420461CBD453B0000940C00203EB5124A0146FF200023012442
:403B0000126800290DD0012914D0042908D104206946009308814B8110460DF088FD80B23EBD6846009304814381694610460DF079FDF4E768460093048143816946EBE749
:403B4000940C002070B545890468416800890300FFF7BAFC08280509091E22282628002005F08CFB1EE0022908D0C8B22A4621460BF0D8FE2046FFF73DFE13E002202A466D
:403B800021460BF0CFFE2946204600F00DF809E000200DF03BFA05E02046FFF7CBFE01E0FEF7C0F8002070BD014B0022DB681847980C002070B5448905680089022803D033
:403BC000032809D0FF2070BD2246094C0023A46829460120A04708E0FFF7AEFA241DA2B200232946022006F040FB002070BD0000980C0020704700000248002141600180BD
:403C000041807047980C002070B50C46002186B016460391012802D0022859D116E003A9012006F06AFB01281BD1039D324621462846FEF7B0FA00952878019002206946E5
:403C400008814E816846FFF7B5FF41E0214D002B686809D0049004A9022006F04EFB01281DD0022006B070BD002812D0298840182146FEF790FA28880024801980B2288034
:403C80006988091D884206D12C801348FFF792FF03E00320E6E788421AD96C6018E004986860E278A378110219430B4A698000231060E3565360032313815181A1788170CF
:403CC000E178C1706178417021780170042028800020C7E7980C0020AC1000203EB515460C46022803D004280CD000203EBD0091019002206946088107484A8100680DF0B1
:403D000096FC07E00BF00EFE044B0022DB6829462046984701203EBD940C0020980C0020014AD16090607047980C0020034801688068081A0A21484300097047B8100020F8
:403D400010B5FDF761FF482204490548FEF723FA03490120C870002010BD0000144D0100BC14002010B5FDF743FF10BD70B5134C2368002B08D0207B1149C20705D040087B
:403D8000400020738868A08070BD88680B4AA18880B29268814203D90A4D691A091802E0814202D2411A5118A160A080A0689842EAD30DF059FC00F013F870BDB810002060
:403DC000C0102E40FFFF000010B508461946FFF7A7FF10BD704710B5FFF780FF10BD000003480021016041608160C16070470000B8100020024610B5FF20002A0CD0FFF7B7
:403E0000EFFF064C0321207B0843207310010A21FEF78AF82060002010BD0000B810002000B504480A21806848430209FFF7D8FF104600BDB81000200248007B8007C00F10
:403E400070470000B810002010B54B490868002802DA4A4B01221A70022290430860484800694549C00B4031096A0246C907C90F0A4259D0012000F097FA3F480E216C30A6
:403E8000FDF7C4FD3E4820218430FDF7BFFD3C4814219C30FDF7BAFD3948FF21C131A430FDF7B4FD3648FF212F31B030FDF7AEFD33483449BC30FDF7A9FD31483249AC301B
:403EC000FDF7A4FD30492E48491CB430FDF79EFD2B482E49B830FDF799FD29482C49CC30FDF794FD26482B490830FDF78FFD24482949A830FDF78AFD214828498830FDF752
:403F000085FD1F4826498C30FDF780FD1C481921C9029030FDF77AFDFDF786FDFDF78EFEC0B2022812D01FE000290BD0002101420AD0114801216030FDF768FD0120FDF739
:403F40004BFE97E70121F2E7FF2010BD15491648FDF75CFD14481549001DFDF757FD124800210830FDF752FD54200449C043891C0870002010BD000000F02E40A80C002075
:403F800000002E40320300002F3F00003102000010520000EC160000FA12000031D000003AE300009956000080012E40F80F000070B50646581C80B245086D00002408E06D
:403FC000304600F0C1F81055000A1119A41C4870A4B2AC42F4D3D80705D0D0182038D15CC47FD454C17770BD30B50A4C002100195B1E07E0541864782502545C2C430480AE
:40400000891C89B29942F5DB994201D1515C018030BD000000102E4010B5FF2000F0C4F90F49FF2048700E481021801D41800121417001700A490020C91C4870FFF704FFBD
:4040400004000AD100F010F907210648FDF7D0FC044807211830FDF7CBFC204610BD0000A80C0020CC112E4070B5002405465B1E0AE0284600F068F8010A161971702D1D4F
:404080001055A41CADB2A4B29C42F2DB9C4203D1284600F059F8105570BD000070B500210A4D5B1E0AE0541864782602545C344346193480001D891C80B289B29942F2DB07
:4040C000994202D1515C4019018070BD00102E40F0B50599091FCFB200217E1E0BE0541864782502545C2C43164D45192C80001D891C80B289B2B142F1DBFC0712D01C78EA
:40410000515C24020F4A0C4381180C809C785D78001D210280B2294384182180001D80B2D9780CE059781A7809021143054A84182180001DD9789B78090280B2194380184F
:404140000180F0BD00102E40014940180088704700102E4010B50B490020487000F084F8002000F047F9002000F034F907210648FDF73EFC044807211830FDF739FC0020A1
:4041800010BD0000AB0C0020CC112E4010B50B46062812D006DC01280CD0032801D1FFF7D9FF10BD0A28FCD00B28FAD105480078107010BDFFF730FF10BD1146184600F0C6
:4041C00035F910BDAE0C0020F8B5244DAC6A0127A007234E002816DA307806280ED1286A384328621F480069F903084381B21D481030FDF70BFC042000F0D6F817480221C4
:404200002830FDF7F5FBE00718D000F0E1FE01280FD1002000F02EFF062000F0C5F81049FF20C91E48707078002802D1686B384368630A4801212830FDF7DAFBE0050BD51E
:404240003078042802D1052000F0AEF80348FF2101312830FDF7CCFBF8BD000040F02E40AB0C002000002E4010B503212348FDF7CDFB0120FDF7A2FC20483038406A204CEB
:4042800080076178800F890001431C480C38FDF7BDFB6078002808D0401E022181401820FDF732FFC000083800E0B82081B21548FDF7ACFB1348032109021438FDF7A6FB29
:4042C00010481149B830FDF7A1FB612189010F48FDF79CFB0D480321001FFDF797FB0C490C48FDF793FB0B480B496038FDF78EFB084801218838FDF789FB10BD70F02E405C
:40430000AE0C0020D8102E4090890000041E2E40FF0F000058122E40209000000849087806280BD148780749002803D1486B400840004863C86A01221043C86270470000B8
:40434000AB0C002040F02E400148007870470000AB0C002000B50300FFF7B6F8080D050D0B070507090D012000BD032000BD042000BD022000BDFF2000BD0000074A91681E
:40438000D26889B2064B92B2994204D105498A4201D1012100E000210170704780002E4033D000003FE3000010B50446FDF726FC072C01D9FF2C01D102480470FDF718FC04
:4043C00010BD0000AB0C00200149487070470000A80C002010B5064A012805D01921C9021046FDF713FB10BD1D21C902F8E7000090002E4010B50A4A141D012808D00949CC
:404400001046FDF703FB08492046FDF7FFFA10BD04491046891CFDF7F9FA0349491DF3E788002E4031D000003AE3000070B50C460546FDF703FCC0B202280E49287804D0D8
:40444000FF2810D04C280CD810E0FF2809D10A4AD0680004800F032801D0087807E09069000A553803E00878207070BD4F382070087070BDAA0C002000002E40F0B50122F2
:40448000002830D000292ED00424420600D00524792342065B06D21800D0641C034600221EE00C2516466E43104D00277519AF720E4F002ABB51696007D0661EB24209D166
:4044C0000B4E86197606760E05E05E06760E8027BE1B00E080269B198919521C2E81D2B2A242DED300221046F0BD00004413002079020000074900200C2242435218927AB5
:40450000012A05D0401CC0B20628F5D3002070470120704744130020F8B50F000446164609D0184D18496868A04202D94018A04201D38E4201D90120F8BD39462046FDF79C
:404540001BFE00281BD0324639462046FDF723FEF0B200210C224A43521913895668F718A74208D90127A41B1B1B9772834206DAC01A1469C0B2491CC9B20629EAD3002001
:40458000F8BD0000441300207902000010B500F05DF80748054AC16806480C46FDF7FBFD04492046FFF76AFF10BD000079020000B40C0020C8100020002070470020054A7F
:4045C000002902D0012902D002E0506000E0906000207047B40C002070B5084C154608460549A26889182A46FDF7D5FDA0684019A06028B270BD0000C8100020B40C00201A
:404600003EB50A226946FFF7E7FF044606480A2200686946FDF7B0FD002802D00020C0433EBD20463EBD0000B40C0020002802D0044A914201D2FF20704703490A61C86058
:404640000020704779020000B40C0020024800214160816070470000B40C002070B5074C15460548626880182A46FFF755FF60684019606028B270BDC8100020B40C002088
:4046800010B503490A220968FFF7E8FF10BD0000B40C002010B50F4A002313600E4A13600E4B18600E4801600E49012008600E490860000290600E490C4808600D4914307D
:4046C0000860FF381538506000F0BCF800F0CAF9002010BDE00C0020C80C0020F40C0020F80C0020E40C0020D40C00208C140020D80C0020EC0C0020014610B50020002955
:4047000010D0094B1A689C685118A14209D25868196080188A0704D08A07920F891A091D196010BD002010BDC80C0020F8B50024164E671E321F3D463168136806E0142282
:40474000624310328A58521C1BD0641C9C42F6D36A1C14D02C461422544322460C3288500C214843FFF7C8FF3168002808510AD031680020103408517068401C7060284698
:40478000F8BD2546E4E73846F8BD0000D80C0020F3B50026F64381B000281BDB1E490968884217D80299002914D01B4F142204463F1D54432546396810354859401C09D044
:4047C000FDF71CFA38682F1F4159C359994203DBFDF70EFA3046FEBD214608310091465801590C20704308180C220299FDF7D3FC0948761C001D0068C159B14200D1002605
:404800000549009A091D865008684159491C4151FDF7EEF90020FEBDD40C0020002803DB07490968884202D90020C043704704491422091D09685043103008587047000093
:40484000D40C0020F0B500200D4A451E0346171F50600FE014260146714314680E1DA3510C461668083433511668083435511468401C635039688842ECD30020F0BD000079
:40488000D80C0020F3B50026F64381B0002841DB2349096888423DD8029900293AD0204F142204463F1D54432546396810354859401C2FD0FDF7A2F93868415900292BD0D2
:4048C000211D009146580C21005971430F46C1190C220298FDF75FFC11480021001D0068761C00590C34C0190160416081600C48001D00680159B14200D100260849009ADD
:40490000091D865008684159491E4151FDF770F90020FEBD3046FEBDFDF76AF9FAE70000D40C0020FEB504460D4600201E49089E0860471E009001900290002C11D048681D
:4049400085420ED2002A0CD0002E0AD0642E08D808460C3001681C2068430C18207A002801D03846FEBD0120226020721846FFF7DDFE6060401C13D06681A6810A482761FB
:404980000C3067610179A94200D205710021684601810A462846029B00F040F82846FEBD00202072DDE70000E00C002038B50124009400F039F838BDFEB50027164EFF438B
:4049C0003D4600240EE01C20316860430818017A002906D04068FFF721FF002801D0254603E0641C3079A042EDDA681C12D01C2130684D434419FDF701F969466068FFF7B6
:404A000041FF0546FDF7F4F8002DD9D1216868468847D5E7FEBD0000EC0C002038B50024009400F001F838BD1FB500220C49541E0A60002811DB496888420ED808491C22F1
:404A40000C31096850430818406801A9FFF7A0FE401C02D0002004B010BD2046FBE70000E00C0020F0B50021114A4D1E174611710C3F0B46BD6016E008461C246043166803
:404A8000041D355114680646235014680836A3551468361DA353044616680A34335318301468491C255078688142E5D30020F0BDEC0C002038B500210091002811DB0F4928
:404AC000097888420DDA0D4D04010C3529680859002807D0201D0818694600F06FF9002801D0002038BDFDF789F828680F34015D491E0155FDF77CF8009838BDFC0C002001
:404B0000F7B582B0002502986E1E06602E48D21C024017462D4A2C4610460C380178106805E02301C358002B0FD0641CE4B28C42F7D3711C28D03401211D40180191039915
:404B400000F02AF900281FD101E02646F1E71F48016820460C300F521C480399026820460E30115419480399026820460F3011540398784300F0A0F8144900280968085101
:404B800002D00024009011E001251AE00F48016801980818009900F02CF9002801D0012502E00098C0190090641CE4B203988442ECD3002D05D10298066004480179491CD1
:404BC0000171284605B0F0BDFCFF0000080D0020F8B50D4600216A468C461180002839DB23490978884235DA214B04010C3319680A59002A2ED020460C300B5A801C0E5C44
:404C0000184670438018954224D3854222D2002006E007465F43BF18AF4206D0401CC0B2B042F6D36046002814D0114E271DC8190C366A46294600F006F900280AD16846EF
:404C40000088012808D030682946C01900F0D1F8002803D00120F8BD0020F8BDFCF7CEFF30680F34015D491C0155FCF7C1FFF3E7FC0C0020F8B50F46002400F031F800289C
:404C800017D10C4900220B460C334A600EE021011D680E466A501D680C36AA53B61C1D680F31AA551D68641C6A54E4B2BC42EED31A71F8BDFC0C002000280BD0C01C074AAE
:404CC00081085068890053884118994203D89368516018187047002070470000FC0C0020F8B5064600200F4D009029700C0121466846FEF787FC00280CD129460C310098ED
:404D00000860301B001F84B221466846FEF77AFC002801D0FF20F8BD6C800098A8600020F8BD0000FC0C0020F8B5002827DB19490978884223DA174C05010C342168485941
:404D400000281CD028460C30085A009028460E300E5C401C0E5420682F1DC01900F064F800280CD12068002445590EE0094829460C300068C01900F03CF8002801D00120FE
:404D8000F8BD00982D18641CE4B2B442EED30020F8BD0000FC0C002030B50D4604000BD0A800FFF789FF6060002805D000202570C0436080002030BD012030BD70B50D4672
:404DC000040005D0002D03D00220205E002801DA012070BDFCF712FF0221615E60688900405828606088401E6080FCF701FF002070BD70B50D46040007D0002D05D00221B4
:404E00002078615E401E814201DB012070BDFCF7F5FE6088401C00B26080616880000D50FCF7E6FE002070BD10B5040009D0227800216068FDF7B8F90020C043608000205D
:404E400010BD012010BDF0B500231D46002802D00224045F0AE00120F0BD46689F00F6598E4201D1012503E05B1CDBB29C42F4DA15700020F0BD0000014800787047000050
:404E8000100D00207CB505460024FEF755F9A8796946087000A8062229460130FDF77BF90021684604F0B0FC0C2806D0072806D01F2806D0122806D006E0022404E00424EF
:404EC00002E0272400E0012420467CBD10B500F05FF9FFF739FAFFF73DFA10BD70B504460025FEF729F9002C06D0A079012803D8214602F067FC00E00125284670BD014643
:404F00000120002902D05020088000207047000001460120002905D003485422007850430880002070470000120D002010B502460D49FE204870032410460CF09BFE002843
:404F400010D10CF03FFE00280CD105F033FA002808D100F013FB002804D104F0FBFE002800D10024204610BD100D002070B50025044600280ED0A07901280BD8FEF7DCF8F2
:404F8000A0790028204602D002F0C2FF03E002F097FF00E00125284670BD0000014610B50120002904D006220248FDF7F4F8002010BD00001C0D002001460120002903D0A3
:404FC000087802490870002070470000120D00200148007A70470000C415002038B504460120002C20D0617801291DD800290BD0FF25E535FEF7A0F80C4828180088C0B21C
:405000002070072803D00EE0FF25CD35F2E70020694608706846FFF7B1F969460878012801D108202070002038BD000000102E40014A002192681047100D002008B500220E
:405040006B461A7026280CD0094A342852680BD0352805D1900703D50021352005F07CFA08BD19462620F9E7D007F9D03420F5E7100D00200149087270470000C415002039
:40508000F8B504460120002C26D06178012902D92278092A20D8002905D0FF25E5352078092803D004E0FF25CD35F8E708202070FEF742F82078114F114E08280DD00020E7
:4050C000FFF798F970780128207810D00D4969180880FE2070700020F8BD0120FFF78AF90720B8810549203188800120F2E7B8810248217820308180EBE70000C0112E4055
:40510000100D002000102E4070B50E46050001D0002400E00C4C002C11D0E28A500609D5D107C90F022002F087FFE08A40218843E08204E0D107C90F012002F07DFF314680
:40514000284602F065FC70BD24150020F8B50546002004460D4E009013E022466946284600F0CAFF0098002801D00CF065FDA878214602F085FAA878214602F073FA641C1D
:40518000E4B2308AA042E8D8F8BD0000EC15002038B51E4CFFF7D8F8042813D0052811D0062812D003282AD007280AD100206946087002460120FEF7E9FFFFF7C5F8012845
:4051C000FBD138BD00F06BFB38BD02F0AFFA00F066FB02F02BFB8007800F0228F4D10C4841880029F0D05B21095D0029ECD101210170A07D0140022002F01EFF38BD02F0C3
:4052000099FA0120FFF7D0F838BD000024150020360D0020F8B50646002402F07BFF0546304602F091FF03460A480021068A0DE001228A401046174628401F40002803D0E4
:40524000002F01D1224394B2491CC9B28E42EFD82046F8BDEC1500201CB50020694648706846FFF7BBFE01AA69460A20FEF78EFF6946042008561CBD70B50D4601F01CFB8A
:4052800004000BD02079002808D0FDF755FFE178A0782A4602F042FC002070BD022070BD0148007870470000FC1400204030C07E002800D00120704700B500F001F800BD00
:4052C000902148430749084A40186030417F491CC9B24177D289914201D300214177C8B27047000004150020EC15002013B501F0E3FA04000BD001F080FE002807D02146E0
:4053000001AA0A310620FEF741FF00201CBD02201CBD000010B50C4601F0CEFA00280AD001F06BFE002806D0224604490A20FEF72DFF002010BD022010BD0000E514002019
:40534000F3B581B0074601460026029802F0DAFE0446002F01D0002500E0154D002D21D0284601F0DFFA032C04D13946029802F025FF06463846029902F074F9032C06D033
:40538000002C10D00121384601F0D2FB03E03146384603F00FF9284602F058F80221284602F06EF8FEBD3846029902F05BF9FEBD2415002010B5044600F05AFA002804D199
:4053C00003F0B0FD002801D00C2010BD2078611C02F0A6FCFF2801D01F2010BD02F0ECFCFF280AD02178621C02F0CAF8044821780068026B601C904710BD072010BD0000FA
:405400005C0D002010B503F08DFD002801D00C2010BD02F067FC03480068C06A8047002010BD00005C0D002070B50D46044610210CF042FB1021601806460CF03DFB334672
:4054400010221946204603F09BFD102130460CF033FB02202870204604F0B2FB70BD0000F8B504464078217802028006870FE0781143A67809050002090D0643084601F00B
:405480001BFA00210546F2B2002812D0002C10D0022F0ED0032F0CD0002A0AD00279092A07D0002A05D0134A5A23527E1B5C9A4207D82889002104F0B8FA20460CF0BCFB9F
:4054C000FF21002914D10C48224600682946436930469847C0B2FF280AD128464030817EF2B2491C8176FF232146284600F0E3F8F8BD0000BC140020780D002000207047B6
:4055000010B5044603F00EFD002801D00C2010BD2078611C02F004FCFF2808D002F03CFB044821780068426B601C904710BD1F2010BD00005C0D002010B500F05FF904F08D
:4055400009FC002010BD10B5044600786178E2780843A17811430843217908436179084305D003F0D1FC002803D00C2010BD122010BD204602F0CCFC002010BD10B5FCF725
:405580005DFB02F0E9FD044803F038FD02F00EFB012000F003F810BDCC140020F1B586B003A8009005A8019028489F22817A114081726846FDF7DAFD002845D169460989B6
:4055C000C90705D0224806990068C2686846904769460989890706D5002835D11D480068816A0698884700282ED11B4E0025757075737571F575357675767575B570F5700B
:40560000B5713746F5730120CC3738731F20F880FF2130467972A0300176457600F0C4FA00242046069901F093FC002803D1641C2406240EF5D0FD720749BD72B573C0315B
:405640000D704D704D600D7207B0F0BDBC140020780D00205C0D00200415002070B505460E46084602F056FD0446304602F06CFD0121A9400A46224001400A4301D001205A
:4056800070BD002070BD10B50446084602F05CFD0121A140014201D0012010BD002010BD10B5FEF751FE032804D102F043F80120FEF77AFE10BDFEB51C4616460F46054634
:4056C00001F0C4FEA878FFF7F7FD02460190334639460094284600F00DF8002808D1A8780199FFF711FDFF2C02D138460CF0A4FAFEBD0000FFB585B005460E980C46FF2842
:4057000010D02B49C00009680A5840180179C0795278814201D9012601E09006860F6846038108E06078A1788006860FE0780002014368460181284601F06AFC070007D046
:4057400021462846079A00F06BFC384609B0F0BD304600F019FD04AE0346039002AA29460096204600F0A5FB3C20405D002818D0284601F04DFC012813D06846008900963D
:40578000C0B20190A878231DFF22079902F0F4F868460089039BC2B2A878079902F034FCD3E7684600890021C0B20091E9E70000740D0020F8B5104F002500242846FFF77D
:4057C00029FD060012D00EE03046E040C007C00F07D02146284601F03DFF21462846FFF7AFFD641CE4B2388AA042EDD86D1C2D062D0EE2D0F8BD0000EC15002010B502F07C
:40580000D5F90020FFF7CAFE0CF0ACFA002010BDF8B5002400F0B2F80123012800D10124104F00203E4620360425082203E0002801D0002100E031460979002907D00129D3
:405840000BD002290BD0114681402143CCB2401C0006000EEBD07C70F8BD1C43F7E72C43F5E700000415002010B5FFF7D1FF10BD10B5044604F0C0FB002802D1601C00F043
:4058800001F810BD1CB500240094062269460194FCF772FC002800D1122420461CBD10B5FCF79FF80446FEF74FFD012809D0FEF74BFD022805D0FCF791FA2046FCF795F8E2
:4058C000EEE72046FCF791F810BD10B50B4681791943817103D08078114602F063FB10BD10B582798A43827102D1807802F06EFB10BD000030B50C4C0220A28A0B4B997822
:40590000002901D0022906D11D785B78EB18282B01D9032002E0032900D101205105490DC0020143A18230BDC0112E402C0D002000B500F029F8002807D0012805D0032868
:4059400001D0042801D0002000BD012000BD014600B50020C90701D000F010F800BD014600B50020C90701D000F008F800BD00000148006870470000240D00200148008838
:40598000000A704720102E400448008B410501D5042070474007800F7047000000102E4010B501F009FF044601F046FF0146204601F02AFF10BD0000014840687047000035
:4059C000240D002038B50446000610D5FFF7DCFF01280CD1684601F0BDFE6846007800F023FB012001F09AFD0220FFF73DFF600708D507480179012904D1002101712620ED
:405A0000FFF71CFB0348006801692046884738BD300D00205C0D002070B505460C49007800240870FFF7AAFF012803D1FFF7B8FF022803D3284602F0D7F907E0284600F095
:405A4000EBF8040002D1034801210170204670BD2C0D0020C415002070B50446FFF78EFF002801D00C2070BDA27B01211F48002A827801D00A4301E0520852008270627923
:405A8000012A14D0C17849084900C170184D2868016820468847207901280CD06188208803F002F82080207904280FD015E0C2780A43C270EAE72868C168E01D8847E01DDF
:405AC00002F012FA0B48808C208006E02868C168E01D8847E01D02F007FA074920798870204602F08FF9002070BD0000041500205C0D0020BC1400202C0D002008B50178FF
:405B0000FFF73CFF814201D10C2008BD002914D0072069460870FFF70BFF012807D10121684600F0D9F8012801D0092008BDFFF7E1FE02F09BF9012011E0FFF7F9FE012856
:405B400006D1684601F006FE6846007800F0A0FA02F082F9FFF712FF0028FBD10220FFF783FE002008BD000070B505460C49007800244870FFF702FF012803D1FFF710FF03
:405B8000022803D3284602F0EDF907E0284600F05DF8040002D1034801214170204670BD2C0D0020C415002038B568460BF0DAFF002801D01F2038BD01210098C902018089
:405BC0004180002505714571857107214173857302F018F9009C202200212046FCF7E4FA25702A460021601CFCF7DEFA204602F0FBF8204602F0B6F900980CF01DF8062200
:405C000000210448FCF7D0FA02480C388560002038BD0000300D0020F8B504460025684600950BF09FFF002801D007250AE0064E009830602278611C401CFCF7ACFA31682D
:405C4000207808702846F8BD240D0020F8B504460025684600950BF085FF002801D007250AE0064E009870602278611C401CFCF792FA7168207808702846F8BD240D0020A8
:405C80000346084800B5834209D8184600F014FE002804D00089984201D1012000BD002000BD0000FF0E0000074A9179491C8906890E917138220A4092014907090E1143BD
:405CC000084302490840704704150020FF0E0000C006C00E70470000F8B507460E4600240D4803E0002C01D0002500E005462979002905D0641C2406240EF3D00020F8BD73
:405D00000021204601F024F92E712046FFF7CCFF28813C700120F8BD2415002010B503F063F90222002100F003F801F0EBFE10BD10B5094B40074907000F090F185A595A9D
:405D400040185043C0086421FCF7EEF8002800D1012080B210BD00005C4D0100F7B53D20405C88B015460C46002802D02878042802D200200BB0F0BD6946087200262046EE
:405D8000FFF794FA012800D00126204603A938300191009023460327A17E34333246206A03F046F902A8089900900B46019120463A4603A9243003F0C3F802466846007A94
:405DC0002870204601F0B0F81046D3E7FFB587B00C4605461078694608723D20005D1746002826D000262046FFF760FA012800D00126204603A93830019100902346A17E6E
:405E000034333246206A03F013F902A80090291D019120462B1D03A924300A9A03F090F802006846007A388002D1204601F07CF810460BB0F0BDF0B505463C20405C89B0BC
:405E400016460C4600280CD0307869460873002806D000272046FFF729FA012803D003E01F2009B0F0BD012703200890204604A93830019100902346E17E34333A46E069FE
:405E800003F0D6F86846007B03A928180290009120462B46019504A92430089A03F084F802466846007B3070204601F047F81046D7E7FFB505463C20405C89B016460C46D1
:405EC000002810D0084601F0A3F801280BD0308869468883002809D000272046FFF7E6F9012805D005E000200DB0F0BD0220FBE70127204603A93830019100902346E17EEA
:405F000034333A46E06903F093F8291D2B1D07A8129A6D4607C5204603A924300C9A03F043F802466846808B3080204601F006F81046D9E770B50D460446FFF7B7F9012864
:405F40000AD0E87AA97A00020143A07801F0D6FC012808D0002070BD00222421204602F0F5FC242070BD28214C200155204600F0B1FB282070BD0000002801D0002000E0B7
:405F800003484030C07F012800D0002070470000241500200146002049070ED50021084B03E0002901D0002200E01A461279022A04D0491C0906090EF3D070470120704709
:405FC000241500200146002049070ED50021084B03E0002901D0002200E01A461279022A04D0491C0906090EF3D07047012070472415002010B5044680346068002803D0B4
:406000000BF02EFE0020606010BD4030417070474030817070474030017070470171704792001018C166704770B53C2501F08EF9040004D020460021433001F013FCFF2252
:406040002946204600F0E2FB002C02D0A07801F0FFF870BD10B5002801D0002000E00348002802D0008903F027FD10BD2415002010B5002801D0002000E00448002804D084
:406080000179072901D100F047F810BD2415002010B501F05BF9002802D0807801F0D8F810BD00207047000070B50546008A00281ED01049F122897A1140C90618D52946B3
:4060C00040314A8A098A521C4A4392B2D10800D10121540801E0621A94B2A042FBD9FEF7CBFE012804D1298AA878224601F0CCFC70BD0000BC14002010B50023054C0B6097
:40610000248A944204D992001018C26E0A60C36610BD0000EC15002038B5044600200090A079002814D14020015D052901D00E290ED168460BF026FD002809D120460099E6
:4061400002F0E2FB03481021C28A2046FFF7BDFB38BD0000BC14002010B50B4604460146184602F05FF8002802D020460BF06EFD10BD13B5044601AA11460620FEF706F881
:406180006846818861811CBD002800D10220704770470000F8B504462346401D543300909A1EA078911E01F0F1FA25464035A88A298A8000FBF7B8FE401E81B2688A88427B
:4061C00003D96982A07801F071FF698A8C20015120460021433001F045FB27480088E88102F002FFE989891C8AB26179FFF7A0FD01F088FC02F0F8FE2A8A6179FFF798FDBA
:40620000074601F073FC688A002806D01B49088A032212021043088202E0002001F03AFF1648803801886E8A002E0CD0304648431349FBF769FF0004000C01D0401C80B2C2
:406240001049488002E00F4800214180288A704381B2A07801F094FEFF2228374932B9B21346204602F024FCE98AA07801F008FEA07801F017FAF8BD80102E40E0112E40CA
:4062800071020000360D00207FB504468034616805460E46183108226846FBF77CFF31462031082202A8FBF776FF102168460BF003FC6068102108300BF0FEFB60682B46A6
:4062C000083024331022694602F05AFE7FBD10B504460821FFF704FB10212046FFF700FB207905281FD006281DD008281AD12189002003F059FB072020712046FEF7D6FF0F
:40630000014620464030012913D00E21017000210176204600F0AEFF2046FFF76BFE2046FFF7C2FE10BD20890122002103F020FBE1E70521EAE70000FFB581B01F460446FC
:406340000821FFF7CDFA10212046FFF7C9FA2079082803D0092804D0042203E00422012501E009220025204600F03EFE264600204036307022712046FFF73CFE0398002D9B
:4063800002D0012808D00BE001280AD120890022029903F0EDFA04E02189029803F004FB012700203076012F04D0204600F062FF05B0F0BD02983073204602F0F3FA0546E9
:4063C00005480121C28A2046FFF77FFA002DEFD109202071ECE70000BC14002070B50C460546FEF763FF012809D108212846FFF777FA0023012221462846FFF79DFF70BDAF
:4064000010B5044600F0F0FD2046FFF7F3FD00214034217010BD70B505461A24FEF746FF012809D108212846FFF75AFA0023012221462846FFF780FF70BD0000F8B50446B1
:40644000002000900E4668460BF09CFB002801D00D20F8BD8420005908212030009D00F026FA20460421383000F021FA002E02D1204600F0F5FD2946204602F0D4F90E48A9
:406480000821C28A2046FFF720FA204600F063FF25464035002808D0204600F023F8002801D0092028700020F8BD08202870204600F0CCFFF7E70000BC140020014610B59E
:4064C00040310A460978082906D0092907D00A2901D100F091F810BD0B20107010BD00F001F810BD70B50446007925464035052805D0062803D008280FD00C2070BD032279
:406500000621204602F022FA0D480821C28A2046FFF7DBF91120287010E006202873204602F040FA0646AA8A0A20424301212046FFF7CBF9002E01D109202071002070BD42
:40654000BC14002038B504460020009068460BF019FB002801D00D2038BD2046009D00F0BDF908202071204600F07AFD2946204602F08CF900213D2001550F204021085530
:40658000204600F063FF002038BD00B5024600F02BFD10214032117000BD10B50446FEF785FE012809D04020005D112805D100231A4606212046FFF7BFFE10BD10B5FFF778
:4065C00086FE10BD38B504460021684600910BF0D9FA00280CD12046009902F0D8F905480821C28A2046FFF770F90D204034207038BD0000BC14002038B50446002168467B
:4066000000910BF0BFFA002801D00D2038BD2046009902F0B1F905480821C28A2046FFF754F90C2040342070002038BDBC14002000787047F8B5002569460D70002801D099
:40664000002400E01F4C002C18D0204600F0D5FC002813D0207903280BD005280CD026464036B18AA07801F095FCB078012806D01DE0042020711DE006202071F8BD0021A3
:40668000204601F0ECFD274680373868002802D00BF0E6FA3D600020B0702079072802D12046FFF701FD0221204600F0E9FE20790428E3D1207A694608703420FEF7BEFC92
:4066C000F8BD00002415002010B54C22115400F04CF810BD10B50446FF21FFF701F909202071A07801F07CFC10BD000038B5FF216A461180002801D0002400E0084C002C01
:406700000DD011460620FDF741FD684601882046FFF72FFD03480068C1692046884738BD24150020780D002010B504468079002809D022214C200155FF212046FFF7D0F8B7
:40674000204600F012F810BD10B5037902464032002B03D01173092B02D003E0002100E02221117300F001F810BDFEB504460089002700902781207926464036002817D099
:40678000012815D002280AD112E002AA01A9204601F036FD002807D101980BF057FA204601F056FD0028F0D02046FEF7CFFCB776254680352868002802D00BF051FA2F60AB
:4067C0006868002802D00BF04BFA6F60317B002919D0009800F064F8A078002100F07EFF2046FFF79BFAA07801F072F8A07800F02FFDFF212046FFF773F80B20FFF734F8AC
:4068000000F068FCFEBD1F213173E2E7F8B517460E46054602F0E4FB04003CD020460C3001F010F82046062200211830FBF7BCFC2046062200211230FBF7B6FC164822467B
:4068400000683946436A28469847074626702846FEF72CFD012148406070002D10D02889608028464030C1782171002E0FD169796171018AE180418A2181808A608106E01B
:406880000648008BC005C00F2071002060803946204603F00CF8F8BD5C0D002000102E400A4610B50146002003F01EF910BD10B50AF0DEFE10BD000000B50146FFF708FA93
:4068C000002801D0002000E00348002802D002898A4200D0002000BD2415002038B5044680346068002806D168460BF05BF9002801D100986060606838BD000010B5014633
:4069000000F086FB0128887802D0FEF7D9FC10BD90214843024940186030007F10BD00000415002070B5054604464035A87F012811D1A1789020084A484380186030067FAC
:406940003046FEF78BFE002805D10220A877A078314601F067F870BD0415002010B50C4CA07A002813D0FEF725FF0A48027F417F408B00F0B7FB012809D10020A07200F01F
:40698000FFFE05498989090B01D000F03BFA10BDD015002004150020A0102E4070477047490510B5490F0B00FCF78EFD060704080C0C0F073E21FFF787FE10BD0821FFF7D8
:4069C000C3FE10BDFFF7D1FE10BDFFF7ADFE10BDF8B507460025002D01D0002600E0204E00F092FE3046403044890021418100F095FE304600F001FB01282BD1A00702D5DA
:406A00002846FFF717FEE00602D52846FFF76EFEA00601D5FEF7CEFE600601D500F014FB200602D5284600F01DF8600702D5284600F02CFA380402D52846FFF719FB78049F
:406A400002D52846FFF706FBE00703D021463046FFF7A6FF6D1C2D062D0EBCD0F8BD000024150020F8B5002801D0002400E0284C002C4BD025464035A878012846D1FF274C
:406A80008820493700593E46002805D02149897A890601D5878AC68A2046FEF707FC012834D002F0A1FA2A8A6179FFF741F9009001F01CF800983346283081B23A462046B4
:406AC00001F0F6FFE98AA07801F0DAF912480188688A124E002810D048431149FBF714FB0004000C01D0401C80B27080A07DC107C90F002001F0A0FA01E000207080288AD4
:406B0000698A484381B2A07801F03AFAF8BD000024150020BC14002060112E40360D0020710200000149096809680847780D002070B50D460026194A0146002801D000242F
:406B400001E014462034002C26D0204600F060FA01280AD19020484380186030007FFEF77DFD002801D101F09DFE0D48006881692046884700280CD020464030817EA94239
:406B800002D3491B817600E086762089294602F04CFF204600F05AFC70BD000004150020780D002070B503460088FFF785FE040013D000F022FA00280FD02079092819D0A1
:406BC0002546997840352973204601F0EBFE0646A878012803D0AA8A02E0022070BDEA880A20424301212046FEF76FFE002E01D109202071002070BD0EB5002217216B461B
:406C00000292198100905A810120029B00990BF0C7F80EBDF8B518480024807A002822D1164E0025B089000B22E0204600F02AFE1249A039401807882A462146384600F0EC
:406C400051FA012810D00E480122478305770A4944778A72002D01D0002000E02030002801D000F0F3FBF8BDB089000B641CE4B20028DAD1F8BD0000D0150020A0102E4018
:406C80000415002010B50088FFF716FE002809D0014640310C460978082905D00B2903D00C2010BD022010BDFFF71CFC002801D009202070002010BD70B503460088FFF72A
:406CC000FBFD040008D0254640352878082805D00B2803D00C2070BD022070BD8420005910220830991CFBF756FA2046FFF7CCFA2878082804D02046FFF77EFC002801D09A
:406D00000A202870204600F0A1FB002070BD000010B50C46002121700088FFF7CDFD03000BD000F06AF9002807D00948F121807A0840C00603D4112010BD022010BD0220C0
:406D400020701A8A1889002102F0EAFE002010BDBC140020F8B50F46002100910088FFF7ABFD040012D000F048F900280ED0E079410641D4617E02264A07002A08DB8907C5
:406D8000402500291ADA2843E07135E00220F8BD02F026F90021017021894180A1898180217E4170E189C1803E7005460178134802F090FB284602F057FE1DE0204600F023
:406DC0002DF9012806D068460AF0DCFE002803D00720F8BD2A20F8BDE07900992843E071204601F009FE607E0421304360760448C28A2046FEF769FD0020F8BD1D0400006F
:406E0000BC1400203EB500220F236C460292238100910190628169460EC900200AF0C0FF3EBD0000F8B50F46054600F08FFA040025D003202071254600264035EE76E6709F
:406E40002046FFF7A7F901F007F80920FEF70CFDA07800F02BFD0121204600F011FB2E706E70AE703A4600212046FFF7CFFC0649887B401C8873A078FFF754FEF8BD2846BD
:406E800001F0AEF8F8BD00000415002010B5002801D0002000E0094800280DD0014640310A464978022901D100215170807DC107C90F002001F0C0F810BD00002415002005
:406EC00070B503460D460088FFF7F6FC04000BD000F093F8002807D01248F121807A0840C00603D4112070BD022070BD20464030418A008A491C41430804C10C5888884279
:406F000001D2122070BD20822079072802D12046FFF7CAF8022028702089002102F028FE002070BDBC140020016A491C016204D1817E491C4906490E81767047C169491C9C
:406F4000C16104D1C17E491C4906490EC1767047F0B5074687B003A8009005A800260D460190002F01D0002400E01B4C002C05D06846FCF7FBF8002803D00BE0022007B008
:406F8000F0BD68460089C00704D1902200212046FBF70AF9114829460068826820469047050016D1A77066762746267140373E70204600F019F8204601F046F908482082D5
:406FC0000848BE77807AF121084000D001202075E682E8B2D3E7000024150020780D0020B80B0000BC140020002101628176C161C17620300177417770470079002805D044
:40700000012803D0022801D001207047002070474030807F002800D00120704740300078002807D0012805D0052803D00E2801D0012070470020704710B5807801F084F8A6
:40704000002800D0012010BD10B500F099FB03498989090B01D0FFF7D5FE10BDA0102E4070B5054604464035A87F002825D1FF206075A0789021154A484380186030417FE7
:407080009023491CC9B24177A0785843104B8018DB896030994201D300214177A0789021484380186030467F0677A1783046FEF7D5FA002802D00120A87770BD0220A877AA
:4070C000A078314600F0AEFC70BD000004150020EC1500200020401C0006000EFBD0002070470000F0B515468207920F85B0000A02926A469080002D01D0002400E0524C51
:40710000002C28D0084600F0BDFB07466846808800280BD00298012843D0022841D003280BD03D20005D012870D087E04748381801882046FFF71DF880E00020029002A8F9
:407140000AF000FD002807D03D20005D012878D12046FFF7E9FE74E06846029E8388324600213846FCF724FF3848381801882046FEF7FFFF284600F0A1FA01AA214630469D
:40718000FEF7ECFD002806D030460AF04BFD3D204C21085528E0F5773146204601F0BAF94FE0002000902089039068460AF0BAFC002802D0002005B0F0BD6846009E8388D3
:4071C000321D00213846FCF7F3FE2048381801882046FEF7CEFF284600F070FA25464035287E00280CD103E02046FFF773FA28E001AA21463046029BFEF7E8FD002806D050
:4072000030460AF005FD3D202873EDE713E00298FEF7BEFF01460398307003980901000A0843707068468088B070000AF0703046FFF7E2FC05E02046FFF776FE284600F0D8
