:400000000040002011000000C50D0000C50D000080B500AF00F00AFF80B500AF244B12221A6002F0A3F8234B181C02F071FA012002F0ACF8302001F0EBFE1F4B1F4A1A6013
:400040001F4B8022D2051A601E4B1E4A126802210A431A601C4B1D4A1A601D4B00221A601C4B1C4A126808218A431A60FA23DB00181C01F019FF184B181C01F08DFF174B40
:40008000C82252011A60164B164A1A60164B802212061A60154B8022D2021A60144B40221A60074B8022D2051A60BD4680BDC04630001040001BB70004010B40060000807B
:4000C0000C020B4078002E407C002E406A2D000064F02E406CF02E40DC050000000301400000014040FF008008010B4000010B400401014080B582B000AF72B6424B0022BC
:400100001A60FB1D00221A7023E0FB1D1A78131C5B009B185B003D4A9B183B603B681A78597809020A43997809040A43DB781B061343191C3B681A795B791B0213439BB2D5
:40014000081C191C00F0F6FEFB1D1A78FB1D01321A70FB1D1B78012BD7D92D4BEE2212061A602C4B992212041A602B4B992212041A602A4B992212041A60294B992212049A
:400180001A60284B992212041A60274A264B1B78DBB202210B43DBB21370244A234B1B78DBB23C218B43DBB214210B43DBB213701D4A1D4B1B78DBB216210B43DBB21370B9
:4001C0001B4BD82212041A601A4B20221A601A4BC42292021A60194B20221A60184B80221A60184BB022D2031A60174B802212021A60164BC02252031A60FFF70DFF00F0DC
:40020000A9FEBD4602B080BD6CF02E400C550100000002400001024000500F4010500F4020500F4030500F4000700F4001700F4008000440000104400801044018010440DE
:4002400000020440080204400C0204400803044010B5064C2378002B07D1054B002B02D0044800E000BF0123237010BD9810002000000000D84E010008B5084B002B03D0DB
:400280000748084900E000BF07480368002B00D108BD064B002BFBD09847F9E700000000D84E01009C100020A80B00200000000080B582B000AF786039607A683B68101C80
:4002C000191C00F0FFFB7B68272B0AD0282B02D0012B00D009E0064B00221A7000F0FAFA03E0012001F088FCC046BD4602B080BDBA10002080B500AF02F0AAF8021C802351
:40030000DB00134019D00E4B1B78032B0BD10D4B1B7801225340DAB20A4B1A70094B1B78181C01F069FC084B1B685A1C064B1A608023DB00181C02F099F8BD4680BDC046A1
:40034000E4210020AC0B0020B410002080B500AF01F066FF0E4B181C01F002FD0120012101F09CFF0120012101F0C4FF094B0120191C02F025F8012002F0B0F880235B00AE
:40038000181C01F0EDFF01F021FFBD4680BDC046F5020000FF7F0000B0B584B002AF62B601F056FB2E4B181C02F008FD012001F049FC012001F020FC2A4B181C00F00AFFF1
:4003C000031C1A1C284B1A80274B1B88002B07D0254B1B881A1C254B181C111C02F072FC3B1C181C03F03AFC031C1A1C1E4B1A801D4B1B88002B08D01B4B1B881A1C1C4B4A
:40040000181C111C02F05EFC12E03B1C1B88191C3B1C5B881D1C3B1C9B881C1C3B1CDB881A1C144B0092181C2A1C231C02F04AFC00F06EF8FFF78AFF0F4B1B78022B0CD12B
:400440000E4B1B68002B08D00C4B00221A600C4B1B78012B01D100F0CBF903F00CFCEBE7DC4E0100B1020000BC210020044F0100244F0100544F0100E4210020B4100020F1
:40048000BA10002080B582B000AF786039607B68AA22FF32934208D0D522520093420CD0D4225200934210D01CE0134B01221A70124B181C02F082FC1BE00F4B00221A703E
:4004C0000F4B181C02F07AFC13E00E4B00221A800C4B1B88181C00F047F80B4B181C02F06DFC06E0094A7B68101C191C02F0EAFBC046BD4602B080BDBA100020744F0100C2
:40050000A84F0100B8100020DC4F0100F44F010080B582B000AF124B181C00F033FD114B00221A700F4B00225A800E4B00229A80BB1D00221A800BE0BB1D1B88094A5B0009
:40054000D3180022DA80BB1D1A88BB1D01321A80BB1D1B88082BEFD9BD4602B080BDC04685040000C421002080B582B000AF021CBB1D1A80064BBA1D12889A80044B1B7895
:4005800008221343DAB2024B1A70BD4602B080BDC421002080B582B000AF021CBB1D1A80144B1B7810221343DAB2124B1A70124B1B78082B03D1104B00221A7005E00E4B92
:4005C0001B780133DAB20C4B1A700C4B1B78092B05D80A4B1B780133DAB2084B1A70064B1B7804495B00BA1DCB181288DA80BD4602B080BDC4210020C0210020C121002013
:40060000B0B586B000AF734B1B7801229343DAB23B1C1A706F4B5B88FF2B13D93B1C1B7801221343DAB23B1C1A706A4B5A883B1C0133181C111C00F011FF1723FB18032241
:400640001A7008E0634B5B88DAB23B1C5A701723FB1802221A705F4B1B781A1C0823134018D05C4B1B7808229343DAB2594B1A701723FB181B783A1CD218564B9B88101CF2
:40068000191C00F0EBFE1723FB181722BA18127802321A704F4B1B781A1C1023134067D01723FB181B781422D31ADBB201229343D9B21523FB181722BA1812788A181A704C
:4006C0001623FB18444A12781A7046E01623FB181A781623FB1801321A701623FB181B78082B03D91623FB1800221A701623FB181B78384A5B00D318DB88002B1ED01723BC
:40070000FB181B783A1CD1181623FB181B78314A5B00D318DB88081C191C00F09FFE1623FB181B782B4A5B00D3180022DA801723FB181722BA18127802321A70264B1B7831
:400740001622BA1812789A4207D1224B1B7810229343DAB21F4B1A7007E01723FA181523FB1812781B789A42B0D31C4B00221A701B4B1722BA1815783C1C1A785B781B02C4
:400780001A4300231204120C1B0C1B041343181C00212A1C231C00F001FC031C1A1C114B1A80104B1B88002B08D00E4B1B881A1C0D4B181C111C02F085FA07E0054B5B8860
:4007C0001A1C0A4B181C111C02F07CFABD4606B0B0BDC046C4210020C0210020C1210020EC210020BC2100206C5001009450010090B583B000AF304B1B880C339AB22E4B5C
:400800001A802D4B1A8896235B009A4202D92A4B3C221A80284B1A88284B5A80264B1B88BC1D2748191C02F07FF8031C2380BB1D1A88FA239800111C02F006F9031C1A1C0C
:400840007B1D1A7012E01F4B1B78082B04D8BB1D1B88181CFFF79EFEBB1D1A88BB1D01321A807B1D1A787B1D013A1A707B1D1B78002BE8D1144B1B685A1E134B1A60124BD3
:400880001B68002B12D1104B0A221A600F4B1B88181CFFF769FE0D4B1B880D4A934205D80A4B1B8814339AB2084B1A80FFF7A8FEBD4603B090BDC046B00B0020C421002017
:4008C00060EA0000C1210020B40B0020B8100020EAFF000080B584B000AF002000F010FD031C1A1C1D4B1A801C4B1B88002B08D01A4B1B881A1C1A4B181C111C02F0E2F992
:4009000028E0184B181C02F0DDF93B1D181C03F0A1F90E23FB1806221A8012E00E23FB181B88013B3A1DD35C1A1C0F4B181C111C02F0C8F90E23FB181A880E23FB18013A8D
:400940001A800E23FB181B88002BE7D1074B181C02F034FABD4604B080BDC046BC210020D8500100FC5001001C5101002451010080B584B000AF786039607B68432B00D171
:4009800065E002D8262B05D06BE04C2B32D0542B62D066E0344B1B781A1C344B181C111C02F090F9304B1B78042B22D1304B181C02F004FA012001F01FF9002001F042F94F
:4009C000C04601F077F8011C2A4B1A6880231B02134001D0012300E00023CB18002BF0D101F0F2F801F0B2F901F052F901F03EFB37E036E03B689B891A1C1F4B181C111CD1
:400A000002F060F90E23FB1800221A8013E03B685A680E23FB181B88D3181B781A1C174B181C111C02F04EF90E23FB181A880E23FB1801321A803B681B890E22BA181288A2
:400A40009A42E4D30E4B181C02F0B8F909E00D4B181C02F0B3F904E00B4B181C02F0AEF9C046BD4604B080BDE42100202851010060510100080224406C5101008851010048
:400A80002451010090510100AC51010080B586B000AFF860B9607A6000237B6109E0BB685A1CBA601B78181C00F0EEFF7B6901337B617A697B689A42F1DB7B68181CBD46C0
:400AC00006B080BDB0B584B002AF786039607B68252B00D16BE019D8052B3DD00AD8022B3FD002D8012B32D020E1032B42D0042B45D01BE1222B4CD002D8212B44D015E18B
:400B0000232B4BD0242B00D197E00FE1402B00D1B0E00ED8282B00D186E003D8272B00D174E003E1292B00D19BE02A2B00D176E0FCE0422B00D1EFE000D2E2E0702B00D14E
:400B4000EFE0E0221202934200D1F7E0EEE07D4B181C02F033F9F2E07B4B181C02F02EF9EDE03B681B781A1C784B181C111C02F0A9F8E4E0764B181C02F020F9DFE0754B13
:400B8000181C02F01BF9DAE0734B181C02F016F9D5E0724B181C02F011F9D0E03B685B681A1C6F4B181C111C02F08CF8C7E06D4B181C02F087F83B681B78062B0DD002DCA9
:400BC000042B05D018E0082B0CD0152B0FD013E0654B181C02F0F2F817E0644B181C02F0EDF812E0624B181C02F0E8F80DE0614B181C02F0E3F808E03B681B781A1C5E4B2B
:400C0000181C111C02F05EF8C04698E05B4B1B781A1C5B4B181C111C02F054F88FE0594B181C02F0CBF88AE03B681B781A1C564B181C111C02F046F881E03B681B78191C09
:400C40003B685B781D1C3B689B781C1C3B68DB781A1C4E4B0092181C2A1C231C02F032F86DE03B681B781A1C494B181C111C02F029F864E0474B181C02F024F83B689B781C
:400C8000082B08D0102B0BD0042B0ED1424B181C02F018F812E0414B181C02F013F80DE03F4B181C02F00EF808E03B689B781A1C3C4B181C111C02F005F8C0463B689B8879
:400CC0001A1C394B181C111C01F0FCFF374B181C01F0F8FF3B689B790A2B04D1344B181C01F0F0FF08E03B689B791A1C2D4B181C111C01F0E7FFC0462E4B181C02F05EF87B
:400D00001DE03B685B78191C3B681B781A1C2A4B181C01F0D7FF12E0284B181C02F04EF80DE0274B181C02F049F808E07A683B68101C191CFFF71CFEC04600E0C046BD46CB
:400D400002B0B0BDCC510100DC510100F4510100085201002052010034520100485201006852010090520100B0520100CC520100F0520100045301001C530100EC210020DA
:400D80002853010048530100705301009C530100E85301000854010028540100385401004C54010060540100645401007854010084540100985401009C540100CC54010010
:400DC000E854010080B500AF01F030FF031C1B680C2B00D1FEE7FEE780B584B000AF7860104B1A687B68D3181A1C0F4BD21A8023DB009A4209DC0B4B1B68FB60094B1A68DE
:400E00007B68D218074B1A6007E001F00FFF031C0C221A6001235B42FB60FB68181CBD4604B080BDB80B0020F821002080B586B000AF224B7B61224B3B61204B7B6135E0E1
:400E40003B691B68FB603B695B68BB603B699B683B6000237B600CE0FB681A68BB681A60BB680433BB60FB680433FB607B6804337B607A683B689A42EED13B69DB683B60BF
:400E800000237B6008E0BB6800221A60BB680433BB607B6804337B607A683B689A42F2D13B6910333B617B69013B7B617B69002BC6D101F0C1FEFFF76FFAFEE701000000E5
:400EC000FC5A010080B582B000AF154B144A126801218A431A6000237B600FE07B68032B04D8104B7A689200D35800E00E4B0F4A796889008B507B6801337B607B682F2B0A
:400F0000ECD9FFF7F7F80A4B00221A60044B044A126801210A431A60BD4602B080BDC0460000104000000000C50D000000000020C000002080B582B000AF786039607A6893
:400F40003B68101C00211A1C01F0B4FEBD4602B080BDC04680B500AF054B03221A60054B03221A60044B00221A60BD4680BDC0463000304030003140000E3F4080B500AF0B
:400F8000BD4680BD80B582B000AF7860024B7A681A60BD4602B080BDBC10002090B589B000AF0C243C192080081C111C7B600B23FB18021C1A700A23FB180A1C1A702D4BAD
:400FC0001B78022B05D01E23FB180422FF321A8048E00B23FB181B78022B04D91E23FB1801221A803EE00F23002B14D00F235A1E2149131C9B009B189B00CB1808339B6854
:401000005B68181C00F016FA031C1A1C012313409BB2002B05D11E23FB18802252001A8020E00B23FB181B78144A5B00D3185A881023FB181A811023FB187A681A600A23B3
:40104000FB181B789AB21023FB189A801E23FC180C23FB181022BA181868111C0EF096F9031C23801E23FB181B88181CBD4609B090BDC046E4210020405501001855010024
:4010800090B587B000AF786000237B611323FB1800221A700823FB187A6812881A800823FB1800225A607B689B890F2293421FD10823FB1800229A707B685B68181C00F09A
:4010C000B9F9031C1A1C012313409BB2002B03D0AA23FF337B6102E0D5235B007B612B4B1B78DBB201229343DAB2284B1A701DE07B689B891322934218D10823FB180222CA
:401100009A707B685B681B78012B03D1D4235B007B6103E01323FB1880221A701B4B1B78DBB201229343DAB2184B1A707B69002B24D07B681A1D7B6813217C18101C0021D9
:401140001A1C40230EF08CFF031C23701323FB181B78002B12D10E4B1B68002B08D00C4B1B6879690822BA18081C111C984705E0084B1B687A684C20111C98471323FB188C
:401180001B78181CBD4607B090BDC046EF210020BC100020DC21002080B500AF064B00221A70064B00221A70054B00221A7000F009F8BD4680BDC046EF210020E8210020B8
:4011C000EE21002080B500AF00F026FCFFF7D6FEBD4680BDB0B594B004AF78603E23FB1800221A802823FA183E4B111C1A1C1423081C111C1A1C01F054FD3B4B1B78002BCF
:4012000004D1FFF7C9FF384B01221A707B68002B5CD0364B7A681A603E23FB181B88002B29D11023FB181C22BA185A601023FB182022BA181A601023FB1800221A8120236E
:40124000FB181B221A802023FB181B225A802023FB1804221A711C23FB1800221A703E23FC181023FA180E23FB18101C191C02F0DFFD031C23803E23FB181B88002B29D1E7
:401280003E23FC181A481B49AE231A012823FD180523009300230193002302932B1C02F01DFD031C23803E23FB181B88002B11D1114B01221A703E23FC18104B181C2621F0
:4012C00011220EF0B5FE031C238003E03E23FB1801221A803E23FB181B88181CBD4610B0B0BDC04624550100C0100020DC21002089160000C8000020E421002040550100EA
:4013000090B585B000AF021CFB1D1A70FB1D1B78022B04D90E23FB1801221A804BE0294B1B78042B42D1284B1B78DBB21A1C042313403BD1FB1D1B78002B0BD1234B1E22EB
:401340001A82224B5B6820221A80204B5B6830225A8010E0FB1D1B78012B0CD11B4B96221A821A4B5B68C822D2001A80174B5B68FA2212015A80164BFA1D12781A700E23A4
:40138000FC18124B181C0CF077FE031C23800E23FB181B88002B08D10B4B1B78DBB204221343DAB2084B1A7005E004E00E23FB180422FF321A800E23FB181B88181CBD46F3
:4013C00005B090BDE4210020EF2100200C0C0020EE21002080B584B000AF78600A1CFB1C1A700023BB60BB68002B20D07B689A79BB681A700F23FB1800221A7012E00F2344
:40140000FB181B780133BA68D3180F22BA18127879688A5C1A700F23FB181A780F23FB1801321A700F23FB181B78052BE7D9BD4604B080BD80B582B000AF78607B681B78EE
:401440009AB27B6801331B789BB21B029BB213439BB2181CBD4602B080BDC04680B582B000AF78600A1CBB1C1A80BB1C1B88DAB27B681A707B680133BA1C1288120A92B211
:40148000D2B21A70BD4602B080BDC04690B585B000AF78600F23FB1800221A707B689B890B22934237D17B681A1D7B680F217C18101C00211A1C40230EF0D2FD031C2370FD
:4014C0000F23FB181B78002B1DD17B685B68181CFFF7B0FF031C1A1C022313409BB2002B08D0104B1B68822251007A68081C111C984708E00B4B1B680622FF32111C7A6851
:40150000081C111C9847084B1B78DBB201229343DAB2054B1A700F23FB181B78181CBD4605B090BDDC210020EF21002090B585B000AF78600F23FC187B68181CFFF7A6FF52
:40154000031C23701E4B1B78DBB21A1C012313400CD00F23FB181B78002B07D10F23FC187B68181CFFF78CFD031C2370144B1B78DBB21A1C012313401FD10F23FB181B784A
:40158000002B16D00823FB1812229A707B689A890823FB181A800823FB180F22BA181278DA707B680822BA181868111C0DF0B0FE03E07B6818680DF03FFFBD4605B090BDEE
:4015C000EF21002080B582B000AF7860BD4602B080BDC04680B500AF034B00225A70024B00221A70BD4680BDEC21002080B582B000AF7860BD4602B080BDC04680B500AF87
:40160000BD4680BD80B584B000AF78600E23FB1800221A707B689B79002B1CD10F23FB1800221A7012E00F23FB181B787A68D35C002B04D00E23FB1801221A700BE00F23A2
:40164000FB181A780F23FB1801321A700F23FB181B78052BE7D90E23FB181B78181CBD4604B080BD80B582B000AF021CBB1D1A80BD4602B080BDC04680B582B000AF786070
:40168000BD4602B080BDC04680B588B000AF021C3960FB1D1A70D04B1B78DBB201221343DAB2CD4B1A70FB1D1B78712B00D978E19A00CA4BD3181B689F461023FB180722F1
:4016C0001A701023FB1800225A701023FB18181C04F0B2FA1023FB1807221A701023FB1801225A701023FB18181C04F0A5FA0023002B01D002F0A6FAB94B1B68181CFFF779
:4017000081FF031E11D0B64B1B68181C02F0B8FAB34B1B68181C0021FFF75CFEB04B1B68181C0121FFF756FE36E0AE4B1B781A1C3F231A40AC4B1B78191C3F230B409B01EB
:401740001A43AA4B1B78191C1F230B401B031A43A74B1B78191C7F230B405B041343BB61BB69DAB2A34B1A70BB691B0ADAB2A14B5A70BB691B0CDAB29E4B9A709D4B181C36
:4017800002F07EFA9B4B181C0021FFF723FE994B181C0121FFF71EFE03200CF001FB0C23FB183F221A700C23FB1800225A700C23FB18181C0CF012FB8F4B04221A70F1E0D1
:4017C0003B68181CFFF712FFECE03B681A788B4B1A70E7E03B687B617B691B78002B18D17B695B78002B0BD1854B0022DA80844B00229A80824B834A1A607B69804A5A6048
:40180000754B1B78DBB201229343DAB2724B1A70C8E0C7E0704B1B78DBB21A1C2023134027D1794B1B78102B02D1774B0522DA70764B1A78744B101C191C0CF0DBFB031C12
:401840001A1C0A23FB181A800A23FB181B88002B06D06F4B1B680A22BA183620111C98475D4B1B78DBB201221343DAB25A4B1A7098E097E03B68181CFFF7FEFE92E03B680E
:40188000181CFFF7F9FE5C4B02221A708AE05A4B04221A7086E0584B1B78022B40D04E4B1B78DBB21A1C0123134039D04A4B1B78DBB21A1C042313400BD04F4B03221A7022
:4018C000454B1B78DBB204229343DAB2424B1A7026E0414B1B78DBB21A1C082313400BD0454B04221A703C4B1B78DBB208229343DAB2394B1A7013E03F4B1B78032B0FD1B9
:401900003D4B04221A70434B1B78002B08D10120FFF7F6FC031E03D1374B03221A7041E040E03B681B88181CFFF79CFE3AE0374A3B68111C1A1C0223081C111C1A1C01F092
:40194000B0F92E4B00221A70FFF758FE2AE0FFF741FE27E03B685B88162B05D81E23FB183A6852881A8003E01E23FB1817221A803B681E22BA1811881A8800231204120CA8
:401980001B0C1B041343181C0DF0CCFC0AE03B68181CFFF7CBFD05E03B68181CFFF712FE00E0C0460C4B1B78DBB21A1C112313400FD0094B1B78DBB201229343DAB2064B0E
:4019C0001A70134B1B68FA1D11783A68081C111C9847BD4608B080BDEF21002044580100280C00207CF1FF0F7DF1FF0F7BF1FF0F78F1FF0F200C0020E4210020E82100206F
:401A0000C4100020A80B0020F40C0020EC210020DC210020EE21002080B500AFBD4680BD80B500AF00F056F8BD4680BD80B500AF064B064A1268802109060A431A6000F05A
:401A400019F800F01BF8BD4680BDC0460000244080B500AF064B1B78002B04D1FFF7E0FF034B01221A70FFF7E1FFBD4680BDC046CC10002080B500AFBD4680BD80B500AFF0
:401A800000F088F8BD4680BD80B582B000AF7860C046064B1B681F221340082BF9D0044B7A681A60BD4602B080BDC046080224404002244080B582B000AF054B1B681F223D
:401AC00013407B607B68181CBD4602B080BDC0460802244080B500AF1B4B1C4A1A601C4B00221A601B4B01221A601B4B1B4A1A601B4B07221A601B4B00221A601A4B012233
:401B00001A601A4B154A1A60194B00221A60194B04221A60184B00221A60184B00221A60174B00221A60174B00221A60164B00221A60164B00221A60144B1B689AB2144B68
:401B40001A80BD4680BDC046000024400F00000240002440480024400003244007000080040324401003244044002440000224400402244050002440880E2440C80E244090
:401B8000480F2440080F2440C80F2440880F2440CE10002080B500AF074B074A126807490A40902109040A431A60054B054A12881A60BD4680BDC04600010240FFFF0FFF53
:401BC000880F2440CE10002080B582B000AF094B1B68DAB2FB1D7F218A431A70054BFA1D12781A60FB1D1B78DB09DBB2181CBD4602B080BD1002044080B584B000AF021C2B
:401C0000FB1D1A700E4B1B68DAB20F23FB1840218A431A70FB1D1B789B01DBB240221340D9B20F23FB180F22BA1812780A431A70034B0F22BA1812781A60BD4604B080BD97
:401C40000003044080B584B000AF021CFB1D1A700E4B1B68DAB20F23FB1840218A431A70FB1D1B789B01DBB240221340D9B20F23FB180F22BA1812780A431A70034B0F22A4
:401C8000BA1812781A60BD4604B080BD0002044080B500AF00F050F8054B181C00F00EF8032000F017F800F03DF8BD4680BDC046B51C000080B500AFBD4680BD80B582B095
:401CC00000AF7860024B7A689A64BD4602B080BD0000002090B585B000AF021CFB1D1A701623FB600B23FC1800F01BFC031C23700A4B0A4A12680A491140FA1D1078FA68DE
:401D00009040021C0A431A600B23FB181B78181C00F00BFCBD4605B090BDC04600E400E0FFFF3FFF80B500AF024B04221A60BD4680BDC04600E100E080B500AF024B0422B5
:401D40001A60BD4680BDC04680E100E080B500AF024B04221A60BD4680BDC04680E200E080B582B000AF786000F048F87B68181C00F008F8032000F011F800F035F8BD46A8
:401D800002B080BD80B582B000AF7860024B7A681A66BD4602B080BD0000002090B585B000AF021CFB1D1A700623FB600B23FC1800F0B7FB031C23700A4B0A4A1268C0217E
:401DC0008A43111CFA1D1078FA689040021C0A431A600B23FB181B78181C00F0A6FBBD4605B090BD08E400E080B500AF024B802252001A60BD4680BD00E100E080B500AF45
:401E0000024B802252001A60BD4680BD80E100E090B58BB000AF78602723FC1800F081FB031C2370184B1A680C23FB181A60174B1A680C23FB185A607B68033B144AD35CB4
:401E40001A1C0C23FB189A60124B1A680C23FB18DA601C23FB18104A1A600C23FA181C23FB185A600D4B1C22BA181A600C4B0D4A1A600A4B1B682723FB181B78181C00F02C
:401E800054FBBD460BB090BD08010B4000010B400C5A010030001040B6EA000008001040040010401700008080B584B000AF78600023FB60154B154A126801210A431A60CE
:401EC000134B144A1A60144B134A1268802109020A431A607B68002B12D01023FB600CE0012000F059F800F019F8031E02D00023FB6005E07B68013B7B607B68002BEFD118
:401F0000FB68181CBD4604B080BDC04660F02E4078002E400220000010002E4080B582B000AF054B1B68012213407B607B68181CBD4602B080BDC0460C002E4080B582B0A2
:401F400000AF021CFB1D1A7001BEBD4602B080BD80B582B000AF786009E00C4B1B68181C00F0D6FA7B680A4A944663447B607A6880231B029A42F0D8064B1B687A68534377
:401F8000181C00F0C5FABD4602B080BD080D00200080FFFF000D002080B582B000AF021CBB1D1A80BB1D1B88044A12785343181C00F0AEFABD4602B080BDC046040D0020E8
:401FC00080B500AF154B154A1268920092081A60134B134A1268920092081A60114B114A1268920092081A600F4B0F4A1268920092081A600D4B0D4A1268920092081A60CA
:402000000B4B0B4A1268920092081A60094B094A1268920092081A60BD4680BD0800044008010440080204400803044008040440080504400806044090B583B000AFFC1D65
:4020400000F06FFA031C2370074B074A126804218A431A6030BFFB1D1B78181C00F065FABD4603B090BDC04610ED00E090B583B000AFFC1D00F055FA031C2370FFF7A0FF03
:40208000114B114A1268802109060A431A600F4B0F4A128892B21A600E4B0E4A126804210A431A600C4B0C4A1268FF218A43F1210A431A6030BFFB1D1B78181C00F035FA7C
:4020C000BD4603B090BDC04600000B400C000B4050F1FF0F10ED00E02C000B4080B500AF0E4B0E4A126801218A431A600B4B0B4A126802218A431A60094B094A1268302119
:402100008A4310210A431A60054B054A126807218A4301210A431A60BD4680BD00F02E4000FF2E4080B500AF0E4B0E4A126802218A431A600C4B0C4A126807218A43022120
:402140000A431A60084B084A126830218A4320210A431A60034B034A126801210A431A60BD4680BD00F02E4000FF2E4080B500AFFFF7B4FF044B044A1268802109060A43A9
:402180001A60BD4680BDC04600F02E4080B584B000AF78600C4B1B6801221340FB607B68002B02D0012B03D005E0FFF797FF06E0FFF7B8FF03E00020FFF7C0FEC046FB6863
:4021C000181CBD4604B080BD00F02E4090B583B000AFFC1D00F0A5F9031C2370074B074A1268C02109020A431A60FB1D1B78181C00F09BF9BD4603B090BDC04600010B4051
:4022000080B500AF054B1A68C0231B02134001D0012300E00023181CBD4680BD00010B4090B583B000AFFC1D00F07BF9031C23700C4B0C4A12680C490A408021C9010A4309
:402240001A60084B074A126807490A40802109020A431A60FB1D1B78181C00F066F9BD4603B090BD00010B40FF3FFFFF80B582B000AF78607B68022B02D90020FFF75EFEB5
:40228000054B1B687A68D2000132D34001221340181CBD4602B080BD10020B4080B584B000AF786039607B68022B02D90020FFF745FE7B68181CFFF7D9FF031E15D10C4B48
:4022C0001B687A68D200111C03228A40D2431340FB603B68032213407A68D2009340FA681343FB60024BFA681A60BD4604B080BD0C020B4080B584B000AF786039607B6831
:40230000002B02D07B68012B01D1012300E00023002B02D10020FFF711FE7B68181CFFF7A5FF031E16D10D4B1B687A68D2000232111C01228A40D2431340FB607B68DB005E
:4023400002331A1C3B689340FA681343FB60034BFA681A60BD4604B080BDC0460C020B4080B582B000AF7860144B144A11687A680A431A607B680122134005D0C0460020CB
:40238000FFF774FF031EFAD07A6880235B00134005D0C0460120FFF769FF031EFAD07A6880235B02134005D0C0460220FFF75EFF031EFAD0BD4602B080BDC04610020B408C
:4023C00080B584B000AF786039607B68002B02D07B68012B01D1012300E00023002B02D10020FFF7ABFD174B1B689B0F9B0701D1C92300E05D23181CFFF7CEFD124B1B688C
:40240000FB607B681B011A1C104B9340DA43FB681340FB600C4B7A681201111C3A688A40111CFA680A431A60064B1B689B0F9B0701D1432300E01F23181CFFF7ADFDBD4624
:4024400004B080BD0C020B4008020B40FFFF000080B500AF034B1B68034A1340181CBD4680BDC04610020B400404040090B585B000AF78600B23FC1800F053F8031C237057
:40248000FFF7BEFE031E04D00123FB60FFF7C8FE01E00023FB607B680D4A13407B600D4B0C4A12680C4911407A680A431A60094B1B68FB68012B01D1FFF788FE0B23FB1807
:4024C0001B78181C00F031F8BD4605B090BDC0460404040010020B40FBFBFBFF80B582B000AF7860084B084A11687A68074802400A431A60C046044B1B68044A1340FAD10E
:40250000BD4602B080BDC04610020B40080808000230800803D00138FDD1C046C046C0467047EFF3108072B6704780F31088704780B582B000AF78600A1CBB1C1A80BB1C62
:402540001A887B681A60BD4602B080BD80B582B000AF78600A1CBB1C1A80BB1C1A887B681A60BD4602B080BD80B584B000AF494B1B78DBB21B02484A1278D2B21343FB60E3
:40258000464B1B78DBB21B02454A1278D2B21343BB60BB68434A934207D1FB68072B04D1414BBB600423FB6009E0BA68D4231B019A4204D1FB68042B01D13B4BBB603B4BF5
:4025C000BA681A603A4BFA681A603A4B1B78DBB21B02394A1278D2B21343FB60FA6880239B019A4202D0FB68002B01D1334BFB60334BFA681A60334B1B78DBB21B02324AC1
:402600001278D2B21343FB60FB68304A934206D0FB682F4A934202D0FB68052B01D12D4BFB602D4BFA681A602C4B1B681B097B602B4B1B68AA2B29D17B68012B26D9214B09
:402640001B78DBB20E2B21D1264B1B78DBB29BB21B0299B2244B1B78DBB29AB2BB1C0A431A80224BBA1C12881A60214B1B78DBB29BB21B0299B21F4B1B78DBB29AB23B1C6B
:402680000A431A801C4B3A1C12881A60BD4604B080BDC046D9F0FF0FD8F0FF0FDFF0FF0FDEF0FF0F580B0000580D00006C002E4074002E40DBF0FF0FDAF0FF0F02200000AB
:4026C00078002E40DDF0FF0FDCF0FF0F0F0F000005050000050F000080002E40EC0F00F0E00F00F06DF2FF0F6CF2FF0F84002E406FF2FF0F6EF2FF0F94002E4080B582B03A
:4027000000AF021CBB1D1A80BB1D1B88181CFFF743FCBD4602B080BD80B582B000AF78607B68181CFFF714FCBD4602B080BDC04680B500AF00F0DEF8BD4680BD80B500AFB3
:4027400000F0E2F8BD4680BD80B500AF00F0DCF8044B181C00F09CF8032000F0A5F8BD4680BDC0461D29000080B500AF024B181C00F07CF8BD4680BD1D29000080B500AF31
:402780000223FF33181CBD4680BDC04680B582B000AF78602B23181CBD4602B080BDC04680B582B000AF78602B23181CBD4602B080BDC04680B582B000AF78602B23181C08
:4027C000BD4602B080BDC04680B582B000AF78602B23181CBD4602B080BDC04680B582B000AF78602B23181CBD4602B080BDC04680B582B000AF78602B23181CBD4602B0EC
:4028000080BDC04680B582B000AF78602B23181CBD4602B080BDC04680B582B000AF78602B23181CBD4602B080BDC04680B500AF2B23181CBD4680BD80B582B000AF021CAB
:40284000FB1D1A702B23181CBD4602B080BDC04680B582B000AF786039602B23181CBD4602B080BD80B500AFBD4680BD80B582B000AF786000F048F87B68181C00F008F8F8
:40288000032000F011F800F035F8BD4602B080BD80B582B000AF7860024B7A681A67BD4602B080BD0000002090B585B000AF021CFB1D1A700623FB600B23FC18FFF731FE69
:4028C000031C23700A4B0A4A1268C0218A43111CFA1D1078FA689040021C0A431A600B23FB181B78181CFFF720FEBD4605B090BD0CE400E080B500AF024B802252011A60E1
:40290000BD4680BD00E100E080B500AF024B802252011A60BD4680BD80E100E080B500AF12F0C6FABD4680BD002243088B4274D303098B425FD3030A8B4244D3030B8B4237
:4029400028D3030C8B420DD3FF22090212BA030C8B4202D31212090265D0030B8B4219D300E0090AC30B8B4201D3CB03C01A5241830B8B4201D38B03C01A5241430B8B42EA
:4029800001D34B03C01A5241030B8B4201D30B03C01A5241C30A8B4201D3CB02C01A5241830A8B4201D38B02C01A5241430A8B4201D34B02C01A5241030A8B4201D30B022B
:4029C000C01A5241CDD2C3098B4201D3CB01C01A524183098B4201D38B01C01A524143098B4201D34B01C01A524103098B4201D30B01C01A5241C3088B4201D3CB00C01A22
:402A0000524183088B4201D38B00C01A524143088B4201D34B00C01A5241411A00D20146524110467047FFE701B5002000F0FCF802BDC0460029F7D003B5FFF775FF0EBCE6
:402A40004243891A1847C04603460B437FD4002243088B4274D303098B425FD3030A8B4244D3030B8B4228D3030C8B420DD3FF22090212BA030C8B4202D31212090265D0C3
:402A8000030B8B4219D300E0090AC30B8B4201D3CB03C01A5241830B8B4201D38B03C01A5241430B8B4201D34B03C01A5241030B8B4201D30B03C01A5241C30A8B4201D346
:402AC000CB02C01A5241830A8B4201D38B02C01A5241430A8B4201D34B02C01A5241030A8B4201D30B02C01A5241CDD2C3098B4201D3CB01C01A524183098B4201D38B01A6
:402B0000C01A524143098B4201D34B01C01A524103098B4201D30B01C01A5241C3088B4201D3CB00C01A524183088B4201D38B00C01A524143088B4201D34B00C01A5241F0
:402B4000411A00D201465241104670475DE0CA0F00D04942031000D34042534000229C4603098B422DD3030A8B4212D3FC22890112BA030A8B420CD3890192118B4208D337
:402B8000890192118B4204D389013AD0921100E08909C3098B4201D3CB01C01A524183098B4201D38B01C01A524143098B4201D34B01C01A524103098B4201D30B01C01A96
:402BC0005241C3088B4201D3CB00C01A524183088B4201D38B00C01A5241D9D243088B4201D34B00C01A5241411A00D20146634652415B10104601D34042002B00D54942D9
:402C0000704763465B1000D3404201B5002000F00BF802BD0029F8D003B5FFF715FF0EBC4243891A1847C0467047C046014B18687047C046941000200E4B70B500251E1CFB
:402C40000D4CE41AA410A54204D0AB00F35898470135F8E712F040FF084B00251E1C084CE41AA410A54204D0AB00F35898470135F8E770BDE45A0100E45A0100E45A01001C
:402C8000EC5A010030B50024944208D0035D651C0C5DA34201D0181B02E02C1CF4E7002030BD002310B5934203D0CC5CC4540133F9E710BD031C8218934202D01970013303
:402CC000FAE770470FB40B4B13B51C68002C05D0A369002B02D1201C00F03EFA05AB201CA168049A019300F0E7FB16BC08BC04B01847C0469410002070B5051C0E1C002864
:402D000004D08369002B01D100F026FAAC68A3891B0702D52369002B19D1281C211C00F0AFF8002813D00120404245E03178002B1BDAA269934211DA221C281C00F048F8BB
:402D4000013042424241D0B20028ECD10136A3683278013BA360002AE8D10CE023681970236819780A2903D1E6E723681970236801332360EAE7002B17DAA269934208DBB0
:402D80000A2322681370236819780A2911D1281C01E0281C0A21221C00F01AF8013042424241D0B2002806D0BDE70A23226813702368013323600A2070BD000008B5034B9A
:402DC000011C1868FFF798FF08BDC0469410002070B5051C0E1C141C002804D08369002B01D100F0B9F9234B9C4201D16C6808E0214B9C4201D1AC6803E0204B9C4200D1EC
:402E0000EC68A369A360A3891B070AD52369002B07D023682269F6B2981A636998420FDB08E0281C211C00F02BF80028F1D0012040421DE0281C211C00F020F90028F6D1F6
:402E4000A3680130013BA36023685A1C22601E706369984205D0A389301CDB0708D50A2E06D1281C211C00F009F90028DFD1301C70BDC046445A0100645A0100845A0100FE
:402E8000354B70B51D68061C0C1C002D05D0AB69002B02D1281C00F05FF9304B9C4201D16C6808E02E4B9C4201D1AC6803E02D4B9C4200D1EC68A3899AB2110723D4D1061E
:402EC00007D409220120326037321343A381404240E0530713D5616B002908D0231C4433994202D0301C00F021FA002363632422A3899343A3810023636023692360082257
:402F0000A3891343A3812369002B0BD1A023A2899B00134080229200934203D0301C211C00F0ACF90123A289134005D00023A36063695B42A36103E0910700D46369A3605A
:402F400000202369834205D1130603D540231A43A281013870BDC04694100020445A0100645A0100845A0100F7B58A89051C0C1C13075ED44B68002B02DC0B6C002B1ADD20
:402F8000E76A002F17D000232E682B6080235B011A4001D0626D15E0281C216A0123B847021C431C0ED12B68002B0BD01D2B01D0162B02D12E6000205EE04021A3890B439D
:402FC000A38159E0A3895B0706D56368D21A636B002B01D0236CD21A0023281C216AE76AB847A389421C06D12A68002A03D01D2A01D0162A19D10022626022692260DB04CB
:4030000005D5431C02D12B68002B00D16065616B2E600029CFD0231C4433994202D0281C00F084F90020606326E040221343A38122E00F69002FBED00B680F60DB1B019392
:403040000023920700D14B69A360019B002BB2DD281C216A3A1C019BA66AB047002806DC40220120A38940421343A38104E0019B3F181B1A0193E8E7FEBD000038B50B69AE
:40308000051C0C1C002B01D100201CE0002804D08369002B01D100F05FF80B4B9C4201D16C6808E0094B9C4201D1AC6803E0084B9C4200D1EC680C22A35E002BE4D0281C1D
:4030C000211CFFF751FF38BD445A0100645A0100845A010008B5024900F0AEF808BDC0467D300000002310B5041C03604360836081814366C281036143618361191C0822DB
:403100005C30FFF7D7FD054B24626362044BA362044BE362044B236310BDC046093A0000313A0000693A0000953A000070B568254B1E5D430E1C291C743100F03DF9041ED7
:4031400008D000212A1C016046600C30A0606832FFF7B0FD201C70BD836913B5002B28D18364C3640365134B134A1B6882620193984201D101238361041C00F01FF8606088
:40318000201C00F01BF8A060201C00F017F80421E06000226068FFF7A5FFA06809210122FFF7A0FFE06812210222FFF79BFF0123A36113BD405A0100D5300000F8B51D4BE6
:4031C000061C1D68AB69002B02D1281CFFF7C4FF4835AC686B68013B05D40C22A75E002F10D06834F7E72B68002B06D1301C0421FFF79CFF2860002801D02D68E9E70C2338
:40320000336016E00123201C5B42E3810233A38167662760A760676027616761A7615C30391C0822FFF746FD201C6763A763A764E764F8BD405A0100F7B5041C071C0026C2
:4032400001914834002C16D06368A5680093009B013B00930DD4AB89012B08D90E22AB5E013304D0381C291C019B984706436835EDE72468E6E7301CFEBD0000F0B58B890F
:4032800091B09B0706D50B1C47330B600B6101234B6145E00C1C0E23C95E061C002904DA8023A5891D4010D10CE001AA00F01EFC0028F5DBF023029D1B021D40194BED18FD
:4032C0006B425D418027FF0001E000254027301C391C00F071F800280CD1A3899A051FD402221343A381231C4733236023610123636115E080220C4BB362A3892060134368
:40330000A38120616761002D0AD00E23E15E301C00F0FEFB002803D00122A3891343A38111B0F0BD00E0FFFFD530000030B500293ED004390B68002B00DAC9181D4A1368CB
:40334000141C002B02D14B60116031E099420DD208680A189A4203D11368C3180B6053684B60216024E08A4203D8131C5A68002AF9D11D685C198C420BD1096869185818B8
:403380001960904214D110685268091819605A600EE08C4202D90C23036009E008680C18944203D114685268001908604A60596030BDC046B8210020032370B5CC1C9C43EF
:4033C0000834051C0C2C01D20C2405E0002C03DA0C2300202B6042E08C42F9D3204A1368101C191C002913D00A68121B0DD40B2A02D90A608B181FE08B4202D15A680260FF
:403400001BE04A685A600B1C17E00B1C4968E9E7144E3368002B03D1281C00F0E3FA3060281C211C00F0DEFA031C421CD0D00322C61C964386420AD11C60181C07210B30C6
:403440001A1D8843821A0AD05142995007E0311A281C00F0C7FA431CBAD0331CECE770BDB8210020B4210020936810B5013B9360002B05DA9469A34208DBCBB20A2B05D0C6
:403480001368581C10601970C8B201E0FFF7A0FC10BDF8B5061C0F1C141CD518AC4208D02178301C3A1CFFF7DFFF0134431CF5D100E00020F8BD0000F0B59FB0061C0F1C2E
:4034C00002920593002804D08369002B01D1FFF743FE794B9F4201D1776808E0774B9F4201D1B76803E0764B9F4200D1F768BB891B070AD53B69002B07D0002306AD6B6170
:4035000020336B761033AB763DE0301C391CFFF7B7FC0028F1D001204042CAE0059A111D12680591002A7EDB0992013423782E2B00D189E021786348032200F00FFB00286D
:4035400008D0604B0134C01A40238340181C2B68184328602178631C5B4806220293297600F0FCFA002800D191E0584B002B00D084E00722059B07339343083305936B6900
:40358000039A9B186B61029C2378002B04D1029BE31A049311D003E0252BF8D00134F3E7049B301C391C029AFFF773FF431C7BD06A69049B944663446B612378002B73D0E4
:4035C0000122002352426A6002A95432521801342B60EB60AB601370AB6521783C48052200F0BCFA002809D0394B0134C01A01238340181C2B6818432860EEE72B68DA068C
:4036000004D55322202102A8121811701A0704D553222B2102A81218117022782A2A00D17CE7099B05E05242EA60022213432B607BE72278303A092A04D80A214B430134A5
:403640009B18F6E7099371E763782A2B09D1059B02341A1D1B680592002B0DDA01235B420AE0002301342278303A092A04D80A214B4301349B18F6E707935BE705AB0093D0
:40368000301C291C3A1C134B00E000BF07E005AB0093301C291C3A1C0E4B00F08BF80390039B013300D06AE7BB895B0600D532E70B981FB0F0BDC046445A0100645A0100AD
:4036C000845A0100AA5A0100AE5A010000000000A45A010093340000F7B5171C01930A698B6800900C1C934200DA131C221C3B6043321278002A01D001333B6023689B06DA
:4037000002D53B6802333B60062523681D401ED0231C43331B785A1E9341226892061CD53020E1184031C870211C5A1C45310978A21840320233D1700FE0221C0123009870
:4037400001991932089EB047431C0ED00135E3683A689B1A9D42F0DBDAE7221C009801994332089DA847431C02D10120404220E006232068E1683A6803400025042B03D1F2
:403780008D1AEB43DB171D40A3682269934201DD9B1AED180027AF420ADA221C0123009801991A32089EB047431CDED00137F2E70020FEBDF0B58BB006920A1C43320793C3
:4037C000059004920A7E0C1C109B6E2A00D1A8E011D8632A22D009D8002A00D1B2E0582A00D0C2E045310A707C4A4FE0642A1DD0692A1BD0B9E0732A00D1A7E009D86F2AA2
:4038000029D0702A00D0B0E0202209680A43226037E0752A1FD0782A33D0A6E00E1C1A684236111D196013683370A1E021681A68080606D4490604D5111D19600023D55EC1
:4038400002E0111D19601568002D3BDA2D23049A6D42137036E021681A68080606D4490604D51568111D1960ADB202E0111D196015685A4B227E03930A276F2A1DD1082764
:403880001BE0221C782145321170554A19680392081D226818600D68100602D4500600D5ADB2D30702D520231A4322601027002D03D1202322689A432260231C0022433369
:4038C0001A7002E00A27454B03936368A360002B03DB0422216891432160002D02D1049E002B0ED0049E281C391CFFF7A3F8039B013E5B5C281C3370391CFFF715F8051EBD
:40390000F1D1082F09D12368DB0706D563682269934202DC3023013E3370049B9B1B23612BE009681A68080607D4490605D5111D19601368A28A1A8004E0111D1960136857
:4039400062691A600023049E236116E01A68111D196016680021301C626800F0FFF8002801D0801B6060636803E0261C42363270012323610023049A1370079B05980093E2
:40398000211C069B09AAFFF7A7FE431C02D10120404221E0236905980699321C079DA847431CF4D023689B0705D4099BE068984212DA181C10E00025E368099A9B1A9D42B6
:4039C000F3DA221C0123059806991932079EB047431CDCD00135EFE70BB0F0BDB55A0100C65A010038B50023064C051C081C2360FDF7F2F9431C03D12368002B00D02B6078
:403A000038BDC046F021002038B50C1C0E25495F00F0B0F8002803DB636D1B18636503E0A289024B1340A38138BDC046FFEFFFFFF8B51E1C8B89051C0C1C171CDB0505D517
:403A40000E23C95E0022022300F074F8A289054B281C1340A3813A1C0E23E15E331C00F01FF8F8BDFFEFFFFF38B50C1C0E25495F00F060F8A389421C03D1054A1340A381FC
:403A800004E0802252011343A381606538BDC046FFEFFFFF08B50E23C95E00F015F808BD38B5051C0020074C2060081C111C1A1CFCF7ECFF431C03D12368002B00D02B6086
:403AC00038BDC046F021002038B50023064C051C081C236000F062F8431C03D12368002B00D02B6038BDC046F021002038B50023064C051C081C111C236000F057F8431CC1
:403B000003D12368002B00D02B6038BDF021002038B50023064C051C081C236000F04EF8431C03D12368002B00D02B6038BDC046F021002038B5051C0020074C2060081C85
:403B4000111C1A1C00F042F8431C03D12368002B00D02B6038BDC046F0210020C9B28218904204D003788B4202D00130F8E700207047000038B5051C0020074C2060081C67
:403B8000111C1A1C00F02AF8431C03D12368002B00D02B6038BDC046F021002058220120014B40421A607047F021002058220120014B40421A607047F02100205822024BC3
:403BC00000201A607047C046F021002058220120014B40421A607047F021002058220120014B40421A607047F0210020134A1088810703D08107890F401A001D11791030F6
:403C0000484381B25088820703D08207920F801A001D800040180A494030098980B2CA0701D0503080B2890706D504495422091F09785143081880B270470000160D002047
:403C4000DC10002010B501F017FF10BD10B501F019FF10BD10B501F01DFF10BD0121002807D0FF213631C180032101804180002181800846704710B500F056FA10BD00001D
:403C800010B50749044609780220002907D1204601F048FF002802D120460AF091F910BDB40E002070B504460120002C12D02368002B0FD0616800290CD0074D06222889A1
:403CC000208118462968FEF7ECFF6968606809780170002070BD0000DC100020FFB585B0002768460E9D07734F481C460078002802D0082009B0F0BD10990F98019000951E
:403D0000029105A807C800F001F90028F2D16946264603AB84460873002C19D0002115E08A00B75A082F09D990198078002805D0083FB7521878401C187005E0002914D05E
:403D40000027B75290198770491CC9B2A942E7D360460028CED10F98002809D0109901F03BFA002804D00120C4E701208446EFE701F088FE2D4800214160816005990160F3
:403D800021888180022D07D3A1798171A17AC171A1890181218A418100211EE0481C19E082008B00A75AE65ABE46BE4211D26F463E80B4461E190296B678BE700196764642
:403DC000E6521719029EBB78B3706646A652019EBE70401CA842E3D3491CA942DED3134822460C3000906846037B0799069800F015F90028B8D168460B4C007B60700B48AC
:403E00000C3001F06FFE0028AED1084907480C3107F076F90028A7D107F090F90028A3D10121217066E70000100D0020D0100020F8B5054633480E460078002802D00224A6
:403E40002046F8BD002E5BD000242F49002D16D02A89D0070DD02868002808D003881B3BE12B04D24088FB2801D81B2801D2012409E0900707D56868002804D1F7E700203F
:403E8000088108604860002CDAD11F482F8907811C481B21801D018041800421017119490020891C0870F80705D016480622801D2968FEF7F6FE1449B80703D56A681148A6
:403EC000127882700F480D46801D0860001F486001F04EFE0B48801D01F03CFE28890DF0B3F928890DF01AFB03461033FFF77EFE1F21C018890140180249308088809FE7DA
:403F000001249DE7100D0020DC100020FFB58446384F1C460020BB883F78054602460646002F11D100290ED0029999420BD36146002908D0002C06D00A99002906D02E4BFE
:403F40000B99994202D2012004B0F0BD002144E0AB001F19BF78002F3BD0E35A002B38D07B43591889B22B0000F04AF8050410161C253100A7782388BC46FF27233BEB3789
:403F8000BB4222D26346032B1FD322E0A388002B1FD0302B19D31CE02389002B19D0282B13D316E0A289002A13D01346134F233BBB420AD20DE0268A002A0AD033460F4F2C
:403FC000233BBB4201D2964203D901200EE0002001E000280AD16D1CEDB2099B9D42B7D31C2463435B1802998B42ACD89642AAD8AAE70000100D002079020000BAFF0000F6
:4040000030B47446641E2578641CAB4200D21D46635D5B00E31830BC18470000FFB583B0002469460C801F4606468C80002806D00598002803D004983043800701D001249B
:4040400066E0002FFBD03449049809888842F6D3FEF78AFBFEF772FB00F012FC002855D100F07AFD002851D12C49084601F0E8F805042D0C4AD12A48049906608180002162
:40408000C18007810C98007AC00704D0684601F012FD040007D10C98007A800703D501A801F012FD0446BF1DFEB2002C20D13146059800F05DF804001AD10DF03DFA04005B
:4040C00016D16A461088928808368518144AF1B29088D288AEB29319984207D3401B801A80B201F09DFB050007D000E0FF25012400F05EFA002D04D008E0F8B200F01CF9D4
:40410000F6E700F081FA07490120087000F0CAFB204607B0F0BD0000140D00205D420000E81000201C0D002010B503480078012801D101F017FA10BD1C0D002070B5084B7B
:404140000446DA889E8800205518B54206D81D68AA182260DA885118D98070BD032070BDE81000200148008970470000E8100020F0B587B007460D4600208900009006919C
:404180006846FFF7DBFF844600285DD1304800990160002117E02E4B88001A680629115406D22C4C0419667882185670628805E0C419203CA67A8218567022891B68C01887
:4041C000491C4280C9B2A942E5D300242DE0601CC2B2059025E01E4FA30039689600581840887118039604904E88B04217D938466F46FE80B6464F786E4677710297049F86
:404200004F800168039F5E18767879184E700168764659184E800068029F18184770521CD2B2AA42D7D30598C4B2AC42CFD36046002809D168460699FFF780FF8446002816
:4042400002D1054900980860604607B0F0BD0000200D0020105B0100240D00207047000010B5002809D005494A68002A05D0011F08788000105801F081FA10BD200D00207F
:4042800010B50446FFF76EFFC0B2801DA0420CD307484068002808D0A100405801F0E0F9002801D00470001D10BD002010BD0000200D0020F8B516460D460446FFF752FF44
:4042C000C0B2801DA04203D20020C0430090F8BDB2B2E9B2684601F0E9F90099481C03D0024AA000526811500098F8BD200D0020F8B50746FFF736FF801DC6B20A490020F2
:4043000005460C680DE06178002907D06188B94202D32078FFF7B4FF002804D1241D6D1CEDB2B542EFD3F8BD200D002010B5002801D0FFF795FF10BD70B5064609480025E1
:4043400004680BE06178002905D062882078121D0023FFF7AFFF241D6D1CEDB2B542F1D370BD0000200D0020FFB581B00A9F16000C4620D000F0F2F8054604281BD0002FA8
:404380000CD03846FFF7B4FF20492A0151184860002810D03A460499FEF783FC1B4928010E504618778101980570200406D47D20C000444304E0FF2005B0F0BD6404640C4E
:4043C00000F0BAF80746042807D000F04FFAA0420BD800F04BFA201A03E0204600F0AAFA0020F06035720020E6E700F03FFA009000F0B6FA00980121001B009000F0ECF8EB
:4044000002493A0151180098C860E6E7F4100020F8B5060116483418217A042903D0E068002802D017E00020F8BD00F01FFA054600F096FA00F0A0F804280CD001010C481B
:404440000F18F8680021451900F0C6F80020F860284600F06FFA6068054D002801D0FFF765FF042020720020A8516081E060DAE7F4100020FEB500266A4630460123254976
:40448000050169180D7A042D02D0C96800291BD000211154401CC0B20428F0D300246846005D002830D01B482101081841894768056802910021016041600422418102726F
:4044C000C160002E02D015E01354E3E700F054F804280ED001010F4808180190C6680021304600F079F801980021C160304600F021FA0126002D07D038460299A847002F41
:4045000002D03846FFF712FF641CE4B2042CC6D3FEBD0000F41000200EB5002005216A460090118150810348694600680DF069FE0EBD0000280D0020074A002001018918C0
:404540000B7A042B02D0C968002903D0401CC0B20428F3D370470000F41000200549002002015218127A042A03D0401CC0B20428F6D37047F410002030B50A4B04200A4C33
:4045800000210A011219157A042D06D0D268002A03D09A4201D808461346491CC9B20429EFD330BDFFFF0000F41000207047000030B50020074C05460423020111190B7272
:4045C000A5504D60401C4D81C0B2CD600428F4D330BD0000F410002030B5094C00231A011219157A042D04D0D568002906D02D18D5605B1CDBB2042BF1D330BD2D1AF7E756
:40460000F4100020002070471CB5002469460C70142001902346054A05480DF0F7FD04480068401C00D1FF2420461CBD85460000280D00203EB5124A0146FF200023012444
:40464000126800290DD0012914D0042908D104206946009308814B8110460DF0D2FD80B23EBD6846009304814381694610460DF0C3FDF4E768460093048143816946EBE76A
:40468000280D002070B545890468416800890300FFF7B6FC08280509091E22282628002005F0F0FB1EE0022908D0C8B22A4621460BF036FF2046FFF739FE13E002202A46D2
:4046C00021460BF02DFF2946204600F00DF809E000200DF095FA05E02046FFF7CBFE01E0FEF7C0F8002070BD014B0022DB6818472C0D002070B5448905680089022803D09A
:40470000032809D0FF2070BD2246094C0023A46829460120A04708E0FFF798FA241DA2B200232946022006F09EFB002070BD00002C0D002070470000024800214160018094
:40474000418070472C0D002070B50C46002186B016460391012802D0022859D116E003A9012006F0D5FB01281BD1039D324621462846FEF796FA00952878019002206946B4
:4047800008814E816846FFF7B5FF41E0214D002B686809D0049004A9022006F0B9FB01281DD0022006B070BD002812D0298840182146FEF776FA28880024801980B2288098
:4047C0006988091D884206D12C801348FFF792FF03E00320E6E788421AD96C6018E004986860E278A378110219430B4A698000231060E3565360032313815181A178817084
:40480000E178C1706178417021780170042028800020C7E72C0D0020341100203EB515460C46022803D004280CD000203EBD0091019002206946088107484A8100680DF047
:40484000E0FC07E00BF06CFE044B0022DB6829462046984701203EBD280D00202C0D0020014AD160906070472C0D0020034801688068081A0A2148430009704740110020BD
:4048800010B5FDF761FF482204490548FEF709FA03490120C870002010BD00002C5B01004415002010B5FDF743FF10BD70B5134C2368002B08D0207B1149C20705D040089B
:4048C000400020738868A08070BD88680B4AA18880B29268814203D90A4D691A091802E0814202D2411A5118A160A080A0689842EAD30DF0A3FC00F013F870BD4011002042
:40490000C0102E40FFFF000010B508461946FFF7A7FF10BD704710B5FFF780FF10BD000003480021016041608160C1607047000040110020024610B5FF20002A0CD0FFF7E2
:40494000EFFF064C0321207B0843207310010A21FEF770F82060002010BD00004011002000B504480A21806848430209FFF7D8FF104600BD401100200248007B8007C00FCD
:40498000704700004011002010B54B490868002802DA4A4B01221A70022290430860484800694549C00B4031096A0246C907C90F0A4259D0012000F097FA3F480E216C30D2
:4049C000FDF7C4FD3E4820218430FDF7BFFD3C4814219C30FDF7BAFD3948FF21C131A430FDF7B4FD3648FF212F31B030FDF7AEFD33483449BC30FDF7A9FD31483249AC30D0
:404A0000FDF7A4FD30492E48491CB430FDF79EFD2B482E49B830FDF799FD29482C49CC30FDF794FD26482B490830FDF78FFD24482949A830FDF78AFD214828498830FDF706
:404A400085FD1F4826498C30FDF780FD1C481921C9029030FDF77AFDFDF786FDFDF78EFEC0B2022812D01FE000290BD0002101420AD0114801216030FDF768FD0120FDF7EE
:404A80004BFE97E70121F2E7FF2010BD15491648FDF75CFD14481549001DFDF757FD124800210830FDF752FD54200449C043891C0870002010BD000000F02E403C0D002095
:404AC00000002E40320300002F3F00003102000010520000EC160000FA12000031D000003AE300009956000080012E40F80F000070B50646581C80B245086D00002408E022
:404B0000304600F0C1F81055000A1119A41C4870A4B2AC42F4D3D80705D0D0182038D15CC47FD454C17770BD30B50A4C002100195B1E07E0541864782502545C2C43048062
:404B4000891C89B29942F5DB994201D1515C018030BD000000102E4010B5FF2000F0C4F90F49FF2048700E481021801D41800121417001700A490020C91C4870FFF704FF72
:404B800004000AD100F010F907210648FDF7D0FC044807211830FDF7CBFC204610BD00003C0D0020CC112E4070B5002405465B1E0AE0284600F068F8010A161971702D1D6F
:404BC0001055A41CADB2A4B29C42F2DB9C4203D1284600F059F8105570BD000070B500210A4D5B1E0AE0541864782602545C344346193480001D891C80B289B29942F2DBBC
:404C0000994202D1515C4019018070BD00102E40F0B50599091FCFB200217E1E0BE0541864782502545C2C43164D45192C80001D891C80B289B2B142F1DBFC0712D01C789E
:404C4000515C24020F4A0C4381180C809C785D78001D210280B2294384182180001D80B2D9780CE059781A7809021143054A84182180001DD9789B78090280B21943801804
:404C80000180F0BD00102E40014940180088704700102E4010B50B490020487000F084F8002000F047F9002000F034F907210648FDF73EFC044807211830FDF739FC002056
:404CC00010BD00003F0D0020CC112E4010B50B46062812D006DC01280CD0032801D1FFF7D9FF10BD0A28FCD00B28FAD105480078107010BDFFF730FF10BD1146184600F0E6
:404D000035F910BD420D0020F8B5244DAC6A0127A007234E002816DA307806280ED1286A384328621F480069F903084381B21D481030FDF70BFC042000F0D6F817480221E3
:404D40002830FDF7F5FBE00718D000F01DFF01280FD1002000F06AFF062000F0C5F81049FF20C91E48707078002802D1686B384368630A4801212830FDF7DAFBE0050BD55A
:404D80003078042802D1052000F0AEF80348FF2101312830FDF7CCFBF8BD000040F02E403F0D002000002E4010B503212348FDF7CDFB0120FDF7A2FC20483038406A204C0B
:404DC00080076178800F890001431C480C38FDF7BDFB6078002808D0401E022181401820FDF718FFC000083800E0B82081B21548FDF7ACFB1348032109021438FDF7A6FBF8
:404E000010481149B830FDF7A1FB612189010F48FDF79CFB0D480321001FFDF797FB0C490C48FDF793FB0B480B496038FDF78EFB084801218838FDF789FB10BD70F02E4010
:404E4000420D0020D8102E4090890000041E2E40FF0F000058122E40209000000849087806280BD148780749002803D1486B400840004863C86A01221043C86270470000D8
:404E80003F0D002040F02E4001480078704700003F0D002000B50300FFF7B2F8080D050D0B070507090D012000BD032000BD042000BD022000BDFF2000BD0000074A9168AD
:404EC000D26889B2064B92B2994204D105498A4201D1012100E000210170704780002E4033D000003FE3000010B50446FDF726FC072C01D9FF2C01D102480470FDF718FCB9
:404F000010BD00003F0D002001494870704700003C0D002010B5064A012805D01921C9021046FDF713FB10BD1D21C902F8E7000090002E4010B50A4A141D012808D0094956
:404F40001046FDF703FB08492046FDF7FFFA10BD04491046891CFDF7F9FA0349491DF3E788002E4031D000003AE3000070B50C460546FDF703FCC0B202280E49287804D08D
:404F8000FF2810D04C280CD810E0FF2809D10A4AD0680004800F032801D0087807E09069000A553803E00878207070BD4F382070087070BD3E0D002000002E40F0B5012212
:404FC000002834D0002932D00424420600D00524792342065B06D21800D0641C034600221EE00C2516466E43124D00277519AF72104F002ABB51696007D0661EB24209D10F
:405000000D4E86197606760E05E05E06760E8027BE1B00E080269B198919521C2E81D2B2A242DED303480549006B002288611046F0BD0000CC13002079020000480D002016
:4050400018B50020694608700A48006900280ED0132149014018047E684604704F21C900054800F059F8A04201D0012018BD002018BD0000480D0020501100200749002016
:405080000C2242435218927A012A05D0401CC0B20628F5D30020704701207047CC130020F8B50E000446154609D0194F19497868A04202D94018A04201D38D4201D90120DD
:4050C000F8BD31462046FDF7DDFD00281ED02A4631462046FDF7E5FDE8B200210C224A43D21913895568EE18A6420BD90126641B1B1B9672834209DA1469C01A044AC0B2E8
:4051000020329676491CC9B20629E7D30020F8BDCC13002079020000034610B50020024604E09C5C2018521CC0B292B28A42F8D310BD000070B500F05FF8084C064A21694D
:4051400007480D46FDF7ADFD05492846FFF736FFFFF776FF207070BD79020000480D002050110020002070470020054A002902D0012902D002E0906000E0D0600020704779
:40518000480D002070B5084C154608460549E26889182A46FDF785FDE0684019E06028B270BD000050110020480D00203EB50A226946FFF7E7FF044606480A2200686946D6
:4051C000FDF760FD002802D00020C0433EBD20463EBD00004C0D0020002802D0044A914201D2FF20704703494A6108610020704779020000480D0020024800218160C16014
:4052000070470000480D002070B5074C15460548A26880182A46FFF743FFA0684019A06028B270BD50110020480D002010B503490A220968FFF7E8FF10BD00004C0D0020A9
:4052400010B50F4A002313600E4A13600E4B18600E4801600E49012008600E490860000290600E490C4808600D4914300860FF381538506000F0BCF800F0CAF9002010BD09
:405280007C0D0020640D0020900D0020940D0020800D0020700D002014150020740D0020880D0020014610B50020002910D0094B1A689C685118A14209D258681960801846
:4052C0008A0704D08A07920F891A091D196010BD002010BD640D0020F8B50024164E671E321F3D463168136806E01422624310328A58521C1BD0641C9C42F6D36A1C14D019
:405300002C461422544322460C3288500C214843FFF7C8FF3168002808510AD031680020103408517068401C70602846F8BD2546E4E73846F8BD0000740D0020F3B50026F2
:40534000F64381B000281BDB1E490968884217D80299002914D01B4F142204463F1D54432546396810354859401C09D0FDF7E6F938682F1F4159C359994203DBFDF7D8F973
:405380003046FEBD214608310091465801590C20704308180C220299FDF783FC0948761C001D0068C159B14200D100260549009A091D865008684159491C4151FDF7B8F962
:4053C0000020FEBD700D0020002803DB07490968884202D90020C043704704491422091D096850431030085870470000700D0020F0B500200D4A451E0346171F50600FE0B1
:4054000014260146714314680E1DA3510C461668083433511668083435511468401C635039688842ECD30020F0BD0000740D0020F3B50026F64381B0002841DB2349096850
:4054400088423DD8029900293AD0204F142204463F1D54432546396810354859401C2FD0FDF76CF93868415900292BD0211D009146580C21005971430F46C1190C220298FB
:40548000FDF70FFC11480021001D0068761C00590C34C0190160416081600C48001D00680159B14200D100260849009A091D865008684159491E4151FDF73AF90020FEBDFE
:4054C0003046FEBDFDF734F9FAE70000700D0020FEB504460D4600201E49089E0860471E009001900290002C11D0486885420ED2002A0CD0002E0AD0642E08D808460C3071
:4055000001681C2068430C18207A002801D03846FEBD0120226020721846FFF7DDFE6060401C13D06681A6810A4827610C3067610179A94200D205710021684601810A468E
:405540002846029B00F040F82846FEBD00202072DDE700007C0D002038B50124009400F039F838BDFEB50027164EFF433D4600240EE01C20316860430818017A002906D0CD
:405580004068FFF721FF002801D0254603E0641C3079A042EDDA681C12D01C2130684D434419FDF7CBF869466068FFF741FF0546FDF7BEF8002DD9D1216868468847D5E7FA
:4055C000FEBD0000880D002038B50024009400F001F838BD1FB500220C49541E0A60002811DB496888420ED808491C220C31096850430818406801A9FFF7A0FE401C02D018
:40560000002004B010BD2046FBE700007C0D0020F0B50021114A4D1E174611710C3F0B46BD6016E008461C2460431668041D355114680646235014680836A3551468361DAC
:40564000A353044616680A34335318301468491C255078688142E5D30020F0BD880D002038B500210091002811DB0F49097888420DDA0D4D04010C3529680859002807D05F
:40568000201D0818694600F06FF9002801D0002038BDFDF753F828680F34015D491E0155FDF746F8009838BD980D0020F7B582B0002502986E1E06602E48D21C0240174635
:4056C0002D4A2C4610460C380178106805E02301C358002B0FD0641CE4B28C42F7D3711C28D03401211D40180191039900F02AF900281FD101E02646F1E71F480168204656
:405700000C300F521C480399026820460E30115419480399026820460F3011540398784300F0A0F8144900280968085102D00024009011E001251AE00F48016801980818AB
:40574000009900F02CF9002801D0012502E00098C0190090641CE4B203988442ECD3002D05D10298066004480179491C0171284605B0F0BDFCFF0000A40D0020F8B50D4607
:4057800000216A468C461180002839DB23490978884235DA214B04010C3319680A59002A2ED020460C300B5A801C0E5C184670438018954224D3854222D2002006E0074665
:4057C0005F43BF18AF4206D0401CC0B2B042F6D36046002814D0114E271DC8190C366A46294600F006F900280AD168460088012808D030682946C01900F0D1F8002803D08C
:405800000120F8BD0020F8BDFCF798FF30680F34015D491C0155FCF78BFFF3E7980D0020F8B50F46002400F031F8002817D10C4900220B460C334A600EE021011D680E463A
:405840006A501D680C36AA53B61C1D680F31AA551D68641C6A54E4B2BC42EED31A71F8BD980D002000280BD0C01C074A81085068890053884118994203D893685160181837
:405880007047002070470000980D0020F8B5064600200F4D009029700C0121466846FEF74DFC00280CD129460C3100980860301B001F84B221466846FEF740FC002801D007
:4058C000FF20F8BD6C800098A8600020F8BD0000980D0020F8B5002827DB19490978884223DA174C05010C342168485900281CD028460C30085A009028460E300E5C401C38
:405900000E5420682F1DC01900F064F800280CD12068002445590EE0094829460C300068C01900F03CF8002801D00120F8BD00982D18641CE4B2B442EED30020F8BD000020
:40594000980D002030B50D4604000BD0A800FFF789FF6060002805D000202570C0436080002030BD012030BD70B50D46040005D0002D03D00220205E002801DA012070BD73
:40598000FCF7DCFE0221615E60688900405828606088401E6080FCF7CBFE002070BD70B50D46040007D0002D05D002212078615E401E814201DB012070BDFCF7BFFE6088E6
:4059C000401C00B26080616880000D50FCF7B0FE002070BD10B5040009D0227800216068FDF768F90020C0436080002010BD012010BDF0B500231D46002802D00224045F1F
:405A00000AE00120F0BD46689F00F6598E4201D1012503E05B1CDBB29C42F4DA15700020F0BD00000148007870470000AC0D00207CB505460024FEF709F9A8796946087035
:405A400000A8062229460130FDF72BF90021684604F0DEFC0C2806D0072806D01F2806D0122806D006E0022404E0042402E0272400E0012420467CBD014801214172704707
:405A80004C16002010B500F05FF9FFF7FDF9FFF701FA10BD70B504460025FEF7D7F8002C06D0A079012803D8214602F07BFC00E00125284670BD01460120002902D05020F2
:405AC000088000207047000001460120002905D003485422007850430880002070470000AE0D002010B502460D49FE204870032410460CF0A9FE002810D10CF04DFE00280A
:405B00000CD105F061FA002808D100F013FB002804D104F023FF002800D10024204610BDAC0D002070B50025044600280ED0A07901280BD8FEF78AF8A0790028204602D04E
:405B400002F0D6FF03E002F0ABFF00E00125284670BD0000014610B50120002904D006220248FDF79EF8002010BD0000B80D002001460120002903D008780249087000207F
:405B800070470000AE0D00200148007A704700004C16002038B504460120002C20D0617801291DD800290BD0FF25E535FEF74EF80C4828180088C0B22070072803D00EE060
:405BC000FF25CD35F2E70020694608706846FFF775F969460878012801D108202070002038BD000000102E40014A002192681047AC0D002008B500226B461A7026280CD0FE
:405C0000094A342852680BD0352805D1900703D50021352005F0B4FA08BD19462620F9E7D007F9D03420F5E7AC0D002001490872704700004C160020F8B504460120002C31
:405C400026D06178012902D92278092A20D8002905D0FF25E5352078092803D004E0FF25CD35F8E708202070FDF7F0FF2078114F114E08280DD00020FFF75CF9707801284F
:405C8000207810D00D4969180880FE2070700020F8BD0120FFF74EF90720B8810549203188800120F2E7B8810248217820308180EBE70000C0112E40AC0D002000102E4006
:405CC00070B50E46050001D0002400E00C4C002C11D0E28A500609D5D107C90F022002F09BFFE08A40218843E08204E0D107C90F012002F091FF3146284602F079FC70BD46
:405D0000AC150020F8B50546002004460D4E009013E022466946284600F0D6FF0098002801D00CF073FDA878214602F099FAA878214602F087FA641CE4B2308AA042E8D883
:405D4000F8BD00007816002038B51E4CFFF79CF8042813D0052811D0062812D003282AD007280AD100206946087002460120FEF7ADFFFFF789F80128FBD138BD00F077FB6F
:405D800038BD02F0C3FA00F072FB02F03FFB8007800F0228F4D10C4841880029F0D05B21095D0029ECD101210170A07D0140022002F032FF38BD02F0ADFA0120FFF794F87C
:405DC00038BD0000AC150020D20D0020F8B50646002402F08FFF0546304602F0A5FF03460A480021068A0DE001228A401046174628401F40002803D0002F01D1224394B293
:405E0000491CC9B28E42EFD82046F8BD781600201CB50020694648706846FFF7BBFE01AA69460A20FEF752FF6946042008561CBD70B50D4601F028FB04000BD0207900286D
:405E400008D0FDF703FFE178A0782A4602F056FC002070BD022070BD0148007870470000841500204030C07E002800D00120704700B500F001F800BD902148430749084AAB
:405E800040186030417F491CC9B24177D289914201D300214177C8B2704700008C1500207816002013B501F0EFFA04000BD001F08CFE002807D0214601AA0A310620FEF7C4
:405EC00005FF00201CBD02201CBD000010B50C4601F0DAFA00280AD001F077FE002806D0224604490A20FEF7F1FE002010BD022010BD00006D150020F3B581B007460146BA
:405F00000026029802F0EEFE0446002F01D0002500E0154D002D21D0284601F0EBFA032C04D13946029802F039FF06463846029902F088F9032C06D0002C10D001213846E0
:405F400001F0DEFB03E03146384603F025F9284602F06CF80221284602F082F8FEBD3846029902F06FF9FEBDAC15002010B5044600F066FA002804D103F0D8FD002801D0C6
:405F80000C2010BD2078611C02F0BAFCFF2801D01F2010BD02F000FDFF280AD02178621C02F0DEF8044821780068026B601C904710BD072010BD0000F80D002010B503F0AD
:405FC000B5FD002801D00C2010BD02F07BFC03480068C06A8047002010BD0000F80D002070B50D46044610210CF050FB1021601806460CF04BFB334610221946204603F00A
:40600000C3FD102130460CF041FB02202870204604F0DAFB70BD0000F8B504464078217802028006870FE0781143A67809050002090D0643084601F027FA00210546F2B29A
:40604000002812D0002C10D0022F0ED0032F0CD0002A0AD00279092A07D0002A05D0134A5A23527E1B5C9A4207D82889002104F0E0FA20460CF0CAFBFF21002914D10C4840
:40608000224600682946436930469847C0B2FF280AD128464030817EF2B2491C8176FF232146284600F0E3F8F8BD000044150020140E00200020704710B5044603F036FD11
:4060C000002801D00C2010BD2078611C02F018FCFF2808D002F050FB044821780068426B601C904710BD1F2010BD0000F80D002010B500F06BF904F031FC002010BD10B520
:40610000044600786178E2780843A17811430843217908436179084305D003F0F9FC002803D00C2010BD122010BD204602F0E0FC002010BD10B5FCF721FB02F0FDFD044880
:4061400003F060FD02F022FB012000F003F810BD54150020F1B586B003A8009005A8019028489F22817A114081726846FDF79AFD002845D169460989C90705D02248069933
:406180000068C2686846904769460989890706D5002835D11D480068816A0698884700282ED11B4E0025757075737571F575357675767575B570F570B5713746F5730120C1
:4061C000D03738731F20F880FF2130467972A0300176457600F0D0FA00242046069901F09FFC002803D1641C2406240EF5D0FD720749BD72B573C0310D704D704D600D723A
:4062000007B0F0BD44150020140E0020F80D00208C15002070B505460E46084602F06AFD0446304602F080FD0121A9400A46224001400A4301D0012070BD002070BD10B543
:406240000446084602F070FD0121A140014201D0012010BD002010BD10B5FEF715FE032804D102F057F80120FEF73EFE10BDFEB51C4616460F46054601F0D8FEA878FFF71A
:40628000F7FD02460190334639460094284600F00DF8002808D1A8780199FFF711FDFF2C02D138460CF0B2FAFEBD0000FFB585B005460E980C46FF2810D02B49C0000968AC
:4062C0000A5840180179C0795278814201D9012601E09006860F6846038108E06078A1788006860FE0780002014368460181284601F076FC070007D021462846079A00F08E
:4063000077FC384609B0F0BD304600F025FD04AE0346039002AA29460096204600F0B1FB3C20405D002818D0284601F059FC012813D0684600890096C0B20190A878231D44
:40634000FF22079902F008F968460089039BC2B2A878079902F048FCD3E7684600890021C0B20091E9E70000100E0020F8B5002600253046FFF72AFD07001DD0902011497E
:40638000704340186030447F12E0601CFCF752FBCCB23846E040C007C00F07D02146304601F048FF21463046FFF7A6FD6D1CEDB20548018AA942E8D8761C3606360ED7D059
:4063C000F8BD00008C1500207816002010B502F0DDF90020FFF7BEFE0CF0AEFA002010BDF8B5002400F0B2F80123012800D10124104F00203E4620360425082203E0002824
:4064000001D0002100E031460979002907D001290BD002290BD0114681402143CCB2401C0006000EEBD07C70F8BD1C43F7E72C43F5E700008C15002010B5FFF7D1FF10BD1F
:4064400010B5044604F0DCFB002802D1601C00F001F810BD1CB500240094062269460194FCF710FC002800D1122420461CBD10B5FCF757F80446FEF707FD012809D0FEF772
:4064800003FD022805D0FBF7D7FD2046FCF74DF8EEE72046FCF749F810BD10B50B4681791943817103D08078114602F06BFB10BD10B582798A43827102D1807802F076FBEA
:4064C00010BD000030B50C4C0220A28A0B4B9978002901D0022906D11D785B78EB18282B01D9032002E0032900D101205105490DC0020143A18230BDC0112E40C80D002030
:4065000000B500F029F8002807D0012805D0032801D0042801D0002000BD012000BD014600B50020C90701D000F010F800BD014600B50020C90701D000F008F800BD000008
:406540000148006870470000C00D002001480088000A704720102E400448008B410501D5042070474007800F7047000000102E4010B501F011FF044601F04EFF01462046C2
:4065800001F032FF10BD00000148406870470000C00D002038B50446000610D5FFF7DCFF01280CD1684601F0C5FE6846007800F023FB012001F0A2FD0220FFF73DFF60075C
:4065C00008D507480179012904D1002101712620FFF710FB0348006801692046884738BDCC0D0020F80D002070B505460C49007800240870FFF7AAFF012803D1FFF7B8FF95
:40660000022803D3284602F0DFF907E0284600F0EBF8040002D1034801210170204670BDC80D00204C16002070B50446FFF78EFF002801D00C2070BDA27B01211F48002A27
:40664000827801D00A4301E05208520082706279012A14D0C17849084900C170184D2868016820468847207901280CD06188208803F00EF82080207904280FD015E0C27867
:406680000A43C270EAE72868C168E01D8847E01D02F01AFA0B48808C208006E02868C168E01D8847E01D02F00FFA074920798870204602F097F9002070BD00008C150020C9
:4066C000F80D002044150020C80D002008B50178FFF73CFF814201D10C2008BD002914D0072069460870FFF70BFF012807D10121684600F0D9F8012801D0092008BDFFF74F
:40670000E1FE02F0A3F9012011E0FFF7F9FE012806D1684601F00EFE6846007800F0A0FA02F08AF9FFF712FF0028FBD10220FFF783FE002008BD000070B505460C49007867
:4067400000244870FFF702FF012803D1FFF710FF022803D3284602F0F5F907E0284600F05DF8040002D1034801214170204670BDC80D00204C16002038B568460BF0DCFFEC
:40678000002801D01F2038BD01210098C90201804180002505714571857107214173857302F020F9009C202200212046FCF782FA25702A460021601CFCF77CFA204602F088
:4067C00003F9204602F0BEF900980CF01FF8062200210448FCF76EFA02480C388560002038BD0000CC0D0020F8B504460025684600950BF0A1FF002801D007250AE0064E15
:40680000009830602278611C401CFCF74AFA3168207808702846F8BDC00D0020F8B504460025684600950BF087FF002801D007250AE0064E009870602278611C401CFCF7BC
:4068400030FA7168207808702846F8BDC00D00200346084800B5834209D8184600F014FE002804D00089984201D1012000BD002000BD0000FF0E0000074A9179491C890659
:40688000890E917138220A4092014907090E114308430249084070478C150020FF0E0000C006C00E70470000F8B507460E4600240D4803E0002C01D0002500E00546297906
:4068C000002905D0641C2406240EF3D00020F8BD0021204601F024F92E712046FFF7CCFF28813C700120F8BDAC15002010B503F07FF90222002100F003F801F0F3FE10BDB0
:4069000010B5094B40074907000F090F185A595A40185043C0086421FCF78CF8002800D1012080B210BD0000745B0100F7B53D20405C88B015460C46002802D02878042873
:4069400002D200200BB0F0BD6946087200262046FFF788FA012800D00126204603A938300191009023460327A17E34333246206A03F062F902A8089900900B460191204645
:406980003A4603A9243003F0DFF802466846007A2870204601F0B0F81046D3E7FFB587B00C4605461078694608723D20005D1746002826D000262046FFF754FA012800D03F
:4069C0000126204603A93830019100902346A17E34333246206A03F02FF902A80090291D019120462B1D03A924300A9A03F0ACF802006846007A388002D1204601F07CF84D
:406A000010460BB0F0BDF0B505463C20405C89B016460C4600280CD0307869460873002806D000272046FFF71DFA012803D003E01F2009B0F0BD012703200890204604A9E1
:406A40003830019100902346E17E34333A46E06903F0F2F86846007B03A928180290009120462B46019504A92430089A03F0A0F802466846007B3070204601F047F81046E7
:406A8000D7E7FFB505463C20405C89B016460C46002810D0084601F0A3F801280BD0308869468883002809D000272046FFF7DAF9012805D005E000200DB0F0BD0220FBE71A
:406AC0000127204603A93830019100902346E17E34333A46E06903F0AFF8291D2B1D07A8129A6D4607C5204603A924300C9A03F05FF802466846808B3080204601F006F87C
:406B00001046D9E770B50D460446FFF7ABF901280AD0E87AA97A00020143A07801F0DEFC012808D0002070BD00222421204602F001FD242070BD28214C200155204600F055
:406B4000B1FB282070BD0000002801D0002000E003484030C07F012800D0002070470000AC1500200146002049070ED50021084B03E0002901D0002200E01A461279022A4C
:406B800004D0491C0906090EF3D0704701207047AC1500200146002049070ED50021084B03E0002901D0002200E01A461279022A04D0491C0906090EF3D07047012070478E
:406BC000AC15002010B5044680346068002803D00BF030FE0020606010BD4030417070474030817070474030017070470171704792001018C166704770B53C2501F096F909
:406C0000040004D020460021433001F01BFCFF222946204600F0E2FB002C02D0A07801F007F970BD10B5002801D0002000E00348002802D0008903F043FD10BDAC15002016
:406C400010B5002801D0002000E00448002804D00179072901D100F047F810BDAC15002010B501F063F9002802D0807801F0E0F810BD00207047000070B50546008A002822
:406C80001ED01049F122897A1140C90618D5294640314A8A098A521C4A4392B2D10800D10121540801E0621A94B2A042FBD9FEF7B9FE012804D1298AA878224601F0D4FCBD
:406CC00070BD00004415002010B50023054C0B60248A944204D992001018C26E0A60C36610BD00007816002038B5044600200090A079002814D14020015D052901D00E29F0
:406D00000ED168460BF028FD002809D12046009902F0EEFB03481021C28A2046FFF7BDFB38BD00004415002010B50B4604460146184602F067F8002802D020460BF070FD62
:406D400010BD13B5044601AA11460620FDF7BEFF6846818861811CBD002800D10220704770470000F8B504462346401D543300909A1EA078911E01F0F9FA25464035A88A17
:406D8000298A8000FBF756FE401E81B2688A884203D96982A07801F079FF698A8C20015120460021433001F04DFB27480088E88102F01EFFE989891C8AB26179FFF7A0FD72
:406DC00001F090FC02F014FF2A8A6179FFF798FD074601F07BFC688A002806D01B49088A032212021043088202E0002001F042FF1648803801886E8A002E0CD03046484371
:406E00001349FBF707FF0004000C01D0401C80B21049488002E00F4800214180288A704381B2A07801F09CFEFF2228374932B9B21346204602F030FCE98AA07801F010FE4B
:406E4000A07801F01FFAF8BD80102E40E0112E4071020000D20D00207FB504468034616805460E46183108226846FBF71AFF31462031082202A8FBF714FF102168460BF02B
:406E800005FC6068102108300BF000FC60682B46083024331022694602F076FE7FBD10B504460821FFF704FB10212046FFF700FB207905281FD006281DD008281AD1218914
:406EC000002003F075FB072020712046FEF7CAFF014620464030012913D00E21017000210176204600F0B6FF2046FFF76BFE2046FFF7C2FE10BD20890122002103F03CFB01
:406F0000E1E70521EAE70000FFB581B01F4604460821FFF7CDFA10212046FFF7C9FA2079082803D0092804D0042203E00422012501E009220025204600F03EFE2646002083
:406F40004036307022712046FFF73CFE0398002D02D0012808D00BE001280AD120890022029903F009FB04E02189029803F020FB012700203076012F04D0204600F06AFF04
:406F800005B0F0BD02983073204602F0FFFA054605480121C28A2046FFF77FFA002DEFD109202071ECE700004415002070B50C460546FEF757FF012809D108212846FFF776
:406FC00077FA0023012221462846FFF79DFF70BD10B5044600F0F0FD2046FFF7F3FD00214034217010BD70B505461A24FEF73AFF012809D108212846FFF75AFA0023012215
:4070000021462846FFF780FF70BD0000F8B50446002000900E4668460BF09EFB002801D00D20F8BD8420005908212030009D00F026FA20460421383000F021FA002E02D19F
:40704000204600F0F5FD2946204602F0E0F90E480821C28A2046FFF720FA204600F06BFF25464035002808D0204600F023F8002801D0092028700020F8BD08202870204621
:4070800000F0D4FFF7E7000044150020014610B540310A460978082906D0092907D00A2901D100F091F810BD0B20107010BD00F001F810BD70B504460079254640350528EA
:4070C00005D0062803D008280FD00C2070BD03220621204602F02EFA0D480821C28A2046FFF7DBF91120287010E006202873204602F04CFA0646AA8A0A20424301212046BD
:40710000FFF7CBF9002E01D109202071002070BD4415002038B504460020009068460BF01BFB002801D00D2038BD2046009D00F0BDF908202071204600F07AFD2946204650
:4071400002F098F900213D2001550F2040210855204600F06BFF002038BD00B5024600F02BFD10214032117000BD10B50446FEF779FE012809D04020005D112805D1002394
:407180001A4606212046FFF7BFFE10BD10B5FFF786FE10BD38B504460021684600910BF0DBFA00280CD12046009902F0E4F905480821C28A2046FFF770F90D204034207064
:4071C00038BD00004415002038B504460021684600910BF0C1FA002801D00D2038BD2046009902F0BDF905480821C28A2046FFF754F90C2040342070002038BD44150020E9
:4072000000787047F8B5002569460D70002801D0002400E01F4C002C18D0204600F0D5FC002813D0207903280BD005280CD026464036B18AA07801F09DFCB078012806D0E5
