:400000000040002011000000850600008506000080B500AF00F06AFB80B500AF244B12221A6002F00BFB234B181C02F039FB012002F014FB302002F0E1F91F4B1F4A1A60B4
:400040001F4B8022D2051A601E4B1E4A126802210A431A601C4B1D4A1A601D4B00221A601C4B1C4A126808218A431A60FA23DB00181C02F00FFA184B181C02F083FA174B5C
:40008000C82252011A60164B164A1A60164B802212061A60154B8022D2021A60144B40221A60074B8022D2051A60BD4680BDC04630001040001BB70004010B40060000807B
:4000C0000C020B4078002E407C002E406A2D000064F02E406CF02E40DC050000000301400000014040FF008008010B4000010B400401014080B582B000AF72B63A4B0022C4
:400100001A60FB1D00221A7023E0FB1D1A78131C5B009B185B00354A9B183B603B681A78597809020A43997809040A43DB781B061343191C3B681A795B791B0213439BB2DD
:40014000081C191C00F056FBFB1D1A78FB1D01321A70FB1D1B78012BD7D9254BEE2212061A60244B992212041A60234B992212041A60224B992212041A60214B9922120465
:400180001A60204A1F4B1B78DBB202210B43DBB213701D4A1C4B1B78DBB23C218B43DBB214210B43DBB21370164A164B1B78DBB216210B43DBB21370144B154A1A60154B09
:4001C00020221A60144BC42292021A60134B20221A60134BD82212041A60FFF71DFF00F019FBBD4602B080BD6CF02E40C0590100000002400001024000500F4010500F402F
:4002000030500F4000700F4001700F40080004400060D8000001044008010440180104400803044010B5064C2378002B07D1054B002B02D0044800E000BF0123237010BD3D
:4002400020100020000000000057010008B5084B002B03D00748084900E000BF07480368002B00D108BD064B002BFBD09847F9E7000000000057010024100020A80B002089
:4002800000000000B0B586B002AF786039600E23FB1800221A807B68252B00D169E00AD8212B2CD002D8012B12D002E1232B3ED0242B4CD0FDE0272B00D196E066D3282B76
:4002C00000D1BBE01222FF32934200D1E1E0F0E0794B181C03F0A2F8002000F05DFC031E08D00E23FB181B88744A101C191C03F019F8DEE0724B181C03F090F8D9E0714B66
:40030000181C03F08BF83B681B78191C3B685B781D1C3B689B781C1C3B68DB781A1C6A4B0092181C2A1C231C02F0FCFFC1E0654B181C03F073F83B681B68644A101C191CDA
:4003400002F0F0FF624B181C03F068F8B1E0012001F0E4FF012002F007F8002002F02AF8584B181C03F05AF85A4B181C03F056F89FE0544B181C03F051F83B681B781A1C6C
:40038000554B181C111C02F0CDFF92E04D4B181C03F044F8514B1B78032B17D0002001F0BDFF012001F0E0FF012002F003F84C4B181C03F033F84B4B1B78002B14D04A4B4B
:4003C00001221A70474B00221A7072E0012001F0A5FF002001F0C8FF012001F0EBFF434B181C03F01BF864E063E0414B181C03F015F80E23FC183F4B1A785B781B021A4379
:4004000000231204120C1B0C1B041343181C00F0D1FC031C2380384B181C02F0FFFF0E23FB181B88002B08D00E23FB181B88334A101C191C02F076FF3BE03AE0002001F013
:400440006DFF012001F090FF012001F0B3FF1D4B181C02F0E3FF2A4B181C02F0DFFF0E23FC18002000F098FB031C23800E23FB181B88002B08D00E23FB181B88214A101CB0
:40048000191C02F04FFF14E01F4B181C02F0C6FF0FE00C4B181C02F0C1FF1C4B181C02F0BDFF144B1A781A4B101C191C0DF006FFC046BD4604B0B0BD045701001C57010056
:4004C000485701006057010064570100B4570100F05701002458010040580100962100206058010084210020862100207C58010098580100A8210020AC580100C458010091
:40050000E4580100FC5801002C59010048590100840C002090B583B000AF3F4B00221A70BB1D00221A8062B63C4B181C00F0C4F901F0F8FD03F0BAFE01F0D0FE031CDAB2E5
:40054000374B1A70364B1B78002B10D0344B1B78522B03D0324B1B78722B08D12E4B01221A70304B1B78032B01D100F07FFB2E4B1B78002B21D001F027FE011C2B4B1A6877
:4005800080231B02134001D0012300E00023CB18002B12D1BC1D002000F02CFA031C2380BB1D1B88002B04D1214B181C02F036FF03E0204B181C02F031FF1F4B1B78002B60
:4005C00029D01D4B00221A70BC1D1C4B181C0EF041F8031C2380C046012000F00BFA031EFAD1174B181C02F09DFEBC1D002000F0D3FA031C2380BB1D1B88002B07D0BB1D89
:400600001B88104A101C191C02F08CFE03E00E4B181C02F003FF8DE78421002085020000852100209621002088210020080224406059010078590100862100203C10002029
:4006400098590100FC5801002C59010080B586B000AFF860B9607A6000237B6109E0BB685A1CBA601B78181C01F098FD7B6901337B617A697B689A42F1DB7B68181CBD46E4
:4006800006B080BD80B500AF02F000FE031C1B680C2B00D1FEE7FEE780B584B000AF7860104B1A687B68D3181A1C0F4BD21AE023DB009A4209DC0B4B1B68FB60094B1A683F
:4006C0007B68D218074B1A6007E002F0DFFD031C0C221A6001235B42FB60FB68181CBD4604B080BDAC0B0020C021002080B586B000AF224B7B61224B3B61204B7B6135E09E
:400700003B691B68FB603B695B68BB603B699B683B6000237B600CE0FB681A68BB681A60BB680433BB60FB680433FB607B6804337B607A683B689A42EED13B69DB683B6006
:4007400000237B6008E0BB6800221A60BB680433BB607B6804337B607A683B689A42F2D13B6910333B617B69013B7B617B69002BC6D102F091FDFFF7CDFEFEE701000000FA
:40078000F05F010080B582B000AF154B144A126801218A431A6000237B600FE07B68032B04D8104B7A689200D35800E00E4B0F4A796889008B507B6801337B607B682F2B58
:4007C000ECD9FFF797FC0A4B00221A60044B044A126801210A431A60BD4602B080BDC04600001040000000008506000000000020C000002080B582B000AF786039607A687E
:400800003B68101C00211A1C02F084FDBD4602B080BDC04680B500AF054B03221A60054B03221A60044B00221A60BD4680BDC0463000304030003140000E3F4080B500AF82
:40084000094B00221A70094B00221A70084B00221A7000F013F8074B00221A70064B00221A70BD4680BDC046BA210020A4210020B8210020882100209021002080B500AFE6
:400880000A4B1B88002B05D1094B181C00210C2202F040FD054BDB88002B05D1054B181C0021062202F036FDBD4680BD780C0020AC2100209C210020B0B594B004AF7860B1
:4008C0003E23FB1800221A802823FA183F4B111C1A1C1423081C111C1A1C02F012FD3C4B1B78002B04D1FFF7A9FF394B01221A707B68002B5FD0374B7A681A603E23FB1847
:400900001B88002B29D11023FB181C22BA185A601023FB182022BA181A601023FB1800221A812023FB181B221A802023FB181B225A802023FB1804221A711C23FB180022F3
:400940001A703E23FC181023FA180E23FB18101C191C03F087FD031C23803E23FB181B88002B2CD13E23FC181B481C49AE231A012823FD1805230093194B0193194B0293E1
:400980002B1C03F0C5FC031C23803E23FB181B88002B14D1144B01221A70144B08221A703E23FC18124B181C0F210B220FF05CFF031C238003E03E23FB1801221A803E2340
:4009C000FB181B88181CBD4610B0B0BDCC590100441000208C210020AD110000C800002080680100790200009621002097210020E859010090B587B000AF021CFB1D1A7090
:400A00001623FB1800221A805D4B1B781A1C012313401ED01623FC18FB1D1B78181C0AF00DFF031C23801623FB181B88002B10D1534B1B7801229343DAB2514B1A70504B72
:400A40001B781A1C0223134003D01623FB1828221A801623FB181B88002B03D0FB1D1B78002B29D0464B1B781A1C0223134023D0444B1B78042B1FD8424B1B783D33FF33A7
:400A80005A00414BD3185A1C1623FC183F49FB1D1B78081C111C02220AF0B6FE031C23801623FB181B88002B06D1354B1B7802229343DAB2324B1A701623FB181B88002BDF
:400AC00003D0FB1D1B78002B53D02D4B1B781A1C0C2313404DD02A4B1B781A1C0823134022D00C23FB18181C00210A2202F012FC1623FC180C23F918254AFB1D1B78081C0E
:400B0000111C0A220AF080FE031C23801623FB181B88002B07D11A4B1B7808229343DAB2174B1A7025E024E00823FB1800221A80184B1B783D33FF335A00134BD3185A1C0C
:400B40001623FC180823F918FB1D1B78081C111C02220AF059FE031C23801623FB181B88002B06D1064B1B7804229343DAB2044B1A701623FB181B88181CBD4607B090BD59
:400B800088210020A82100208068010094210020F96A01004510002090B585B000AF021CFB1D1A70FB1D1B78022B04D90E23FB1801221A804BE0294B1B78042B42D1284B66
:400BC0001B78DBB21A1C042313403BD1FB1D1B78002B0BD1234B3C221A82224B5B6820221A80204B5B6830225A8010E0FB1D1B78012B0CD11B4B96221A821A4B5B68C82229
:400C0000D2001A80174B5B688022D2015A80164BFA1D12781A700E23FC18124B181C0DF0C1FE031C23800E23FB181B88002B08D10B4B1B78DBB204221343DAB2084B1A70AE
:400C400005E004E00E23FB180422FF321A800E23FB181B88181CBD4605B090BD96210020BA210020000C0020B821002080B500AF0DF050FF044B1B78DBB208221343DAB2B4
:400C8000014B1A70BD4680BDBA21002080B584B000AF78600A1CFB1C1A700023BB60BB68002B20D07B689A79BB681A700F23FB1800221A7012E00F23FB181B780133BA683C
:400CC000D3180F22BA18127879688A5C1A700F23FB181A780F23FB1801321A700F23FB181B78052BE7D9BD4604B080BD80B582B000AF78607B681B789AB27B6801331B783C
:400D00009BB21B029BB213439BB2181CBD4602B080BDC04690B585B000AF78600F23FB1800221A707B689B890D22934237D17B681A1D7B680F217C18101C00211A1C402381
:400D40000FF0AAFD031C23700F23FB181B78002B1DD17B685B68181CFFF7C8FF031C1A1C022313409BB2002B08D0104B1B68822251007A68081C111C984708E00B4B1B68D0
:400D80000622FF32111C7A68081C111C9847084B1B78DBB201229343DAB2054B1A700F23FB181B78181CBD4605B090BD8C210020BA21002090B585B000AF3B1D1880314B5B
:400DC0001B78022B07D1304B1B78002B09D02E4B1B78052B05D00C23FB180422FF321A8049E00F23FB1800221A7014E00F23FB181A78131C5B009B185B00244A9B18181C33
:400E00000021042202F086FA0F23FB181A780F23FB1801321A700F23FB181B78012BE5D91B4A3B1D111C1A1C0223081C111C1A1C02F067FA174B01221A80164B0122524208
:400E40005A80FFF71BFD0C23FC183B1D18680EF011FC031C23800C23FB181B88002B0AD1094B01221A700C4B1B78DBB202221343DAB2094B1A700C23FB181B88181CBD463F
:400E800005B090BD9621002097210020780C0020A821002098210020BA21002080B582B000AF78607B68DB880D4A934214D10D4B5B88002B08D17B689A880A4B5A807B6885
:400EC0009A78084B1A7007E0074B1B687A68911D86225200101C9847BD4602B080BDC046052A00009C2100208C21002080B582B000AF78607B689B880B4A934210D10B4B8C
:400F00009B88002B04D17B685A88084B9A8007E0074B1B687A68111D86225200101C9847BD4602B080BDC046022900009C2100208C21002080B582B000AF78600C4B5A8897
:400F40007B689B899A420FD10A4B1B68832251007A68081C111C9847074B1B78DBB201229343DAB2044B1A70BD4602B080BDC0469C2100208C210020BA21002090B585B0E7
:400F800000AF78600F23FC187B68181CFFF7C2FE031C2370144B1B78DBB21A1C012313401FD10F23FB181B78002B16D00823FB1812229A707B689A890823FB181A8008235B
:400FC000FB180F22BA181278DA707B680822BA181868111C0EF092FE03E07B6818680EF00FFFBD4605B090BDBA21002080B582B000AF7860BD4602B080BDC04680B582B04E
:4010000000AF7860BD4602B080BDC04680B582B000AF7860BD4602B080BDC04680B582B000AF7860BD4602B080BDC04680B582B000AF7860BD4602B080BDC04680B582B018
:4010400000AF7860BD4602B080BDC04680B500AF094B00225A70084B00221A70074B1B78052B03D1054B07221A7002E0034B08221A70BD4680BDC046A821002097210020F7
:4010800080B582B000AF78607B681B78032B3ED1204B1B78DBB21A1C0223134037D01E4B1B78022B10D002DC012B05D024E0032B12D0042B18D01FE0184B1B680822FF32FC
:4010C000101C0021984717E0144B1B6884225200101C002198470FE0104B1B680A22FF32101C0021984707E00C4B1B6885225200101C00219847C046064B1B78DBB20222F0
:401100009343DAB2034B1A70034B00221A70BD4602B080BDBA210020972100208C21002080B500AFBD4680BD80B584B000AF78600E23FB1800221A707B689B79002B1CD1D6
:401140000F23FB1800221A7012E00F23FB181B787A68D35C002B04D00E23FB1801221A700BE00F23FB181A780F23FB1801321A700F23FB181B78052BE7D90E23FB181B7850
:40118000181CBD4604B080BD80B582B000AF021CBB1D1A80BD4602B080BDC04680B582B000AF7860BD4602B080BDC04680B588B000AF021C3960FB1D1A70D64B1B78DBB2CD
:4011C00001221343DAB2D34B1A70FB1D1B78FA2B00D9BFE19A00D04BD3181B689F461423FB1807221A701423FB1800225A701423FB18181C05F06AF81423FB1807221A70EC
:401200001423FB1801225A701423FB18181C05F05DF8C24B1B68181CFFF786FF031E11D0BE4B1B68181C03F045F8BC4B1B68181C0021FFF72BFDB94B1B68181C0121FFF7AE
:4012400025FD0DE0B64B181C03F034F8B44B181C0021FFF71BFDB24B181C0121FFF716FD00200DF04DFA1023FB183F221A701023FB1800225A701023FB18181C0DF05EFAB7
:40128000A84B04221A7066E13B68181CFFF7F8FE61E13B681A78A44B1A705CE13B68BB61BB691B78002B18D1BB695B78002B0BD19E4B0022DA809D4B00229A809B4B9C4A77
:4012C0001A60BB69994A5A60924B1B78DBB201229343DAB28F4B1A703DE13CE18D4B1B78DBB21A1C2023134027D1924B1B78102B02D1904B0522DA708F4B1A788D4B101C9C
:40130000191C0DF00DFB031C1A1C0E23FB181A800E23FB181B88002B06D0884B1B680E22BA183620111C98477A4B1B78DBB201221343DAB2774B1A700DE10CE13B685A7818
:401340007F4B1A7007E13B68181CFFF727FF02E13B68181CFFF722FF724B02221A70FAE0704B04221A70F6E06E4B1B78022B34D0684B1B78DBB21A1C012313402DD0654B3D
:401380001B78DBB21A1C042313400BD0654B03221A70604B1B78DBB204229343DAB25D4B1A701AE05B4B1B78DBB21A1C082313400BD05C4B04221A70564B1B78DBB208220D
:4013C0009343DAB2534B1A7007E0564B1B78032B03D1544B04221A70BDE0BCE03B681B88181CFFF7D1FEB6E0534A3B68111C1A1C0223081C111C1A1C01F083FF4A4B002270
:401400001A704D4B1B783D33FF335A004D4BD31801334D4A111C1A1C0223081C111C1A1C01F06FFF494B00221A70FFF779FE92E0FFF70CFE8FE03B685B88162B05D81E23CC
:40144000FB183A6852881A8003E01E23FB1817221A803B681E22BA1811881A8800231204120C1B0C1B041343181C0EF051FC72E03B68181CFFF782FD6DE03B68181CFFF71F
:40148000B5FD68E03B68181C00F084F863E03B68181C00F075FA5EE000F0C6FD5BE03B68181C00F0A3FC56E03B68181C00F00CFE51E03B68181CFFF7A9FD4CE03B68181C36
:4014C000FFF738FD3B68181CFFF7A8FD114B1B78DBB21A1C0123134004D13B6818680EF08FF838E037E03B68181CFFF79FFD32E03B68181CFFF7A2FD2DE03B68181CFFF7B9
:401500007DFD28E0124B1B7801221343DAB2104B1A7020E0BA210020145B01001C0C0020140C002096210020A421002048100020A80B0020840C0020A82100208C210020EF
:401540009021002080680100942100209721002088210020C0460D4B1B78DBB21A1C112313400FD0094B1B78DBB201229343DAB2064B1A70064B1B68FA1D11783A68081C13
:40158000111C9847BD4608B080BDC046BA2100208C21002080B586B000AF78600023FB60664B1B78012B00D0C5E0654B1B78DBB21A1C0223134000D1BDE00A23FB187A68F6
:4015C00012891A800A23FB181B88062B05D00A23FB181B88142B00D0A6E00823FB187A6852891A801423FB1800221A808AE07B685A681423FB181B88D318FB601323FB182F
:4016000000221A70FB681A884E4B1B889A4200D26EE0FB681A884B4B5B889A4200D967E00A23FB181B88062B62D11623FB1800221A8053E01623FB181A884349131C5B00C1
:401640009B185B00CB189A88FB689B889A423ED11623FB181A883C49131C5B009B185B005B5A002B13D11623FB181A883649131C5B009B185B00FA68CB18111C0422181C46
:4016800001F03FFE1323FB1801221A701FE01623FB181B88002B0ED11623FB181B885A1C2949131C5B009B185B00CB189A88FB689B889A420BD0254B1B68FA68111D0C22AC
:4016C000FF32101C98471323FB1801221A701623FB181A881623FB1801321A801623FB181B88012B04D81323FB181B78002BA1D01423FB181422B9180A22BA1809881288C8
:401700008A181A801423FA180823FB1812881B889A4200D26BE70A4B1B78DBB201229343DAB2074B1A7006E0084B1B680822FF32101C00219847BD4606B080BD97210020C2
:40174000BA21002098210020780C00208C21002080B582B000AF021CFB1D1A70FB1D1B78002B06D0324B1B780133DAB2304B1A7002E02F4B00221A7005E02D4B1B780133A1
:40178000DAB22B4B1A702A4B1B78012B19D8284B1B78191C274A0B1C5B005B185B009A5A254B1B889A42E8D3214B1B78191C214A0B1C5B005B185B009A5A1F4B5B889A42D2
:4017C000DBD81B4B1B78012B28D8194B1B781A1C131C5B009B185B00164A9918174B1A785B781B021A4300231204120C1B0C1B041343181C0DF056FF031E15D0104B1B689D
:4018000084225200101C002198470E4B1B78DBB202229343DAB20B4B1A7005E00A4B03221A70002000F02CFABD4602B080BDC046B9210020780C002098210020A82100202E
:401840008C210020BA2100209721002080B582B000AF78607B68DB88434A934238D0424A934207DCA822920193420DD03F4A93421CD075E03E4A93424ED03D4A934239DB4D
:401880003C4A93425AD06BE03B4B1B88002B04D17B689A88384B1A8062E0384B1B687A68911D86225200101C984759E0324B5B88002B04D17B689A882F4B5A8050E02F4B94
:4018C0001B687A68911D86225200101C984747E0294B9B88002B04D17B689A88264B9A803EE0264B1B687A68911D86225200101C984735E0204BDB88002B04D17B689A88F3
:401900001D4BDA802CE01D4B1B687A68911D86225200101C984723E0174B1B89002B04D17B689A88144B1A811AE0144B1B687A68911D86225200101C984711E00E4B5B89B2
:40194000002B04D17B689A880B4B5A8107E00B4B1B687A68911D86225200101C9847C046BD4602B080BDC046022A0000012A0000042A0000A62A0000AC2100208C210020CF
:4019800080B592B000AF7860B64B1B78DBB21A1C0223134000D161E13E23FB187A6812891A803C23FB187A6852891A807B685B683B64AD4B1B78032B00D099E04623FB1830
:4019C00000221A808AE03B6C181CFFF78FF9031C1A1C2423FB181A803B6C02333B643B6C1A782423FB189A703B6C01333B643B6C181CFFF77BF9031C1A1C2423FB189A807F
:401A00003B6C02333B643E23FB181B88152B20D12423FB1802229A752423FB180622396C9B181022181C01F06CFC3B6C10333B648E4B1B78191C8E4A0B1C5B005B185B006B
:401A4000D3189B881A1E8B4B9A4200D000E0C04632E03E23FB181B88072B2DD12423FB1801229A753B6C181CFFF740F9031C1A1C2423FB18DA803B6C02333B647B4B1B78EC
:401A8000191C7B4A0B1C5B005B185B00D3189B88C0225201934203D0774A934206D00BE02423FB18181CFFF7D1FE05E02423FB18181CFFF7F3F9C0466A4B1B78DBB20122F4
:401AC0009343DAB2674B1A704623FB184622B9183E22BA18098812888A181A804623FA183C23FB1812881B889A4200D26BE7B5E05D4B1B78022B00D0B0E04623FB180022D5
:401B00001A80A2E03B6C181CFFF7F0F8031C1A1C0C23FB181A803B6C02333B643B6C181CFFF7E4F8031C1A1C0C23FB185A803B6C02333B643B6C181CFFF7D8F8031C1A1C95
:401B40000C23FB189A803B6C02333B643E23FB181B88062B04D10C23FB1802229A7562E03E23FB181B88082B5DD10C23FB1801229A753B6C181CFFF7B9F8031C1A1C0C23C8
:401B8000FB18DA803B6C02333B644423FB1800221A8033E04423FB181A883549131C5B009B185B00CB189A880C23FB18DB889A421DD14423FB181A882D49131C5B009B187F
:401BC0005B005B5A002B12D14423FB181A882849131C5B009B185B000C22BA180220C91813180422081C191C01F08BFB0BE04423FB181A884423FB1801321A804423FB18B6
:401C00001B88012BC6D9194B1B78191C184A0B1C5B005B185B00D3189B881A1E174B9A4200D000E0C0460F4B1B78DBB201229343DAB20C4B1A704623FB184622B9183E2229
:401C4000BA18098812888A181A804623FA183C23FB1812881B889A4200D253E7BD4612B080BDC046BA21002097210020B9210020780C0020FEFF0000011800001218000060
:401C800080B582B000AF021CFB1D1A70FB1D1B78002B06D0354B1B780133DAB2334B1A7002E0324B00221A7005E0304B1B780133DAB22E4B1A702D4B1B78012B19D82B4B68
:401CC0001B78191C2A4A0B1C5B005B185B009A5A284B1B889A42E8D3244B1B78191C244A0B1C5B005B185B009A5A224B5B889A42DBD81E4B1B78012B2FD81C4B1B78181C92
:401D00001D491B4A031C5B001B185B00087849780902084300210004000C090C09040143985AD3185B881B04034300221A1C081C111C0DF083FC031E15D0104B1B680A2248
:401D4000FF32101C002198470D4B1B78DBB202229343DAB20A4B1A7005E00A4B04221A70002000F0D3F8BD4602B080BDB9210020780C002098210020A82100208C21002045
:401D8000BA2100209721002080B582B000AF3B1C00221A803B1C00225A80114B1B78002B09D1104B5B8801339AB23B1C1A800E4B1A893B1C5A803B1D3A1C12681A603A1D0B
:401DC000002311880904090C1B0C1B040B43528812041B041B0C1343181CBD4602B080BDB92100209C210020780C002080B58AB000AF78600823FB1800225A80404B1B78F6
:401E0000042B00D079E03F4B1B78DBB21A1C0223134000D171E01E23FB187A6812891A807B681A7B0823FB181A750823FB187A6812881A800823FB181B7D012B04D12623AC
:401E4000FB1804221A8003E02623FB1812221A807B685B683B622423FB1800221A803CE03B6A181CFEF742FF031C1A1C0823FB185A803B6A02333B620823FB181B7D022B17
:401E80000CD10823FB183A6A0433111C1022181C01F037FA3B6A10333B6214E03B6A181CFEF724FF031C1A1C0823FB189A803B6A02333B62144B1B78002B04D10823FB18B9
:401EC000181CFFF713F82423FB182422B9182622BA18098812888A181A802423FA181E23FB1812881B889A42BAD3064B1B78DBB201229343DAB2034B1A70BD460AB080BDA0
:401F000097210020BA210020B921002080B584B000AF021CFB1D1A700C23FB1800221A800C23FB1800225A80FB1D1B78002B06D0374B1B780133DAB2354B1A7005E0344BD1
:401F400000221A70FB1D01221A70FFF71DFF031C1A1C0C23FB181A600C23FB181A882D4B1B889A4215D90C23FB181A88294B5B889A420ED80C23FB185A88264B1B889A42F3
:401F800007D30C23FB181A880C23FB185B889A4203D91F4B1B78002BC6D01D4B1B78002B21D11D4B0C22B9181A785B781B021A4300231204120C1B0C1B041343181C0DF046
:401FC00027FB031E21D0154B1B6885225200101C00219847124B1B78DBB202229343DAB20F4B1A7011E00F4B05221A700B4B1B681222FF32101C00219847094B1B78DBB2E4
:4020000002229343DAB2064B1A70BD4604B080BDB921002098210020A82100208C210020BA2100209721002080B500AF244B1B78DBB21A1C022313403FD0224B1B78022B92
:4020400017D002DC012B05D037E0032B1DD0042B27D032E01B4B02221A700020FFF778FB174B1B78DBB201229343DAB2144B1A7023E00120FFF76CFB114B1B78DBB2012283
:402080009343DAB20E4B1A7017E00120FFF7F8FD0B4B1B78DBB201229343DAB2084B1A700BE00120FFF732FF054B1B78DBB201229343DAB2024B1A70C046BD4680BDC046B5
:4020C000BA2100209721002080B582B000AF7860074B1B78DBB21A1C0223134005D07B689B790A2B01D1FFF79FFFBD4602B080BDBA21002080B500AF00F076F8BD4680BD29
:4021000080B500AF064B064A1268802109060A431A6000F019F800F01BF8BD4680BDC0460000244080B500AF064B1B78002B04D1FFF7E0FF034B01221A70FFF7E1FFBD460A
:4021400080BDC0465010002080B500AFBD4680BD80B500AF00F0A8F8BD4680BD80B582B000AF00237B60044B1B687B607B68181CBD4602B080BDC0464003244080B582B0E6
:4021800000AF054B1B681F2213407B607B68181CBD4602B080BDC0460803244080B582B000AF7860C046064B1B681F221340082BF9D0044B7A681A60BD4602B080BDC046B5
:4021C000080224404002244080B582B000AF054B1B681F2213407B607B68181CBD4602B080BDC0460802244080B500AF1B4B1C4A1A601C4B00221A601B4B01221A601B4B60
:402200001B4A1A601B4B07221A601B4B00221A601A4B01221A601A4B154A1A60194B00221A60194B04221A60184B00221A60184B00221A60174B00221A60174B00221A6076
:40224000164B00221A60164B00221A60144B1B689AB2144B1A80BD4680BDC046000024400F00000240002440480024400003244007000080040324401003244044002440BA
:40228000000224400402244050002440880E2440C80E2440480F2440080F2440C80F2440880F24405210002080B500AF074B074A126807490A40902109040A431A60054B08
:4022C000054A12881A60BD4680BDC04600010240FFFF0FFF880F24405210002080B582B000AF00237B60FFF749FF031E03D0FFF735FF031C7B60084B1A68D8239B00134041
:4023000005D000237B60044BD82292001A607B68181CBD4602B080BDC00F244080B584B000AF021CFB1D1A700E4B1B68DAB20F23FB1810218A431A70FB1D1B781B01DBB2D8
:4023400010221340D9B20F23FB180F22BA1812780A431A70034B0F22BA1812781A60BD4604B080BD0000044080B584B000AF021CFB1D1A700E4B1B68DAB20F23FB18402131
:402380008A431A70FB1D1B789B01DBB240221340D9B20F23FB180F22BA1812780A431A70034B0F22BA1812781A60BD4604B080BD0003044080B584B000AF021CFB1D1A70A1
:4023C0000D4B1B68DAB20F23FB187F210A401A70FB1D1B78DB01D9B20F23FB180F22BA1812780A431A70044B0F22BA1812781A60BD4604B080BDC0460003044090B58BB0EB
:4024000000AF78602723FC1800F053F9031C2370184B1A680C23FB181A60174B1A680C23FB185A607B68033B144AD35C1A1C0C23FB189A60124B1A680C23FB18DA601C238E
:40244000FB18104A1A600C23FA181C23FB185A600D4B1C22BA181A600C4B0D4A1A600A4B1B682723FB181B78181C00F026F9BD460BB090BD08010B4000010B40005F010008
:4024800030001040B6EA000008001040040010401700008080B584B000AF78600023FB60154B154A126801210A431A60134B144A1A60144B134A1268802109020A431A604A
:4024C0007B68002B12D01023FB600CE0012000F059F800F019F8031E02D00023FB6005E07B68013B7B607B68002BEFD1FB68181CBD4604B080BDC04660F02E4078002E40BC
:402500000220000010002E4080B582B000AF054B1B68012213407B607B68181CBD4602B080BDC0460C002E4080B582B000AF021CFB1D1A7001BEBD4602B080BD80B582B04A
:4025400000AF786009E00C4B1B68181C00F0A8F87B680A4A944663447B607A6880231B029A42F0D8064B1B687A685343181C00F097F8BD4602B080BD980C00200080FFFF41
:40258000900C002080B582B000AF021CBB1D1A80BB1D1B88044A12785343181C00F080F8BD4602B080BDC046940C002080B500AF0E4B0E4A126801218A431A600B4B0B4A59
:4025C000126802218A431A60094B094A126830218A4310210A431A60054B054A126807218A4301210A431A60BD4680BD00F02E4000FF2E4080B500AF0E4B0E4A126802218C
:402600008A431A600C4B0C4A126807218A4302210A431A60084B084A126830218A4320210A431A60034B034A126801210A431A60BD4680BD00F02E4000FF2E4080B500AF1B
:40264000FFF7B4FF044B044A1268802109060A431A60BD4680BDC04600F02E4080B584B000AF78600C4B1B6801221340FB607B68002B02D0012B03D005E0FFF797FF06E0AE
:40268000FFF7B8FF03E00020FFF74EFFC046FB68181CBD4604B080BD00F02E40000000000230800803D00138FDD1C046C046C0467047EFF3108072B6704780F310887047C8
:4026C00080B5ACB000AFF860B960BB1D1A800023A422BA1813600023A022BA181360BB689422BA181360BB1D1A889423FB181B68D318594A934200D994E09423FB181B687D
:40270000DB09AC22BA181360AC23FB181B68DB019C22BA18136077E000239822BA1813600023A822BA18136050E09C23FB181A689423FB181B689A422DD3BB1D1A88A423C5
:40274000FB181B689A4226D9FA68A423FB181B68D31819781423FA18A823FB181B68D3180A1C1A709C23FB181B681B78DAB2F968A423FB181B68CB181B789A4203D00123ED
:402780009822BA181360A423FB181B680133A422BA1813600CE09C23FB181B681B78D9B21423FA18A823FB181B68D3180A1C1A709C23FB181B6801339C22BA181360A82383
:4027C000FB181B680133A822BA181360A823FB181B687F2BA9D99823FB181B68002B0CD0AC23FB181A681423FB18101C191C00F02BFA031CA022BA181360AC23FB181B686C
:402800000133AC22BA181360BB1D1A88A423FB181B689A420AD9A023FB181B68002B00D17AE703E00123A022BA181360A023FB181B68002B09D0A023FB181B68012B04D041
:4028400001235B42A022BA181360A023FB181B68181CBD462CB080BDFFFF010080B582B000AF78600A1CBB1C1A80BB1C1A887B681A60BD4602B080BD80B582B000AF7860AD
:402880000A1CBB1C1A80BB1C1A887B681A60BD4602B080BD80B584B000AF494B1B78DBB21B02484A1278D2B21343FB60464B1B78DBB21B02454A1278D2B21343BB60BB6880
:4028C000434A934207D1FB68072B04D1414BBB600423FB6009E0BA68D4231B019A4204D1FB68042B01D13B4BBB603B4BBA681A603A4BFA681A603A4B1B78DBB21B02394A6F
:402900001278D2B21343FB60FA6880239B019A4202D0FB68002B01D1334BFB60334BFA681A60334B1B78DBB21B02324A1278D2B21343FB60FB68304A934206D0FB682F4A9C
:40294000934202D0FB68052B01D12D4BFB602D4BFA681A602C4B1B681B097B602B4B1B68AA2B29D17B68012B26D9214B1B78DBB20E2B21D1264B1B78DBB29BB21B0299B258
:40298000244B1B78DBB29AB2BB1C0A431A80224BBA1C12881A60214B1B78DBB29BB21B0299B21F4B1B78DBB29AB23B1C0A431A801C4B3A1C12881A60BD4604B080BDC04607
:4029C000D9F0FF0FD8F0FF0FDFF0FF0FDEF0FF0F580B0000580D00006C002E4074002E40DBF0FF0FDAF0FF0F0220000078002E40DDF0FF0FDCF0FF0F0F0F00000505000057
:402A0000050F000080002E40EC0F00F0E00F00F06DF2FF0F6CF2FF0F84002E406FF2FF0F6EF2FF0F94002E4080B582B000AF021CBB1D1A80BB1D1B88181CFFF7A3FDBD4632
:402A400002B080BD80B582B000AF78607B68181CFFF774FDBD4602B080BDC04680B500AF00F0DEF8BD4680BD80B500AF00F0E2F8BD4680BD80B500AF00F0DCF8044B181C00
:402A800000F09CF8032000F0A5F8BD4680BDC0467D2F000080B500AF024B181C00F07CF8BD4680BD7D2F000080B500AF0223FF33181CBD4680BDC04680B582B000AF786098
:402AC0002B23181CBD4602B080BDC04680B582B000AF78602B23181CBD4602B080BDC04680B582B000AF78602B23181CBD4602B080BDC04680B582B000AF78602B23181C1C
:402B0000BD4602B080BDC04680B582B000AF78602B23181CBD4602B080BDC04680B582B000AF78602B23181CBD4602B080BDC04680B582B000AF78602B23181CBD4602B0A8
:402B400080BDC04680B582B000AF78602B23181CBD4602B080BDC04680B500AF2B23181CBD4680BD80B582B000AF021CFB1D1A702B23181CBD4602B080BDC04680B582B04D
:402B800000AF786039602B23181CBD4602B080BD80B500AFBD4680BD80B582B000AF786000F048F87B68181C00F008F8032000F011F800F035F8BD4602B080BD80B582B0A6
:402BC00000AF7860024B7A681A67BD4602B080BD0000002090B585B000AF021CFB1D1A700623FB600B23FC18FFF763FD031C23700A4B0A4A1268C0218A43111CFA1D107838
:402C0000FA689040021C0A431A600B23FB181B78181CFFF752FDBD4605B090BD0CE400E080B500AF024B802252011A60BD4680BD00E100E080B500AF024B802252011A601A
:402C4000BD4680BD80E100E090B5A9B000AF7860396000239822BA18136000239422BA1813607B68594A934200D9A4E03B68002B00D1A0E00C23FB1808331A1C3B68101C7C
:402C8000191C802200F03DFB7B68514A934201D9504A00E0504A0C23FB181A600C23FB187F225A604D4B0C22BA181A604C4B4D4A1A60C046494B1B681B0F1A07F0231B0625
:402CC0009A4204D1454B1B68FF2213400BE0434B1B681B0F1A07A0231B069A4202D03F4B1B6800E000239822BA1813609823FB181B68002B5ED19F23FC18FFF7DAFC031C48
:402D0000237000F075F8031C9422BA1813609423FB181B68002B05D100F0A6F8031C9822BA1813609823FB181B68002B30D10C23FB182D4A1A600C23FB181A687B681B0419
:402D40001A430C23FB181A60244B0C22BA181A60234B264A1A60C046204B1B681B0F1A07F0231B069A4204D11C4B1B68FF2213400BE01A4B1B681B0F1A07A0231B069A4299
:402D800002D0164B1B6800E000239822BA1813609423FB181B68002B05D100F099F8031C9422BA1813609F23FB181B78181CFFF784FC04E003E004239822BA1813609823B8
:402DC000FB181B68181CBD4629B090BDFF030000FF010000B6D70001B6D70000080010400400104004000080B6D800000500008080B584B000AF0023FB603B1D154A1A60B9
:402E0000154A3B1D5A60154B3A1D1A60144B154A1A60C046114B1B681B0F1A07F0231B069A4204D10D4B1B68FF2213400BE00B4B1B681B0F1A07A0231B069A4202D0074B61
:402E40001B6800E00023FB60FB68181CBD4604B080BDC046B6E900006C21002008001040040010401600008080B582B000AF00237B60134B134A1A60134B144A1A60C046CD
:402E80000F4B1B681B0F1A07F0231B069A4204D10B4B1B68FF2213400BE0094B1B681B0F1A07A0231B069A4202D0054B1B6800E000237B607B68181CBD4602B080BDC04659
:402EC00008001040B6E80000040010401500008080B584B000AF0023FB603B1D154A1A60154A3B1D5A60154B3A1D1A60144B154A1A60C046114B1B681B0F1A07F0231B06EE
:402F00009A4204D10D4B1B68FF2213400BE00B4B1B681B0F1A07A0231B069A4202D0074B1B6800E00023FB60FB68181CBD4604B080BDC046B6EA00006C2100200800104087
:402F4000040010401700008090B583B000AFFC1DFFF7AFFB031C2370074B074A126804218A431A6030BFFB1D1B78181CFFF7A5FBBD4603B090BDC04610ED00E080B500AF1D
:402F800012F0AAFBBD4680BD002243088B4274D303098B425FD3030A8B4244D3030B8B4228D3030C8B420DD3FF22090212BA030C8B4202D31212090265D0030B8B4219D347
:402FC00000E0090AC30B8B4201D3CB03C01A5241830B8B4201D38B03C01A5241430B8B4201D34B03C01A5241030B8B4201D30B03C01A5241C30A8B4201D3CB02C01A52418E
:40300000830A8B4201D38B02C01A5241430A8B4201D34B02C01A5241030A8B4201D30B02C01A5241CDD2C3098B4201D3CB01C01A524183098B4201D38B01C01A52414309E1
:403040008B4201D34B01C01A524103098B4201D30B01C01A5241C3088B4201D3CB00C01A524183088B4201D38B00C01A524143088B4201D34B00C01A5241411A00D20146F0
:40308000524110467047FFE701B5002000F0FCF802BDC0460029F7D003B5FFF775FF0EBC4243891A1847C04603460B437FD4002243088B4274D303098B425FD3030A8B4252
:4030C00044D3030B8B4228D3030C8B420DD3FF22090212BA030C8B4202D31212090265D0030B8B4219D300E0090AC30B8B4201D3CB03C01A5241830B8B4201D38B03C01A1F
:403100005241430B8B4201D34B03C01A5241030B8B4201D30B03C01A5241C30A8B4201D3CB02C01A5241830A8B4201D38B02C01A5241430A8B4201D34B02C01A5241030AA3
:403140008B4201D30B02C01A5241CDD2C3098B4201D3CB01C01A524183098B4201D38B01C01A524143098B4201D34B01C01A524103098B4201D30B01C01A5241C3088B4265
:4031800001D3CB00C01A524183088B4201D38B00C01A524143088B4201D34B00C01A5241411A00D201465241104670475DE0CA0F00D04942031000D34042534000229C46B7
:4031C00003098B422DD3030A8B4212D3FC22890112BA030A8B420CD3890192118B4208D3890192118B4204D389013AD0921100E08909C3098B4201D3CB01C01A5241830989
:403200008B4201D38B01C01A524143098B4201D34B01C01A524103098B4201D30B01C01A5241C3088B4201D3CB00C01A524183088B4201D38B00C01A5241D9D243088B429D
:4032400001D34B00C01A5241411A00D20146634652415B10104601D34042002B00D54942704763465B1000D3404201B5002000F00BF802BD0029F8D003B5FFF715FF0EBC4B
:403280004243891A1847C0467047C046014B18687047C046181000200E4B70B500251E1C0D4CE41AA410A54204D0AB00F35898470135F8E712F08AFE084B00251E1C084CD6
:4032C000E41AA410A54204D0AB00F35898470135F8E770BDD85F0100D85F0100D85F0100E05F010030B50024944208D0035D651C0C5DA34201D0181B02E02C1CF4E7002053
:4033000030BD002310B5934203D0CC5CC4540133F9E710BD031C8218934202D019700133FAE770470FB40B4B13B51C68002C05D0A369002B02D1201C00F03EFA05AB201C7A
:40334000A168049A019300F0E7FB16BC08BC04B01847C0461810002070B5051C0E1C002804D08369002B01D100F026FAAC68A3891B0702D52369002B19D1281C211C00F099
:40338000AFF8002813D00120404245E03178002B1BDAA269934211DA221C281C00F048F8013042424241D0B20028ECD10136A3683278013BA360002AE8D10CE023681970A0
:4033C000236819780A2903D1E6E723681970236801332360EAE7002B17DAA269934208DB0A2322681370236819780A2911D1281C01E0281C0A21221C00F01AF801304242E3
:403400004241D0B2002806D0BDE70A23226813702368013323600A2070BD000008B5034B011C1868FFF798FF08BDC0461810002070B5051C0E1C141C002804D08369002B17
:4034400001D100F0B9F9234B9C4201D16C6808E0214B9C4201D1AC6803E0204B9C4200D1EC68A369A360A3891B070AD52369002B07D023682269F6B2981A636998420FDBB3
:4034800008E0281C211C00F02BF80028F1D0012040421DE0281C211C00F020F90028F6D1A3680130013BA36023685A1C22601E706369984205D0A389301CDB0708D50A2E18
:4034C00006D1281C211C00F009F90028DFD1301C70BDC046385F0100585F0100785F0100354B70B51D68061C0C1C002D05D0AB69002B02D1281C00F05FF9304B9C4201D1C4
:403500006C6808E02E4B9C4201D1AC6803E02D4B9C4200D1EC68A3899AB2110723D4D10607D409220120326037321343A381404240E0530713D5616B002908D0231C4433D3
:40354000994202D0301C00F021FA002363632422A3899343A38100236360236923600822A3891343A3812369002B0BD1A023A2899B00134080229200934203D0301C211C59
:4035800000F0ACF90123A289134005D00023A36063695B42A36103E0910700D46369A36000202369834205D1130603D540231A43A281013870BDC04618100020385F0100E7
:4035C000585F0100785F0100F7B58A89051C0C1C13075ED44B68002B02DC0B6C002B1ADDE76A002F17D000232E682B6080235B011A4001D0626D15E0281C216A0123B84707
:40360000021C431C0ED12B68002B0BD01D2B01D0162B02D12E6000205EE04021A3890B43A38159E0A3895B0706D56368D21A636B002B01D0236CD21A0023281C216AE76A9C
:40364000B847A389421C06D12A68002A03D01D2A01D0162A19D10022626022692260DB0405D5431C02D12B68002B00D16065616B2E600029CFD0231C4433994202D0281C20
:4036800000F084F90020606326E040221343A38122E00F69002FBED00B680F60DB1B01930023920700D14B69A360019B002BB2DD281C216A3A1C019BA66AB047002806DCC9
:4036C00040220120A38940421343A38104E0019B3F181B1A0193E8E7FEBD000038B50B69051C0C1C002B01D100201CE0002804D08369002B01D100F05FF80B4B9C4201D100
:403700006C6808E0094B9C4201D1AC6803E0084B9C4200D1EC680C22A35E002BE4D0281C211CFFF751FF38BD385F0100585F0100785F010008B5024900F0AEF808BDC04621
:40374000DD360000002310B5041C03604360836081814366C281036143618361191C08225C30FFF7D7FD054B24626362044BA362044BE362044B236310BDC04669400000E2
:4037800091400000C9400000F540000070B568254B1E5D430E1C291C743100F03DF9041E08D000212A1C016046600C30A0606832FFF7B0FD201C70BD836913B5002B28D1E3
:4037C0008364C3640365134B134A1B6882620193984201D101238361041C00F01FF86060201C00F01BF8A060201C00F017F80421E06000226068FFF7A5FFA068092101224A
:40380000FFF7A0FFE06812210222FFF79BFF0123A36113BD345F010035370000F8B51D4B061C1D68AB69002B02D1281CFFF7C4FF4835AC686B68013B05D40C22A75E002F26
:4038400010D06834F7E72B68002B06D1301C0421FFF79CFF2860002801D02D68E9E70C23336016E00123201C5B42E3810233A38167662760A760676027616761A7615C30F9
:40388000391C0822FFF746FD201C6763A763A764E764F8BD345F0100F7B5041C071C002601914834002C16D06368A5680093009B013B00930DD4AB89012B08D90E22AB5E3C
:4038C000013304D0381C291C019B984706436835EDE72468E6E7301CFEBD0000F0B58B8991B09B0706D50B1C47330B600B6101234B6145E00C1C0E23C95E061C002904DA05
:403900008023A5891D4010D10CE001AA00F01EFC0028F5DBF023029D1B021D40194BED186B425D418027FF0001E000254027301C391C00F071F800280CD1A3899A051FD42F
:4039400002221343A381231C4733236023610123636115E080220C4BB362A38920601343A38120616761002D0AD00E23E15E301C00F0FEFB002803D00122A3891343A3811F
:4039800011B0F0BD00E0FFFF3537000030B500293ED004390B68002B00DAC9181D4A1368141C002B02D14B60116031E099420DD208680A189A4203D11368C3180B605368E8
:4039C0004B60216024E08A4203D8131C5A68002AF9D11D685C198C420BD10968691858181960904214D110685268091819605A600EE08C4202D90C23036009E008680C18A9
:403A0000944203D114685268001908604A60596030BDC04680210020032370B5CC1C9C430834051C0C2C01D20C2405E0002C03DA0C2300202B6042E08C42F9D3204A1368FB
:403A4000101C191C002913D00A68121B0DD40B2A02D90A608B181FE08B4202D15A6802601BE04A685A600B1C17E00B1C4968E9E7144E3368002B03D1281C00F0E3FA3060AF
:403A8000281C211C00F0DEFA031C421CD0D00322C61C964386420AD11C60181C07210B301A1D8843821A0AD05142995007E0311A281C00F0C7FA431CBAD0331CECE770BDB7
:403AC000802100207C210020936810B5013B9360002B05DA9469A34208DBCBB20A2B05D01368581C10601970C8B201E0FFF7A0FC10BDF8B5061C0F1C141CD518AC4208D084
:403B00002178301C3A1CFFF7DFFF0134431CF5D100E00020F8BD0000F0B59FB0061C0F1C02920593002804D08369002B01D1FFF743FE794B9F4201D1776808E0774B9F42FD
:403B400001D1B76803E0764B9F4200D1F768BB891B070AD53B69002B07D0002306AD6B6120336B761033AB763DE0301C391CFFF7B7FC0028F1D001204042CAE0059A111D10
:403B800012680591002A7EDB0992013423782E2B00D189E021786348032200F00FFB002808D0604B0134C01A40238340181C2B68184328602178631C5B4806220293297670
:403BC00000F0FCFA002800D191E0584B002B00D084E00722059B07339343083305936B69039A9B186B61029C2378002B04D1029BE31A049311D003E0252BF8D00134F3E782
:403C0000049B301C391C029AFFF773FF431C7BD06A69049B944663446B612378002B73D00122002352426A6002A95432521801342B60EB60AB601370AB6521783C480522A2
:403C400000F0BCFA002809D0394B0134C01A01238340181C2B6818432860EEE72B68DA0604D55322202102A8121811701A0704D553222B2102A81218117022782A2A00D17E
:403C80007CE7099B05E05242EA60022213432B607BE72278303A092A04D80A214B4301349B18F6E7099371E763782A2B09D1059B02341A1D1B680592002B0DDA01235B424A
:403CC0000AE0002301342278303A092A04D80A214B4301349B18F6E707935BE705AB0093301C291C3A1C134B00E000BF07E005AB0093301C291C3A1C0E4B00F08BF803907E
:403D0000039B013300D06AE7BB895B0600D532E70B981FB0F0BDC046385F0100585F0100785F01009E5F0100A25F010000000000985F0100F33A0000F7B5171C01930A69A5
:403D40008B6800900C1C934200DA131C221C3B6043321278002A01D001333B6023689B0602D53B6802333B60062523681D401ED0231C43331B785A1E9341226892061CD5FA
:403D80003020E1184031C870211C5A1C45310978A21840320233D1700FE0221C0123009801991932089EB047431C0ED00135E3683A689B1A9D42F0DBDAE7221C009801996A
:403DC0004332089DA847431C02D10120404220E006232068E1683A6803400025042B03D18D1AEB43DB171D40A3682269934201DD9B1AED180027AF420ADA221C01230098C1
:403E000001991A32089EB047431CDED00137F2E70020FEBDF0B58BB006920A1C43320793059004920A7E0C1C109B6E2A00D1A8E011D8632A22D009D8002A00D1B2E0582A8A
:403E400000D0C2E045310A707C4A4FE0642A1DD0692A1BD0B9E0732A00D1A7E009D86F2A29D0702A00D0B0E0202209680A43226037E0752A1FD0782A33D0A6E00E1C1A68F9
:403E80004236111D196013683370A1E021681A68080606D4490604D5111D19600023D55E02E0111D19601568002D3BDA2D23049A6D42137036E021681A68080606D449066C
:403EC00004D51568111D1960ADB202E0111D196015685A4B227E03930A276F2A1DD108271BE0221C782145321170554A19680392081D226818600D68100602D4500600D56C
:403F0000ADB2D30702D520231A4322601027002D03D1202322689A432260231C002243331A7002E00A27454B03936368A360002B03DB0422216891432160002D02D1049ED4
:403F4000002B0ED0049E281C391CFFF7A3F8039B013E5B5C281C3370391CFFF715F8051EF1D1082F09D12368DB0706D563682269934202DC3023013E3370049B9B1B236144
:403F80002BE009681A68080607D4490605D5111D19601368A28A1A8004E0111D1960136862691A600023049E236116E01A68111D196016680021301C626800F0FFF8002892
:403FC00001D0801B6060636803E0261C42363270012323610023049A1370079B05980093211C069B09AAFFF7A7FE431C02D10120404221E0236905980699321C079DA84722
:40400000431CF4D023689B0705D4099BE068984212DA181C10E00025E368099A9B1A9D42F3DA221C0123059806991932079EB047431CDCD00135EFE70BB0F0BDA95F010000
:40404000BA5F010038B50023064C051C081C2360FCF722FB431C03D12368002B00D02B6038BDC046BC21002038B50C1C0E25495F00F0B0F8002803DB636D1B18636503E074
:40408000A289024B1340A38138BDC046FFEFFFFFF8B51E1C8B89051C0C1C171CDB0505D50E23C95E0022022300F074F8A289054B281C1340A3813A1C0E23E15E331C00F0C3
:4040C0001FF8F8BDFFEFFFFF38B50C1C0E25495F00F060F8A389421C03D1054A1340A38104E0802252011343A381606538BDC046FFEFFFFF08B50E23C95E00F015F808BDD6
:4041000038B5051C0020074C2060081C111C1A1CFCF79CFA431C03D12368002B00D02B6038BDC046BC21002038B50023064C051C081C236000F062F8431C03D12368002BD5
:4041400000D02B6038BDC046BC21002038B50023064C051C081C111C236000F057F8431C03D12368002B00D02B6038BDBC21002038B50023064C051C081C236000F04EF8C0
:40418000431C03D12368002B00D02B6038BDC046BC21002038B5051C0020074C2060081C111C1A1C00F042F8431C03D12368002B00D02B6038BDC046BC210020C9B28218C0
:4041C000904204D003788B4202D00130F8E700207047000038B5051C0020074C2060081C111C1A1C00F02AF8431C03D12368002B00D02B6038BDC046BC21002058220120A7
:40420000014B40421A607047BC21002058220120014B40421A607047BC2100205822024B00201A607047C046BC21002058220120014B40421A607047BC210020582201209E
:40424000014B40421A607047BC210020134A1088810703D08107890F401A001D11791030484381B25088820703D08207920F801A001D800040180A494030098980B2CA078E
:4042800001D0503080B2890706D504495422091F09785143081880B270470000A60C00206010002010B501F00AFF10BD10B500F055FA10BD10B5074904460978022000291D
:4042C00007D1204601F066FF002802D120460AF00DFB10BD380E002070B504460120002C12D02368002B0FD0616800290CD0074D06222889208118462968FFF702F8696815
:40430000606809780170002070BD000060100020FFB585B0002768460E9D07734F481C460078002802D0082009B0F0BD10990F9801900095029105A807C800F001F9002873
:40434000F2D16946264603AB84460873002C19D0002115E08A00B75A082F09D990198078002805D0083FB7521878401C187005E0002914D00027B75290198770491CC9B289
:40438000A942E7D360460028CED10F98002809D0109901F037FA002804D00120C4E701208446EFE701F08BFE2D480021416081600599016021888180022D07D3A17981719F
:4043C000A17AC171A1890181218A418100211EE0481C19E082008B00A75AE65ABE46BE4211D26F463E80B4461E190296B678BE7001967646E6521719029EBB78B3706646B1
:40440000A652019EBE70401CA842E3D3491CA942DED3134822460C3000906846037B0799069800F015F90028B8D168460B4C007B60700B480C3001F071FE0028AED10849DB
:4044400007480C3107F096F90028A7D107F0B0F90028A3D10121217066E70000A00C002054100020F8B5054633480E460078002802D002242046F8BD002E5BD000242F498F
:40448000002D16D02A89D0070DD02868002808D003881B3BE12B04D24088FB2801D81B2801D2012409E0900707D56868002804D1F7E70020088108604860002CDAD11F4832
:4044C0002F8907811C481B21801D018041800421017119490020891C0870F80705D016480622801D2968FEF70CFF1449B80703D56A681148127882700F480D46801D0860F5
:40450000001F486001F06CFE0B48801D01F05AFE28890DF0B9FA28890DF020FC03461033FFF794FE1F21C018890140180249308088809FE701249DE7A00C00206010002059
:40454000FFB58446384F1C460020BB883F78054602460646002F11D100290ED0029999420BD36146002908D0002C06D00A99002906D02E4B0B99994202D2012004B0F0BDD5
:40458000002144E0AB001F19BF78002F3BD0E35A002B38D07B43591889B22B0000F04AF8050410161C253100A7782388BC46FF27233BEB37BB4222D26346032B1FD322E05C
:4045C000A388002B1FD0302B19D31CE02389002B19D0282B13D316E0A289002A13D01346134F233BBB420AD20DE0268A002A0AD033460F4F233BBB4201D2964203D901209F
:404600000EE0002001E000280AD16D1CEDB2099B9D42B7D31C2463435B1802998B42ACD89642AAD8AAE70000A00C002079020000BAFF000030B47446641E2578641CAB42F9
:4046400000D21D46635D5B00E31830BC18470000FFB583B0002469460C801F4606468C80002806D00598002803D004983043800701D0012466E0002FFBD034490498098895
:404680008842F6D3FEF706FAFEF7EEF900F00EFC002855D100F076FD002851D12C49084601F0E4F805042D0C4AD12A480499066081800021C18007810C98007AC00704D09B
:4046C000684601F015FD040007D10C98007A800703D501A801F014FD0446BF1DFEB2002C20D13146059800F05DF804001AD10DF043FB040016D16A46108892880836851867
:40470000144AF1B29088D288AEB29319984207D3401B801A80B201F099FB050007D000E0FF25012400F05AFA002D04D008E0F8B200F01CF9F6E700F07DFA0749012008708C
:4047400000F0C6FB204607B0F0BD0000A40C0020914800006C100020AC0C002010B503480078012801D101F013FA10BDAC0C002070B5084B0446DA889E8800205518B542AD
:4047800006D81D68AA182260DA885118D98070BD032070BD6C10002001480089704700006C100020F0B587B007460D4600208900009006916846FFF7DBFF844600285DD106
:4047C000304800990160002117E02E4B88001A680629115406D22C4C0419667882185670628805E0C419203CA67A8218567022891B68C018491C4280C9B2A942E5D3002476
:404800002DE0601CC2B2059025E01E4FA30039689600581840887118039604904E88B04217D938466F46FE80B6464F786E4677710297049F4F800168039F5E1876787918D9
:404840004E700168764659184E800068029F18184770521CD2B2AA42D7D30598C4B2AC42CFD36046002809D168460699FFF780FF8446002802D1054900980860604607B021
:40488000F0BD0000B00C002000600100B40C00207047000010B5002809D005494A68002A05D0011F08788000105801F07DFA10BDB00C002010B50446FFF76EFFC0B2801D98
:4048C000A0420CD307484068002808D0A100405801F0DCF9002801D00470001D10BD002010BD0000B00C0020F8B516460D460446FFF752FFC0B2801DA04203D20020C0430B
:404900000090F8BDB2B2E9B2684601F0E5F90099481C03D0024AA000526811500098F8BDB00C0020F8B50746FFF736FF801DC6B20A49002005460C680DE06178002907D084
:404940006188B94202D32078FFF7B4FF002804D1241D6D1CEDB2B542EFD3F8BDB00C002010B5002801D0FFF795FF10BD70B506460948002504680BE06178002905D0628879
:404980002078121D0023FFF7AFFF241D6D1CEDB2B542F1D370BD0000B00C0020FFB581B00A9C16002BD000F0EFF80546042826D0214F002C0BD02046FFF7B4FF2901C919CA
:4049C000486000281BD022460499FEF79AFC1A4928010E5046187481019805707D20029CC000444300F0BEF8074604280AD000F053FAA0420ED800F04FFA201A06E0FF2029
:404A000005B0F0BD204600F0ABFA0020F06035720020F5E700F040FA009000F0B7FA00980121001B009000F0EDF803493A0151180098C860E6E7000078100020F8B5060198
:404A400016483418217A042903D0E068002802D017E00020F8BD00F01FFA054600F096FA00F0A0F804280CD001010C480F18F8680021451900F0C6F80020F860284600F09F
:404A80006FFA6068054D002801D0FFF769FF042020720020A8516081E060DAE778100020FEB500266A46304601232549050169180D7A042D02D0C96800291BD00021115456
:404AC000401CC0B20428F0D300246846005D002830D01B48210108184189476805680291002101604160042241810272C160002E02D015E01354E3E700F054F804280ED078
:404B000001010F4808180190C6680021304600F079F801980021C160304600F021FA0126002D07D038460299A847002F02D03846FFF716FF641CE4B2042CC6D3FEBD000092
:404B4000781000200EB5002005216A460090118150810348694600680DF083FF0EBD0000B80C0020074A0020010189180B7A042B02D0C968002903D0401CC0B20428F3D3CA
:404B800070470000781000200549002002015218127A042A03D0401CC0B20428F6D370477810002030B50A4B04200A4C00210A011219157A042D06D0D268002A03D09A4258
:404BC00001D808461346491CC9B20429EFD330BDFFFF0000781000207047000030B50020074C05460423020111190B72A5504D60401C4D81C0B2CD600428F4D330BD00005D
:404C00007810002030B5094C00231A011219157A042D04D0D568002906D02D18D5605B1CDBB2042BF1D330BD2D1AF7E778100020002070471CB5002469460C701420019072
:404C40002346054A05480DF011FF04480068401C00D1FF2420461CBDB14C0000B80C00203EB5124A0146FF2000230124126800290DD0012914D0042908D104206946009307
:404C800008814B8110460DF0ECFE80B23EBD6846009304814381694610460DF0DDFEF4E768460093048143816946EBE7B80C002070B545890468416800890300FFF7BAFCC4
:404CC00008280509091E22282628002005F024FC1EE0022908D0C8B22A4621460CF03CF82046FFF73DFE13E002202A4621460CF033F82946204600F00DF809E000200DF086
:404D00009FFB05E02046FFF7CBFE01E0FDF740FF002070BD014B0022DB681847BC0C002070B5448905680089022803D0032809D0FF2070BD2246094C0023A46829460120C5
:404D4000A04708E0FFF7AEFA241DA2B200232946022006F0D8FB002070BD0000BC0C002070470000024800214160018041807047BC0C002070B50C46002186B0164603911D
:404D8000012802D0022859D116E003A9012006F002FC01281BD1039D324621462846FEF7B0FA0095287801900220694608814E816846FFF7B5FF41E0214D002B686809D0A2
:404DC000049004A9022006F0E6FB01281DD0022006B070BD002812D0298840182146FEF790FA28880024801980B228806988091D884206D12C801348FFF792FF03E00320D2
:404E0000E6E788421AD96C6018E004986860E278A378110219430B4A698000231060E3565360032313815181A1788170E178C1706178417021780170042028800020C7E7D1
:404E4000BC0C0020B81000203EB515460C46022803D004280CD000203EBD0091019002206946088107484A8100680DF0FAFD07E00BF072FF044B0022DB68294620469847F5
:404E800001203EBDB80C0020BC0C0020014AD16090607047BC0C0020034801688068081A0A21484300097047C410002010B5FDF7E1FD482204490548FEF723FA03490120BD
:404EC000C870002010BD00001C600100C814002010B5FDF7C3FD10BD70B5134C2368002B08D0207B1149C20705D04008400020738868A08070BD88680B4AA18880B2926837
:404F0000814203D90A4D691A091802E0814202D2411A5118A160A080A0689842EAD30DF0BDFD00F013F870BDC4100020C0102E40FFFF000010B508461946FFF7A7FF10BDF0
:404F4000704710B5FFF780FF10BD000003480021016041608160C16070470000C4100020024610B5FF20002A0CD0FFF7EFFF064C0321207B0843207310010A21FEF78AF8A0
:404F80002060002010BD0000C410002000B504480A21806848430209FFF7D8FF104600BDC41000200248007B8007C00F70470000C410002010B54B490868002802DA4A4BEA
:404FC00001221A70022290430860484800694549C00B4031096A0246C907C90F0A4259D0012000F097FA3F480E216C30FDF744FC3E4820218430FDF73FFC3C4814219C30B3
:40500000FDF73AFC3948FF21C131A430FDF734FC3648FF212F31B030FDF72EFC33483449BC30FDF729FC31483249AC30FDF724FC30492E48491CB430FDF71EFC2B482E49AE
:40504000B830FDF719FC29482C49CC30FDF714FC26482B490830FDF70FFC24482949A830FDF70AFC214828498830FDF705FC1F4826498C30FDF700FC1C481921C90290305E
:40508000FDF7FAFBFDF706FCFDF70EFDC0B2022812D01FE000290BD0002101420AD0114801216030FDF7E8FB0120FDF7CBFC97E70121F2E7FF2010BD15491648FDF7DCFBA9
:4050C00014481549001DFDF7D7FB124800210830FDF7D2FB54200449C043891C0870002010BD000000F02E40CC0C002000002E40320300002F3F00003102000010520000D5
:40510000EC160000FA12000031D000003AE300009956000080012E40F80F000070B50646581C80B245086D00002408E0304600F0C1F81055000A1119A41C4870A4B2AC420D
:40514000F4D3D80705D0D0182038D15CC47FD454C17770BD30B50A4C002100195B1E07E0541864782502545C2C430480891C89B29942F5DB994201D1515C018030BD00003D
:4051800000102E4010B5FF2000F0C4F90F49FF2048700E481021801D41800121417001700A490020C91C4870FFF704FF04000AD100F010F907210648FDF750FB044807217E
:4051C0001830FDF74BFB204610BD0000CC0C0020CC112E4070B5002405465B1E0AE0284600F068F8010A161971702D1D1055A41CADB2A4B29C42F2DB9C4203D1284600F008
:4052000059F8105570BD000070B500210A4D5B1E0AE0541864782602545C344346193480001D891C80B289B29942F2DB994202D1515C4019018070BD00102E40F0B50599E7
:40524000091FCFB200217E1E0BE0541864782502545C2C43164D45192C80001D891C80B289B2B142F1DBFC0712D01C78515C24020F4A0C4381180C809C785D78001D2102B2
:4052800080B2294384182180001D80B2D9780CE059781A7809021143054A84182180001DD9789B78090280B2194380180180F0BD00102E40014940180088704700102E407C
:4052C00010B50B490020487000F084F8002000F047F9002000F034F907210648FDF7BEFA044807211830FDF7B9FA002010BD0000CF0C0020CC112E4010B50B46062812D0E6
:4053000006DC01280CD0032801D1FFF7D9FF10BD0A28FCD00B28FAD105480078107010BDFFF730FF10BD1146184600F035F910BDD20C0020F8B5244DAC6A0127A007234EDC
:40534000002816DA307806280ED1286A384328621F480069F903084381B21D481030FDF78BFA042000F0D6F8174802212830FDF775FAE00718D000F03FFF01280FD100201C
:4053800000F09EFF062000F0C5F81049FF20C91E48707078002802D1686B384368630A4801212830FDF75AFAE0050BD53078042802D1052000F0AEF80348FF21013128304A
:4053C000FDF74CFAF8BD000040F02E40CF0C002000002E4010B503212348FDF74DFA0120FDF722FB20483038406A204C80076178800F890001431C480C38FDF73DFA6078A9
:40540000002808D0401E022181401820FDF732FFC000083800E0B82081B21548FDF72CFA1348032109021438FDF726FA10481149B830FDF721FA612189010F48FDF71CFA6B
:405440000D480321001FFDF717FA0C490C48FDF713FA0B480B496038FDF70EFA084801218838FDF709FA10BD70F02E40D20C0020D8102E4090890000041E2E40FF0F0000DB
:4054800058122E40209000000849087806280BD148780749002803D1486B400840004863C86A01221043C86270470000CF0C002040F02E400148007870470000CF0C002002
:4054C00000B50300FFF7B6F8080D050D0B070507090D012000BD032000BD042000BD022000BDFF2000BD0000074A9168D26889B2064B92B2994204D105498A4201D1012189
:4055000000E000210170704780002E4033D000003FE3000010B50446FDF7A6FA072C01D9FF2C01D102480470FDF798FA10BD0000CF0C00200149487070470000CC0C0020C5
:4055400010B5064A012805D01921C9021046FDF793F910BD1D21C902F8E7000090002E4010B50A4A141D012808D009491046FDF783F908492046FDF77FF910BD0449104694
:40558000891CFDF779F90349491DF3E788002E4031D000003AE3000070B50C460546FDF783FAC0B202280E49287804D0FF2810D04C280CD810E0FF2809D10A4AD0680004C6
:4055C000800F032801D0087807E09069000A553803E00878207070BD4F382070087070BDCE0C002000002E40F0B50122002830D000292ED00424420600D005247923420681
:405600005B06D21800D0641C034600221EE00C2516466E43104D00277519AF720E4F002ABB51696007D0661EB24209D10B4E86197606760E05E05E06760E8027BE1B00E04B
:4056400080269B198919521C2E81D2B2A242DED300221046F0BD00005013002079020000F8B507460020002F03D100F073FE002827D1154E002421460C2251438D19AA7ABD
:40568000012A0DD12A8971586868FDF719F8002800D028200021A972002F05D0282803D0641CE4B2062CE6D3641CE1B207E00C224A439219927A012A04D0491CC9B2062972
:4056C000F5D3F8BD2820F8BD50130020074900200C2242435218927A012A05D0401CC0B20628F5D3002070470120704750130020F8B50F000446164609D0184D184968684D
:40570000A04202D94018A04201D38E4201D90120F8BD39462046FDF7E5FD00281BD0324639462046FDF7EDFDF0B200210C224A43521913895668F718A74208D90127A41B12
:405740001B1B9772834206DAC01A1469C0B2491CC9B20629EAD30020F8BD0000501300207902000010B500F05DF80748054AC16806480C46FDF7C5FD04492046FFF734FFDA
:4057800010BD000079020000D80C0020D4100020002070470020054A002902D0012902D002E0506000E0906000207047D80C002070B5084C154608460549A26889182A4694
:4057C000FDF79FFDA0684019A06028B270BD0000D4100020D80C00203EB50A226946FFF7E7FF044606480A2200686946FDF77AFD002802D00020C0433EBD20463EBD000040
:40580000D80C0020002802D0044A914201D2FF20704703490A61C8600020704779020000D80C0020024800214160816070470000D80C002070B5074C154605486268801841
:405840002A46FFF755FF60684019606028B270BDD4100020D80C002010B503490A220968FFF7E8FF10BD0000D80C002010B50F4A002313600E4A13600E4B18600E4801601B
:405880000E49012008600E490860000290600E490C4808600D4914300860FF381538506000F0BCF800F0CAF9002010BD040D0020EC0C0020180D00201C0D0020080D0020BE
:4058C000F80C002098140020FC0C0020100D0020014610B50020002910D0094B1A689C685118A14209D25868196080188A0704D08A07920F891A091D196010BD002010BDB9
:40590000EC0C0020F8B50024164E671E321F3D463168136806E01422624310328A58521C1BD0641C9C42F6D36A1C14D02C461422544322460C3288500C214843FFF7C8FFAC
:405940003168002808510AD031680020103408517068401C70602846F8BD2546E4E73846F8BD0000FC0C0020F3B50026F64381B000281BDB1E490968884217D8029900297A
:4059800014D01B4F142204463F1D54432546396810354859401C09D0FDF766F838682F1F4159C359994203DBFDF758F83046FEBD214608310091465801590C2070430818B3
:4059C0000C220299FDF79DFC0948761C001D0068C159B14200D100260549009A091D865008684159491C4151FDF738F80020FEBDF80C0020002803DB07490968884202D971
:405A00000020C043704704491422091D096850431030085870470000F80C0020F0B500200D4A451E0346171F50600FE014260146714314680E1DA3510C4616680834335167
:405A40001668083435511468401C635039688842ECD30020F0BD0000FC0C0020F3B50026F64381B0002841DB2349096888423DD8029900293AD0204F142204463F1D544354
:405A80002546396810354859401C2FD0FCF7ECFF3868415900292BD0211D009146580C21005971430F46C1190C220298FDF729FC11480021001D0068761C00590C34C019A3
:405AC0000160416081600C48001D00680159B14200D100260849009A091D865008684159491E4151FCF7BAFF0020FEBD3046FEBDFCF7B4FFFAE70000F80C0020FEB504465C
:405B00000D4600201E49089E0860471E009001900290002C11D0486885420ED2002A0CD0002E0AD0642E08D808460C3001681C2068430C18207A002801D03846FEBD012096
:405B4000226020721846FFF7DDFE6060401C13D06681A6810A4827610C3067610179A94200D205710021684601810A462846029B00F040F82846FEBD00202072DDE70000D7
:405B8000040D002038B50124009400F039F838BDFEB50027164EFF433D4600240EE01C20316860430818017A002906D04068FFF721FF002801D0254603E0641C3079A042C1
:405BC000EDDA681C12D01C2130684D434419FCF74BFF69466068FFF741FF0546FCF73EFF002DD9D1216868468847D5E7FEBD0000100D002038B50024009400F001F838BD3D
:405C00001FB500220C49541E0A60002811DB496888420ED808491C220C31096850430818406801A9FFF7A0FE401C02D0002004B010BD2046FBE70000040D0020F0B50021E4
:405C4000114A4D1E174611710C3F0B46BD6016E008461C2460431668041D355114680646235014680836A3551468361DA353044616680A34335318301468491C25507868BE
:405C80008142E5D30020F0BD100D002038B500210091002811DB0F49097888420DDA0D4D04010C3529680859002807D0201D0818694600F06FF9002801D0002038BDFCF72C
:405CC000D3FE28680F34015D491E0155FCF7C6FE009838BD200D0020F7B582B0002502986E1E06602E48D21C024017462D4A2C4610460C380178106805E02301C358002BFF
:405D00000FD0641CE4B28C42F7D3711C28D03401211D40180191039900F02AF900281FD101E02646F1E71F48016820460C300F521C480399026820460E30115419480399C5
:405D4000026820460F3011540398784300F0A0F8144900280968085102D00024009011E001251AE00F48016801980818009900F02CF9002801D0012502E00098C0190090C2
:405D8000641CE4B203988442ECD3002D05D10298066004480179491C0171284605B0F0BDFCFF00002C0D0020F8B50D4600216A468C461180002839DB23490978884235DAB3
:405DC000214B04010C3319680A59002A2ED020460C300B5A801C0E5C184670438018954224D3854222D2002006E007465F43BF18AF4206D0401CC0B2B042F6D360460028BE
:405E000014D0114E271DC8190C366A46294600F006F900280AD168460088012808D030682946C01900F0D1F8002803D00120F8BD0020F8BDFCF718FE30680F34015D491C8A
:405E40000155FCF70BFEF3E7200D0020F8B50F46002400F031F8002817D10C4900220B460C334A600EE021011D680E466A501D680C36AA53B61C1D680F31AA551D68641CA7
:405E80006A54E4B2BC42EED31A71F8BD200D002000280BD0C01C074A81085068890053884118994203D89368516018187047002070470000200D0020F8B5064600200F4D32
:405EC000009029700C0121466846FEF751FC00280CD129460C3100980860301B001F84B221466846FEF744FC002801D0FF20F8BD6C800098A8600020F8BD0000200D0020FF
:405F0000F8B5002827DB19490978884223DA174C05010C342168485900281CD028460C30085A009028460E300E5C401C0E5420682F1DC01900F064F800280CD120680024DF
:405F400045590EE0094829460C300068C01900F03CF8002801D00120F8BD00982D18641CE4B2B442EED30020F8BD0000200D002030B50D4604000BD0A800FFF789FF60609C
:405F8000002805D000202570C0436080002030BD012030BD70B50D46040005D0002D03D00220205E002801DA012070BDFCF75CFD0221615E60688900405828606088401E0A
:405FC0006080FCF74BFD002070BD70B50D46040007D0002D05D002212078615E401E814201DB012070BDFCF73FFD6088401C00B26080616880000D50FCF730FD002070BD07
:4060000010B5040009D0227800216068FDF782F90020C0436080002010BD012010BDF0B500231D46002802D00224045F0AE00120F0BD46689F00F6598E4201D1012503E041
:406040005B1CDBB29C42F4DA15700020F0BD00000148007870470000340D00207CB505460024FEF71FF9A8796946087000A8062229460130FDF745F90021684604F012FDDC
:406080000C2806D0072806D01F2806D0122806D006E0022404E0042402E0272400E0012420467CBD10B50024FEF7FCF80021084604F0FCFC0C2800D10224204610BD10B56B
:4060C00000F0A2F9FFF7F6F9FFF7FAF910BD70B504460025FEF7E6F8002C06D0A079012803D8214602F0BCFC00E00125284670BD01460120002902D0502008800020704710
:4061000001460120002905D003485422007850430880002070470000360D002010B502460D49FE204870032410460CF0BDFF002810D10CF061FF00280CD105F089FA0028F3
:4061400008D100F057FB002804D104F051FF002800D10024204610BD340D00207CB505460024FEF79FF8A8796946087000A8062229460130FDF7C5F80021684604F0A4FC1A
:406180000C2802D01F2802D002E0022400E0072420467CBD70B50025044600280ED0A07901280BD8FEF77EF8A0790028204602D002F0FCFF03E002F0D1FF00E00125284665
:4061C00070BD0000014610B50120002904D006220248FDF796F8002010BD0000400D002001460120002903D0087802490870002070470000360D00200148007A704700009F
:40620000D015002038B504460120002C20D0617801291DD800290BD0FF25E535FEF742F80C4828180088C0B22070072803D00EE0FF25CD35F2E70020694608706846FFF784
:4062400053F969460878012801D108202070002038BD000000102E4010B507480024807B002806D00448203002F02AF8012800D1FE24204610BD000010150020014A00217C
:4062800092681047340D002008B500226B461A7026280CD0094A342852680BD0352805D1900703D50021352005F0A4FA08BD19462620F9E7D007F9D03420F5E7340D00207E
:4062C0000149087270470000D0150020F8B504460120002C26D06178012902D92278092A20D8002905D0FF25E5352078092803D004E0FF25CD35F8E708202070FDF7D2FF03
:406300002078114F114E08280DD00020FFF728F970780128207810D00D4969180880FE2070700020F8BD0120FFF71AF90720B8810549203188800120F2E7B88102482178C0
:4063400020308180EBE70000C0112E40340D002000102E4010B509480024807B00280BD0FFF7A8F8062801D0032800D12824FFF773FFFE2800D12824204610BD10150020A4
:4063800070B50E46050001D0002400E00C4C002C11D0E28A500609D5D107C90F022002F099FFE08A40218843E08204E0D107C90F012002F08FFF3146284602F077FC70BD85
:4063C00030150020F8B50546002004460D4E009013E022466946284600F0CAFF0098002801D00CF043FEA878214602F097FAA878214602F085FA641CE4B2308AA042E8D878
:40640000F8BD0000F815002038B51E4CFFF752F8042813D0052811D0062812D003282AD007280AD100206946087002460120FEF763FFFFF73FF80128FBD138BD00F06BFB13
:4064400038BD02F0C1FA00F066FB02F03DFB8007800F0228F4D10C4841880029F0D05B21095D0029ECD101210170A07D0140022002F030FF38BD02F0ABFA0120FFF74AF813
:4064800038BD0000301500205A0D0020F8B50646002402F08DFF0546304602F0A3FF03460A480021068A0DE001228A401046174628401F40002803D0002F01D1224394B2C4
:4064C000491CC9B28E42EFD82046F8BDF81500201CB50020694648706846FFF793FE01AA69460A20FEF708FF6946042008561CBD70B50D4601F01CFB04000BD020790028A6
:4065000008D0FDF7CFFEE178A0782A4602F054FC002070BD022070BD0148007870470000081500204030C07E002800D00120704700B500F001F800BD902148430749084A97
:4065400040186030417F491CC9B24177D289914201D300214177C8B27047000010150020F815002013B501F0E3FA04000BD001F080FE002807D0214601AA0A310620FEF712
:40658000BBFE00201CBD02201CBD000010B50C4601F0CEFA00280AD001F06BFE002806D0224604490A20FEF7A7FE002010BD022010BD0000F1140020F3B581B0074601461D
:4065C0000026029802F0ECFE0446002F01D0002500E0154D002D21D0284601F0DFFA032C04D13946029802F037FF06463846029902F086F9032C06D0002C10D0012138462C
:4066000001F0D2FB03E03146384603F021F9284602F06AF80221284602F080F8FEBD3846029902F06DF9FEBD3015002010B5044600F05AFA002804D103F0C2FD002801D0B3
:406640000C2010BD2078611C02F0B8FCFF2801D01F2010BD02F0FEFCFF280AD02178621C02F0DCF8044821780068026B601C904710BD072010BD0000800D002010B503F065
:406680009FFD002801D00C2010BD02F079FC03480068C06A8047002010BD0000800D002070B50D46044610210CF020FC1021601806460CF01BFC334610221946204603F031
:4066C000ADFD102130460CF011FC02202870204604F0C4FB70BD0000F8B504464078217802028006870FE0781143A67809050002090D0643084601F01BFA00210546F2B23B
:40670000002812D0002C10D0022F0ED0032F0CD0002A0AD00279092A07D0002A05D0134A5A23527E1B5C9A4207D82889002104F0CAFA20460CF09AFCFF21002914D10C48BE
:40674000224600682946436930469847C0B2FF280AD128464030817EF2B2491C8176FF232146284600F0E3F8F8BD0000C81400209C0D00200020704710B5044603F020FD56
:40678000002801D00C2010BD2078611C02F016FCFF2808D002F04EFB044821780068426B601C904710BD1F2010BD0000800D002010B500F05FF904F01BFC002010BD10B5F7
:4067C000044600786178E2780843A17811430843217908436179084305D003F0E3FC002803D00C2010BD122010BD204602F0DEFC002010BD10B5FCF757F902F0FBFD0448A0
:4068000003F04AFD02F020FB012000F003F810BDD8140020F1B586B003A8009005A8019028489F22817A114081726846FDF754FD002845D169460989C90705D02248069947
:406840000068C2686846904769460989890706D5002835D11D480068816A0698884700282ED11B4E0025757075737571F575357675767575B570F570B5713746F5730120FA
:40688000CC3738731F20F880FF2130467972A0300176457600F0C4FA00242046069901F093FC002803D1641C2406240EF5D0FD720749BD72B573C0310D704D704D600D728F
:4068C00007B0F0BDC81400209C0D0020800D00201015002070B505460E46084602F068FD0446304602F07EFD0121A9400A46224001400A4301D0012070BD002070BD10B56B
:406900000446084602F06EFD0121A140014201D0012010BD002010BD10B5FEF7CBFD032804D102F055F80120FEF7F4FD10BDFEB51C4616460F46054601F0D6FEA878FFF7EF
:40694000F7FD02460190334639460094284600F00DF8002808D1A8780199FFF711FDFF2C02D138460CF082FBFEBD0000FFB585B005460E980C46FF2810D02B49C000096814
:406980000A5840180179C0795278814201D9012601E09006860F6846038108E06078A1788006860FE0780002014368460181284601F06AFC070007D021462846079A00F0D3
:4069C0006BFC384609B0F0BD304600F019FD04AE0346039002AA29460096204600F0A5FB3C20405D002818D0284601F04DFC012813D0684600890096C0B20190A878231DAE
:406A0000FF22079902F006F968460089039BC2B2A878079902F046FCD3E7684600890021C0B20091E9E70000980D0020F8B5104F002500242846FFF729FD060012D00EE008
:406A40003046E040C007C00F07D02146284601F04FFF21462846FFF7AFFD641CE4B2388AA042EDD86D1C2D062D0EE2D0F8BD0000F815002010B502F0E7F90020FFF7CAFE09
:406A80000CF08AFB002010BDF8B5002400F0B2F80123012800D10124104F00203E4620360425082203E0002801D0002100E031460979002907D001290BD002290BD01146D6
:406AC00081402143CCB2401C0006000EEBD07C70F8BD1C43F7E72C43F5E700001015002010B5FFF7D1FF10BD10B5044604F0D2FB002802D1601C00F001F810BD1CB5002410
:406B00000094062269460194FCF7ECFB002800D1122420461CBD10B5FBF7CBFD0446FEF7C9FC012809D0FEF7C5FC022805D0FCF70BFA2046FBF7C1FDEEE72046FBF7BDFDDE
:406B400010BD10B50B4681791943817103D08078114602F075FB10BD10B582798A43827102D1807802F080FB10BD000030B50C4C0220A28A0B4B9978002901D0022906D126
:406B80001D785B78EB18282B01D9032002E0032900D101205105490DC0020143A18230BDC0112E40500D002000B500F029F8002807D0012805D0032801D0042801D00020C0
:406BC00000BD012000BD014600B50020C90701D000F010F800BD014600B50020C90701D000F008F800BD00000148006870470000480D002001480088000A704720102E4011
:406C00000448008B410501D5042070474007800F7047000000102E4010B501F01BFF044601F058FF0146204601F03CFF10BD00000148406870470000480D002038B504461F
:406C4000000610D5FFF7DCFF01280CD1684601F0CFFE6846007800F023FB012001F0ACFD0220FFF73DFF600708D507480179012904D1002101712620FFF706FB0348006814
:406C800001692046884738BD540D0020800D002070B505460C49007800240870FFF7AAFF012803D1FFF7B8FF022803D3284602F0E9F907E0284600F0EBF8040002D1034864
:406CC00001210170204670BD500D0020D015002070B50446FFF78EFF002801D00C2070BDA27B01211F48002A827801D00A4301E05208520082706279012A14D0C1784908CD
:406D00004900C170184D2868016820468847207901280CD06188208803F014F82080207904280FD015E0C2780A43C270EAE72868C168E01D8847E01D02F024FA0B48808C64
:406D4000208006E02868C168E01D8847E01D02F019FA074920798870204602F0A1F9002070BD000010150020800D0020C8140020500D002008B50178FFF73CFF814201D17F
:406D80000C2008BD002914D0072069460870FFF70BFF012807D10121684600F0D9F8012801D0092008BDFFF7E1FE02F0ADF9012011E0FFF7F9FE012806D1684601F018FEEC
:406DC0006846007800F0A0FA02F094F9FFF712FF0028FBD10220FFF783FE002008BD000070B505460C49007800244870FFF702FF012803D1FFF710FF022803D3284602F079
:406E0000FFF907E0284600F05DF8040002D1034801214170204670BD500D0020D015002038B568460CF0B8F8002801D01F2038BD01210098C902018041800025057145712A
:406E4000857107214173857302F02AF9009C202200212046FCF75EFA25702A460021601CFCF758FA204602F00DF9204602F0C8F900980CF0FBF8062200210448FCF74AFAD2
:406E800002480C388560002038BD0000540D0020F8B504460025684600950CF07DF8002801D007250AE0064E009830602278611C401CFCF726FA3168207808702846F8BD1C
:406EC000480D0020F8B504460025684600950CF063F8002801D007250AE0064E009870602278611C401CFCF70CFA7168207808702846F8BD480D00200346084800B583429C
:406F000009D8184600F014FE002804D00089984201D1012000BD002000BD0000FF0E0000074A9179491C8906890E917138220A4092014907090E11430843024908407047A8
:406F400010150020FF0E0000C006C00E70470000F8B507460E4600240D4803E0002C01D0002500E005462979002905D0641C2406240EF3D00020F8BD0021204601F024F9D4
:406F80002E712046FFF7CCFF28813C700120F8BD3015002010B503F075F90222002100F003F801F0FDFE10BD10B5094B40074907000F090F185A595A40185043C008642138
:406FC000FCF768F8002800D1012080B210BD000064600100F7B53D20405C88B015460C46002802D02878042802D200200BB0F0BD6946087200262046FFF794FA012800D082
:407000000126204603A938300191009023460327A17E34333246206A03F058F902A8089900900B46019120463A4603A9243003F0D5F802466846007A2870204601F0B0F8C3
:407040001046D3E7FFB587B00C4605461078694608723D20005D1746002826D000262046FFF760FA012800D00126204603A93830019100902346A17E34333246206A03F016
:4070800025F902A80090291D019120462B1D03A924300A9A03F0A2F802006846007A388002D1204601F07CF810460BB0F0BDF0B505463C20405C89B016460C4600280CD0B0
:4070C000307869460873002806D000272046FFF729FA012803D003E01F2009B0F0BD012703200890204604A93830019100902346E17E34333A46E06903F0E8F86846007B22
:4071000003A928180290009120462B46019504A92430089A03F096F802466846007B3070204601F047F81046D7E7FFB505463C20405C89B016460C46002810D0084601F0CF
:40714000A3F801280BD0308869468883002809D000272046FFF7E6F9012805D005E000200DB0F0BD0220FBE70127204603A93830019100902346E17E34333A46E06903F07B
:40718000A5F8291D2B1D07A8129A6D4607C5204603A924300C9A03F055F802466846808B3080204601F006F81046D9E770B50D460446FFF7B7F901280AD0E87AA97A000270
:4071C0000143A07801F0E8FC012808D0002070BD00222421204602F007FD242070BD28214C200155204600F0B1FB282070BD0000002801D0002000E003484030C07F01283E
:4072000000D0002070470000301500200146002049070ED50021084B03E0002901D0002200E01A461279022A04D0491C0906090EF3D07047012070473015002001460020C1
