:400000000040002011000000910700009107000008B500F0D7FBC04610B572B6574B002480221C600021D200554802F063FC80220021D200534802F05DFC534A0123137029
:40004000524A53491370534A99231B041360524AC4201460514A8002146020220A605049086050493C200A604F4A802111604F4AC90311604E4A8021090211604D4A136009
:400080004D4A13604D4B802212061A604C4B022219780A431A704B4A11788143142001431170197816220A431A70474B12221A60464B1978464BC9B21A78464BD2B2587AE5
:4000C0000F2810D99879997ADA7A0F280BD9D878D9791A7A0F2806D9187819795A790F2801D959789A783C4B052019603B4B1A603B4B11221A6001F067FE3A4B05201A782E
:40010000394BD2B21A6002F001F901F069FFFA20400002F0D7F8012001F07EFF334A344B08211A60334B8022D2051A60324A334BFA201A60114BC0001A688A431A6001F0DA
:400140001FFF2F4802F0E2F82E4B902212011A602D4A2E4B2E491A602E4B802212061A602D4B40221A60184A0023136003220A602A490A602A4A136010BDC0466CF02E409C
:4001800000300F4000400F4002600F4011600F4000010440000102400000024008000440080104401801044000020440080204400C02044010500F4020500F4024500F40E9
:4001C00000700F4001700F4030001040CCF1FF0FCDF1FF0FC0F1FF0F1CFF0B4020FF0B402CFF0B40DDF1FF0F28FF0B400600008004010B400C020B406A2D00007C002E4066
:40020000DC0500000003014040FF0080000001403000304008010B400401014030003140000E3F4010B5064C2378002B07D1054B002B02D0044800E000BF0123237010BDC0
:40024000F803002000000000602D010008B5084B002B03D00748084900E000BF07480368002B03D0064B002B00D0984708BDC04600000000602D0100FC030020C800002045
:400280000000000008B500F025FA00F079F800F037FA00F0E7F9F8E770B5161C0C1C8D18002A05DD2078013400F0FAFAAC42F9D1301C70BD08B5402839D00ED942281DD0C3
:4002C00018D31223FF33984206D11D4B5B88002B33D01C4B04221A7008BD022815D02428F7D00128F8D1002000F0F4FB164802F085FBF1E7134B02221A70EDE7114B01228C
:4003000012481A7002F07AFBE6E70B78032BE3D10C4B1A78032ADFD107221A7000F080F90B4B01220B481A7002F068FBD4E78B79052BD1D1034A1370CEE7024BECE7C04677
:40034000C825002044250020642D0100D82D010014040020782D0100064B10B5012206481A7000F055FB041C044801F0B9FB201C10BDC04644250020B50200008504000037
:4003800038B5264C2378042B39D0052B2FD0022B11D003F03BFA224B1B78002B1BD1214D2B78002B05D0204B18780CF009F900232B70207838BD00F04DF80023002800D1E9
:4003C00003231A48237002F019FB03F01FFA144B1B78002BE3D000F097FA154B1B681B04DB178342DBD1002000F05CFBD7E70E4B104918780CF06CF806232370C9E70E4B8E
:400400001B78052BC5D100F031F8002802D108232370BEE700232370BBE7C046442500209C25002014040020B4250020E82D01000802244054010020A525002008B5034B05
:40044000012203481A7002F0D9FA08BD14040020782D010008B5044B58781A780002104300F078FB08BDC046B425002008B5044B002158781A780002104301F01DFC08BD7F
:40048000B425002038B5AA235B00984202D18B78002B00D038BD4C6801F09FFCA2882168013A051C104802F01CFA281C01F099FC01F0F2FD0020012101F006FE00200121BC
:4004C00001F01CFE0949002001F04EFE012001F02DFE01F0D3FD064802F090FA054802F08DFAFFF7ABFFD5E748250020FF7F00005C2E01006C2E010038B501F061FE4307A0
:400500000CD5444B9A790132D2B29A713B2A06D8414C042001F05EFE0123637038BD5A7900210132D2B25A7199713B2AF0D91A7959710132D2B21A71172A5AD9DA781971AC
:40054000D97901320131D2B2C9B2DA70072900D90121314CD971217888070DD5997802290AD11D2A08D903229A700122DA702378042293432370CCE7217888072ED599788B
:4005800002292BD02548401801380078904225D20131C9B201229970DA700C29E7D91A785D78FF2A32D00132D2B201212D0299701543C8211A70281C490002F0EBF80029C5
:4005C0001FD0AB0705D1281C642102F0E3F8002917D12378022293432370C8E721788807C5D499780D484018013800789042BED2CEE7094C0B2ABAD92278042313432370F8
:4006000087E72278022313432370B0E70135EDB25D70C8E74825002015040020082E010008B501F039FD0020012101F04DFD0020012101F063FD0849002001F095FD0120B6
:4006400001F074FD01F01AFD044802F0D7F9044802F0D4F908BDC046FF7F00005C2E01006C2E010010B5164C84B06378002B01D104B010BD01F074FB0023637001F068FB2A
:4006800000F078F80028F3D00E4C0F48E379013B9900CB180D495B000C31C91802F032F96178237820790902A2781943E378009060790190A0790290054802F023F9D7E797
:4006C0001504002048250020A82E0100082E0100AC2E010008B562B601F0F8FBFFF73CFE054801F019FB00F0C3F8044802F086F900F038F808BDC046F9040000C42E0100CD
:4007000038B5032003F07AF8051C01F066FB041C04F031FB032D07D0022801D001F000FE201C01F05EFB38BDFD2318400428F7D100F0EAF8044B1B681B04DB178342EDD181
:4007400001F0FCFDECE7C0460802244008B5044B01221A7001F032FB01F00AFB08BDC0461704002008B5024801F00CFB08BDC0464D07000010B501F030FB044B00221C7871
:400780001A7001F02EFB201C10BDC04617040020FEE7C046094A10B51368094C18188021041B89008C4202DC1060181C10BD02F05DF80C23036001235B42F6E7CC0000207F
:4007C000E0250020F8B5104F002F18D00F4E0025B46830687268002C05D0031C02CB02C2191A8C42FAD1F1680023002903D0D55004339942FBD1013F1036002FE8D102F049
:400800003BF8FFF73FFDFEE701000000CC2F010038B5124B01211A68114C8A431A60114800220023104D04E00133A1500432302B08D0011C032BF7D851590133A150043253
:40084000302BF6D1FFF7E8FB084B00221A60034B012219680A431A6038BDC04600001040000000209107000000000000C000002010B5094C2378002B03D100F053F80123DF
:400880002370064B8022196812060A431A60092001F004FD10BDC046180400200000244030B5124C23685A1C3F3B591E8B415B420F491A400B689A42FCD025680B689D427A
:4008C0000BD00C4B022119600B4BC0B298540B4B22601A681143196030BD094B1F211B680B40082BEDD0074B1860F5E79825002054250020800F244058250020880F244069
:400900000802244040022440044A054B1B68116810688B4200D94030C01A704798250020542500201B4A1C4B10B51A601B4B00241C601B4B01221A601A491B4B07200B6005
:400940001A4908601A4909200C601A490A601A4A13601A4B04221C60194B1A6001F0A8FC0920032101F080FC1649092001F074FC154B1C60154B1C60154B1C60154B1C6083
:40098000154B1C60154B1C60154B1C60154B1C6010BDC0460D00000200002440400024404800244000032440070000800403244010032440440024400002244004022440E9
:4009C0005000244095230000880E2440C80E2440480F2440080F2440C80F2440880F2440982500205425002008B5074A0023138053809380D3801381044A1380538093801D
:400A000001F060F808BDC046B8250020A825002038B5194C051C2378002B12D0002D29D0164B211C0831164817221D6002F004FF002805D1134B01221A70134B08221A707C
:400A400038BD124A1370124A1370124A1370124A138053809380D3801381104A13805380938001F02FF80E4B00221A7001232370002DD5D10120E3E720040020A02500209A
:400A800095170000A4250020A5250020C4250020B0250020C2250020B8250020A82500209C25002038B50A4C012522780023154201D1181C38BD09F089FA031EF9D122786E
:400AC000111CA94321709107F3D52823F1E7C0469C250020164B10B51B78042B02D08320400010BD134C22781342F8D1124B00280DD0012814D0114A1070181C0BF014FFD5
:400B00000028EED12278042313432370E9E7962252001A825A682021118030215180EAE7074AC8211A825A68C90011805180E2E7A4250020C4250020D0000020C2250020B2
:400B4000E8FDFFFF7047C046437800781B0218437047C04610B582B001AC144B20801B7883204000022B01D002B010BDFFF73CFF211C02220E4801F0B4FE0E4B00221A7047
:400B80000D4B191C12311A805A8006338B42FAD101980CF01FFD0028E6D1084B01221A70074B022219780A431A70DDE7A4250020B4250020C325002040010020A5250020B9
:400BC000C425002008B50A4BC2889A4200D008BD084B5A88002A04D182885A8082781A70F5E7054B811D86201B6840009847EEE7052A0000A8250020A025002008B5094B8A
:400C000082889A4200D008BD074B9A88002A02D142889A80F7E7054B011D86201B6840009847F0E702290000A8250020A025002008B5094B011C5A8883899A4200D008BDEF
:400C4000064B83201B6840009847054B01211A788A431A70F3E7C046A8250020A0250020C4250020F0B5564644465F464D46F0B4061C584883B003788046012B06D003B036
:400C80003CBC90469946A246AB46F0BD524A137893469907F3D53589062D08D0142D06D04E4B08201B68FF3000219847E7E772890024002A48D04A4B9A46331C9946161C42
:400CC00003E06419A4B2A6421AD9484640680719062DF6D151468A88BB889A423AD04A899A4245D00A8A9A42EBD151468B89002B51D03A4A0C20391DFF3012689047E0E70D
:400D0000002F21D07A88374B9A421DD102234146354A0B7000231370314B1988002944D1D98800294DD1998900294ED1032313702A4B84201B684000002198475A461378DC
:400D4000022293435846037059460B78012293430B7094E709885046002913D04189914206D01E4B0C20391D1B68FF309847A8E75146CA88002A03D00A8A9A42F1D1B4E7F3
:400D8000504606300422391C01F0ABFD164B1A7801321A7095E71548391C042201F0A1FD11480378013303708BE700214A005118490059180E4B18680CF024FC0028C3D095
:400DC000B6E7012001211070F0E7022002211070ECE7C046A5250020C4250020A025002040010020FFFF0000C32500204C010020B4250020F0B5474680B4314A82B01378DB
:400E0000002B27D12F49304D4988288901312F4C89B26E46318070806488EF89661CB6B2B4468EB21578B046002C35D0012903D0002801D081421FD9012B04D80133DBB225
:400E40000225012B11D015708120400002B004BC9046F0BD012B2AD11C4C618800292BD0194D013189B2E889D3E7002FEBD0BC45E9D8381C0125E0466946157042460A80B7
:400E80006E464880012BDFD8114B18680CF070FB7288104B1A80D9E7012901D0002803D1012BD0D80225CEE78142F9D8E4E700200021054D054CACE700200021024DA8E745
:400EC000C3250020A825002040010020C8250020B4250020C0100020F0B54D465F4644465646F0B4C04F41893B788BB0058989464468032B00D19FE0022B06D00BB03CBCFB
:400F000090469946A246AB46F0BD081EF6D0B749B74A2F1C8B469246B64EA846019014E05A4613785A00D2185200524452884A453AD03378012293434046019933703B189A
:400F40009BB2B942DAD91F1C2C1C201CFFF7FCFD8146A01CFFF7F8FD0290201DFFF7F4FD41460390A51D0829DAD1281CFFF7ECFD524693880235834200D1FFE051464B89FF
:400F8000834200D100E15246138A8342C8D19389002BC5D102235A00D3185B0002980399534418805980BBE75A1CD2B258460270022A00D99CE15100891849005046415AAD
:400FC000002900D024E19A1CD2B2032A0CD0510089184900415A002900D092E1FF2B03D18389002B00D00FE17F4A0323137058460023037051460B88002B00D083E1012326
:401000005A461370CB88002B00D097E152469389002B00D097E1032359460B70724A05231370754B12201B68FF300021984733780222934333707CE7002900D15EE76D4EB0
:401040006A486B49331C83468A462E1C984619E0601D072E73D05A461378041C1A1C59008A18520052445288BA422ED0424613780122934347463B70AB199BB2A94500D8B9
:401080003CE71D1C201CFFF75FFD6A46A3781082E01C9374FFF758FD6B46071C9882152ED6D12620022368440370611D1022103801F017FC59460B7815341A1C59008A18A1
:4010C000520052445288BA42D0D15A1CD2B259460A70022A16D85100891849005746795A002965D19A1CD2B2032A0BD0510089184900795A002900D001E1FF2B02D1BB89EE
:40110000002B51D1384F04233B70584600230370FFF770FE0028A9D081235B00984200D0A4E005233B70344B12201B680021FF30984741460B78022293430B7096E7262724
:4011400001236F443B70FFF7FFFC5B461A786946C88251008B185B0053449B88274F0734BB4200D178E0264FBB4213D0C0277F01BB4268D06846878A131C71E71388002BF3
:4011800000D0FBE6002306E7CB88002B00D0FAE6012300E704A800F0A9FC584603786A46978A59001A1C5BE7022302225846037053009A1852005746BB5A5244518809045A
:4011C0001943104B18680CF0E9F9002800D14DE70223FF33984295D0074B0A201B68FF300021984742E7C046A5250020C325002040010020C4250020A02500200118000060
:4012000005180000B42500200223022259460B70510089184D4B4900514418680CF0F2F9002800D185E680235B00984200D1DBE6474B84201B6840000021984733780222D0
:401240009343337075E6434BC01880B2042891D8414F80003B589F4604A8FFF7B3FC59460B786846878A1A1C5900F9E6384B85201B68400000219847F8E6384BD888002871
:4012800028D16846878ADF80131CE9E6334B988800281FD16846878A9F80131CE0E62F4B5888002816D16846878A5F80131CD7E62A4B188800280DD16846878A1F80131CF5
:4012C000CEE6264B1889002804D16846878A1F81131CC5E61E4B862069461B681631400098475B461A7869468F8A131C5100B7E61B4803230370594600230B707AE6131C6B
:4013000054E7131C82E700235A00D3185B005046C25A53445988090411430C4A10680CF03DF9002800D104E60223FF33984200D174E6074B0A201B68FF3076E6012201237C
:4013400058460270E0E702220223F9E7B4250020A025002000D6FFFFE02E0100B8250020A5250020F0B5454657464E46E0B4424A86B0002369464B8013789046042B05D00C
:4013800006B01CBC90469946A246F0BD3B4A137892469A07F4D5037B02886946078912260B750A80012B3FD04468002F5AD0344A351C91460AE0A11C01A8102201F091FA96
:4013C0001234AB199BB2AF421BD91D1C201CFFF7BBFB6B4658801B7D022BECD0A01CFFF7B3FB4A461378694688800434002B15D0012BE6D1684600F0ABFBAB199BB2AF42E3
:40140000E3D86B465A881F4B1B8893420ED0524613780122934351460B70B1E76846FFF7EDFB49460B78E3E70426BDE7144B1A7801321A70FFF7DEFC0028E8D081235B0045
:40144000984211D1052341460B700F4B12201B680021FF309847524613780222934351460B70D4E70022CEE7074B85201B68400000219847CBE7C046A5250020C425002022
:40148000C3250020C0100020A0250020F0B5474680B4B94C23789A0702D583790A2B02D004BC9046F0BDB54E3378052BF8D8B44A9B00D3589F462378DA07F1D500F0F2FB15
:4014C000EEE70223AF4FB04D337000233B702B88002B00D0EBE001233B70EB88002B00D0FBE0AB89002B00D003E103233B70A74B10201A68FF3000219846904700223A709C
:401500002A8803233370002A00D012E101223A70EA88002A00D02AE1AA89002A00D022E13B7005234246337012201368FF3000219847237802229343237023780122934339
:401540002370ADE78F4F3A78531CDBB23B70022B00D9A2E059008C4DC9184900695A002969D1931CDBB2032B0BD05900C9184900495B00295DD1FF2A03D1AB89002B00D014
:40158000AFE023780122934323700323337000233B702B88002B00D0C6E001233B70EB88002B00D0A9E0AB89002B00D0BEE003233B7005233370754B12201B68FF30B6E71A
:4015C000704F3A78531CDBB23B70022B15D859006D4DC9184900695A002944D1931CDBB2032B0AD05900C9184900495B002938D1FF2A02D1AB89002B77D10423337000234E
:401600003B70FFF7F7FB002897D081235B009842CFD05E4B85201B684000002198478CE7584B1A7801321A70FFF7E4FB0028ECD183E71A1C3A705900C918554B49006918F2
:4016400018680BF0DFFF002800D176E780235B00984296D04D4B84201B684000002198476BE71A1C3A705A00D3185B00EA5AEB185988474B0904114318680BF08FFF002860
:4016800000D15AE70223FF339842B6D03F4B0A201B68FF30002198474FE723780122934323700323337000233B70374D71E700235900C918364B4900691818680BF0A2FF67
:4016C000002800D139E780235B00984200D10EE72E4B84201B68400029E7012201233A70E6E7022202233A70A5E7022202233A70B9E7022202233A70DAE70122131C3A70C3
:401700005A00D3185B00EA5AEB185988204B0904114318680BF042FF002800D10DE70223FF339842B2D144E70023E9E70222131CE5E700235A00D3185B00EA5AEB18598890
:40174000134B0904114318680BF028FF002800D1F3E60223FF33984200D1E2E642460A201368FF30E3E60222131C3A70E2E70122131C3A70DEE7C046C4250020A5250020C7
:40178000F42E0100C325002040010020A0250020B4250020F0B5B54D01232A7883B01A43D2B2041C0E1C2A70422800D1F5E011D9492800D104E139D8452800D17CE000D8B6
:4017C000BBE0462800D1CDE047283CD1081CFFF7C9FD38E0262800D1CCE016D8022841D000D86DE0052800D1F2E021282BD12B78990628D49E490B7D102B00D116E19D4B28
:40180000143118780BF05AF81DE0282850D000D2D2E0402800D1CBE0412814D10222954801F05FF8944B00221A700CE0522838D000D877E0532800D189E0FA2803D18F4A6E
:4018400011780B4313702B7811221A4208D02B78012293432B708A4B201C1B68311C984703B0F0BD0B78032BEDD12B781842EAD0814F3B78022B00D11BE100D8EBE0032B39
:4018800000D10FE1042B05D17D4B85201B684000002198472B78022293432B7000233B70D1E72B78D907CED5301C00F06BF9CAE7744B04221A70C6E7081CFFF7D3F9C2E752
:4018C0000128C0D169460023072768460F704B7003F080FA6A4668461770547003F07AFA694F38688379002B76D10378002B0ED14378002B0BD18378002B08D1C378002B57
:4019000005D10379002B02D14379002B64D001F081FF38680021FFF715F938680121FFF711F96EE04D2800D08DE72B78DA0700D489E7081C00F08CF985E7432800D082E7CC
:401940004988162964D830880CF08CF97BE7081CFFF76EF92B78DA0700D574E730680BF0FFFD70E72B789A0700D46CE7081CFFF7B3FA68E7434F3B78022B00D163E72A78B5
:40198000D10700D45FE7297804220A4245D003233B702B7893432B7055E7364B00225A701A70354B1A78052A34D008221A704AE7081CFFF76BFD46E7324B02221A7042E7C8
:4019C0002B78D90700D43EE7301C00F0FFF83AE70A782E4B1A7036E72D4B2E4F1B78381C3B702D4B1B787B702C4B1B78BB7001F011FF381C0021FFF7A5F8381C0121FFF74E
:401A0000A1F803200AF052FE1E4B04221A701AE7172198E707221A7015E728780821014207D02B783A708B432B700CE70523CB75E5E6032B00D006E7194B3A701B78002BAA
:401A400000D000E70120FFF745F8002800D0FAE603233B70F7E6012B00D01BE7084B08201B68FF300021984714E7C046C425002040010020B4250020A52500209C2500207B
:401A8000A0250020A4250020E4000020B02500207CF1FF0FE80000207DF1FF0F7BF1FF0FC2250020064B0A201B68FF3000219847F0E6034B84201B68400000219847E9E658
:401AC000A0250020044A00231360536093609381024A13807047C046C8250020C4100020014B58607047C046C410002010B5134AC388934220D0124A93420FD0114A93429F
:401B000000D010BD0122104992008B185C88002C0BD184885C8083785354F2E700220A4992008B185C88002CF3D0084B811D86201B6840009847E4E70222E4E7142A00005A
:401B40002B2A00000F2A0000C8250020A025002008B5094B82889A4200D008BD074B9A89002A02D142889A81F7E7054B011D0E201B68FF309847F0E702290000C8250020E8
:401B8000A025002000B50E4B83B05B68002B04D00C4A51888289914201D003B000BD0288694604300A800190002254208A70FF309847054B01211A788A431A70EDE7C04694
:401BC000C4100020C8250020C425002030B51D4C83B06268002A0FD02388002B0CD01A494D889D420AD0CD889D4226D04D899D4225D08989994214D003B030BD00210388F3
:401C000004306D460190AA20A9702B804000694690470E4B01211A788A431A7000232380EAE70388694604300B800190002356208B70CB70FF309047EBE70121DFE70221A1
:401C4000DDE7C046C4100020C8250020C425002030B5114C83B06568011C002D04D00F4B9A892388934201D003B030BD002BFBD06846022200F035FE00236A469370D370BE
:401C800001932380064B01211A78AB208A431A7040006946A847E7E7C4100020C8250020C4250020034B81881A88914201D000221A807047C410002010B582B001AB1880D1
:401CC000124B1B78052B03D08320400002B010BD01290ED0002909D0022905D10C4B5C89002C09D11320F1E70120EFE7084B5C88F6E7074BDC88F3E70198211C0BF0A0FC2F
:401D00000028E3D1034B1C80E0E7C046A5250020C8250020C410002010B5094B802464001C60084B186600F058F8074BC02219680A431A6000F055F8044B1C6010BDC04620
:401D400080E100E00000002008E400E000E100E0024B802252001A607047C04600E100E0024B802252001A607047C04680E100E0034B7F2218689043C0B21860C0097047D7
:401D800010020440094B10B504241C60084B986400F023F8074BC022196812040A431A6000F01FF8044B1C6010BDC04680E100E00000002000E400E000E100E0014B042227
:401DC0001A60704780E200E00230800803D00138FDD1C046C046C0467047EFF3108072B6704780F310887047334B30B519680122880729D5314B00225A61314B1A680023F2
:401E00001204120C2E492F48012B14D0002B09D0022B03D103689A42FCD030BD002AFCD1FCD0FAE70B689BB29342F6D10B689BB29342F7D0F1E70B681B0C9A42EDD10B6890
:401E40001B0C9A42F7D0E8E71968490A0A4206D01A4B5A611A4B1A680123120CD2E71968490C114006D0154B02225A61154B1A680223C7E7114803244161134982610D680A
:401E80002540C5611B685B081A4202D10B68A3430B60094901230A6813430B6002220B681A42FCD04369012BD4D0002BA5D00022022BA7D1DAE7C04610020B40CC10002053
:401EC00000020B4004020B400C020B401C4B70B51A68C0231B021A4203D11A4C2368002B00DB70BD184D2B689B0F04D023685B005B082360F5E7FFF770FF061CFFF774FF7B
:401F000023685B005B082360104B9A69002A03D1301CFFF766FFE4E70D4A01211068884310601268D8695208114205D129680322914302400A432A6000229A61E8E7C04608
:401F400000010B4004010B400C020B40CC10002010020B4038B5041CFFF73FFF064B07221D6806491440E2042C1C0C4014431C60FFF737FF38BDC04600010B40FFFFC7FFAC
:401F8000F8B5114B01221968041C0A431A600F4A0F4B00201A600F4B8022196812020A431A60002C0CD00C4F0C4E01253878FFF70BFF33681D4204D1013C002CF6D1102026
:401FC000F8BD0020FCE7C04660F02E400220000078002E4010002E40580100200C002E400B4B01211A6810B58A431A60094A30241068A04310242043106010680724A04357
:40200000014311601968802212060A431A6010BD00F02E4000FF2E40164B021C1868012170B50840002A15D0012A12D119680224A1431960104907260D68B5432C430C60D4
:402040000C683025AC4320252C430C6019680A431A6070BD1A6830248A431A60064B1A68A243102422431A601A680724A24311431960EEE700F02E4000FF2E4008B5FFF779
:40208000ACFE044BC022196812020A431A60FFF7A8FE08BD00010B4010B5FFF79EFE084B084A196880241140E4012143196019680A40802109020A431A60FFF792FE10BD77
:4020C00000010B40FF3FFFFF0A4BC0001A68431CDA40131C30B5DA070AD4074B03221C68151C8540AC430A408240201C1043186030BDC04610020B400C020B40094BC000C5
:402100001A68431CDA40012310B5134208D1064A0230146883409C438140201C0843106010BDC04610020B400C020B400D490B6803430B60C30703D502220B681A42FCD0D1
:40214000C30505D58022074992000B681342FCD0C30305D58022034992020B681342FCD07047C04610020B40114B70B51A68061C0D1C920F5D23002A00D1C9230D4C20788E
:402180005843FFF721FE0C4B0C491A68300181408A438540101C28431860054B1A681F23920F00D1432320785843FFF70DFE70BD0C020B405801002008020B40FFFF00003C
:4021C000024B1868024B18407047C04610020B4004040400F8B5061CFFF7FFFD194CC02523682D02071C2B4223D0FFF7F6FD2268154B8021C9011A400A43226022681340BB
:402200008022120213432360FFF7EBFD0F4B104A196816400F4A0A4016431E60FFF7DDFD23681D432560FFF7DCFD381CFFF7D9FDF8BD064B064A19681640064A0A401643DD
:402240001E60F2E700010B40FF3FFFFF10020B4004040400FBFBFBFF024A83009B181868196070474000002038B5041C0D1CFFF7B4FDA308084A9B009B1803221440E4000F
:4022800019680634A2409143A5400C1C2C431C60FFF7A7FD38BDC04600E400E01F23184001238340181C014B1860704700E100E01F23184001238340181C014B186070473B
:4022C00080E100E0F8B58026071C3602B04214D90B4D041C6868FFF777FD0A4AA418B442F8D8094ABB18074ADB0BDB03BF18FF1AA8687843FFF768FDF8BD014DF8E7C0464F
:40230000580100200080FFFFFF7FFFFF08B5034B1B785843FFF758FD08BDC0465801002008B5FFF75AFD044B04211A688A431A6030BFFFF756FD08BD10ED00E030B583B029
:40234000FFF74BFD0E4B0F4C1A68051C520052081A600D4B02201A880C4B92B21A600C4B042219680A431A6023680193FFF7F2FD30BF019B281C2360FFF733FD03B030BD90
:4023800000000B4000010B4052F1FF0F0C000B4010ED00E0F0B51E4B47461B6880B4002B00D098471B4B1B68990727D51A4D1F222B681340082B1ED01848194A01681368FA
:4023C00099421ED01F23174F174E984603E001681368994215D011684B1C3F394C1EA14149420B40F95CC9B2316013602B6841460B40082BEBD10D4B02221A6004BC904674
:40240000F0BD0B4B02211A688A431A60F3E7C0461C0400208C0F24400802244098250020542500205825002040022440800F2440880F2440F0B55F464D4644465646F0B4D2
:40244000244B90468A188146A1B00F1C01209A4237D8CA094046D301002839D0013269469246CD1A00240122524294461E1CD444803600219F4215D8A04513D94846025DBD
:40248000E85C904201D0EA54012101340133B342F0D1002909D1A0451AD901218A44803D331CE0E71A78EA54F0E76046694600F07BF8A04501D90028EFD0012801D90120EF
:4024C000404221B03CBC90469946A246AB46F0BD0020F6E7FFFF0100016070470160704708B5FFF713FF08BD08B500F04DF808BD08B500F051F808BD08B500F04DF80348F1
:4025000000F02AF8002000F02DF808BD0527000008B5024800F004F808BDC0460527000010B5094B802464011C60084B1867FFF754FC074BC0211A688A431A60FFF751FC84
:40254000044B1C6010BDC04680E100E0000000200CE400E000E100E0014B18677047C0460000002010B5041CFFF737FC054BA2011968C024A1430C1C14431C60FFF731FCBB
:4025800010BDC0460CE400E0024B802252011A607047C04600E100E0024B802252011A607047C04680E100E030B50023A9B000930193444B041E9C4272D8002970D0424B2D
:4025C000984200D871E0414B069380227F2308A8079300F086F93E4B06AA1A603D493E4A11601A68120F0A2A61D01B680F2213400093009B002B55D1FFF7EFFB374B384913
:402600000293334B02AA04310391364D1A60324A15601A68120F0A2A4BD01B680F2213400193019B002B0DD1294B2F4A2F4D1A60294A15601A68120F0A2A40D01B680F228C
:4026400013400093009B002B13D1294B24040693069B06AA1C431E4B06941A60254C1E4A14601A68120F0A2A27D01B680F2213400093019B002B10D11F4B04AA0493144BFD
:4026800005911A601D49144A11601A68120F0A2A11D01B680F2213400193FFF7A2FB01E004230093009829B030BD154B8CE700239EE70023B4E70023EEE70023D8E70023C0
:4026C000BFE7C046FF030000FF010000B6D70001080010400400008004001040B6E900002825002016000080B6E8000015000080B6D8000005000080B6EA0000170000804F
:40270000B6D7000008B510F017FB08BD002934D00123002210B488422CD301242407A14204D2814202D209011B01F8E7E400A14204D2814202D249005B00F8E7884201D37E
:40274000401A1A434C08A04202D3001B5C0822438C08A04202D3001B9C082243CC08A04202D3001BDC082243002803D01B0901D00909E3E7101C10BC7047002801D00020C1
:40278000C04307B4024802A14018029003BDC046D90000000029F0D003B5FFF7B9FF0EBC4243891A1847C046002941D010B4041C4C40A44601230022002900D549420028B4
:4027C00000D5404288422CD301242407A14204D2814202D209011B01F8E7E400A14204D2814202D249005B00F8E7884201D3401A1A434C08A04202D3001B5C0822438C0885
:40280000A04202D3001B9C082243CC08A04202D3001BDC082243002803D01B0901D00909E3E7101C6446002C00D5404210BC7047002806D003DB0020C043400801E080205E
:40284000000607B4024802A14018029003BDC046190000000029EBD003B5FFF7A7FF0EBC4243891A1847C0467047C046014B18687047C046F403002070B50E4B0E4D0024F8
:40288000ED1AAD101E1CAC4204D0A300F35898470134F8E710F088FB084B094D0024ED1AAD101E1CAC4204D0A300F35898470134F8E770BDB42F0100B42F0100B42F0100AD
:4028C000BC2F010030B50023934208D0C55C0133CC18013C2478A542F6D0281B00E0002030BD10B50023934203D0CC5CC4540133F9E710BD031C8218934202D0197001337A
:40290000FAE770470FB40B4B13B51C68002C05D0A369002B02D1201C00F008FD05ABA168201C049A019300F09BF816BC08BC04B01847C046F403002070B5051C0E1C002856
:4029400004D08269002A01D100F0F0FCAC68A3891A0702D52369002B19D1281C211C00F069FB002813D00120404245E03178002B1BDAA269934211DA281C221C00F002FB3C
:40298000013043425841C0B20028ECD10136A3683278013BA360002AE8D10CE023681970236819780A2903D1E6E722681170236801332360EAE7002B17DAA269934208DB76
:4029C00022680A231370236819780A2911D1281C01E0281C0A21221C00F0D4FA013043425841C0B2002806D0BDE722680A2313702368013323600A2070BD000008B5034B9B
:402A0000011C1868FFF798FF08BDC046F4030020936810B5013B9360002B05DA9469A34208DBCBB20A2B05D01368581C10601970C8B201E000F0A6FA10BDF8B5061C0F1CAB
:402A4000141CD518AC4208D02178301C3A1CFFF7DFFF0134431CF5D100E00020F8BD0000F0B59FB0061C0F1C03920593002804D08169002901D100F059FC754B9F4201D14E
:402A8000776808E0734B9F4201D1B76803E0724B9F4200D1F768BB891A070AD53B69002B07D006AD00236B6120236B763023AB763BE0301C391C00F0BDFA0028F1D001207D
:402AC0004042C2E0059A111D12680591002A76DB0992013423782E2B00D181E021785F48032200F0E3FC002807D05C492A68431A402098401043286001342178631C58489D
:402B000006220393297600F0D1FC002800D18AE0544B002B7ED1059B072207339343083305936A69049953186B61039C2378002B04D10399611A029110D003E0252BF8D0ED
:402B40000134F3E7301C391C039A029BFFF775FF013075D06A69029953186B612378002B6ED0012252426A606A4600235B3201342B60EB60AB601370AB6521783A48052216
:402B800000F094FC002808D0374A0134831A012098402B6818432860EFE72B68D90603D56A4620215B3211701A0703D56A462B215B32117022782A2A84D0099B05E0524252
:402BC000EA60022213432B6083E72278303A092A04D80A214B4301349B18F6E7099379E763782A2B09D1059B02341A1D1B680592002B0DDA01235B420AE0013400232278AF
:402C0000303A092A04D80A214B4301349B18F6E7079363E705AB0093301C291C3A1C134B00E000BF07E005AB0093301C291C3A1C0E4B00F091F804900499013100D070E725
:402C4000BB895A0600D53AE70B981FB0F0BDC046482F0100682F0100882F01001A2F01001E2F010000000000142F01003B2A0000F7B5151C01930A698B68061C0C1C934296
:402C800000DA131C221C2B6043321278002A01D001332B602068800602D52B6802332B60216806270F401FD0231C43331B785A1E9341226892061FD5E11840313020C870C1
:402CC000211C5A1C45310978A21840320233D17012E0221C301C019919320123089FB847013011D0009F01370097E0682968009F431A9F42EDDBD7E7221C301C0199433208
:402D0000089FB847013002D10120404223E0206806212B68E26801400025042903D1D51AEB43DB171D40A26823699A4201DDD31AED1800270097009FAF420BDA221C301CE5
:402D400001991A320123089FB8470130DCD0009F0137EFE70020FEBDF0B50D1C8BB0433506920590079304950B7E0C1C109A6E2B00D1A7E011D8632B22D009D8002B00D1CB
:402D8000B0E0582B00D0C0E045310B707B4D4EE0642B1CD0692B1AD0B7E0732B00D1A5E009D86F2B29D0702B00D0AEE00E68202333430B6036E0752B1FD0782B32D0A4E050
:402DC00013680D1C191D423511601B689FE0216813680E0603D5191D11601E6805E04806F9D5191D116000215E5E644B002E3BDA049D2D2276422A7036E0216813680E060B
:402E000003D5191D11601E6804E04806F9D5191D1E881160594B227E039308276F2A1ED00A271CE0231C78214533554D197011682368081D039510601E0601D50E6802E085
:402E40005806FBD50E88D90702D52022134323601027002E03D1226820239A432260231C002243331A7001E003930A276368A360002B03DB2568042295432560002E02D166
:402E8000049D002B0ED0049D301C391CFFF782FC0398013D435C301C2B70391CFFF736FC061EF1D1082F09D12168C90706D5626823699A4202DC013D30232B70049E731B3F
:402EC00023612AE0086813684969050604D5181D10601B68196005E04606F8D5181D10601B68198000232361049D16E01368191D11601D68281C00F0DFFB6368206198424A
:402F000000D923612069606004E0251C42352B7001232361049E00233370079E05980096211C09AA069BFFF7A3FE013002D10120404221E02A1C059806992369079DA8475B
:402F40000130F4D02668B60705D4099BE068984212DA181C10E00025E0680999431A9D42F3DA221C0598069919320123079EB0470130DCD00135EFE70BB0F0BD252F01001F
:402F8000362F010070B5051C0E1C141C002804D08269002A01D100F0C9F9234B9C4201D16C6808E0214B9C4201D1AC6803E0204B9C4200D1EC68A369A360A3891A070AD5E0
:402FC0002369002B07D022682369F6B2D01A626990420FDB08E0281C211C00F02BF80028F1D0012040421DE0281C211C00F01EF90028F6D1A3680130013BA36023685A1C1C
:4030000022601E706369984205D0A389301CDA0708D50A2E06D1281C211C00F007F90028DFD1301C70BDC046482F0100682F0100882F0100344B70B51D68061C0C1C002D90
:4030400005D0A969002902D1281C00F06FF92F4B9C4201D16C6808E02D4B9C4201D1AC6803E02C4B9C4200D1EC68A28993B2190721D4D90605D40923336040231A43A28173
:403080003FE05A0713D5616B002908D0231C4433994202D0301C00F015FA00236363A38924229343A3810023636023692360A38908221343A381216900290BD1A389A02296
:4030C00092001A4080239B009A4203D0301C211C00F09CF9A38901221A4005D061690022A2604A42A26103E0990700D46269A26022690020824206D1190604D540221343D4
:40310000A3810120404270BDF4030020482F0100682F0100882F0100F7B58B89051C0C1C19075ED46268002A02DC276C002F1ADDE76A002F17D000222E682A608022520138
:403140001A4001D0626D15E0281C216A0123B847021C411C0ED12B68002B0BD01D2B01D0162B02D12E6000205EE0A38940210B43A38159E0A3895F0706D56168636B521ABA
:40318000002B01D0276CD21B281C216A0023E76AB847A289411C06D12B68002B03D01D2B01D0162B19D10023636023692360D70405D5411C02D12A68002A00D16065616B25
:4031C0002E600029CFD0231C4433994202D0281C00F078F90020606326E040231A43A28122E02669002EBED027680022BF1B01972660990700D16269A260019F002FB2DD13
:40320000281C216A321C019BA76AB847002806DCA389402213430120A381404204E0019F36183F1A0197E8E7FEBD00000A6938B5051C0C1C002A01D100201CE0002804D006
:403240008369002B01D100F071F80B4B9C4201D16C6808E0094B9C4201D1AC6803E0084B9C4200D1EC680C22A35E002BE4D0281C211CFFF751FF38BD482F0100682F01001F
:40328000882F0100F8B5041C071C4834002C12D0A5686668013E0CD4AB89012B07D90E22AB5E013303D0381C291CFFF7BFFF6835F0E72468EAE7F8BD002310B5041C036024
:4032C0004360836081814366C281036143618361191C08225C30FFF70DFB054B24626362044BA362044BE362044B236310BDC046213600004936000081360000AD360000EA
:4033000070B54B1E68255D430E1C291C743100F021F9041E08D00021016046602A1C0C30A0606832FFF7E6FA201C70BD836913B5041C002B27D18364C3640365124B134A10
:403340001B688262984201D101238361201C00F01FF86060201C00F01BF8A060201C00F017F80421E06000226068FFF7A5FFA06809210122FFF7A0FFE06812210222FFF74D
:403380009BFF0123A36113BD102F010085320000F8B51D4B071C1E68B269002A02D1301CFFF7C4FF4836B4687368013B05D40C22A55E002D10D06834F7E73368002B06D1CA
:4033C000381C0421FFF79CFF3060002801D03668E9E70C233B6016E001235B42E381201C0123A38165662560A560656025616561A5615C30291C0822FFF77CFA6563A563C0
:40340000A564E564201CF8BD102F0100F0B58B8991B0051C0C1C9A0725D40E23C95E002906DAA78980231F400FD0002740260EE001AA00F06FF90028F3DB029BF0273F0251
:40344000184A1F40BF187B425F418026F600281C311C00F07FF800280CD1A3899A051FD402221343A381231C4733236023610123636115E00C4B8022AB62A38920601343BD
:40348000A38120616661002F0AD00E23E15E281C00F052F9002803D0A38901221343A38111B0F0BD00E0FFFF85320000C9B28218904204D003788B4202D00130F8E70020DC
:4034C0007047000030B5002940D004390B68002B00DAC9181E4A1368141C002B02D14B60116033E099420FD208680A189A4205D113685268C01808604A6000E04B602160F6
:4035000024E08A4203D8131C5A68002AF9D11D685C198C420BD10968691858181960904214D114685268091919605A600EE08C4202D90C23036009E008680C18944203D1EA
:4035400014685268001908604A60596030BDC0464025002070B50323CD1C9D430835061C0C2D01D20C2501E0002D3FDB8D423DD3204B1C681A1C211C002913D00868431BC6
:403580000DD40B2B02D90B60CC181EE08C4202D1636813601AE0486860600C1C16E00C1C4968E9E7144C2068002803D1301C00F025F82060301C291C00F020F8431C15D022
:4035C000C41C03239C4384420AD12560201C0B300722231D9043C31A0BD05A42E25008E0211A301C00F00AF80130EED10C233360002070BD402500203C25002038B5074CE1
:403600000023051C081C2360FDF7C4F8431C03D12368002B00D02B6038BDC046D825002038B50C1C0E25495F00F0ACF8002803DB626D1318636503E0A289024B1340A38175
:4036400038BDC046FFEFFFFFF8B51E1C8B89051C0C1C171CDA0505D50E23C95E0022022300F07CF8A289054B281C1340A3810E22A15E331C3A1C00F027F8F8BDFFEFFFFF76
:4036800038B50C1C0E25495F00F068F8A389421C03D1054A1340A38104E0802252011343A381606538BDC046FFEFFFFF08B50E23C95E00F01DF808BD0023C25C0133002A29
:4036C000FBD1581E7047000038B5084C051C00202060081C111C1A1CFCF7DEFD431C03D12368002B00D02B6038BDC046D825002038B5074C0023051C081C236000F056F8B5
:40370000431C03D12368002B00D02B6038BDC046D825002038B5074C0023051C081C111C236000F04BF8431C03D12368002B00D02B6038BDD825002038B5074C0023051CC8
:40374000081C236000F042F8431C03D12368002B00D02B6038BDC046D825002038B5084C051C00202060081C111C1A1C00F036F8431C03D12368002B00D02B6038BDC04636
:40378000D825002038B5084C051C00202060081C111C1A1C00F02AF8431C03D12368002B00D02B6038BDC046D8250020024B5822012040421A607047D8250020024B582276
:4037C000012040421A607047D8250020024B582200201A607047C046D8250020024B5822012040421A607047D8250020024B5822012040421A607047D825002010B501F077
:4038000067FA10BD10B501F079FA10BD10B500F0DBF810BD10B50749044609780220002907D1204601F090FA002802D1204609F027F810BD7A020020F7B51F4E0024307864
:4038400015460F46002804D00824B76075802046FEBD002F00D1012401F050FA0098002805D0172D03D301204002854201D90124EBE7002CE9D12946384600F023F8040057
:40388000E3D1706800F01CF80400DED1706800F015F80400D9D101F039FA0400D5D1009806F052FB0400D0D106F064FB0400CCD101203070C9E7000068010020002070472D
:4038C00000207047F8B50D4607460026FEF720FEFEF70EFE00F02EFA040065D100F0B8FB040061D13449084600F0D4FD0404240C5AD1A80705D0A807800F0421081A4019EE
:4039000085B2172D02D968002E3886B22B48301881B2384601F0C0F8040045D1284F03460246002825D127495E008E5B294610318E4207D99000C01941800221521C417053
:40394000D2B215E08E420BD10020787690001D49C0194680891FC95C891C4170012012E0052A06D1164806461436418302207071012014495E008E5B9100C9194E80114E23
:40398000B61FF65C4E705B1C521CDBB2D2B2062BC7D30B4800F06CF8002C05D100F084F807490120891E087000F0D6F9002C01D0FF20F8BD0020F8BDDD390000940C0000A1
:4039C000760100200630010010B503480078012801D100F0F1FE10BD740100207047000010B5011F0878034A8000105800F0F4FF10BD0000F010002010B504460449800038
:403A0000085800F057FF002801D00470001D10BDF010002038B5044692B2C9B2684600F06FFF024AA1000098505038BDF010002070B50B49064600204C6805466178002947
:403A400008D06188B14202D32078FFF7D5FF002804D1241D6D1CEDB2082DEFD370BD00009801002010B5002801D0FFF7B9FF10BD70B50B4E0446002570606178002905D04B
:403A800062882078121D0023FFF7C4FF6D1C241DEDB2082DF1D3024800F0F0FFB06070BD98010020002070471CB5002469460C70142001902346054A05480CF0F3FC044800
:403AC0000068401C00D1FF2420461CBD253B0000A40100203EB5124A0146FF2000230124126800290DD0012914D0042908D104206946009308814B8110460CF0CEFC80B210
:403B00003EBD6846009304814381694610460CF0BFFCF4E768460093048143816946EBE7A401002070B54589046841680089030000F026F806240408081D2124002005F042
:403B4000D9F91BE0022908D0C8B22A4621460AF04BFF2046FFF786FF10E002202A4621460AF042FF2946204600F018F806E000200CF08CF902E020460CF01AFD002070BDD7
:403B800030B47446641E2578641CAB4200D21D46635D5B00E31830BC18470000014B0022DB681847A801002070B5448905680089022803D0032809D0FF2070BD2246094C7A
:403BC0000023A46829460120A04708E0FFF71AFE241DA2B200232946022006F098F8002070BD0000A801002070470000024800214160018041807047A801002070B50C4648
:403C0000002186B016460391012802D0022859D116E003A9012006F0D2F801281BD1039D324621462846FEF75CFE0095287801900220694608814E816846FFF7B5FF41E0B2
:403C4000214D002B686809D0049004A9022006F0B6F801281DD0022006B070BD002812D0298840182146FEF73CFE28880024801980B228806988091D884206D12C80134831
:403C8000FFF792FF03E00320E6E788421AD96C6018E004986860E278A378110219430B4A698000231060E3565360032313815181A1788170E178C170617841702178017070
:403CC000042028800020C7E7A8010020101100203EB515460C46022803D004280CD000203EBD0091019002206946088107484A8100680CF0D2FB07E00AF076FE044B0022D3
:403D0000DB6829462046984701203EBDA4010020A8010020014AD16090607047A8010020034801688068081A0A214843000970471C11002010B5FEF7DFFB542204490548D1
:403D4000FEF7CFFD03490120C870002010BD0000163001006C13002010B5FEF7C5FB10BD70B5134C2368002B08D0207B1149C20705D04008400020738868A08070BD8868D6
:403D80000B4AA18880B29268814203D90A4D691A091802E0814202D2411A5118A160A080A0689842EAD300F015F80CF093FB70BD1C110020C0102E40FFFF000010B5084672
:403DC0001946FFF7A7FF10BD704710B5FFF780FF10BD000003480021016041608160C160704700001C11002010B502000DD0FFF7F1FF074C0321207B0843207310010A2113
:403E0000FEF7C8FC2060002010BDFF2010BD00001C11002000B504480A21806848430209FFF7D8FF104600BD1C1100200248007B8007C00F704700001C11002070B5584967
:403E40000868002802DA574B01221A70022290430860554800695249C00B4031096A08426CD0012000F0C2FA4F4850497C30FEF735FB4B480E216C30FEF730FB4A4820212B
:403E80008430FEF72BFB484814219C30FEF726FB4548FF21C131A430FEF720FB4248FF212F31B030FEF71AFB3F484149BC30FEF715FB3D483F49AC30FEF710FB3D493A4822
:403EC000491CB430FEF70AFB37483B49B830FEF705FB35483949CC30FEF700FB324838490830FEF7FBFA30483649A830FEF7F6FA2D4835498830FEF7F1FA2B4833498C30AD
:403F0000FEF7ECFA28481921C9029030FEF7E6FA2F4D287E697E0C020443A87FE97F2D4A090201432C48914201D1072C08D035229201914208D1042C05D005E0FF2070BDF9
:403F40000146042400E0014617486C30FEF7C6FA154821467430FEF7C1FAA87EE97E0902014301204003814201D0002900D11B490D487830FEF7B2FA2A7F687F0102184820
:403F80001143814204D01748814201D0052901D113490A3904488030FEF7A0FA002070BD00F02E40B801002000002E4055650000320300002F3F0000310200001052000015
:403FC000EC160000FA12000031D000003AE30000C0F0FF0F580B0000580D0000022000000F0F00000505000070B50646581C80B245086D00002408E0304600F07FF81055A6
:40400000000A1119A41C4870A4B2AC42F4D3D80705D0D0182038D15CC47FD454C17770BD30B50A4C002100195B1E07E0541864782502545C2C430480891C89B29942F5DB66
:40404000994201D1515C018030BD000000102E4010B5FF2000F0CAF90F49FF2048700E481021801D41800121417001700A490020C91C4870FFF7E2FE04000AD100F0DEF880
:4040800007210648FEF728FA044807211830FEF723FA204610BD0000B8010020CC112E4030B504465B1C1804450C002308E0204600F024F8241D59005B1CA4B250529BB268
:4040C000AB42F4D330BD000070B500210A4D5B1E0AE0541864782602545C344346193480001D891C80B289B29942F2DB994202D1515C4019018070BD00102E40014940181C
:404100000088704700102E40014A80180180704700102E4010B50B490020487000F08EF8002000F089F9002000F076F907210648FEF7D2F9044807211830FEF7CDF90020E4
:4041400010BD0000BB010020CC112E4010B506480078012803D102210448FEF7BFF902490020C91E087010BDBB01002070F02E4010B50B46062812D006DC01280CD003282E
:4041800001D1FFF7C7FF10BD0A28FCD00B28FAD105480078107010BDFFF75AFF10BD1146184600F065F910BDBE010020F8B5204DAC6A0127A0071F4E002816DA3078062871
:4041C0000ED1286A384328621B480069F903084381B219481030FEF781F9042000F006F9134802212830FEF777F9E00711D0062000F0FCF80F49FF20C91E487070780028AD
:4042000002D1686B38436863094801212830FEF763F9E0050BD53078042802D1052000F0E5F80348FF2101312830FEF755F9F8BD40F02E40BB01002000002E4010B503215A
:404240002348FEF74BF90120FEF74AF920483038406A204C80076178800F890001431C480C38FEF73BF96078002808D0401E022181401820FEF7EEFAC000083800E0B820E7
:4042800081B21548FEF72AF91348032109021438FEF724F910481149B830FEF71FF9452189010F48FEF71AF90D480321001FFEF715F90C490C48FEF711F90B480B496038F6
:4042C000FEF70CF9084801218838FEF707F910BD70F02E40BE010020D8102E4090890000041E2E40FF0F000058122E4020900000044800684007400F022801D00020704772
:404300000120704700010B4000B5FFF7F1FF002805D009480168C908C900016000BD0748016A490849000162054801690122D2039143016100BD000000010B4040F02E400C
:4043400000002E400849087806280BD148780749002803D1486B400840004863C86A01221043C86270470000BB01002040F02E400148007870470000BB01002002484078A9
:40438000022800D001207047B801002000B50300FFF7F6FB080D050D0B070507090D012000BD032000BD042000BD022000BDFF2000BD0000074A9168D26889B2064B92B2AA
:4043C000994204D105498A4201D1012100E000210170704780002E4033D000003FE300000149487070470000BB01002010B50446FEF77EF8072C01D9FF2C01D102480470EC
:40440000FEF772F810BD0000BB0100200149487070470000B801002010B5064A012805D01921C9021046FEF759F810BD1D21C902F8E7000090002E4010B50A4A141D012808
:4044400008D009491046FEF749F808492046FEF745F810BD04491046891CFEF73FF80349491DF3E788002E4031D000003AE300000078074AFF2803D04C2804D9553803E038
:404480001078087070474F380870107070470000BA01002010B50F4A002313600E4A13600E4B18600E4801600E49012008600E490860000290600E490C4808600D491430EF
:4044C0000860FF381538506000F0BCF800F0CAF9002010BDDC010020C4010020F0010020F4010020E0010020D00100202C120020D4010020E8010020014610B50020002931
:4045000010D0094B1A689C685118A14209D25868196080188A0704D08A07920F891A091D196010BD002010BDC4010020F8B50024164E671E321F3D463168136806E0142293
:40454000624310328A58521C1BD0641C9C42F6D36A1C14D02C461422544322460C3288500C214843FFF7C8FF3168002808510AD031680020103408517068401C706028469A
:40458000F8BD2546E4E73846F8BD0000D4010020F3B50026F64381B000281BDB1E490968884217D80299002914D01B4F142204463F1D54432546396810354859401C09D055
:4045C000FDF796FF38682F1F4159C359994203DBFDF78AFF3046FEBD214608310091465801590C20704308180C220299FEF779F90948761C001D0068C159B14200D1002663
:404600000549009A091D865008684159491C4151FDF76AFF0020FEBDD0010020002803DB07490968884202D90020C043704704491422091D09685043103008587047000022
:40464000D0010020F0B500200D4A451E0346171F50600FE014260146714314680E1DA3510C461668083433511668083435511468401C635039688842ECD30020F0BD00008A
:40468000D4010020F3B50026F64381B0002841DB2349096888423DD8029900293AD0204F142204463F1D54432546396810354859401C2FD0FDF71CFF3868415900292BD063
:4046C000211D009146580C21005971430F46C1190C220298FEF705F911480021001D0068761C00590C34C0190160416081600C48001D00680159B14200D100260849009A3B
:40470000091D865008684159491E4151FDF7ECFE0020FEBD3046FEBDFDF7E6FEFAE70000D0010020FEB504460D4600201E49089E0860471E009001900290002C11D048682C
:4047400085420ED2002A0CD0002E0AD0642E08D808460C3001681C2068430C18207A002801D03846FEBD0120226020721846FFF7DDFE6060401C13D06681A6810A482761FD
:404780000C3067610179A94200D205710021684601810A462846029B00F040F82846FEBD00202072DDE70000DC01002038B50124009400F039F838BDFEB50027164EFF439C
:4047C0003D4600240EE01C20316860430818017A002906D04068FFF721FF002801D0254603E0641C3079A042EDDA681C12D01C2130684D434419FDF77BFE69466068FFF739
:4048000041FF0546FDF770FE002DD9D1216868468847D5E7FEBD0000E801002038B50024009400F001F838BD1FB500220C49541E0A60002811DB496888420ED808491C2280
:404840000C31096850430818406801A9FFF7A0FE401C02D0002004B010BD2046FBE70000DC010020F0B50021114A4D1E174611710C3F0B46BD6016E008461C246043166814
:40488000041D355114680646235014680836A3551468361DA353044616680A34335318301468491C255078688142E5D30020F0BDE801002038B500210091002811DB0F4939
:4048C000097888420DDA0D4D04010C3529680859002807D0201D0818694600F05FF9002801D0002038BDFDF703FE28680F34015D491E0155FDF7F8FD009838BDF801002021
:40490000F7B582B00025ED43029800240E460560002A49D0002E47D02D48D21C02402D48174601780C30006805E022018258002A0FD0641CE4B28C42F7D3691C3ED02C0158
:40494000211D40180191314600F016F900282BD101E02546F1E71F480C30016820460C300F521C480C30016820460E300E5419480C30016820460F300E543846704300F005
:40498000ADF814490C310968002808510CD00024009011E00F480C30016801980818009900F017F9002802D0012005B0F0BD0098C019641CE4B20090B442EBD302980549C7
:4049C00005600C310879401C08710020EDE70000FCFF0000F8010020F8B50D4600216A468C461180002839DB23490978884235DA214B04010C3319680A59002A2ED020465F
:404A00000C300B5A801C0E5C184670438018954224D3854222D2002006E007465F43BF18AF4206D0401CC0B2B042F6D36046002814D0114E271DC8190C366A46294600F0FA
:404A4000F2F800280AD168460088012808D030682946C01900F0BDF8002803D00120F8BD0020F8BDFDF744FD30680F34015D491C0155FDF739FDF3E7F80100200346002038
:404A8000002B06D0034A5168906852884018511A19807047F801002070B5002400F0DCF80D4E002132460C3271600EE0200113680546195013680C355953AD1C13680F30B8
:404AC00059551368641C1954E4B230788442EDD31171002070BD0000F8010020014610B5002000290CD0C91C064B8A08596892005C888A18A24202D898685A60401810BD85
:404B0000002010BDF8010020F8B5002827DB19490978884223DA174C05010C342168485900281CD028460C30085A009028460E300E5C401C0E5420682F1DC01900F064F89E
:404B400000280CD12068002445590EE0094829460C300068C01900F03CF8002801D00120F8BD00982D18641CE4B2B442EED30020F8BD0000F801002030B50D4604000BD019
:404B8000A800FFF7ABFF6060002805D000202570C0436080002030BD012030BD70B50D46040005D0002D03D00220205E002801DA012070BDFDF79CFC0221615E606889003C
:404BC000405828606088401E6080FDF78DFC002070BD70B50D46040007D0002D05D002212078615E401E814201DB012070BDFDF77FFC6088401C00B26080616880000D50A0
:404C0000FDF772FC002070BD10B5040009D0227800216068FDF76EFE0020C0436080002010BD012010BDF0B500231D46002802D00224045F0AE00120F0BD46689F00F65960
:404C40008E4201D1012503E05B1CDBB29C42F4DA15700020F0BD0000054B11221A70054A1180064A044911600549086070470000F8010020FA0100205C1200200402002037
:404C80000002002001480078704700000C0200207CB505460024FEF7B5FDA8796946087000A8062229460130FDF71BFE0021684604F07EFB0C2804D0072804D01F2804D0BE
:404CC00004E0022402E0042400E0272420467CBD10B502280BD0032802D0042809D102E000F0EEF805E000F0BDF9FF2801D100F0CDF9FFF73DFBFFF749FB10BD10B500F02D
:404D0000F5F9FFF735FBFFF741FB10BD10B503240CF0FEF8002810D10CF0A2F800280CD105F09CF8002808D100F0BCFB002804D104F098FD002800D1002402490020087027
:404D4000204610BD0C02002070B50025044600280ED0A07901280BD8FEF754FDA0790028204602D002F0B8FF03E002F06DFF00E00125284670BD10B5FFF7FAFA012801D11F
:404D8000FFF7FCFA10BD38B504460120002C20D0617801291DD800290BD0FF25E535FEF731FD2846FFF7AAF9C0B22070072803D00EE0FF25CD35F2E700206946087068467C
:404DC000FFF7F8FA69460878012801D108202070002038BD70B504460120002C1FD06178012902D92278092A19D8002906D0FF25E53520780726092803D003E0FF25CD357E
:404E0000F7E72670FEF7FEFC2078082808D00020FFF712FB21782846FFF776F9002070BD0120FFF709FB2670F4E7000010B50B480024807B00280ED0FFF79AFA062801D041
:404E4000032800D12824054820300079022801D0012800D12824204610BD0000C013002070B50D46040001D0002000E00548002802D0012102F0DAF82946204602F03CFCF4
:404E800070BD0000E013002038B5054600200446009022466946284600F09CFF0098002801D00CF017F8A878214602F0E4F9A878214602F0D3F9641CE4B2052CE9D338BD41
:404EC000F8B5624CFFF754FA012846D160480078002842D002F094FB0028FAD003F072FF0028F6D05B4E7078C00703D000F047FC0128EED0B07E0028E7D17078002500282C
:404F000078D0000707D5AC20FFF7F8F8070B00F061F9384321D14F484178684603F030FE4D4F06462079B9784018C1B2B14271D802F066FB002810D0464C203402F08DF93A
:404F40006846008802F0B9F902F062FA43490988884203D10120FFF749FA74E04049012008703C48807B00282BD04034608A002827D0E07E002824D1A1200001FFF7BEF876
:404F8000208A4000B04218D97878002815D1A12424012046FFF7B2F80221884301462046FFF7B2F8FF24F1342046FFF7A7F80321090201432046FFF7A7F83878002800D0A2
:404FC0003D7002F0BDF90120FFF70AFA244C08E0FDF7A6F9FFF7CCF906282CD02078002829D0FFF7C5F9062825D020780128EFD021E0FFE702F004FB002824D0142002F047
:405000005CF9174C0120207002F09AF90020FFF7E7F909E015E0FDF783F9FFF7A9F9062809D02078002806D0FFF7A2F9062802D020780128EFD0207801288BD1FFF764F988
:4050400025700020F8BDFF20F8BD0000AC130020B8010020C013002012020020240200200D02002010B50848FF244078002809D102F0C6FA012805D1FFF768F80720FFF788
:40508000B5F90024204610BDC013002038B5FFF76FF9012801D0002038BD02F0B1FA00280AD0114C6078C00703D000F068FB012802D0A07E002801D0FF2038BD61780029B5
:4050C0000FD0684603F05CFD022806D96846008802F0F3F8012002F039F90320FFF786F9D9E70020F7E70000C013002038B5FFF73FF9042819D0052817D006281AD00328A6
:4051000042D007280AD100206946087002460120FFF72EF8FFF72CF90128FBD138BDFDF7FFF8FFF725F90128F8D0FFF721F90128F5D138BD02F028F905E0FDF7F1F8FFF7D3
:4051400017F9012803D0FFF713F90128F5D1A12424012046FEF7D2FF01220E4983079B0F0A70022BE5D149880029E2D0104301462046FEF7C9FF2046FEF7C0FF41084900FC
:405180002046FEF7C1FF38BD02F002F90120FFF72DF938BD12020020F8B50646002402F0ADFE0546304602F0C1FE00210346012632468A40174610462F401840002F03D011
:4051C000002801D1224394B2491CC9B20529EFD32046F8BD70B500252C460A4E03E0002C01D0002000E030460079002803D02046FFF7D2FF0543641C2406240EEFD02846C3
:4052000070BD0000E01300201CB50020694648706846FFF7B8FD01AA69460A20FEF7A8FF6946042008561CBD10B50C4601F076F9002809D00179002906D0C17880782246C9
:4052400002F008FB002010BD022010BD0148007870470000AC1300204030C07E002800D00120704700B500F001F800BD88214843064940186030417F491CC9B2417705293C
:4052800001D300214177C8B270470000C013002013B501F043F904000BD001F09AFC002807D0214601AA0A310620FEF761FF00201CBD02201CBD000010B50C4601F02EF9D8
:4052C00000280AD001F085FC002806D0224604490A20FEF74DFF002010BD022010BD000095130020F3B581B0074601460026029802F0FCFD0446002F01D0002500E0154DAF
:40530000002D21D0284601F03FF9032C04D13946029802F015FE06463846029901F09EFF032C06D0002C10D00121384601F01AFA03E03146384602F0B7FF284601F05CFEB4
:405340000221284601F072FEFEBD3846029901F085FFFEBDE013002070B50446002503F0A5FB002801D00C2070BD2078611C02F06BFBFF2802D01F25284670BD02F0B8FBC1
:40538000FF2804D02178621C01F0DAFEF4E70725F2E710B503F08AFB002801D00C2010BD02F02AFB002010BD70B50D46044610210BF0D0FC1021601806460BF0CBFC334615
:4053C00010221946204603F09DFB102130460BF0C1FC02202870204604F09CF970BD70B504464078217802028006850FE0781143A67809050002090D0643084601F08EF81A
:40540000002812D0022D10D0032D0ED0002E08D00179092909D0002907D0214600F0A1F870BD0089002104F0AAF820460BF052FD70BD0020704770B50446002503F036FBF1
:40544000002801D00C2070BD2078611C02F0FCFAFF2802D002F03EFA00E01F25284670BD10B504F0FFF900F0F6F8002010BD10B5044600786178E2780843A17811430843C2
:40548000217908436179084305D003F001FB002803D00C2010BD122010BD204602F01CFC002010BD10B5044803F01CFC02F01CFA00F004F8002010BD7C130020F8B5114D17
:4054C00000266E706E736E716E76AE76EE766E75AE70EE70AE712F46EE730120B03778723F2078719B20B87100F00AFA0024204601F036FB641C2406240EF8D03E72FE71A7
:40550000AE73F8BDC013002070B505460E46084602F0F4FC0446304602F008FD0121A9400A46224001400A4301D0012070BD002070BD10B50446084602F0F8FC0121A140FA
:40554000014201D0012010BD002010BD10B5FEF70FFF032804D101F01BFF0120FEF746FF10BD70B5044600790D4609281CD000281AD020464030817E491C8176204601F04F
:405580003BFDA078FFF76EFE064602462946204600F00CF8002806D1A0783146FFF760FC28460BF097FC70BD0846FAE7F7B5054648780C468006870FC8788978000282B00A
:4055C000014368468180284601F00EFB060007D021462846049A00F091FB304605B0F0BD384600F039FC0746034601AA2946204600F0CAFA68468088231DC0B20090A87827
:40560000FF22049902F032F8684680883B46C2B2A878049902F0DCFBDFE770B5002500242846FFF7B9FD060010D03046E040C007C00F07D02146284601F003FE214628468C
:40564000FFF750FE641CE4B2052CEED36D1C2D062D0EE4D070BD10B502F046F9FFF72EFF0BF0A0FC002010BDF8B5002400F081F80123012800D10124104F00203E46203693
:405680000425082203E0002801D0002100E031460979002907D001290BD002290BD0114681402143CCB2401C0006000EEBD07C70F8BD1C43F7E72C43F5E70000C013002075
:4056C00010B5FFF7D1FF10BD10B50B4681791943817103D08078114602F03EFB10BD10B582798A43827102D1807802F04DFB10BD70B5FF25D53502242846FEF7FFFC0C4A5B
:405700009178002901D0022906D1137852789A18282A01D9032402E0032900D101244105490DE00201432846FEF7EEFC70BD00000E02002010B500F022F8002807D00128A3
:4057400005D0032801D0042801D0002010BD012010BD014610B50020C90701D000F009F810BD014610B50020C90701D000F001F810BD10B52020FEF7C1FC000A10BD10B51F
:405780001820FEF7BBFC410501D5042010BD4007800F10BD38B5044640060CD5684601F007FE0220FFF78CFF072002F0B9F96846007801F03FF9200613D5FFF7E0FF01288A
:4057C0000FD1684601F0F4FD6846007800F09AFA072002F0A5F9012001F076FC0220FFF76FFF38BD10B5034A0178117002F0A7F9002010BD0E02002010B50446FFF7B9FF61
:40580000002801D00C2010BDA27B01211848002A827801D00A4301E05208520082706279012A0FD0C17849084900C170207901280CD06188208802F0A5FF20802079042803
:405840000BD00DE0C2780A43C270EFE7E01D02F02BFA0848808C208002E0E01D02F024FA054920798870204602F078F9002010BDC01300206C1300200E02002038B5047812
:40588000FFF777FF844201D10C2038BD002C18D0072069460870FFF74DFF012807D10121684600F08DF8012801D0092038BD6846007802F035F9FFF71BFF02F07FF90120E0
:4058C00010E0FFF737FF012806D1684601F070FD6846007800F04AFA072002F021F902F061F90220FFF7ECFE002038BD10B5034A0178517002F008FA002010BD0E02002033
:4059000038B568460BF07CFA002801D01F2038BD01210098C90201804180002505714571857107214173857302F018F9009C202200212046FCF7DEFF25702A460021601C72
:40594000FCF7D8FF204602F0FAF8204602F0DCF900980BF0BFFA042200210248FCF7CAFF002038BD0E0200200346084800B5834209D8184600F0D2FD002804D00089984298
:4059800001D1012000BD002000BD0000FF0E0000074A9179491C8906890E917138220A4092014907090E11430843024908407047C0130020FF0E0000C006C00E7047000093
:4059C000F8B507460E4600240D4803E0002C01D0002500E005462979002905D0641C2406240EF3D00020F8BD204601F0B9F82E712046FFF7CDFF28813C700120F8BD0000A2
:405A0000E013002010B503F0B1F80222002100F003F801F011FF10BD10B5094B40074907000F090F185A595A40185043C0086421FCF7B0FE002800D1012080B210BD000006
:405A40006A300100F7B53D20405C88B016460C46002829D030786946087200252046FFF7FBFB012800D00125204603A938300191009023460327A17E34332A46206A03F0D6
:405A80004BF902A8089900900B46019120463A4603A9243003F018F802466846007A3070204601F049F810460BB0F0BDFFB587B00C4605461078694608723D20005D174645
:405AC000002826D000262046FFF7C6FB012800D00126204603A93830019100902346A17E34333246206A03F017F902A80090291D019120462B1D03A924300A9A02F0E4FF5C
:405B000002006846007A388002D1204601F014F810460BB0F0BDF7B53C20405C88B015460C4600280CD0287869460872002806D000262046FFF790FB012803D003E01F2010
:405B40000BB0F0BD0126204603A938300191009023460327E17E34333246E06903F0DCF802A8089900900B46019120463A4603A9243002F0DBFF02466846007A287020463B
:405B800000F0E4FF1046DBE7FFB505463C20405C87B016460C46002810D0084601F024F801280BD0308869460883002809D000272046FFF751FB012805D005E000200BB037
:405BC000F0BD0220FBE70127204602A93830019100902346E17E34333A46E06903F09CF806A80090291D019120462B1D02A924300A9A02F09BFF02466846008B30806846E0
:405C0000008BA870000AE870204600F09FFF1046D5E770B50D460446FFF71EFB01280AD0E87AA97A00020143A07801F0C3FC012808D0002070BD00222421204602F0ECFCFD
:405C4000242070BD28214C200155204600F09AFB282070BD002801D0002000E003484030C07F012800D0002070470000E01300200146002049070ED50021084B03E0002958
:405C800001D0002200E01A461279022A04D0491C0906090EF3D0704701207047E01300200146002049070ED50021084B03E0002901D0002200E01A461279022A04D0491CF9
:405CC0000906090EF3D0704701207047E013002010B5044680346068002803D00BF00EF90020606010BD403041707047403081707047403001707047017170479200101879
:405D0000C166704770B53C2501F0F8F8040004D020460021433001F0EDFB2946204600F0C0FB002C02D0A07801F07AF870BD000010B5002801D0002000E00348002802D04A
:405D4000008903F063FC10BDE013002010B5002801D0002000E00448002804D00179072901D100F041F810BDE013002010B501F0C5F8002802D0807801F052F810BD002050
:405D80007047000070B50546008A00281ED010491122897A1140C90618D5294640314A8A098A521C4A4392B2D10800D10121540801E0621A94B2A042FBD9FEF763FF0128F9
:405DC00004D1298AA878224601F0E4FC70BD00006C13002000230B60052A04D292001018C26E0A60C366704738B5044600200090A079002814D14020015D052901D00E292E
:405E00000ED168460BF00CF8002809D12046009902F0EAFB03481021C28A2046FFF754FC38BD00006C13002010B50B4604460146184602F0B9F8002802D020460BF054F8A7
:405E400010BD13B5044601AA11460620FEF790F96846818861811CBD002800D10220704770470000F8B504462346401D543300909A1EA078911E01F0AAFA25464035A88AA8
:405E8000298A8000FCF786FC401E81B2688A884203D96982A07801F0EAFF20460021433001F028FB8020FEF729F9E88102F05EFEE989891C8AB26179FFF7AEFD01F0BCFC41
:405EC00002F054FE2A8A6179FFF7A6FD074601F0A5FC688A00280BD0FF26F1363046FEF70DF90321090201433046FEF70DF902E0002001F0AAFFFF206130FEF7FFF86E8A92
:405F0000002E0BD070431049FCF7A4FC0004000C01D0401C80B20D49488002E00B4800214180288A704381B2A07801F0FBFE2837B9B2204602F02AFCE98AA07801F04AFE6F
:405F4000A07801F0AEF9F8BD71020000120200207FB504468034616805460E46183108226846FCF7BEFC31462031082202A8FCF7B8FC102168460AF0EDFE60681021083075
:405F80000AF0E8FE60682B46083024331022694602F0B8FD7FBD10B504460821FFF79FFB10212046FFF79BFB207905281FD006281DD008281AD12189002003F09FFA072022
:405FC00020712046FFF748F9014620464030012913D00E21017000210176204600F02CFF2046FFF775FE2046FFF7CCFE10BD20890122002103F066FAE1E70521EAE70000CF
:40600000FFB581B01F4604460821FFF768FB10212046FFF764FB2079082803D0092804D0042203E00422012501E009220025204600F0C6FD26460020403630702271204683
:40604000FFF746FE0398002D02D0012808D00BE001280AD120890022029903F033FA04E02189029803F04AFA012700203076012F04D0204600F0E0FE05B0F0BD02983073B2
:40608000204602F0F5FA054605480121C28A2046FFF71AFB002DEFD109202071ECE700006C13002070B50C460546FFF7D5F8012809D108212846FFF712FB0023012221463A
:4060C0002846FFF79DFF70BD10B5044600F078FD2046FFF7FDFD00214034217010BD70B505461A24FFF7B8F8012809D108212846FFF7F5FA0023012221462846FFF780FF53
:4061000070BD0000F8B50446002000900E4668460AF086FE002801D00D20F8BD8420005908212030009D00F0F4F920460421383000F0EFF9002E02D1204600F07FFD294633
:40614000204602F0E1F90E480821C28A2046FFF7BBFA204600F0D7FE25464035002808D0204600F023F8002801D0092028700020F8BD08202870204600F03EFFF7E70000D5
:406180006C130020014610B540310A460978082906D0092907D00A2901D100F091F810BD0B20107010BD00F001F810BD70B50446007925464035052805D0062803D008286E
:4061C0000FD00C2070BD03220621204602F024FA0D480821C28A2046FFF776FA1120287010E006202873204602F042FA0646AA8A0A20424301212046FFF766FA002E01D1F4
:4062000009202071002070BD6C13002038B504460020009068460AF003FE002801D00D2038BD2046009D00F08BF908202071204600F004FD2946204602F098F900213D20B0
:4062400001550F2040210855204600F0D5FE002038BD00B5024600F0B3FC10214032117000BD10B50446FEF7F7FF012809D04020005D112805D100231A4606212046FFF752
:40628000BFFE10BD10B5FFF786FE10BD38B504460021684600910AF0C3FD00280CD12046009902F0DAF905480821C28A2046FFF70BFA0D204034207038BD00006C13002046
:4062C00038B504460021684600910AF0A9FD002801D00D2038BD2046009902F0B3F905480821C28A2046FFF7EFF90C2040342070002038BD6C13002000787047F8B50025C4
:40630000002801D0002400E01A4C002C28D0204600F05FFC002823D0207903281CD005281CD026464036B18AA07801F009FDB078012815D10021204601F053FE27468037F1
:406340003868002802D00AF0D9FD3D600020B0702079072805D007E0042000E006202071F8BD2046FFF70EFD0221204600F05EFEF8BD0000E013002010B54C22115400F056
:4063800046F810BD10B50446FF21FFF7A8F909202071A07801F004FD10BD000038B5FF216A461180002801D0002400E0064C002C08D011460620FDF7DBFE684601882046F3
:4063C000FFF73FFD38BD0000E013002010B504468079002809D022214C200155FF212046FFF77DF9204600F012F810BD10B5037902464032002B03D01173092B02D003E0D0
:40640000002100E02221117300F001F810BDFEB504460089002701902781207926464036002817D0012815D002280AD112E002AA6946204601F0A6FD002807D100980AF082
:4064400053FD204601F0C6FD0028F0D02046FEF71BFDB776254680352868002802D00AF04DFD2F606868002802D00AF047FD6F60317B002902D0019800F044F8A078002131
:4064800000F028FF2046FFF7BDFAA07801F07CF8A07800F0C5FC0B20FFF712F900F004FCFEBD70B50E46054602F05CFB044606702846FEF7D1FE0146012041402046617076
:4064C0000C3001F000F8002D10D02889608028464030C1782171002E10D169796171018AE180418A2181808A608107E01820FDF705FEC005C00F207100206080204602F096
:40650000A6FF70BD0A4610B50146002003F096F810BD10B50AF0FAF910BD000000B50146FFF74AFA002801D0002000E00348002802D002898A4200D0002000BDE0130020B5
:4065400038B5044680346068002806D168460AF077FC002801D100986060606838BD000010B5014600F040FB0128887802D0FEF77DFE10BD88214843024940186030007FEA
:4065800010BD0000C013002070B5054604464035A87F012811D1A1788820084A484380186030067F3046FEF7AFFF002805D10220A877A078314601F0ADF870BDC0130020D2
:4065C00010B50E4CE079002816D0FFF726F80C48827FC17F808B00F06FFB01280CD10020E07100F0EEFE0446AC20FDF787FD010B02D0204600F00EFA10BD00007014002079
:40660000C013002070477047490510B5490F0B00FDF7B6FA060704080C0C0F073E21FFF7ABFE10BD0821FFF7E1FE10BDFFF7EFFE10BDFFF7CBFE10BDF8B507460025002D7A
:4066400001D0002600E0204E00F070FE3046403044890021418100F08FFE304600F0B9FA01282BD1A00702D52846FFF747FEE00602D52846FFF792FEA00601D5FEF7CDFF11
:40668000600601D500F0CCFA200602D5284600F01DF8600702D5284600F0FEF9380402D52846FFF753FB780402D52846FFF740FBE00703D021463046FFF7A6FF6D1C2D0640
:4066C0002D0EBCD0F8BD0000E0130020F8B5002801D0002400E0204C002C39D025464035A878012834D1E98AA07801F073FA2046FEF7B2FD01282BD002F038FA2A8A6179C9
:40670000FFF78AF9064601F089F82836B1B2204602F03CF8E98AA07801F05CFAFF206130FDF7ECFC6E8A0D4F0146002E11D0304648430B49FCF78EF80004000C01D0401CC2
:4067400080B27880288A704381B2A07801F0EAFAF8BD0020F5E70000E0130020120200207102000070B50D46124A010001D0002401E014462034002C1BD0204600F034FA0B
:4067800001280AD18820484380186030007FFEF7BBFE002801D101F0F5FE20464030817E491B8176204600F027FC2089294602F0E6FE70BDC013002070B503460088FFF7CC
:4067C000ADFE040013D000F004FA00280FD02079092819D02546997840352973204601F047FF0646A878012803D0AA8A02E0022070BDEA880A20424301212046FEF764FF67
:40680000002E01D109202071002070BD0EB5002217216B460292198100905A810120029B00990AF0DDFB0EBDF8B5184E0024F079002820D10025AC20FDF760FC000B21E0F0
:40684000204600F073FEFDF759FC07462A46214600F032FA01280FD00D48012187838577C477F171002D01D0002000E02030002801D000F0C1FBF8BDAC20FDF73FFC000BF8
:40688000641CE4B20028DBD1F8BD000070140020C013002010B50088FFF740FE002809D0014640310C460978082905D00B2903D00C2010BD022010BDFFF778FC002801D03D
:4068C00009202070002010BD70B503460088FFF725FE040008D0254640352878082805D00B2803D00C2070BD022070BD8420005910220830991CFBF7F4FF2046FFF728FB54
:406900002878082804D02046FFF7DAFC002801D00A202870204600F06FFB002070BD000010B50C46002121700088FFF7F7FD03000BD000F04EF9002807D009481121807AED
:406940000840C00603D4112010BD022010BD022020701A8A1889002102F08CFE002010BD6C130020F8B50F46002100910088FFF7D5FD040012D000F02CF900280ED0E079C7
:40698000410641D4617E02264A07002A08DB8907402500291ADA2843E07135E00220F8BD02F0E0F80021017021894180A1898180217E4170E189C1803E70054601781348A2
:4069C00002F0BEFB284602F0F9FD1DE0204600F011F9012806D068460AF022FA002803D00720F8BD2A20F8BDE07900992843E071204601F067FE607E04213043607604489E
:406A0000C28A2046FEF760FE0020F8BD1D0400006C1300203EB500220F236C460292238100910190628169460EC900200AF0D8FA3EBD000070B5054600F060FA040024D067
:406A400003202071254600264035EE76E6702046FFF708FA01F0A6F80920FEF731FEA07800F080FD0121204600F0E0FA2E706E70AE7000212046FFF714FD0649887B401CBB
:406A80008873012001F0C0F970BD284601F088F970BD0000C013002010B5002801D0002400E00A4C002C0FD020464030417802290AD1002141702046FEF7CEFB002803D139
:406AC0000221204600F0B2FA10BD0000E013002070B503460D460088FFF720FD04000BD000F077F8002807D012481121807A0840C00603D4112070BD022070BD204640300A
:406B0000418A008A491C41430804C10C5888884201D2122070BD20822079072802D12046FFF730F9022028702089002102F0CAFD002070BD6C130020016A491C016204D16F
:406B4000817E491C4906490E81767047C169491CC16104D1C17E491C4906490EC176704770B500250646002801D0002400E0114C002C1CD0882200212046FBF7BBFEA670A5
:406B800000202646207140363070204600F018F8204601F01BFA084820820848B577807A1121084000D001202075012070BD002070BD0000E0130020B80B00006C13002058
:406BC000002101628176C161C17620300177417770470079002805D0012803D0022801D001207047002070474030807F002800D00120704740300078002807D0012805D04A
:406C0000052803D00E2801D0012070470020704710B5807801F08AF9002800D0012010BD10B500F0CEFB0446AC20FDF767FA010B02D02046FFF7EEFE10BD000070B505463B
:406C400004464035A87F002823D1FF206075A0788821144A484380186030417F8823491CC9B24177A078584380186030052901D300214177A0788821484380186030467F5A
:406C80000677A1783046FEF73FFC002802D00120A87770BD0220A877A078314600F03AFD70BD0000C01300200020401C0006000EFBD0002070470000F0B515468207920FBE
:406CC00085B0C004C00E02926A469080002D01D0002400E0514C002C29D0084600F026FC03906846808800280BD00298012845D0022843D003280CD03D20005D012872D0C8
:406D000086E00398FDF7FAF901462046FFF799F87EE00020029002A80AF062F8002807D03D20005D012876D12046FFF705FF72E06846029E8388324600210398FDF754F980
:406D40000398FDF7DBF901462046FFF77AF8284600F0B9FA01AA21463046FEF773FE002806D030460AF0ACF83D204C21085528E0F5773146204601F077FA4CE000200090D4
:406D8000278968460AF01CF8002802D0002005B0F0BD6846009E8388321D00210398FDF723F90398FDF7AAF901462046FFF749F8284600F088FA25464035287E00280CD1F8
:406DC00003E02046FFF7DEFA25E001AA21463046029BFEF76BFE002806D030460AF066F83D202873EDE710E00298FFF739F8390A000101433770717068468088B070000ABB
:406E0000F0703046FFF702FD05E02046FFF794FE284600F058FA0120B9E70000E013002010B5044A917B002901D0491E9173FFF797FE10BDC0130020F8B5074606464037A4
:406E4000B87F00283DD0B0788821009048431F4945186035287F0099FEF76BFB012831D0287F401CC4B2052C00D300240020B877FF276F772F77A87702460146009800F0C3
:406E8000C9FD717DFF2903D0304601F060F8777501F078FB00252F462246694630460097FEF798FF0099002902D03046FEF759FB641CE4B2052C00D300246D1CEDB2052DDF
:406EC000EAD3F8BD0320B877F8BD0000C013002010B502460021084B03E0002901D0002000E018460479944204D0491C0906090EF3D0002010BD0000E013002000B501201F
:406F0000FFF7E6FF00BD10B5044601F02BFE2189018080346168416061682831816002F007FB10BDF7B50646087982B00C46092807D0A078F0770846FFF756FE012806D068
:406F400010E0304609F0D0FF022005B0F0BDA1788820284A484380186030007FFEF7D4FA012810D0A078FEF775FE01280BD037780121304601F0B3FA25462035062F36D0CA
:406F80000B2F0FD107E06846027C21463046FEF74BFF0D20D9E72046FEF75EF9012801D1002028772046FFF7DBFA054604AA21463046FEF7B0FD01205F2108556946087C55
:406FC0000090A07833463A46294600F04FFB69460A7CA0780323294600F0FAFEA0782946FDF73EFF304609F07FFF0020ADE70120D7E70000C013002010B502464032937FC1
:407000000021002B03D1927E002A00D00121064AD279002A00D000210279092A00D10121807800F0FFFE10BD7014002070B50C460646FEF711F9002814D1012C0ED93546F9
:407040004035A87800280DD1687802280AD03079092807D03046FFF7DBFD0446204600F00EFE70BD0124F9E770B50D4601280BD0082808D1A8241146B020FDF745F82946A6
:407080002046FDF741F870BD2020FAE710B501460820FDF739F810BD10B50446FF20F130012C01D1FF20D530002200F006FF1020FDF724F80349A043088001461020FDF7DE
:4070C00023F810BD1602002010B504461020FDF715F80449A043088001461020FDF714F810BD00001602002010B50446012802D0082C07D102E0FF20D53001E0FF20F130BF
:4071000000F0D0FE1020FCF7F9FF04492043088001461020FCF7F8FF10BD00001602002010B504461020FCF7E9FF04492043088001461020FCF7E8FF10BD00001602002030
:40714000F8B507460120B84085B214460E46012229467C2000F0B1FE32462946782000F0ACFE6078217800020143E078A5780002054360792679000206430C2047430D2015
:4071800080013C182046FCF7BFFF241D29462046FCF7BAFF201D3146FCF7B6FFF8BD401880B270478B00034310B5D10191201943C000FCF7A9FF10BD70B505460C464078B8
:4071C00029780002014341200001FCF79DFFE878A978000201430A48FCF796FF60782178000201438320C000FCF78EFFE078A1780002014302480830FCF786FF70BD00009E
:407200001404000070B50D46044681B201208002FCF77AFF210C0448FCF776FF81202946C000FCF771FF70BD0404000070B5054600242846FCF762FF641CA4B2102CF8D3B6
