:400000000040002011000000AD610000AD61000080B500AF06F0F8F880B584B000AF021CFB1D1A70204A3B1C0B3312781A701F4A3B1C0A3312781A700423013BFB6018E0B7
:400040001B4B1868391C0B31FA68131C5B009B18C3185B780B70164B1868391C0A31FA68131C5B009B18C3189B780B70FB68013BFB60FB68002B0ADB0D4B1968FA68131CF1
:400080005B009B185B5CFA1D12789A42D8D9094B3A1C0B3212781A60074B3A1C0A3212781A60BD4604B080BDCCF1FF0FCDF1FF0FE00000201CFF0B4020FF0B4080B500AF3B
:4000C0002D4B12221A603020FFF7A6FF2B4B2C4A1278D2B21A6005200BF0F4FA294B35221A600BF013F8FA235B00181C0BF0C6FA01200BF01BF8244B244A1A60244B802224
:40010000D2051A60234B244A1A60244B234A126808218A431A60FA23DB00181C0AF0B0FF1F4B181C0BF0CEFA1E4B902252011A601D4B1E4A1A601E4B1E4A1A601A4B1E4AD2
:400140001A601E4BA022D2001A60174B1C4A1A601C4B802212061A601B4B8022D2021A601A4B41221A601A4B42221A60194B40221A60BD4680BDC0463000104028FF0B405E
:40018000FDF1FF0F2CFF0B4004010B40060000800C020B407C002E406A2D00006CF02E40DC050000040301400000014041FF008008030140007FBB0042FF0080000301409E
:4001C00040FF008008010B4000010B40200101401C0101400401014080B582B000AF72B6514B00221A60FB1D00221A7023E0FB1D1A78131C5B009B185B004C4A9B183B6037
:400200003B681A78597809020A43997809040A43DB781B0613431A1C3B6819795B791B020B439BB2101C191C06F072F8FB1D1A78FB1D01321A70FB1D1B78012BD7D93C4AE7
:400240003C4B101C191C06F073F83B4BEE2212061A603A4B992212041A60394B802212021A60384B04221A60374B384A1A60384B20221A60374BC42292021A60364B802210
:4002800092001A60354B20221A60354B40221A60344B802212031A60334B802292011A60324B0C221A60324BC82212011A60314B30221A60304B992212041A602F4B992261
:4002C00012041A602E4B992212041A602D4B802292051A602C4B992212041A602B4B802292031A602A4B2A4A1278D2B202210A43D2B21A70274B274A1278D2B23C218A4306
:40030000D2B214210A43D2B21A70214B204A1278D2B216210A43D2B21A70FFF7CFFE06F047F8BD4602B080BD6CF02E4024DA010030DA010034DA01000000024000010240E1
:400340000003024000000440080004400001D80000010440080104400C0104401801044000020440080204400C02044000030440080304400C03044000500F4010500F4072
:4003800020500F4024500F4030500F4034500F4000700F4001700F4010B5064C2378002B07D1054B002B02D0044800E000BF0123237010BDF003002000000000F8D201004B
:4003C00008B5084B002B03D00748084900E000BF07480368002B03D0064B002B00D0984708BDC04600000000F8D20100F4030020C80000200000000090B583B000AF674B5F
:400400007B60674B1A680423134000D1B0E0654B1B78002B01D0644B7B607A68624B9A4208D1624B1B78DBB2002B03D0604B04221A60B0E093E05F4B1B68591C5D4A1160F2
:400440007A68D41806F0B6F8031CDBB2237006F0A7FA06F093FA584B1B78DBB2012B20D002DC002B05D07AE0022B26D0032B58D075E0524B00221A804E4B1B68012B0FD943
:400480007B681B78432B07D17B6801331B78592B02D1494B01221A70464B00221A605EE05DE0464B00221A80424B1B68022B03D1414B02221A7052E051E03E4B1B68042B60
:4004C0002BD17B685A883D4B1A803C4B1B889AB28023DB009A420BD9364B00221A60364B00221A70314B01221A7006F059FA36E0324B1B889BB2002B03D02F4B03221A70FF
:400500002DE02C4B00221A602B4B00221A70274B01221A7006F044FA21E0284B00221A801DE0264B1B889BB2002B06D0234B1B889BB2013B9AB2214B1A80204B1B889BB250
:40054000002B0BD11B4B00221A601B4B00221A70164B01221A7006F023FAFFE7C04606F039F8031C002B00D065E7114B04221A600B4B1A6882231B0113400CD00E4B002287
:400580001A700C4B00221A60094B802212011A60074B20221A60BD4603B090BD0C040020CC0F244039080020100800201C080020C00F2440200800201D08002024080020D2
:4005C00080B582B000AF06F049FA031C7B607B68012B09D1074B00221A70074B00221A607B68181C06F044FA06F07AFBBD4602B080BDC0461D0800202008002090B58DB020
:4006000002AF78603B1C273300221A703B1C0C3300221A6000225A6000229A600022DA6000221A6100225A6100221A833B1C27331B783A1C2732591C11707A6811783A1C6B
:400640000C32D1543B1C27331B783A1C0C32D2187B685B68101C191C06220BF0ACFC3B1C27333A1C2732127806321A703B1C27331B783A1C2732591C11707A6851783A1CED
:400680000C32D1543B1C27331B783A1C2732591C11707A68127CD1B23A1C0C32D1543B1C27331B783A1C2732591C11707A68117A3A1C0C32D154104B19887B681B7A1A1C89
:4006C0003B1C27331B789BB20C483C1C0C34009403F0CAFC7B681B7A002B07D07B68DA687B681B7A101C191C05F0D2FF0023181CBD460BB090BDC0460C2E00208A060000A0
:4007000080B588B002AF78607B681B89DAB23B1C1633043A1A707B685A897B681B89101C191C0BF047FB031C9AB23B1C15331A703B1C0F3300221A703B1C16331B78022B24
:4007400002D0102B05D009E03B1C0F3301221A7004E03B1C0F3302221A70C046304B1A887B6859893B1C15331B789BB2CB189BB27868C021C9000090081C111C1A1C0223E0
:4007800003F072FC3B1C173300221A702AE07B685A683B1C17331B78796809894B43D318181C042105F074FF3B1C0F33181C012105F06EFF7B685A683B1C17331B787968F0
:4007C00009894B430433D2183B1C16331B78101C191C05F05DFF3B1C17331A783B1C173301321A703A1C17323B1C153312781B789A42CCD37B685A687B685B89191C7B68E8
:400800001B89CB1AD3183B613B695A88054B9A4201D1012300E00023181CBD4606B080BD0C2E0020FFFF000080B586B002AF78607B681B89023B9AB23B1C0C331A807B6864
:400840005A897B681B89101C191C0BF0B3FA031C9AB23B1C0E331A70274B1A887B6859893B1C0E331B789BB2DB189BB2CB189BB2786822490090081C111C1A1C022303F03D
:40088000F3FB3B1C0F3300221A702AE07B685A683B1C0F331B78796809894B43D318181C022105F0F5FE3B1C0C33181C022105F0EFFE7B685A683B1C0F331B7879680989EC
:4008C0004B430233D2183B1C0C331B88101C191C05F0DEFE3B1C0F331A783B1C0F3301321A703A1C0F323B1C0E3312781B789A42CCD3BD4604B080BD0C2E0020070600003D
:4009000090B587B002AF78607B685A897B681B89101C191C0BF04EFA031C9AB23B1C0E331A703B1C093300221A703B1C0D3305221A707B681B89D9B23B1C0C333A1C0D3270
:4009400012788A1A1A703B1C0C331B78022B02D0102B05D009E03B1C093301221A7004E03B1C093302221A70C046374B1A887B6859893B1C0E331B789BB2CB189BB27868C2
:4009800032490090081C111C1A1C022303F06CFB3B1C0F3300221A7030E07B685A683B1C0F331B78796809894B43D2183B1C0D331B78101C191C05F06BFE3B1C0933181C65
:4009C000012105F065FE7B685A683B1C0F331B787968098959433B1C0D331B78CB18D2183B1C0C331B78101C191C05F051FE3B1C0F331A783B1C0F3301321A703A1C0F32C0
:400A00003B1C0E3312781B789A42C6D37B685A687B685B89191C7B681B89CB1AD3183C1C0A34181C06F04EFE031C2380084B1B883A1C0A3212889A4201D1012300E00023CF
:400A4000181CBD4605B090BD0C2E002003060000022E002080B586B002AF78607B685A897B681B89101C191C0BF0A4F9031C9AB23B1C0E331A703B1C0D3305221A707B6898
:400A80001B89D9B23B1C0C333A1C0D3212788A1A1A702B4B1A887B6859893B1C0C331B789BB2381C0E30007880B243439BB2CB1A9BB2786823490090081C111C1A1C022308
:400AC00003F0D2FA3B1C0F3300221A7016E07B685A683B1C0F331B78796809894B43D2183B1C0D331B78101C191C05F0D1FD3B1C0F331A783B1C0F3301321A703A1C0F32DA
:400B00003B1C0E3312781B789A42E0D37B685A687B685B89191C7B681B89CB1AD318181C06F0D0FD031C1A1C074B1B889A4201D1012300E00023181CBD4604B080BDC04635
:400B40000C2E002004060000022E002090B58DB002AF78607B685A897B681B89101C191C0BF028F9031C9AB23B1C23331A703B1C1F3300221A707B6859893B1C23331B78F0
:400B80009AB23B1C24338A181A803B1C223306221A703B1C22331B789AB27B681B899A4211D13B1C1F3302221A703B1C23331B789BB21B0199B23B1C24333A1C2432128892
:400BC0008A181A8003E03B1C1F3301221A70434B1A88786842493B1C24331B880090081C111C1A1C022303F03FFA3B1C273300221A7043E07B685A683B1C27331B787968E2
:400C000009894B43D2183B1C22331B78101C191C05F03EFD3B1C1F33181C012105F038FD3B1C1F331B78012B11D17B685A683B1C27331B787968098959433B1C22331B7830
:400C4000CB18D318181C022105F022FD0FE03B1C0C3300221A6000225A6000229A600022DA603B1C0C33181C102105F011FD3B1C27331A783B1C273301321A703A1C273268
:400C80003B1C233312781B789A42B3D37B685B89DAB27B681B89DBB2D31ADAB23B1C273304321A707B685A683B1C27331B78D3183C1C2034181C06F005FD031C2380094BF5
:400CC0001B883A1C203212889A4201D1012300E00023181CBD460BB090BDC0460C2E002002060000022E002090B585B000AF78603B1C0F3300221A701E4B1B881E4A9342B4
:400D000016D01D4A934203DC1C4A934222D02AE01B4A934215D01B4A934200D023E07B68181CFFF781FD3B1C0F3301221A701AE03C1C0F347B68181CFFF7E2FD031C23704B
:400D400011E03C1C0F347B68181CFFF783FE031C237008E03C1C0F347B68181CFFF7F6FE031C2370C0463B1C0F331B78181CBD4605B090BD0C2E002003FE000002FE0000AB
:400D800004FE000007FE000080B584B002AF7860154B1A887B681B7A9B009BB2786813490090081C111C1A1C022303F05DF97B685A687B681B7A9B00101C191C05F068FCA5
:400DC0007B685A687B681B7A09495B189B00D3185A88084B9A4201D1012300E00023181CBD4602B080BDC0460C2E002001060000FFFFFF3FFFFF000080B588B002AF7860C4
:400E00003B1C163300221A807B681B7B012B07D0022B00D009E03B1C163310221A8004E03B1C163302221A80C0467B681B891A1C3B1C16331B880233101C191C0AF0BAFFF7
:400E4000031C1A1C3B1C12331A80354B1A883B1C16331B8803339BB2391C123109884B439BB278682F490090081C111C1A1C022303F0FAF83B1C143300221A802EE07B6837
:400E80005A683B1C14331B88391C1631098802314B43D318181C022105F0FAFB7B680C33181C012105F0F4FB7B685A683B1C14331B88391C1631098802314B430233D218C6
:400EC0003B1C16331B88101C191C05F0E1FB3B1C14331A883B1C143301321A803A1C14323B1C123312881B889A42C8D37B685A687B681B89191C3B1C16331B88CB1A023B20
:400F0000D318FB60FB681A88074B1B889A4201D1012300E00023181CBD4606B080BDC0460C2E002005060000022E002080B586B002AF78603B1C0E33454A1A803B1C0A336E
:400F400001221A803B1C0D3300221A703B1C0A33181C16F029FA3F4B1B883F4A9B18092B00D971E09A003D4BD3181B689F463B1C0E333B4A1A803B1C0D3301221A7038E031
:400F80003B1C0E33C122D2001A807B681B891A1C3B1C0A331B88013B9A4204DA3B1C0D3301221A7025E024E03B1C0E332D4A1A803B1C0D3301221A701BE03B1C0E332A4A1F
:400FC0001A803B1C0D3301221A7012E03B1C0E33264A1A807B681B891A1C3B1C0A331B88013B9A4204DA3B1C0D3301221A70FFE7C046184B1A887B681B8902339BB2786877
:40100000391C0E3109880090081C111C1A1C022303F02AF87B680833181C022105F038FB7B685A687B681B89101C191C05F030FB3B1C0D331B78002B07D0064B1B88181C9C
:40104000002103F0D5F800E0C046BD4604B080BD040400000C2E0020FA01FFFFFCD2010006060000090600000A0600000B06000080B586B002AF78607B681A893B1C0E333D
:4010800004321A807968114A3B1C0E331B880091101C00211A1C022302F0E6FF7B680C33181C022105F0F4FA7B680833181C022105F0EEFA7B685A687B681B89101C191C9E
:4010C00005F0E6FABD4604B080BDC0460C06000080B586B002AF78607B68186816F034FA031C1A1C3B1C0C331A807B681A893B1C0E3306321A807968134A3B1C0E331B8896
:401100000091101C00211A1C022302F0ADFF7B680C33181C022105F0BBFA3B1C0C33181C022105F0B5FA7B680833181C022105F0AFFA7B685A687B681B89101C191C05F08F
:40114000A7FABD4604B080BD0D06000090B59BB002AF786039607B687A2B01D900F053FC9A00D64BD3181B689F463B1C1833181C0BF0D0FD031C002B08D13B1C18330222DF
:401180001A703B1C1833181C0BF012FECC4B01221A70CC4B1B78181C15F0A4FA031CCA4A101C191C03F024F800F02EFC3B681B78022B04D0032B1CD0012B36D036E0C34B1B
:4011C0001B78002B14D0C24B1A88C24B9A420FD1C14B00220092181C00210022002302F043FFBB4B1B88181C002103F001F81DE01CE0B74B1B88DB099BB21A1C07231340DB
:40120000042B11D1B24B1B88B44A00210091101C191C0022002302F027FFAD4B1B88181C002102F0E5FF01E000E0C04600F0ECFB3B1C163300221A803B1C16331B88023357
:401240009BB2A74A391D0091101C00211A1C022302F00AFF3B1C1633181C022105F018FA00F0D2FB3B1C143301221A803B1C14331B8802339BB29A4A391D0091101C0021B5
:401280001A1C022302F0F0FE3B1C1433181C022105F0FEF93B1C14331B883A68101C191C05F0F6F900F0B0FB3B1C123301221A803B1C12331B8802339BB2894A391D00917B
:4012C000101C00211A1C022302F0CEFE3B1C1233181C022105F0DCF93B1C12331B883A68101C191C05F0D4F900F08EFB784B1A88784B9A4215D13C1C5E343B68181CFFF7AD
:401300007DF9031C23803B1C5E331B88002B08D06F4B1A883B1C5E331B88101C191C02F067FF71E36F4B704A0092181C00210422022302F099FE3B68181C042105F0A8F932
:4013400062E3634B1B88694A67490091101C191C0022022302F088FE56E35D4B1B88644A61490091101C191C0422022302F07CFE3B68181C042105F08BF945E33B68BB65DE
:401380003B1C103310221A803B1C10331B8802339BB2534A391D0091101C00211A1C022302F062FE3B1C1033181C022105F070F9BB6D1A1C1A323B1C10331B88101C191CF3
:4013C00005F066F920E3424B1A884A4B9A4204D1484B181C002102F00BFF15E33C4B1A88444B9A4211D1394B00221A70424A414B3D490091101C191C0122022302F034FEA3
:401400003B68181C012105F043F9FDE23B4B1A78354B1A70D223DB00334A0092181C00210122022302F020FE3B68181C012105F02FF9264B1B78002B0FD0254B1A88304B44
:401440009A4204D02F4B1A882D4B9A4205D12C4B181C002102F0CCFED6E2D5E23B687B653B1C523307221A80274A3B1C52331B881D490091101C00211A1C022302F0F4FDEB
:401480007B6D181C012105F003F97B6D0233181C022105F0FDF87B6D0433181C022105F0F7F87B6D0633181C022105F0F1F8084B1B88181C002102F09BFEA5E224D301009A
:4014C00038080020CC00002007FC0000390800200C2E002093FE000091060000110600000404000092060000703000208D0600008E06000099FE000093060000002E00209E
:4015000098FE0000042E0020840600003B68FB643B1C4A3307221A80CC4A3B1C4A331B88CB490091101C00211A1C022302F09CFDFB6C181C012105F0ABF8FB6C0233181C16
:40154000022105F0A5F8FB6C0433181C022105F09FF8FB6C0633181C022105F099F8BD4B1B88181C002102F043FE4DE23B687B64B94BB74A0092181C00210822022302F0A7
:4015800073FD7B6C181C022105F082F87B6C0233181C022105F07CF87B6C0433181C022105F076F87B6C0633181C022105F070F82AE23B681B88012B06D1A64B1B88181C69
:4015C000002102F015FE1FE21EE2A44B1A88A44B9A4219D1A34B00221A70A34B00220092181C00210022002302F03EFD9B4B1A883B681B78101C191C02F0FAFD974B181C5D
:40160000002108220AF0E0FC924B1A88974B9A4214D13B681B78002B10D0934B00220092181C00210022002302F01EFD894B1A883B681B78101C191C02F0DAFDE4E13B68AF
:401640003B643B6C9B79072B08D00A2B17D1814B1B88181C002102F0CBFD39E07D4B1A88834B9A4204D07B4B1A88824B9A4206D1784B1B88181C002102F0BAFD28E03B1CBF
:401680003F3304221A70774B00221A70714B1A883B1C3F331B789BB2386C77490090081C111C1A1C022302F0DFFC3B6C0233181C012104F0EDFF3B6C0433181C022104F0EB
:4016C000E7FF3B6C0633181C012104F0E1FFC0469AE15F4A3B68111C1A1C0223081C111C1A1C0AF068FC5A4B1A78644B1A70594B1B88634A56490091101C191C0022022384
:4017000002F0B2FC80E1534B1A885E4B9A4210D1504B1B885C4A39680091101C191C0022042302F0A1FC4B4B1B88181C002102F05FFD69E13B68181CFEF7E2FF031C002B96
:4017400005D0444B1B88181C002102F051FD5BE13B68181CFFF7C8FA031C002B05D03D4B1B88181C002102F043FD4DE13B68181CFFF742FB031C002B05D0364B1B88181C82
:40178000002102F035FD3FE13B68181CFFF7FCFA031C002B05D02F4B1B88181C002102F027FD31E13B68181CFFF7C0FB2CE1294B1B88181C002102F01BFD25E13B689B7881
:4017C000002B06D0234B1B88181C002102F010FD1AE1204B1B88181CFF2102F009FD13E13B68181CFFF744FC0EE13B68181CFFF76FFC09E13B68BB633B1C36330A221A80D5
:40180000BB6B1A783B1C0C331A70A023DA003B1C36331B88391C0C310091101C00211A1C022302F021FCBB6B0233181C022104F02FFFBB6B0433181C022104F029FFBB6B2C
:401840000633181C062104F023FFDDE084060000703000200C2E002096060000042E002094FE0000390800209106000093FE00000FFE000008FE00000E060000002E0020DF
:401880008F06000012FE00000F0600003B683B633B1C2E330A221A803B6B1A783B1C08331A705B4B1A885B493B1C2E331B88381C08300090081C111C1A1C022302F0D4FB8B
:4018C0003B6B0233181C022104F0E2FE3B6B0433181C022104F0DCFE3B6B0633181C062104F0D6FE4A4B1B88181C002102F080FC8AE0494B3A680092181C00210022022315
:4019000002F0B2FB80E0424B1B88444A39680091101C191C0022042302F0A6FB3C4B1B88181C002102F064FC6EE03B68BB62BB6A1A893B1C263304321A80B96A384A3B1C58
:4019400026331B880091101C00211A1C022302F08BFBBB6A0233181C022104F099FEBB6A0833181C022104F093FEBB6A5A68BB6A1B89101C191C04F08BFE45E0294B3A6879
:401980000092181C00210022042302F06DFB3BE0254B3A680092181C00210022062302F063FB31E03B683B623B6A1A893B1C1E3304321A80164B1A88386A1C493B1C1E332B
:4019C0001B880090081C111C1A1C022302F04CFB3B6A0233181C022104F05AFE3B6A0833181C022104F054FE3B6A5A683B6A1B89101C191C04F04CFE054B1B88181C00213E
:401A000002F0F6FB00E0C046BD4619B090BDC0460C2E00200105000002050000030500000405000005050000060500000705000080B582B000AF786039607B687A2B0ED830
:401A40007B689A000B4BD3181B689F460A4B1B7801225340DBB2002B00D007E000E0C0467A683B68101C191CFFF770FBBD4602B080BDC04610D501003908002080B586B05C
:401A800002AF78600123FB607B681B888022D200391C0C310091101C191C0022042302F0E3FA0023181CBD4604B080BD80B586B002AF78603A1C08320C4B111C1A1C0823D4
:401AC000081C111C1A1C0AF076FA7B681B88084A391C08310091101C191C0022082302F0C3FA0023181CBD4604B080BDFCD601000104000080B586B002AF78603A1C0832FA
:401B00000C4B111C1A1C0823081C111C1A1C0AF052FA7B681B88084A391C08310091101C191C0022082302F09FFA0023181CBD4604B080BD04D701000204000080B586B02B
:401B400002AF78603B1C0F3303221A707B681B88074A391C0F310091101C191C0022012302F082FA0023181CBD4604B080BDC0460504000080B586B002AF78603B1C0F339B
:401B800002221A707B681B88074A391C0F310091101C191C0022012302F066FA0023181CBD4604B080BDC0460604000080B586B002AF78603B1C0F3303221A707B681B8864
:401BC000074A391C0F310091101C191C0022012302F04AFA0023181CBD4604B080BDC0460704000080B586B002AF78603B1C0F3302221A707B681B888122D200391C0F316A
:401C00000091101C191C0022012302F02DFA0023181CBD4604B080BD80B500AF094B1B78022B04D1084B1B78181C14F0A5FB04F031F8064B00221A70054B00221A70BD4664
:401C400080BDC04650300020703000203A0800203808002080B582B000AF7860FFF7DCFF04F0D6F9084B1B78DBB220221343DAB2054B1A70054B181C05F0C6FB031C181C7F
:401C8000BD4602B080BDC04680300020311A000080B582B000AF78600B4B00221A700B4B1B78002B0AD0C046012005F0FDFB031C002BF9D1FFF7B0FF03F05AFF0023181CC3
:401CC000BD4602B080BDC046390800203A08002080B582B000AF7860114B00221A70114B1B88DB099BB21A1C07231340042B02D115F0A8FD0EE00B4B1A880B4B9A4202D1B9
:401D000005F0C0FC06E0074B1A88084B9A4201D105F04CFC0023181CBD4602B080BDC046390800200C2E002097FE000093FE000080B586B002AF78603B1C0F332E221A7043
:401D40003B1C0E3316221A707B681A883B1C0F331B789BB21449381C0E300090081C111C1A1C012302F080F93B1C0E331B780F4A101C191C04F08CFC3B1C0E3317221A70BA
:401D80003B1C0E33181C012104F082FC3B1C0E331B78074A101C191C04F07AFC0023181CBD4604B080BDC0460A0400000CD7010024D7010080B586B002AF78603B1C0833B7
:401DC00001221A803B1C083300225A803B1C083300229A803B1C08330022DA807B681B88074A391C08310091101C191C0022082302F03AF90023181CBD4604B080BDC046A2
:401E00000B04000090B587B002AF78603C1C0E343B1C0833181C0AF0A7F9031C23807B681A883B1C0E331B88101C191C02F084F93B1C0E331B88002B0BD17B681B88084A28
:401E4000391C08310091101C191C0022042302F00BF93B1C0E331B88181CBD4605B090BD0304000080B586B002AF78600BF0AAFD031C1A1C3B1C0F331A707B681B88074A43
:401E8000391C0F310091101C191C0022012302F0EBF80023181CBD4604B080BD0904000080B582B000AF78607B685B681A78064B1A70054B1B78181C14F014FC031C181CA9
:401EC000BD4602B080BDC046CC00002080B584B002AF78607B681B88D022D20006490091101C191C0022012302F0BEF80023181CBD4602B080BDC046CC00002090B589B0DA
:401F000002AF78603B1C0C3300221A703B1C0C3300225A703B1C0C3300229A703B1C0C330022DA703B1C0C3300221A713B1C0C3300225A713B1C0C3300229A717B685B6861
:401F40001A783B1C0C339A713C1C16343B1C0C33181C0AF005F9031C23807B681A883B1C16331B88101C191C02F0E6F83B1C16331B88002B12D17B681B880C4A391C0C3150
:401F80000091101C191C0122062302F06DF83B1C0C330633181C012104F07AFB3B1C16331B88181CBD4607B090BDC0468106000080B584B000AF78607B685B683A1C0832CD
:401FC000111C1A1C0623081C111C1A1C09F0F3FF7B685B689A793B1C08339A713B1C0833181C0AF0D3F8031C181CBD4604B080BD90B589B002AF78603B1C0C3300221A7072
:402000003B1C0C3300225A703B1C0C3300229A703B1C0C330022DA703B1C0C3300221A713B1C0C3300225A713B1C0C3300229A717B685B68214A111C1A1C0223081C111CE7
:402040001A1C09F0B8FF1D4B1A783C1C16343B1C0C33101C191C14F093FA031C23807B681A883B1C16331B88101C191C02F064F83B1C16331B88002B18D17B681A887B685E
:4020800059680F4B0091181C111C0722022301F0EBFF3B1C0C33181C062104F0F9FA3B1C0C330633181C012104F0F2FA3B1C16331B88181CBD4607B090BDC04670300020C9
:4020C0008206000090B589B002AF78603A1C08322A4B111C1A1C0223081C111C1A1C09F06AFF7B685B683A1C0C32111C1A1C0623081C111C1A1C09F05EFF7B685B689A797F
:402100003B1C0C339A713C1C16343A1C08323B1C0C33101C191C14F044FA031C23807B681A883B1C16331B88101C191C02F004F83B1C16331B88002B18D17B681B88104A83
:40214000391C08310091101C191C0722022301F08BFF3B1C0C33181C062104F099FA3B1C0C330633181C012104F092FA3B1C16331B88181CBD4607B090BDC04670300020B5
:402180008306000090B59BB002AF78603B1C0F3302221A703C1C5E343A1C0F323B1C1033101C191C14F0DDF9031C23803B1C5E331B88002B03D03B1C5E331B8834E07B6813
:4021C0005B681A783C1C5E34391C54313B1C10331A33081C111C1A1C14F0E6F8031C23807B681A883B1C5E331B88101C191C01F0A3FF3B1C5E331B88002B12D17B681B8891
:402200000B4A391C54310091101C191C0122062301F02AFF3B1C54330633181C012104F037FA3B1C5E331B88181CBD4619B090BD8B06000080B582B000AF78600223181CD5
:40224000BD4602B080BDC04680B586B002AF78603B1C0E3317221A807B681A8823493B1C0E331B8822480090081C111C1A1C022301F0FAFE1F4B181C022104F009FA1E4B2B
:40228000181C012104F004FA1C4B181C062104F0FFF91B4B181C012104F0FAF9194B181C012104F0F5F9184B181C022104F0F0F9164B181C022104F0EBF9154B181C02210B
:4022C00004F0E6F9134B181C022104F0E1F9124B181C022104F0DCF9104B181C022104F0D7F90023181CBD4604B080BD8506000034300020363000203830002039300020A4
:402300003F30002040300020423000204430002046300020483000204A3000204C30002080B584B000AF78603B1C0F3300221A707B685B68BB603B1C0F331B78BA68D318C5
:40234000181C05F0BFF9031C1A1C6B4B1A803B1C0F333A1C0F32127802321A703B1C0F331B78BA68D318181C05F0ACF9031C1A1C614B5A803B1C0F333A1C0F32127802328F
:402380001A703B1C0F331B78BA68D3181A785A4B1A713B1C0F333A1C0F32127801321A703B1C0F331B78BA68D3185349052289181A1C0623081C111C1A1C09F0FCFD3B1C55
:4023C0000F333A1C0F32127806321A703B1C0F331B78BA68D3181A78474BDA723B1C0F333A1C0F32127801321A703B1C0F331B78BA68D3181A78404B1A733B1C0F333A1CC6
:402400000F32127801321A703B1C0F331B78BA68D318181C05F056F9031C1A1C364BDA813B1C0F333A1C0F32127802321A703B1C0F331B78BA68D318181C05F043F9031CFD
:402440001A1C2D4B1A823B1C0F333A1C0F32127802321A703B1C0F331B78BA68D318181C05F030F9031C1A1C234B5A823B1C0F333A1C0F32127802321A703B1C0F331B78CC
:40248000BA68D318181C05F01DF9031C1A1C1A4B9A823B1C0F333A1C0F32127802321A703B1C0F331B78BA68D318181C05F00AF9031C1A1C104BDA823B1C0F333A1C0F32E1
:4024C000127802321A703B1C0F331B78BA68D318181C05F0F7F8031C1A1C074B1A833B1C0F333A1C0F32127802321A700023181CBD4604B080BDC0463430002080B586B047
:4025000002AF78603B1C0E330A221A807B681A8819493B1C0E331B8818480090081C111C1A1C012301F0A0FD154B181C012104F0AFF8144B181C022104F0AAF8124B181C3B
:40254000022104F0A5F8114B181C012104F0A0F80F4B181C012104F09BF80E4B181C022104F096F80C4B181C012104F091F80023181CBD4604B080BD86060000E4000020FB
:40258000E5000020E6000020E8000020EA000020EB000020EC000020EE00002080B584B000AF78603B1C0F3300221A707B685B68BB603B1C0F331B78BA68D3181A78414B8C
:4025C0001A703B1C0F333A1C0F32127801321A703B1C0F331B78BA68D3181A78394B5A703B1C0F333A1C0F32127801321A703B1C0F331B78BA68D318181C05F063F8031C6E
:402600001A1C304B5A803B1C0F333A1C0F32127802321A703B1C0F331B78BA68D318181C05F050F8031C1A1C264B9A803B1C0F333A1C0F32127802321A703B1C0F331B7869
:40264000BA68D3181A781F4B9A713B1C0F333A1C0F32127801321A703B1C0F331B78BA68D3181A78174BDA713B1C0F333A1C0F32127801321A703B1C0F331B78BA68D318A7
:40268000181C05F01FF8031C1A1C0E4B1A813B1C0F333A1C0F32127802321A703B1C0F331B78BA68D3181A78064B9A723B1C0F333A1C0F32127801321A700023181CBD4620
:4026C00004B080BDE400002080B586B002AF78603B1C0E3303221A807B681A880F493B1C0E331B880E480090081C111C1A1C012301F0BAFC0B4B181C012103F0C9FF0A4B8E
:40270000181C012103F0C4FF084B181C012103F0BFFF0023181CBD4604B080BD870600003401002035010020360100203701002080B584B000AF78603B1C0F3300221A70CC
:402740007B685B68BB603B1C0F331B78BA68D3181A781D4B1A703B1C0F333A1C0F32127801321A703B1C0F331B78BA68D3181A78154B5A703B1C0F333A1C0F321278013282
:402780001A703B1C0F331B78BA68D3181A780E4B9A703B1C0F333A1C0F32127801321A703B1C0F331B78BA68D3181A78064BDA703B1C0F333A1C0F32127801321A700023EA
:4027C000181CBD4604B080BD3401002090B587B002AF78603B1C083300221A703B1C083300225A703B1C083300229A703B1C08330022DA707B685B681B4A111C1A1C02234C
:40280000081C111C1A1C09F0D6FB174B1A783C1C0E343B1C0833101C191C13F0D3FE031C23807B681A883B1C0E331B88101C191C01F082FC3B1C0E331B88002B0CD17B687A
:402840001B88D122D200391C08310091101C191C0022042301F008FC3B1C0E331B88181CBD4605B090BDC0467030002090B595B002AF78603C1C44343A1C41323B1C0833BA
:40288000101C191C13F078FE031C23807B681A883B1C44331B88101C191C01F04DFC3B1C44331B88002B45D13B1C41331B783A1C4232191CC900CB1A13807B681A882149AC
:4028C0003B1C42331B8800200090081C111C1A1C002301F0C9FB3B1C463300221A8021E03B1C46331A88391C0831131CDB009B1ACB18181C062103F0CBFE3B1C46331A88A2
:40290000391C0831131CDB009B1ACB180633181C012103F0BDFE3B1C46331A883B1C463301321A803B1C41331B783A1C463212889A42D5D33B1C44331B88181CBD4613B066
:4029400090BDC0468906000090B587B000AF78603B1C1633FF221A807B685B683A1C0C32111C1A1C0623081C111C1A1C09F023FB7B685B689A793B1C0C339A713C1C1634B7
:402980003B1C0C33181C13F041FC031C23803B1C16331B88181CBD4607B090BD90B587B000AF78603B1C1633FF221A807B685B683A1C0C32111C1A1C0623081C111C1A1C22
:4029C00009F0F9FA7B685B689A793B1C0C339A713C1C16343B1C0C33181C13F025FE031C23803B1C16331B88002B02D1012004F05BFD3B1C16331B88181CBD4607B090BD11
:402A000090B587B000AF78603B1C1633FF221A803B1C0C3300221A703B1C0C3300225A703B1C0C3300229A703B1C0C330022DA703B1C0C3300221A713B1C0C3300225A71EA
:402A40003B1C0C3300229A713C1C16343B1C0C33181C13F0E9FD031C23803B1C16331B88002B02D1012004F01FFD3B1C16331B88181CBD4607B090BD80B582B000AF78609E
:402A8000022004F049FD031C181CBD4602B080BD80B584B000AF78603B1C0E3300221A80094B1A88094B9A4202D104F07FFD03E03B1C0E3302221A803B1C0E331B88181C20
:402AC000BD4604B080BDC0460C2E002093FE000090B597B002AF78607B685B681A783C1C4E343B1C0C33101C191C13F0B0FC031C23807B681A883B1C4E331B88101C191C01
:402B000001F01AFB3B1C4E331B88002B67D17B681B88364A00210091101C191C4522002301F0A2FA3B1C0B3310221A703B1C0B33181C012103F0ACFD3B1C0B331B783A1C2B
:402B40000C32101C191C03F0A3FD3B1C0B330A221A703B1C0B33181C012103F099FD3B1C0B331B783A1C0C321032101C191C03F08FFD3B1C0B3310221A703B1C0B33181C6C
:402B8000012103F085FD3B1C0B331B783A1C0C321A32101C191C03F07BFD3B1C0C332B33181C062103F074FD3B1C0C332A33181C012103F06DFD3B1C0B3310221A703B1CA9
:402BC0000B33181C012103F063FD3B1C0B331B783A1C0C323132101C191C03F059FD3B1C4E331B88181CBD4615B090BD8C06000080B582B000AF78600223181CBD4602B0D3
:402C000080BDC04680B584B000AF78607B685B683A1C0832111C1A1C0623081C111C1A1C09F0C9F97B685B689A793B1C08339A713B1C0833181C04F0C9FC031C181CBD4632
:402C400004B080BD80B586B002AF7860134B1B78022B18D03B1C0F3300221A70D223DB000F4A0092181C00210122022301F0FCF93B1C0F33181C012103F00AFD094B002287
:402C80001A70002306E07B685B681B78181C13F073FB031C181CBD4604B080BD50300020703000203908002080B582B000AF78607B685B680A4A111C1A1C0223081C111CDA
:402CC0001A1C09F078F9064B1A78064B101C191C13F0D9FA031C181CBD4602B080BDC046703000203401002090B587B000AF78607B685B683A1C0C32111C1A1C0623081C7C
:402D0000111C1A1C09F057F97B685B689A793B1C0C339A713C1C16343B1C0C33181C13F083FC031C23803B1C16331B88002B08D17B685B683C1C1634181C13F067FA031C97
:402D400023803B1C16331B88181CBD4607B090BD80B586B000AF78603B1C173302221A707B685B683B613B1C17331B783A1C1732591C11703A69D3181B78FB60264B1A8857
:402D8000264B9A4201D0022342E03B1C17331B783A1C1732591C11703A69D3181B781B02FA681343FB603B1C17331B783A1C1732591C11703A69D3181B781B04FA681343D3
:402DC000FB603B1C17331B783A1C1732591C11703A69D3181B781B06FA681343FB60104A3B69111C1A1C0223081C111C1A1C09F0E2F80B4B19783B1C17331B783A69D318D1
:402E00001B78FA68081C111C1A1C13F025FA031C181CBD4606B080BD0C2E002099FE00007030002080B584B000AF78607B685B68FB600B4AFB68111C1A1C0223081C111C78
:402E40001A1C09F0B8F8064B1A78FB680233101C191C13F039FD031C181CBD4604B080BD7030002090B587B002AF78603C1C0E3404F008FC031C23807B681A883B1C0E33E1
:402E80001B88101C191C01F057F93B1C0E331B88002B0DD10A4B00221A707B681B88094A00210091101C191C0022002301F0DCF83B1C0E331B88181CBD4605B090BDC04618
:402EC000390800209406000090B58FB002AF78603C1C2C343B1C0C33181C13F0FAFA031C23807B681A883B1C2C331B88101C191C01F022F93B1C2C331B88002B46D13B1C52
:402F00000C331B783A1C2A32191CC900CB1A13807B681A8821493B1C2A331B8800200090081C111C1A1C002301F09EF83B1C2E3300221A8022E03B1C2E331A88391C0C310E
:402F4000131CDB009B1ACB180133181C062103F09FFB3B1C2E331A88391C0C31131CDB009B1ACB180733181C012103F091FB3B1C2E331A883B1C2E3301321A803B1C0C3381
:402F80001B783A1C2E3212889A42D4D33B1C2C331B88181CBD460DB090BDC0469506000090B585B000AF78607B685B68FB600D4AFB68111C1A1C0223081C111C1A1C08F0AD
:402FC000FAFF084B1C78FB680233181C04F07AFB031C201C191C11F017FB031C181CBD4605B090BD7030002090B599B002AF78607B685B687B657B6D19787B685B689A1C8F
:403000003C1C52343B1C1033081C111C1A1C13F0E9FA031C23807B681A883B1C52331B88101C191C01F088F83B1C52331B88002B67D17B681B88364A796D0091101C191C53
:403040004522022301F010F83B1C0F3310221A703B1C0F33181C012103F01AFB3B1C0F331B783A1C1032101C191C03F011FB3B1C0F330A221A703B1C0F33181C012103F02A
:4030800007FB3B1C0F331B783A1C10321032101C191C03F0FDFA3B1C0F3310221A703B1C0F33181C012103F0F3FA3B1C0F331B783A1C10321A32101C191C03F0E9FA3B1CFB
:4030C00010332B33181C062103F0E2FA3B1C10332A33181C012103F0DBFA3B1C0F3310221A703B1C0F33181C012103F0D1FA3B1C0F331B783A1C10323132101C191C03F073
:40310000C7FA3B1C52331B88181CBD4617B090BD9706000080B582B000AF78607B685B681A785B781B021A4300231204120C1B0C1B041343181C14F041FA031C181CBD4638
:4031400002B080BD80B586B000AF78603B1C173302221A703B1C163300221A707B685B682C4A111C1A1C0223081C111C1A1C08F022FF7B685A683B1C17331B78391C173119
:40318000581C0870D2183B1C163312781A703B1C16331B78012B04D13B1C0C3302229A8008E03B1C16331B78022B03D13B1C0C3310229A807B685B881A1C3B1C0C339B88CA
:4031C000191C3B1C17331B78CB189A4201D001231BE07B685A683B1C17331B78D2183B1C0C331A600B4B3A1C0C3219785B781B02194300230904090C1B0C1B040B43181C10
:403200001168526814F026FA031C181CBD4606B080BDC0467030002080B584B000AF78607B685B680233FB607B685B68104A111C1A1C0223081C111C1A1C08F0BCFEFB68DE
:403240005A880C4B1A800A4BFA6819785B781B02194300230904090C1B0C1B040B43181C111C14F025FA031C181CBD4604B080BD70300020022E002080B584B000AF786043
:403280007B685B680233FB607B685B68134A111C1A1C0223081C111C1A1C08F08CFEFB685A880F4B1A800D4BFA6819785B781B02194300230904090C1B0C1B040B43118802
:4032C00052881204114300220A1C181C111C14F059F9031C181CBD4604B080BD70300020022E002090B58BB000AF021C3960FB1D1A703B1C273302221A703B1C243302227B
:403300001A803B1C233307221A703B685B685A4A111C1A1C0223081C111C1A1C08F04BFE3B685A683B1C27331B78391C2731581C0870D3181A783B1C0C331A753B1C0C33BF
:403340001B7D012B1CD13B685A683B1C27331B78D318181C04F0B6F9031C1A1C3B1C0C339A803B1C23333A1C2332127802321A703B1C27333A1C2732127802321A7022E0E2
:403380003B1C0C331B7D022B1DD13B685A683B1C27331B78D3183A1C0C32111D1A1C1023081C111C1A1C08F006FE3B1C23333A1C2332127810321A703B1C27333A1C273274
:4033C000127810321A703B685A883B1C23331B789BB29A4244D13B685A683B1C27331B78D3183A1C0C32111C1A1C0423081C111C1A1C08F0E0FDFB1D1B78002B1AD03B1C4F
:403400000C335A881D4B1A803C1C24341A4B3A1C0C3219785B781B02194300230904090C1B0C1B040B43181C111C14F0DFF8031C238019E03C1C24340F4B3A1C0C321978E4
:403440005B781B02194300230904090C1B0C1B040B43181C111C14F091F9031C238003E03B1C243301221A803B1C24331B88181CBD460BB090BDC04670300020022E002082
:4034800080B582B000AF78607B680120191CFFF729FF031C181CBD4602B080BD80B584B000AF78607B685B680233FB607B685B68104A111C1A1C0223081C111C1A1C08F055
:4034C0007AFDFB685A880C4B1A800A4BFA6819785B781B02194300230904090C1B0C1B040B43181C111C14F037F8031C181CBD4604B080BD70300020022E002080B584B05E
:4035000000AF78607B685B680233FB607B685B680F4A111C1A1C0223081C111C1A1C08F04AFDFB681A880A4B19785B781B02194300230904090C1B0C1B040B43181C111C10
:4035400014F0DBF8031C181CBD4604B080BDC0467030002080B582B000AF78607B680020191CFFF7BFFE031C181CBD4602B080BD80B584B000AF78607B685B680233FB6023
:403580007B685B680E4A111C1A1C0223081C111C1A1C08F010FD0A4BFA6819785B781B02194300230904090C1B0C1B040B43181C111C14F0BFF8031C181CBD4604B080BD29
:4035C0007030002080B584B000AF78607B685B685A883B1C08339A807B685B881A1C3B1C08339B8802335B009A4201D0012322E07B685B68124A111C1A1C0223081C111CF8
:403600001A1C08F0D8FC7B685B681A1D3B1C08331A600B4B3A1C083219785B781B02194300230904090C1B0C1B040B43181C111C14F096F8031C181CBD4604B080BDC046C3
:403640007030002090B587B000AF021C3960FB1D1A703B1C153302221A703B1C163302221A803B685B684E4A111C1A1C0223081C111C1A1C08F09FFC3B685A683B1C1533B7
:403680001B78D3181A883B1C08331A813B1C15333A1C1532127802321A703B685A683B1C15331B78D3181A883B1C08339A803B1C15333A1C1532127802321A703B685A6880
:4036C0003B1C15331B78D2183B1C08331A603B685B881A1C3B1C08339B88191C3B1C15331B78CB189A4204D13B1C08331B68002B04D13B1C163301221A804AE0FB1D1B78EF
:40370000012B1AD0022B2ED0002B00D041E03C1C1634234B3A1C083219785B781B02194300230904090C1B0C1B040B43181C111C14F08EF8031C23802BE03C1C1634184B19
:403740003A1C083219785B781B02194300230904090C1B0C1B040B43181C111C14F082F8031C238015E03C1C16340D4B3A1C083219785B781B02194300230904090C1B0C9A
:403780001B040B43181C111C14F0C2F8031C2380C0463B1C16331B88181CBD4607B090BD7030002080B582B000AF78607B680220191CFFF747FF031C181CBD4602B080BDCE
:4037C00080B582B000AF78607B680120191CFFF739FF031C181CBD4602B080BD90B585B000AF021C3960FB1D1A703B1C0D3302221A703B1C0E3302221A803B685B68474A1B
:40380000111C1A1C0223081C111C1A1C08F0D3FB3B685A683B1C0D331B78D3181A88404B1A813B1C0D333A1C0D32127802321A703B685A683B1C0D331B78D3181A88384B5E
:403840009A813B1C0D333A1C0D32127802321A703B685A683B1C0D331B78D3181A88304B9A803B1C0D333A1C0D32127802321A703B685A683B1C0D331B78D218284B1A602E
:403880003B685B881A1C264B9B88191C3B1C0D331B78CB189A4203D1214B1B68002B04D13B1C0E3301221A8030E0FB1D1B78002B14D13C1C0E34194B194A19785B781B02D5
:4038C000194300230904090C1B0C1B040B43181C111C13F0D1FF031C238017E0FB1D1B78012B13D13C1C0E340C4B0D4A19785B781B02194300230904090C1B0C1B040B43ED
:40390000181C111C13F0DEFF031C23803B1C0E331B88181CBD4605B090BDC046703000202808002080B582B000AF78607B680120191CFFF753FF031C181CBD4602B080BD46
:4039400090B587B000AF78607B685B683B613B1C163302221A703B1C143302221A803B1C16331B783A69D318181C03F0ABFE031C1A1C3B1C0F331A703B1C0F331B78181CEF
:40398000102108F0C7FA031C1A1C614B1A60604B1B68002B09D17B681A88FD231B02101C191C00F0C9FB0123ADE0594B1B68BB603B1C16333A1C1632127802321A703B1CC8
:4039C000173300221A7066E03B1C17331B781B01BA68D4183B1C16331B783A69D318181C03F070FE031C23813B1C16333A1C1632127802321A703B1C17331B781B01BA681C
:403A0000D4183B1C16331B783A69D318181C03F059FE031CA3813B1C16333A1C1632127802321A703B1C17331B781B01BA68D4183B1C16331B783A69D318181C03F042FE0C
:403A4000031CA3803B1C16333A1C1632127802321A703B1C17331B781B01BA68D3183A1C1632127839698A181A603B1C17331B781B01BA68D3189B88D9B23B1C16333A1C3A
:403A8000163212788A181A703B1C17331A783B1C173301321A703A1C17323B1C0F3312781B789A4290D37B685A883B1C16331B789BB29A4204D03B1C143301221A801FE094
:403AC000144A3B69111C1A1C0223081C111C1A1C08F071FA3C1C14340E4BB9683A1C0F32127818785B781B02184300230004000C1B0C1B040343181C13F060FE031C238026
:403B00003B1C14331B88181CBD4607B090BDC0468C0800207030002080B584B000AF78607B685B68FB607B685B68104A111C1A1C0223081C111C1A1C08F03DFAFB680233C8
:403B40001A880A4B19785B781B02194300230904090C1B0C1B040B43181C111C13F0C6FD031C181CBD4604B080BDC0467030002080B584B000AF78607B685B680233FB603E
:403B80007B685B680E4A111C1A1C0223081C111C1A1C08F010FA0A4BFA6819785B781B02194300230904090C1B0C1B040B43181C111C13F0A9FD031C181CBD4604B080BD38
:403BC0007030002080B582B000AF78607B680020191CFFF737FD031C181CBD4602B080BD80B582B000AF78607B680020191CFFF7F5FD031C181CBD4602B080BD80B582B0B6
:403C000000AF78607B685B68104A111C1A1C0223081C111C1A1C08F0CEF97B685B6802331A880A4B19785B781B02194300230904090C1B0C1B040B43181C111C13F026FD20
:403C4000031C181CBD4602B080BDC0467030002080B586B002AF78603B1C0E3302221A80154B1B88DB099BB21A1C07231340042B1AD113F0E7FD114B00221A700E4B1B8803
:403C8000181C002100F058FA0B4B1B88C222D20000210091101C191C0022002300F0E4F93B1C0E3300221A803B1C0E331B88181CBD4604B080BDC0460C2E00203908002021
:403CC00090B585B000AF78607B685B683C1C0E34181C03F0F7FC031C23807B685B6802333C1C0C34181C03F0EDFC031C23803B1C0E331A883B1C0C331B88101C191C10F08E
:403D00005FFB031C181CBD4605B090BD90B585B000AF78607B685B683C1C0E34181C03F0D1FC031C23803B1C0E331B88181C10F088FB031C181CBD4605B090BD90B587B014
:403D400000AF78607B685B687B613B1C133302221A703B1C13331B787A69D3183C1C1034181C03F0AFFC031C23803B1C13333A1C1332127802321A703B1C13331B787A692E
:403D8000D3183C1C0E34181C03F09CFC031C23803B1C13333A1C1332127802321A703B1C13331B787A69D318181C03F08BFC031C1A1C3B1C08331A803B1C13333A1C133218
:403DC000127802321A703B1C13331B787A69D318181C03F077FC031C1A1C3B1C08335A803B1C13333A1C1332127802321A703B1C13331B787A69D318181C03F063FC031CFF
:403E00001A1C3B1C08339A803B1C13333A1C1332127802321A707B6918783B1C103319883B1C0E331A883B1C083310F0A9FA031C181CBD4607B090BD90B587B000AF7860A5
:403E40007B685B687B613B1C133300221A703B1C13331B787A69D3183C1C1034181C03F031FC031C23803B1C13333A1C1332127802321A703B1C13331B787A69D3183C1CF1
:403E80000E34181C03F01EFC031C23803B1C13333A1C1332127802321A703B1C13331B787A69D318181C03F00DFC031C1A1C3B1C08331A803B1C13333A1C13321278023298
:403EC0001A703B1C13331B787A69D318181C03F0F9FB031C1A1C3B1C08335A803B1C13333A1C1332127802321A703B1C13331B787A69D318181C03F0E5FB031C1A1C3B1C2D
:403F000008339A803B1C13333A1C1332127802321A703B1C103319883B1C0E331A883B1C0833081C111C1A1C10F03BFA031C181CBD4607B090BDC04690B585B000AF786088
:403F40007B685B683C1C0E34181C03F0BBFB031C23807B685B6802333C1C0C34181C03F0B1FB031C23803B1C0E331A883B1C0C331B88101C191C10F059FA031C181CBD46DD
:403F800005B090BD90B587B000AF78607B685B683B613B1C0F3302221A703B1C163301221A803B1C0F331B783A69D3183C1C0C34181C03F087FB031C23803B1C0F333A1C6A
:403FC0000F32127802321A703B1C0F331B783A69D3183C1C0A34181C03F074FB031C23803B1C0F333A1C0F32127802321A703B1C0A331A883B1C0F331B78D2187B685B8806
:404000009A4212D13B6918783B1C0F331B783A69D2183C1C16343B1C0C3319883B1C0A331B8810F019FA031C23803B1C16331B88181CBD4607B090BD90B585B000AF786070
:404040007B685B683C1C0E34181C03F03BFB031C23803B1C0E331B88181C10F0CAFA031C181CBD4605B090BD90B587B000AF041C081C111C1A1CBB1D1C803B1D1880BB1C49
:4040800019803B1C1A803B1C0A332A4A1A803B1C0A33181C022102F0FBFA3B1C0C33BA1D12885A803B1C1B8802339AB23B1C0C331A803B1C173304221A703B1D1B88002BFF
:4040C00013D03B1C0C333A1D12889A803B1C17333A1C1732127802321A703B1C0C331B8802339AB23B1C0C331A803B1C0C331A88BB1C1B88D3189AB23B1C0C331A803B1C5A
:4041000017331B783A1C0C32101C191C02F0C0FA3B1C1B88002B09D0BB6A002B06D03B1C1B88BA6A101C191C02F0B2FABD4607B090BDC046BDA7FFFF80B586B000AF0A1C11
:40414000BB1D011C19803B1D1A803B1C0E33214A1A803B1D1B88002B16D01F4B1B88BA1D12889A420AD11D4B00221A701C4A1D4B101C00211A1C07F027FF05E01A4B181CE1
:4041800000210C2207F020FF3B1C0E33181C022102F07EFA3B1C103306221A803B1C1033124A5A803B1C1033BA1D12889A803B1C10333A1D1288DA803B1C10331B88023399
:4041C0003A1C1032101C191C02F062FABD4606B080BDC046BDA7FFFF0C2E0020390800200C04002004040000100800207E04000080B586B000AF0A1CBB1D011C19803B1D47
:404200001A803B1C0E33254A1A803B1C0E33181C022102F03DFA224B1B88BA1D12889A420AD1204B00221A701F4A204B101C00211A1C07F0C9FE05E01D4B181C00210C22F7
:4042400007F0C2FE1B4B1B783A1D128851424A41D2B2134002D0184B01221A703B1C103306221A803B1C1033144A5A803B1C1033BA1D12889A803B1C10333A1D1288DA808E
:404280003B1C10331B8802333A1C1032101C191C02F0FEF9BD4606B080BDC046BDA7FFFF0C2E0020390800200C0400200404000010080020380800203A0800207F040000DC
:4042C00080B582B000AF104B7B60104B3B60104B1B78002B03D00F4B7B600F4B3B607B681A883B681A807B685A883B685A803B685B88002B03D07B681A1D3B685A603B68C4
:40430000181CBD4602B080BD0C0400200C2E00203908002010080020042E002090B585B000AF3B1C0A3306221A800023FB60FFF7C7FF031C7B607B681B88D9B2FB1C7F2266
:404340000A401A707B681B88DB099BB2D9B2BB1C07220A401A70BB1C1B78052B34D89A00754BD3181B689F46FB1C1B780D2B06D8FB1C1B78DA00714BD318FB6027E026E0AD
:40438000FB1C1B78062B06D8FB1C1B78DA006C4BD318FB601BE01AE0FB1C1B78132B06D8FB1C1B78DA00674BD318FB600FE00EE0FB1C1B78202B06D8FB1C1B78DA00624BAB
:4043C000D318FB6003E002E0C04600E0C0465F4B1B7801225340DBB2002B0CD0BB1C1B78002B08D05A4B00221A707B681B88181C0221FFF7A1FE574B1B78002B09D0BB1CFF
:404400001B78002B05D0FB681B781A1C1023134006D0FB68002B03D0FB685B68002B09D14B4B00221A707B681B88181C0221FFF783FE7EE07B685A888023DB009A420BD9DE
:40444000434B00221A707B681A88FD231B02101C191CFFF771FE6CE0FB681B781A1C0123134005D0FB685A887B685B889A4207D17B685B88002B0DD07B685B68002B09D17E
:40448000334B00221A707B681B88181C0121FFF753FE4EE0304B1B78DBB2012B09D12C4B00221A707B681B88181C0821FFF744FE3FE0FB681B781A1C0223134005D07B6827
:4044C0001B88181C0021FFF737FE07F05AFE214B01221A701E4B00221A70FB685B683C1C0A347A68101C9847031C2380FB681B781A1C0423134008D07B681A883B1C0A331A
:404500001B88101C191CFFF717FE3B1C0A331B88002B0ED1FB681B781A1C0823134008D07B681A883B1C0A331B88101C191CFFF75FFEBD4605B090BD8CD901003CD70100BA
:4045400054D90100B4D80100ACD70100380800201C080020390800206C30002080B500AF06F082FF021C8023DB009A4200D01AE08023DB00181C06F085FF0C4B1B781A1C52
:404580000B4B1B68D2180A4B1A600A4B1B68002B09D0094B1B7801225340DBB2002B02D0044B1B689847BD4680BDC046400800203C08002044080020142E002080B582B06E
:4045C00000AF7860144B7A681A60144B01221A7006F0F6FD124B0820191C06F089FF082007F000F80120012106F028FE01201F2106F0F2FE0120012106F050FE80235B000A
:40460000181C06F083FE06F0B1FD064B01221A70BD4602B080BDC04644080020142E00205D4500004008002080B500AF024B1B68181CBD4680BDC0463C08002080B584B062
:4046400000AF786039603B1C0F3300221A70114B1A687B68D21A3B689A4204D33B1C0F3301221A700FE00B4B1B687A689A420AD97A683B68D218074B1B689A4203D33B1CD6
:404680000F3301221A703B1C0F331B78181CBD4604B080BD3C08002080B500AF01F0B8FCBD4680BD80B500AF074B1B78052B09D101F0AEFC022002F02FFF031C002B01D0BF
:4046C000FFF7EAFFBD4680BD5030002080B500AF074B1B78182B09D0064B1B78181C11F04BFE031C002B01D0FFF7D6FFBD4680BDD00000207030002090B587B002AF0A1C8B
:40470000FB1D011C1970BB1D1A703C1C0E34134BBA1D127801210091F91D019119785B781B02194300230904090C1B0C1B040B43181C0021022305F05FFB031C23803B1C0D
:404740000E331B88002B01D0FFF7A6FF3B1C0E331B88181CBD4605B090BDC0467030002080B586B002AF0A1CFB1D011C1970BB1D1A703B1C0E3301221A80124BFA1D1178D0
:40478000BA1D127802200090381C0E30019018785B781B02184300230004000C1B0C1B040343181C002305F001FC031C002B02D0FFF772FF02E0044B03221A70BD4604B0C6
:4047C00080BDC0467030002068080020B0B584B000AF021CFB1D1A703C1C0E34104BFD1D1A785B781B021A4300231204120C1B0C1B041343181C002101222B1C03F0C2F9D0
:40480000031C23803B1C0E331B88002B01D0FFF743FF3B1C0E331B88181CBD4604B0B0BD7030002090B587B002AFD74B1B78002B03D1D64B02221A7066E2D34B1B78013B0F
:40484000DAB2D14B1A70D04B1B78182B00D95AE29A00CF4BD3181B689F46CE4B1A78CE4B101C191C11F00FFD031C002B03D1C74B03221A7048E2C94B01221A70C24B1922B5
:404880001A7041E2C34B8022920019785B781B02194300230904090C1B0C1B040B43181C111C12F0F3FE031C002B03D1B74B03221A7029E2FFF7F0FE26E2B94B1A89B54B92
:4048C00019785B781B02194300230904090C1B0C1B040B43181C111C12F00FFF031C002B03D1AA4B03221A700EE2FFF7D5FE0BE2A84B1A78AB4B101C191C11F0E5FFAA4B73
:404900001B78002B06D0A84B00221A709E4B00221A70F9E1F8E101200021FFF7EDFEF3E13B1C0F3301221A709A4B012200923A1C0F3201921A785B781B021A4300231204E3
:40494000120C1B0C1B041343181C00210022002305F052FA031C002B02D0FFF79DFED3E1D2E10020FFF732FFCEE1904B1B78002B25D13B1C0833181C242102F0B5FE3B1C02
:4049800008330233181C122102F0AEFE814B3C1C08341A785B781B021A4300231204120C1B0C1B041343181C00210422231C05F0FDFF031C002B02D0FFF76EFEA4E1A3E11E
:4049C000744B1A785B781B021A4300231204120C1B0C1B041343181C00210022012305F07BFA031C002B03D1684B03221A708BE1FFF752FE88E16E4B07221A706C4B1B78D0
:404A00001A1C531CD9B26A4B1970624B19785B781B02194300230904090C1B0C1B040B43181C0021012305F02DFB031C002B03D1564B03221A7067E1FFF72EFE64E15C4B4B
:404A40001B781A1C531CD9B2594B1970514B19785B781B02194300230904090C1B0C1B040B43181C0021012305F00CFB031C002B03D1464B03221A7046E1FFF70DFE43E1D5
:404A80004B4B1B781A1C531CD9B2494B1970414B19785B781B02194300230904090C1B0C1B040B43181C0021012305F0EBFA031C002B03D1354B03221A7025E1FFF7ECFDB9
:404AC00022E13B4B1B781A1C531CD9B2384B1970304B19785B781B02194300230904090C1B0C1B040B43181C0021012305F0CAFA031C002B03D1254B03221A7004E1FFF7E3
:404B0000CBFD01E12A4B1B781A1C531CD9B2284B1970204B19785B781B02194300230904090C1B0C1B040B43181C0021012305F0A9FA031C002B03D1144B03221A70E3E076
:404B4000FFF7AAFDE0E01A4B1B781A1C531CD9B2174B19700F4B19785B781B02194300230904090C1B0C1B040B43181C0021012305F088FA031C002B03D1044B03221A70A9
:404B8000C2E0FFF789FDBFE0D000002068080020A4D9010070300020340100205108002074300020D4000020500800205308002069080020FB1D02221A70554BFC1D1A785F
:404BC0005B781B021A4300231204120C1B0C1B041343181C00210122231C02F04BFF031C002B03D14B4B03221A708DE0FFF754FD8AE03B1D01221A80454B3A1D00921A78E1
:404C00005B781B021A4300231204120C1B0C1B041343181C01210022022305F00DFF031C002B03D13B4B03221A706DE0FFF734FD6AE0BB1C01221A80354B02220092BA1CE5
:404C400001921A785B781B021A4300231204120C1B0C1B041343181C00210022002302F05BF9031C002B03D12A4B03221A704BE0FFF712FD48E0284B5B78062B06D9264B8E
:404C80005B780020191CFFF76BFD3DE03CE0224BDB78062B06D9204BDB780020191CFFF75FFD31E030E01C4B5B79062B06D91A4B5B790020191CFFF753FD25E024E0164B56
:404CC000DB79062B06D9144BDB790020191CFFF747FD19E018E0104B5B7A062B06D90E4B5B7A0020191CFFF73BFD0DE00CE00A4BDB7A062B06D9084BDB7A0020191CFFF7A6
:404D00002FFD01E000E0C046BD4605B090BDC04670300020680800205C08002080B584B000AF78603B1C0E3300221A8064E07B68DA683B1C0E331B88D2183B1C0C331278AF
:404D40001A703B1C0C331B78002B53D07B68DA683B1C0E331B880133D2183B1C0B3312781A703B1C0B331B78022B09D03B1C0B331B78032B04D03B1C0B331B78142B2BD150
:404D80003B1C0E331B88DAB23B1C0D3302321A7016E07B68DA683B1C0D331B78D318181C02F090FC031C1A1C194B9A4201D101232AE03B1C0D333A1C0D32127802321A70EC
:404DC0003B1C0D331A783B1C0E3319883B1C0C331B78CB189A42DCDB3B1C0C331B789AB23B1C0E331B88D3189AB23B1C0E3301321A8001E0002307E07B681B7A3A1C0E326D
:404E000012889A4293D30023181CBD4604B080BD1218000080B582B000AF78607B68002B00D13BE07B681B78012B06D07B68181CFFF774FF031C002B14D07B685B68194A0A
:404E4000111C1A1C0623081C111C1A1C07F0B3F87B685A78134B9A71134B01221A70134B00221A707B681B78012B0ED07B681B78042B13D17B685B680A4A101C191C0622BE
:404E800007F08AF8031C002B08D1074B1B78002B04D002F08BFB054B01221A70BD4602B080BDC046540800204E0800204F08002080B584B002AF3B1C00221A703B1C002206
:404EC0005A703B1C00229A703B1C0022DA703B1C00221A713B1C00225A713B1C00229A713B1C0022DA71284B1B78012B15D002DC002B05D035E0022B19D0032B24D030E0C0
:404F00003B1C01221A70214B3A1C0092181C002100220623FFF7A8F823E01D4B3A1C0092181C002100220823FFF79EF819E03B1C03221A70154B3A1C0092181C00210022A4
:404F40000323FFF791F80CE03B1C04221A700F4B3A1C0092181C002100220223FFF784F8C0460C4B00221A700B4B0A4A0092181C002100220123FFF777F8034B06221A7004
:404F8000BD4602B080BDC046D100002061040000620400004C0800206404000090B58DB002AFD04B1B78DBB2012B00D1FAE1CE4B1B78002B01D0FFF789FB07F0E2F8CB4B12
:404FC0001B78012B00D1B3E102DC002B07D0C3E1022B00D136E1032B00D179E1BCE1C44B1B78052B00D07FE0C24B1B78C24A127813400DD0BF4B00221A70C04B181C02F0B0
:40500000E5FA031C002B00D1A1E0FFF745FB9EE0BB4B1B78DBB2002B34D03B1C00221A703B1C00225A703B1C00229A703B1C0022DA703B1C00221A713B1C00225A713B1CC1
:4050400000229A713B1C181C11F0EEFA031C002B01D0FFF721FB3B1C083300221A703B1C0833181C11F035FA3B1C08331B78002B04D1A44B0022DA71FFF714FB9A4B0022A1
:405080001A7064E03B1C083300221A703B1C0833181C11F01EFA3B1C08331B78002B14D03B1C08331B78042B06D111F0FFFA031C002B01D0FFF7F0FA924B0122DA71FFF770
:4050C000F1FA894B00221A7041E000F0A1FF864B1B78002B3BD08B4B0022DA71FFF7E2FA814B00221A7032E0814B1B78032B2CD1844BDB79002B13D100F046FF031C002B20
:405100000AD0814B00221A70FF2300939C2019219C22C82300F0A0FE794B00221A7016E000F032FF031C002B11D0774B00221A709C23D800FA2359009C239A00FA239B00FD
:40514000FF24009400F088FE01E000F061FF6F4B1B78002B31D13B1C0833181C11F0B9F9664A3B1C08330133101C191C072206F013FF031C002B0CD13B1C08331B78002B5F
:4051800007D0624B1B78072B03D1604B05221A7057E05F4B1A785B781B021A4300231204120C1B0C1B041343181C02F0B5FA031C002B46D0FFF770FA43E0544B1B78052BA9
:4051C0003FD13B1C0833181C11F083F94B4A3B1C08330133101C191C072206F0DDFE031C002B0CD13B1C08331B78002B07D0494BDB78002B03D0484B01221A701AE0454BA9
:40520000181C00210C2206F0DFFE424B01221A70404B02229A703F4B03221A713D4B04229A713C4B1E221A723A4B1F229A723A4B00221A70394B19221A702C4B01221A706F
:405240008AE089E0314B1B78052B02D0274B00221A70FA239B01181C00F07CFE304B1B78002B15D02F4B1A682F4B101C191CFFF7E5F9031C002B0BD0294B00221A702B4B51
:40528000274A0092181C002100220123FEF7ECFE3B1C273301221A703C1C2634022006F057FF031C237072B63C1C273408F082FB031C23703B1C26331B78022B06D13B1CA1
:4052C00027331B78022B01D006F010FA62B643E00E4B1B78052B03D0044B00221A703BE03AE0C0466C3000205108002068080020503000204E0800204F0800205408002095
:405300004D080020E4000020142E002051300020703000205C08002050080020D00000204C08002048080020B80B0000640400001E4B1B78052B03D01D4B00221A700AE039
:405340001C4B1B78002B02D0FFF76CFA03E0184B02221A70FFE7C046174B1B78DBB2002B20D0164B1B78022B03D1154B01221A7018E0124B1B78042B07D102F083F9031CDF
:40538000002B0FD0FFF788F90CE00C4B1B78032B08D10C4BDB79002B04D002F007F9094B0022DA71BD460BB090BDC0465130002068080020D00000204D08002050300020EB
:4053C00051080020E400002080B588B000AF786039607B68252B00D165E00DD8042B06D8032B33D2012B1ED0022B32D0B7E0202B3BD0242B4DD0B2E0492B00D166E007D897
:40540000402B00D175E0442B3FD0282B32D0A6E0702B00D188E000D2A1E0083BFF3B032B00D99CE07CE03B1C0C33181C07F072FC031C002B09D13B1C0C3302221A703B1C11
:405440000C33181C07F0B4FC89E088E0FFF724F985E03B681B78032B06D1424B01221A70414B19221A707AE079E03B68181CFFF7D1FC74E000F0CCFD3C4B00221A70FFF780
:4054800017FD384B01221A7069E0394B01221A7065E03B68BB61BB695A78344B1A70344B01221A705BE02F4B01221A702E4B19221A703B681B78062B03D03B681B78042BC0
:4054C00003D12C4B01221A7049E048E03B687B61254B1B78162B0BD17B695B68264A101C191C082206F067FD214B01221A7036E035E03B683B613B699B79052B0BD03B69DE
:405500009B79082B07D03B699B790C2B03D03B699B790F2B03D1174B01221A701FE01EE0104B01221A701AE03B1C1E3301221A800F4B1B78022B03D13B1C1E3300221A8000
:405540000E4B1A783B1C1E331B88101C191C0FF05BF8031C002B01D0FFF79EF8C046BD4608B080BD51080020D000002053080020680800204D080020D40000207030002000
:4055800080B586B002AF786039607A688E235B009A4220D13B68FB603B1C0B3305221A70FB685B689B88012B14D1FB685B689B880E4A391C0B310091101C00211A1C01239B
:4055C000FEF752FDFB685B681B68181C012101F05FF808E007E07A682023FF339A4202D1034B01221A70BD4604B080BD610400006808002090B591B002AF786039607B68DC
:40560000B6225200934200D1A2E1B6225200934204D86C22FF3293420BD0ABE1B7225200934200D154E17022FF32934200D18BE1A0E1D24B1B78022B00D048E13B683B63CE
:405640003B1C373300221A70CD4B1B78DBB2002B05D0002001F04EFBC94B00221A703B1C373300221A702CE13B1C37331B78C54A5B00D3185A783B6BDB789A4200D019E1D7
:405680003B1C37331B78052B00D90CE19A00BE4BD3181B689F463B6B5B689B88052B30D83B1C1C3301221A703B1C1C3300225A703B1C1C3300229A703B1C1C330022DA701D
:4056C0003B1C1C3300221A713B1C1C3300225A713B6B5B681A683B6B5B689B88391C1C310131081C111C1A1C06F065FCA74B3A1C1C320092181C002100220623FEF7B4FC2E
:40570000D2E0D1E03B1C143300221A703B1C143300225A703B1C143300229A703B1C14330022DA703B1C143300221A713B1C143300225A713B1C143300229A713B1C14331F
:405740000022DA713B6B5B681A683B6B5B689B88391C1431081C111C1A1C06F02CFC8C4B3A1C14320092181C002100220823FEF77BFC99E03B6B5B689B88022B24D83B1C6E
:40578000103303221A703B1C103300225A703B1C103300229A703B6B5B681A683B6B5B689B88391C10310131081C111C1A1C06F002FC764B3A1C10320092181C002100228F
:4057C0000323FEF751FC6FE06EE03B6B5B689B88012B20D83B1C0C3304221A703B1C0C3300225A703B6B5B681A683B6B5B689B88391C0C310131081C111C1A1C06F0DBFB9E
:40580000624B3A1C0C320092181C002100220223FEF72AFC48E047E03B6B5B689C883B6B5B681A685B4B0092181C00210022231CFEF71AFCFEF7F8FE021C574B1A6033E0E6
:405840003B6B5B681B681B78FF2B13D13B6B5B681B6801331B785A1E9341DAB24F4B1A704F4B4E4A0092181C002100220123FEF7FBFB17E03B6B5B681B681B78FE2B11D121
:405880003B6B5B689B88013B9CB23B6B5B681B685A1C444B0092181C00210022231CFEF7E3FB01E000E0C0463F4B3A1C373212781A700CE03B1C37331A783B1C373301326F
:4058C0001A703B1C37331B78052B00D8CCE651E03B68FB62FB6A9B689B88002B30D0FB6A9B681B68BB62BB6A01331B78012B27D13B1C363300221A703B1C363300221A7039
:4059000019E03B1C36331A781E4B5200D25CBB6A1B789A4208D13B1C36331B78FA6AD27818495B00CB185A703B1C36331A783B1C363301321A703B1C36331B78052BE0D951
:405940000E4B01221A7015E00C4B01221A7011E03B687B627B6ADB78012B0AD17B6A5B689B88002B02D0114B01221A70034B01221A70C046BD460FB090BDC0466808002001
:40598000880800205C08002008DA0100610400006204000063040000480800204C0800206404000065040000D10000205208002090B585B000AF786039607A68D7235B00AD
:4059C0009A4226D13B1C0C33181C242101F08CFE3B1C0C330233181C122101F085FE124B3C1C0C341A785B781B021A4300231204120C1B0C1B041343181C00210422231C23
:405A000004F0D4FF031C002B02D0FEF745FE08E007E07A68D8235B009A4202D1034B01221A70BD4605B090BD703000206808002080B582B000AF786039607A688823FF33FF
:405A40009A4202D1024B01221A70BD4602B080BD6808002090B583B000AFFB1D01221A703D4B1B78032B02D101F0A0FD1FE03B4B1B78002B18D03A4B1B78002B11D0394B92
:405A80001B7801225340DBB2002B10D000200021FEF732FE031C002B09D1324B01221A7005E0FEF713FE02E02E4B01221A7000F0AFFABC1D032006F04BFB031C2370BB1D03
:405AC0001B78032B2DD172B6FC1D07F073FF031C2370FB1D1B78042B03D0FB1D1B78062B1ED100F011FE00F05BFF05F069FB80235B00181C05F03CFC05F038FB00F088FA78
:405B000001F098F805F00CFE174B181C01F080F800F034FF154B181CFEF750FD00F0FAFD62B606F02EFB0D4B1B78002B10D00D4B1B7801225340DBB2002B09D00120002165
:405B4000FEF7DAFD031C002B02D1064B00221A70BD4603B090BDC0465030002068080020520800206A080020C10500005D60000080B500AF3A4B181C03F0DEFD394B181C54
:405B800001F0F0F8384B181C04F09AFE374B181C01F0A8FE364B00221A70364B00221A70354B00221A70354B00221A70334B01225A70324B24225A80304B12229A802F4B7F
:405BC00000229A712D4B0022DA712C4B00221A812A4B01229A72294B5A88294B1A80274B9A88274B5A80254B9A79254B1A73234BDA79234B1A71224B0622DA81204B0822B8
:405C00001A821F4B00225A821D4B32229A821C4B0022DA821A4B012252421A83194B11221A70184B01225A70164B10229A70154B0022DA70144B1B78DBB220221343DAB26D
:405C4000114B1A70114B00221A70114B181C01F0DBFB031C002B01D0FEF71EFDBD4680BDF555000081550000B1590000315A00004E0800205008002051080020E400002054
:405C800034300020340100208030002068080020C953000080B500AF01F0F8FB002003F04BFD002001F05EF8002004F009FE002001F018FEBD4680BD80B500AF034B01222E
:405CC0001A7000F00FFEBD4680BDC0464D08002080B500AF524B1B7801225340DBB2002B00D19AE04F4B1A684F4B1B88101C191CFEF7A4FC031C01225340DBB2002B0DD0DC
:405D00004A4B1B881A1C4A4B1B68D218484B1A60474B1B68181C00F043FF7EE0414B1A68414B1B88191C434B1B88CB18101C191CFEF784FC031C01225340DBB2002B04D050
:405D40003B4B1A683A4B1A6067E0364B1A68364B1B88191C374B1B88C918374B1B88CB18101C191CFEF76AFC031C01225340DBB2002B13D0314B1B881A1C2D4B1B689A4213
:405D800006D22B4B1A682D4B1B88D21A284B1A60274B1B68181C00F003FF3EE0214B1A68214B1B88191C234B1B88C918224B1B88C918234B1B88CB18101C191CFEF73EFC4D
:405DC000031C01225340DBB2002B08D0184B00221A60174B1B68181C00F0E2FE1DE0194B1B78002B02D100F013F916E0154B1B78FF2B05D0134B1B78013BDAB2114B1A70E1
:405E0000FEF712FC021C074B1A60094B00221A60074B1B68181C00F0C3FEBD4680BDC04684080020780800206C0800207C080020800800206E080020700800207E08002085
:405E4000720800207408002080B500AF00F01CFE00F020FDBD4680BD90B583B000AF041C081C111C1A1CBB1D1C803B1D1880BB1C19803B1C1A8000F087F8031C002B53D042
:405E80002B4BBA1D12881A802A4B3A1D12881A80294BBA1C12881A80284B3A1C12881A80274B3A1C183212781A70FEF7BDFB021C244B1A60244B00221A60234B1B68181CDC
:405EC00000F06EFEBB1D1B88002B0BD0BB1D1B88FA22D001191C05F06DFF031C9AB21B4B1A8008E0194BFA22D2011A80FA23DB01181C00F055FEBB1C1B88002B0BD0BB1CC0
:405F00001B88FA22D001191C05F054FF031C9AB20F4B1A8003E00E4BFA22D2011A80FF2000F0A2FC00F0F6FDBD4603B090BDC0466C0800206E08002070080020720800203B
:405F40007408002078080020800800207C0800207E08002080B582B000AF786000F014F8031C002B0BD0074B01221A707B68181C00F016FEFF2000F077FC00F0CBFDBD468D
:405F800002B080BD8408002090B583B000AFFB1D00221A70174B1B881A1C174B1B88D218164B1B88D218164B1B88D3183B60154B1B78002B17D1144B1B7801225340DBB27E
:405FC000002B10D03B68002B0AD0104B1A68FC1D3B68101C191CFEF731FB031C237002E0FB1D01221A70FB1D1B78181CBD4603B090BDC0466C0800206E08002070080020D0
:406000007208002074080020840800207808002080B500AF00F090FD00F03CFC094B00221A80094B00221A80084B00221A80084B00221A80074B00221A70074B00221A701B
:40604000BD4680BD6C0800206E0800207008002072080020740800208408002080B500AFFFF736FEFFF790FF031C002B02D0024B01221A70BD4680BD142E002080B500AF0D
:40608000094B1B78DBB25A1E9341DBB201225340DBB21A1C01231340DAB2034B1A7000F009FCBD4680BDC0468808002080B500AF00F05AFA0D4B181C00F068FA0C4B181CC3
:4060C00000F0A6FD0B4B181C00F0E0F90A4B181C00F082F9094B181CFEF770FAFFF7B4FE62B6FFF745FDBD4680BDC046F9030000C10500007D600000B95C00005D60000030
:4061000080B500AFFFF7D2FF06F03BF8214B1B78DBB2002B02D0FFF79DFC3AE01E4B1B7801225340DBB2002B08D01C4B1B68002B04D01A4B1B68181C05F024FF184B1B7804
:40614000DBB2002B02D0FEF7E9F808E0154B1B7801225340DBB2002B01D0FEF71FFF00F0B1FA021C104B196880231B020B4001D0012300E00023D318002B0AD1064B1B7825
:4061800001225340DBB2002B03D0002001F08CF9BAE7B9E788080020390800208C0800201C0800203A0800200802244080B500AFFEE7C04680B584B000AF7860104B1A6852
:4061C0007B68D3181A1C0F4BD21A8023DB009A4209DC0B4B1B68FB60094B1A687B68D218074B1A6007E005F0A1FE031C0C221A6001235B42FB60FB68181CBD4604B080BD8A
:40620000DC0000203031002080B586B000AF224B7B61224B3B61204B7B6135E03B691B68FB603B695B68BB603B699B683B6000237B600CE0FB681A68BB681A60BB6804330D
:40624000BB60FB680433FB607B6804337B607A683B689A42EED13B69DB683B6000237B6008E0BB6800221A60BB680433BB607B6804337B607A683B689A42F2D13B6910335D
:406280003B617B69013B7B617B69002BC6D105F053FEFFF735FFFEE70100000048DC010080B582B000AF154B144A126801218A431A6000237B600FE07B68032B04D8104B39
:4062C0007A689200D35800E00E4B0F4A796889008B507B6801337B607B682F2BECD9F9F77BFF0A4B00221A60044B044A126801210A431A60BD4602B080BDC0460000104091
:4063000000000000AD61000000000020C000002080B582B000AF786039607A683B68101C00211A1C05F050FEBD4602B080BDC04680B586B000AF7860396000233B61002318
:406340007B612EE07B699B007A68D3181B68BB603B1C0F33BA681A70BB68FF229343BB6017E03B695B003A68D3181B781A1CBB68D3183A69520039688A1852781A703B6945
:4063800001333B613B1C0F331A783B1C0F33013A1A703B1C0F331B78002BE2D17B6901337B617B69002BCDD0BD4606B080BDC04680B500AF054B03221A60054B03221A601C
:4063C000044B00221A60BD4680BDC0463000304030003140000E3F4080B582B000AF786000F04AF87B68181C00F008F8032000F011F800F037F8BD4602B080BD80B582B0E3
:4064000000AF7860024B7A689A64BD4602B080BD0000002090B585B000AF021CFB1D1A701623FB603C1C0B3404F0BFFD031C23700A4B0A4A11680A4A1140FA1D1078FA6858
:40644000041C9440221C0A431A603B1C0B331B78181C04F0AEFDBD4605B090BD00E400E0FFFF3FFF80B500AF024B04221A60BD4680BDC04600E100E080B500AF024B0422F4
:406480001A60BD4680BDC04680E100E080B582B000AF786000F048F87B68181C00F008F8032000F011F800F035F8BD4602B080BD80B582B000AF7860024B7A68DA64BD462D
:4064C00002B080BD0000002090B585B000AF021CFB1D1A701E23FB603C1C0B3404F065FD031C23700A4B0A4A126892009108FA1D1078FA68041C9440221C0A431A603B1CCA
:406500000B331B78181C04F054FDBD4605B090BD00E400E080B500AF024B08221A60BD4680BDC04600E100E080B500AF024B08221A60BD4680BDC04680E100E080B500AF2C
:4065400000F0EEF8BD4680BD80B500AF054B054A1268802109060A431A6000F023F8BD4680BDC0460000244080B500AF064B1B78002B04D1FFF7E2FF034B01221A70FFF74C
:40658000E3FFBD4680BDC0469008002080B582B000AF7860024B7A681A60BD4602B080BD9408002080B500AF092005F01BF8BD4680BDC04680B582B000AF00237B60044BF8
:4065C0001B687B607B68181CBD4602B080BDC0464003244080B582B000AF054B1A681F2313407B607B68181CBD4602B080BDC0460803244080B584B000AF78601D4B1B68D6
:406600000133FB60FA6880239B009A4202D10023FB60FFE7C046184B1B68FA689A42FAD0144B1A68144B1B689A4209D1134B1A681F231340102B03D0114B7A681A6015E07B
:40664000104B02221A607B68DAB20F49FB68CB181A70084BFA681A600223BB600B4B1B68BA681343BB60094BBA681A60BD4604B080BDC0461C2E0020182E00200802244087
:4066800040022440800F2440202E0020880F244080B584B000AF786039600023FB6009E07A68FB68D3181B78181CFFF7A3FFFB680133FB60FA683B689A42F1D3BD4604B00B
:4066C00080BDC04680B582B000AF0D4B1B683B600C4B1A683B689A4205D30A4B1A683B68D31A7B6007E0074B1A683B68D31A802292009B187B607B68181CBD4602B080BD43
:40670000182E00201C2E002080B500AF00F088F8BD4680BD80B500AF00F098F8BD4680BD80B500AF274B284A1A60284B00221A60274B01221A60274B274A1A60274B0722F9
:406740001A60274B00221A60264B01221A60264B264A1A60264B00221A60264B04221A60092004F055FF0920032104F0E7FE224B0920191C04F0BCFE012004F049FF01207C
:40678000032104F0DBFE1D4B0120191C04F0B0FE1B4B00221A601B4B00221A601A4B00221A601A4B00221A60194B04221A60194B00221A60184B00221A60184B00221A6080
:4067C000BD4680BD000024400F08000240002440480024400003244007020080040324401003244044002440000224400700008004022440500024408DB700005D680000FE
:40680000880E2440C80E2440480F2440080F2440C80F2440880F24401C2E0020182E002080B500AF084B084A1268802189010A431A6004F097FB012004F000FF012004F044
:40684000D1FEBD4680BDC0464800244080B500AF012004F0DDFEBD4680BDC04680B500AF04F080FBBD4680BD80B582B000AF7860C046064B1B68002BFBDB044B7A6812029C
:4068800003490A431A60BD4602B080BD000001404100008080B500AFC046044B1B68002BFBDB024B024A1A60BD4680BD000001404100004080B582B000AF094B1B68D9B287
:4068C000FB1D04220A401A70054BFA1D12781A60FB1D1B789B08DBB2181CBD4602B080BD1003044080B582B000AF094B1B68D9B2FB1D40220A401A70054BFA1D12781A6092
:40690000FB1D1B789B09DBB2181CBD4602B080BD1002044080B500AF084B812292041A60074B0C221A60012000F08CF8092000F05DF8002000F04CF8BD4680BD0001204023
:406940002401204090B583B000AFFC1D04F02DFB031C2370084B084A126801210A431A60FB1D1B78181C04F024FB0120182100F04BF8BD4603B090BD0000204080B500AFB6
:40698000064B1B78002B04D1FFF7C4FF034B01221A70FFF7D7FFBD4680BDC0469808002090B583B000AFFC1D04F0FFFA031C2370064B064A126801218A431A60FB1D1B785F
:4069C000181C04F0F6FABD4603B090BD0000204080B582B000AF7860034B7A681204120C1A60BD4602B080BD0801204080B582B000AF7860034B7A681204120C1A60BD4626
:406A000002B080BD1401204090B585B000AF786039603C1C0F3404F0C8FA031C2370084B3A687968081C9040021C1A603B1C0F331B78181C04F0BDFABD4605B090BDC046DD
:406A40000800204080B582B000AF7860024B7A681A60BD4602B080BD3801204080B500AF024B1B68181CBD4680BDC0463001204080B582B000AF7860024B7A681A60BD4633
:406A800002B080BD3001204080B500AF0F4BC422D2041A600D4B0D4A12681A60012000F063F80B4B0C221A60002000F0A5F8094B3F221A60084B181C00F064F8FA239B006E
:406AC000181C00F06DF8BD4680BDC046400120406401204068012040FF7F000090B583B000AFFC1D04F061FA031C2370084B084A126802210A431A60FB1D1B78181C04F0FD
:406B000058FA0220182100F059F8BD4603B090BD0000204080B500AF064B1B78002B04D1FFF7B2FF034B01221A70FFF7D7FFBD4680BDC0469908002090B583B000AFFC1D87
:406B400004F033FA031C2370064B064A126802218A431A60FB1D1B78181C04F02AFABD4603B090BD0000204080B582B000AF7860034B7A681204120C1A60BD4602B080BDA5
:406B80004801204080B582B000AF7860034B7A681204120C1A60BD4602B080BD5401204080B582B000AF7860034B7A681204120C1A60BD4602B080BD4C01204090B585B0D4
:406BC00000AF786039603C1C0F3404F0EEF9031C2370084B3A687968081C9040021C1A603B1C0F331B78181C04F0E3F9BD4605B090BDC0460800204080B582B000AF78605A
:406C0000024B7A681A60BD4602B080BD7801204080B582B000AF786000F058F87B68181C00F014F8032000F01FF800F045F8BD4602B080BD80B500AF00F048F8024B181CC1
:406C400000F004F8BD4680BDAD61000080B582B000AF7860034A84237968D150BD4602B080BDC0460000002090B585B000AF021CFB1D1A700E23FB603C1C0B3404F095F950
:406C8000031C23700A4B0A4A11680A4A1140FA1D1078FA68041C9440221C0A431A603B1C0B331B78181C04F084F9BD4605B090BD10E400E0FF3FFFFF80B500AF024B8022AC
:406CC00092021A60BD4680BD00E100E080B500AF024B802292021A60BD4680BD80E100E080B500AF024B802292021A60BD4680BD80E200E080B584B000AF021CFB1D1A70E8
:406D00000E4B1B68DAB23B1C0F3304218A431A70FB1D1B789B00DAB204231340D9B23B1C0F333A1C0F3212780A431A70034B3A1C0F3212781A60BD4604B080BD000004404D
:406D400080B500AF054B181C00210C2205F03CF9034B00221A80BD4680BDC04620300020A008002080B582B000AF7860024B7A681A60BD4602B080BD9C08002080B582B0F6
:406D800000AF021C3960BB1D1A803B68DA88194B9A422CD1BB1D1A881749131C5B009B189B00CB189B88002B18D1BB1D1A883B6899881148131C5B009B189B00C3180A1C7D
:406DC0009A80BB1D1A883B6899780B48131C5B009B189B00C3180A1C9A7008E0074B1B683A68063286214900081C111C9847BD4602B080BD192A0000203000203030002039
:406E000080B582B000AF021C3960BB1D1A803B689A883C4B9A4223D1BB1D1A883A49131C5B009B189B00CB1808331B88002B0DD1BB1D1A883B6859883348131C5B009B18A2
:406E40009B00C31808330A1C1A8058E02F4B1B683A68043286214900081C111C98474EE03B689A882A4B9A4221D1BB1D1A882649131C5B009B189B00CB18DB88002B0CD12F
:406E8000BB1D1A883B6859881F48131C5B009B189B00C3180A1CDA8031E01C4B1B683A68043286214900081C111C984727E03B689A88184B9A4222D1BB1D1A881249131C45
:406EC0005B009B189B00CB1808335B88002B0DD1BB1D1A883B6859880B48131C5B009B189B00C31808330A1C5A8008E0074B1B683A68043286214900081C111C9847BD46E8
:406F000002B080BD022900002030002030300020042900000829000090B587B000AF3C1D2080081C111C1A1CFB1C1870BB1C19707B1C1A702B4B1B78052B05D03B1C163370
:406F4000832252001A8046E0FB1C1B78002B07D1BB1C1B78002B03D17B1C1B78012B04D93B1C163301221A8035E07B1C1B78002B04D03B1C163302221A802CE0FB1C1A7863
:406F80001949131C5B009B189B00CB1808331A883B1C08331A813B1C0833FA6A1A603B1C28331B789AB23B1C08339A803C1C16343B1D3A1C08321868111C10F049FC031C62
:406FC00023803B1C16331B88002B04D13B1C08331A89064B1A803B1C16331B88181CBD4607B090BD5130002020300020A008002080B586B000AF7860254B1B68002B44D010
:407000003B1C173300221A703AE03B1C17331A782049131C5B009B189B00CB189A887B689B899A4225D13B1C0C337A6812881A803B1C0C333A1C173212789A703B1C0C338C
:407040000022DA707B681A1D3B1C0C335A60104B1B688E2251003A1C0C32081C111C98470D4B1B78DBB201229343DAB20A4B1A700BE03B1C17331A783B1C173301321A703F
:407080003B1C17331B78002BBFD0BD4606B080BD9C080020203000208030002080B588B000AF78603B1C1E3300221A705E4B1B68002B00D1B5E05D4B1B88002B00D1B0E00C
:4070C0003B1C1F3300221A70A0E03B1C1F331A785749131C5B009B189B00CB189A88534B1B889A422DD13B1C14337A6812881A803B1C14333A1C1F3212789A703B1C1433BD
:407100000022DA707B681A1D3B1C14335A60494B1B78DBB201229343DAB2464B1A70434B00221A80404B1B681E22111CFF313A1C1432081C111C98473B1C1E3301221A7007
:407140005DE03B1C1F331A783949131C5B009B189B00CB1808331A88344B1B889A420DD03B1C1F331A783249131C5B009B189B00CB18DA882D4B1B889A4240D13B1C083335
:407180007A6812881A803B1C08333A1C1F3212789A703B1C08330022DA703B1C1F331A782349131C5B009B189B00CB1808331A881E4B1B88D31A5A1E9341DBB21A1C3B1C50
:4071C00008331A717B681A1D3B1C08339A60194B1B78DBB201229343DAB2164B1A70134B00221A80104B1B688F2251003A1C0832081C111C98473B1C1E3301221A703B1CC9
:407200001F331A783B1C1F3301321A703B1C1F331B78002B05D13B1C1E331B78002B00D153E7BD4608B080BD9C080020A0080020203000208030002080B586B000AF7860A0
