:400000000040002025070000610100006101000000000000000000000000000000000000000000000000000000000000000000000000000000000000000000000000000070
:400040000000000000000000000000000000000000000000000000000000000000000000000000000000000000000000000000000000000000000000000000000000000080
:400080000000000000000000000000000000000000000000000000000000000000000000000000000000000000000000000000000000000000000000000000000000000040
:4000C0000000000000000000000000000000000000000000000000000000000000000000000000000000000000000000000000000000000000000000000000000000000000
:4001000010B5064C2378002B07D1054B002B02D0044800E000BF0123237010BD98030020000000001402010008B5084B002B03D00748084900E000BF07480368002B03D077
:40014000064B002B00D0984708BDC04600000000140201009C030020C800002000000000FEE7C0467047C04608B510F03FF808BD10B526280ED0282802D0012800D010BD91
:40018000324C2378042B4BD0314BBF2219680A401A60F4E72D4B1C78042CF0D12C4B4022196840209143C9B201431960294B19689143CAB21A60284B7F211A688A43D2B2F7
:4001C0001A60264B264A1C60264B1C60264B9A6400F0A7FD254BC022196812040A431A6000F0A3FD224B1C6000F09BFD214B8022196812060A431A601F4BFF211A881F4B83
:4002000092B21A601E4B1A6814431C601D4B1A688A43F1210A431A6030BF00F086FDAEE762781340B0D11848E122120102824268A02111805180A37009F0A2FE0028A3D1FE
:40024000627804231343DBB263709DE7B803002000030440000204401002044080E200E06501000080E100E00000002000E400E000E100E000000B4050F1FF0F0C000B4006
:4002800010ED00E02C000B40CC000020F0B56E4C051C60780123034383B00E1C63704C2D17D86A4AAB00D3589F4672681378990700D4C3E082204000311CE268904762788F
:4002C00001239A43627062781A4202D130680AF0D1FF63781120184207D06378012293436370281CE368311C984703B0F0BD002363712371EDE769460023072768464B70F9
:400300000F7002F03CF96A46012368465370177002F035F94E4B9A79002A4AD11A78002A0ED15A78002A0BD19A78002A08D1DA78002A05D11A79002A02D15B79002B38D0C9
:40034000434800F0F7FD41E08B89092B4DD06378D907BBD5BDE72378022BBAD06278D107B7D5617804220A425AD003232370637893436370ADE702232370AAE704232370C0
:40038000A7E70222201D00F0B8FD2279314B5200D35A23819DE70B78E3709AE76378990697D42D4B1A7D102A00D092E70522DA758FE72A4B28481B7818300370284B1B78F8
:4003C0004370284B1B78837000F0B4FD032009F0CFFC042323707CE74988162903D830880AF000FF75E71721F9E7081D321C002140230BF07BFB002800D156E76278012300
:400400009A43627062781A4200D062E7694612238B70B389C87030680B800AF0D7FE58E760780821014204D0637822708B4363704FE7032B00D04CE722704AE70620FF3095
:40044000311CE36898473AE7B80300208002010000F2FF0F00040100CC0000207CF1FF0F7DF1FF0F7BF1FF0F10B5094B802464011C60084A084B1A6700F053FC074BC021EE
:400480001A688A431A6000F050FC054B1C6010BD80E100E069010000000000200CE400E000E100E008B58022074B52011A60074A074B1A6700F035FC064BC0211A688A43FE
:4004C0001A6000F032FC08BD80E100E069010000000000200CE400E0024B802252011A607047C04680E100E0024B802252011A607047C04600E100E008B5000100F008FC5E
:4005000008BDC0460160704701607047F0B55F4656464D464446F0B4694B91468A188246C9B00F1C01209A4239D8CA094846D301002800D1C1E006A98B46CD1A9046002442
:400540001E1C00208036844649469F4219D8A14217D95046025DE85C904202D0EA540122944601340133B342EFD16046894600281CD1A14200D8A0E001208044803D331C81
:40058000DEE71A78EA54EDE7042300930098A14501D90028F0D0012801D90120404249B03CBC90469946A246AB46F0BD002300930193444B9845E7D8434B98456ED8434B52
:4005C000269359467F23802228A8279300F095FC3F4B404A404926A8186011601A68120F0A2A5DD01B680F2213400093009B002BCCD100F096FB394B39490493344B04AAB4
:4006000005911A603749334A11601A68120F0A2A51D01B680F2213400193019B002B0DD12B4B314A31491A602A4A11601A68120F0A2A3AD01B680F2213400093009B002BF9
:4006400014D12B4B41462693269B0A04134326931F4B26AA1A6027491E4A11601A68120F0A2A1FD01B680F2213400093019B002B11D1214B02AA0293194B20490393144B8C
:400680001A60144A11601A68120F0A2A10D01B680F221340019300F048FB77E7184B8FE70023A2E700230093E0E700230093C5E700230193EFE70023AEE700206FE7C046E9
:4006C000FFFF0100FF030000FF010000B6D70000080010400400104004000080B6E90000CC03002016000080B6E8000015000080B6D8000005000080B6EA0000170000809B
:40070000B6D7000108B500F00CFB044B04211A688A431A6030BF00F008FB08BD10ED00E0FEE7C046F8B5104F002F18D00F4E0025B06834687268002805D0231C02CB02C2CB
:40074000191B8842FAD1F1680023002903D0D55004339942FBD1013F1036002FE8D100F097FB00F061F9C04601000000A4050100F0B57E4B01211A6847468A4380B47C4CE2
:400780001A607C48002200237B4D04E00133A1500432302B08D0011C032BF7D851590133A1500432302BF6D172B6744B00221A6080220021D200724800F0A8FB8022002113
:4007C000D200704800F0A2FB6F4BEE2212061A606E4BD82212041A606D4BC0221A606D4BB022D2031A606C4B8022D2011A606B4B40221A606A4BC02252031A60694A992349
:400800001B041360684A3C201360684A1360684B022219780A431A70664A11788143142001431170197816220A431A70624B12221A60624B1978624BC9B21A78614BD2B228
:40084000587A0F2810D99879997ADA7A0F280BD9D878D9791A7A0F2806D9187819795A790F2801D959789A78574B05201960574B574C1A60574B11221A6000F049FA564B9C
:4008800050201A78554BD2B21A6000F041FA23680126534DB34323602B6830271022BB4313432B602B6807218B4333432B60226880231B06134323604A48884600F028FA84
:4008C0002368226802239A4322602A6841468A4313432B602B682022BB4313432B602368414A33432360414B08211A60404B8022D2051A603F4A404BFA241A601F4BE4002E
:400900001A6801258A431A603C4B1A6816431E603B4A3C4B3C4E1A603C4B8022196812020A431A60102000F0F3F933681D4202D1013C002CF6D1364800F0EAF9354B8022D7
:4009400012061A601C4A00233349136003220A6032490A60324A1360324A1360034B012219680A431A6004BC9046F0BD000010400000002061010000000000006CF02E4083
:4009800000300F4000400F40000002400800044000020440080204400C020440000304400803044000500F4020500F4030500F4000700F4001700F4030001040CCF1FF0F28
:4009C000CDF1FF0FC0F1FF0F1CFF0B4020FF0B4000F02E402CFF0B40DDF1FF0F28FF0B4000FF2E4000127A000600008004010B400C020B406A2D00007C002E4060F02E4013
:400A00000220000078002E400C002E4010002E40C05D000008010B403000304030003140000E3F40C0000020F0B55F4656464D464446F0B483B062B6A14C2422A35C002B48
:400A400004D16370A370E3700123A3549D4B211C28319D481722E36000F07EFA002800D1A8E001BE00F05DF9984B03241A68A24322431A6000F059F9954B1A68C0231B028C
:400A80001A4200D187E0934F934B02229A46904C07239046994600F049FA032000F03EFA00F03FF9061C01F03BFD4246051C9543EDB2042D47D0022825D000F032F9236805
:400AC0004A46934342461343844D236000F02DF92B685B005B082B6000F023F9804B04211A688A431A6030BF00F01FF92A6880231B0613432B6000F014F923684A4693438B
:400B0000236000F012F9301C00F00FF901F008FD0128C0D14822BB5A01339BB2BB52002BB9D0534698684A23F95C4A1CD2B2FA540177C82A2CD000224823FA525246D168DF
:400B400001F0A9FCA7E700F0ECF8664B83461A68520052081A60644B1A88644B92B21A605F4B1A6815431D602368019300F0D9F822685F4B1340802252031343236000F075
:400B8000D4F830BF019B5846236000F0CEF8BAE70022FA54CFE7574B1A68002A00DB72E7554D2E68B60FB6070FD01A68520052081A6068E7012351480D21132223700AF081
:400BC0007DFF002800D14DE74BE700F0AAF84C4A012311688F071CD53E4FFE63494B1A6800231204120C4749474C012B30D0002B1AD0022B1DD123689A42FCD03D4B1A68B7
:400C0000520052081A603A6C002A26D100F08DF83AE71168490A0B420FD02E4FFB63394B1A680123120CDEE70B689BB29342FBD0E4E701BE002AFCD0E0E71168254F490C68
:400C400019401ED00223FB632F4B1A680223CAE70B681B0C9A42FBD0D0E7294B01211A688A431A601B687C6C5B08194206D1224B03221968914322400A431A6000233B64AF
:400C8000C4E73B64F96329682140796412685208134202D12B68A3432B60194B012219680A431A60022219680A42FCD0FB6B012BB5D0002B92D0022BC6D001BE002292E772
:400CC000B8030020710100008D02000064F02E4000010B4038100020CC00002008010B4010ED00E000000B4052F1FF0F0C000B40FFFFC7FF04010B400C020B400C04010014
:400D000010020B4000020B4004020B40000000000230800803D00138FDD1C046C046C0467047EFF3108072B6704780F310887047002934D00123002210B488422CD3012423
:400D40002407A14204D2814202D209011B01F8E7E400A14204D2814202D249005B00F8E7884201D3401A1A434C08A04202D3001B5C0822438C08A04202D3001B9C08224389
:400D8000CC08A04202D3001BDC082243002803D01B0901D00909E3E7101C10BC7047002801D00020C04307B4024802A14018029003BDC046D90000000029F0D003B5FFF7E5
:400DC000B9FF0EBC4243891A1847C046002941D010B4041C4C40A44601230022002900D54942002800D5404288422CD301242407A14204D2814202D209011B01F8E7E400B0
:400E0000A14204D2814202D249005B00F8E7884201D3401A1A434C08A04202D3001B5C0822438C08A04202D3001B9C082243CC08A04202D3001BDC082243002803D01B091E
:400E400001D00909E3E7101C6446002C00D5404210BC7047002806D003DB0020C043400801E08020000607B4024802A14018029003BDC046190000000029EBD003B5FFF718
:400E8000A7FF0EBC4243891A1847C0467047C04670B50E4B0E4D0024ED1AAD101E1CAC4204D0A300F35898470134F8E70FF068FB084B094D0024ED1AAD101E1CAC4204D0EB
:400EC000A300F35898470134F8E770BD8C0501008C0501008C0501009405010030B50023934208D0C55C0133CC18013C2478A542F6D0281B00E0002030BD10B50023934233
:400F000003D0CC5CC4540133F9E710BD031C8218934202D019700133FAE7704710B501F067FA10BD10B501F079FA10BD10B500F0DBF810BD10B507490446097802200029AE
:400F400007D1204601F090FA002802D1204608F0F9FF10BD7A020020F7B51F4E0024307815460F46002804D00824B76075802046FEBD002F00D1012401F050FA00980028F4
:400F800005D0172D03D301204002854201D90124EBE7002CE9D12946384600F023F80400E3D1706800F01CF80400DED1706800F015F80400D9D101F039FA0400D5D1009839
:400FC00006F07CFB0400D0D106F08EFB0400CCD101203070C9E70000680100200020704700207047F8B50D4607460026FFF73CFAFFF772FA00F02EFA040065D100F0B8FB21
:40100000040061D13449084600F0D4FD0404240C5AD1A80705D0A807800F0421081A401985B2172D02D968002E3886B22B48301881B2384601F0C0F8040045D1284F0346DE
:401040000246002825D127495E008E5B294610318E4207D99000C01941800221521C4170D2B215E08E420BD10020787690001D49C0194680891FC95C891C4170012012E089
:40108000052A06D1164806461436418302207071012014495E008E5B9100C9194E80114EB61FF65C4E705B1C521CDBB2D2B2062BC7D30B4800F06CF8002C05D100F084F84F
:4010C00007490120891E087000F0D6F9002C01D0FF20F8BD0020F8BDFD100000940C0000760100200606010010B503480078012801D100F0F1FE10BD74010020704700002F
:4011000010B5011F0878034A8000105800F0F4FF10BD00008810002010B5044604498000085800F057FF002801D00470001D10BD8810002038B5044692B2C9B2684600F088
:401140006FFF024AA1000098505038BD8810002070B50B49064600204C6805466178002908D06188B14202D32078FFF7D5FF002804D1241D6D1CEDB2082DEFD370BD0000D4
:401180009801002010B5002801D0FFF7B9FF10BD70B50B4E0446002570606178002905D062882078121D0023FFF7C4FF6D1C241DEDB2082DF1D3024800F0F0FFB06070BD54
:4011C00098010020002070471CB5002469460C70142001902346054A05480CF0F9FB04480068401C00D1FF2420461CBD45120000A40100203EB5124A0146FF200023012429
:40120000126800290DD0012914D0042908D104206946009308814B8110460CF0D4FB80B23EBD6846009304814381694610460CF0C5FBF4E768460093048143816946EBE7E0
:40124000A401002070B54589046841680089030000F026F806240408081D2124002005F003FA1BE0022908D0C8B22A4621460AF09BFE2046FFF786FF10E002202A462146A9
:401280000AF092FE2946204600F018F806E000200CF092F802E020460CF020FC002070BD30B47446641E2578641CAB4200D21D46635D5B00E31830BC18470000014B002268
:4012C000DB681847A801002070B5448905680089022803D0032809D0FF2070BD2246094C0023A46829460120A04708E0FFF71AFE241DA2B200232946022006F0C2F80020DC
:4013000070BD0000A801002070470000024800214160018041807047A801002070B50C46002186B016460391012802D0022859D116E003A9012006F0FCF801281BD1039DC3
:40134000324621462846FFF7D8FD0095287801900220694608814E816846FFF7B5FF41E0214D002B686809D0049004A9022006F0E0F801281DD0022006B070BD002812D055
:40138000298840182146FFF7B8FD28880024801980B228806988091D884206D12C801348FFF792FF03E00320E6E788421AD96C6018E004986860E278A378110219430B4A94
:4013C000698000231060E3565360032313815181A1788170E178C1706178417021780170042028800020C7E7A8010020A81000203EB515460C46022803D004280CD00020D1
:401400003EBD0091019002206946088107484A8100680CF0D8FA07E00AF0C6FD044B0022DB6829462046984701203EBDA4010020A8010020014AD16090607047A801002043
:40144000034801688068081A0A21484300097047B410002010B5FFF725F8542204490548FFF74BFD03490120C870002010BD0000160601000413002010B5FFF735F810BD93
:4014800070B5134C2368002B08D0207B1149C20705D04008400020738868A08070BD88680B4AA18880B29268814203D90A4D691A091802E0814202D2411A5118A160A0809D
:4014C000A0689842EAD300F015F80CF099FA70BDB4100020C0102E40FFFF000010B508461946FFF7A7FF10BD704710B5FFF780FF10BD000003480021016041608160C1606B
:4015000070470000B410002010B502000DD0FFF7F1FF074C0321207B0843207310010A21FFF74AFC2060002010BDFF2010BD0000B410002000B504480A2180684843020937
:40154000FFF7D8FF104600BDB41000200248007B8007C00F70470000B410002070B558490868002802DA574B01221A70022290430860554800695249C00B4031096A08426F
:401580006CD0012000F0C2FA4F4850497C30FEF7B9FF4B480E216C30FEF7B4FF4A4820218430FEF7AFFF484814219C30FEF7AAFF4548FF21C131A430FEF7A4FF4248FF2185
:4015C0002F31B030FEF79EFF3F484149BC30FEF799FF3D483F49AC30FEF794FF3D493A48491CB430FEF78EFF37483B49B830FEF789FF35483949CC30FEF784FF3248384975
:401600000830FEF77FFF30483649A830FEF77AFF2D4835498830FEF775FF2B4833498C30FEF770FF28481921C9029030FEF76AFF2F4D287E697E0C020443A87FE97F2D4AA8
:40164000090201432C48914201D1072C08D035229201914208D1042C05D005E0FF2070BD0146042400E0014617486C30FEF74AFF154821467430FEF745FFA87EE97E090223
:40168000014301204003814201D0002900D11B490D487830FEF736FF2A7F687F010218481143814204D01748814201D0052901D113490A3904488030FEF724FF002070BD98
:4016C00000F02E40B801002000002E4055650000320300002F3F00003102000010520000EC160000FA12000031D000003AE30000C0F0FF0F580B0000580D0000022000007F
:401700000F0F00000505000070B50646581C80B245086D00002408E0304600F07FF81055000A1119A41C4870A4B2AC42F4D3D80705D0D0182038D15CC47FD454C17770BDBA
:4017400030B50A4C002100195B1E07E0541864782502545C2C430480891C89B29942F5DB994201D1515C018030BD000000102E4010B5FF2000F0CAF90F49FF2048700E4895
:401780001021801D41800121417001700A490020C91C4870FFF7E2FE04000AD100F0DEF807210648FEF7B0FE044807211830FEF7ABFE204610BD0000B8010020CC112E4001
:4017C00030B504465B1C1804450C002308E0204600F024F8241D59005B1CA4B250529BB2AB42F4D330BD000070B500210A4D5B1E0AE0541864782602545C344346193480B8
:40180000001D891C80B289B29942F2DB994202D1515C4019018070BD00102E40014940180088704700102E40014A80180180704700102E4010B50B490020487000F08EF892
:40184000002000F089F9002000F076F907210648FEF75AFE044807211830FEF755FE002010BD0000BB010020CC112E4010B506480078012803D102210448FEF743FE024904
:401880000020C91E087010BDBB01002070F02E4010B50B46062812D006DC01280CD0032801D1FFF7C7FF10BD0A28FCD00B28FAD105480078107010BDFFF75AFF10BD11461E
:4018C000184600F065F910BDBE010020F8B5204DAC6A0127A0071F4E002816DA307806280ED1286A384328621B480069F903084381B219481030FEF705FE042000F006F9CE
:40190000134802212830FEF7FFFDE00711D0062000F0FCF80F49FF20C91E48707078002802D1686B38436863094801212830FEF7EBFDE0050BD53078042802D1052000F0D3
:40194000E5F80348FF2101312830FEF7DDFDF8BD40F02E40BB01002000002E4010B503212348FEF7CFFD0120FEF7C6FD20483038406A204C80076178800F890001431C4835
:401980000C38FEF7BFFD6078002808D0401E022181401820FFF770FAC000083800E0B82081B21548FEF7AEFD1348032109021438FEF7A8FD10481149B830FEF7A3FD452193
:4019C00089010F48FEF79EFD0D480321001FFEF799FD0C490C48FEF795FD0B480B496038FEF790FD084801218838FEF78BFD10BD70F02E40BE010020D8102E4090890000CA
:401A0000041E2E40FF0F000058122E4020900000044800684007400F022801D0002070470120704700010B4000B5FFF7F1FF002805D009480168C908C900016000BD0748E7
:401A4000016A490849000162054801690122D2039143016100BD000000010B4040F02E4000002E400849087806280BD148780749002803D1486B400840004863C86A0122E2
:401A80001043C86270470000BB01002040F02E400148007870470000BB01002002484078022800D001207047B801002000B50300FFF7F6FB080D050D0B070507090D01205C
:401AC00000BD032000BD042000BD022000BDFF2000BD0000074A9168D26889B2064B92B2994204D105498A4201D1012100E000210170704780002E4033D000003FE300005F
:401B00000149487070470000BB01002010B50446FEF7E2FC072C01D9FF2C01D102480470FEF7E2FC10BD0000BB0100200149487070470000B801002010B5064A012805D045
:401B40001921C9021046FEF7DDFC10BD1D21C902F8E7000090002E4010B50A4A141D012808D009491046FEF7CDFC08492046FEF7C9FC10BD04491046891CFEF7C3FC034952
:401B8000491DF3E788002E4031D000003AE300000078074AFF2803D04C2804D9553803E01078087070474F380870107070470000BA01002010B50F4A002313600E4A136006
:401BC0000E4B18600E4801600E49012008600E490860000290600E490C4808600D4914300860FF381538506000F0BCF800F0CAF9002010BDDC010020C4010020F00100204C
:401C0000F4010020E0010020D0010020C4110020D4010020E8010020014610B50020002910D0094B1A689C685118A14209D25868196080188A0704D08A07920F891A091D43
:401C4000196010BD002010BDC4010020F8B50024164E671E321F3D463168136806E01422624310328A58521C1BD0641C9C42F6D36A1C14D02C461422544322460C3288501E
:401C80000C214843FFF7C8FF3168002808510AD031680020103408517068401C70602846F8BD2546E4E73846F8BD0000D4010020F3B50026F64381B000281BDB1E490968B2
:401CC000884217D80299002914D01B4F142204463F1D54432546396810354859401C09D0FEF7FAFB38682F1F4159C359994203DBFEF7FAFB3046FEBD21460831009146584E
:401D000001590C20704308180C220299FFF7F5F80948761C001D0068C159B14200D100260549009A091D865008684159491C4151FEF7DAFB0020FEBDD0010020002803DBB1
:401D400007490968884202D90020C043704704491422091D096850431030085870470000D0010020F0B500200D4A451E0346171F50600FE014260146714314680E1DA351C1
:401D80000C461668083433511668083435511468401C635039688842ECD30020F0BD0000D4010020F3B50026F64381B0002841DB2349096888423DD8029900293AD0204F67
:401DC000142204463F1D54432546396810354859401C2FD0FEF780FB3868415900292BD0211D009146580C21005971430F46C1190C220298FFF781F811480021001D006849
:401E0000761C00590C34C0190160416081600C48001D00680159B14200D100260849009A091D865008684159491E4151FEF75CFB0020FEBD3046FEBDFEF756FBFAE7000035
:401E4000D0010020FEB504460D4600201E49089E0860471E009001900290002C11D0486885420ED2002A0CD0002E0AD0642E08D808460C3001681C2068430C18207A0028D0
:401E800001D03846FEBD0120226020721846FFF7DDFE6060401C13D06681A6810A4827610C3067610179A94200D205710021684601810A462846029B00F040F82846FEBD1F
:401EC00000202072DDE70000DC01002038B50124009400F039F838BDFEB50027164EFF433D4600240EE01C20316860430818017A002906D04068FFF721FF002801D025466A
:401F000003E0641C3079A042EDDA681C12D01C2130684D434419FEF7DFFA69466068FFF741FF0546FEF7E0FA002DD9D1216868468847D5E7FEBD0000E801002038B50024C1
:401F4000009400F001F838BD1FB500220C49541E0A60002811DB496888420ED808491C220C31096850430818406801A9FFF7A0FE401C02D0002004B010BD2046FBE7000066
:401F8000DC010020F0B50021114A4D1E174611710C3F0B46BD6016E008461C2460431668041D355114680646235014680836A3551468361DA353044616680A34335318302E
:401FC0001468491C255078688142E5D30020F0BDE801002038B500210091002811DB0F49097888420DDA0D4D04010C3529680859002807D0201D0818694600F05FF9002810
:4020000001D0002038BDFEF767FA28680F34015D491E0155FEF768FA009838BDF8010020F7B582B00025ED43029800240E460560002A49D0002E47D02D48D21C02402D482D
:40204000174601780C30006805E022018258002A0FD0641CE4B28C42F7D3691C3ED02C01211D40180191314600F016F900282BD101E02546F1E71F480C30016820460C30F9
:402080000F521C480C30016820460E300E5419480C30016820460F300E543846704300F0ADF814490C310968002808510CD00024009011E00F480C30016801980818009982
:4020C00000F017F9002802D0012005B0F0BD0098C019641CE4B20090B442EBD30298054905600C310879401C08710020EDE70000FCFF0000F8010020F8B50D4600216A46DF
:402100008C461180002839DB23490978884235DA214B04010C3319680A59002A2ED020460C300B5A801C0E5C184670438018954224D3854222D2002006E007465F43BF1873
:40214000AF4206D0401CC0B2B042F6D36046002814D0114E271DC8190C366A46294600F0F2F800280AD168460088012808D030682946C01900F0BDF8002803D00120F8BD0E
:402180000020F8BDFEF7A8F930680F34015D491C0155FEF7A9F9F3E7F801002003460020002B06D0034A5168906852884018511A19807047F801002070B5002400F0DCF8BB
:4021C0000D4E002132460C3271600EE0200113680546195013680C355953AD1C13680F3059551368641C1954E4B230788442EDD31171002070BD0000F8010020014610B5E5
:40220000002000290CD0C91C064B8A08596892005C888A18A24202D898685A60401810BD002010BDF8010020F8B5002827DB19490978884223DA174C05010C3421684859E1
:4022400000281CD028460C30085A009028460E300E5C401C0E5420682F1DC01900F064F800280CD12068002445590EE0094829460C300068C01900F03CF8002801D0012029
:40228000F8BD00982D18641CE4B2B442EED30020F8BD0000F801002030B50D4604000BD0A800FFF7ABFF6060002805D000202570C0436080002030BD012030BD70B50D468A
:4022C000040005D0002D03D00220205E002801DA012070BDFEF700F90221615E60688900405828606088401E6080FEF7FDF8002070BD70B50D46040007D0002D05D00221FE
:402300002078615E401E814201DB012070BDFEF7E3F86088401C00B26080616880000D50FEF7E2F8002070BD10B5040009D0227800216068FEF7EAFD0020C043608000206F
:4023400010BD012010BDF0B500231D46002802D00224045F0AE00120F0BD46689F00F6598E4201D1012503E05B1CDBB29C42F4DA15700020F0BD0000054B11221A70054A97
:402380001180064A044911600549086070470000F8010020FA010020F4110020040200200002002001480078704700000C0200207CB505460024FEF7B5FDA879694608703B
:4023C00000A8062229460130FEF797FD0021684604F0A8FB0C2804D0072804D01F2804D004E0022402E0042400E0272420467CBD10B502280BD0032802D0042809D102E0CB
:4024000000F018F905E000F0E7F9FF2801D100F0F7F9FFF73DFBFFF749FB10BD10B500F01FFAFFF735FBFFF741FB10BD10B503240BF0CEFF002810D10BF072FF00280CD1B7
:4024400005F0C6F8002808D100F0E6FB002804D104F0C2FD002800D10024024900200870204610BD0C02002070B50025044600280ED0A07901280BD8FEF754FDA079002880
:40248000204602D002F0E2FF03E002F097FF00E00125284670BD70B5002592B00E46044600280CD0E27F1F2A01D9012507E0014600A80130FEF721FDE07F69460870002E5F
:4024C0000CD0F27F1F2A01D9012526E008A831460130FEF712FDF07F08A90870002D1CD10020002C08D0FEF71DFD02F015FF10A9684600F031FD0120002E08D0FEF712FD49
:4025000002F00AFF10A908A800F0AAFD01E0002803D000F0A7FC02F00BFF284612B070BD10B5FFF7B5FA012801D1FFF7B7FA10BD38B504460120002C20D0617801291DD893
:4025400000290BD0FF25E535FEF7ECFC2846FFF765F9C0B22070072803D00EE0FF25CD35F2E70020694608706846FFF7B3FA69460878012801D108202070002038BD70B5D5
:4025800004460120002C1FD06178012902D92278092A19D8002906D0FF25E53520780726092803D003E0FF25CD35F7E72670FEF7B9FC2078082808D00020FFF7CDFA2178B6
:4025C0002846FFF731F9002070BD0120FFF7C4FA2670F4E770B50D46040001D0002000E00548002802D0012102F0DAF82946204602F03CFC70BD00007813002038B5054631
:4026000000200446009022466946284600F09CFF0098002801D00BF0BDFEA878214602F0E4F9A878214602F0D3F9641CE4B2052CE9D338BDF8B5624CFFF72AFA012846D101
:4026400060480078002842D002F094FB0028FAD003F072FF0028F6D05B4E7078C00703D000F047FC0128EED0B07E0028E7D170780025002878D0000707D5AC20FFF7CEF800
:40268000070B00F061F9384321D14F484178684603F030FE4D4F06462079B9784018C1B2B14271D802F066FB002810D0464C203402F08DF96846008802F0B9F902F062FA98
:4026C00043490988884203D10120FFF71FFA74E04049012008703C48807B00282BD04034608A002827D0E07E002824D1A1200001FFF794F8208A4000B04218D978780028B6
:4027000015D1A12424012046FFF788F80221884301462046FFF788F8FF24F1342046FFF77DF80321090201432046FFF77DF83878002800D03D7002F0BDF90120FFF7E0F992
:40274000244C08E0FDF7DEFFFFF7A2F906282CD02078002829D0FFF79BF9062825D020780128EFD021E0FFE702F004FB002824D0142002F05CF9174C0120207002F09AF987
:402780000020FFF7BDF909E015E0FDF7BBFFFFF77FF9062809D02078002806D0FFF778F9062802D020780128EFD0207801288BD1FFF73AF925700020F8BDFF20F8BD00004B
:4027C00044130020B80100205813002012020020240200200D02002010B50848FF244078002809D102F0C6FA012805D1FFF73EF80720FFF78BF90024204610BD5813002003
:4028000038B5FFF745F9012801D0002038BD02F0B1FA00280AD0114C6078C00703D000F068FB012802D0A07E002801D0FF2038BD617800290FD0684603F05CFD022806D99D
:402840006846008802F0F3F8012002F039F90320FFF75CF9D9E70020F7E700005813002038B5FFF715F9042819D0052817D006281AD0032842D007280AD100206946087089
:4028800002460120FFF704F8FFF702F90128FBD138BDFDF737FFFFF7FBF80128F8D0FFF7F7F80128F5D138BD02F028F905E0FDF729FFFFF7EDF8012803D0FFF7E9F801282A
:4028C000F5D1A12424012046FEF7A8FF01220E4983079B0F0A70022BE5D149880029E2D0104301462046FEF79FFF2046FEF796FF410849002046FEF797FF38BD02F002F987
:402900000120FFF703F938BD12020020F8B50646002402F0ADFE0546304602F0C1FE00210346012632468A40174610462F401840002F03D0002801D1224394B2491CC9B25B
:402940000529EFD32046F8BD70B500252C460A4E03E0002C01D0002000E030460079002803D02046FFF7D2FF0543641C2406240EEFD0284670BD0000781300201CB5002027
:40298000694648706846FFF7D3FD01AA69460A20FEF77EFF6946042008561CBD10B50C4601F076F9002809D00179002906D0C1788078224602F008FB002010BD022010BDE1
:4029C0000148007870470000441300204030C07E002800D00120704700B500F001F800BD88214843064940186030417F491CC9B24177052901D300214177C8B27047000040
:402A00005813002013B501F043F904000BD001F09AFC002807D0214601AA0A310620FEF737FF00201CBD02201CBD000010B50C4601F02EF900280AD001F085FC002806D07E
:402A4000224604490A20FEF723FF002010BD022010BD00002D130020F3B581B0074601460026029802F0FCFD0446002F01D0002500E0154D002D21D0284601F03FF9032C77
:402A800004D13946029802F015FE06463846029901F09EFF032C06D0002C10D00121384601F01AFA03E03146384602F0B7FF284601F05CFE0221284601F072FEFEBD384616
:402AC000029901F085FFFEBD7813002070B50446002503F0A5FB002801D00C2070BD2078611C02F06BFBFF2802D01F25284670BD02F0B8FBFF2804D02178621C01F0DAFE22
:402B0000F4E70725F2E710B503F08AFB002801D00C2010BD02F02AFB002010BD70B50D46044610210BF076FB1021601806460BF071FB334610221946204603F09DFB10219B
:402B400030460BF067FB02202870204604F09CF970BD70B504464078217802028006850FE0781143A67809050002090D0643084601F08EF8002812D0022D10D0032D0ED0A9
:402B8000002E08D00179092909D0002907D0214600F0A1F870BD0089002104F0AAF820460BF0F8FB70BD0020704770B50446002503F036FB002801D00C2070BD2078611CB6
:402BC00002F0FCFAFF2802D002F03EFA00E01F25284670BD10B504F0FFF900F0F6F8002010BD10B5044600786178E2780843A17811430843217908436179084305D003F000
:402C000001FB002803D00C2010BD122010BD204602F01CFC002010BD10B5044803F01CFC02F01CFA00F004F8002010BD14130020F8B5114D00266E706E736E716E76AE762D
:402C4000EE766E75AE70EE70AE712F46EE730120B03778723F2078719B20B87100F00AFA0024204601F036FB641C2406240EF8D03E72FE71AE73F8BD5813002070B505464A
:402C80000E46084602F0F4FC0446304602F008FD0121A9400A46224001400A4301D0012070BD002070BD10B50446084602F0F8FC0121A140014201D0012010BD002010BDED
:402CC00010B5FEF7E5FE032804D101F01BFF0120FEF71CFF10BD70B5044600790D4609281CD000281AD020464030817E491C8176204601F03BFDA078FFF76EFE06460246F6
:402D00002946204600F00CF8002806D1A0783146FFF760FC28460BF03DFB70BD0846FAE7F7B5054648780C468006870FC8788978000282B0014368468180284601F00EFBF8
:402D4000060007D021462846049A00F091FB304605B0F0BD384600F039FC0746034601AA2946204600F0CAFA68468088231DC0B20090A878FF22049902F032F8684680889A
:402D80003B46C2B2A878049902F0DCFBDFE770B5002500242846FFF7B9FD060010D03046E040C007C00F07D02146284601F003FE21462846FFF750FE641CE4B2052CEED379
:402DC0006D1C2D062D0EE4D070BD10B502F046F9FFF72EFF0BF046FB002010BDF8B5002400F081F80123012800D10124104F00203E4620360425082203E0002801D0002193
:402E000000E031460979002907D001290BD002290BD0114681402143CCB2401C0006000EEBD07C70F8BD1C43F7E72C43F5E700005813002010B5FFF7D1FF10BD10B50B4667
:402E400081791943817103D08078114602F03EFB10BD10B582798A43827102D1807802F04DFB10BD70B5FF25D53502242846FEF7D5FC0C4A9178002901D0022906D113780B
:402E800052789A18282A01D9032402E0032900D101244105490DE00201432846FEF7C4FC70BD00000E02002010B500F022F8002807D0012805D0032801D0042801D0002018
:402EC00010BD012010BD014610B50020C90701D000F009F810BD014610B50020C90701D000F001F810BD10B52020FEF797FC000A10BD10B51820FEF791FC410501D50420E6
:402F000010BD4007800F10BD38B5044640060CD5684601F007FE0220FFF78CFF072002F0B9F96846007801F03FF9200613D5FFF7E0FF01280FD1684601F0F4FD68460078C0
:402F400000F09AFA072002F0A5F9012001F076FC0220FFF76FFF38BD10B5034A0178117002F0A7F9002010BD0E02002010B50446FFF7B9FF002801D00C2010BDA27B01216E
:402F80001848002A827801D00A4301E05208520082706279012A0FD0C17849084900C170207901280CD06188208802F0A5FF2080207904280BD00DE0C2780A43C270EFE786
:402FC000E01D02F02BFA0848808C208002E0E01D02F024FA054920798870204602F078F9002010BD58130020041300200E02002038B50478FFF777FF844201D10C2038BDBD
:40300000002C18D0072069460870FFF74DFF012807D10121684600F08DF8012801D0092038BD6846007802F035F9FFF71BFF02F07FF9012010E0FFF737FF012806D16846E3
:4030400001F070FD6846007800F04AFA072002F021F902F061F90220FFF7ECFE002038BD10B5034A0178517002F008FA002010BD0E02002038B568460BF022F9002801D0FB
:403080001F2038BD01210098C90201804180002505714571857107214173857302F018F9009C202200212046FDF730FF25702A460021601CFDF72AFF204602F0FAF8204600
:4030C00002F0DCF900980BF065F9042200210248FDF71CFF002038BD0E0200200346084800B5834209D8184600F0D2FD002804D00089984201D1012000BD002000BD000036
:40310000FF0E0000074A9179491C8906890E917138220A4092014907090E1143084302490840704758130020FF0E0000C006C00E70470000F8B507460E4600240D4803E086
:40314000002C01D0002500E005462979002905D0641C2406240EF3D00020F8BD204601F0B9F82E712046FFF7CDFF28813C700120F8BD00007813002010B503F0B1F80222C4
:40318000002100F003F801F011FF10BD10B5094B40074907000F090F185A595A40185043C0086421FDF708FE002800D1012080B210BD00006A060100F7B53D20405C88B0A0
:4031C00016460C46002829D030786946087200252046FFF7FBFB012800D00125204603A938300191009023460327A17E34332A46206A03F04BF902A8089900900B460191F5
:4032000020463A4603A9243003F018F802466846007A3070204601F049F810460BB0F0BDFFB587B00C4605461078694608723D20005D1746002826D000262046FFF7C6FB8E
:40324000012800D00126204603A93830019100902346A17E34333246206A03F017F902A80090291D019120462B1D03A924300A9A02F0E4FF02006846007A388002D120464A
:4032800001F014F810460BB0F0BDF7B53C20405C88B015460C4600280CD0287869460872002806D000262046FFF790FB012803D003E01F200BB0F0BD0126204603A93830CB
:4032C0000191009023460327E17E34333246E06903F0DCF802A8089900900B46019120463A4603A9243002F0DBFF02466846007A2870204600F0E4FF1046DBE7FFB5054603
:403300003C20405C87B016460C46002810D0084601F024F801280BD0308869460883002809D000272046FFF751FB012805D005E000200BB0F0BD0220FBE70127204602A9DF
:403340003830019100902346E17E34333A46E06903F09CF806A80090291D019120462B1D02A924300A9A02F09BFF02466846008B30806846008BA870000AE870204600F017
:403380009FFF1046D5E770B50D460446FFF71EFB01280AD0E87AA97A00020143A07801F0C3FC012808D0002070BD00222421204602F0ECFC242070BD28214C20015520461F
:4033C00000F09AFB282070BD002801D0002000E003484030C07F012800D0002070470000781300200146002049070ED50021084B03E0002901D0002200E01A461279022A61
:4034000004D0491C0906090EF3D0704701207047781300200146002049070ED50021084B03E0002901D0002200E01A461279022A04D0491C0906090EF3D07047012070477B
:403440007813002010B5044680346068002803D00AF0B4FF0020606010BD4030417070474030817070474030017070470171704792001018C166704770B53C2501F0F8F811
:40348000040004D020460021433001F0EDFB2946204600F0C0FB002C02D0A07801F07AF870BD000010B5002801D0002000E00348002802D0008903F063FC10BD78130020E5
:4034C00010B5002801D0002000E00448002804D00179072901D100F041F810BD7813002010B501F0C5F8002802D0807801F052F810BD00207047000070B50546008A002843
:403500001ED010491122897A1140C90618D5294640314A8A098A521C4A4392B2D10800D10121540801E0621A94B2A042FBD9FEF739FF012804D1298AA878224601F0E4FCC3
:4035400070BD00000413002000230B60052A04D292001018C26E0A60C366704738B5044600200090A079002814D14020015D052901D00E290ED168460AF0B2FE002809D1E6
:403580002046009902F0EAFB03481021C28A2046FFF754FC38BD00000413002010B50B4604460146184602F0B9F8002802D020460AF0FAFE10BD13B5044601AA1146062094
:4035C000FEF766F96846818861811CBD002800D10220704770470000F8B504462346401D543300909A1EA078911E01F0AAFA25464035A88A298A8000FDF7DEFB401E81B2F1
:40360000688A884203D96982A07801F0EAFF20460021433001F028FB8020FEF7FFF8E88102F05EFEE989891C8AB26179FFF7AEFD01F0BCFC02F054FE2A8A6179FFF7A6FDE2
:40364000074601F0A5FC688A00280BD0FF26F1363046FEF7E3F80321090201433046FEF7E3F802E0002001F0AAFFFF206130FEF7D5F86E8A002E0BD070431049FDF7FCFB25
:403680000004000C01D0401C80B20D49488002E00B4800214180288A704381B2A07801F0FBFE2837B9B2204602F02AFCE98AA07801F04AFEA07801F0AEF9F8BD71020000E8
:4036C000120200207FB504468034616805460E46183108226846FDF710FC31462031082202A8FDF70AFC102168460AF093FD6068102108300AF08EFD60682B46083024335E
:403700001022694602F0B8FD7FBD10B504460821FFF79FFB10212046FFF79BFB207905281FD006281DD008281AD12189002003F09FFA072020712046FFF748F90146204697
:403740004030012913D00E21017000210176204600F02CFF2046FFF775FE2046FFF7CCFE10BD20890122002103F066FAE1E70521EAE70000FFB581B01F4604460821FFF79F
:4037800068FB10212046FFF764FB2079082803D0092804D0042203E00422012501E009220025204600F0C6FD264600204036307022712046FFF746FE0398002D02D00128E2
:4037C00008D00BE001280AD120890022029903F033FA04E02189029803F04AFA012700203076012F04D0204600F0E0FE05B0F0BD02983073204602F0F5FA05460548012157
:40380000C28A2046FFF71AFB002DEFD109202071ECE700000413002070B50C460546FFF7D5F8012809D108212846FFF712FB0023012221462846FFF79DFF70BD10B504460F
:4038400000F078FD2046FFF7FDFD00214034217010BD70B505461A24FFF7B8F8012809D108212846FFF7F5FA0023012221462846FFF780FF70BD0000F8B504460020009063
:403880000E4668460AF02CFD002801D00D20F8BD8420005908212030009D00F0F4F920460421383000F0EFF9002E02D1204600F07FFD2946204602F0E1F90E480821C28A0E
:4038C0002046FFF7BBFA204600F0D7FE25464035002808D0204600F023F8002801D0092028700020F8BD08202870204600F03EFFF7E7000004130020014610B540310A4677
:403900000978082906D0092907D00A2901D100F091F810BD0B20107010BD00F001F810BD70B50446007925464035052805D0062803D008280FD00C2070BD03220621204698
:4039400002F024FA0D480821C28A2046FFF776FA1120287010E006202873204602F042FA0646AA8A0A20424301212046FFF766FA002E01D109202071002070BD0413002048
:4039800038B504460020009068460AF0A9FC002801D00D2038BD2046009D00F08BF908202071204600F004FD2946204602F098F900213D2001550F2040210855204600F0C2
:4039C000D5FE002038BD00B5024600F0B3FC10214032117000BD10B50446FEF7F7FF012809D04020005D112805D100231A4606212046FFF7BFFE10BD10B5FFF786FE10BDFE
:403A000038B504460021684600910AF069FC00280CD12046009902F0DAF905480821C28A2046FFF70BFA0D204034207038BD00000413002038B504460021684600910AF0B6
:403A40004FFC002801D00D2038BD2046009902F0B3F905480821C28A2046FFF7EFF90C2040342070002038BD0413002000787047F8B50025002801D0002400E01A4C002C31
:403A800028D0204600F05FFC002823D0207903281CD005281CD026464036B18AA07801F009FDB078012815D10021204601F053FE274680373868002802D00AF07FFC3D607D
:403AC0000020B0702079072805D007E0042000E006202071F8BD2046FFF70EFD0221204600F05EFEF8BD00007813002010B54C22115400F046F810BD10B50446FF21FFF73E
:403B0000A8F909202071A07801F004FD10BD000038B5FF216A461180002801D0002400E0064C002C08D011460620FDF7B1FE684601882046FFF73FFD38BD00007813002023
:403B400010B504468079002809D022214C200155FF212046FFF77DF9204600F012F810BD10B5037902464032002B03D01173092B02D003E0002100E02221117300F001F801
:403B800010BDFEB504460089002701902781207926464036002817D0012815D002280AD112E002AA6946204601F0A6FD002807D100980AF0F9FB204601F0C6FD0028F0D0E6
:403BC0002046FEF71BFDB776254680352868002802D00AF0F3FB2F606868002802D00AF0EDFB6F60317B002902D0019800F044F8A078002100F028FF2046FFF7BDFAA078A2
:403C000001F07CF8A07800F0C5FC0B20FFF712F900F004FCFEBD70B50E46054602F05CFB044606702846FEF7D1FE014601204140204661700C3001F000F8002D10D028897D
:403C4000608028464030C1782171002E10D169796171018AE180418A2181808A608107E01820FDF7DBFDC005C00F207100206080204602F0A6FF70BD0A4610B501460020FE
:403C800003F096F810BD10B50AF0A0F810BD000000B50146FFF74AFA002801D0002000E00348002802D002898A4200D0002000BD7813002038B5044680346068002806D1BD
:403CC00068460AF01DFB002801D100986060606838BD000010B5014600F040FB0128887802D0FEF77DFE10BD88214843024940186030007F10BD00005813002070B50546D8
:403D000004464035A87F012811D1A1788820084A484380186030067F3046FEF7AFFF002805D10220A877A078314601F0ADF870BD5813002010B50E4CE079002816D0FFF796
:403D400026F80C48827FC17F808B00F06FFB01280CD10020E07100F0EEFE0446AC20FDF75DFD010B02D0204600F00EFA10BD0000081400205813002070477047490510B523
:403D8000490F0B00FDF78CFA060704080C0C0F073E21FFF7ABFE10BD0821FFF7E1FE10BDFFF7EFFE10BDFFF7CBFE10BDF8B507460025002D01D0002600E0204E00F070FE1E
:403DC0003046403044890021418100F08FFE304600F0B9FA01282BD1A00702D52846FFF747FEE00602D52846FFF792FEA00601D5FEF7CDFF600601D500F0CCFA200602D56E
:403E0000284600F01DF8600702D5284600F0FEF9380402D52846FFF753FB780402D52846FFF740FBE00703D021463046FFF7A6FF6D1C2D062D0EBCD0F8BD000078130020B0
:403E4000F8B5002801D0002400E0204C002C39D025464035A878012834D1E98AA07801F073FA2046FEF7B2FD01282BD002F038FA2A8A6179FFF78AF9064601F089F828366B
:403E8000B1B2204602F03CF8E98AA07801F05CFAFF206130FDF7C2FC6E8A0D4F0146002E11D0304648430B49FCF7E6FF0004000C01D0401C80B27880288A704381B2A078F1
:403EC00001F0EAFAF8BD0020F5E7000078130020120200207102000070B50D46124A010001D0002401E014462034002C1BD0204600F034FA01280AD1882048438018603097
:403F0000007FFEF7BBFE002801D101F0F5FE20464030817E491B8176204600F027FC2089294602F0E6FE70BD5813002070B503460088FFF7ADFE040013D000F004FA002893
:403F40000FD02079092819D02546997840352973204601F047FF0646A878012803D0AA8A02E0022070BDEA880A20424301212046FEF764FF002E01D109202071002070BDB0
:403F80000EB5002217216B460292198100905A810120029B00990AF083FA0EBDF8B5184E0024F079002820D10025AC20FDF736FC000B21E0204600F073FEFDF72FFC0746F2
:403FC0002A46214600F032FA01280FD00D48012187838577C477F171002D01D0002000E02030002801D000F0C1FBF8BDAC20FDF715FC000B641CE4B20028DBD1F8BD000089
:40400000081400205813002010B50088FFF740FE002809D0014640310C460978082905D00B2903D00C2010BD022010BDFFF778FC002801D009202070002010BD70B5034640
:404040000088FFF725FE040008D0254640352878082805D00B2803D00C2070BD022070BD8420005910220830991CFCF746FF2046FFF728FB2878082804D02046FFF7DAFCE7
:40408000002801D00A202870204600F06FFB002070BD000010B50C46002121700088FFF7F7FD03000BD000F04EF9002807D009481121807A0840C00603D4112010BD022067
:4040C00010BD022020701A8A1889002102F08CFE002010BD04130020F8B50F46002100910088FFF7D5FD040012D000F02CF900280ED0E079410641D4617E02264A07002AFF
:4041000008DB8907402500291ADA2843E07135E00220F8BD02F0E0F80021017021894180A1898180217E4170E189C1803E7005460178134802F0BEFB284602F0F9FD1DE02A
:40414000204600F011F9012806D068460AF0C8F8002803D00720F8BD2A20F8BDE07900992843E071204601F067FE607E0421304360760448C28A2046FEF760FE0020F8BDC6
:404180001D040000041300203EB500220F236C460292238100910190628169460EC900200AF07EF93EBD000070B5054600F060FA040024D003202071254600264035EE768F
:4041C000E6702046FFF708FA01F0A6F80920FEF731FEA07800F080FD0121204600F0E0FA2E706E70AE7000212046FFF714FD0649887B401C8873012001F0C0F970BD284621
:4042000001F088F970BD00005813002010B5002801D0002400E00A4C002C0FD020464030417802290AD1002141702046FEF7CEFB002803D10221204600F0B2FA10BD0000B8
:404240007813002070B503460D460088FFF720FD04000BD000F077F8002807D012481121807A0840C00603D4112070BD022070BD20464030418A008A491C41430804C10CF5
:404280005888884201D2122070BD20822079072802D12046FFF730F9022028702089002102F0CAFD002070BD04130020016A491C016204D1817E491C4906490E81767047DF
:4042C000C169491CC16104D1C17E491C4906490EC176704770B500250646002801D0002400E0114C002C1CD0882200212046FCF70DFEA6700020264620714036307020461A
:4043000000F018F8204601F01BFA084820820848B577807A1121084000D001202075012070BD002070BD000078130020B80B000004130020002101628176C161C176203045
:404340000177417770470079002805D0012803D0022801D001207047002070474030807F002800D00120704740300078002807D0012805D0052803D00E2801D00120704737
:404380000020704710B5807801F08AF9002800D0012010BD10B500F0CEFB0446AC20FDF73DFA010B02D02046FFF7EEFE10BD000070B5054604464035A87F002823D1FF20CC
:4043C0006075A0788821144A484380186030417F8823491CC9B24177A078584380186030052901D300214177A0788821484380186030467F0677A1783046FEF73FFC0028C0
:4044000002D00120A87770BD0220A877A078314600F03AFD70BD0000581300200020401C0006000EFBD0002070470000F0B515468207920F85B0C004C00E02926A46908017
:40444000002D01D0002400E0514C002C29D0084600F026FC03906846808800280BD00298012845D0022843D003280CD03D20005D012872D086E00398FDF7D0F90146204620
:40448000FFF799F87EE00020029002A809F008FF002807D03D20005D012876D12046FFF705FF72E06846029E8388324600210398FDF72AF90398FDF7B1F901462046FFF760
:4044C0007AF8284600F0B9FA01AA21463046FEF773FE002806D0304609F052FF3D204C21085528E0F5773146204601F077FA4CE0002000902789684609F0C2FE002802D0C6
:40450000002005B0F0BD6846009E8388321D00210398FDF7F9F80398FDF780F901462046FFF749F8284600F088FA25464035287E00280CD103E02046FFF7DEFA25E001AA94
:4045400021463046029BFEF76BFE002806D0304609F00CFF3D202873EDE710E00298FFF739F8390A000101433770717068468088B070000AF0703046FFF702FD05E0204668
:40458000FFF794FE284600F058FA0120B9E700007813002010B5044A917B002901D0491E9173FFF797FE10BD58130020F8B5074606464037B87F00283DD0B0788821009066
:4045C00048431F4945186035287F0099FEF76BFB012831D0287F401CC4B2052C00D300240020B877FF276F772F77A87702460146009800F0C9FD717DFF2903D0304601F023
:4046000060F8777501F078FB00252F462246694630460097FEF798FF0099002902D03046FEF759FB641CE4B2052C00D300246D1CEDB2052DEAD3F8BD0320B877F8BD000024
:404640005813002010B502460021084B03E0002901D0002000E018460479944204D0491C0906090EF3D0002010BD00007813002000B50120FFF7E6FF00BD10B5044601F078
:404680002BFE2189018080346168416061682831816002F007FB10BDF7B50646087982B00C46092807D0A078F0770846FFF756FE012806D010E0304609F076FE022005B0FF
:4046C000F0BDA1788820284A484380186030007FFEF7D4FA012810D0A078FEF775FE01280BD037780121304601F0B3FA25462035062F36D00B2F0FD107E06846027C2146E4
:404700003046FEF74BFF0D20D9E72046FEF75EF9012801D1002028772046FFF7DBFA054604AA21463046FEF7B0FD01205F2108556946087C0090A07833463A46294600F091
:404740004FFB69460A7CA0780323294600F0FAFEA0782946FDF73EFF304609F025FE0020ADE70120D7E700005813002010B502464032937F0021002B03D1927E002A00D002
:404780000121064AD279002A00D000210279092A00D10121807800F0FFFE10BD0814002070B50C460646FEF711F9002814D1012C0ED935464035A87800280DD1687802288F
:4047C0000AD03079092807D03046FFF7DBFD0446204600F00EFE70BD0124F9E770B50D4601280BD0082808D1A8241146B020FDF71BF829462046FDF717F870BD2020FAE767
:4048000010B501460820FDF70FF810BD10B50446FF20F130012C01D1FF20D530002200F006FF1020FCF7FAFF0349A043088001461020FCF7F9FF10BD1602002010B50446AA
:404840001020FCF7EBFF0449A043088001461020FCF7EAFF10BD00001602002010B50446012802D0082C07D102E0FF20D53001E0FF20F13000F0D0FE1020FCF7CFFF0449E2
:404880002043088001461020FCF7CEFF10BD00001602002010B504461020FCF7BFFF04492043088001461020FCF7BEFF10BD000016020020F8B507460120B84085B21446D9
:4048C0000E46012229467C2000F0B1FE32462946782000F0ACFE6078217800020143E078A5780002054360792679000206430C2047430D2080013C182046FCF795FF241D5F
:4049000029462046FCF790FF201D3146FCF78CFFF8BD401880B270478B00034310B5D10191201943C000FCF77FFF10BD70B505460C46407829780002014341200001FCF7CF
:4049400073FFE878A978000201430A48FCF76CFF60782178000201438320C000FCF764FFE078A1780002014302480830FCF75CFF70BD00001404000070B50D46044681B21D
:4049800001208002FCF750FF210C0448FCF74CFF81202946C000FCF747FF70BD0404000070B5054600242846FCF738FF641CA4B2102CF8D370BD10B50C460146B020FCF7C6
:4049C00033FFFF2021462D30FCF72EFF10BD704710B50C460146B020FCF726FF204600F051FE0021FCF720FF10BD70B50C46054600F005F821462846FFF7DDFF70BD10B5CB
:404A00000C460146B020FCF70FFFFF2021462930FCF70AFF10BD10B50146B020FCF704FFFF20002220211D3000F001FE10BD10B50146C020FCF7F8FE10BD010210B54D311F
:404A40000020FCF7F1FE10BD10B504020029014608D0B020FCF7E8FE214675310020FCF7E3FE10BDB020FCF7DFFE512000214001FCF7DAFE00210348FCF7D6FE214676315E
:404A8000ECE70000240A000010B554210020FCF7CBFE10BD10B553210020FCF7C5FE10BD10B5034908884880FFF7C8FE10BD00001602002010B550210020FCF7B5FE10BD43
:404AC00010B50E2400280CD0C420FCF7A7FE20430146C420FCF7A8FE51210020FCF7A4FE10BDC420FCF79AFEA043F1E710B502484088FFF7CFFE10BD1602002010B5FCF7A3
:404B0000B1FF10BD10B552210020FCF78DFE10BD884201D8081A03E00022D243101A401880B2704710B504461820FCF777FE8004400F207010BD10B5B020FCF76FFEC0B2C5
:404B400010BDF8B50E4601461C461546B020FCF76BFEFF20E930FCF761FE0746FF200130FCF75CFE3080FF200930FCF757FE2880FF200530FCF752FE208079070698490F1E
:404B80000170F8BD10B5C820FCF748FE10BD10B50C46002812D05820FCF740FE2070000A60705C20FCF73AFEA070000AE0706020FCF734FE2071000A607110BDFF20C130E9
:404BC000FCF72CFE2070000A6070FF20C530FCF725FEA070000AE070FF20C930E8E7000000B5024A00F004F800BD0000FF7F000000B51346FFF78CFF984201D8022800D24D
:404C0000002000BD10B50146B020FCF70DFE0248FCF704FE10BD0000080A000010B52420FCF7FCFD10BD10B50146B020FCF7FCFDFF202130FCF7F2FD10BD70B504466820FF
:404C4000FCF7ECFD06466C20FCF7E8FD05467020FCF7E4FD2670310A6170A570290AE1702071000A607170BD10B50446012905D01820FCF7D3FDC00B207010BD4820FCF799
:404C8000CDFD8007C00FF7E710B50146B020FCF7CBFD0248FCF7C2FD10BD0000280A00000120C0027047000010B50146B020FCF7BBFD0248FCF7B2FD10BD00000C0A000074
:404CC00010B50C460146B020FCF7AEFD0321A0014902401810BD00008821074B414310B5C918FF2260314A770A7700228A77114600F04AFA10BD0000581300208822504357
:404D0000074A10B58018FF21603041770177002181770448418EFF201D3000F07DFC10BD581300200413002010B50C460146B020FCF77AFDFF202530FCF770FD0222214656
:404D400000F002F810BD000010B50023884201D8081A03E00024E443201A4018044980B2884201D8824200D90123184610BD0000FF7F000010B5C420FCF750FD0006C00FC5
:404D800010BD000010B50348FCF748FDC007C00F10BD00002C0A0000F8B503465078167800020643D07895780002054350791779000288240743002900D098241946B020DA
:404DC000FCF732FD31462046FCF72EFD201D2946FCF72AFD204608303946FCF725FDF8BDFFB581B014460D4606460A9FFFF768FF3B460021049AFCF7F7FC02484019845563
:404E000005B0F0BD1A02002070B506460D4611242520A40108214001FCF706FD2B46324600212046FCF7E0FC70BD70B5212405466401FFF72FFE10232A4600212046FCF7CB
:404E4000D3FC70BD10B5044640782178000201438F20C000FCF7E8FCE078A178000201430148FCF7E1FC10BD7C04000010B50C460146B020FCF7D8FC802021460143FF20CE
:404E80002930FCF7D1FC10BD70B50D460146B020FCF7CAFCFF241D342046FCF7BFFC01090901FF202943013001432046FCF7BCFC70BDF8B500242646012807D0032802D0B0
:404EC000052808D105E002240A2604E004240C2601E004240D26492701463F013846FCF7A3FC25204001FCF799FCC5B228462042F7D0252031464001FCF796FC00213846B3
:404F0000FCF792FC2846F8BD70B50D46044601461646B020FCF788FC512029464001FCF783FC31460648FCF77FFC032189030820FFF794FC210275310020FCF775FC70BD83
:404F4000240A000070B50D4604460146B020FCF76BFCFF2029461930FCF766FC21024B310020FCF761FC70BD70B5491E8CB205460146B020FCF758FCFF2021461930FCF733
:404F800053FC29024C310020FCF74EFC70BD0000054910B5884200D908460146FF206130FCF742FC10BD0000FF0F0000054910B5884200D908460146FF206530FCF734FC47
:404FC00010BD0000FF0F000070B588251446002900D098250146B020FCF726FC2846FCF71DFC2070000A6070281DFCF717FCA070000AE07028460830FCF710FC2071000AEF
:40500000607170BD10B51446024611200B4680010021FCF7D5FB012C01D1FFF735FD10BD10B504460920C001FCF7F8FB2070000A60700448FCF7F2FBA070000AE070FFF75B
:4050400023FD10BD840400000121814010B589B200227C2000F0EBFA10BD000070B5FF210120FFF7D3FBFF210820FFF7CFFB3020FFF7E4FB80210020FCF7D6FB0022114623
:405080000320FCF705FC374DFF20A98DD530FCF7CBFB0024FF26F1362146B020FCF7C4FB298F3046FCF7C0FB2046FFF727FE641C2406240EF0D0FF20A98FF930FCF7B4FBCE
:4050C00028481030044600F079F9204600F0BEF900F04CF8234CB82040346188FCF7A4FBA188BC20FCF7A0FBE188C420FCF79CFBFF20698EE130FCF797FBA12000210001E4
:40510000FCF792FB3920FFF7C5FBFFF7C3FC93200721C000FCF788FBFFF7B6FCE020FFF73FFCE820FFF73CFCF020FFF739FC0020FEF722F8618A0C48FCF776FB0A48282163
:40514000001DFCF771FBFF210131AC20FCF76CFB832000218000FCF767FB5B210020FCF763FB70BD04130020140A000010B500217C20FCF759FB00217820FCF755FB7421D9
:405180000020FCF751FB10BD70B50D4601461446B020FCF749FBFF261D363046FCF73EFB01090901FF20294301308143002C01D1102041403046FCF737FB70BDF3B589B09D
:4051C000FF2001900D208001009048780D7800020543C8788E780002064348790979000201437C200791FCF719FB06907820FCF715FB059074210020FCF716FB18480024DA
:40520000049026E00120A04087B20098FCF706FB03900098FCF702FB02900098FCF7FEFA039A29465140029A72401143079A424011430BD10698074208D00598E040C10708
:405240000998C90F814201D1019405E0641C0498E4B20078A042D5D801980BB0F0BD00004413002070B5FF257C20FCF7D7FA0849002401230A7805E01946A140014205D074
:40528000641CE4B2A242F7D8284670BD2546FBE74413002010B504461820FCF7BFFA0721C90288436107890C01431820FCF7BCFA10BD10B50446E020FFF772FB20782246B4
:4052C000401CC3B20021E020FCF73AFA10BD000010B5044641790079042817D040000843A17B032901D8C9000843617B4A010243A079010207201143C00201431820FCF77F
:4053000093FA21881C20FCF78FFA10BD08460149E5E700000204000010B5012000F02EF90120FFF78BFA41210020FCF77DFA10BD10B5002000F022F90120FFF7ABFA4021E9
:405340000020FCF771FA10BD10B50C460146B020FCF76AFAFF2021460D30FCF765FA10BD70B50C4601461E461546B020FCF75CFAE92021468000FCF757FA75202946C000ED
:40538000FCF752FAEB2031468000FCF74DFA6C433B20A1B20001FCF747FA70BD70B50C4601461546B020FCF73FFA21468420FCF73BFA29468020FCF737FA70BD10B50446FC
:4053C0004078217800020143FF20C130FCF72CFAE078A17800020143FF20C530FCF724FA6079217900020143FF20C930FCF71CFA10BD70B5A124054624012046FCF70EFAAF
:40540000012D07D041084900814202D02046FCF70BFA70BD014601221143F5E710B5044640782178000201436820FCF7FDF9E078A178000201436C20FCF7F6F9607921796C
:40544000000201437020FCF7EFF910BD10B5044640782178000201435820FCF7E5F9E078A178000201435C20FCF7DEF960792179000201436020FCF7D7F910BD10B50446EA
:40548000E820FFF78DFA20782246401CC3B20021E820FCF755F910BD10B50C460146B020FCF7C2F921460248FCF7BEF910BD00001C0A000010B50C460146B020FCF7B4F967
:4054C000FF2021460530FCF7AFF910BD70B5054688000521FBF770FC84B22946B020FCF7A3F921460448FCF79FF9290272310020FCF79AF970BD0000040A000010B504460D
:405500000146B020FCF790F9210273310020FCF78BF910BD10B504460146B020FCF784F9210270310020FCF77FF910BD10B504460146B020FCF778F9210271310020FCF799
:4055400073F910BDF8B505461E4614460F46084600F098F800902802A1000843304304462946B020FCF760F921460098FCF75CF90148C0194655F8BD1F02002010B5044622
:40558000B820FCF74BF98005800DA102014389B2B820FCF749F910BD70B50D460146B020FCF742F9FF241D342046FCF737F940218843A90101432046FCF736F970BD70B520
:4055C000A124054624012046FCF728F90222002D01D0104300E0904301462046FCF724F970BD70B50D460146B020FCF71DF9FF2029460930FCF718F9A12424012046FCF744
:405600000DF90222002D01D0104300E0904301462046FCF709F970BD70B50C460546FCF7FDF8204301462846FCF7FEF870BDF8B516460D460746FCF7F1F8014600202C007D
:4056400003D104E06408401C80B2E207FAD08640A9430E43B1B23846FCF7E6F8F8BD0000024A1018405C8007800F70471F02002010B50146B020FCF7D7F8FF202D30FCF730
:40568000CDF810BD8000FF30413070470246FF20052902D201484018805C70471A02002010B50146B020FCF7BFF8FF202930FCF7B5F810BD0A4600B501461046FFF7E6FFC0
:4056C00000BD38B50C46054600216846009108F007FE002804D1009928464C7000F09EFB38BD10B5044680780021FFF72DFE01212046FFF755F810BD436E002B0CD00B60C4
:40570000014660318B781370826E4266CA788A700021816608467047FF20704710B50346446E6033002C04D0846E002C04D0FF2010BD41669A7001E08166DA70002010BD73
:405740000021416681667047406E002801D000207047FF20704770B50446C0790D46810610D5DF210840E07100F0B6FD0570218941804034218A8180618AC180A18A0181F3
:4057800001F0F2F970BD000010B50446FEF7E6FD01280AD1A1788820054A484380186030007FFDF76BFA012801D000F0A5FA10BD5813002070B50D460446FDF707F901289A
:4057C0001CD02079042801D0072816D1E879AE7900020643A0783146FFF7A6FA012813D03246691C204600F035FA02212046FDF734FE01212046FEF7D3FF70BD01222421F8
:40580000204600F0C3FA70BD28214C2001552046FEF772F970BD70B50D460646FDF7B3FD002847D120213046FDF713FB3446687840346073E87820220002E081A9780843B7
:40584000E0816879010228790843218A814203D0F1791143F1712082E8790102A8790843618A814203D0F1791143F1716082687A0102287A0843A18AE180814203D0F17943
:405880001143F171A082A08A218A8000FBF794FA401E618A80B2814200D9608201213046FDF7DEFDE87AA97A000201430022304600F0DCFA70BD0000F8B50C460546FDF747
:4058C00085F8012849D0294EB07AC00709D02846403000900078002805D0102805D01F212EE01A212CE0002700E001272846FEF7E1F9002823D02E4680360822611C7068F3
:40590000FBF7FBFA7068617A20300172A17A417270682146183008220B31FBF7EEFA21462846042213313430FBF7E7FA39462846FDF7A2FF002810D1002F0FD012E007214C
:405940000322284600F022FAF28A08212846FDF775FA11212846FDF786FDF8BD06212846FDF784FD009801210176F8BD0413002010B5FDF7C1FF10BD38B5044600200090F2
:4059800020790D46042801D007281BD12046FDF71DF8012817D0684608F0A2FC002811D10C486A78807A00991040112210402075607E082210436076204600F079F9204686
:4059C000FDF797FD38BD08222421204600F0DEF938BD0000041300207047000070B506460D460846FEF742F804463046FEF7ABFC00280CD0142C04D32946304600F0C7F85F
:405A000005E00549A0000A58294630469047284608F0B6FC70BD00007C06010070B50D460021002801D0002400E00C4C002C14D020464030C177807F032802D12046FEF749
:405A4000B5FD2046FFF7A0FE142D04D20449A800095820468847FEF7E1FC70BD78130020CC06010010B5014640310C4609780E2903D1FDF785FF0120207610BD10B54021DE
:405A8000095C0F2901D1FDF79EFF10BD4021095C0F2902D1002120304177704738B5044600220E4800920D46807A11210840C0060ED52046FEF758FC012809D0684608F060
:405AC0000FFC002803D12046009900F053F938BD2946204600F05BF838BD00000413002010B51021FDF7B5F910BD10B54978FDF793FE10BD10B5FDF76EFF10BD0121203089
:405B00004177704710B54021095C0C2901D1FDF777FF10BD10B54021095C0D2901D1FDF76BFF10BD70B5044600790D46052803D0062801D0082802D12046FDF77FFE68787B
:405B40004C21085509212046FDF790FC2046FFF7C8FD2046FCF73AFF0128A07805D0FFF7D9FC2046FEF702FE70BDFFF7DFFCF8E710B50446FF21FDF76CF916214C200155FE
:405B8000A078FFF7C7FC2046FEF7F0FD10BD70B50C460546FEF7E2FB002802D02078687570BD21782846FFF78CFD70BD70B5054648780C46032802D12846FDF74AFE60781A
:405BC000122803D110212846FDF743F970BD704738B5044600200D46009004212046FDF738F968782076E8780002A081A9780843A08168790002E08129790843E081607E04
:405C000004210843607680070CD4684608F068FB00281CD12046009900F00EF9607E022108436076E079410611D5BF210840E07100F052FB00210090017021894180A1898E
:405C40008180217E4170E189C18001F071F838BD7047704770B50446C07815460A4600280AD00020E070C1B2A078FFF795F8A0782946FFF767F970BD0120F3E770B5054624
:405C8000042008700C468420415908222031601CFBF733F929462046042238310930FBF72CF90D2229462046FEF7F6FC002070BD70B5054609200C46087008220021601C8D
:405CC000FBF724F9287D607004480922C07AA07029462046FEF7E0FC002070BD041300200B4610B501460B20187001221846FEF7D3FC002010BD0000FEB50024164F03E0D4
:405D0000002C01D0002500E03D462846FFF71CFD00281BD15F20405D002817D16A4601A92846FFF7E9FC002810D1019869460A7806782946FEF7B0FC022E07D1A8780121D3
:405D4000FFF72AFC09212846FDF790FB641C2406240ED5D0FEBD00007813002010B50B46122119708178D977014601221846FEF793FC10BD10B50B46132119708178D977B9
:405D8000014601221846FEF787FC10BD38B50546002000900C46684608F0A2FA002801D0072038BD00980D210170447002222946FEF772FC002038BD0B4610B501460520CD
:405DC000187001221846FEF767FC002010BD0B4610B501460620187001221846FEF75CFC002010BD38B5054600200090684608F077FA002801D01F2038BD009C0220207015
:405E00004C20405D6070A878E0772846FFF769FC022229462046FEF73FFC38BD10B50B46072119708178D977014602221846FEF733FC002010BD000010B50B460A4904468E
:405E400008880C221A704A795A709870000AD870C8881871000A5871062221461846FEF71BFC002010BD000004130020F8B50446403417460E460546E289617B8078FFF78E
:405E80008DFA002F0DD100F02BFAE2896979FDF77DF9FFF78BF8608A002800D00120FFF78EFBE388A08A984200D90346628A218AA878FFF755FAA08A218AC000FAF77CFFF9
:405EC00081B2ED208000FBF7AFFCE089E188C0080A30081881B21920C001814200D90146A878FFF7E7FAA8783146FFF73DF801212846FEF755FCF8BD00B500F01FF800BD84
:405F000010B50A4604460B491046FAF755FF4034C01C218A80B2814200D208464900081A81B20548E182C089002802D0884200D2E08210BD7102000044130020401840081D
:405F4000704770B505460C46000702D5A0B2FDF72DFFE80702D0200EFCF7D6FF70BD70B5054650C8FCF77CFCFBF78AFA2889C01F0300FBF795F90C07130B171A1D0B0B2043
:405F80000B100C0BA0B23146FFF7DBFF70BD204600F0FCFB70BDFDF7CDFE70BD2046FCF7D8FD70BDFCF7F3FE70BDFDF7E5FE70BDFDF7E3FE70BDE0B2FDF7F0FF70BD00006F
:405FC000F3B5002483B0064627460094019408200294FBF723FC05460640400713D55020FBF71CFCC0B20090700707D5009CA00803D1FBF7ABFA012800D10127002204204B
:406000000099FEF7EBFB28074ED5A820FBF706FC0146644842890A434281002208200091FEF7DCFB300739D50098044340062CD5FF200930FBF7F2FBFF201D30FBF7EEFB80
:406040008006C00F0190FF200930FBF7E7FB00281BD00198002818D1534801214170FF20F130FBF7DBFB0321090288430146FF20F130FBF7D9FBA1200001FBF7CFFB0221F3
:406080000143A1200001FBF7CFFB00981021884303D1FBF75BFA012800D101270098C00602D50220FBF742FDA8070CD53820FBF7B5FBC1B2B00702D508040443012700229D
:4060C0000220FEF78BFBE8071DD02020FBF7A6FBC0B20090F0070BD000980221000604430098884303D1FBF731FA012800D101270098800702D50220FBF718FD00220120A0
:406100000099FEF76BFBE80605D50120FBF7FEFC1020FEF775FBA80628D5FEF733FD234908800120FBF7F2FC214900200870FF200930FBF773FB0090FF201D30FBF76EFB2B
:4061400080060099C00F00290DD000280BD116494870A1200001FBF761FB02210143A1200001FBF761FB2020FEF74AFB680602D54020FEF745FB0720694608810020009620
:4061800001944881002F07D069460EC90498002804D0002008F060F905B0F0BD002008F07FF9F9E7B813002012020020240200200D020020F0B587B0054605A81E461746F1
:4061C000019100900C9C04AB06AA02A903A800F078F92846FEF729FE21463046FEF714FE6846017A0398FEF7C7FB05A904A8FEF79DFB6846027E21463846FEF78DFB07B0A8
:40620000F0BD000070B50548C4782046FCF75BFE05462046FDF7E6F8284370BD5813002070B5054884782046FCF755FE05462046FDF7F0F8284370BD58130020F8B5069E90
:406240001F463478231FDDB23B460095FFF7B2FF3819001FFEF7F6FD0520FEF72AFE0446012229460798FEF7CDFE3570E00701D00020F8BD1F20F8BD70B51C4615460E464E
:40628000FEF7D3FD29463046FEF7BEFD0320FEF710FE012229462046FEF7B4FE1F2070BDF8B5069D079E2C780094FFF783FF0120FEF7FFFD0746002221463046FEF7A2FEBB
:4062C0003019FEF7ADFE241D2C70F80701D00020F8BD1F20F8BD0000004870471414002008B56A4600210B20FBF7D2FA6846007808BD0000F3B585B00746534CFEF742FC9A
:4063000021460290FEF705FB38800698C0070AD0FEF784FC054601460298FEF761FCA04201D204463D804948807B00287ED0002508200699A84008427DD0002D01D0002638
:4063400001E0424E20362846FEF76DFC0190404800903046FCF73AFB002819D1FF200930FBF75CFA0390002812D0FF200130FBF755FA03994000491C484381B23448009157
:40638000814200D20090009A01990298FEF730FC009A01990298FEF72BFCA04202D20446019838802846FEF77FFC0190304640308178012901D0808A00E0C0880199000574
:4063C000020C0298FEF714FCA04202D2044601983880B079002813D02846FEF713FC01901C480521C08AC000FAF7E6FC82B201990298FEF7FDFBA04202D20446019838805B
:40640000308A002817D03079072814D12846FEF7B9FC00280FD02846FEF736FC06460146094A0298FEF7E4FBA04201E008E002E001D204463E806D1C2D062D0E00D177E740
:40644000204607B0F0BD0000FFFF000058130020FF7F00000413002010B50B4C094923460833A160002142189278002A00D05A54491CC9B20429F6D3FF21A0689A31484380
:40648000A06010BD040302015813002070B5059C049D2070060A6670060CA670000EE0704806D101400E0843207104221946601DFAF723FD2046042229460930FAF71DFD7B
:4064C00070BDF8B5079C0E46E178069D09020160A77839430902016067783943090201602778394301602079611D4006400E30702079C009107004221846FAF7FEFC214616
:40650000042209312846FAF7F8FCF8BD10B5FEF739FB084A916848408108C3084409414063405940C30F59404008C9070843906010BD0000581300200348C078002801D042
:4065400000207047012070479415002010B5012200F016F810BD000010B5054802780121002A017002D10120FAF744FE002010BD2802002010B5002200F002F810BD0000AB
:40658000F8B5204D0F4629781646012904D02978022901D01120F8BD0C2148431A494418E078A178884201D31220F8BDF9F794FF62780C2361685A4351188CCF8CC1E17825
:4065C000601C491CE1706178491CC9B20170A278914201D1002101706868401C68602878012803D0F9F780FF0020F8BD02202870F9F77AFF002E03D00020FAF7FBFDF3E713
:406600000120FAE7280200209415002010B51148002101704160C0220F48FAF777FC0E4890220021C030FAF771FC182200210B48FAF76CFC0948102181700C2181730649F6
:406640004160C03101610649816006494161FAF7B9FD10BD2802002044140020941500205F5F000015760000F8B50025114C01262F462078002811D001280FD0022802D04D
:40668000032813D111E000F017F8F9F725FF6068002800D12670F9F727FF07E02078002806D02078012803D000E02770002DE0D00020F8BD28020020FEB51F4D1F4E002723
:4066C000FF2400200C2141438919C978002901D0044602E0401C0228F4D3FF2C2AD0F9F7FBFE0C204443A41921780C2260685143081801460EC902930192009107604760AA
:406700008760E078401EE0702078401CC0B22070A178884200D127706868002802D06868401E6860F9F7E0FEA1680029C8D068468847C5E7FEBD00002802002094150020DC
:4067400010B5830A082B02D007F0B0FE10BD00F0CFF810BD10B50C460146207800F042FC0028204603D000F007FF002010BD00F0B8FB1F2010BD10B5820A082A02D007F069
:4067800043FF10BD00F056F910BD0000F8B5044640782578000205430020694608702846FFF7E9FF012827D16946A0780978884222D01C498D4208D0891D8D4205D0C91C35
:4067C0008D4202D0C91C8D4204D11221284600F071F80CE00022022805D32079E178000201430A05120D12212846FFF7A9FF204607F09EFD1220F8BD0B4EA80A08282A4636
:4068000031460AD0E01C07F049FF204607F090FD3146284600F00AF8F8BDE01C00F018F9F3E700000D200000AC150020F8B50D4604460020694608701A48844208D0801D43
:40684000844205D0C01C844202D0C01C844201D101200870A00A08280A462946204609D007F06EFF064668460078002805D0012815D110E000F006F9F4E70022002D05D064
:4068800068782978000201430A05120D31462046FFF756FF03E03146204600F00BF83046F8BD00000D2000000148407A7047000008140020F8B5054600200E46009069460F
:4068C000082000F007FB002801D00720F8BD009C0F202070A670FFF7E7FFE0702571280A6071042060702146FF20FFF733FFF8BDF7B5064682B000204B4A4C4B00900420F2
:40690000B11AF718964218D008DC002F0FD0012F0FD0052F0FD00D2F12D10CE0032908D005290CD006290AD0072909D101E0072006E00C2004E0052002E00B2000E0062047
:406940006946001D00F0C6FA002802D0072005B0F0BD009D31462846039A00F085F8334804241338301803D0052801D0062805D10499A9710499090AE971062403980028D3
:406980004BD12949891F701A8E4227D006DC002F0BD0012F11D0052F3FD11CE0062823D009282CD00D2838D12FE028191B2181700021C170A41C042012E02E19B01C0822A5
:4069C0000021FAF7A3FA1A481122817A1140B170C07AF07020E0FBF7D1FF01E0FBF7F0FF29198870641C18E02919891C0498FBF7D5FF002801D068710FE0641D0DE028195D
:406A0000801C082107F0E2F906E009492819801C08221C31FAF771FA08346C702946FF20FFF798FE93E7000015200000FEDFFFFF04130020C0B21F2806D8401E034AC0B230
:406A4000105C0870012070470020704790080100D2B21F2A05D8034B9200D218403AD26B104770479807010070B504460E2016460D462070FFF718FFA070E570280A207100
:406A8000667170BD70B50D46C1B2012014461F2911D88E000848214630184038C26B28469047002807D104482146F83830184038C26B2846904770BD1408010070B5154CDF
:406AC0000546212200212046FAF720FA212212492046FAF712FA114A1121907A0840C3060F48017802D53023194301E0CF2319400170907AC007207F02D00721084301E044
:406B0000C008C0002077212221462846FAF7F5F970BD000014140020AF080100041300203414002010B5FBF7D1FF10BD10B5FBF7EAFF10BD002070470120704710B5FCF74B
:406B400032F810BD0020704710B5FCF72EF810BD0249007848710020704700000814002010B5FCF73EF810BD38B504460020009069460E2000F0AEF9002801D0072038BDE2
:406B800000993E200870032088702078C870A07808716088000A487120798871A088000AC871A0790872E088000A4872207A88722089000AC8720A2048700320FFF7CAFD40
:406BC00038BD38B50546002000906946172000F081F9002801D0072038BD009C3E2020700120A0702878E070A878207168882946000A60716878A0712879E071204608303C
:406C000006220C31FAF779F9A879A073E8882146000AE073287A20742889000A6074A87AA0746889000AE07468792075132060700120FFF78FFD38BDF8B5044600200E465E
:406C4000009015466946082000F044F9002801D00020F8BD0099082008708E70CC70200A08714D7104204870FF20FFF773FDF8BD38B50C460021054600916946072000F06B
:406C800029F9002801D0002038BD0099302008708D70CC70200A087103204870FF20FFF759FD38BD38B50546002000906946112000F010F9002801D0002038BD009C3E2063
:406CC00020700520A0702878E07028880822000A2071601D6968FAF710F9A9680D200A7862734978A173607021460520FFF732FD38BD38B5054600200C4600906946092030
:406D000000F0E8F8002801D0002038BD00991320087001208870CD70280A08714C71200A8871052048700722042000F0EDFBEBE738B504460020009069460C2000F0CAF808
:406D4000002801D0002038BD00990C20087020788870A078C8706088000A08716078487120798871A088000AC871A0790872E088000A487208204870FF20FFF7EBFC38BD5F
:406D800038B50446002000906946062000F0A2F8002801D0072038BD0099572008708C70200AC87002204870FF20FFF7D3FC38BDF8B5064600200C460090154669460820B2
:406DC00000F088F8002801D00020F8BD0099052008708E70CC70200A08714D7104204870FF20FFF7B7FCF8BDFEB507460020009010480E46019015466946082000F06AF8BA
:406E0000002801D00720FEBD009C324620460199FFF72AFEA771380AE0710620002E03D1290A25726172082060702146FF20FFF791FCFEBD7B0C0000F8B5054600200E4626
:406E400000900C4F6946062000F044F8002801D00720F8BD009C324639462046FFF704FEA571280AE071062060702146FF20FFF771FCF8BD7C0C000010B5FDF7C5F810BD68
:406E800010B5FDF7DBF810BDF8B505460020074600900D4E6946142000F01CF8002801D00720F8BD009C3A4631462046FFF7DCFD1022A01DA918FAF720F814206070214681
:406EC000FF20FFF747FCF8BD1720000010B5FBF725FE10BD0A4610B5C1B2104607F0B8F910BD10B507F02EFA10BD0000F8B50546C078AF78164C00020743A07D2646800095
:406F0000203E8019103004222946F9F7F6FFA07DB38E800082191032291D042B16D03550A07D0023400080190784A57D204610302B54A07D401CC0B2A075042800D3A37503
:406F4000B08E401CB086104600F007FBF8BD0000F0150020FEB5144C0025E17D204610300D54E07D26468000203E305807F0FEF9E07D401CC0B2E075042800D3E575B08E4E
:406F8000401EB0860948C07900280CD00095019511206A4602951081558129460A460020029B07F07DFAFEBDF01500200814002010B5074900208875C8752039888605497B
:406FC0000872487288728882FAF78EFA10BD0000F01500204816002010B5FFF7E9FF002010BD00001B4B10289A792DD00CDC0C2823D004DC05281ED0082829D124E00E28C4
:4070000024D00F2824D121E0302818D004DC13281CD01A281CD114E03E2802D0572817D111E0500614D5491E012088405979C0B201420BD10CE0012006E0802004E020208C
:4070400002E0022000E00420024201D001207047002070470814002010B50B460178401C197001460622581CF9F747FF10BD034610B5084608221946F9F73FFF10BD704717
:4070800070477047427812020A8003781A430A8080788870704770B50D460446014610222846F9F72AFF214610221031A818F9F724FF70BD427812020A80007802430A80C6
:4070C000704710B50B4641780A021A800178801C0A431A8001461022981CF9F70EFF10BD427812020A80007802430A807047427812020A80007802430A8070477047427854
:4071000012020A80007802430A807047427812020A8003781A430A80807888707047007808707047427812020A80007802430A80704710B50B460178401C19700146062272
:40714000581CF9F7DAFE10BD10B502780B460A701F2A03D8411C581CF9F7CFFE10BD00780870704770B5054640780C46000208802978062208432080E87800026080A978BB
:40718000084360802879207168796071A879A071E91DE01DF9F7B1FE687B6073A87BA07370BD0022835C0B70521C491CD2B2082AF8D370477047034610B5084606221946B2
:4071C000F9F79BFE10BD7047704710B502780B460A701F2A03D8411C581CF9F78EFE10BD70B5054640780C46000208802978082208432080A91C201DF9F77FFEE87A1022C6
:4072000000026080A97A08436080294620460C310C30F9F772FE70BD02780A7042784A70807888707047427812020A8003781A430A80C27812024A80807802434A807047A4
