:400000000040002025070000610100006101000000000000000000000000000000000000000000000000000000000000000000000000000000000000000000000000000070
:400040000000000000000000000000000000000000000000000000000000000000000000000000000000000000000000000000000000000000000000000000000000000080
:400080000000000000000000000000000000000000000000000000000000000000000000000000000000000000000000000000000000000000000000000000000000000040
:4000C0000000000000000000000000000000000000000000000000000000000000000000000000000000000000000000000000000000000000000000000000000000000000
:4001000010B5064C2378002B07D1054B002B02D0044800E000BF0123237010BD98030020000000004002010008B5084B002B03D00748084900E000BF07480368002B03D04B
:40014000064B002B00D0984708BDC04600000000400201009C030020C800002000000000FEE7C0467047C04608B510F055F808BD10B526280ED0282802D0012800D010BD4F
:40018000324C2378042B4BD0314BBF2219680A401A60F4E72D4B1C78042CF0D12C4B4022196840209143C9B201431960294B19689143CAB21A60284B7F211A688A43D2B2F7
:4001C0001A60264B264A1C60264B1C60264B9A6400F0A3FD254BC022196812040A431A6000F09FFD224B1C6000F097FD214B8022196812060A431A601F4BFF211A881F4B8F
:4002000092B21A601E4B1A6814431C601D4B1A688A43F1210A431A6030BF00F082FDAEE762781340B0D11848E122120102824268A02111805180A37009F0C4FE0028A3D1E0
:40024000627804231343DBB263709DE7B803002000030440000204401002044080E200E06501000080E100E00000002000E400E000E100E000000B4050F1FF0F0C000B4006
:4002800010ED00E02C000B40CC00002070B56E4C051C60780123034382B00E1C63704C2D17D86A4AAB00D3589F4672681378990700D4C2E082204000311CE2689047627811
:4002C00001239A43627062781A4202D130680AF0E5FF63781120184207D06378012293436370281CE368311C984702B070BD002363712371EDE7694608230B7068460023A9
:400300004B7002F02EF901236A466846537002F028F94F4B9A79002A4AD11A78002A0ED15A78002A0BD19A78002A08D1DA78002A05D11A79002A02D15B79002B38D04448A2
:4003400000F0F4FD41E08B89092B4DD06378D907BCD5BEE72378022BBBD06278D107B8D5617804220A425AD003232370637893436370AEE702232370ABE704232370A8E7B9
:400380000222201D00F0B5FD2279324B5200D35A23819EE70B78E3709BE76378990698D42D4B1A7D102A00D093E70522DA7590E72A4B29481B7818300370294B1B784370CE
:4003C000284B1B78837000F0B1FD032009F0F2FC042323707DE74988162903D830880AF015FF76E71721F9E7081D321C002140230BF092FB002800D157E7627801239A4387
:40040000627062781A4200D063E7694612238B70B389C87030680B800AF0ECFE59E760780821014204D0637822708B43637050E7032B00D04DE722704BE70620FF30311C0B
:40044000E36898473BE7C046B80300208002010000F2FF0F00040100CC0000207CF1FF0F7DF1FF0F7BF1FF0F10B5094B802464011C60084A084B1A6700F04FFC074BC02138
:400480001A688A431A6000F04CFC054B1C6010BD80E100E069010000000000200CE400E000E100E008B58022074B52011A60074A074B1A6700F031FC064BC0211A688A4306
:4004C0001A6000F02EFC08BD80E100E069010000000000200CE400E0024B802252011A607047C04680E100E0024B802252011A607047C04600E100E008B5000100F004FC66
:4005000008BDC0460160704701607047F0B55F4656464D464446F0B4694B91468A188246C9B00F1C01209A4239D8CA094846D301002800D1C1E006A98B46CD1A9046002442
:400540001E1C00208036844649469F4219D8A14217D95046025DE85C904202D0EA540122944601340133B342EFD16046894600281CD1A14200D8A0E001208044803D331C81
:40058000DEE71A78EA54EDE7042300930098A14501D90028F0D0012801D90120404249B03CBC90469946A246AB46F0BD002300930193444B9845E7D8434B98456ED8434B52
:4005C000269359467F23802228A8279300F091FC3F4B404A404926A8186011601A68120F0A2A5DD01B680F2213400093009B002BCCD100F092FB394B39490493344B04AABC
:4006000005911A603749334A11601A68120F0A2A51D01B680F2213400193019B002B0DD12B4B314A31491A602A4A11601A68120F0A2A3AD01B680F2213400093009B002BF9
:4006400014D12B4B41462693269B0A04134326931F4B26AA1A6027491E4A11601A68120F0A2A1FD01B680F2213400093019B002B11D1214B02AA0293194B20490393144B8C
:400680001A60144A11601A68120F0A2A10D01B680F221340019300F044FB77E7184B8FE70023A2E700230093E0E700230093C5E700230193EFE70023AEE700206FE7C046ED
:4006C000FFFF0100FF030000FF010000B6D70000080010400400104004000080B6E90000CC03002016000080B6E8000015000080B6D8000005000080B6EA0000170000809B
:40070000B6D7000108B500F008FB044B04211A688A431A6030BF00F004FB08BD10ED00E0FEE7C046F8B5104F002F18D00F4E0025B06834687268002805D0231C02CB02C2D3
:40074000191B8842FAD1F1680023002903D0D55004339942FBD1013F1036002FE8D100F093FB00F061F9C04601000000A4050100F0B57E4B01211A6847468A4380B47C4CE6
:400780001A607C48002200237B4D04E00133A1500432302B08D0011C032BF7D851590133A1500432302BF6D172B6744B00221A6080220021D200724800F0A4FB8022002117
:4007C000D200704800F09EFB6F4BEE2212061A606E4BD82212041A606D4BC0221A606D4BB022D2031A606C4B8022D2011A606B4B40221A606A4BC02252031A60694A99234D
:400800001B041360684A0C201360684A1360684B022219780A431A70664A11788143042001431170197816220A431A70624B12221A60624B1978624BC9B21A78614BD2B268
:40084000587A0F2810D99879997ADA7A0F280BD9D878D9791A7A0F2806D9187819795A790F2801D959789A78574B05201960574B574C1A60574B11221A6000F045FA564BA0
:4008800050201A78554BD2B21A6000F03DFA23680126534DB34323602B6830271022BB4313432B602B6807218B4333432B60226880231B06134323604A48884600F024FA8C
:4008C0002368226802239A4322602A6841468A4313432B602B682022BB4313432B602368414A33432360414B08211A60404B8022D2051A603F4A404BFA241A601F4BE4002E
:400900001A6801258A431A603C4B1A6816431E603B4A3C4B3C4E1A603C4B8022196812020A431A60102000F0EFF933681D4202D1013C002CF6D1364800F0E6F9354B8022DF
:4009400012061A601C4A00233349136003220A6032490A60324A1360324A1360034B012219680A431A6004BC9046F0BD000010400000002061010000000000006CF02E4083
:4009800000300F4000400F40000002400800044000020440080204400C020440000304400803044000500F4020500F4030500F4000700F4001700F4030001040CCF1FF0F28
:4009C000CDF1FF0FC0F1FF0F1CFF0B4020FF0B4000F02E402CFF0B40DDF1FF0F28FF0B4000FF2E4000127A000600008004010B400C020B406A2D00007C002E4060F02E4013
:400A00000220000078002E400C002E4010002E40C05D000008010B403000304030003140000E3F40C0000020F0B55F4656464D464446F0B483B062B69F4C2422A35C002B4A
:400A400004D16370A370E3700123A3549B4B211C28319B481722E36000F07AFA002806D1012398480D21132223700BF03DF800F054F9954B03241A68A24322431A6000F06B
:400A800050F9924B1A68C0231B021A4200D18AE08F4D904A07238D4C904602269A4600F041FA032000F036FA00F037F9071C01F029FD021CB243D2B29146042A4AD00228B8
:400AC00028D000F02AF92368524693433343236000F027F9804B191C99461B685B005B080B6000F01AF97D4B04211A688A431A6030BF00F016F94B461A6880231B0613438A
:400B000049460B6000F009F9236852469343236000F007F9381C00F004F94822AB5A01339BB2AB52002BBAD001F0ECFC0228B6D1434698684A23E95C4A1CD2B2EA54017715
:400B4000C82A2DD000224823EA524246D16801F09AFCA4E700F0E1F8614B49461A688346520052081A605F4B1A885F4B92B21A605A4B1A680A431A602368019300F0CDF8FF
:400B800022685A4B1340802252031343236000F0C8F830BF019B5846236000F0C2F8B9E70022EA54CEE7524B1A68002A00DB6FE7504E3768BF0FBF0704D01A6852005208DB
:400BC0001A6065E700F0A9F84B4A012311688D071CD53F4DEF63494B1A6800231204120C4649474C012B2FD0002B1AD0022B1DD123689A42FCD03E4B1A68520052081A60BB
:400C0000296C002925D100F08CF842E71168490A0B420ED02E4DEB63384B1A680123120CDEE70B689BB29342FBD0E4E7002AFDD0E1E71168264D490C19401ED00223EB63B2
:400C40002F4B1A680223CBE70B681B0C9A42FBD0D1E7294B01211A688A431A601B686C6C5B08194206D1234B03221968914322400A431A6000232B64C5E72B64E963316876
:400C80002140696412685208134202D13368A3433360194B012219680A431A60022219680A42FCD0EB6B012BB6D0002B93D0022BC6D0002294E7C046B80300207101000021
:400CC0008D0200000C04010064F02E4000010B4038100020CC00002008010B4010ED00E000000B4052F1FF0F0C000B40FFFFC7FF04010B400C020B4010020B4000020B40B7
:400D000004020B40000000000230800803D00138FDD1C046C046C0467047EFF3108072B6704780F310887047002934D00123002210B488422CD301242407A14204D2814226
:400D400002D209011B01F8E7E400A14204D2814202D249005B00F8E7884201D3401A1A434C08A04202D3001B5C0822438C08A04202D3001B9C082243CC08A04202D3001B8A
:400D8000DC082243002803D01B0901D00909E3E7101C10BC7047002801D00020C04307B4024802A14018029003BDC046D90000000029F0D003B5FFF7B9FF0EBC4243891AE1
:400DC0001847C046002941D010B4041C4C40A44601230022002900D54942002800D5404288422CD301242407A14204D2814202D209011B01F8E7E400A14204D2814202D20A
:400E000049005B00F8E7884201D3401A1A434C08A04202D3001B5C0822438C08A04202D3001B9C082243CC08A04202D3001BDC082243002803D01B0901D00909E3E7101C95
:400E40006446002C00D5404210BC7047002806D003DB0020C043400801E08020000607B4024802A14018029003BDC046190000000029EBD003B5FFF7A7FF0EBC4243891A59
:400E80001847C0467047C04670B50E4B0E4D0024ED1AAD101E1CAC4204D0A300F35898470134F8E70FF06CFB084B094D0024ED1AAD101E1CAC4204D0A300F358984701347D
:400EC000F8E770BD8C0501008C0501008C0501009405010030B50023934208D0C55C0133CC18013C2478A542F6D0281B00E0002030BD10B50023934203D0CC5CC4540133EE
:400F0000F9E710BD031C8218934202D019700133FAE7704710B501F063FA10BD10B501F075FA10BD10B500F0DBF810BD10B50749044609780220002907D1204601F08CFA48
:400F4000002802D1204609F01FF810BD7A020020F7B51F4E0024307815460F46002804D00824B76075802046FEBD002F00D1012401F04CFA0098002805D0172D03D3012081
:400F80004002854201D90124EBE7002CE9D12946384600F023F80400E3D1706800F01CF80400DED1706800F015F80400D9D101F035FA0400D5D1009806F09EFB0400D0D119
:400FC00006F0B0FB0400CCD101203070C9E70000680100200020704700207047F8B50D4607460026FFF740FAFFF776FA00F03EFA040065D100F0C8FB040061D134490846E8
:4010000000F0D0FD0404240C5AD1A80705D0A807800F0421081A401985B2172D02D968002E3886B22B48301881B2384601F0BCF8040045D1284F03460246002825D1274911
:401040005E008E5B294610318E4207D99000C01941800221521C4170D2B215E08E420BD10020787690001D49C0194680891FC95C891C4170012012E0052A06D116480646AF
:401080001436418302207071012014495E008E5B9100C9194E80114EB61FF65C4E705B1C521CDBB2D2B2062BC7D30B4800F06CF8002C05D100F084F807490120891E08706F
:4010C00000F0E6F9002C01D0FF20F8BD0020F8BDF5100000940C0000760100200606010010B503480078012801D100F0EDFE10BD740100207047000010B5011F0878034A09
:401100008000105800F0F0FF10BD00008810002010B5044604498000085800F053FF002801D00470001D10BD8810002038B5044692B2C9B2684600F06BFF024AA100009853
:40114000505038BD8810002070B50B49064600204C6805466178002908D06188B14202D32078FFF7D5FF002804D1241D6D1CEDB2082DEFD370BD00009801002010B5002821
:4011800001D0FFF7B9FF10BD70B50B4E0446002570606178002905D062882078121D0023FFF7C4FF6D1C241DEDB2082DF1D3024800F0ECFFB06070BD98010020002070476E
:4011C0001CB5002469460C70142001902346054A05480CF013FC04480068401C00D1FF2420461CBD3D120000A40100203EB5124A0146FF2000230124126800290DD00129FC
:4012000014D0042908D104206946009308814B8110460CF0EEFB80B23EBD6846009304814381694610460CF0DFFBF4E768460093048143816946EBE7A401002070B545899E
:40124000046841680089030000F026F806240408081D2124002005F027FA1BE0022908D0C8B22A4621460AF0B5FE2046FFF786FF10E002202A4621460AF0ACFE29462046AA
:4012800000F018F806E000200CF0ACF802E020460CF03AFC002070BD30B47446641E2578641CAB4200D21D46635D5B00E31830BC18470000014B0022DB681847A801002028
:4012C00010B542890168094B00899C68022803D0032804D0FF2010BD0023012003E0121D002392B20220A047002010BDA801002070470000024800214160018041807047F4
:40130000A801002070B50C46002186B016460391012802D0022859D116E003A9012006F026F901281BD1039D324621462846FFF7E0FD0095287801900220694608814E813B
:401340006846FFF7BDFF41E0214D002B686809D0049004A9022006F00AF901281DD0022006B070BD002812D0298840182146FFF7C0FD28880024801980B228806988091DA8
:40138000884206D12C801348FFF79AFF03E00320E6E788421AD96C6018E004986860E278A378110219430B4A698000231060E3565360032313815181A1788170E178C1707D
:4013C0006178417021780170042028800020C7E7A8010020A8100020F7B5022784B016460546022802D0042D29D106E005980090019568460781428113E01046FFF7A4FEC4
:40140000040016D032460599FFF773FD68460195009407810B4B4681DB6800223146059898470948694600680CF0E3FA012007B0F0BD044B0022DB683146059898470020E4
:40144000F5E70000A8010020A4010020014AD16090607047A8010020034801688068081A0A21484300097047B410002010B5FFF719F8542204490548FFF73BFD0349012087
:40148000C870002010BD0000160601000413002010B5FFF729F810BD70B5134C2368002B08D0207B1149C20705D04008400020738868A08070BD88680B4AA18880B2926873
:4014C000814203D90A4D691A091802E0814202D2411A5118A160A080A0689842EAD300F015F80CF0A3FA70BDB4100020C0102E40FFFF000010B508461946FFF7A7FF10BD97
:40150000704710B5FFF768FF10BD000003480021016041608160C16070470000B410002010B502000DD0FFF7F1FF074C0321207B0843207310010A21FFF73AFC2060002078
:4015400010BDFF2010BD0000B410002000B504480A21806848430209FFF7D8FF104600BDB41000200248007B8007C00F70470000B410002070B558490868002802DA574BCE
:4015800001221A70022290430860554800695249C00B4031096A08426CD0012000F0BEFA4F4850497C30FEF7ADFF4B480E216C30FEF7A8FF4A4820218430FEF7A3FF48485B
:4015C00014219C30FEF79EFF4548FF21C131A430FEF798FF4248FF212F31B030FEF792FF3F484149BC30FEF78DFF3D483F49AC30FEF788FF3D493A48491CB430FEF782FF3F
:4016000037483B49B830FEF77DFF35483949CC30FEF778FF324838490830FEF773FF30483649A830FEF76EFF2D4835498830FEF769FF2B4833498C30FEF764FF2848192167
:40164000C9029030FEF75EFF2F4D287E697E0C020443A87FE97F2D4A090201432C48914201D1072C08D035229201914208D1042C05D005E0FF2070BD0146042400E0014654
:4016800017486C30FEF73EFF154821467430FEF739FFA87EE97E0902014301204003814201D0002900D11B490D487830FEF72AFF2A7F687F010218481143814204D01748DE
:4016C000814201D0052901D113490A3904488030FEF718FF002070BD00F02E40B801002000002E4055650000320300002F3F00003102000010520000EC160000FA120000BD
:4017000031D000003AE30000C0F0FF0F580B0000580D0000022000000F0F00000505000070B50646581C80B245086D00002408E0304600F07FF81055000A1119A41C4870F0
:40174000A4B2AC42F4D3D80705D0D0182038D15CC47FD454C17770BD30B50A4C002100195B1E07E0541864782502545C2C430480891C89B29942F5DB994201D1515C018020
:4017800030BD000000102E4010B5FF2000F0C6F90F49FF2088700E481021801D41800121417001700A490020091D4870FFF7E2FE04000AD100F0DAF807210648FEF7A4FEBE
:4017C000044807211830FEF79FFE204610BD0000B8010020CC112E4030B504465B1C1804450C002308E0204600F024F8241D59005B1CA4B250529BB2AB42F4D330BD0000BD
:4018000070B500210A4D5B1E0AE0541864782602545C344346193480001D891C80B289B29942F2DB994202D1515C4019018070BD00102E40014940180088704700102E40E8
:40184000014A80180180704700102E4010B508490020487000F08AF807210648FEF754FE044807211830FEF74FFE002010BD0000BC010020CC112E4010B5064800780128EB
:4018800003D102210448FEF73DFE02490020091F087010BDBC01002070F02E4010B50B46062812D006DC01280CD0032801D1FFF7CDFF10BD0A28FCD00B28FAD105480078D8
:4018C000107010BDFFF760FF10BD1146184600F057F910BDBE010020F8B5214DAC6A0127A007204E002818DA3078062810D1286A384328621C480069F903084381B21A4859
:401900001030FEF7FFFD301F4770042000F006F9134802212830FEF7F7FDE00711D0062000F0FCF80F49FF20091F88707078002802D1686B38436863094801212830FEF779
:40194000E3FDE0050BD53078042802D1052000F0E5F80348FF2101312830FEF7D5FDF8BD40F02E40BC01002000002E4010B503212348FEF7C7FD0120FEF7BEFD2048303821
:40198000406A204C80076178800F890001431C480C38FEF7B7FD6078002808D0401E022181401820FFF764FAC000083800E0B82081B21548FEF7A6FD1348032109021438A8
:4019C000FEF7A0FD10481149B830FEF79BFD452189010F48FEF796FD0D480321001FFEF791FD0C490C48FEF78DFD0B480B496038FEF788FD084801218838FEF783FD10BDEF
:401A000070F02E40BE010020D8102E4090890000041E2E40FF0F000058122E4020900000044800684007400F022801D0002070470120704700010B4000B5FFF7F1FF002861
:401A400005D009480168C908C900016000BD0748016A490849000162054801690122D2039143016100BD000000010B4040F02E4000002E400849087806280BD14878074983
:401A8000002803D1486B400840004863C86A01221043C86270470000BC01002040F02E400148007870470000BC01002002488078022800D001207047B801002000B5030046
:401AC000FFF7EAFB080D050D0B070507090D012000BD032000BD042000BD022000BDFF2000BD0000074A9168D26889B2064B92B2994204D105498A4201D1012100E0002143
:401B00000170704780002E4033D000003FE300000149487070470000BC01002010B50446FEF7DAFC072C01D9FF2C01D102480470FEF7DAFC10BD0000BC010020014988707B
:401B400070470000B801002010B50A4A141D012808D009491046FEF7D5FC08492046FEF7D1FC10BD04491046891CFEF7CBFC0349491DF3E788002E4031D000003AE3000032
:401B80000078074AFF2803D04C2804D9553803E01078087070474F380870107070470000BB01002010B50F4A002313600E4A13600E4B18600E4801600E49012008600E499A
:401BC0000860000290600E490C4808600D4914300860FF381538506000F0BCF800F0CAF9002010BDDC010020C4010020F0010020F4010020E0010020D0010020C41100200F
:401C0000D4010020E8010020014610B50020002910D0094B1A689C685118A14209D25868196080188A0704D08A07920F891A091D196010BD002010BDC4010020F8B5002456
:401C4000164E671E321F3D463168136806E01422624310328A58521C1BD0641C9C42F6D36A1C14D02C461422544322460C3288500C214843FFF7C8FF3168002808510AD09E
:401C800031680020103408517068401C70602846F8BD2546E4E73846F8BD0000D4010020F3B50026F64381B000281BDB1E490968884217D80299002914D01B4F14220446D0
:401CC0003F1D54432546396810354859401C09D0FEF702FC38682F1F4159C359994203DBFEF702FC3046FEBD214608310091465801590C20704308180C220299FFF7F9F87E
:401D00000948761C001D0068C159B14200D100260549009A091D865008684159491C4151FEF7E2FB0020FEBDD0010020002803DB07490968884202D90020C0437047044921
:401D40001422091D096850431030085870470000D0010020F0B500200D4A451E0346171F50600FE014260146714314680E1DA3510C46166808343351166808343551146802
:401D8000401C635039688842ECD30020F0BD0000D4010020F3B50026F64381B0002841DB2349096888423DD8029900293AD0204F142204463F1D544325463968103548594E
:401DC000401C2FD0FEF788FB3868415900292BD0211D009146580C21005971430F46C1190C220298FFF785F811480021001D0068761C00590C34C0190160416081600C4867
:401E0000001D00680159B14200D100260849009A091D865008684159491E4151FEF764FB0020FEBD3046FEBDFEF75EFBFAE70000D0010020FEB504460D4600201E49089EF2
:401E40000860471E009001900290002C11D0486885420ED2002A0CD0002E0AD0642E08D808460C3001681C2068430C18207A002801D03846FEBD0120226020721846FFF7AB
:401E8000DDFE6060401C13D06681A6810A4827610C3067610179A94200D205710021684601810A462846029B00F040F82846FEBD00202072DDE70000DC01002038B501242D
:401EC000009400F039F838BDFEB50027164EFF433D4600240EE01C20316860430818017A002906D04068FFF721FF002801D0254603E0641C3079A042EDDA681C12D01C2197
:401F000030684D434419FEF7E7FA69466068FFF741FF0546FEF7E8FA002DD9D1216868468847D5E7FEBD0000E801002038B50024009400F001F838BD1FB500220C49541EDA
:401F40000A60002811DB496888420ED808491C220C31096850430818406801A9FFF7A0FE401C02D0002004B010BD2046FBE70000DC010020F0B50021114A4D1E174611712D
:401F80000C3F0B46BD6016E008461C2460431668041D355114680646235014680836A3551468361DA353044616680A34335318301468491C255078688142E5D30020F0BD18
:401FC000E801002038B500210091002811DB0F49097888420DDA0D4D04010C3529680859002807D0201D0818694600F05FF9002801D0002038BDFEF76FFA28680F34015D19
:40200000491E0155FEF770FA009838BDF8010020F7B582B00025ED43029800240E460560002A49D0002E47D02D48D21C02402D48174601780C30006805E022018258002A0C
:402040000FD0641CE4B28C42F7D3691C3ED02C01211D40180191314600F016F900282BD101E02546F1E71F480C30016820460C300F521C480C30016820460E300E541948AE
:402080000C30016820460F300E543846704300F0ADF814490C310968002808510CD00024009011E00F480C30016801980818009900F017F9002802D0012005B0F0BD00983E
:4020C000C019641CE4B20090B442EBD30298054905600C310879401C08710020EDE70000FCFF0000F8010020F8B50D4600216A468C461180002839DB23490978884235DA8F
:40210000214B04010C3319680A59002A2ED020460C300B5A801C0E5C184670438018954224D3854222D2002006E007465F43BF18AF4206D0401CC0B2B042F6D360460028BA
:4021400014D0114E271DC8190C366A46294600F0F2F800280AD168460088012808D030682946C01900F0BDF8002803D00120F8BD0020F8BDFEF7B0F930680F34015D491C1B
:402180000155FEF7B1F9F3E7F801002003460020002B06D0034A5168906852884018511A19807047F801002070B5002400F0DCF80D4E002132460C3271600EE0200113682F
:4021C0000546195013680C355953AD1C13680F3059551368641C1954E4B230788442EDD31171002070BD0000F8010020014610B5002000290CD0C91C064B8A085968920032
:402200005C888A18A24202D898685A60401810BD002010BDF8010020F8B5002827DB19490978884223DA174C05010C342168485900281CD028460C30085A009028460E30C5
:402240000E5C401C0E5420682F1DC01900F064F800280CD12068002445590EE0094829460C300068C01900F03CF8002801D00120F8BD00982D18641CE4B2B442EED3002006
:40228000F8BD0000F801002030B50D4604000BD0A800FFF7ABFF6060002805D000202570C0436080002030BD012030BD70B50D46040005D0002D03D00220205E002801DA8D
:4022C000012070BDFEF708F90221615E60688900405828606088401E6080FEF705F9002070BD70B50D46040007D0002D05D002212078615E401E814201DB012070BDFEF7D2
:40230000EBF86088401C00B26080616880000D50FEF7EAF8002070BD10B5040009D0227800216068FEF7EEFD0020C0436080002010BD012010BDF0B500231D46002802D012
:402340000224045F0AE00120F0BD46689F00F6598E4201D1012503E05B1CDBB29C42F4DA15700020F0BD0000054B11221A70054A1180064A0449116005490860704700006B
:40238000F8010020FA010020F4110020040200200002002001480078704700000C0200207CB505460024FEF7B9FDA8796946087000A8062229460130FEF79BFD0021684677
:4023C00004F0D0FB0C2804D0072804D01F2804D004E0022402E0042400E0272420467CBD10B502280BD0032802D0042809D102E000F012F905E000F0E1F9FF2801D100F0D8
:40240000F1F9FFF74DFBFFF759FB10BD10B500F019FAFFF745FBFFF751FB10BD10B503240BF0ECFF002810D10BF090FF00280CD105F0ECF8002808D100F0D6FB002804D14E
:4024400004F0EAFD002800D10024024900200870204610BD0C02002070B50025044600280ED0A07901280BD8FEF758FDA0790028204602D003F006F803E002F0BBFF00E03E
:402480000125284670BD70B5002592B00E46044600280CD0E27F1F2A01D9012507E0014600A80130FEF725FDE07F69460870002E0CD0F27F1F2A01D9012520E008A83146F4
:4024C0000130FEF716FDF07F08A90870002D16D10020002C06D0FEF721FD10A9684600F023FD0120002E06D0FEF718FD10A908A800F09EFD01E0002801D000F09BFC284659
:4025000012B070BD10B5FFF7CBFA012801D1FFF7CDFA10BD38B504460120002C20D0617801291DD800290BD0FF25E535FEF7F6FC2846FFF77FF9C0B22070072803D00EE044
:40254000FF25CD35F2E70020694608706846FFF7C9FA69460878012801D108202070002038BD70B504460120002C1FD06178012902D92278092A19D8002906D0FF25E53533
:4025800020780726092803D003E0FF25CD35F7E72670FEF7C3FC2078082808D00020FFF7D3FA21782846FFF74BF9002070BD0120FFF7CAFA2670F4E770B50D46040001D077
:4025C000002000E00548002802D0012102F004F92946204602F066FC70BD00007813002038B5054600200446009022466946284600F092FF0098002801D00BF0E1FEA878BF
:40260000214602F00EFAA878214602F0FDF9641CE4B2052CE9D338BDF8B5624CFFF740FA012846D160480078002842D002F0BEFB0028FAD003F0A0FF0028F6D05B4E7078FF
:40264000C00703D000F03DFC0128EED0B07E0028E7D170780025002878D0000707D5AC20FFF7E8F8070B00F057F9384321D14F484178684603F05EFE4D4F06462079B978E2
:402680004018C1B2B14271D802F090FB002810D0464C203402F0B7F96846008802F0E3F902F08CFA43490988884203D10120FFF735FA74E04049012008703C48807B00286C
:4026C0002BD04034608A002827D0E07E002824D1A1200001FFF7AEF8208A4000B04218D97878002815D1A12424012046FFF7A2F80221884301462046FFF7A2F8FF24F1346B
:402700002046FFF797F80321090201432046FFF797F83878002800D03D7002F0E7F90120FFF7F6F9244C08E0FDF7ECFFFFF7B8F906282CD02078002829D0FFF7B1F9062894
:4027400025D020780128EFD021E0FFE702F02EFB002824D0142002F086F9174C0120207002F0C4F90020FFF7D3F909E015E0FDF7C9FFFFF795F9062809D02078002806D0C1
:40278000FFF78EF9062802D020780128EFD0207801288BD1FFF750F925700020F8BDFF20F8BD000044130020B80100205813002012020020240200200D02002010B50848E9
:4027C000FF244078002809D102F0F0FA012805D1FFF752F80720FFF7A1F90024204610BD5813002038B5FFF75BF9012801D0002038BD02F0DBFA00280AD0114C6078C0073D
:4028000003D000F05EFB012802D0A07E002801D0FF2038BD617800290FD0684603F08AFD022806D96846008802F01DF9012002F063F90320FFF772F9D9E70020F7E7000055
:402840005813002038B5FFF72BF9224C2178012911D0062813D0032836D007280AD100206946087002460120FFF718F8FFF718F90128FBD138BD20780128FCD038BD02F04D
:4028800059F9FFF70DF90128FBD120780128FCD0A12424012046FEF7CDFF01210E4A83079B0F1170022BE9D15288002AE6D001432046FEF7C5FF2046FEF7BCFF410849005C
:4028C0002046FEF7BDFF38BD02F038F90120FFF725F938BDB901002012020020F8B50646002402F0E1FE0546304602F0F5FE00210346012632468A40174610462F40184090
:40290000002F03D0002801D1224394B2491CC9B20529EFD32046F8BD70B500252C460A4E03E0002C01D0002000E030460079002803D02046FFF7D2FF0543641C2406240ED6
:40294000EFD0284670BD0000781300201CB50020694648706846FFF7DDFD01AA69460A20FEF79CFF6946042008561CBD10B50C4601F076F9002809D00179002906D0C17834
:402980008078224602F03CFB002010BD022010BD0148007870470000441300204030C07E002800D00120704700B500F001F800BD88214843064940186030417F491CC9B2DF
:4029C0004177052901D300214177C8B2704700005813002013B501F043F904000BD001F0CEFC002807D0214601AA0A310620FEF755FF00201CBD02201CBD000010B50C4633
:402A000001F02EF900280AD001F0B9FC002806D0224604490A20FEF741FF002010BD022010BD00002D130020F3B581B0074601460026029802F030FE0446002F01D00025CC
:402A400000E0154D002D21D0284601F03FF9032C04D13946029802F049FE06463846029901F0D2FF032C06D0002C10D00121384601F04CFA03E03146384602F0EBFF2846D8
:402A800001F090FE0221284601F0A6FEFEBD3846029901F0B9FFFEBD7813002070B50446002503F0DDFB002801D00C2070BD2078611C02F09FFBFF2802D01F25284670BD64
:402AC00002F0ECFBFF2804D02178621C01F00EFFF4E70725F2E710B503F0C2FB002801D00C2010BD02F05EFB002010BD70B50D46044610210BF0A4FB1021601806460BF0F1
:402B00009FFB334610221946204603F0D5FB102130460BF095FB02202870204604F0D4F970BD70B504464078217802028006850FE0781143A67809050002090D0643084623
:402B400001F08EF8002812D0022D10D0032D0ED0002E08D00179092909D0002907D0214600F0A1F870BD0089002104F0E2F820460BF026FC70BD0020704770B5044600257C
:402B800003F06EFB002801D00C2070BD2078611C02F030FBFF2802D002F072FA00E01F25284670BD10B504F037FA00F0F6F8002010BD10B5044600786178E2780843A1784C
:402BC00011430843217908436179084305D003F039FB002803D00C2010BD122010BD204602F050FC002010BD10B5044803F054FC02F050FA00F004F8002010BD14130020FC
:402C0000F8B5114D00266E706E736E716E76AE76EE766E75AE70EE70AE712F46EE730120B03778723F2078719B20B87100F00AFA0024204601F06AFB641C2406240EF8D06F
:402C40003E72FE71AE73F8BD5813002070B505460E46084602F028FD0446304602F03CFD0121A9400A46224001400A4301D0012070BD002070BD10B50446084602F02CFD91
:402C80000121A140014201D0012010BD002010BD10B5FEF705FF032804D101F04FFF0120FEF73CFF10BD70B5044600790D4609281CD000281AD020464030817E491C81766C
:402CC000204601F06FFDA078FFF76EFE064602462946204600F00CF8002806D1A0783146FFF76AFC28460BF06BFB70BD0846FAE7F7B5054648780C468006870FC8788978BF
:402D0000000282B0014368468180284601F042FB060007D021462846049A00F091FB304605B0F0BD384600F039FC0746034601AA2946204600F0CAFA68468088231DC0B257
:402D40000090A878FF22049902F066F8684680883B46C2B2A878049902F010FCDFE770B5002500242846FFF7B9FD060010D03046E040C007C00F07D02146284601F037FEFD
:402D800021462846FFF750FE641CE4B2052CEED36D1C2D062D0EE4D070BD10B502F07AF9FFF72EFF0BF074FB002010BDF8B5002400F081F80123012800D10124104F00207A
:402DC0003E4620360425082203E0002801D0002100E031460979002907D001290BD002290BD0114681402143CCB2401C0006000EEBD07C70F8BD1C43F7E72C43F5E7000077
:402E00005813002010B5FFF7D1FF10BD10B50B4681791943817103D08078114602F072FB10BD10B582798A43827102D1807802F081FB10BD70B5FF25D53502242846FEF7A1
:402E4000F9FC0C4A9178002901D0022906D1137852789A18282A01D9032402E0032900D101244105490DE00201432846FEF7E8FC70BD00000E02002010B500F022F8002847
:402E800007D0012805D0032801D0042801D0002010BD012010BD014610B50020C90701D000F009F810BD014610B50020C90701D000F001F810BD10B52020FEF7BBFC000AA0
:402EC00010BD10B51820FEF7B5FC410501D5042010BD4007800F10BD38B5044640060CD5684601F03BFE0220FFF78CFF072002F0EDF96846007801F071F9200613D5FFF755
:402F0000E0FF01280FD1684601F028FE6846007800F09AFA072002F0D9F9012001F0AAFC0220FFF76FFF38BD10B5034A0178117002F0DBF9002010BD0E02002010B504461E
:402F4000FFF7B9FF002801D00C2010BDA27B01211848002A827801D00A4301E05208520082706279012A0FD0C17849084900C170207901280CD06188208802F0D9FF2080CF
:402F8000207904280BD00DE0C2780A43C270EFE7E01D02F05FFA0848808C208002E0E01D02F058FA054920798870204602F0ACF9002010BD58130020041300200E020020D3
:402FC00038B50478FFF777FF844201D10C2038BD002C18D0072069460870FFF74DFF012807D10121684600F08DF8012801D0092038BD6846007802F069F9FFF71BFF02F0C5
:40300000B3F9012010E0FFF737FF012806D1684601F0A4FD6846007800F04AFA072002F055F902F095F90220FFF7ECFE002038BD10B5034A0178517002F03CFA002010BDAE
:403040000E02002038B568460BF050F9002801D01F2038BD01210098C90201804180002505714571857107214173857302F04CF9009C202200212046FDF744FF25702A465A
:403080000021601CFDF73EFF204602F02EF9204602F010FA00980BF093F9042200210248FDF730FF002038BD0E0200200346084800B5834209D8184600F0D2FD002804D03C
:4030C0000089984201D1012000BD002000BD0000FF0E0000074A9179491C8906890E917138220A4092014907090E1143084302490840704758130020FF0E0000C006C00E38
:4031000070470000F8B507460E4600240D4803E0002C01D0002500E005462979002905D0641C2406240EF3D00020F8BD204601F0EDF82E712046FFF7CDFF28813C70012054
:40314000F8BD00007813002010B503F0E9F80222002100F003F801F045FF10BD10B5094B40074907000F090F185A595A40185043C0086421FDF71CFE002800D1012080B296
:4031800010BD00006A060100F7B53D20405C88B016460C46002829D030786946087200252046FFF7FBFB012800D00125204603A938300191009023460327A17E34332A4699
:4031C000206A03F083F902A8089900900B46019120463A4603A9243003F050F802466846007A3070204601F07DF810460BB0F0BDFFB587B00C4605461078694608723D20C7
:40320000005D1746002826D000262046FFF7C6FB012800D00126204603A93830019100902346A17E34333246206A03F04FF902A80090291D019120462B1D03A924300A9A27
:4032400003F01CF802006846007A388002D1204601F048F810460BB0F0BDF7B53C20405C88B015460C4600280CD0287869460872002806D000262046FFF790FB012803D0E0
:4032800003E01F200BB0F0BD0126204603A938300191009023460327E17E34333246E06903F014F902A8089900900B46019120463A4603A9243003F013F802466846007A95
:4032C0002870204601F018F81046DBE7FFB505463C20405C87B016460C46002810D0084601F058F801280BD0308869460883002809D000272046FFF751FB012805D005E09B
:4033000000200BB0F0BD0220FBE70127204602A93830019100902346E17E34333A46E06903F0D4F806A80090291D019120462B1D02A924300A9A02F0D3FF02466846008BDB
:4033400030806846008BA870000AE870204600F0D3FF1046D5E770B50D460446FFF71EFB01280AD0E87AA97A00020143A07801F0F7FC012808D0002070BD002224212046FA
:4033800002F020FD242070BD28214C200155204600F09AFB282070BD002801D0002000E003484030C07F012800D0002070470000781300200146002049070ED50021084BA6
:4033C00003E0002901D0002200E01A461279022A04D0491C0906090EF3D0704701207047781300200146002049070ED50021084B03E0002901D0002200E01A461279022A77
:4034000004D0491C0906090EF3D07047012070477813002010B5044680346068002803D00AF0E2FF0020606010BD4030417070474030817070474030017070470171704771
:4034400092001018C166704770B53C2501F02CF9040004D020460021433001F021FC2946204600F0C0FB002C02D0A07801F0AEF870BD000010B5002801D0002000E00348D5
:40348000002802D0008903F09AFC10BD7813002010B5002801D0002000E00448002804D00179072901D100F041F810BD7813002010B501F0F9F8002802D0807801F086F85D
:4034C00010BD00207047000070B50546008A00281ED010491122897A1140C90618D5294640314A8A098A521C4A4392B2D10800D10121540801E0621A94B2A042FBD9FEF780
:4035000049FF012804D1298AA878224601F018FD70BD00000413002000230B60052A04D292001018C26E0A60C366704738B5044600200090A079002814D14020015D0529E0
:4035400001D00E290ED168460AF0E0FE002809D12046009902F01EFC03481021C28A2046FFF754FC38BD00000413002010B50B4604460146184602F0EDF8002802D02046F5
:403580000AF028FF10BD13B5044601AA11460620FEF784F96846818861811CBD002800D10220704770470000F8B504462346401D543300909A1EA078911E01F0DEFA2546EF
:4035C0004035A88A298A8000FDF7F2FB401E81B2688A884203D96982A07802F01EF820460021433001F05CFB8020FEF723F9E88102F096FEE989891C8AB26179FFF7AEFD2C
:4036000001F0F0FC02F08CFE2A8A6179FFF7A6FD074601F0D9FC688A00280BD0FF26F1363046FEF707F90321090201433046FEF707F902E0002001F0DEFFFF206130FEF7F8
:40364000F9F86E8A002E0BD070431049FDF710FC0004000C01D0401C80B20D49488002E00B4800214180288A704381B2A07801F02FFF2837B9B2204602F05EFCE98AA078D2
:4036800001F07EFEA07801F0E2F9F8BD71020000120200207FB504468034616805460E46183108226846FDF724FC31462031082202A8FDF71EFC102168460AF0C1FD606885
:4036C000102108300AF0BCFD60682B46083024331022694602F0F0FD7FBD10B504460821FFF79FFB10212046FFF79BFB207905281FD006281DD008281AD12189002003F057
:40370000D7FA072020712046FFF748F9014620464030012913D00E21017000210176204600F060FF2046FFF775FE2046FFF7CCFE10BD20890122002103F09EFAE1E7052124
:40374000EAE70000FFB581B01F4604460821FFF768FB10212046FFF764FB2079082803D0092804D0042203E00422012501E009220025204600F0FAFD264600204036307060
:4037800022712046FFF746FE0398002D02D0012808D00BE001280AD120890022029903F06BFA04E02189029803F082FA012700203076012F04D0204600F014FF05B0F0BD3A
:4037C00002983073204602F029FB054605480121C28A2046FFF71AFB002DEFD109202071ECE700000413002070B50C460546FFF7D5F8012809D108212846FFF712FB0023A3
:40380000012221462846FFF79DFF70BD10B5044600F0ACFD2046FFF7FDFD00214034217010BD70B505461A24FFF7B8F8012809D108212846FFF7F5FA0023012221462846F2
:40384000FFF780FF70BD0000F8B50446002000900E4668460AF05AFD002801D00D20F8BD8420005908212030009D00F0F4F920460421383000F0EFF9002E02D1204600F0BF
:40388000B3FD2946204602F015FA0E480821C28A2046FFF7BBFA204600F00BFF25464035002808D0204600F023F8002801D0092028700020F8BD08202870204600F072FFDF
:4038C000F7E7000004130020014610B540310A460978082906D0092907D00A2901D100F091F810BD0B20107010BD00F001F810BD70B50446007925464035052805D00628E4
:4039000003D008280FD00C2070BD03220621204602F058FA0D480821C28A2046FFF776FA1120287010E006202873204602F076FA0646AA8A0A20424301212046FFF766FA71
:40394000002E01D109202071002070BD0413002038B504460020009068460AF0D7FC002801D00D2038BD2046009D00F08BF908202071204600F038FD2946204602F0CCF945
:4039800000213D2001550F2040210855204600F009FF002038BD00B5024600F0E7FC10214032117000BD10B50446FEF7F7FF012809D04020005D112805D100231A460621B0
:4039C0002046FFF7BFFE10BD10B5FFF786FE10BD38B504460021684600910AF097FC00280CD12046009902F00EFA05480821C28A2046FFF70BFA0D204034207038BD00006A
:403A00000413002038B504460021684600910AF07DFC002801D00D2038BD2046009902F0E7F905480821C28A2046FFF7EFF90C2040342070002038BD0413002000787047A8
:403A4000F8B50025002801D0002400E01A4C002C28D0204600F093FC002823D0207903281CD005281CD026464036B18AA07801F03DFDB078012815D10021204601F087FE90
:403A8000274680373868002802D00AF0ADFC3D600020B0702079072805D007E0042000E006202071F8BD2046FFF70EFD0221204600F092FEF8BD00007813002010B54C22D1
:403AC000115400F046F810BD10B50446FF21FFF7A8F909202071A07801F038FD10BD000038B5FF216A461180002801D0002400E0064C002C08D011460620FDF7CFFE68464E
:403B000001882046FFF73FFD38BD00007813002010B504468079002809D022214C200155FF212046FFF77DF9204600F012F810BD10B5037902464032002B03D01173092BE6
:403B400002D003E0002100E02221117300F001F810BDFEB504460089002701902781207926464036002817D0012815D002280AD112E002AA6946204601F0DAFD002807D114
:403B800000980AF027FC204601F0FAFD0028F0D02046FEF725FDB776254680352868002802D00AF021FC2F606868002802D00AF01BFC6F60317B002902D0019800F044F80A
:403BC000A078002100F05CFF2046FFF7BDFAA07801F0B0F8A07800F0F9FC0B20FFF712F900F038FCFEBD70B50E46054602F094FB044606702846FEF7D1FE01460120414055
:403C0000204661700C3001F034F8002D10D02889608028464030C1782171002E10D169796171018AE180418A2181808A608107E01820FDF7FFFDC005C00F20710020608072
:403C4000204602F0DEFF70BD0A4610B50146002003F0CDF810BD10B50AF0CEF810BD000000B50146FFF74AFA002801D0002000E00348002802D002898A4200D0002000BD17
:403C80007813002038B5044680346068002806D168460AF04BFB002801D100986060606838BD000010B5014600F074FB0128887802D0FEF77DFE10BD882148430249401830
:403CC0006030007F10BD00005813002070B5054604464035A87F012811D1A1788820084A484380186030067F3046FEF7AFFF002805D10220A877A078314601F0E1F870BDD3
:403D0000581300200EB500220A216B460292198100905A811046029B00990AF0D7FB0EBD10B50E4CE079002816D0FFF718F80C48827FC17F808B00F095FB01280CD10020A9
:403D4000E07100F014FF0446AC20FDF773FD010B02D0204600F032FA10BD0000081400205813002070477047490510B5490F0B00FDF792FA060704080C0C0F073E21FFF781
:403D80009DFE10BD0821FFF7D3FE10BDFFF7E1FE10BDFFF7BDFE10BDF8B507460025002D01D0002600E0204E00F096FE3046403044890021418100F0B5FE304600F0DFFA31
:403DC00001282CD1A00702D52846FFF739FEE00602D52846FFF784FEA00602D52846FFF791FF600601D500F0F1FA200602D5284600F01CF8600702D5284600F023FA3804F5
:403E000002D52846FFF744FB780402D52846FFF731FBE00703D021463046FFF7A5FF6D1C2D062D0EBBD0F8BD78130020F8B5002801D0002400E0204C002C39D025464035E7
:403E4000A878012834D1E98AA07801F099FA2046FEF7A4FD01282BD002F062FA2A8A6179FFF77CF9064601F0AFF82836B1B2204602F062F8E98AA07801F082FAFF2061307F
:403E8000FDF7D8FC6E8A0D4F0146002E11D0304648430B49FCF7ECFF0004000C01D0401C80B27880288A704381B2A07801F010FBF8BD0020F5E700007813002012020020BA
:403EC0007102000038B5002801D0002400E00D4C0020009068460AF019FA002811D12046009901F0C5FF607E02210843607606480421C28A2046FEF789FF0221204600F0A6
:403F00006BFC38BD781300200413002070B50D46124A010001D0002401E014462034002C1BD0204600F036FA01280AD18820484380186030007FFEF789FE002801D101F008
:403F4000F7FE20464030817E491B8176204600F029FC2089294602F0ECFE70BD5813002070B503460088FFF77BFE040013D000F006FA00280FD02079092819D02546997883
:403F800040352973204601F049FF0646A878012803D0AA8A02E0022070BDEA880A20424301212046FEF732FF002E01D109202071002070BD0EB5002217216B4602921981B2
:403FC00000905A810120029B00990AF07FFA0EBDF8B5184E0024F079002820D10025AC20FDF728FC000B21E0204600F075FEFDF721FC07462A46214600F034FA01280FD0CF
:404000000D48012187838577C477F171002D01D0002000E02030002801D000F0C3FBF8BDAC20FDF707FC000B641CE4B20028DBD1F8BD0000081400205813002010B500883B
:40404000FFF70EFE002809D0014640310C460978082905D00B2903D00C2010BD022010BDFFF746FC002801D009202070002010BD70B503460088FFF7F3FD040008D02546C3
:4040800040352878082805D00B2803D00C2070BD022070BD8420005910220830991CFCF728FF2046FFF7F6FA2878082804D02046FFF7A8FC002801D00A202870204600F001
:4040C00071FB002070BD000010B50C46002121700088FFF7C5FD03000BD000F050F9002807D009481121807A0840C00603D4112010BD022010BD022020701A8A1889002181
:4041000002F092FE002010BD04130020F8B50F46002100910088FFF7A3FD040012D000F02EF900280ED0E079410641D4617E02264A07002A08DB8907402500291ADA28436D
:40414000E07135E00220F8BD02F0E6F80021017021894180A1898180217E4170E189C1803E7005460178134802F0C4FB284602F0FEFD1DE0204600F013F9012806D068462A
:404180000AF0C4F8002803D00720F8BD2A20F8BDE07900992843E071204601F069FE607E0421304360760448C28A2046FEF72EFE0020F8BD1D040000041300203EB500225A
:4041C0000F236C460292238100910190628169460EC900200AF07AF93EBD000070B5054600F062FA040027D003202071254600264035EE76E6702046FFF7D6F901F0A8F8A9
:404200000920FEF7FFFDA07800F082FD0121204600F0E2FA2E706E70AE7000212046FFF7E2FC0749887B401C8873A078FFF74AFE012001F0BFF970BD284601F087F970BD91
:404240005813002010B5002801D0002400E00A4C002C0FD020464030417802290AD1002141702046FEF79AFB002803D10221204600F0B2FA10BD00007813002070B5034632
:404280000D460088FFF7ECFC04000BD000F077F8002807D012481121807A0840C00603D4112070BD022070BD20464030418A008A491C41430804C10C5888884201D2122054
:4042C00070BD20822079072802D12046FFF7FCF8022028702089002102F0CEFD002070BD04130020016A491C016204D1817E491C4906490E81767047C169491CC16104D1F9
:40430000C17E491C4906490EC176704770B500250646002801D0002400E0114C002C1CD0882200212046FCF7EDFDA67000202646207140363070204600F018F8204601F029
:404340001BFA084820820848B577807A1121084000D001202075012070BD002070BD000078130020B80B000004130020002101628176C161C17620300177417770470079FC
:40438000002805D0012803D0022801D001207047002070474030807F002800D00120704740300078002807D0012805D0052803D00E2801D0012070470020704710B58078C3
:4043C00001F08AF9002800D0012010BD10B500F0CEFB0446AC20FDF72DFA010B02D02046FFF7ECFE10BD000070B5054604464035A87F002823D1FF206075A0788821144A3E
:40440000484380186030417F8823491CC9B24177A078584380186030052901D300214177A0788821484380186030467F0677A1783046FEF70BFC002802D00120A87770BD68
:404440000220A877A078314600F03AFD70BD0000581300200020401C0006000EFBD0002070470000F0B515468207920F85B0C004C00E02926A469080002D01D0002400E014
:40448000514C002C29D0084600F026FC03906846808800280BD00298012845D0022843D003280CD03D20005D012872D086E00398FDF7C0F901462046FFF765F87EE0002021
:4044C000029002A809F002FF002807D03D20005D012876D12046FFF705FF72E06846029E8388324600210398FDF71AF90398FDF7A1F901462046FFF746F8284600F0B9FAFC
:4045000001AA21463046FEF73FFE002806D0304609F04CFF3D204C21085528E0F5773146204601F077FA4CE0002000902789684609F0BCFE002802D0002005B0F0BD684618
:40454000009E8388321D00210398FDF7E9F80398FDF770F901462046FFF715F8284600F088FA25464035287E00280CD103E02046FFF7AAFA25E001AA21463046029BFEF79D
:4045800037FE002806D0304609F006FF3D202873EDE710E00298FFF705F8390A000101433770717068468088B070000AF0703046FFF700FD05E02046FFF794FE284600F021
:4045C00058FA0120B9E700007813002010B5044A917B002901D0491E9173FFF797FE10BD58130020F8B5074606464037B87F00283DD0B0788821009048431F494518603527
:40460000287F0099FEF737FB012831D0287F401CC4B2052C00D300240020B877FF276F772F77A87702460146009800F0C9FD717DFF2903D0304601F060F8777501F078FB53
:4046400000252F462246694630460097FEF764FF0099002902D03046FEF725FB641CE4B2052C00D300246D1CEDB2052DEAD3F8BD0320B877F8BD00005813002010B502465C
:404680000021084B03E0002901D0002000E018460479944204D0491C0906090EF3D0002010BD00007813002000B50120FFF7E6FF00BD10B5044601F02FFE218901808034C4
:4046C0006168416061682831816002F00BFB10BDF7B50646087982B00C46092807D0A078F0770846FFF756FE012806D010E0304609F070FE022005B0F0BDA1788820284AE9
:40470000484380186030007FFEF7A0FA012810D0A078FEF741FE01280BD037780121304601F0B3FA25462035062F36D00B2F0FD107E06846027C21463046FEF717FF0D203D
:40474000D9E72046FEF72AF9012801D1002028772046FFF7A7FA054604AA21463046FEF77CFD01205F2108556946087C0090A07833463A46294600F04FFB69460A7CA07838
:404780000323294600F0FAFEA0782946FDF714FF304609F01FFE0020ADE70120D7E700005813002010B502464032937F0021002B03D1927E002A00D00121064AD279002AA2
:4047C00000D000210279092A00D10121807800F0FFFE10BD0814002070B50C460646FEF7DDF8002814D1012C0ED935464035A87800280DD1687802280AD03079092807D0E0
:404800003046FFF7DBFD0446204600F00EFE70BD0124F9E770B50D4601280BD0082808D1A8241146B020FDF70BF829462046FDF707F870BD2020FAE710B501460820FCF7AA
:40484000FFFF10BD10B50446FF20F130012C01D1FF20D530002200F006FF1020FCF7EAFF0349A043088001461020FCF7E9FF10BD1602002010B504461020FCF7DBFF044971
:40488000A043088001461020FCF7DAFF10BD00001602002010B50446012802D0082C07D102E0FF20D53001E0FF20F13000F0D0FE1020FCF7BFFF04492043088001461020BA
:4048C000FCF7BEFF10BD00001602002010B504461020FCF7AFFF04492043088001461020FCF7AEFF10BD000016020020F8B507460120B84085B214460E46012229467C20A9
:4049000000F0B1FE32462946782000F0ACFE6078217800020143E078A5780002054360792679000206430C2047430D2080013C182046FCF785FF241D29462046FCF780FF69
:40494000201D3146FCF77CFFF8BD401880B270478B00034310B5D10191201943C000FCF76FFF10BD70B505460C46407829780002014341200001FCF763FFE878A978000221
:4049800001430A48FCF75CFF60782178000201438320C000FCF754FFE078A1780002014302480830FCF74CFF70BD00001404000070B50D46044681B201208002FCF740FF2D
:4049C000210C0448FCF73CFF81202946C000FCF737FF70BD0404000070B5054600242846FCF728FF641CA4B2102CF8D370BD10B50C460146B020FCF723FFFF2021462D3096
:404A0000FCF71EFF10BD704710B50C460146B020FCF716FF204600F051FE0021FCF710FF10BD70B50C46054600F005F821462846FFF7DDFF70BD10B50C460146B020FCF773
:404A4000FFFEFF2021462930FCF7FAFE10BD10B50146B020FCF7F4FEFF20002220211D3000F001FE10BD10B50146C020FCF7E8FE10BD010210B54D310020FCF7E1FE10BDBF
:404A800010B504020029014608D0B020FCF7D8FE214675310020FCF7D3FE10BDB020FCF7CFFE512000214001FCF7CAFE00210348FCF7C6FE21467631ECE70000240A00003C
:404AC00010B554210020FCF7BBFE10BD10B553210020FCF7B5FE10BD10B5034908884880FFF7C8FE10BD00001602002010B550210020FCF7A5FE10BD10B50E2400280CD039
:404B0000C420FCF797FE20430146C420FCF798FE51210020FCF794FE10BDC420FCF78AFEA043F1E710B502484088FFF7CFFE10BD1602002010B5FCF79DFF10BD10B55221FC
:404B40000020FCF77DFE10BD884201D8081A03E00022D243101A401880B2704710B504461820FCF767FE8004400F207010BD10B5B020FCF75FFEC0B210BDF8B50E46014655
:404B80001C461546B020FCF75BFEFF20E930FCF751FE0746FF200130FCF74CFE3080FF200930FCF747FE2880FF200530FCF742FE208079070698490F0170F8BD10B5C82070
:404BC000FCF738FE10BD10B50C46002812D05820FCF730FE2070000A60705C20FCF72AFEA070000AE0706020FCF724FE2071000A607110BDFF20C130FCF71CFE2070000A15
:404C00006070FF20C530FCF715FEA070000AE070FF20C930E8E7000000B5024A00F004F800BD0000FF7F000000B51346FFF78CFF984201D8022800D2002000BD10B50146EA
:404C4000B020FCF7FDFD0248FCF7F4FD10BD0000080A000010B52420FCF7ECFD10BD10B50146B020FCF7ECFDFF202130FCF7E2FD10BD70B504466820FCF7DCFD06466C2056
:404C8000FCF7D8FD05467020FCF7D4FD2670310A6170A570290AE1702071000A607170BD10B50446012905D01820FCF7C3FDC00B207010BD4820FCF7BDFD8007C00FF7E74F
:404CC00010B50146B020FCF7BBFD0248FCF7B2FD10BD0000280A00000120C0027047000010B50146B020FCF7ABFD0248FCF7A2FD10BD00000C0A000010B50C460146B02044
:404D0000FCF79EFD0321A0014902401810BD00008821074B414310B5C918FF2260314A770A7700228A77114600F04AFA10BD00005813002088225043074A10B58018FF2186
:404D4000603041770177002181770448418EFF201D3000F07DFC10BD581300200413002010B50C460146B020FCF76AFDFF202530FCF760FD0222214600F002F810BD00004D
:404D800010B50023884201D8081A03E00024E443201A4018044980B2884201D8824200D90123184610BD0000FF7F000010B5C420FCF740FD0006C00F10BD000010B503486F
:404DC000FCF738FDC007C00F10BD00002C0A0000F8B503465078167800020643D07895780002054350791779000288240743002900D098241946B020FCF722FD3146204698
:404E0000FCF71EFD201D2946FCF71AFD204608303946FCF715FDF8BDFFB581B014460D4606460A9FFFF768FF3B460021049AFCF7E7FC02484019845505B0F0BD1A020020C3
:404E400070B506460D4611242520A40108214001FCF7F6FC2B46324600212046FCF7D0FC70BD70B5212405466401FFF72FFE10232A4600212046FCF7C3FC70BD10B504464F
:404E800040782178000201438F20C000FCF7D8FCE078A178000201430148FCF7D1FC10BD7C04000010B50C460146B020FCF7C8FC802021460143FF202930FCF7C1FC10BDF3
:404EC00070B50D460146B020FCF7BAFCFF241D342046FCF7AFFC01090901FF202943013001432046FCF7ACFC70BDF8B500242646012807D0032802D0052808D105E0022475
:404F00000A2604E004240C2601E004240D26492701463F013846FCF793FC25204001FCF789FCC5B228462042F7D0252031464001FCF786FC00213846FCF782FC2846F8BD1F
:404F400070B50D46044601461646B020FCF778FC512029464001FCF773FC31460648FCF76FFC032189030820FFF794FC210275310020FCF765FC70BD240A000070B50D4681
:404F800004460146B020FCF75BFCFF2029461930FCF756FC21024B310020FCF751FC70BD70B5491E8CB205460146B020FCF748FCFF2021461930FCF743FC29024C310020D2
:404FC000FCF73EFC70BD0000054910B5884200D908460146FF206130FCF732FC10BD0000FF0F0000054910B5884200D908460146FF206530FCF724FC10BD0000FF0F000073
:4050000070B588251446002900D098250146B020FCF716FC2846FCF70DFC2070000A6070281DFCF707FCA070000AE07028460830FCF700FC2071000A607170BD10B51446AC
:40504000024611200B4680010021FCF7C5FB012C01D1FFF735FD10BD10B504460920C001FCF7E8FB2070000A60700448FCF7E2FBA070000AE070FFF723FD10BD84040000F3
:405080000121814010B589B200227C2000F0EBFA10BD000070B5FF210120FFF7D3FBFF210820FFF7CFFB3020FFF7E4FB80210020FCF7C6FB002211460320FCF7EFFB374DE4
:4050C000FF20A98DD530FCF7BBFB0024FF26F1362146B020FCF7B4FB298F3046FCF7B0FB2046FFF727FE641C2406240EF0D0FF20A98FF930FCF7A4FB28481030044600F07F
:4051000079F9204600F0BEF900F04CF8234CB82040346188FCF794FBA188BC20FCF790FBE188C420FCF78CFBFF20698EE130FCF787FBA12000210001FCF782FB3920FFF70E
:40514000C5FBFFF7C3FC93200721C000FCF778FBFFF7B6FCE020FFF73FFCE820FFF73CFCF020FFF739FC0020FDF7EEFF618A0C48FCF766FB0A482821001DFCF761FBFF21B4
:405180000131AC20FCF75CFB832000218000FCF757FB5B210020FCF753FB70BD04130020140A000010B500217C20FCF749FB00217820FCF745FB74210020FCF741FB10BD69
:4051C00070B50D4601461446B020FCF739FBFF261D363046FCF72EFB01090901FF20294301308143002C01D1102041403046FCF727FB70BDF3B589B0FF2001900D2080015B
:40520000009048780D7800020543C8788E780002064348790979000201437C200791FCF709FB06907820FCF705FB059074210020FCF706FB18480024049026E00120A0408C
:4052400087B20098FCF7F6FA03900098FCF7F2FA02900098FCF7EEFA039A29465140029A72401143079A424011430BD10698074208D00598E040C1070998C90F814201D187
:40528000019405E0641C0498E4B20078A042D5D801980BB0F0BD00004413002070B5FF257C20FCF7C7FA0849002401230A7805E01946A140014205D0641CE4B2A242F7D889
:4052C000284670BD2546FBE74413002010B504461820FCF7AFFA0721C90288436107890C01431820FCF7ACFA10BD10B50446E020FFF772FB20782246401CC3B20021E0206B
:40530000FCF72AFA10BD000010B5044641790079042817D040000843A17B032901D8C9000843617B4A010243A079010207201143C00201431820FCF783FA21881C20FCF7EB
:405340007FFA10BD08460149E5E700000204000010B5012000F02EF90120FFF78BFA41210020FCF76DFA10BD10B5002000F022F90120FFF7ABFA40210020FCF761FA10BDF3
:4053800010B50C460146B020FCF75AFAFF2021460D30FCF755FA10BD70B50C4601461E461546B020FCF74CFAE92021468000FCF747FA75202946C000FCF742FAEB20314687
:4053C0008000FCF73DFA6C433B20A1B20001FCF737FA70BD70B50C4601461546B020FCF72FFA21468420FCF72BFA29468020FCF727FA70BD10B50446407821780002014336
:40540000FF20C130FCF71CFAE078A17800020143FF20C530FCF714FA6079217900020143FF20C930FCF70CFA10BD70B5A124054624012046FCF7FEF9012D07D041084900AF
:40544000814202D02046FCF7FBF970BD014601221143F5E710B5044640782178000201436820FCF7EDF9E078A178000201436C20FCF7E6F960792179000201437020FCF72B
:40548000DFF910BD10B5044640782178000201435820FCF7D5F9E078A178000201435C20FCF7CEF960792179000201436020FCF7C7F910BD10B50446E820FFF78DFA207896
:4054C0002246401CC3B20021E820FCF745F910BD10B50C460146B020FCF7B2F921460248FCF7AEF910BD00001C0A000010B50C460146B020FCF7A4F9FF2021460530FCF7D6
:405500009FF910BD70B5054688000521FBF750FC84B22946B020FCF793F921460448FCF78FF9290272310020FCF78AF970BD0000040A000010B504460146B020FCF780F957
:40554000210273310020FCF77BF910BD10B504460146B020FCF774F9210270310020FCF76FF910BD10B504460146B020FCF768F9210271310020FCF763F910BDF8B505460B
:405580001E4614460F46084600F098F800902802A1000843304304462946B020FCF750F921460098FCF74CF90148C0194655F8BD1F02002010B50446B820FCF73BF98005AF
:4055C000800DA102014389B2B820FCF739F910BD70B50D460146B020FCF732F9FF241D342046FCF727F940218843A90101432046FCF726F970BD70B5A12405462401204619
:40560000FCF718F90222002D01D0104300E0904301462046FCF714F970BD70B50D460146B020FCF70DF9FF2029460930FCF708F9A12424012046FCF7FDF80222002D01D0C7
:40564000104300E0904301462046FCF7F9F870BD70B50C460546FCF7EDF8204301462846FCF7EEF870BDF8B516460D460746FCF7E1F8014600202C0003D104E06408401C26
:4056800080B2E207FAD08640A9430E43B1B23846FCF7D6F8F8BD0000024A1018405C8007800F70471F02002010B50146B020FCF7C7F8FF202D30FCF7BDF810BD8000FF305F
:4056C000413070470246FF20052902D201484018805C70471A02002010B50146B020FCF7AFF8FF202930FCF7A5F810BD0A4600B501461046FFF7E6FF00BD38B50C4605469A
:4057000000216846009108F001FE002804D1009928464C7000F09EFB38BD10B5044680780021FFF72DFE01212046FFF755F810BD436E002B0CD00B60014660318B78137072
:40574000826E4266CA788A700021816608467047FF20704710B50346446E6033002C04D0846E002C04D0FF2010BD41669A7001E08166DA70002010BD00214166816670472B
:40578000406E002801D000207047FF20704770B50446C0790D46810610D5DF210840E07100F0BAFD0570218941804034218A8180618AC180A18A018101F0F6F970BD000008
:4057C00010B50446FEF7E6FD01280AD1A1788820054A484380186030007FFDF737FA012801D000F0A5FA10BD5813002070B50D460446FDF7D3F801281CD02079042801D04A
:40580000072816D1E879AE7900020643A0783146FFF7A6FA012813D03246691C204600F035FA02212046FDF700FE01212046FEF7D3FF70BD01222421204600F0C3FA70BD2D
:4058400028214C2001552046FEF73EF970BD70B50D460646FDF77FFD002847D120213046FDF7DFFA3446687840346073E87820220002E081A9780843E0816879010228796E
:405880000843218A814203D0F1791143F1712082E8790102A8790843618A814203D0F1791143F1716082687A0102287A0843A18AE180814203D0F1791143F171A082A08AE7
:4058C000218A8000FBF774FA401E618A80B2814200D9608201213046FDF7AAFDE87AA97A000201430022304600F0DCFA70BD0000F8B50C460546FDF751F8012849D0294E5B
:40590000B07AC00709D02846403000900078002805D0102805D01F212EE01A212CE0002700E001272846FEF7ADF9002823D02E4680360822611C7068FBF7DBFA7068617AA2
:4059400020300172A17A417270682146183008220B31FBF7CEFA21462846042213313430FBF7C7FA39462846FDF76EFF002810D1002F0FD012E007210322284600F022FA7B
:40598000F28A08212846FDF741FA11212846FDF752FDF8BD06212846FDF750FD009801210176F8BD0413002010B5FDF78DFF10BD38B504460020009020790D46042801D038
:4059C00007281BD12046FCF7E9FF012817D0684608F09CFC002811D10C486A78807A00991040112210402075607E082210436076204600F079F92046FDF763FD38BD0822F0
:405A00002421204600F0DEF938BD0000041300207047000070B506460D460846FEF70EF804463046FEF7ABFC00280CD0142C04D32946304600F0C7F805E00549A0000A58C4
:405A4000294630469047284608F0B0FC70BD00007C06010070B50D460021002801D0002400E00C4C002C14D020464030C177807F032802D12046FEF7B5FD2046FFF7A0FE98
:405A8000142D04D20449A800095820468847FEF7E1FC70BD78130020CC06010010B5014640310C4609780E2903D1FDF751FF0120207610BD10B54021095C0F2901D1FDF71B
:405AC0006AFF10BD4021095C0F2902D1002120304177704738B5044600220E4800920D46807A11210840C0060ED52046FEF758FC012809D0684608F009FC002803D1204650
:405B0000009900F053F938BD2946204600F05BF838BD00000413002010B51021FDF781F910BD10B54978FDF75FFE10BD10B5FDF73AFF10BD012120304177704710B54021BC
:405B4000095C0C2901D1FDF743FF10BD10B54021095C0D2901D1FDF737FF10BD70B5044600790D46052803D0062801D0082802D12046FDF74BFE68784C2108550921204612
:405B8000FDF75CFC2046FFF7C8FD2046FCF706FF0128A07805D0FFF7D9FC2046FEF702FE70BDFFF7DFFCF8E710B50446FF21FDF738F916214C200155A078FFF7C7FC20467D
:405BC000FEF7F0FD10BD70B50C460546FEF7E2FB002802D02078687570BD21782846FFF78CFD70BD70B5054648780C46032802D12846FDF716FE6078122803D11021284698
:405C0000FDF70FF970BD704738B5044600200D46009004212046FDF704F968782076E8780002A081A9780843A08168790002E08129790843E081607E04210843607680070B
:405C40000CD4684608F062FB00281CD12046009900F00EF9607E022108436076E079410611D5BF210840E07100F056FB00210090017021894180A1898180217E4170E18962
:405C8000C18001F074F838BD7047704770B50446C07815460A4600280AD00020E070C1B2A078FFF795F8A0782946FFF767F970BD0120F3E770B50546042008700C4684200A
:405CC000415908222031601CFBF713F929462046042238310930FBF70CF90D2229462046FEF7F6FC002070BD70B5054609200C46087008220021601CFBF704F9287D6070BB
:405D000004480922C07AA07029462046FEF7E0FC002070BD041300200B4610B501460B20187001221846FEF7D3FC002010BD0000FEB50024164F03E0002C01D0002500E015
:405D40003D462846FFF71CFD00281BD15F20405D002817D16A4601A92846FFF7E9FC002810D1019869460A7806782946FEF7B0FC022E07D1A8780121FFF72AFC09212846E1
:405D8000FDF75CFB641C2406240ED5D0FEBD00007813002010B50B46122119708178D977014601221846FEF793FC10BD10B50B46132119708178D977014601221846FEF7A4
:405DC00087FC10BD38B50546002000900C46684608F09CFA002801D0072038BD00980D210170447002222946FEF772FC002038BD0B4610B501460520187001221846FEF752
:405E000067FC002010BD0B4610B501460620187001221846FEF75CFC002010BD38B5054600200090684608F071FA002801D01F2038BD009C022020704C20405D6070A878DF
:405E4000E0772846FFF769FC022229462046FEF73FFC38BD10B50B46072119708178D977014602221846FEF733FC002010BD000010B50B460A49044608880C221A704A793C
:405E80005A709870000AD870C8881871000A5871062221461846FEF71BFC002010BD000004130020F8B50446403417460E460546E289617B8078FFF78DFA002F0DD100F0D5
:405EC0002FFAE2896979FDF749F9FFF78BF8608A002800D00120FFF78EFBE388A08A984200D90346628A218AA878FFF755FAA08A218AC000FAF75CFF81B2ED208000FBF7DB
:405F00009FFCE089E188C0080A30081881B21920C001814200D90146A878FFF7E7FAA8783146FFF73DF801212846FEF755FCF8BD00B500F01FF800BD10B50A4604460B4952
:405F40001046FAF735FF4034C01C218A80B2814200D208464900081A81B20548E182C089002802D0884200D2E08210BD710200004413002040184008704770B505460C4637
:405F8000000702D5A0B2FDF707FFE80702D0200EFCF7A2FF70BD70B5054650C8FCF752FCFBF77AFA2889C01F0300FBF775F90C07130B171A1D0B0B200B100C0BA0B2314635
:405FC000FFF7DBFF70BD204600F000FC70BDFDF7A7FE70BD2046FCF7A4FD70BDFCF7BFFE70BDFDF7BFFE70BDFDF7BDFE70BDE0B2FDF7EEFF70BD0000F3B5002483B00646B6
:4060000027460094019408200294FBF713FC05460640400713D55020FBF70CFCC0B20090700707D5009CA00803D1FBF79BFA012800D10127002204200099FEF7EBFB2807E2
:406040004ED5A820FBF7F6FB0146654842890A434281002208200091FEF7DCFB300739D50098044340062CD5FF200930FBF7E2FBFF201D30FBF7DEFB8006C00F0190FF200E
:406080000930FBF7D7FB00281BD00198002818D1544801214170FF20F130FBF7CBFB0321090288430146FF20F130FBF7C9FBA1200001FBF7BFFB02210143A1200001FBF7FF
:4060C000BFFB00981021884303D1FBF74BFA012800D101270098C00602D50220FBF72EFDA8070CD53820FBF7A5FBC1B2B00702D508040443012700220220FEF78BFBE8070D
:406100001DD02020FBF796FBC0B20090F0070BD000980221000604430098884303D1FBF721FA012800D101270098800702D50220FBF704FD002201200099FEF76BFBE8063D
:4061400005D50120FBF7EAFC1020FEF775FBA8062AD5FEF733FD244908800120FBF7DEFC22490020087022490870FF200930FBF761FB0090FF201D30FBF75CFB8006009913
:40618000C00F00290DD000280BD116494870A1200001FBF74FFB02210143A1200001FBF74FFB2020FEF748FB680602D54020FEF743FB0720694608810020009601944881C9
:4061C000002F07D069460EC90498002804D0002008F058F905B0F0BD002008F077F9F9E7B81300201202002024020020B90100200D020020F0B587B0054605A81E46174645
:40620000019100900C9C04AB06AA02A903A800F078F92846FEF725FE21463046FEF710FE6846017A0398FEF7C3FB05A904A8FEF799FB6846027E21463846FEF789FB07B07B
:40624000F0BD000070B50548C4782046FCF723FE05462046FDF7AEF8284370BD5813002070B5054884782046FCF71DFE05462046FDF7B8F8284370BD58130020F8B5069E30
:406280001F463478231FDDB23B460095FFF7B2FF3819001FFEF7F2FD0520FEF726FE0446012229460798FEF7C9FE3570E00701D00020F8BD1F20F8BD70B51C4615460E461A
:4062C000FEF7CFFD29463046FEF7BAFD0320FEF70CFE012229462046FEF7B0FE1F2070BDF8B5069D079E2C780094FFF783FF0120FEF7FBFD0746002221463046FEF79EFE93
:406300003019FEF7A9FE241D2C70F80701D00020F8BD1F20F8BD0000004870471414002008B56A4600210B20FBF7B8FA6846007808BD0000F3B585B00746534CFEF73EFC7B
:4063400021460290FEF701FB38800698C0070AD0FEF780FC054601460298FEF75DFCA04201D204463D804948807B00287ED0002508200699A84008427DD0002D01D0002604
:4063800001E0424E20362846FEF769FC0190404800903046FCF702FB002819D1FF200930FBF748FA0390002812D0FF200130FBF741FA03994000491C484381B2344800917B
:4063C000814200D20090009A01990298FEF72CFC009A01990298FEF727FCA04202D20446019838802846FEF77BFC0190304640308178012901D0808A00E0C0880199000540
:40640000020C0298FEF710FCA04202D2044601983880B079002813D02846FEF70FFC01901C480521C08AC000FAF7C2FC82B201990298FEF7F9FBA04202D20446019838804A
:40644000308A002817D03079072814D12846FEF7B5FC00280FD02846FEF732FC06460146094A0298FEF7E0FBA04201E008E002E001D204463E806D1C2D062D0E00D177E70C
:40648000204607B0F0BD0000FFFF000058130020FF7F00000413002010B50B4C094923460833A160002142189278002A00D05A54491CC9B20429F6D3FF21A0689A31484340
:4064C000A06010BD040302015813002070B5059C049D2070060A6670060CA670000EE0704806D101400E0843207104221946601DFAF7FFFC2046042229460930FAF7F9FC85
:4065000070BDF8B5079C0E46E178069D09020160A77839430902016067783943090201602778394301602079611D4006400E30702079C009107004221846FAF7DAFC2146F9
:40654000042209312846FAF7D4FCF8BD10B5FEF735FB084A916848408108C3084409414063405940C30F59404008C9070843906010BD0000581300200348C078002801D02A
:4065800000207047012070479415002010B5012200F016F810BD000010B5054802780121002A017002D10120FAF720FE002010BD2802002010B5002200F002F810BD00008F
:4065C000F8B5204D0F4629781646012904D02978022901D01120F8BD0C2148431A494418E078A178884201D31220F8BDF9F774FF62780C2361685A4351188CCF8CC1E17805
:40660000601C491CE1706178491CC9B20170A278914201D1002101706868401C68602878012803D0F9F760FF0020F8BD02202870F9F75AFF002E03D00020FAF7D7FDF3E736
:406640000120FAE7280200209415002010B51148002101704160C0220F48FAF753FC0E4890220021C030FAF74DFC182200210B48FAF748FC0948102181700C218173064922
:406680004160C03101610649816006494161FAF795FD10BD280200204414002094150020975F000051760000F8B50025114C01262F462078002811D001280FD0022802D0BD
:4066C000032813D111E000F017F8F9F705FF6068002800D12670F9F707FF07E02078002806D02078012803D000E02770002DE0D00020F8BD28020020FEB51F4D1F4E002723
:40670000FF2400200C2141438919C978002901D0044602E0401C0228F4D3FF2C2AD0F9F7DBFE0C204443A41921780C2260685143081801460EC90293019200910760476089
:406740008760E078401EE0702078401CC0B22070A178884200D127706868002802D06868401E6860F9F7C0FEA1680029C8D068468847C5E7FEBD00002802002094150020BC
:4067800010B5830A082B02D007F0A6FE10BD00F0CFF810BD10B50C460146207800F042FC0028204603D000F005FF002010BD00F0B8FB1F2010BD10B5820A082A02D007F035
:4067C00039FF10BD00F056F910BD0000F8B5044640782578000205430020694608702846FFF7E9FF012827D16946A0780978884222D01C498D4208D0891D8D4205D0C91CFF
:406800008D4202D0C91C8D4204D11221284600F071F80CE00022022805D32079E178000201430A05120D12212846FFF7A9FF204607F094FD1220F8BD0B4EA80A08282A46FF
:4068400031460AD0E01C07F03FFF204607F086FD3146284600F00AF8F8BDE01C00F018F9F3E700000D200000AC150020F8B50D4604460020694608701A48844208D0801D17
:40688000844205D0C01C844202D0C01C844201D101200870A00A08280A462946204609D007F064FF064668460078002805D0012815D110E000F006F9F4E70022002D05D02E
:4068C00068782978000201430A05120D31462046FFF756FF03E03146204600F00BF83046F8BD00000D2000000148407A7047000008140020F8B5054600200E4600906946CF
:40690000082000F007FB002801D00720F8BD009C0F202070A670FFF7E7FFE0702571280A6071042060702146FF20FFF733FFF8BDF7B5064682B000204B4A4C4B00900420B1
:40694000B11AF718964218D008DC002F0FD0012F0FD0052F0FD00D2F12D10CE0032908D005290CD006290AD0072909D101E0072006E00C2004E0052002E00B2000E0062007
:406980006946001D00F0C6FA002802D0072005B0F0BD009D31462846039A00F085F8334804241338301803D0052801D0062805D10499A9710499090AE97106240398002893
:4069C0004BD12949891F701A8E4227D006DC002F0BD0012F11D0052F3FD11CE0062823D009282CD00D2838D12FE028191B2181700021C170A41C042012E02E19B01C082265
:406A00000021FAF77FFA1A481122817A1140B170C07AF07020E0FBF799FF01E0FBF7B8FF29198870641C18E02919891C0498FBF79DFF002801D068710FE0641D0DE02819E8
:406A4000801C082107F0D8F906E009492819801C08221C31FAF74DFA08346C702946FF20FFF798FE93E7000015200000FEDFFFFF04130020C0B21F2806D8401E034AC0B21E
:406A8000105C0870012070470020704790080100D2B21F2A05D8034B9200D218403AD26B104770479807010070B504460E2016460D462070FFF718FFA070E570280A2071C0
:406AC000667170BD70B50D46C1B2012014461F2911D88E000848214630184038C26B28469047002807D104482146F83830184038C26B2846904770BD1408010070B5154C9F
:406B00000546212200212046FAF7FCF9212212492046FAF7EEF9114A1121907A0840C3060F48017802D53023194301E0CF2319400170907AC007207F02D00721084301E04D
:406B4000C008C0002077212221462846FAF7D1F970BD000014140020AF080100041300203414002010B5FBF799FF10BD10B5FBF7B2FF10BD002070470120704710B5FBF7A0
:406B8000FAFF10BD0020704710B5FBF7F6FF10BD0249007848710020704700000814002010B5FCF706F810BD38B504460020009069460E2000F0AEF9002801D0072038BD3D
:406BC00000993E200870032088702078C870A07808716088000A487120798871A088000AC871A0790872E088000A4872207A88722089000AC8720A2048700320FFF7CAFD00
:406C000038BD38B50546002000906946172000F081F9002801D0072038BD009C3E2020700120A0702878E070A878207168882946000A60716878A0712879E07120460830FB
:406C400006220C31FAF755F9A879A073E8882146000AE073287A20742889000A6074A87AA0746889000AE07468792075132060700120FFF78FFD38BDF8B5044600200E4642
:406C8000009015466946082000F044F9002801D00020F8BD0099082008708E70CC70200A08714D7104204870FF20FFF773FDF8BD38B50C460021054600916946072000F02B
:406CC00029F9002801D0002038BD0099302008708D70CC70200A087103204870FF20FFF759FD38BD38B50546002000906946112000F010F9002801D0002038BD009C3E2023
:406D000020700520A0702878E07028880822000A2071601D6968FAF7ECF8A9680D200A7862734978A173607021460520FFF732FD38BD38B5054600200C4600906946092014
:406D400000F0E8F8002801D0002038BD00991320087001208870CD70280A08714C71200A887105204870FF20FFF714FD38BD38B504460020009069460C2000F0CBF800287B
:406D800001D0002038BD00990C20087020788870A078C8706088000A08716078487120798871A088000AC871A0790872E088000A487208204870FF20FFF7ECFC38BD38B559
:406DC0000446002000906946062000F0A3F8002801D0072038BD0099572008708C70200AC87002204870FF20FFF7D4FC38BDF8B5064600200C46009015466946082000F06D
:406E000089F8002801D00020F8BD0099052008708E70CC70200A08714D7104204870FF20FFF7B8FCF8BD0000FEB507460020009010480E46019015466946082000F06AF867
:406E4000002801D00720FEBD009C324620460199FFF72AFEA771380AE0710620002E03D1290A25726172082060702146FF20FFF791FCFEBD7B0C0000F8B5054600200E46E6
:406E800000900C4F6946062000F044F8002801D00720F8BD009C324639462046FFF704FEA571280AE071062060702146FF20FFF771FCF8BD7C0C000010B5FDF7BFF810BD2E
:406EC00010B5FDF7D5F810BDF8B505460020074600900D4E6946142000F01CF8002801D00720F8BD009C3A4631462046FFF7DCFD1022A01DA918F9F7FCFF14206070214665
:406F0000FF20FFF747FCF8BD1720000010B5FBF7EDFD10BD0A4610B5C1B2104607F0AEF910BD10B507F024FA10BD0000F8B50546C078AF78164C00020743A07D26468000A1
:406F4000203E8019103004222946F9F7D2FFA07DB38E800082191032291D042B16D03550A07D0023400080190784A57D204610302B54A07D401CC0B2A075042800D3A375E7
:406F8000B08E401CB086104600F005FBF8BD0000F0150020FEB5144C0025E17D204610300D54E07D26468000203E305807F0F4F9E07D401CC0B2E075042800D3E575B08E1A
:406FC000401EB0860948C07900280CD00095019511206A4602951081558129460A460020029B07F073FAFEBDF01500200814002010B5074900208875C87520398886054945
:407000000872487288728882FAF77AFA10BD0000F01500204816002010B5FFF7E9FF002010BD00001B4B10289A792DD00CDC0C2823D004DC05281ED0082829D124E00E2897
:4070400024D00F2824D121E0302818D004DC13281CD01A281CD114E03E2802D0572817D111E0500614D5491E012088405979C0B201420BD10CE0012006E0802004E020204C
:4070800002E0022000E00420024201D001207047002070470814002010B50B460178401C197001460622581CF9F723FF10BD034610B5084608221946F9F71BFF10BD70471F
:4070C00070477047427812020A8003781A430A8080788870704770B50D460446014610222846F9F706FF214610221031A818F9F700FF70BD427812020A80007802430A80CE
:40710000704710B50B4641780A021A800178801C0A431A8001461022981CF9F7EAFE10BD427812020A80007802430A807047427812020A80007802430A8070477047427838
:4071400012020A80007802430A807047427812020A8003781A430A80807888707047007808707047427812020A80007802430A80704710B50B460178401C19700146062232
:40718000581CF9F7B6FE10BD10B502780B460A701F2A03D8411C581CF9F7ABFE10BD00780870704770B5054640780C46000208802978062208432080E87800026080A978C3
:4071C000084360802879207168796071A879A071E91DE01DF9F78DFE687B6073A87BA07370BD0022835C0B70521C491CD2B2082AF8D370477047034610B508460622194696
:40720000F9F777FE10BD7047704710B502780B460A701F2A03D8411C581CF9F76AFE10BD70B5054640780C46000208802978082208432080A91C201DF9F75BFEE87A1022F1
