:400000000040002011000000A1050000A105000080B500AF00F0F2FA80B584B000AF021CFB1D1A70204A3B1C0B3312781A701F4A3B1C0A3312781A700423013BFB6018E091
:400040001B4B1868391C0B31FA68131C5B009B18C3185B780B70164B1868391C0A31FA68131C5B009B18C3189B780B70FB68013BFB60FB68002B0ADB0D4B1968FA68131CF1
:400080005B009B185B5CFA1D12789A42D8D9094B3A1C0B3212781A60074B3A1C0A3212781A60BD4604B080BDCCF1FF0FCDF1FF0FE40000201CFF0B4020FF0B4080B500AF37
:4000C000294B12221A600C20FFF7A6FF274B0C221A60052001F0C8F8254B264A1278D2B21A60052001F0B6F901F056F9FA235B00181C01F08BF9012001F05EF91E4B1F4A5E
:400100001A601F4B8022D2051A601E4B1E4A1A601E4B1E4A126808218A431A60FA23DB00181C01F0F3F81A4B181C01F093F9194B194A1A60194B1A4A1A601A4BC0221201E7
:400140001A60164B184A1A60184B802212061A60174B41221A60174B40221A60024B00221A60BD4680BDC046300010402CFF0B4028FF0B40D9F1FF0F04010B40060000806F
:400180000C020B407C002E406A2D00006CF02E40DC05000004030140006F17000000014041FF00800003014040FF008008010B401C0101400401014080B582B000AF72B6B2
:4001C0004B4B00221A60FB1D00221A7023E0FB1D1A78131C5B009B185B00464A9B183B603B681A78597809020A43997809040A43DB781B0613431A1C3B6819795B791B02F7
:400200000B439BB2101C191C00F07CFAFB1D1A78FB1D01321A70FB1D1B78012BD7D9364A364B101C191C00F07DFA354BEE2212061A60344B992212041A60334BC0229205AA
:400240001A60324BD82212041A60314B20221A60304BC42292021A602F4B20221A602F4BC0221A602E4BB022D2031A602D4B8022D2011A602C4BC0221A602C4BD8221204EF
:400280001A602B4B992212041A602A4B992212041A60294B992212041A60284B992212041A60274B802212061A60264B254A1278D2B202210A43D2B21A70234B224A127850
:4002C000D2B23C218A43D2B214210A43D2B21A701C4B1C4A1278D2B216210A43D2B21A70FFF7ECFE00F05EFABD4602B080BDC0466CF02E400418010010180100181801006E
:400300000000024000010240000302400800044000010440080104401801044000020440080204400C020440000304400803044000500F4010500F4020500F4030500F4060
:4003400038500F4000700F4001700F4010B5064C2378002B07D1054B002B02D0044800E000BF0123237010BD1804002000000000F015010008B5084B002B03D007480849C6
:4003800000E000BF07480368002B03D0064B002B00D0984708BDC04600000000F01501001C040020C80000200000000080B586B002AF786039607B68412B6CD87B689A0025
:4003C000374BD3181B689F46002000F0F1FA002000F0FCF9002000F0D1FE5DE0314B181C01F036F9012000F0F1F955E03B681B78012B10D1012000F0E9F9002000F0F6FED2
:4004000000F088FE00F018FF00F064FA00F004FA01F04EF840E03FE0234B181C01F018F93AE0224B181C01F013F935E03B68FB601F4B181C01F00CF9FB681B78391C083106
:400440001C4A081C032101F0C9FA3B1C0833181C01F0FEF8184B181C01F08CF81CE0174B181C01F0F5F8164B1A78164B00210091101C01211A1C00230AF0B8FD031C002B4B
:4004800004D0114B181C01F0E3F805E00F4B181C01F0DEF800E0C046BD4604B080BDC046D4160100001601001816010034160100501601007C16010080160100841601004A
:4004C00034250020CC000020A4160100C016010090B583B000AF62B600F00AFE01F034F8154B181C01F0B4F8BC1D144B181C00F017FA031C2380BB1D1B88002B02D00020B9
:4005000000F07AFF0E4B181C00F04AFB01F082FE7B1D0C4A12781A707B1D1B78002B09D07B1D1B78012B05D0032001F06BFE00F0A5FFEBE7EAE7C046DC170100AD03000064
:40054000490500002E25002080B584B000AF786039607A68C2235B009A421DD13B68FB60FB685B681A683B1C0B3312781A703B1C0B331B78012B07D0022B09D0002B0BD1BE
:40058000002000F0FBFD07E0642000F0F7FD03E0C82000F0F3FDC046BD4604B080BDC04680B500AFFEE7C04680B584B000AF7860104B1A687B68D3181A1C0F4BD21A8023B0
:4005C000DB009A4209DC0B4B1B68FB60094B1A687B68D218074B1A6007E001F0B3F9031C0C221A6001235B42FB60FB68181CBD4604B080BDE00000204025002080B586B0DA
:4006000000AF224B7B61224B3B61204B7B6135E03B691B68FB603B695B68BB603B699B683B6000237B600CE0FB681A68BB681A60BB680433BB60FB680433FB607B68043327
:400640007B607A683B689A42EED13B69DB683B6000237B6008E0BB6800221A60BB680433BB607B6804337B607A683B689A42F2D13B6910333B617B69013B7B617B69002B3C
:40068000C6D101F065F9FFF723FFFEE701000000A41C010080B582B000AF154B144A126801218A431A6000237B600FE07B68032B04D8104B7A689200D35800E00E4B0F4A78
:4006C000796889008B507B6801337B607B682F2BECD9FFF771FD0A4B00221A60044B044A126801210A431A60BD4602B080BDC0460000104000000000A1050000000000205E
:40070000C000002080B582B000AF786039607A683B68101C00211A1C01F058F9BD4602B080BDC04680B586B000AF7860396000233B6100237B612EE07B699B007A68D3186D
:400740001B68BB603B1C0F33BA681A70BB68FF229343BB6017E03B695B003A68D3181B781A1CBB68D3183A69520039688A1852781A703B6901333B613B1C0F331A783B1C85
:400780000F33013A1A703B1C0F331B78002BE2D17B6901337B617B69012BCDD9BD4606B080BDC04680B500AF054B03221A60054B03221A60044B00221A60BD4680BDC0468F
:4007C0003000304030003140000E3F4080B584B000AF021CFB1D1A700E4B1B68DAB23B1C0F3340218A431A70FB1D1B789B01DAB240231340D9B23B1C0F333A1C0F321278CC
:400800000A431A70034B3A1C0F3212781A60BD4604B080BD0003044080B500AF00F050F8054B181C00F00EF8032000F017F800F03DF8BD4680BDC0463D08000080B500AF71
:40084000BD4680BD80B582B000AF7860024B7A689A64BD4602B080BD0000002090B585B000AF021CFB1D1A701623FB603C1C0B3400F003FD031C23700A4B0A4A11680A4ADF
:400880001140FA1D1078FA68041C9440221C0A431A603B1C0B331B78181C00F0F2FCBD4605B090BD00E400E0FFFF3FFF80B500AF024B04221A60BD4680BDC04600E100E0D6
:4008C00080B500AF024B04221A60BD4680BDC04680E100E080B500AF024B04221A60BD4680BDC04680E200E080B500AF064B00221A70064B00221A70054B00221A7000F07D
:4009000009F8BD4680BDC04637250020302500203625002080B500AF00F03EF9BD4680BD90B585B000AF78603B1C0E3301221A80194B1B78002B04D1FFF7D6FF164B01221D
:400940001A707B68002B1FD0144B7A681A603C1C0E34134A134B101C191C172201F070FC031C23803B1C0E331B88002B0CD10E4B01221A703C1C0E340C4B181C0E210D225B
:400980000CF018FA031C23803B1C0E331B88181CBD4605B090BDC0463804002028250020B90D0000400400202E2500200C19010090B585B000AF021CFB1D1A70294B1B7871
:4009C000042B42D1284B1B78DBB21A1C042313403BD1FB1D1B78002B0BD1244B1E221A82224B5B6820221A80204B5B6830225A8010E0FB1D1B78012B0CD11C4B96221A82A4
:400A00001A4B5B68C822D2001A80184B5B688022D2015A80164BFA1D12781A703C1C0E34124B181C0AF028FC031C23803B1C0E331B88002B08D10C4B1B78DBB204221343FA
:400A4000DAB2094B1A7005E004E03B1C0E33832252001A803B1C0E331B88181CBD4605B090BDC0462E25002037250020380100203625002080B584B000AF78600A1CFB1CB0
:400A80001A700023BB60BB68002B20D07B689A79BB681A703B1C0F3300221A7012E03B1C0F331B780133BA68D3183A1C0F32127879688A5C1A703B1C0F331A783B1C0F33B3
:400AC00001321A703B1C0F331B78052BE7D9BD4604B080BD80B582B000AF78607B681B781A1C7B6801331B781B029BB213439BB2181CBD4602B080BD90B585B000AF7860B1
:400B00003B1C0F3300221A707B689A890B239A4237D17B681A1D7B683C1C0F34101C00211A1C40230CF05EF9031C23703B1C0F331B78002B1DD17B685B68181CFFF7CAFFF7
:400B4000031C1A1C022313409BB2002B08D0104B1B68822251007A68081C111C984708E00B4B1B680622111CFF317A68081C111C9847084B1B78DBB201229343DAB2054BD3
:400B80001A703B1C0F331B78181CBD4605B090BD282500203725002080B500AFBD4680BD80B582B000AF7860024B7A681A60BD4602B080BDD810002080B584B000AF3B1C39
:400BC0000F3300221A700E223B1C1A813B1C3A1C0F321A603B1C01229A803B1C181C0021002200230CF0FEF8BD4604B080BDC04680B584B000AF78601F4B1B68002B38D0FC
:400C00000E227B689B899A4233D17B681B89012B2FD17B685B681B78022B2AD87B681A1D7B68101C00211A1C40230CF0DBF8031C002B1ED13B1C08337A6812881A803B1C98
:400C4000083300229A707B681A1D3B1C08335A60094B1B68C22251003A1C0832081C111C9847064B1B78DBB201229343DAB2034B1A70BD4604B080BDD81000203725002095
:400C800090B585B000AF78603C1C0F347B68181CFFF732FF031C2370144B1B78DBB21A1C012313401FD13B1C0F331B78002B16D03B1C083312229A707B689A893B1C0833E7
:400CC0001A803B1C08333A1C0F321278DA707B683A1C08321868111C0BF0F4FB03E07B6818680BF043FCBD4605B090BD3725002080B582B000AF7860BD4602B080BDC0466C
:400D000080B500AF044B00225A70034B00221A70FFF752FFBD4680BD3425002080B582B000AF7860BD4602B080BDC04680B500AFBD4680BD80B584B000AF78603B1C0E3308
:400D400000221A707B689B79002B1CD13B1C0F3300221A7012E03B1C0F331B787A68D35C002B04D03B1C0E3301221A700BE03B1C0F331A783B1C0F3301321A703B1C0F33FB
:400D80001B78052BE7D93B1C0E331B78181CBD4604B080BD80B582B000AF021CBB1D1A80BD4602B080BDC04680B582B000AF7860BD4602B080BDC04680B584B000AF021CA3
:400DC0003960FB1D1A709D4B1B78DBB201221343DAB29A4B1A70FB1D1B78712B00D912E19A00974BD3181B689F463B1C0C3307221A703B1C0C3300225A703B1C0C33181CC5
:400E000002F0DCFC3B1C0C3307221A703B1C0C3301225A703B1C0C33181C02F0CFFC894B1B68181CFFF786FF031C002B11D0854B1B68181C01F0F2F9824B1B68181C00215C
:400E4000FFF718FE7F4B1B68181C0121FFF712FE0DE07D4B181C01F0E1F97B4B181C0021FFF708FE784B181C0121FFF703FE04200AF09EF8754B04221A70C5E03B68181C42
:400E8000FFF74CFFC0E03B681A78714B1A70BBE06A4B1B78DBB21A1C202313400ED16D4B1B78102B02D16B4B0522DA706A4B1A78684B101C191C0AF0A9F9A5E0A4E03B6898
:400EC000181CFFF771FF9FE03B68181CFFF76CFF5E4B02221A7097E05C4B04221A7093E05A4B1B78022B34D0544B1B78DBB21A1C012313402DD0514B1B78DBB21A1C04231E
:400F000013400BD0514B03221A704C4B1B78DBB204229343DAB2494B1A701AE0474B1B78DBB21A1C082313400BD0484B04221A70424B1B78DBB208229343DAB23F4B1A7010
:400F400007E0424B1B78032B03D1404B04221A705AE059E03B681B88181CFFF71BFF53E03D4A3B68111C1A1C0223081C111C1A1C00F023FD384B1B785A00384BD318384A54
:400F8000111C1A1C0223081C111C1A1C00F015FDFFF7CCFE38E0FFF7B3FE35E03B685B88162B05D83B1C0E333A6852881A8003E03B1C0E3317221A803B683A1C0E32128819
:400FC000198800230904090C1B0C1B040B43181C111C0BF083FA17E03B68181CFFF750FE12E0164B1B78DBB21A1C0123134004D03B68181CFFF7FCFD06E005E03B68181C30
:40100000FFF776FE00E0C0460C4B1B78DBB21A1C112313400FD0094B1B78DBB201229343DAB2064B1A700F4B1B68FA1D11783A68081C111C9847BD4604B080BD37250020BA
:40104000801A0100540100204C0100202E250020302500207401002034250020001901002C2500202825002080B500AF0F4B8022D2041A600D4B0D4A12681A60002000F022
:4010800061F80A4B094A12681A60094B0C221A60002000F09FF8074B31221A60C82000F05FF8002000F06AF8BD4680BD00012040240120402801204090B583B000AFFC1DE9
:4010C00000F0DBF8031C2370084B084A126801210A431A60FB1D1B78181C00F0D2F80120182100F059F8BD4603B090BD0000204080B500AF064B1B78002B04D1FFF7B4FF6B
:40110000034B01221A70FFF7D7FFBD4680BDC046DC10002090B583B000AFFC1D00F0ADF8031C2370064B064A126801218A431A60FB1D1B78181C00F0A4F8BD4603B090BD1D
:401140000000204080B582B000AF7860034B7A681204120C1A60BD4602B080BD0801204080B582B000AF7860034B7A681204120C1A60BD4602B080BD1401204080B582B04E
:4011800000AF7860034B7A681204120C1A60BD4602B080BD0C01204090B585B000AF786039603C1C0F3400F068F8031C2370084B3A687968081C9040021C1A603B1C0F3339
:4011C0001B78181C00F05DF8BD4605B090BDC0460800204080B582B000AF7860024B7A681A60BD4602B080BD3801204080B584B000AF021CFB1D1A700E4B1B68DAB23B1CB7
:401200000F3340218A431A70FB1D1B789B01DAB240231340D9B23B1C0F333A1C0F3212780A431A70034B3A1C0F3212781A60BD4604B080BD0002044080B582B000AF094B82
:401240001B68DAB2FB1D7F218A431A70054BFA1D12781A60FB1D1B78DB09DBB2181CBD4602B080BD100204400230800803D00138FDD1C046C046C0467047EFF3108072B656
:40128000704780F31088704780B500AF0B4B0B4A126801218A431A60094B094A126830218A4310210A431A60054B054A126807218A4301210A431A60BD4680BD00F02E4077
:4012C00000FF2E4080B500AF0E4B0E4A126802218A431A600C4B0C4A126807218A4302210A431A60084B084A126830218A4320210A431A60034B034A126801210A431A60BF
:40130000BD4680BD00F02E4000FF2E4080B584B000AF78600023FB60154B154A126801210A431A60134B144A1A60144B134A1268802109020A431A607B68002B13D010230F
:40134000FB600DE0012000F085F800F019F8031C002B02D00023FB6005E07B68013B7B607B68002BEED1FB68181CBD4604B080BD60F02E4078002E400220000010002E4081
:4013800080B500AF034B1A6801231340181CBD4680BDC0460C002E4080B500AFFFF774FF044B044A1268802109060A431A60BD4680BDC04600F02E4080B584B000AF78609F
:4013C0000C4B1A6801231340FB607B68002B02D0012B03D005E0FFF757FF06E0FFF772FF03E0002000F008F8C046FB68181CBD4604B080BD00F02E4080B582B000AF021CCF
:40140000FB1D1A7001BEBD4602B080BD80B582B000AF786008E00C4B1B68181CFFF724FF7B680A4A9B187B607A6880231B029A42F1D8074B1B687A685343181CFFF714FFC6
:40144000BD4602B080BDC046840100200080FFFF7C01002080B582B000AF021CBB1D1A80BB1D1B88044A12785343181CFFF7FCFEBD4602B080BDC0468001002090B583B0F0
:4014800000AFFC1DFFF7F9FE031C2370074B074A126804218A431A6030BFFB1D1B78181CFFF7EFFEBD4603B090BDC04610ED00E090B583B000AFFC1DFFF7DFFE031C2370E0
:4014C000114B114A1268802109060A431A600F4B0F4A128892B21A600E4B0E4A126804210A431A600C4B0C4A1268FF218A43F1210A431A6030BFFB1D1B78181CFFF7C1FEB2
:40150000BD4603B090BDC04600000B400C000B4050F1FF0F10ED00E02C000B4080B500AF00F03EF8BD4680BD80B500AF054B054A1268802109060A431A6000F017F8BD469D
:4015400080BDC0460000244080B500AF064B1B78002B04D1FFF7E2FF034B01221A70FFF7E3FFBD4680BDC046E010002080B500AFBD4680BD80B582B000AF7860C046064B93
:401580001A681F231340082BF9D0044B7A681A60BD4602B080BDC046080224404002244080B500AF184B194A1A60194B00221A60184B01221A60184B184A1A60184B072272
:4015C0001A60184B00221A60174B01221A60174B124A1A60164B00221A60164B04221A60154B00221A60154B00221A60144B00221A60144B00221A60134B00221A60134BF7
:4016000000221A60BD4680BD000024400F00000240002440480024400003244007000080040324401003244044002440000224400402244050002440880E2440C80E2440D9
:40164000480F2440080F2440C80F2440880F244080B584B000AF78600023FB6009E07A68FB68D3181B78181CFFF784FFFB680133FB607A68FB68D3181B78002BEFD1BD4694
:4016800004B080BD80B582B000AF78600A1CBB1C1A80BB1C1A887B681A60BD4602B080BD80B582B000AF78600A1CBB1C1A80BB1C1A887B681A60BD4602B080BD80B582B038
:4016C00000AF021CBB1D1A80BB1D1B88181CFFF7C1FEBD4602B080BD80B500AF00F068F8BD4680BD80B500AF00F06CF8BD4680BD80B500AF00F066F8044B181C00F024F8A8
:40170000002000F02DF8BD4680BDC046D917000080B500AF024B181C00F004F8BD4680BDD917000080B582B000AF786000F04AF87B68181C00F008F8002000F011F800F08D
:4017400037F8BD4602B080BD80B582B000AF7860024B7A681A67BD4602B080BD0000002090B585B000AF021CFB1D1A700623FB603C1C0B34FFF781FD031C23700B4B0B4AC3
:401780001268C021101C8843011CFA1D1078FA68041C9440221C0A431A603B1C0B331B78181CFFF76EFDBD4605B090BD0CE400E080B500AF024B802252011A60BD4680BD4E
:4017C00000E100E080B500AF024B802252011A60BD4680BD80E100E080B500AF0FF0F4FEBD4680BD002934D00123002210B488422CD301242407A14204D2814202D2090148
:401800001B01F8E7E400A14204D2814202D249005B00F8E7884201D3401A1A434C08A04202D3001B5C0822438C08A04202D3001B9C082243CC08A04202D3001BDC08224354
:40184000002803D01B0901D00909E3E7101C10BC7047002801D00020C04307B4024802A14018029003BDC046D90000000029F0D003B5FFF7B9FF0EBC4243891A1847C046FA
:40188000002941D010B4041C4C40A44601230022002900D54942002800D5404288422CD301242407A14204D2814202D209011B01F8E7E400A14204D2814202D249005B0000
:4018C000F8E7884201D3401A1A434C08A04202D3001B5C0822438C08A04202D3001B9C082243CC08A04202D3001BDC082243002803D01B0901D00909E3E7101C6446002C99
:4019000000D5404210BC7047002806D003DB0020C043400801E08020000607B4024802A14018029003BDC046190000000029EBD003B5FFF7A7FF0EBC4243891A1847C046FF
:401940007047C046014B18687047C0461404002070B50E4B0E4D0024ED1AAD101E1CAC4204D0A300F35898470134F8E710F088F9084B094D0024ED1AAD101E1CAC4204D03D
:40198000A300F35898470134F8E770BD8C1C01008C1C01008C1C0100941C010030B50023934208D0C55C0133CC18013C2478A542F6D0281B00E0002030BD10B5002393420C
:4019C00003D0CC5CC4540133F9E710BD031C8218934202D019700133FAE770470CB430B5164B9DB00C1C1D6804D58B2301202B6040421DE0822302A99B008B8100230290E0
:401A000008619C4200D0631E8B604B6101235B42CB81209A21AB281C019300F071F8421C01DA8B232B60002C02D0029A002313701DB030BC08BC02B01847C0461404002035
:401A4000F0B58D6885B0071C0C1C03920193AB4245D390228B89D20013423DD062690326564309692068F20F401A96190290021C0198013212187610964200D2161C381C37
:401A80005A050FD5311C00F021FB051E13D0029A2169FFF792FFA289184B134080221343A38111E0321C00F065FB051E0CD1381C216900F0C3FA0C233B60A3894022134312
:401AC0000120A381404217E0029B2561ED1825606661019DF61AA6600198A84200D2019D2A1C2068039900F090FAA2680020531BA36023685D19256005B0F0BD7FFBFFFF2E
:401B0000F0B59FB0039005938B890E1C171C19060FD53269002A0CD1402100F0D7FA30603061002803D103990C230B60C9E04023736106AD00236B6120236B763023AB76E1
:401B40003C1C2378002B03D1E21B029211D003E0252BF9D00134F4E70398311C3A1C029BFFF76EFF013000D1A6E06969029A8B186B612378002B00D19EE0012252426A60BC
:401B80006A4600235B3201342B60EB60AB601370AB654E4F2178381C052200F02BFA002807D0C71B2B680120B840184328600134EFE72B68D90603D56A4620215B32117092
:401BC0001A0703D56A462B215B32117022782A2A01D0099B0EE0059A111D12680591002A01DB099204E05242EA60022213432B60013409E02278303A092A04D80A214B4362
:401C000001349B18F6E7099323782E2B18D163782A2B09D1059B02341A1D1B680592002B0DDA01235B420AE0013400232278303A092A04D80A214B4301349B18F6E70793F5
:401C4000234F2178381C032200F0D4F9002806D0C71B2B684020B84018432860013421781C480622671C297600F0C4F9002812D0194B002B06D1059B0722073393430833C8
:401C8000059314E005AB00930398291C321C134B00E000BF07E005AB00930398291C321C0E4B00F091F804900499013104D06A69049953186B6143E7B3895A0601D40B98E4
:401CC00001E0012040421FB0F0BDC0464A1C0100501C0100541C010000000000411A0000F7B5151C01930A698B68061C0C1C934200DA131C221C2B6043321278002A01D07C
:401D000001332B602068800602D52B6802332B60216806270F401FD0231C43331B785A1E9341226892061FD5E11840313020C870211C5A1C45310978A21840320233D170D0
:401D400012E0221C301C019919320123089FB847013011D0009F01370097E0682968009F431A9F42EDDBD7E7221C301C01994332089FB847013002D10120404223E020680B
:401D800006212B68E26801400025042903D1D51AEB43DB171D40A26823699A4201DDD31AED1800270097009FAF420BDA221C301C01991A320123089FB8470130DCD0009F21
:401DC0000137EFE70020FEBDF0B50D1C8BB0433506920590079304950B7E0C1C109A6E2B00D1A7E011D8632B22D009D8002B00D1B0E0582B00D0C0E045310B707B4D4EE01D
:401E0000642B1CD0692B1AD0B7E0732B00D1A5E009D86F2B29D0702B00D0AEE00E68202333430B6036E0752B1FD0782B32D0A4E013680D1C191D423511601B689FE02168FC
:401E400013680E0603D5191D11601E6805E04806F9D5191D116000215E5E644B002E3BDA049D2D2276422A7036E0216813680E0603D5191D11601E6804E04806F9D5191DAC
:401E80001E881160594B227E039308276F2A1ED00A271CE0231C78214533554D197011682368081D039510601E0601D50E6802E05806FBD50E88D90702D5202213432360BA
:401EC0001027002E03D1226820239A432260231C002243331A7001E003930A276368A360002B03DB2568042295432560002E02D1049D002B0ED0049D301C391CFFF7B6FCF8
:401F00000398013D435C301C2B70391CFFF76AFC061EF1D1082F09D12168C90706D5626823699A4202DC013D30232B70049E731B23612AE0086813684969050604D5181DB6
:401F400010601B68196005E04606F8D5181D10601B68198000232361049D16E01368191D11601D68281C00F03DF963682061984200D923612069606004E0251C42352B70E4
:401F800001232361049E00233370079E05980096211C09AA069BFFF7A3FE013002D10120404221E02A1C059806992369079DA8470130F4D02668B60705D4099BE0689842E9
:401FC00012DA181C10E00025E0680999431A9D42F3DA221C0598069919320123079EB0470130DCD00135EFE70BB0F0BD5B1C01006C1C0100C9B28218904204D003788B42DF
:4020000002D00130F8E70020704770B5814201D300230CE08C18A042FAD28518131C013B0BD351426618F65C6918CE54F7E7934203D0CC5CC4540133F9E770BD30B50029C9
:4020400040D004390B68002B00DAC9181E4A1368141C002B02D14B60116033E099420FD208680A189A4205D113685268C01808604A6000E04B60216024E08A4203D8131C75
:402080005A68002AF9D11D685C198C420BD10968691858181960904214D114685268091919605A600EE08C4202D90C23036009E008680C18944203D11468526800190860A2
:4020C0004A60596030BDC0462425002070B50323CD1C9D430835061C0C2D01D20C2501E0002D3FDB8D423DD3204B1C681A1C211C002913D00868431B0DD40B2B02D90B60D1
:40210000CC181EE08C4202D1636813601AE0486860600C1C16E00C1C4968E9E7144C2068002803D1301C00F04BF82060301C291C00F046F8431C15D0C41C03239C4384421C
:402140000AD12560201C0B300722231D9043C31A0BD05A42E25008E0211A301C00F030F80130EED10C233360002070BD2425002020250020F8B5061C0C1C151C002904D14C
:40218000111CFFF7A3FF041C18E0002A03D1FFF755FF2C1C12E000F02CF8A8420ED2301C291CFFF793FF071E07D0211C2A1CFFF704FC301C211CFFF741FF3C1C201CF8BD4C
:4021C00038B5074C0023051C081C2360FEF7ECF9431C03D12368002B00D02B6038BDC046382500200023C25C0133002AFBD1581E704704390B68181F002B02DAC8581B1845
:40220000181F704710B501F05FFA10BD10B501F071FA10BD10B500F0DBF810BD10B50749044609780220002907D1204601F088FA002802D1204608F0CBFF10BD9A02002009
:40224000F7B51F4E0024307815460F46002804D00824B76075802046FEBD002F00D1012401F048FA0098002805D0172D03D301204002854201D90124EBE7002CE9D129461D
:40228000384600F023F80400E3D1706800F01CF80400DED1706800F015F80400D9D101F031FA0400D5D1009806F028FB0400D0D106F03AFB0400CCD101203070C9E7000072
:4022C000880100200020704700207047F8B50D4607460026FFF71CFAFFF704FA00F02EFA040065D100F0B8FB040061D13449084600F0CCFD0404240C5AD1A80705D0A807CF
:40230000800F0421081A401985B2172D02D968002E3886B22B48301881B2384601F0B8F8040045D1284F03460246002825D127495E008E5B294610318E4207D99000C01945
:4023400041800221521C4170D2B215E08E420BD10020787690001D49C0194680891FC95C891C4170012012E0052A06D1164806461436418302207071012014495E008E5BD6
:402380009100C9194E80114EB61FF65C4E705B1C521CDBB2D2B2062BC7D30B4800F06CF8002C05D100F084F807490120891E087000F0D6F9002C01D0FF20F8BD0020F8BDCD
:4023C000E5230000940C000096010020061D010010B503480078012801D100F0E9FE10BD940100207047000010B5011F0878034A8000105800F0ECFF10BD0000E81000206D
:4024000010B5044604498000085800F04FFF002801D00470001D10BDE810002038B5044692B2C9B2684600F067FF024AA1000098505038BDE810002070B50B4906460020A2
:402440004C6805466178002908D06188B14202D32078FFF7D5FF002804D1241D6D1CEDB2082DEFD370BD0000B801002010B5002801D0FFF7B9FF10BD70B50B4E04460025E7
:4024800070606178002905D062882078121D0023FFF7C4FF6D1C241DEDB2082DF1D3024800F0E8FFB06070BDB8010020002070471CB5002469460C70142001902346054ADB
:4024C00005480CF001FC04480068401C00D1FF2420461CBD2D250000C40100203EB5124A0146FF2000230124126800290DD0012914D0042908D104206946009308814B81D0
:4025000010460CF0DCFB80B23EBD6846009304814381694610460CF0CDFBF4E768460093048143816946EBE7C401002070B54589046841680089030000F026F8062404084F
:40254000081D2124002005F0AFF91BE0022908D0C8B22A4621460AF0A3FE2046FFF786FF10E002202A4621460AF09AFE2946204600F018F806E000200CF09AF802E020463D
:402580000CF028FC002070BD30B47446641E2578641CAB4200D21D46635D5B00E31830BC18470000014B0022DB681847C801002070B5448905680089022803D0032809D00C
:4025C000FF2070BD2246094C0023A46829460120A04708E0FFF71AFE241DA2B200232946022006F06EF8002070BD0000C8010020704700000248002141600180418070479F
:40260000C801002070B50C46002186B016460391012802D0022859D116E003A9012006F0A8F801281BD1039D324621462846FFF7C4F90095287801900220694608814E81A7
:402640006846FFF7B5FF41E0214D002B686809D0049004A9022006F08CF801281DD0022006B070BD002812D0298840182146FFF7A4F928880024801980B228806988091D3C
:40268000884206D12C801348FFF792FF03E00320E6E788421AD96C6018E004986860E278A378110219430B4A698000231060E3565360032313815181A1788170E178C17072
:4026C0006178417021780170042028800020C7E7C8010020081100203EB515460C46022803D004280CD000203EBD0091019002206946088107484A8100680CF0E0FA07E00F
:402700000AF0CEFD044B0022DB6829462046984701203EBDC4010020C8010020014AD16090607047C8010020034801688068081A0A214843000970471411002010B5FEF743
:40274000D7FF542204490548FFF737F903490120C870002010BD0000161D01006413002010B5FEF7B9FF10BD70B5134C2368002B08D0207B1149C20705D0400840002073F1
:402780008868A08070BD88680B4AA18880B29268814203D90A4D691A091802E0814202D2411A5118A160A080A0689842EAD300F015F80CF0A1FA70BD14110020C0102E4067
:4027C000FFFF000010B508461946FFF7A7FF10BD704710B5FFF780FF10BD000003480021016041608160C160704700001411002010B502000DD0FFF7F1FF074C0321207B3A
:402800000843207310010A21FFF730F82060002010BDFF2010BD00001411002000B504480A21806848430209FFF7D8FF104600BD141100200248007B8007C00F7047000021
:402840001411002070B558490868002802DA574B01221A70022290430860554800695249C00B4031096A08426CD0012000F0BAFA4F4850497C30FEF713FF4B480E216C304F
:40288000FEF70EFF4A4820218430FEF709FF484814219C30FEF704FF4548FF21C131A430FEF7FEFE4248FF212F31B030FEF7F8FE3F484149BC30FEF7F3FE3D483F49AC3004
:4028C000FEF7EEFE3D493A48491CB430FEF7E8FE37483B49B830FEF7E3FE35483949CC30FEF7DEFE324838490830FEF7D9FE30483649A830FEF7D4FE2D4835498830FEF709
:40290000CFFE2B4833498C30FEF7CAFE28481921C9029030FEF7C4FE2F4D287E697E0C020443A87FE97F2D4A090201432C48914201D1072C08D035229201914208D1042CD9
:4029400005D005E0FF2070BD0146042400E0014617486C30FEF7A4FE154821467430FEF79FFEA87EE97E0902014301204003814201D0002900D11B490D487830FEF790FE7D
:402980002A7F687F010218481143814204D01748814201D0052901D113490A3904488030FEF77EFE002070BD00F02E40D801002000002E4055650000320300002F3F0000CB
:4029C0003102000010520000EC160000FA12000031D000003AE30000C0F0FF0F580B0000580D0000022000000F0F00000505000070B50646581C80B245086D00002408E069
:402A0000304600F07FF81055000A1119A41C4870A4B2AC42F4D3D80705D0D0182038D15CC47FD454C17770BD30B50A4C002100195B1E07E0541864782502545C2C430480C5
:402A4000891C89B29942F5DB994201D1515C018030BD000000102E4010B5FF2000F0C2F90F49FF2048700E481021801D41800121417001700A490020C91C4870FFF7E2FEB8
:402A800004000AD100F0DEF807210648FEF7FAFD044807211830FEF7F5FD204610BD0000D8010020CC112E4030B504465B1C1804450C002308E0204600F024F8241D5900CB
:402AC0005B1CA4B250529BB2AB42F4D330BD000070B500210A4D5B1E0AE0541864782602545C344346193480001D891C80B289B29942F2DB994202D1515C4019018070BD96
:402B000000102E40014940180088704700102E40014A80180180704700102E4010B50B490020487000F08EF8002000F081F9002000F06EF907210648FEF7A4FD0448072137
:402B40001830FEF79FFD002010BD0000DB010020CC112E4010B506480078012803D102210448FEF79DFD02490020C91E087010BDDB01002070F02E4010B50B46062812D03B
:402B800006DC01280CD0032801D1FFF7C7FF10BD0A28FCD00B28FAD105480078107010BDFFF75AFF10BD1146184600F05DF910BDDE010020F8B5204DAC6A0127A0071F4E4B
:402BC000002816DA307806280ED1286A384328621B480069F903084381B219481030FEF75FFD042000F0FEF8134802212830FEF749FDE00711D0062000F0F4F80F49FF20DD
:402C0000C91E48707078002802D1686B38436863094801212830FEF735FDE0050BD53078042802D1052000F0DDF80348FF2101312830FEF727FDF8BD40F02E40DB01002054
:402C400000002E4010B503212348FEF729FD0120FEF734FD20483038406A204C80076178800F890001431C480C38FEF719FD6078002808D0401E022181401820FEF756FE40
:402C8000C000083800E0B82081B21548FEF708FD1348032109021438FEF702FD10481149B830FEF7FDFC452189010F48FEF7F8FC0D480321001FFEF7F3FC0C490C48FEF736
:402CC000EFFC0B480B496038FEF7EAFC084801218838FEF7E5FC10BD70F02E40DE010020D8102E4090890000041E2E40FF0F000058122E4020900000044800684007400F4E
:402D0000022801D0002070470120704700010B4000B5FFF7F1FF002805D009480168C908C900016000BD0748016A490849000162054801690122D2039143016100BD00003A
:402D400000010B4040F02E4000002E400849087806280BD148780749002803D1486B400840004863C86A01221043C86270470000DB01002040F02E40014800787047000093
:402D8000DB01002000B50300FFF7FEFB080D050D0B070507090D012000BD032000BD042000BD022000BDFF2000BD0000074A9168D26889B2064B92B2994204D105498A429D
:402DC00001D1012100E000210170704780002E4033D000003FE300000149487070470000DB01002010B50446FEF77CFC072C01D9FF2C01D102480470FEF76EFC10BD00007E
:402E0000DB0100200149487070470000D801002010B5064A012805D01921C9021046FEF73FFC10BD1D21C902F8E7000090002E4010B50A4A141D012808D009491046FEF7AB
:402E40002FFC08492046FEF72BFC10BD04491046891CFEF725FC0349491DF3E788002E4031D000003AE300000078074AFF2803D04C2804D9553803E01078087070474F38C7
:402E80000870107070470000DA01002010B50F4A002313600E4A13600E4B18600E4801600E49012008600E490860000290600E490C4808600D4914300860FF381538506087
:402EC00000F0BCF800F0CAF9002010BDFC010020E4010020100200201402002000020020F001002024120020F401002008020020014610B50020002910D0094B1A689C682D
:402F00005118A14209D25868196080188A0704D08A07920F891A091D196010BD002010BDE4010020F8B50024164E671E321F3D463168136806E01422624310328A58521C0C
:402F40001BD0641C9C42F6D36A1C14D02C461422544322460C3288500C214843FFF7C8FF3168002808510AD031680020103408517068401C70602846F8BD2546E4E738467E
:402F8000F8BD0000F4010020F3B50026F64381B000281BDB1E490968884217D80299002914D01B4F142204463F1D54432546396810354859401C09D0FEF794FB38682F1F42
:402FC0004159C359994203DBFEF786FB3046FEBD214608310091465801590C20704308180C220299FEF7E9FC0948761C001D0068C159B14200D100260549009A091D8650A0
:4030000008684159491C4151FEF766FB0020FEBDF0010020002803DB07490968884202D90020C043704704491422091D096850431030085870470000F0010020F0B500202D
:403040000D4A451E0346171F50600FE014260146714314680E1DA3510C461668083433511668083435511468401C635039688842ECD30020F0BD0000F4010020F3B5002673
:40308000F64381B0002841DB2349096888423DD8029900293AD0204F142204463F1D54432546396810354859401C2FD0FEF71AFB3868415900292BD0211D009146580C21A7
:4030C000005971430F46C1190C220298FEF775FC11480021001D0068761C00590C34C0190160416081600C48001D00680159B14200D100260849009A091D86500868415972
:40310000491E4151FEF7E8FA0020FEBD3046FEBDFEF7E2FAFAE70000F0010020FEB504460D4600201E49089E0860471E009001900290002C11D0486885420ED2002A0CD089
:40314000002E0AD0642E08D808460C3001681C2068430C18207A002801D03846FEBD0120226020721846FFF7DDFE6060401C13D06681A6810A4827610C3067610179A94257
:4031800000D205710021684601810A462846029B00F040F82846FEBD00202072DDE70000FC01002038B50124009400F039F838BDFEB50027164EFF433D4600240EE01C202A
:4031C000316860430818017A002906D04068FFF721FF002801D0254603E0641C3079A042EDDA681C12D01C2130684D434419FEF779FA69466068FFF741FF0546FEF76CFA3F
:40320000002DD9D1216868468847D5E7FEBD00000802002038B50024009400F001F838BD1FB500220C49541E0A60002811DB496888420ED808491C220C3109685043081801
:40324000406801A9FFF7A0FE401C02D0002004B010BD2046FBE70000FC010020F0B50021114A4D1E174611710C3F0B46BD6016E008461C2460431668041D355114680646FC
:40328000235014680836A3551468361DA353044616680A34335318301468491C255078688142E5D30020F0BD0802002038B500210091002811DB0F49097888420DDA0D4D11
:4032C00004010C3529680859002807D0201D0818694600F05FF9002801D0002038BDFEF701FA28680F34015D491E0155FEF7F4F9009838BD18020020F7B582B00025ED437B
:40330000029800240E460560002A49D0002E47D02D48D21C02402D48174601780C30006805E022018258002A0FD0641CE4B28C42F7D3691C3ED02C01211D40180191314602
:4033400000F016F900282BD101E02546F1E71F480C30016820460C300F521C480C30016820460E300E5419480C30016820460F300E543846704300F0ADF814490C3109680A
:40338000002808510CD00024009011E00F480C30016801980818009900F017F9002802D0012005B0F0BD0098C019641CE4B20090B442EBD30298054905600C310879401C0E
:4033C00008710020EDE70000FCFF000018020020F8B50D4600216A468C461180002839DB23490978884235DA214B04010C3319680A59002A2ED020460C300B5A801C0E5C2C
:40340000184670438018954224D3854222D2002006E007465F43BF18AF4206D0401CC0B2B042F6D36046002814D0114E271DC8190C366A46294600F0F2F800280AD168461C
:403440000088012808D030682946C01900F0BDF8002803D00120F8BD0020F8BDFEF742F930680F34015D491C0155FEF735F9F3E71802002003460020002B06D0034A5168CD
:40348000906852884018511A198070471802002070B5002400F0DCF80D4E002132460C3271600EE0200113680546195013680C355953AD1C13680F3059551368641C19549E
:4034C000E4B230788442EDD31171002070BD000018020020014610B5002000290CD0C91C064B8A08596892005C888A18A24202D898685A60401810BD002010BD1802002069
:40350000F8B5002827DB19490978884223DA174C05010C342168485900281CD028460C30085A009028460E300E5C401C0E5420682F1DC01900F064F800280CD12068002409
:4035400045590EE0094829460C300068C01900F03CF8002801D00120F8BD00982D18641CE4B2B442EED30020F8BD00001802002030B50D4604000BD0A800FFF7ABFF6060B7
:40358000002805D000202570C0436080002030BD012030BD70B50D46040005D0002D03D00220205E002801DA012070BDFEF79AF80221615E60688900405828606088401EF9
:4035C0006080FEF789F8002070BD70B50D46040007D0002D05D002212078615E401E814201DB012070BDFEF77DF86088401C00B26080616880000D50FEF76EF8002070BD80
:4036000010B5040009D0227800216068FEF7DEF90020C0436080002010BD012010BDF0B500231D46002802D00224045F0AE00120F0BD46689F00F6598E4201D1012503E00E
:403640005B1CDBB29C42F4DA15700020F0BD0000054B11221A70054A1180064A044911600549086070470000180200201A020020541200202402002020020020014800789B
:40368000704700002C0200207CB505460024FEF7BDFDA8796946087000A8062229460130FEF78BF90021684604F05CFB0C2804D0072804D01F2804D004E0022402E0042431
:4036C00000E0272420467CBD10B502280BD0032802D0042809D102E000F0CCF805E000F09BF9FF2801D100F0ABF9FFF745FBFFF749FB10BD10B500F0D3F9FFF73DFBFFF7C5
:4037000041FB10BD10B503240BF0DEFF002810D10BF082FF00280CD105F07AF8002808D100F09AFB002804D104F076FD002800D10024024900200870204610BD2C02002060
:4037400070B50025044600280ED0A07901280BD8FEF75CFDA0790028204602D002F096FF03E002F04BFF00E00125284670BD38B504460120002C20D0617801291DD80029E7
:403780000BD0FF25E535FEF741FD2846FFF7BAF9C0B22070072803D00EE0FF25CD35F2E70020694608706846FFF700FB69460878012801D108202070002038BD70B5044669
:4037C0000120002C1FD06178012902D92278092A19D8002906D0FF25E53520780726092803D003E0FF25CD35F7E72670FEF70EFD2078082808D00020FFF71AFB217828469C
:40380000FFF786F9002070BD0120FFF711FB2670F4E7000070B50D46040001D0002000E00548002802D0012102F0DAF82946204602F03CFC70BD0000D813002038B5054649
:4038400000200446009022466946284600F09CFF0098002801D00BF019FFA878214602F0E4F9A878214602F0D3F9641CE4B2052CE9D338BDF8B5624CFFF77EFA012846D1FE
:4038800060480078002842D002F094FB0028FAD003F072FF0028F6D05B4E7078C00703D000F047FC0128EED0B07E0028E7D170780025002878D0000707D5AC20FFF722F959
:4038C000070B00F061F9384321D14F484178684603F030FE4D4F06462079B9784018C1B2B14271D802F066FB002810D0464C203402F08DF96846008802F0B9F902F062FA46
:4039000043490988884203D10120FFF76BFA74E04049012008703C48807B00282BD04034608A002827D0E07E002824D1A1200001FFF7E8F8208A4000B04218D978780028C3
:4039400015D1A12424012046FFF7DCF80221884301462046FFF7DCF8FF24F1342046FFF7D1F80321090201432046FFF7D1F83878002800D03D7002F0BDF90120FFF72CFAA3
:40398000244C08E0FDF77AFDFFF7F6F906282CD02078002829D0FFF7EFF9062825D020780128EFD021E0FFE702F004FB002824D0142002F05CF9174C0120207002F09AF9F3
:4039C0000020FFF709FA09E015E0FDF757FDFFF7D3F9062809D02078002806D0FFF7CCF9062802D020780128EFD0207801288BD1FFF78EF925700020F8BDFF20F8BD000016
:403A0000A4130020D8010020B813002032020020440200202D02002010B50848FF244078002809D102F0C6FA012805D1FFF792F80720FFF7D7F90024204610BDB813002070
:403A400038B5FFF799F9012801D0002038BD02F0B1FA00280AD0114C6078C00703D000F068FB012802D0A07E002801D0FF2038BD617800290FD0684603F05CFD022806D9F7
:403A80006846008802F0F3F8012002F039F90320FFF7A8F9D9E70020F7E70000B813002038B5FFF769F9042819D0052817D006281AD0032842D007280AD100206946087037
:403AC00002460120FFF758F8FFF756F90128FBD138BDFDF7D3FCFFF74FF90128F8D0FFF74BF90128F5D138BD02F028F905E0FDF7C5FCFFF741F9012803D0FFF73DF90128AA
:403B0000F5D1A12424012046FEF7FCFF01220E4983079B0F0A70022BE5D149880029E2D0104301462046FEF7F3FF2046FEF7EAFF410849002046FEF7EBFF38BD02F002F9E4
:403B40000120FFF74FF938BD32020020F8B50646002402F0ADFE0546304602F0C1FE00210346012632468A40174610462F401840002F03D0002801D1224394B2491CC9B29D
:403B80000529EFD32046F8BD70B500252C460A4E03E0002C01D0002000E030460079002803D02046FFF7D2FF0543641C2406240EEFD0284670BD0000D81300201CB5002075
:403BC000694648706846FFF7D2FD01AA69460A20FEF7D2FF6946042008561CBD10B50C4601F076F9002809D00179002906D0C1788078224602F008FB002010BD022010BD3C
:403C00000148007870470000A41300204030C07E002800D00120704700B500F001F800BD88214843064940186030417F491CC9B24177052901D300214177C8B2704700008D
:403C4000B813002013B501F043F904000BD001F09AFC002807D0214601AA0A310620FEF78BFF00201CBD02201CBD000010B50C4601F02EF900280AD001F085FC002806D078
:403C8000224604490A20FEF777FF002010BD022010BD00008D130020F3B581B0074601460026029802F0FCFD0446002F01D0002500E0154D002D21D0284601F03FF9032C71
:403CC00004D13946029802F015FE06463846029901F09EFF032C06D0002C10D00121384601F01AFA03E03146384602F0B7FF284601F05CFE0221284601F072FEFEBD3846C4
:403D0000029901F085FFFEBDD813002070B50446002503F0A5FB002801D00C2070BD2078611C02F06BFBFF2802D01F25284670BD02F0B8FBFF2804D02178621C01F0DAFE6F
:403D4000F4E70725F2E710B503F08AFB002801D00C2010BD02F02AFB002010BD70B50D46044610210BF0D2FB1021601806460BF0CDFB334610221946204603F09DFB102191
:403D800030460BF0C3FB02202870204604F09CF970BD70B504464078217802028006850FE0781143A67809050002090D0643084601F08EF8002812D0022D10D0032D0ED0FB
:403DC000002E08D00179092909D0002907D0214600F0A1F870BD0089002104F0AAF820460BF054FC70BD0020704770B50446002503F036FB002801D00C2070BD2078611C07
:403E000002F0FCFAFF2802D002F03EFA00E01F25284670BD10B504F0FFF900F0F6F8002010BD10B5044600786178E2780843A17811430843217908436179084305D003F0AD
:403E400001FB002803D00C2010BD122010BD204602F01CFC002010BD10B5044803F01CFC02F01CFA00F004F8002010BD74130020F8B5114D00266E706E736E716E76AE767B
:403E8000EE766E75AE70EE70AE712F46EE730120B03778723F2078719B20B87100F00AFA0024204601F036FB641C2406240EF8D03E72FE71AE73F8BDB813002070B5054698
:403EC0000E46084602F0F4FC0446304602F008FD0121A9400A46224001400A4301D0012070BD002070BD10B50446084602F0F8FC0121A140014201D0012010BD002010BD9B
:403F000010B5FEF739FF032804D101F01BFF0120FEF768FF10BD70B5044600790D4609281CD000281AD020464030817E491C8176204601F03BFDA078FFF76EFE0646024602
:403F40002946204600F00CF8002806D1A0783146FFF760FC28460BF099FB70BD0846FAE7F7B5054648780C468006870FC8788978000282B0014368468180284601F00EFB4A
:403F8000060007D021462846049A00F091FB304605B0F0BD384600F039FC0746034601AA2946204600F0CAFA68468088231DC0B20090A878FF22049902F032F86846808848
:403FC0003B46C2B2A878049902F0DCFBDFE770B5002500242846FFF7B9FD060010D03046E040C007C00F07D02146284601F003FE21462846FFF750FE641CE4B2052CEED327
:404000006D1C2D062D0EE4D070BD10B502F046F9FFF72EFF0BF0A2FB002010BDF8B5002400F081F80123012800D10124104F00203E4620360425082203E0002801D00021E4
:4040400000E031460979002907D001290BD002290BD0114681402143CCB2401C0006000EEBD07C70F8BD1C43F7E72C43F5E70000B813002010B5FFF7D1FF10BD10B50B46B5
:4040800081791943817103D08078114602F03EFB10BD10B582798A43827102D1807802F04DFB10BD70B5FF25D53502242846FEF729FD0C4A9178002901D0022906D1137864
:4040C00052789A18282A01D9032402E0032900D101244105490DE00201432846FEF718FD70BD00002E02002010B500F022F8002807D0012805D0032801D0042801D0002051
:4041000010BD012010BD014610B50020C90701D000F009F810BD014610B50020C90701D000F001F810BD10B52020FEF7EBFC000A10BD10B51820FEF7E5FC410501D50420EB
:4041400010BD4007800F10BD38B5044640060CD5684601F007FE0220FFF78CFF072002F0B9F96846007801F03FF9200613D5FFF7E0FF01280FD1684601F0F4FD684600786E
:4041800000F09AFA072002F0A5F9012001F076FC0220FFF76FFF38BD10B5034A0178117002F0A7F9002010BD2E02002010B50446FFF7B9FF002801D00C2010BDA27B0121FC
:4041C0001848002A827801D00A4301E05208520082706279012A0FD0C17849084900C170207901280CD06188208802F0A5FF2080207904280BD00DE0C2780A43C270EFE734
:40420000E01D02F02BFA0848808C208002E0E01D02F024FA054920798870204602F078F9002010BDB8130020641300202E02002038B50478FFF777FF844201D10C2038BD8A
:40424000002C18D0072069460870FFF74DFF012807D10121684600F08DF8012801D0092038BD6846007802F035F9FFF71BFF02F07FF9012010E0FFF737FF012806D1684691
:4042800001F070FD6846007800F04AFA072002F021F902F061F90220FFF7ECFE002038BD10B5034A0178517002F008FA002010BD2E02002038B568460BF07EF9002801D02D
:4042C0001F2038BD01210098C90201804180002505714571857107214173857302F018F9009C202200212046FDF770FB25702A460021601CFDF76AFB204602F0FAF8204636
:4043000002F0DCF900980BF0C1F9042200210248FDF75CFB002038BD2E0200200346084800B5834209D8184600F0D2FD002804D00089984201D1012000BD002000BD00002B
:40434000FF0E0000074A9179491C8906890E917138220A4092014907090E11430843024908407047B8130020FF0E0000C006C00E70470000F8B507460E4600240D4803E0D4
:40438000002C01D0002500E005462979002905D0641C2406240EF3D00020F8BD204601F0B9F82E712046FFF7CDFF28813C700120F8BD0000D813002010B503F0B1F8022212
:4043C000002100F003F801F011FF10BD10B5094B40074907000F090F185A595A40185043C0086421FDF742FA002800D1012080B210BD00006A1D0100F7B53D20405C88B001
:4044000016460C46002829D030786946087200252046FFF7FBFB012800D00125204603A938300191009023460327A17E34332A46206A03F04BF902A8089900900B460191A2
:4044400020463A4603A9243003F018F802466846007A3070204601F049F810460BB0F0BDFFB587B00C4605461078694608723D20005D1746002826D000262046FFF7C6FB3C
:40448000012800D00126204603A93830019100902346A17E34333246206A03F017F902A80090291D019120462B1D03A924300A9A02F0E4FF02006846007A388002D12046F8
:4044C00001F014F810460BB0F0BDF7B53C20405C88B015460C4600280CD0287869460872002806D000262046FFF790FB012803D003E01F200BB0F0BD0126204603A9383079
:404500000191009023460327E17E34333246E06903F0DCF802A8089900900B46019120463A4603A9243002F0DBFF02466846007A2870204600F0E4FF1046DBE7FFB50546B0
:404540003C20405C87B016460C46002810D0084601F024F801280BD0308869460883002809D000272046FFF751FB012805D005E000200BB0F0BD0220FBE70127204602A98D
:404580003830019100902346E17E34333A46E06903F09CF806A80090291D019120462B1D02A924300A9A02F09BFF02466846008B30806846008BA870000AE870204600F0C5
:4045C0009FFF1046D5E770B50D460446FFF71EFB01280AD0E87AA97A00020143A07801F0C3FC012808D0002070BD00222421204602F0ECFC242070BD28214C2001552046CD
:4046000000F09AFB282070BD002801D0002000E003484030C07F012800D0002070470000D81300200146002049070ED50021084B03E0002901D0002200E01A461279022AAE
:4046400004D0491C0906090EF3D0704701207047D81300200146002049070ED50021084B03E0002901D0002200E01A461279022A04D0491C0906090EF3D0704701207047C9
:40468000D813002010B5044680346068002803D00BF010F80020606010BD4030417070474030817070474030017070470171704792001018C166704770B53C2501F0F8F809
:4046C000040004D020460021433001F0EDFB2946204600F0C0FB002C02D0A07801F07AF870BD000010B5002801D0002000E00348002802D0008903F063FC10BDD813002033
:4047000010B5002801D0002000E00448002804D00179072901D100F041F810BDD813002010B501F0C5F8002802D0807801F052F810BD00207047000070B50546008A002890
:404740001ED010491122897A1140C90618D5294640314A8A098A521C4A4392B2D10800D10121540801E0621A94B2A042FBD9FEF785FF012804D1298AA878224601F0E4FC25
:4047800070BD00006413002000230B60052A04D292001018C26E0A60C366704738B5044600200090A079002814D14020015D052901D00E290ED168460AF00EFF002809D1D7
:4047C0002046009902F0EAFB03481021C28A2046FFF754FC38BD00006413002010B50B4604460146184602F0B9F8002802D020460AF056FF10BD13B5044601AA1146062085
:40480000FEF7BAF96846818861811CBD002800D10220704770470000F8B504462346401D543300909A1EA078911E01F0AAFA25464035A88A298A8000FDF718F8401E81B213
:40484000688A884203D96982A07801F0EAFF20460021433001F028FB8020FEF753F9E88102F05EFEE989891C8AB26179FFF7AEFD01F0BCFC02F054FE2A8A6179FFF7A6FD3B
:40488000074601F0A5FC688A00280BD0FF26F1363046FEF737F90321090201433046FEF737F902E0002001F0AAFFFF206130FEF729F96E8A002E0BD070431049FDF736F89D
:4048C0000004000C01D0401C80B20D49488002E00B4800214180288A704381B2A07801F0FBFE2837B9B2204602F02AFCE98AA07801F04AFEA07801F0AEF9F8BD7102000096
:40490000320200207FB504468034616805460E46183108226846FDF750F831462031082202A8FDF74AF8102168460AF0EFFD6068102108300AF0EAFD60682B4608302433BB
:404940001022694602F0B8FD7FBD10B504460821FFF79FFB10212046FFF79BFB207905281FD006281DD008281AD12189002003F09FFA072020712046FFF748F90146204645
:404980004030012913D00E21017000210176204600F02CFF2046FFF775FE2046FFF7CCFE10BD20890122002103F066FAE1E70521EAE70000FFB581B01F4604460821FFF74D
:4049C00068FB10212046FFF764FB2079082803D0092804D0042203E00422012501E009220025204600F0C6FD264600204036307022712046FFF746FE0398002D02D0012890
:404A000008D00BE001280AD120890022029903F033FA04E02189029803F04AFA012700203076012F04D0204600F0E0FE05B0F0BD02983073204602F0F5FA05460548012104
:404A4000C28A2046FFF71AFB002DEFD109202071ECE700006413002070B50C460546FFF7D5F8012809D108212846FFF712FB0023012221462846FFF79DFF70BD10B504465D
:404A800000F078FD2046FFF7FDFD00214034217010BD70B505461A24FFF7B8F8012809D108212846FFF7F5FA0023012221462846FFF780FF70BD0000F8B504460020009011
:404AC0000E4668460AF088FD002801D00D20F8BD8420005908212030009D00F0F4F920460421383000F0EFF9002E02D1204600F07FFD2946204602F0E1F90E480821C28A60
:404B00002046FFF7BBFA204600F0D7FE25464035002808D0204600F023F8002801D0092028700020F8BD08202870204600F03EFFF7E7000064130020014610B540310A46C4
:404B40000978082906D0092907D00A2901D100F091F810BD0B20107010BD00F001F810BD70B50446007925464035052805D0062803D008280FD00C2070BD03220621204646
:404B800002F024FA0D480821C28A2046FFF776FA1120287010E006202873204602F042FA0646AA8A0A20424301212046FFF766FA002E01D109202071002070BD6413002096
:404BC00038B504460020009068460AF005FD002801D00D2038BD2046009D00F08BF908202071204600F004FD2946204602F098F900213D2001550F2040210855204600F013
:404C0000D5FE002038BD00B5024600F0B3FC10214032117000BD10B50446FEF7F7FF012809D04020005D112805D100231A4606212046FFF7BFFE10BD10B5FFF786FE10BDAB
:404C400038B504460021684600910AF0C5FC00280CD12046009902F0DAF905480821C28A2046FFF70BFA0D204034207038BD00006413002038B504460021684600910AF0A8
:404C8000ABFC002801D00D2038BD2046009902F0B3F905480821C28A2046FFF7EFF90C2040342070002038BD6413002000787047F8B50025002801D0002400E01A4C002C23
:404CC00028D0204600F05FFC002823D0207903281CD005281CD026464036B18AA07801F009FDB078012815D10021204601F053FE274680373868002802D00AF0DBFC3D60CF
:404D00000020B0702079072805D007E0042000E006202071F8BD2046FFF70EFD0221204600F05EFEF8BD0000D813002010B54C22115400F046F810BD10B50446FF21FFF78B
:404D4000A8F909202071A07801F004FD10BD000038B5FF216A461180002801D0002400E0064C002C08D011460620FDF705FF684601882046FFF73FFD38BD0000D81300201C
:404D800010B504468079002809D022214C200155FF212046FFF77DF9204600F012F810BD10B5037902464032002B03D01173092B02D003E0002100E02221117300F001F8AF
:404DC00010BDFEB504460089002701902781207926464036002817D0012815D002280AD112E002AA6946204601F0A6FD002807D100980AF055FC204601F0C6FD0028F0D037
:404E00002046FEF71BFDB776254680352868002802D00AF04FFC2F606868002802D00AF049FC6F60317B002902D0019800F044F8A078002100F028FF2046FFF7BDFAA07895
:404E400001F07CF8A07800F0C5FC0B20FFF712F900F004FCFEBD70B50E46054602F05CFB044606702846FEF7D1FE014601204140204661700C3001F000F8002D10D028892B
:404E8000608028464030C1782171002E10D169796171018AE180418A2181808A608107E01820FDF72FFEC005C00F207100206080204602F0A6FF70BD0A4610B50146002057
:404EC00003F096F810BD10B50AF0FCF810BD000000B50146FFF74AFA002801D0002000E00348002802D002898A4200D0002000BDD813002038B5044680346068002806D1AF
:404F000068460AF079FB002801D100986060606838BD000010B5014600F040FB0128887802D0FEF77DFE10BD88214843024940186030007F10BD0000B813002070B50546C9
:404F400004464035A87F012811D1A1788820084A484380186030067F3046FEF7AFFF002805D10220A877A078314601F0ADF870BDB813002010B50E4CE079002816D0FFF7E4
:404F800026F80C48827FC17F808B00F06FFB01280CD10020E07100F0EEFE0446AC20FDF7B1FD010B02D0204600F00EFA10BD000068140020B813002070477047490510B5BD
:404FC000490F0B00FDF7E0FA060704080C0C0F073E21FFF7ABFE10BD0821FFF7E1FE10BDFFF7EFFE10BDFFF7CBFE10BDF8B507460025002D01D0002600E0204E00F070FE78
:405000003046403044890021418100F08FFE304600F0B9FA01282BD1A00702D52846FFF747FEE00602D52846FFF792FEA00601D5FEF7CDFF600601D500F0CCFA200602D51B
:40504000284600F01DF8600702D5284600F0FEF9380402D52846FFF753FB780402D52846FFF740FBE00703D021463046FFF7A6FF6D1C2D062D0EBCD0F8BD0000D8130020FE
:40508000F8B5002801D0002400E0204C002C39D025464035A878012834D1E98AA07801F073FA2046FEF7B2FD01282BD002F038FA2A8A6179FFF78AF9064601F089F8283619
:4050C000B1B2204602F03CF8E98AA07801F05CFAFF206130FDF716FD6E8A0D4F0146002E11D0304648430B49FCF720FC0004000C01D0401C80B27880288A704381B2A07813
:4051000001F0EAFAF8BD0020F5E70000D8130020320200207102000070B50D46124A010001D0002401E014462034002C1BD0204600F034FA01280AD18820484380186030C4
:40514000007FFEF7BBFE002801D101F0F5FE20464030817E491B8176204600F027FC2089294602F0E6FE70BDB813002070B503460088FFF7ADFE040013D000F004FA0028E1
:405180000FD02079092819D02546997840352973204601F047FF0646A878012803D0AA8A02E0022070BDEA880A20424301212046FEF764FF002E01D109202071002070BD5E
:4051C0000EB5002217216B460292198100905A810120029B00990AF0DFFA0EBDF8B5184E0024F079002820D10025AC20FDF78AFC000B21E0204600F073FEFDF783FC07469C
:405200002A46214600F032FA01280FD00D48012187838577C477F171002D01D0002000E02030002801D000F0C1FBF8BDAC20FDF769FC000B641CE4B20028DBD1F8BD0000E2
:4052400068140020B813002010B50088FFF740FE002809D0014640310C460978082905D00B2903D00C2010BD022010BDFFF778FC002801D009202070002010BD70B503462E
:405280000088FFF725FE040008D0254640352878082805D00B2803D00C2070BD022070BD8420005910220830991CFCF786FB2046FFF728FB2878082804D02046FFF7DAFC59
:4052C000002801D00A202870204600F06FFB002070BD000010B50C46002121700088FFF7F7FD03000BD000F04EF9002807D009481121807A0840C00603D4112010BD022015
:4053000010BD022020701A8A1889002102F08CFE002010BD64130020F8B50F46002100910088FFF7D5FD040012D000F02CF900280ED0E079410641D4617E02264A07002A4C
:4053400008DB8907402500291ADA2843E07135E00220F8BD02F0E0F80021017021894180A1898180217E4170E189C1803E7005460178134802F0BEFB284602F0F9FD1DE0D8
:40538000204600F011F9012806D068460AF024F9002803D00720F8BD2A20F8BDE07900992843E071204601F067FE607E0421304360760448C28A2046FEF760FE0020F8BD17
:4053C0001D040000641300203EB500220F236C460292238100910190628169460EC900200AF0DAF93EBD000070B5054600F060FA040024D003202071254600264035EE7681
:40540000E6702046FFF708FA01F0A6F80920FEF731FEA07800F080FD0121204600F0E0FA2E706E70AE7000212046FFF714FD0649887B401C8873012001F0C0F970BD2846CE
:4054400001F088F970BD0000B813002010B5002801D0002400E00A4C002C0FD020464030417802290AD1002141702046FEF7CEFB002803D10221204600F0B2FA10BD000006
:40548000D813002070B503460D460088FFF720FD04000BD000F077F8002807D012481121807A0840C00603D4112070BD022070BD20464030418A008A491C41430804C10C43
:4054C0005888884201D2122070BD20822079072802D12046FFF730F9022028702089002102F0CAFD002070BD64130020016A491C016204D1817E491C4906490E817670472D
:40550000C169491CC16104D1C17E491C4906490EC176704770B500250646002801D0002400E0114C002C1CD0882200212046FCF74DFAA6700020264620714036307020468B
:4055400000F018F8204601F01BFA084820820848B577807A1121084000D001202075012070BD002070BD0000D8130020B80B000064130020002101628176C161C176203033
:405580000177417770470079002805D0012803D0022801D001207047002070474030807F002800D00120704740300078002807D0012805D0052803D00E2801D001207047E5
:4055C0000020704710B5807801F08AF9002800D0012010BD10B500F0CEFB0446AC20FDF791FA010B02D02046FFF7EEFE10BD000070B5054604464035A87F002823D1FF2026
:405600006075A0788821144A484380186030417F8823491CC9B24177A078584380186030052901D300214177A0788821484380186030467F0677A1783046FEF73FFC00286D
:4056400002D00120A87770BD0220A877A078314600F03AFD70BD0000B81300200020401C0006000EFBD0002070470000F0B515468207920F85B0C004C00E02926A46908065
:40568000002D01D0002400E0514C002C29D0084600F026FC03906846808800280BD00298012845D0022843D003280CD03D20005D012872D086E00398FDF724FA0146204679
:4056C000FFF799F87EE00020029002A809F064FF002807D03D20005D012876D12046FFF705FF72E06846029E8388324600210398FDF77EF90398FDF705FA01462046FFF709
:405700007AF8284600F0B9FA01AA21463046FEF773FE002806D0304609F0AEFF3D204C21085528E0F5773146204601F077FA4CE0002000902789684609F01EFF002802D0BA
:40574000002005B0F0BD6846009E8388321D00210398FDF74DF90398FDF7D4F901462046FFF749F8284600F088FA25464035287E00280CD103E02046FFF7DEFA25E001AA99
:4057800021463046029BFEF76BFE002806D0304609F068FF3D202873EDE710E00298FFF739F8390A000101433770717068468088B070000AF0703046FFF702FD05E02046BA
:4057C000FFF794FE284600F058FA0120B9E70000D813002010B5044A917B002901D0491E9173FFF797FE10BDB8130020F8B5074606464037B87F00283DD0B0788821009054
:4058000048431F4945186035287F0099FEF76BFB012831D0287F401CC4B2052C00D300240020B877FF276F772F77A87702460146009800F0C9FD717DFF2903D0304601F0D0
:4058400060F8777501F078FB00252F462246694630460097FEF798FF0099002902D03046FEF759FB641CE4B2052C00D300246D1CEDB2052DEAD3F8BD0320B877F8BD0000D2
:40588000B813002010B502460021084B03E0002901D0002000E018460479944204D0491C0906090EF3D0002010BD0000D813002000B50120FFF7E6FF00BD10B5044601F066
:4058C0002BFE2189018080346168416061682831816002F007FB10BDF7B50646087982B00C46092807D0A078F0770846FFF756FE012806D010E0304609F0D2FE022005B051
:40590000F0BDA1788820284A484380186030007FFEF7D4FA012810D0A078FEF775FE01280BD037780121304601F0B3FA25462035062F36D00B2F0FD107E06846027C214691
:405940003046FEF74BFF0D20D9E72046FEF75EF9012801D1002028772046FFF7DBFA054604AA21463046FEF7B0FD01205F2108556946087C0090A07833463A46294600F03F
:405980004FFB69460A7CA0780323294600F0FAFEA0782946FDF73EFF304609F081FE0020ADE70120D7E70000B813002010B502464032937F0021002B03D1927E002A00D0F4
:4059C0000121064AD279002A00D000210279092A00D10121807800F0FFFE10BD6814002070B50C460646FEF711F9002814D1012C0ED935464035A87800280DD168780228DD
:405A00000AD03079092807D03046FFF7DBFD0446204600F00EFE70BD0124F9E770B50D4601280BD0082808D1A8241146B020FDF76FF829462046FDF76BF870BD2020FAE76C
:405A400010B501460820FDF763F810BD10B50446FF20F130012C01D1FF20D530002200F006FF1020FDF74EF80349A043088001461020FDF74DF810BD3602002010B5044648
:405A80001020FDF73FF80449A043088001461020FDF73EF810BD00003602002010B50446012802D0082C07D102E0FF20D53001E0FF20F13000F0D0FE1020FDF723F8044986
:405AC0002043088001461020FDF722F810BD00003602002010B504461020FDF713F804492043088001461020FDF712F810BD000036020020F8B507460120B84085B214465D
:405B00000E46012229467C2000F0B1FE32462946782000F0ACFE6078217800020143E078A5780002054360792679000206430C2047430D2080013C182046FCF7E9FF241DB8
:405B400029462046FCF7E4FF201D3146FCF7E0FFF8BD401880B270478B00034310B5D10191201943C000FCF7D3FF10BD70B505460C46407829780002014341200001FCF781
:405B8000C7FFE878A978000201430A48FCF7C0FF60782178000201438320C000FCF7B8FFE078A1780002014302480830FCF7B0FF70BD00001404000070B50D46044681B27B
:405BC00001208002FCF7A4FF210C0448FCF7A0FF81202946C000FCF79BFF70BD0404000070B5054600242846FCF78CFF641CA4B2102CF8D370BD10B50C460146B020FCF724
:405C000087FFFF2021462D30FCF782FF10BD704710B50C460146B020FCF77AFF204600F051FE0021FCF774FF10BD70B50C46054600F005F821462846FFF7DDFF70BD10B528
:405C40000C460146B020FCF763FFFF2021462930FCF75EFF10BD10B50146B020FCF758FFFF20002220211D3000F001FE10BD10B50146C020FCF74CFF10BD010210B54D317C
:405C80000020FCF745FF10BD10B504020029014608D0B020FCF73CFF214675310020FCF737FF10BDB020FCF733FF512000214001FCF72EFF00210348FCF72AFF214676310E
:405CC000ECE70000240A000010B554210020FCF71FFF10BD10B553210020FCF719FF10BD10B5034908884880FFF7C8FE10BD00003602002010B550210020FCF709FF10BDD2
:405D000010B50E2400280CD0C420FCF7FBFE20430146C420FCF7FCFE51210020FCF7F8FE10BDC420FCF7EEFEA043F1E710B502484088FFF7CFFE10BD3602002010B5FDF7DF
:405D400005F810BD10B552210020FCF7E1FE10BD884201D8081A03E00022D243101A401880B2704710B504461820FCF7CBFE8004400F207010BD10B5B020FCF7C3FEC0B22A
:405D800010BDF8B50E4601461C461546B020FCF7BFFEFF20E930FCF7B5FE0746FF200130FCF7B0FE3080FF200930FCF7ABFE2880FF200530FCF7A6FE208079070698490F28
:405DC0000170F8BD10B5C820FCF79CFE10BD10B50C46002812D05820FCF794FE2070000A60705C20FCF78EFEA070000AE0706020FCF788FE2071000A607110BDFF20C13047
:405E0000FCF780FE2070000A6070FF20C530FCF779FEA070000AE070FF20C930E8E7000000B5024A00F004F800BD0000FF7F000000B51346FFF78CFF984201D8022800D252
:405E4000002000BD10B50146B020FCF761FE0248FCF758FE10BD0000080A000010B52420FCF750FE10BD10B50146B020FCF750FEFF202130FCF746FE10BD70B50446682006
:405E8000FCF740FE06466C20FCF73CFE05467020FCF738FE2670310A6170A570290AE1702071000A607170BD10B50446012905D01820FCF727FEC00B207010BD4820FCF7F3
:405EC00021FE8007C00FF7E710B50146B020FCF71FFE0248FCF716FE10BD0000280A00000120C0027047000010B50146B020FCF70FFE0248FCF706FE10BD00000C0A000079
:405F000010B50C460146B020FCF702FE0321A0014902401810BD00008821074B414310B5C918FF2260314A770A7700228A77114600F04AFA10BD0000B8130020882250434F
:405F4000074A10B58018FF21603041770177002181770448418EFF201D3000F07DFC10BDB81300206413002010B50C460146B020FCF7CEFDFF202530FCF7C4FD022221469C
:405F800000F002F810BD000010B50023884201D8081A03E00024E443201A4018044980B2884201D8824200D90123184610BD0000FF7F000010B5C420FCF7A4FD0006C00F1F
:405FC00010BD000010B50348FCF79CFDC007C00F10BD00002C0A0000F8B503465078167800020643D07895780002054350791779000288240743002900D098241946B02034
:40600000FCF786FD31462046FCF782FD201D2946FCF77EFD204608303946FCF779FDF8BDFFB581B014460D4606460A9FFFF768FF3B460021049AFCF74BFD0248401984556B
:4060400005B0F0BD3A02002070B506460D4611242520A40108214001FCF75AFD2B46324600212046FCF734FD70BD70B5212405466401FFF72FFE10232A4600212046FCF7B0
:4060800027FD70BD10B5044640782178000201438F20C000FCF73CFDE078A178000201430148FCF735FD10BD7C04000010B50C460146B020FCF72CFD802021460143FF2028
:4060C0002930FCF725FD10BD70B50D460146B020FCF71EFDFF241D342046FCF713FD01090901FF202943013001432046FCF710FD70BDF8B500242646012807D0032802D00A
:40610000052808D105E002240A2604E004240C2601E004240D26492701463F013846FCF7F7FC25204001FCF7EDFCC5B228462042F7D0252031464001FCF7EAFC0021384664
:40614000FCF7E6FC2846F8BD70B50D46044601461646B020FCF7DCFC512029464001FCF7D7FC31460648FCF7D3FC032189030820FFF794FC210275310020FCF7C9FC70BD8D
:40618000240A000070B50D4604460146B020FCF7BFFCFF2029461930FCF7BAFC21024B310020FCF7B5FC70BD70B5491E8CB205460146B020FCF7ACFCFF2021461930FCF791
:4061C000A7FC29024C310020FCF7A2FC70BD0000054910B5884200D908460146FF206130FCF796FC10BD0000FF0F0000054910B5884200D908460146FF206530FCF788FCA5
:4062000010BD0000FF0F000070B588251446002900D098250146B020FCF77AFC2846FCF771FC2070000A6070281DFCF76BFCA070000AE07028460830FCF764FC2071000A4C
:40624000607170BD10B51446024611200B4680010021FCF729FC012C01D1FFF735FD10BD10B504460920C001FCF74CFC2070000A60700448FCF746FCA070000AE070FFF70A
:4062800023FD10BD840400000121814010B589B200227C2000F0EBFA10BD000070B5FF210120FFF7D3FBFF210820FFF7CFFB3020FFF7E4FB80210020FCF72AFC002211467C
:4062C0000320FCF759FC374DFF20A98DD530FCF71FFC0024FF26F1362146B020FCF718FC298F3046FCF714FC2046FFF727FE641C2406240EF0D0FF20A98FF930FCF708FCD4
:4063000028481030044600F079F9204600F0BEF900F04CF8234CB82040346188FCF7F8FBA188BC20FCF7F4FBE188C420FCF7F0FBFF20698EE130FCF7EBFBA1200021000141
:40634000FCF7E6FB3920FFF7C5FBFFF7C3FC93200721C000FCF7DCFBFFF7B6FCE020FFF73FFCE820FFF73CFCF020FFF739FC0020FEF722F8618A0C48FCF7CAFB0A48282115
:40638000001DFCF7C5FBFF210131AC20FCF7C0FB832000218000FCF7BBFB5B210020FCF7B7FB70BD64130020140A000010B500217C20FCF7ADFB00217820FCF7A9FB74212F
:4063C0000020FCF7A5FB10BD70B50D4601461446B020FCF79DFBFF261D363046FCF792FB01090901FF20294301308143002C01D1102041403046FCF78BFB70BDF3B589B0FB
:40640000FF2001900D208001009048780D7800020543C8788E780002064348790979000201437C200791FCF76DFB06907820FCF769FB059074210020FCF76AFB184800248B
:40644000049026E00120A04087B20098FCF75AFB03900098FCF756FB02900098FCF752FB039A29465140029A72401143079A424011430BD10698074208D00598E040C107B9
:406480000998C90F814201D1019405E0641C0498E4B20078A042D5D801980BB0F0BD0000A413002070B5FF257C20FCF72BFB0849002401230A7805E01946A140014205D06D
:4064C000641CE4B2A242F7D8284670BD2546FBE7A413002010B504461820FCF713FB0721C90288436107890C01431820FCF710FB10BD10B50446E020FFF772FB2078224658
:40650000401CC3B20021E020FCF78EFA10BD000010B5044641790079042817D040000843A17B032901D8C9000843617B4A010243A079010207201143C00201431820FCF7D8
:40654000E7FA21881C20FCF7E3FA10BD08460149E5E700000204000010B5012000F02EF90120FFF78BFA41210020FCF7D1FA10BD10B5002000F022F90120FFF7ABFA40219B
:406580000020FCF7C5FA10BD10B50C460146B020FCF7BEFAFF2021460D30FCF7B9FA10BD70B50C4601461E461546B020FCF7B0FAE92021468000FCF7ABFA75202946C000F7
:4065C000FCF7A6FAEB2031468000FCF7A1FA6C433B20A1B20001FCF79BFA70BD70B50C4601461546B020FCF793FA21468420FCF78FFA29468020FCF78BFA70BD10B50446B2
:406600004078217800020143FF20C130FCF780FAE078A17800020143FF20C530FCF778FA6079217900020143FF20C930FCF770FA10BD70B5A124054624012046FCF762FA0C
:40664000012D07D041084900814202D02046FCF75FFA70BD014601221143F5E710B5044640782178000201436820FCF751FAE078A178000201436C20FCF74AFA607921791C
:40668000000201437020FCF743FA10BD10B5044640782178000201435820FCF739FAE078A178000201435C20FCF732FA60792179000201436020FCF72BFA10BD10B5044644
:4066C000E820FFF78DFA20782246401CC3B20021E820FCF7A9F910BD10B50C460146B020FCF716FA21460248FCF712FA10BD00001C0A000010B50C460146B020FCF708FAC2
:40670000FF2021460530FCF703FA10BD70B5054688000521FBF7AAF884B22946B020FCF7F7F921460448FCF7F3F9290272310020FCF7EEF970BD0000040A000010B5044633
:406740000146B020FCF7E4F9210273310020FCF7DFF910BD10B504460146B020FCF7D8F9210270310020FCF7D3F910BD10B504460146B020FCF7CCF9210271310020FCF7A3
:40678000C7F910BDF8B505461E4614460F46084600F098F800902802A1000843304304462946B020FCF7B4F921460098FCF7B0F90148C0194655F8BD3F02002010B50446B4
:4067C000B820FCF79FF98005800DA102014389B2B820FCF79DF910BD70B50D460146B020FCF796F9FF241D342046FCF78BF940218843A90101432046FCF78AF970BD70B52A
:40680000A124054624012046FCF77CF90222002D01D0104300E0904301462046FCF778F970BD70B50D460146B020FCF771F9FF2029460930FCF76CF9A12424012046FCF7A1
:4068400061F90222002D01D0104300E0904301462046FCF75DF970BD70B50C460546FCF751F9204301462846FCF752F970BDF8B516460D460746FCF745F9014600202C0084
:4068800003D104E06408401C80B2E207FAD08640A9430E43B1B23846FCF73AF9F8BD0000024A1018405C8007800F70473F02002010B50146B020FCF72BF9FF202D30FCF714
:4068C00021F910BD8000FF30413070470246FF20052902D201484018805C70473A02002010B50146B020FCF713F9FF202930FCF709F910BD0A4600B501461046FFF7E6FF4F
:4069000000BD38B50C46054600216846009108F063FE002804D1009928464C7000F09EFB38BD10B5044680780021FFF72DFE01212046FFF755F810BD436E002B0CD00B6015
:40694000014660318B781370826E4266CA788A700021816608467047FF20704710B50346446E6033002C04D0846E002C04D0FF2010BD41669A7001E08166DA70002010BD21
:406980000021416681667047406E002801D000207047FF20704770B50446C0790D46810610D5DF210840E07100F0B6FD0570218941804034218A8180618AC180A18A0181A1
:4069C00001F0F2F970BD000010B50446FEF7E6FD01280AD1A1788820054A484380186030007FFDF76BFA012801D000F0A5FA10BDB813002070B50D460446FDF707F90128E8
:406A00001CD02079042801D0072816D1E879AE7900020643A0783146FFF7A6FA012813D03246691C204600F035FA02212046FDF734FE01212046FEF7D3FF70BD01222421A5
:406A4000204600F0C3FA70BD28214C2001552046FEF772F970BD70B50D460646FDF7B3FD002847D120213046FDF713FB3446687840346073E87820220002E081A978084365
:406A8000E0816879010228790843218A814203D0F1791143F1712082E8790102A8790843618A814203D0F1791143F1716082687A0102287A0843A18AE180814203D0F179F1
:406AC0001143F171A082A08A218A8000FAF7CEFE401E618A80B2814200D9608201213046FDF7DEFDE87AA97A000201430022304600F0DCFA70BD0000F8B50C460546FDF7B8
:406B000085F8012849D0294EB07AC00709D02846403000900078002805D0102805D01F212EE01A212CE0002700E001272846FEF7E1F9002823D02E4680360822611C7068A0
:406B4000FAF73BFF7068617A20300172A17A417270682146183008220B31FAF72EFF21462846042213313430FAF727FF39462846FDF7A2FF002810D1002F0FD012E007212E
:406B80000322284600F022FAF28A08212846FDF775FA11212846FDF786FDF8BD06212846FDF784FD009801210176F8BD6413002010B5FDF7C1FF10BD38B504460020009040
:406BC00020790D46042801D007281BD12046FDF71DF8012817D0684608F0FEFC002811D10C486A78807A00991040112210402075607E082210436076204600F079F92046D8
:406C0000FDF797FD38BD08222421204600F0DEF938BD0000641300207047000070B506460D460846FEF742F804463046FEF7ABFC00280CD0142C04D32946304600F0C7F8AC
:406C400005E00549A0000A58294630469047284608F012FD70BD00007C1D010070B50D460021002801D0002400E00C4C002C14D020464030C177807F032802D12046FEF783
:406C8000B5FD2046FFF7A0FE142D04D20449A800095820468847FEF7E1FC70BDD8130020CC1D010010B5014640310C4609780E2903D1FDF785FF0120207610BD10B5402115
:406CC000095C0F2901D1FDF79EFF10BD4021095C0F2902D1002120304177704738B5044600220E4800920D46807A11210840C0060ED52046FEF758FC012809D0684608F00E
:406D00006BFC002803D12046009900F053F938BD2946204600F05BF838BD00006413002010B51021FDF7B5F910BD10B54978FDF793FE10BD10B5FDF76EFF10BD012120307A
:406D40004177704710B54021095C0C2901D1FDF777FF10BD10B54021095C0D2901D1FDF76BFF10BD70B5044600790D46052803D0062801D0082802D12046FDF77FFE687829
:406D80004C21085509212046FDF790FC2046FFF7C8FD2046FCF73AFF0128A07805D0FFF7D9FC2046FEF702FE70BDFFF7DFFCF8E710B50446FF21FDF76CF916214C200155AC
:406DC000A078FFF7C7FC2046FEF7F0FD10BD70B50C460546FEF7E2FB002802D02078687570BD21782846FFF78CFD70BD70B5054648780C46032802D12846FDF74AFE6078C8
:406E0000122803D110212846FDF743F970BD704738B5044600200D46009004212046FDF738F968782076E8780002A081A9780843A08168790002E08129790843E081607EB1
:406E400004210843607680070CD4684608F0C4FB00281CD12046009900F00EF9607E022108436076E079410611D5BF210840E07100F052FB00210090017021894180A189E0
:406E80008180217E4170E189C18001F071F838BD7047704770B50446C07815460A4600280AD00020E070C1B2A078FFF795F8A0782946FFF767F970BD0120F3E770B50546D2
:406EC000042008700C468420415908222031601CFAF773FD29462046042238310930FAF76CFD0D2229462046FEF7F6FC002070BD70B5054609200C46087008220021601CB5
:406F0000FAF764FD287D607004480922C07AA07029462046FEF7E0FC002070BD641300200B4610B501460B20187001221846FEF7D3FC002010BD0000FEB50024164F03E0DE
:406F4000002C01D0002500E03D462846FFF71CFD00281BD15F20405D002817D16A4601A92846FFF7E9FC002810D1019869460A7806782946FEF7B0FC022E07D1A878012181
:406F8000FFF72AFC09212846FDF790FB641C2406240ED5D0FEBD0000D813002010B50B46122119708178D977014601221846FEF793FC10BD10B50B46132119708178D97707
:406FC000014601221846FEF787FC10BD38B50546002000900C46684608F0FEFA002801D0072038BD00980D210170447002222946FEF772FC002038BD0B4610B5014605201F
:40700000187001221846FEF767FC002010BD0B4610B501460620187001221846FEF75CFC002010BD38B5054600200090684608F0D3FA002801D01F2038BD009C0220207066
:407040004C20405D6070A878E0772846FFF769FC022229462046FEF73FFC38BD10B50B46072119708178D977014602221846FEF733FC002010BD000010B50B460A4904463C
:4070800008880C221A704A795A709870000AD870C8881871000A5871062221461846FEF71BFC002010BD000064130020F8B50446403417460E460546E289617B8078FFF7DC
:4070C0008DFA002F0DD100F02BFAE2896979FDF77DF9FFF78BF8608A002800D00120FFF78EFBE388A08A984200D90346628A218AA878FFF755FAA08A218AC000FAF7B6FB71
:4071000081B2ED208000FBF703FDE089E188C0080A30081881B21920C001814200D90146A878FFF7E7FAA8783146FFF73DF801212846FEF755FCF8BD00B500F01FF800BDDC
:4071400010B50A4604460B491046FAF78FFB4034C01C218A80B2814200D208464900081A81B20548E182C089002802D0884200D2E08210BD71020000A41300204018400835
:40718000704770B505460C46000702D5A0B2FDF72DFFE80702D0200EFCF7D6FF70BD70B5054650C8FCF77CFCFBF7DEFA2889C01F0300FBF7E9F90C07130B171A1D0B0B2049
:4071C0000B100C0BA0B23146FFF7DBFF70BD204600F0FCFB70BDFDF7CDFE70BD2046FCF7D8FD70BDFCF7F3FE70BDFDF7E5FE70BDFDF7E3FE70BDE0B2FDF7F0FF70BD00001D
:40720000F3B5002483B0064627460094019408200294FBF777FC05460640400713D55020FBF770FCC0B20090700707D5009CA00803D1FBF7FFFA012800D1012700220420FC
