:4000000000400020110000009D0700009D07000080B500AF00F0F0FB80B584B000AF021CFB1D1A70204A3B1C0B3312781A701F4A3B1C0A3312781A700423013BFB6018E096
:400040001B4B1868391C0B31FA68131C5B009B18C3185B780B70164B1868391C0A31FA68131C5B009B18C3189B780B70FB68013BFB60FB68002B0ADB0D4B1968FA68131CF1
:400080005B009B185B5CFA1D12789A42D8D9094B3A1C0B3212781A60074B3A1C0A3212781A60BD4604B080BDCCF1FF0FCDF1FF0FD00000201CFF0B4020FF0B4080B500AF4B
:4000C000244B12221A600C20FFF7A6FF224B0C221A60052000F03CFD204B214A1278D2B21A60052000F02AFE00F0CAFDFA235B00181C00F0FFFD012000F0D2FD194B1A4A27
:400100001A601A4B8022D2051A60194B194A1A60194B194A126808218A431A60FA23DB00181C00F067FD154B181C00F007FE144BC02212011A60134B134A1A60134B8022EF
:4001400012061A60124B40221A60024B00221A60BD4680BD300010402CFF0B4028FF0B40D9F1FF0F04010B40060000800C020B407C002E406A2D00006CF02E40DC050000F0
:40018000000301400000014040FF008008010B400401014080B582B000AF72B63B4B00221A60FB1D00221A7023E0FB1D1A78131C5B009B185B00364A9B183B603B681A78F5
:4001C000597809020A43997809040A43DB781B0613431A1C3B6819795B791B020B439BB2101C191C00F08CFBFB1D1A78FB1D01321A70FB1D1B78012BD7D9264BEE22120633
:400200001A60254B992212041A60244BD82212041A60234B20221A60224BC42292021A60214B20221A60214BC02252031A60204B992212041A601F4B992212041A601E4BEC
:40024000992212041A601D4B1C4A1278D2B202210A43D2B21A701A4B194A1278D2B23C218A43D2B214210A43D2B21A70134B134A1278D2B216210A43D2B21A70FFF71EFF57
:4002800000F04EFBBD4602B080BDC0466CF02E40843201000000024000010240080004400001044008010440180104400802044000500F4010500F4020500F4000700F40B2
:4002C00001700F4010B5064C2378002B07D1054B002B02D0044800E000BF0123237010BDB8030020000000002430010008B5084B002B03D00748084900E000BF0748036896
:40030000002B03D0064B002B00D0984708BDC0460000000024300100BC030020C80000200000000080B586B002AF786039607B68252B62D004D8012B0AD0242B58D091E0F1
:40034000282B05D0702B00D185E0272B04D089E0002000F0D5FB85E0444B1A78444B00210091101C01211A1C00230CF03BFB031C002B04D03F4B181C02F0E4FA19E03E4B47
:40038000181C02F063FA0023FB600BE0384AFB68D3181B78394A101C191C02F057FAFB680133FB60FB680F2BF0DD354B181C02F0C9FA2E4B1A78334B101C191C0CF00CFA16
:4003C000031C1A1C304B1A802F4B1B88002B07D02D4B1B882D4A101C191C02F037FA41E02B4B181C02F0AEFA012000F089FB39E0284B181C02F0A6FA34E0274B181C02F066
:4004000025FA3B681B78062B0DD002DC042B05D018E0082B0CD0152B0FD013E01F4B181C02F090FA16E01E4B181C02F08BFA11E01C4B181C02F086FA0CE01B4B181C02F0C4
:4004400081FA07E03B681B78184A101C191C02F0FDF9C04606E0054B1B78181C00210AF03DFEC046BD4604B080BDC046A8250020D8030020283001004C3001006C30010085
:400480007430010010010020D403002078300100A0300100C0300100EC300100103101002C31010050310100643101007C31010080B500AF124B181C00F01CFC62B600F0FC
:4004C00059FA104B181C02F03DFA012000F018FB0D4B181C00F0A2FC031C1A1C0B4B1A800A4B1B88002B06D0084B1B88084A101C191C02F0ABF903F029F900F00BF8FAE74D
:40050000B80B00008831010025030000D4030020B031010080B586B000AF00F051FA031C012B00D8A1E000F0C9FA031C3B613B69002B00D199E03B69432B00D095E000F076
:40054000BDFA031CFB60FB68002B00D18DE000237B6100F0B3FA031C3B613B69002B06D07B695A1C7A613A69D1B2414AD1543B690D2BEED1FB682E2B05D03E4B181C2E213F
:4005800002F064F971E03C4B181C02F0DBF9384AFB68D3180D221A70FB680133344A0A21D154FB680233324A0021D154334A304B101C191C02F04AF92D4AFB68101C191C09
:4005C00000F06AF800237B610AE0294A7B69D3181A78391D7B69CB181A707B6901337B617B69052BF1D9224A7B69D3181A783B1D9A7100237B610AE07B6907331C4AD25CA8
:400600001F497B69CB181A707B6901337B617B690F2BF1D91B4B181C02F018F900237B610CE07B690522D31A3A1DD35C164A101C191C02F00BF97B6901337B617B69052B60
:40064000EFD9124B181C02F07DF93B1D181C00F06FFC031C1A1C0E4B1A800D4B1B88002B03D00C4B181C02F06DF9BD4606B080BDE8030020D8310100FC310100243201001E
:40068000D8030020283201006C30010074300100D40300205832010090B585B000AF786039600023FB6024E07A68FB68D3181B78181C00F025F8031C1B01DCB2FB680133A0
:4006C0007A68D3181B78181C00F01AF8031CDBB2221C1343DAB23B1C0B331A70FB685B087A68D3183A1C0B3212781A70FB680233FB60FA683B689A42D6D3BD4605B090BDBD
:4007000080B582B000AF021CFB1D1A70FB1D1B782F2B08D9FB1D1B78392B04D8FB1D1B78303BDBB21AE0FB1D1B78402B08D9FB1D1B78462B04D8FB1D1B78373BDBB20DE0EF
:40074000FB1D1B78602B08D9FB1D1B78662B04D8FB1D1B78573BDBB200E00023181CBD4602B080BD80B586B000AFF860B9607A6000237B6109E0BB685A1CBA601B78181C90
:4007800000F02EF97B6901337B617A697B689A42F1DB7B68181CBD4606B080BD80B500AFFEE7C04680B584B000AF7860104B1A687B68D3181A1C0F4BD21A8023DB009A4273
:4007C00009DC0B4B1B68FB60094B1A687B68D218074B1A6007E001F0EDFF031C0C221A6001235B42FB60FB68181CBD4604B080BDCC000020C025002080B586B000AF224BC7
:400800007B61224B3B61204B7B6135E03B691B68FB603B695B68BB603B699B683B6000237B600CE0FB681A68BB681A60BB680433BB60FB680433FB607B6804337B607A6884
:400840003B689A42EED13B69DB683B6000237B6008E0BB6800221A60BB680433BB607B6804337B607A683B689A42F2D13B6910333B617B69013B7B617B69002BC6D101F06F
:400880009FFFFFF715FEFEE7010000007C33010080B582B000AF154B144A126801218A431A6000237B600FE07B68032B04D8104B7A689200D35800E00E4B0F4A7968890074
:4008C0008B507B6801337B607B682F2BECD9FFF761FC0A4B00221A60044B044A126801210A431A60BD4602B080BDC04600001040000000009D07000000000020C0000020F9
:4009000080B582B000AF786039607A683B68101C00211A1C01F092FFBD4602B080BDC04680B500AF054B03221A60054B03221A60044B00221A60BD4680BDC046300030401B
:4009400030003140000E3F4080B500AF00F05EF8BD4680BD80B500AF054B054A1268802109060A431A6000F017F8BD4680BDC0460000244080B500AF064B1B78002B04D1FA
:40098000FFF7E2FF034B01221A70FFF7E3FFBD4680BDC0462804002080B500AFBD4680BD80B582B000AF00237B60044B1B687B607B68181CBD4602B080BDC0464003244060
:4009C00080B582B000AF054B1A681F2313407B607B68181CBD4602B080BDC0460803244080B582B000AF7860C046064B1A681F231340082BF9D0044B7A681A60BD4602B069
:400A000080BDC046080224404002244080B500AF184B194A1A60194B00221A60184B01221A60184B184A1A60184B07221A60184B00221A60174B01221A60174B124A1A60C0
:400A4000164B00221A60164B04221A60154B00221A60154B00221A60144B00221A60144B00221A60134B00221A60134B00221A60BD4680BD00002440070000024000244045
:400A8000480024400003244007000080040324401003244044002440000224400402244050002440880E2440C80E2440480F2440080F2440C80F2440880F244080B582B087
:400AC00000AF00237B60FFF77BFF031C002B03D0FFF766FF031C7B60084B1A68D8239B00134005D000237B60044BD82292001A607B68181CBD4602B080BDC046C00F24403F
:400B000080B584B000AF021CFB1D1A700E4B1B68DAB23B1C0F3340218A431A70FB1D1B789B01DAB240231340D9B23B1C0F333A1C0F3212780A431A70034B3A1C0F32127810
:400B40001A60BD4604B080BD00020440000000000230800803D00138FDD1C046C046C0467047EFF3108072B6704780F31088704780B500AF0B4B0B4A126801218A431A60DF
:400B8000094B094A126830218A4310210A431A60054B054A126807218A4301210A431A60BD4680BD00F02E4000FF2E4080B500AF0E4B0E4A126802218A431A600C4B0C4AD6
:400BC000126807218A4302210A431A60084B084A126830218A4320210A431A60034B034A126801210A431A60BD4680BD00F02E4000FF2E4080B584B000AF78600023FB60E0
:400C0000154B154A126801210A431A60134B144A1A60144B134A1268802109020A431A607B68002B13D01023FB600DE0012000F085F800F019F8031C002B02D00023FB601E
:400C400005E07B68013B7B607B68002BEED1FB68181CBD4604B080BD60F02E4078002E400220000010002E4080B500AF034B1A6801231340181CBD4680BDC0460C002E40DA
:400C800080B500AFFFF774FF044B044A1268802109060A431A60BD4680BDC04600F02E4080B584B000AF78600C4B1A6801231340FB607B68002B02D0012B03D005E0FFF760
:400CC00057FF06E0FFF772FF03E0002000F008F8C046FB68181CBD4604B080BD00F02E4080B582B000AF021CFB1D1A7001BEBD4602B080BD80B582B000AF786008E00C4BBB
:400D00001B68181CFFF724FF7B680A4A9B187B607A6880231B029A42F1D8074B1B687A685343181CFFF714FFBD4602B080BDC046E00000200080FFFFD800002080B582B078
:400D400000AF021CBB1D1A80BB1D1B88044A12785343181CFFF7FCFEBD4602B080BDC046DC00002080B500AF1A4B00221A701A4B00221A70194B00221A70194B5A88194B73
:400D80001A80174B9A88174B5A80154B9A79154B1A73134BDA79134B1A71124B2822DA81104B38221A820F4B00225A820D4B24229A820C4B0022DA820A4B012252421A83FC
:400DC000094B1E221A8000F013F8084B00221A70BD4680BDB8250020A4250020B6250020E400002078250020922500207025002080B500AF074B181C00210A2201F01EFD9A
:400E0000054B181C0021062201F018FD00F08EF9BD4680BDAC2500209825002090B585B000AF78603B1C0E3301221A80154B1B78002B04D1FFF796FF124B01221A707B6899
:400E4000002B18D0104B7A681A603C1C0E340F4A0F4B101C191C172202F08EFC031C23803B1C0E331B88002B05D10A4B01221A70094B08221A703B1C0E331B88181CBD46CB
:400E800005B090BD30040020742500205113000038040020942500209525002090B585B000AF021CFB1D1A70FB1D1B78002B09D11C4B0A221A811B4B30225A80194B3022A1
:400EC0009A800EE0FB1D1B78012B0AD1154B96221A81144B802212015A80124BC822D2009A80114BFA1D12781A703C1C0E340D4B181C0BF0C3FE031C23803B1C0E331B88FE
:400F0000002B07D1094B1B78DBB204221343DAB2064B1A703B1C0E331B88181CBD4605B090BDC046E4000020B6250020B825002090B585B000AF7860284B1B78052B05D0D5
:400F40003B1C0E33832252001A8040E07B68002B04D13B1C0E3301221A8038E03B1C0D3300221A7011E03B1C0D331B783A1C0D32127879688A5C1A49CB185A713B1C0D33EC
:400F80001A783B1C0D3301321A703B1C0D331B78052BE8D97B689A79114BDA723C1C0E340F4B181C0BF018FE031C23803B1C0E331B88002B0BD1094B04221A70094B1B885A
:400FC000002B04D0074B1B88181C09F035F83B1C0E331B88181CBD4605B090BD94250020782500209225002090B583B000AFBC1D0BF0E4FD031C2380094B1B88002B01D031
:4010000009F034F8BB1D1B88002B02D1054B05221A70BB1D1B88181CBD4603B090BDC046922500209425002080B582B000AF78607B681B781A1C7B6801331B781B029BB2FB
:4010400013439BB2181CBD4602B080BD80B582B000AF78607B68DA880D4B9A4215D10D4B5B88002B08D17B689A880A4B5A807B689A78084B1A7008E0074B1B687A6806323E
:4010800086214900081C111C9847BD4602B080BD052A0000982500207425002080B582B000AF78607B689A880B4B9A4211D10B4B9B88002B04D17B685A88084B9A8008E0BF
:4010C000074B1B687A68043286214900081C111C9847BD4602B080BD02290000982500207425002080B582B000AF78600C4B5A887B689B899A420FD10A4B1B688322510078
:401100007A68081C111C9847074B1B78DBB201229343DAB2044B1A70BD4602B080BDC0469825002074250020B825002080B500AF024B00225A80BD4680BDC046A0250020EA
:4011400080B582B000AF78607B68DA880F4B9A4219D10F4B5B88002B15D10D4B5B88002B08D17B689A880A4B5A807B689A78084B1A7008E0074B1B687A68063286214900C2
:40118000081C111C9847BD4602B080BD062A0000A02500207425002080B582B000AF7860BD4602B080BDC04680B582B000AF7860BD4602B080BDC04680B582B000AF786085
:4011C000BD4602B080BDC04680B582B000AF7860BD4602B080BDC04680B500AF094B00225A70084B00221A70074B1B78052B03D1054B07221A7002E0034B08221A70BD461B
:4012000080BDC046A82500209525002080B582B000AF78607B681B78032B3ED1254B1B78DBB21A1C0223134037D0234B1B78022B10D002DC012B05D024E0032B12D0042B8E
:4012400018D01FE01D4B1B680822FF32101C0021984717E0194B1B6884225200101C002198470FE0154B1B680A22FF32101C0021984707E0114B1B6885225200101C0021AC
:401280009847C0460B4B1B78DBB202229343DAB2084B1A70084B00221A707B681B78042B05D1074B1B78042B01D1FFF79DFEBD4602B080BDB82500209525002074250020FD
:4012C0009425002080B500AFBD4680BD80B584B000AF78603B1C0E3300221A707B689B79002B1CD13B1C0F3300221A7012E03B1C0F331B787A68D35C002B04D03B1C0E33A3
:4013000001221A700BE03B1C0F331A783B1C0F3301321A703B1C0F331B78052BE7D93B1C0E331B78181CBD4604B080BD80B582B000AF021CBB1D1A80BD4602B080BDC04687
:4013400080B582B000AF7860BD4602B080BDC04680B584B000AF021C3960FB1D1A70C34B1B78DBB201221343DAB2C04B1A70FB1D1B78412B00D110E123DC212B00D191E0E8
:401380000DDC022B00D183E002DC012B41D090E1052B00D181E0202B00D189E189E12A2B00D196E006DC272B00D197E0282B00D1A2E07EE12B2B00D1A2E0402B00D12CE1F6
:4013C00077E1492B00D147E111DC452B00D115E106DC422B00D1F0E0432B00D1F0E068E1462B00D10FE1472B00D111E161E1532B00D11CE106DC4D2B00D132E1522B00D13B
:4014000010E156E1712B00D1C1E0FA2B00D147E14FE13B1C0C3307221A703B1C0C3300225A703B1C0C33181C03F0F4FB3B1C0C3307221A703B1C0C3301225A703B1C0C334F
:40144000181C03F0E7FB8A4B1B68181CFFF73EFF031C002B05D0864B1B68181C02F07AF90FE0844B1A78844B1A70844B1A78824B5A70834B1A78804B9A707F4B181C02F0D2
:4014800069F900200BF090FA7E4B05221A7010E13B68181CFFF7BAFE0BE13B681A787A4B1A7006E1714B1B78DBB21A1C202313400ED1764B1B78102B02D1744B0522DA70C5
:4014C000734B1A78714B101C191C0BF085F9F0E0EFE03B68181CFFF733FFEAE03B68181CFFF72EFF6B4B1B88002B01D008F0BEFD644B02221A70DCE0624B05221A70D8E06D
:40150000604B1B78022B41D0584B1B78DBB21A1C012313403AD0554B1B78DBB21A1C042313400BD0574B03221A70504B1B78DBB204229343DAB24D4B1A7027E04B4B1B7884
:40154000DBB21A1C082313400BD04E4B05221A70464B1B78DBB208229343DAB2434B1A7014E0484B1B78032B10D1464B05221A70494B1B78002B09D10120FFF78FFC031C58
:40158000002B03D13F4B03221A7092E091E03B681B88181CFFF7CAFE8BE03D4A3B68111C1A1C0223081C111C1A1C01F03EF93B4B00221A70FFF786FE7BE0FFF70DFE78E0AC
:4015C0003B685B88162B05D83B1C0E333A6852881A8003E03B1C0E3317221A803B683A1C0E321288198800230904090C1B0C1B040B43181C111C0CF049FC5AE03B68181C4B
:4016000000F078F855E03B68181C00F02DFA50E03B68181C00F0DEFC4BE03B68181C00F0EBFD46E03B68181CFFF7BEFD41E03B68181CFFF757FD3B68181CFFF7BDFD0B4BAF
:401640001B78DBB21A1C0123134004D13B6818680CF0BAF82DE02CE03B68181CFFF7B4FD27E03B68181CFFF797FD22E0B8250020F80000207CF1FF0FF00000207DF1FF0FDA
:401680007BF1FF0F94250020A425002010010020A825002092250020B625002095250020114B1B7801221343DAB20F4B1A7000E0C0460E4B1B78DBB21A1C112313400FD051
:4016C0000A4B1B78DBB201229343DAB2074B1A70074B1B68FA1D11783A68081C111C9847BD4604B080BDC04670250020B82500207425002080B586B000AF786000233B61B7
:40170000754B1B78012B00D0E2E0744B1B78DBB21A1C0223134000D1DAE03B1C0C337A6812891A803B1C0C331B88062B05D03B1C0C331B88142B00D0C3E03B1C0A337A6833
:4017400052891A803B1C143300221A8085E07B685A683B1C14331B88D3183B613B1C0C331B88062B00D06EE03B1C0F3300221A703B1C173300221A705BE03B1C17331A7840
:401780005749131C5B009B185B00CB189A883B699B889A4246D13B1C17331A785049131C5B009B185B005B5A002B1AD13B1C17331A784B49131C5B009B185B003A69C91820
:4017C0000423081C111C1A1C01F02FF8454B1B780133DAB2434B1A703B1C0F3301221A7020E03B1C17331B78012B0ED83B1C17331B785A1C3A49131C5B009B185B00CB18F4
:401800009A883B699B889A420CD0374B1B683A6904320C21FF31081C111C98473B1C0F3301221A703B1C17331A783B1C173301321A703B1C17331B78022B04D83B1C0F33EF
:401840001B78002B99D03B1C1433391C14313A1C0C32098812888A181A803A1C14323B1C0A3312881B889A4200D270E73B69002B1ED03B695A881D4B9A4219D1164B0222A6
:401880001A70184B00221A7000F032F8031C002B0ED0154B1B6884225200101C002198470E4B1B78DBB202229343DAB20B4B1A700A4B1B78DBB201229343DAB2074B1A7091
:4018C00006E0094B1B680822FF32101C00219847BD4606B080BDC04695250020B8250020FC000020B725002074250020FFFF000090B583B000AF05E01A4B1B780133DAB23E
:40190000184B1A70174B1B78022B0AD8154B1B781A1C1549131C5B009B185B005B5A002BEAD0104B1B78022B11D80E4B1B781A1C131C5B009B185B000B4A9A18BC1D0B4B09
:401940001868111C0BF07AFF031C238003E0BB1D802252001A80BB1D1B88181CBD4603B090BDC046B7250020FC000020A825002080B582B000AF78607B68DB88364A9B1817
:40198000042B00D963E09A00344BD3181B689F46334B1B88002B04D17B689A88304B1A8056E0304B1B687A68063286214900081C111C98474CE02A4B5B88002B04D17B6860
:4019C0009A88274B5A8043E0264B1B687A68063286214900081C111C984739E0204B9B88002B04D17B689A881D4B9A8030E01D4B1B687A68063286214900081C111C9847C5
:401A000026E0174BDB88002B04D17B689A88144BDA801DE0134B1B687A68063286214900081C111C984713E00D4B1B89002B04D17B689A880A4B1A810AE00A4B1B687A687D
:401A4000063286214900081C111C984700E0C046BD4602B080BDC04600D6FFFF90320100AC2500207425002080B592B000AF7860CE4B1B78DBB21A1C0223134000D124E233
:401A80003B1C3E337A6812891A803B1C3C337A6852891A807B685B683B64C54B1B78032B00D0E7E03B1C463300221A80D8E03B6C181CFFF7B9FA031C1A1C3B1C24331A8018
:401AC0003B6C02333B643B6C1A783B1C24339A703B6C01333B643B6C181CFFF7A5FA031C1A1C3B1C24339A803B6C02333B643B1C3E331B88152B12D13B1C243302229A7589
:401B00003A1C2A323B6C111C1A1C1023081C111C1A1C00F08AFE3B6C10333B643BE03B1C3E331B88072B36D13B1C243301229A753B6C181CFFF778FA031C1A1C3B1C243349
:401B4000DA803B6C02333B649A4B1B781A1C9A49131C5B009B185B00CB189B88974A93420DD0974A934210D0C0225201934200D011E03B1C2433181CFFF7FAFE0BE03B1C5B
:401B80002433181CFFF762FA05E03B1C2433181CFFF7D6FAC0463B1C24339988854B1B781A1C8548131C5B009B185B00C3185B88994243D17F4B1B780133DAB27D4B1A70CC
:401BC00000F090F9031C002B37D00222FF3293422BD1774B04221A70764B00221A7000F0C1FA031C002B1ED081225200934212D16F4B05221A70734B1B681222FF32101C49
:401C000000219847694B1B78DBB202229343DAB2664B1A7008E06B4B1B6885225200101C0021984700E0C04608E0664B1B680A22FF32101C0021984700E0C0465B4B1B781F
:401C4000DBB201229343DAB2584B1A703B1C4633391C46313A1C3E32098812888A181A803A1C46323B1C3C3312881B889A4200D21DE72AE14E4B1B78022B00D025E13B1C48
:401C8000463300221A8017E13B6C181CFFF7CCF9031C1A1C3B1C0C331A803B6C02333B643B6C181CFFF7C0F9031C1A1C3B1C0C335A803B6C02333B643B6C181CFFF7B4F919
:401CC000031C1A1C3B1C0C339A803B6C02333B643B1C3E331B88062B04D13B1C0C3302229A7574E03B1C3E331B88082B00D06EE03B1C0C3301229A753B6C181CFFF794F9F4
:401D0000031C1A1C3B1C0C33DA803B6C02333B643B1C443300221A8034E03B1C44331A882549131C5B009B185B00CB189A883B1C0C33DB889A421ED13B1C44331A881E492F
:401D4000131C5B009B185B005B5A002B13D13B1C44331A881849131C5B009B185B00381C0C300222C91882180423081C111C1A1C00F05BFD0BE03B1C44331A883B1C443350
:401D800001321A803B1C44331B88022BC5D9094B1B781A1C0849131C5B009B185B00CB189B881A1C084B9A4210D010E0B825002095250020B7250020FC00002001180000D1
:401DC000021800007425002012180000C0463B1C0C3319883E4B1B781A1C3E48131C5B009B185B00C3185B88994253D1384B1B780133DAB2364B1A70FFF77AFD031C002BE4
:401E000047D080225200934233D1334B03221A702F4B00221A7000F065F8031C002B26D00222FF32934212D12B4B05221A702B4B1B681222FF32101C00219847284B1B781A
:401E4000DBB202229343DAB2254B1A7010E0234B1B680A22FF32101C00219847204B1B78DBB202229343DAB21D4B1A7000E0C04610E01A4B1B6884225200101C0021984706
:401E8000174B1B78DBB202229343DAB2144B1A7000E0C046124B1B78DBB201229343DAB20F4B1A703B1C4633391C46313A1C3E32098812888A181A803A1C46323B1C3C3308
:401EC00012881B889A4200D2DEE6BD4612B080BDB7250020FC0000209525002074250020B825002090B583B000AF05E01D4B1B780133DAB21B4B1A701A4B1B78022B0AD8CB
:401F0000184B1B781A1C1849131C5B009B185B005B5A002BEAD0134B1B78022B18D8114B1B78181CBC1D114A0F49031C5B001B185B00585ACB185B881B04191C01430023EA
:401F40000B1C1068191C0BF05DFC031C238003E0BB1D0222FF321A80BB1D1B88181CBD4603B090BDB7250020FC000020A825002080B582B000AF3B1C00221A803B1C002274
:401F80005A80114B1B78002B09D1104B5B8801339AB23B1C1A800E4B1A893B1C5A803B1D3A1C12681A603A1D002311880904090C1B0C1B040B43528812041B041B0C134380
:401FC000181CBD4602B080BDB725002098250020FC00002080B58AB000AF78603B1C083300225A805A4B1B78042B00D0ADE0594B1B78DBB21A1C0223134000D1A5E03B1C5F
:402000001E337A6812891A807B681A7B3B1C08331A753B1C08337A6812881A803B1C08331B7D012B04D13B1C263304221A8003E03B1C263312221A807B685B683B623B1C61
:40204000243300221A803EE03B6A181CFEF7ECFF031C1A1C3B1C08335A803B6A02333B623B1C08331B7D022B0ED13A1C0C323B6A111C1A1C1023081C111C1A1C00F0D5FBF2
:402080003B6A10333B6214E03B6A181CFEF7CCFF031C1A1C3B1C08339A803B6A02333B622D4B1B78002B04D13B1C0833181CFEF7F5FF3B1C2433391C24313A1C2632098845
:4020C00012888A181A803A1C24323B1C1E3312881B889A42B8D33B1C08335A881F4B1B889A422AD11C4B1B780133DAB21A4B1A7000F038F8031C002B1ED0812252009342EF
:4021000012D1134B05221A70154B1B681222FF32101C002198470F4B1B78DBB202229343DAB20C4B1A7008E00D4B1B6885225200101C0021984700E0C046064B1B78DBB219
:4021400001229343DAB2034B1A70BD460AB080BD95250020B8250020B7250020D01000207425002090B583B000AFFFF701FF031C1A1C3B1C1A600BE01C4B1B780133DAB294
:402180001A4B1A70FFF7F4FE031C1A1C3B1C1A603B1C1B88012B09D03B1C5B88002B05D03B1C1A883B1C5B889A4203D90F4B1B78002BE1D00D4B1B78002B0DD1BC1D0C4B11
:4021C0003A1C1868111C0BF007FB031C23803B1C5A88084B1A8003E0BB1D812252001A80BB1D1B88181CBD4603B090BDB7250020A8250020D010002080B582B000AF786024
:40220000AA4B1B78DBB21A1C0223134000D149E17B689B790A2B00D044E1A54B1B78052B00D93EE19A00A34BD3181B689F46A04B02221A70A04B00221A70FFF759FB031CA0
:40224000002B4ED08022520093423AD19B4B1B681022FF32101C00219847954B03221A70954B00221A70FFF73DFE031C002B26D00222FF32934212D18D4B05221A708F4B4D
:402280001B681222FF32101C00219847874B1B78DBB202229343DAB2844B1A7010E0874B1B680A22FF32101C002198477F4B1B78DBB202229343DAB27C4B1A7000E0C046C4
:4022C00010E07E4B1B6884225200101C00219847764B1B78DBB202229343DAB2734B1A7000E0C046714B1B78DBB201229343DAB26E4B1A70D6E0704B1B780133DAB26E4BC8
:402300001A70FFF7F5FA031C002B3FD080225200934233D1654B1B78DBB201229343DAB2624B1A70624B03221A70634B00221A70FFF7D8FD031C002B1ED00222FF32934299
:4023400012D15B4B05221A705C4B1B681222FF32101C00219847554B1B78DBB202229343DAB2524B1A7008E0544B1B680A22FF32101C0021984700E0C04608E04F4B1B687D
:4023800084225200101C0021984700E0C046474B1B78DBB201229343DAB2444B1A7081E0454B1B780133DAB2434B1A70FFF79AFD031C002B37D00222FF3293422BD13C4BDC
:4023C00004221A703C4B00221A70FFF7CBFE031C002B1ED081225200934212D1344B05221A70364B1B681222FF32101C002198472E4B1B78DBB202229343DAB22B4B1A7072
:4024000008E02E4B1B6885225200101C0021984700E0C04608E0294B1B680A22FF32101C0021984700E0C046204B1B78DBB201229343DAB21D4B1A7034E01F4B1B78013318
:40244000DAB21D4B1A70FFF78DFE031C002B1ED081225200934212D1154B05221A70174B1B681222FF32101C002198470F4B1B78DBB202229343DAB20C4B1A7008E00F4BCE
:402480001B6885225200101C0021984700E0C046064B1B78DBB201229343DAB2034B1A7000E0C046BD4602B080BDC046B825002095250020A4320100B7250020742500207F
:4024C00090B583B000AFFC1DFEF74BFB031C2370074B074A126804218A431A6030BFFB1D1B78181CFEF741FBBD4603B090BDC04610ED00E080B582B000AF78600A1CBB1C56
:402500001A80BB1C1A887B681A60BD4602B080BD80B582B000AF78600A1CBB1C1A80BB1C1A887B681A60BD4602B080BD80B582B000AF021CBB1D1A80BB1D1B88181CFEF7A2
:40254000FDFBBD4602B080BD80B500AF00F068F8BD4680BD80B500AF00F06CF8BD4680BD80B500AF00F066F8044B181C00F024F8032000F02DF8BD4680BDC04649260000D7
:4025800080B500AF024B181C00F004F8BD4680BD4926000080B582B000AF786000F04AF87B68181C00F008F8032000F011F800F037F8BD4602B080BD80B582B000AF7860D9
:4025C000024B7A681A67BD4602B080BD0000002090B585B000AF021CFB1D1A700623FB603C1C0B34FEF7BDFA031C23700B4B0B4A1268C021101C8843011CFA1D1078FA689C
:40260000041C9440221C0A431A603B1C0B331B78181CFEF7AAFABD4605B090BD0CE400E080B500AF024B802252011A60BD4680BD00E100E080B500AF024B802252011A6096
:40264000BD4680BD80E100E080B500AF10F0D6FCBD4680BD002934D00123002210B488422CD301242407A14204D2814202D209011B01F8E7E400A14204D2814202D24900C1
:402680005B00F8E7884201D3401A1A434C08A04202D3001B5C0822438C08A04202D3001B9C082243CC08A04202D3001BDC082243002803D01B0901D00909E3E7101C10BC7A
:4026C0007047002801D00020C04307B4024802A14018029003BDC046D90000000029F0D003B5FFF7B9FF0EBC4243891A1847C046002941D010B4041C4C40A4460123002256
:40270000002900D54942002800D5404288422CD301242407A14204D2814202D209011B01F8E7E400A14204D2814202D249005B00F8E7884201D3401A1A434C08A04202D30C
:40274000001B5C0822438C08A04202D3001B9C082243CC08A04202D3001BDC082243002803D01B0901D00909E3E7101C6446002C00D5404210BC7047002806D003DB002073
:40278000C043400801E08020000607B4024802A14018029003BDC046190000000029EBD003B5FFF7A7FF0EBC4243891A1847C0467047C046014B18687047C046B40300202A
:4027C00070B50E4B0E4D0024ED1AAD101E1CAC4204D0A300F35898470134F8E710F0BCFD084B094D0024ED1AAD101E1CAC4204D0A300F35898470134F8E770BD643301004F
:4028000064330100643301006C33010030B50023934208D0C55C0133CC18013C2478A542F6D0281B00E0002030BD10B50023934203D0CC5CC4540133F9E710BD031C8218BA
:40284000934202D019700133FAE770470FB40B4B13B51C68002C05D0A369002B02D1201C00F008FD05ABA168201C049A019300F09BF816BC08BC04B01847C046B40300208B
:4028800070B5051C0E1C002804D08269002A01D100F0F0FCAC68A3891A0702D52369002B19D1281C211C00F069FB002813D00120404245E03178002B1BDAA269934211DAD4
:4028C000281C221C00F002FB013043425841C0B20028ECD10136A3683278013BA360002AE8D10CE023681970236819780A2903D1E6E722681170236801332360EAE7002B7C
:4029000017DAA269934208DB22680A231370236819780A2911D1281C01E0281C0A21221C00F0D4FA013043425841C0B2002806D0BDE722680A2313702368013323600A20DF
:4029400070BD000008B5034B011C1868FFF798FF08BDC046B4030020936810B5013B9360002B05DA9469A34208DBCBB20A2B05D01368581C10601970C8B201E000F0A6FA3B
:4029800010BDF8B5061C0F1C141CD518AC4208D02178301C3A1CFFF7DFFF0134431CF5D100E00020F8BD0000F0B59FB0061C0F1C03920593002804D08169002901D100F010
:4029C00059FC754B9F4201D1776808E0734B9F4201D1B76803E0724B9F4200D1F768BB891A070AD53B69002B07D006AD00236B6120236B763023AB763BE0301C391C00F037
:402A0000BDFA0028F1D001204042C2E0059A111D12680591002A76DB0992013423782E2B00D181E021785F48032200F0E3FC002807D05C492A68431A402098401043286089
:402A400001342178631C584806220393297600F0D1FC002800D18AE0544B002B7ED1059B072207339343083305936A69049953186B61039C2378002B04D10399611A02919C
:402A800010D003E0252BF8D00134F3E7301C391C039A029BFFF775FF013075D06A69029953186B612378002B6ED0012252426A606A4600235B3201342B60EB60AB6013704E
:402AC000AB6521783A48052200F094FC002808D0374A0134831A012098402B6818432860EFE72B68D90603D56A4620215B3211701A0703D56A462B215B32117022782A2A32
:402B000084D0099B05E05242EA60022213432B6083E72278303A092A04D80A214B4301349B18F6E7099379E763782A2B09D1059B02341A1D1B680592002B0DDA01235B42DA
:402B40000AE0013400232278303A092A04D80A214B4301349B18F6E7079363E705AB0093301C291C3A1C134B00E000BF07E005AB0093301C291C3A1C0E4B00F091F8049000
:402B80000499013100D070E7BB895A0600D53AE70B981FB0F0BDC046F83201001833010038330100CA320100CE32010000000000C432010083290000F7B5151C01930A69F8
:402BC0008B68061C0C1C934200DA131C221C2B6043321278002A01D001332B602068800602D52B6802332B60216806270F401FD0231C43331B785A1E9341226892061FD562
:402C0000E11840313020C870211C5A1C45310978A21840320233D17012E0221C301C019919320123089FB847013011D0009F01370097E0682968009F431A9F42EDDBD7E76F
:402C4000221C301C01994332089FB847013002D10120404223E0206806212B68E26801400025042903D1D51AEB43DB171D40A26823699A4201DDD31AED1800270097009F6D
:402C8000AF420BDA221C301C01991A320123089FB8470130DCD0009F0137EFE70020FEBDF0B50D1C8BB0433506920590079304950B7E0C1C109A6E2B00D1A7E011D8632BFB
:402CC00022D009D8002B00D1B0E0582B00D0C0E045310B707B4D4EE0642B1CD0692B1AD0B7E0732B00D1A5E009D86F2B29D0702B00D0AEE00E68202333430B6036E0752B5A
:402D00001FD0782B32D0A4E013680D1C191D423511601B689FE0216813680E0603D5191D11601E6805E04806F9D5191D116000215E5E644B002E3BDA049D2D2276422A70E1
:402D400036E0216813680E0603D5191D11601E6804E04806F9D5191D1E881160594B227E039308276F2A1ED00A271CE0231C78214533554D197011682368081D039510606A
:402D80001E0601D50E6802E05806FBD50E88D90702D52022134323601027002E03D1226820239A432260231C002243331A7001E003930A276368A360002B03DB2568042233
:402DC00095432560002E02D1049D002B0ED0049D301C391CFFF782FC0398013D435C301C2B70391CFFF736FC061EF1D1082F09D12168C90706D5626823699A4202DC013DC0
:402E000030232B70049E731B23612AE0086813684969050604D5181D10601B68196005E04606F8D5181D10601B68198000232361049D16E01368191D11601D68281C00F0EC
:402E4000DFFB63682061984200D923612069606004E0251C42352B7001232361049E00233370079E05980096211C09AA069BFFF7A3FE013002D10120404221E02A1C0598DA
:402E800006992369079DA8470130F4D02668B60705D4099BE068984212DA181C10E00025E0680999431A9D42F3DA221C0598069919320123079EB0470130DCD00135EFE7DF
:402EC0000BB0F0BDD5320100E632010070B5051C0E1C141C002804D08269002A01D100F0C9F9234B9C4201D16C6808E0214B9C4201D1AC6803E0204B9C4200D1EC68A369AD
:402F0000A360A3891A070AD52369002B07D022682369F6B2D01A626990420FDB08E0281C211C00F02BF80028F1D0012040421DE0281C211C00F01EF90028F6D1A3680130ED
:402F4000013BA36023685A1C22601E706369984205D0A389301CDA0708D50A2E06D1281C211C00F007F90028DFD1301C70BDC046F83201001833010038330100344B70B5F2
:402F80001D68061C0C1C002D05D0A969002902D1281C00F06FF92F4B9C4201D16C6808E02D4B9C4201D1AC6803E02C4B9C4200D1EC68A28993B2190721D4D90605D40923AE
:402FC000336040231A43A2813FE05A0713D5616B002908D0231C4433994202D0301C00F015FA00236363A38924229343A3810023636023692360A38908221343A3812169D4
:4030000000290BD1A389A02292001A4080239B009A4203D0301C211C00F09CF9A38901221A4005D061690022A2604A42A26103E0990700D46269A26022690020824206D151
:40304000190604D540221343A3810120404270BDB4030020F83201001833010038330100F7B58B89051C0C1C19075ED46268002A02DC276C002F1ADDE76A002F17D0002283
:403080002E682A60802252011A4001D0626D15E0281C216A0123B847021C411C0ED12B68002B0BD01D2B01D0162B02D12E6000205EE0A38940210B43A38159E0A3895F0744
:4030C00006D56168636B521A002B01D0276CD21B281C216A0023E76AB847A289411C06D12B68002B03D01D2B01D0162B19D10023636023692360D70405D5411C02D12A6894
:40310000002A00D16065616B2E600029CFD0231C4433994202D0281C00F078F90020606326E040231A43A28122E02669002EBED027680022BF1B01972660990700D16269A7
:40314000A260019F002FB2DD281C216A321C019BA76AB847002806DCA389402213430120A381404204E0019F36183F1A0197E8E7FEBD00000A6938B5051C0C1C002A01D17F
:4031800000201CE0002804D08369002B01D100F071F80B4B9C4201D16C6808E0094B9C4201D1AC6803E0084B9C4200D1EC680C22A35E002BE4D0281C211CFFF751FF38BDD8
:4031C000F83201001833010038330100F8B5041C071C4834002C12D0A5686668013E0CD4AB89012B07D90E22AB5E013303D0381C291CFFF7BFFF6835F0E72468EAE7F8BD25
:40320000002310B5041C03604360836081814366C281036143618361191C08225C30FFF70DFB054B24626362044BA362044BE362044B236310BDC04669350000913500004B
:40324000C9350000F535000070B54B1E68255D430E1C291C743100F021F9041E08D00021016046602A1C0C30A0606832FFF7E6FA201C70BD836913B5041C002B27D18364F2
:40328000C3640365124B134A1B688262984201D101238361201C00F01FF86060201C00F01BF8A060201C00F017F80421E06000226068FFF7A5FFA06809210122FFF7A0FF5A
:4032C000E06812210222FFF79BFF0123A36113BDC0320100CD310000F8B51D4B071C1E68B269002A02D1301CFFF7C4FF4836B4687368013B05D40C22A55E002D10D0683477
:40330000F7E73368002B06D1381C0421FFF79CFF3060002801D03668E9E70C233B6016E001235B42E381201C0123A38165662560A560656025616561A5615C30291C082241
:40334000FFF77CFA6563A563A564E564201CF8BDC0320100F0B58B8991B0051C0C1C9A0725D40E23C95E002906DAA78980231F400FD0002740260EE001AA00F06FF90028E6
:40338000F3DB029BF0273F02184A1F40BF187B425F418026F600281C311C00F07FF800280CD1A3899A051FD402221343A381231C4733236023610123636115E00C4B8022CA
:4033C000AB62A38920601343A38120616661002F0AD00E23E15E281C00F052F9002803D0A38901221343A38111B0F0BD00E0FFFFCD310000C9B28218904204D003788B4249
:4034000002D00130F8E700207047000030B5002940D004390B68002B00DAC9181E4A1368141C002B02D14B60116033E099420FD208680A189A4205D113685268C01808606A
:403440004A6000E04B60216024E08A4203D8131C5A68002AF9D11D685C198C420BD10968691858181960904214D114685268091919605A600EE08C4202D90C23036009E033
:4034800008680C18944203D114685268001908604A60596030BDC0466C25002070B50323CD1C9D430835061C0C2D01D20C2501E0002D3FDB8D423DD3204B1C681A1C211CF7
:4034C000002913D00868431B0DD40B2B02D90B60CC181EE08C4202D1636813601AE0486860600C1C16E00C1C4968E9E7144C2068002803D1301C00F025F82060301C291C55
:4035000000F020F8431C15D0C41C03239C4384420AD12560201C0B300722231D9043C31A0BD05A42E25008E0211A301C00F00AF80130EED10C233360002070BD6C250020EA
:403540006825002038B5074C0023051C081C2360FDF728F9431C03D12368002B00D02B6038BDC046BC25002038B50C1C0E25495F00F0ACF8002803DB626D1318636503E0EF
:40358000A289024B1340A38138BDC046FFEFFFFFF8B51E1C8B89051C0C1C171CDA0505D50E23C95E0022022300F07CF8A289054B281C1340A3810E22A15E331C3A1C00F008
:4035C00027F8F8BDFFEFFFFF38B50C1C0E25495F00F068F8A389421C03D1054A1340A38104E0802252011343A381606538BDC046FFEFFFFF08B50E23C95E00F01DF808BDC9
:403600000023C25C0133002AFBD1581E7047000038B5084C051C00202060081C111C1A1CFDF7A0F8431C03D12368002B00D02B6038BDC046BC25002038B5074C0023051C19
:40364000081C236000F056F8431C03D12368002B00D02B6038BDC046BC25002038B5074C0023051C081C111C236000F04BF8431C03D12368002B00D02B6038BDBC25002060
:4036800038B5074C0023051C081C236000F042F8431C03D12368002B00D02B6038BDC046BC25002038B5084C051C00202060081C111C1A1C00F036F8431C03D12368002BE5
:4036C00000D02B6038BDC046BC25002038B5084C051C00202060081C111C1A1C00F02AF8431C03D12368002B00D02B6038BDC046BC250020024B5822012040421A607047FD
:40370000BC250020024B5822012040421A607047BC250020024B582200201A607047C046BC250020024B5822012040421A607047BC250020024B5822012040421A60704796
:40374000BC25002010B501F001FA10BD10B500F0DBF810BD10B50749044609780220002907D1204601F018FA002802D1204609F007FA10BD30020020F7B51F4E00243078AA
:4037800015460F46002804D00824B76075802046FEBD002F00D1012401F0D8F90098002805D0172D03D301204002854201D90124EBE7002CE9D12946384600F023F8040091
:4037C000E3D1706800F01CF80400DED1706800F015F80400D9D101F0C1F90400D5D1009806F0E8FB0400D0D106F0FAFB0400CCD101203070C9E7000014010020002070478F
:4038000000207047F8B50D4607460026FEF7B8FEFEF7A0FE00F02EFA040065D100F0A0FB040061D13449084600F072FD0404240C5AD1A80705D0A807800F0421081A4019FE
:4038400085B2172D02D968002E3886B22B48301881B2384601F05EF8040045D1284F03460246002825D127495E008E5B294610318E4207D99000C01941800221521C417076
:40388000D2B215E08E420BD10020787690001D49C0194680891FC95C891C4170012012E0052A06D1164806461436418302207071012014495E008E5B9100C9194E80114EE4
:4038C000B61FF65C4E705B1C521CDBB2D2B2062BC7D30B4800F06CF8002C05D100F084F807490120891E087000F0D6F9002C01D0FF20F8BD0020F8BD1D390000940C000022
:40390000220100200634010010B503480078012801D100F08FFE10BD200100207047000010B5011F0878034A8000105800F092FF10BD0000D410002010B50446044980007C
:40394000085800F0F5FE002801D00470001D10BDD410002038B5044692B2C9B2684600F00DFF024AA1000098505038BDD410002070B50B49064600204C6805466178002905
:4039800008D06188B14202D32078FFF7D5FF002804D1241D6D1CEDB2082DEFD370BD00004401002010B5002801D0FFF7B9FF10BD70B50B4E0446002570606178002905D060
:4039C00062882078121D0023FFF7C4FF6D1C241DEDB2082DF1D3024800F08EFFB06070BD44010020002070471CB5002469460C70142001902346054A05480CF095FE0448D3
:403A00000068401C00D1FF2420461CBD653A0000500100203EB5124A0146FF2000230124126800290DD0012914D0042908D104206946009308814B8110460CF070FE80B241
:403A40003EBD6846009304814381694610460CF061FEF4E768460093048143816946EBE75001002070B54589046841680089030000F026F806240408081D2124002005F0B3
:403A80003FF91BE0022908D0C8B22A4621460BF05DF82046FFF786FF10E002202A4621460BF054F82946204600F018F806E000200CF02EFB02E020460CF0BCFE002070BDD3
:403AC00030B47446641E2578641CAB4200D21D46635D5B00E31830BC18470000014B0022DB6818475401002070B5448905680089022803D0032809D0FF2070BD2246094C8F
:403B00000023A46829460120A04708E0FFF71AFE241DA2B200232946022006F02EF9002070BD000054010020704700000248002141600180418070475401002070B50C4619
:403B4000002186B016460391012802D0022859D116E003A9012006F068F901281BD1039D324621462846FEF760FE0095287801900220694608814E816846FFF7B5FF41E0D8
:403B8000214D002B686809D0049004A9022006F04CF901281DD0022006B070BD002812D0298840182146FEF740FE28880024801980B228806988091D884206D12C80134857
:403BC000FFF792FF03E00320E6E788421AD96C6018E004986860E278A378110219430B4A698000231060E3565360032313815181A1788170E178C170617841702178017031
:403C0000042028800020C7E754010020F41000203EB515460C46022803D004280CD000203EBD0091019002206946088107484A8100680CF074FD07E00AF088FF044B00224D
:403C4000DB6829462046984701203EBD5001002054010020014AD1609060704754010020034801688068081A0A214843000970470011002010B5FEF773FC54220449054815
:403C8000FEF7D3FD03490120C870002010BD0000163401005013002010B5FEF755FC10BD70B5134C2368002B08D0207B1149C20705D04008400020738868A08070BD88681A
:403CC0000B4AA18880B29268814203D90A4D691A091802E0814202D2411A5118A160A080A0689842EAD300F015F80CF035FD70BD00110020C0102E40FFFF000010B50846AB
:403D00001946FFF7A7FF10BD704710B5FFF780FF10BD000003480021016041608160C160704700000011002010B502000DD0FFF7F1FF074C0321207B0843207310010A21EF
:403D4000FEF7CCFC2060002010BDFF2010BD00000011002000B504480A21806848430209FFF7D8FF104600BD001100200248007B8007C00F704700000011002070B5584978
:403D80000868002802DA574B01221A70022290430860554800695249C00B4031096A08426CD0012000F060FA4F4850497C30FEF7AFFB4B480E216C30FEF7AAFB4A4820215A
:403DC0008430FEF7A5FB484814219C30FEF7A0FB4548FF21C131A430FEF79AFB4248FF212F31B030FEF794FB3F484149BC30FEF78FFB3D483F49AC30FEF78AFB3D493A4807
:403E0000491CB430FEF784FB37483B49B830FEF77FFB35483949CC30FEF77AFB324838490830FEF775FB30483649A830FEF770FB2D4835498830FEF76BFB2B4833498C308E
:403E4000FEF766FB28481921C9029030FEF760FB2F4D287E697E0C020443A87FE97F2D4A090201432C48914201D1072C08D035229201914208D1042C05D005E0FF2070BDC4
:403E80000146042400E0014617486C30FEF740FB154821467430FEF73BFBA87EE97E0902014301204003814201D0002900D11B490D487830FEF72CFB2A7F687F0102184870
:403EC0001143814204D01748814201D0052901D113490A3904488030FEF71AFB002070BD00F02E406401002000002E4055650000320300002F3F00003102000010520000AF
:403F0000EC160000FA12000031D000003AE30000C0F0FF0F580B0000580D0000022000000F0F00000505000070B50646581C80B245086D00002408E0304600F067F810557E
:403F4000000A1119A41C4870A4B2AC42F4D3D80705D0D0182038D15CC47FD454C17770BD10B5FF2000F080F90F49FF2048700E481021801D41800121417001700A49002081
:403F8000C91C4870FFF7FAFE04000AD100F0CCF807210648FEF7AEFA044807211830FEF7A9FA204610BD000064010020CC112E4030B504465B1C1804450C002308E02046F5
:403FC00000F024F8241D59005B1CA4B250529BB2AB42F4D330BD000070B500210A4D5B1E0AE0541864782602545C344346193480001D891C80B289B29942F2DB994202D18F
:40400000515C4019018070BD00102E40014940180088704700102E40014A80180180704700102E4010B50B490020487000F07CF8002000F03FF9002000F02CF9072106480E
:40404000FEF758FA044807211830FEF753FA002010BD000067010020CC112E4010B50B46062812D006DC01280CD0032801D1FFF7D9FF10BD0A28FCD00B28FAD105480078D5
:40408000107010BDFFF76CFF10BD1146184600F02DF910BD6A010020F8B5204DAC6A0127A0071F4E002816DA307806280ED1286A384328621B480069F903084381B21948EB
:4040C0001030FEF725FA042000F0CEF8134802212830FEF70FFAE00711D0062000F0C4F80F49FF20C91E48707078002802D1686B38436863094801212830FEF7FBF9E00579
:404100000BD53078042802D1052000F0ADF80348FF2101312830FEF7EDF9F8BD40F02E406701002000002E4010B503212348FEF7EFF90120FEF7FAF920483038406A204C05
:4041400080076178800F890001431C480C38FEF7DFF96078002808D0401E022181401820FEF71CFBC000083800E0B82081B21548FEF7CEF91348032109021438FEF7C8F920
:4041800010481149B830FEF7C3F9452189010F48FEF7BEF90D480321001FFEF7B9F90C490C48FEF7B5F90B480B496038FEF7B0F9084801218838FEF7ABF910BD70F02E40F3
:4041C0006A010020D8102E4090890000041E2E40FF0F000058122E40209000000849087806280BD148780749002803D1486B400840004863C86A01221043C8627047000049
:404200006701002040F02E4001480078704700006701002000B50300FFF752FC080D050D0B070507090D012000BD032000BD042000BD022000BDFF2000BD0000074A91685D
:40424000D26889B2064B92B2994204D105498A4201D1012100E000210170704780002E4033D000003FE3000010B50446FEF772F9072C01D9FF2C01D102480470FEF764F9B1
:4042800010BD00006701002001494870704700006401002010B5064A012805D01921C9021046FEF735F910BD1D21C902F8E7000090002E4010B50A4A141D012808D009498A
:4042C0001046FEF725F908492046FEF721F910BD04491046891CFEF71BF90349491DF3E788002E4031D000003AE300000078074AFF2803D04C2804D9553803E0107808704D
:4043000070474F3808701070704700006601002010B50F4A002313600E4A13600E4B18600E4801600E49012008600E490860000290600E490C4808600D4914300860FF3825
:404340001538506000F0BCF800F0CAF9002010BD88010020700100209C010020A00100208C0100207C010020101200208001002094010020014610B50020002910D0094BD9
:404380001A689C685118A14209D25868196080188A0704D08A07920F891A091D196010BD002010BD70010020F8B50024164E671E321F3D463168136806E0142262431032B6
:4043C0008A58521C1BD0641C9C42F6D36A1C14D02C461422544322460C3288500C214843FFF7C8FF3168002808510AD031680020103408517068401C70602846F8BD2546E3
:40440000E4E73846F8BD000080010020F3B50026F64381B000281BDB1E490968884217D80299002914D01B4F142204463F1D54432546396810354859401C09D0FEF78AF8D3
:4044400038682F1F4159C359994203DBFEF77CF83046FEBD214608310091465801590C20704308180C220299FEF7DFF90948761C001D0068C159B14200D100260549009A33
:40448000091D865008684159491C4151FEF75CF80020FEBD7C010020002803DB07490968884202D90020C043704704491422091D0968504310300858704700007C01002057
:4044C000F0B500200D4A451E0346171F50600FE014260146714314680E1DA3510C461668083433511668083435511468401C635039688842ECD30020F0BD0000800100205C
:40450000F3B50026F64381B0002841DB2349096888423DD8029900293AD0204F142204463F1D54432546396810354859401C2FD0FEF710F83868415900292BD0211D00911C
:4045400046580C21005971430F46C1190C220298FEF76BF911480021001D0068761C00590C34C0190160416081600C48001D00680159B14200D100260849009A091D865029
:4045800008684159491E4151FDF7DEFF0020FEBD3046FEBDFDF7D8FFFAE700007C010020FEB504460D4600201E49089E0860471E009001900290002C11D0486885420ED271
:4045C000002A0CD0002E0AD0642E08D808460C3001681C2068430C18207A002801D03846FEBD0120226020721846FFF7DDFE6060401C13D06681A6810A4827610C30676122
:404600000179A94200D205710021684601810A462846029B00F040F82846FEBD00202072DDE700008801002038B50124009400F039F838BDFEB50027164EFF433D460024CE
:404640000EE01C20316860430818017A002906D04068FFF721FF002801D0254603E0641C3079A042EDDA681C12D01C2130684D434419FDF76FFF69466068FFF741FF0546E1
:40468000FDF762FF002DD9D1216868468847D5E7FEBD00009401002038B50024009400F001F838BD1FB500220C49541E0A60002811DB496888420ED808491C220C31096840
:4046C00050430818406801A9FFF7A0FE401C02D0002004B010BD2046FBE7000088010020F0B50021114A4D1E174611710C3F0B46BD6016E008461C2460431668041D3551F1
:4047000014680646235014680836A3551468361DA353044616680A34335318301468491C255078688142E5D30020F0BD9401002038B500210091002811DB0F49097888426A
:404740000DDA0D4D04010C3529680859002807D0201D0818694600F05FF9002801D0002038BDFDF7F7FE28680F34015D491E0155FDF7EAFE009838BDA4010020F7B582B07C
:404780000025ED43029800240E460560002A49D0002E47D02D48D21C02402D48174601780C30006805E022018258002A0FD0641CE4B28C42F7D3691C3ED02C01211D401822
:4047C0000191314600F016F900282BD101E02546F1E71F480C30016820460C300F521C480C30016820460E300E5419480C30016820460F300E543846704300F0ADF814491B
:404800000C310968002808510CD00024009011E00F480C30016801980818009900F017F9002802D0012005B0F0BD0098C019641CE4B20090B442EBD30298054905600C31A8
:404840000879401C08710020EDE70000FCFF0000A4010020F8B50D4600216A468C461180002839DB23490978884235DA214B04010C3319680A59002A2ED020460C300B5A35
:40488000801C0E5C184670438018954224D3854222D2002006E007465F43BF18AF4206D0401CC0B2B042F6D36046002814D0114E271DC8190C366A46294600F0F2F800280B
:4048C0000AD168460088012808D030682946C01900F0BDF8002803D00120F8BD0020F8BDFDF738FE30680F34015D491C0155FDF72BFEF3E7A401002003460020002B06D037
:40490000034A5168906852884018511A19807047A401002070B5002400F0DCF80D4E002132460C3271600EE0200113680546195013680C355953AD1C13680F305955136865
:40494000641C1954E4B230788442EDD31171002070BD0000A4010020014610B5002000290CD0C91C064B8A08596892005C888A18A24202D898685A60401810BD002010BD96
:40498000A4010020F8B5002827DB19490978884223DA174C05010C342168485900281CD028460C30085A009028460E300E5C401C0E5420682F1DC01900F064F800280CD15C
:4049C0002068002445590EE0094829460C300068C01900F03CF8002801D00120F8BD00982D18641CE4B2B442EED30020F8BD0000A401002030B50D4604000BD0A800FFF756
:404A0000ABFF6060002805D000202570C0436080002030BD012030BD70B50D46040005D0002D03D00220205E002801DA012070BDFDF790FD0221615E606889004058286046
:404A40006088401E6080FDF77FFD002070BD70B50D46040007D0002D05D002212078615E401E814201DB012070BDFDF773FD6088401C00B26080616880000D50FDF764FD04
:404A8000002070BD10B5040009D0227800216068FDF7D4FE0020C0436080002010BD012010BDF0B500231D46002802D00224045F0AE00120F0BD46689F00F6598E4201D13C
:404AC000012503E05B1CDBB29C42F4DA15700020F0BD0000054B11221A70054A1180064A044911600549086070470000A4010020A601002040120020B0010020AC010020A7
:404B00000148007870470000B80100207CB505460024FEF717FEA8796946087000A8062229460130FDF781FE0021684604F046FB0C2804D0072804D01F2804D004E002241B
:404B400002E0042400E0272420467CBD10B500F0D3F8FFF759FBFFF75DFB10BD10B503240CF0E2FA002810D10CF086FA00280CD105F0AAF9002808D100F09CFA002804D112
:404B800004F09CFD002800D10024024900200870204610BDB801002070B50025044600280ED0A07901280BD8FEF7CCFDA0790028204602D002F015FE03E002F0DFFD00E0D0
:404BC0000125284670BD38B504460120002C20D0617801291DD800290BD0FF25E535FEF7B1FD2846FFF712FAC0B22070072803D00EE0FF25CD35F2E700206946087068464D
:404C0000FFF71CFB69460878012801D108202070002038BD70B504460120002C1FD06178012902D92278092A19D8002906D0FF25E53520780726092803D003E0FF25CD351A
:404C4000F7E72670FEF77EFD2078082808D00020FFF730FB21782846FFF7DEF9002070BD0120FFF727FB2670F4E7000070B50D46040001D0002000E00548002802D00121EE
:404C800002F068F82946204602F032FB70BD0000C413002038B5054600200446009022466946284600F0B2FD0098002801D00CF01DFAA878214602F058F9A878214602F04D
:404CC00047F9641CE4B2052CE9D338BD064A02235188891C89B25180814201D8102900D95380508870470000BA0100200148407870470000BA01002038B5FFF785FA042871
:404D000019D0052817D006281AD0032842D007280AD100206946087002460120FFF79EF9FFF772FA0128FBD138BDFDF7C9FBFFF76BFA0128F8D0FFF767FA0128F5D138BD4F
:404D400002F09AF905E0FDF7BBFBFFF75DFA012803D0FFF759FA0128F5D1A12424012046FFF754F901220E4983079B0F0A70022BE5D149880029E2D0104301462046FFF75E
:404D80004BF92046FFF742F9410849002046FFF743F938BD02F074F90120FFF765FA38BDBE010020F8B50646002402F033FE0546304602F047FE00210346012632468A4045
:404DC000174610462F401840002F03D0002801D1224394B2491CC9B20529EFD32046F8BD1CB50020694648706846FFF7ECFE01AA69460A20FFF732F96946042008561CBD12
:404E000010B50C4601F062F8002809D00179002906D0C1788078224602F020FB002010BD022010BD0148007870470000901300204030C07E002800D00120704700B500F0B6
:404E400001F800BD88214843064940186030417F491CC9B24177052901D300214177C8B270470000A413002013B501F02FF804000BD001F076FC002807D0214601AA0A3168
:404E80000620FFF7EBF800201CBD02201CBD000010B50C4601F01AF800280AD001F061FC002806D0224604490A20FFF7D7F8002010BD022010BD000079130020F3B581B092
:404EC000074601460026029802F09CFD0446002F01D0002500E0154D002D21D0284601F02BF8032C04D13946029802F0B5FD06463846029902F02CF8032C06D0002C10D035
:404F00000121384601F098F903E03146384602F0D7FE284601F004FF0221284601F01AFFFEBD3846029902F013F8FEBDC413002070B50446002503F053FD002801D00C2034
:404F400070BD2078611C02F079FBFF2802D01F25284670BD02F0C6FBFF2804D02178621C01F074FFF4E70725F2E710B503F038FD002801D00C2010BD02F038FB002010BDB7
:404F800070B50D46044610210BF0F0FF1021601806460BF0EBFF334610221946204603F04BFD102130460BF0E1FF02202870204604F0CEFA70BD70B5044640782178020240
:404FC0008006850FE0781143A67809050002090D0643084600F07AFF002812D0022D10D0032D0ED0002E08D00179092909D0002907D0214600F0BFF870BD0089002104F01C
:405000009DF920460CF072F870BD0020704770B50446002503F0E4FC002801D00C2070BD2078611C02F00AFBFF2802D002F05BFA00E01F25284670BD10B504F03FFB00F063
:405040002DF9002010BD000010B5014605220A48FDF7EBFB084905220846A038FDF7E5FB00F082FC04488022B038C17B1143C17300F04AF910BD00005414002010B50446AD
:4050800000786178E2780843A17811430843217908436179084305D003F094FC002803D00C2010BD122010BD204602F09AFB002010BD000010B5044803F01EFD02F01CFAEC
:4050C00000F004F8002010BD60130020F8B5124D00266E706E736E716E76AE76EE766E75AE70EE70AE712F46EE730120B03778723F2078719B20B87103F05CFA01F012FB4F
:405100000024204601F0DEFA641C2406240EF8D03E72FE71AE73F8BDA413002070B505460E46084602F076FC0446304602F08AFC0121A9400A46224001400A4301D00120C1
:4051400070BD002070BD10B50446084602F07AFC0121A140014201D0012010BD002010BD10B5FFF751F8032804D101F089FF0120FFF77AF810BD70B5044600790D460928BF
:405180001CD000281AD020464030817E491C8176204601F0C5FDA078FFF750FE064602462946204600F00CF8002806D1A0783146FFF75CFD28460BF099FF70BD0846FAE7B4
:4051C000F7B5054648780C468006870FC8788978000282B0014368468180284601F0D6FA060007D021462846049A00F0BAFA304605B0F0BD384600F09BFB0746034601AAE2
:405200002946204600F0B4F968468088231DC0B20090A878FF22049902F024F8684680883B46C2B2A878049902F08CFBDFE770B5002500242846FFF7B5FD060010D0304691
:40524000E040C007C00F07D02146284601F074FE21462846FFF732FE641CE4B2052CEED36D1C2D062D0EE4D070BD000070B50024094D03E0002C01D0002000E0284641213F
:40528000095C012901D100F036FA641C2406240EF0D000F039F870BDC413002010B502F02BF9FFF713FF0BF089FF002010BD0000F8B5002403F020F9012800D10224114FDC
:4052C00000203E46203601230425082203E0002801D0002100E031460979002907D001290BD002290BD0114681402143CCB2401C0006000EEBD07C70F8BD1C43F7E72C43EA
:40530000F5E70000A413002070B5144E0024F07BC00921D03546203503E0002C01D0002000E0284601F028FA012814D0641C2406240EF2D0F07B4006400EF073002403E0A5
:40534000002C01D0002000E0284600F0D4F9641C2406240EF4D0002070BD0000A413002010B5FFF7A5FF10BD10B50B4681791943817103D08078114602F08CFA10BD10B58B
:4053800082798A43827102D1807802F09BFA10BD0346084800B5834209D8184600F096FD002804D00089984201D1012000BD002000BD0000FF0E0000074A9179491C8906F6
:4053C000890E917138220A4092014907090E11430843024908407047A4130020FF0E0000C006C00E70470000F8B507460E4600240D4803E0002C01D0002500E005462979C5
:40540000002905D0641C2406240EF3D00020F8BD204601F057F92E712046FFF7CDFF28813C700120F8BD0000C4130020F7B53D20405C88B016460C46002829D03078694667
:40544000087200252046FFF7F3FC012800D00125204603A938300191009023460327A17E34332A46206A03F067FB02A8089900900B46019120463A4603A9243003F0BEFAD0
:4054800002466846007A3070204601F007F910460BB0F0BDFFB587B00C4605461078694608723D20005D1746002826D000262046FFF7BEFC012800D00126204603A9383083
:4054C000019100902346A17E34333246206A03F033FB02A80090291D019120462B1D03A924300A9A03F08AFA02006846007A388002D1204601F0D2F810460BB0F0BDF7B55D
:405500003C20405C88B015460C4600280CD0287869460872002806D000262046FFF788FC012803D003E01F200BB0F0BD0126204603A938300191009023460327E17E34331B
:405540003246E06903F0F8FA02A8089900900B46019120463A4603A9243003F081FA02466846007A2870204601F0A2F81046DBE7FFB505463C20405C87B016460C4600285E
:4055800010D0084601F002F901280BD0308869460883002809D000272046FFF749FC012805D005E000200BB0F0BD0220FBE70127204602A93830019100902346E17E3433B1
:4055C0003A46E06903F0B8FA06A80090291D019120462B1D02A924300A9A03F041FA02466846008B30806846008BA870000AE870204601F05DF81046D5E7000010B51849E0
:405600000446484028D0002101231A468A40904221D0491C2029F8D300212046C840C243520618D0400616D0491C1929F5D3A0B2210C020AC3B2884201D193420BD01F21FA
:40564000204600F07AF9182805D8A00E062100F074F9022801D2002010BD012010BD0000D6BE898E002801D0002000E003484030C07F012800D0002070470000C4130020D5
:405680000146002049070ED50021084B03E0002901D0002200E01A461279022A04D0491C0906090EF3D0704701207047C41300200146002049070ED50021084B03E0002924
:4056C00001D0002200E01A461279022A04D0491C0906090EF3D0704701207047C413002010B5044680346068002803D00BF012FD0020606010BD38B5054600200090284685
:40570000FFF796FB01281FD1284601F02AF800281AD028792C46C01E40340300FEF7D0F907050511110511141100284601F034F8012806D068460BF07FFC002805D00120D6
:4057400008E060780028FAD038BD2846009902F0F1FB0220607038BD4030817070470171704792001018C1667047000010B5002801D0002000E00348002802D0008903F05E
:4057800051FE10BDC413002010B5002801D0002000E00448002804D00179072901D100F085F810BDC413002010B54121095C012901D1FFF7A0FF002010BD000070B50546A9
:4057C000008A00281ED010491122897A1140C90618D5294640314A8A098A521C4A4392B2D10800D10121540801E0621A94B2A042FBD9FFF785F9012804D1298AA8782246B9
:4058000001F0C4FD70BD00005013002000230B60052A04D292001018C26E0A60C3667047FEB506460020009001908020855968460BF002FC002801D00720FEBD2021304648
:40584000009FFFF79CFD34464034A08AE080608AA080208A2081304602F03CFDA88C218A884207D1288A618A884203D1688AA18A884203D0F07920210843F071688AA082AC
:40588000288A6082A88C2082E98CE182FFF71EFAE081208AFFF72AFA60733946304602F071FB0120A0700198FEBD000038B5044600200090A079002814D14020015D0529CF
:4058C00001D00E290ED168460BF0B6FB002809D12046009902F038FC03481021C28A2046FFF742FD38BD00005013002010B50446807802F00DFD204601F0AEF8002010BD78
:4059000010B50B4604460146184602F0D9F8002802D020460BF0F4FB10BD13B5044601AA11460620FEF79AFB6846818861811CBD002800D102207047704770B500231A4621
:40594000491E0CE00446D440E507ED0F541C0646E640F407E40FA54200D05B1C521C8A42F0D3D8B270BD000030B50021124C0A46A05C002308E0C50701D0491CC9B201297A
:405980000AD840085B1CDBB20028F4D1012903D8521CD2B2052AEBD302290BD207488118C87B0122082B03D29A400243D0B200E01043C87330BD000054140020A41300202F
:4059C0007FB504468034616805460E46183108226846FCF72AFF31462031082202A8FCF724FF102168460BF0C1FA6068102108300BF0BCFA60682B460830243310226946FE
:405A000003F01AF87FBD10B504460821FFF7B7FC10212046FFF7B3FC2079052822D0062820D008281DD12189002003F06DFC072020712046FFF7FCF901462046403001299E
:405A400016D00E21017000210176204601F088F82046FFF745FE2046FFF7B0FE2046FFF7A3FE10BD20890122002103F031FCDEE70521E7E7FFB581B01F4604460821FFF745
:405A80007EFC10212046FFF77AFC2079082803D0092804D0042203E00422012501E009220025204600F054FE264600204036307022712046FFF714FE0398002D02D0012834
:405AC00008D00BE001280AD120890022029903F0FFFB04E02189029803F016FC012700203076012F07D0204601F03AF82046FFF75BFE05B0F0BD02983073204602F05DFBDD
:405B0000054605480121C28A2046FFF72DFC002DEFD109202071ECE75013002070B50C460546FFF785F9012809D108212846FFF726FC0023012221462846FFF79BFF70BD1D
:405B400010B5044600F004FE2046FFF7C9FD00214034217010BD70B505461A24FFF768F9012809D108212846FFF709FC0023012221462846FFF77EFF70BD000038B5044683
:405B80000020009068460BF057FA002801D00D2038BD2046009D00F01BFE2946204602F07DFA05480821C28A2046FFF7DDFB062040342070002038BD50130020F8B5044627
:405BC000002000900E4668460BF036FA002801D00D20F8BD204604213430009D00F072F9842000590821183000F06CF9012E02D1204600F0EDFD2946204602F009FA0548EA
:405C00000821C28A2046FFF7AFFB0220403420700020F8BD5013002010B50446FFF7D0FE032040210855204601F07AF810BD10B50021FFF7C3FF10BD38B5044600216846B0
:405C400000910BF0F9F9002810D12046009A00F07FFD1146204602F02CFA05480821C28A2046FFF781FB07204034207038BD00005013002038B504460021684600910BF08D
:405C8000DBF900280FD12046009902F08BFA06480821C28A2046FFF767FB042140200155204601F03DF838BD5013002010B5FFF7AAFE10BD00787047F8B50025002801D008
:405CC000002400E0194C002C29D0204600F049FD002824D02079032822D0052822D026464036B18AA07801F0C9FDB078012816D10021204601F014FF2746803738680028EE
:405D000002D00BF007FA3D600020B0702046FFF74BFD2079072802D12046FFF74FFDF8BD042000E006202071F8BD0000C413002010B54C22115400F046F810BD10B5044613
:405D4000FF21FFF71CFB09202071A07801F0C6FD10BD000038B5FF216A461180002801D0002400E0064C002C08D011460620FEF775F9684601882046FFF7CFFD38BD0000CE
:405D8000C413002010B504468079002809D022214C200155FF212046FFF7F1FA204600F012F810BD10B5037902464032002B03D01173092B02D003E0002100E0222111731C
:405DC00000F001F810BDFEB504460089002701902781207926464036002817D0012815D002280AD112E002AA6946204601F056FE002807D100980BF083F9204601F076FE98
:405E00000028F0D02046FEF745FFB776254680352868002802D00BF07DF92F606868002802D00BF077F96F60317B002902D0019800F041F8A078002101F0E0F8A07801F08C
:405E4000C1F9A07800F080FE0B20FFF789FA00F01DFDFEBD70B50E46054602F02DFE044606702846FEF7E4FF014601204140204661700C3001F059F9002D10D02889608055
:405E800028464030C1782171002E10D169796171018AE180418A2181808A608107E01820FEF7B4F8C005C00F207100206080204603F0D3F970BD0A4610B50146002003F08C
:405EC000C9FA10BD10B50AF02DFE10BD00B50146FFF786FA002801D0002000E00348002802D002898A4200D0002000BDC413002038B5044680346068002806D168460BF055
:405F0000ABF8002801D100986060606838BD000010B5014600F03AFC0128887802D0FEF791FF10BD88214843024940186030007F10BD0000A413002070B505460446403577
:405F4000A87F012811D1A1788820084A484380186030067F3046FFF7E1F8002805D10220A877A078314601F0D1F970BDA413002010B50E4CE079002816D0FFF758F90C48B1
:405F8000827FC17F808B00F095FC01280CD10020E07101F08DF80446AC20FEF737F8010B02D0204600F0C8FA10BD000054140020A413002070477047490510B5490F0B00E7
:405FC000FDF77EFD060704080C0C0F073E21FFF7AFFE10BD0821FFF7E5FE10BDFFF7F3FE10BDFFF7CFFE10BDF8B507460025002D01D0002600E0204E01F02CF8304640307D
:4060000044890021418101F02FF8304600F0A9FB01282BD1A00702D52846FFF74DFEE00602D52846FFF796FEA00601D5FFF7FFF8600601D500F0BEFB200602D5284600F0DE
:406040001DF8600702D5284600F0DAFA380402D52846FFF799FB780402D52846FFF786FBE00703D021463046FFF7A6FF6D1C2D062D0EBCD0F8BD0000C413002010B500280A
:4060800001D0002000E00648002808D0014640318A78012A03D1C98A807801F03BFB10BDC413002070B505460088FFF70FFF040025D000F056FB002821D0207909281ED0CB
:4060C0002046FEF7B5FE0646E07920210843E071204601F03DFD002813D0294600F012FE4220005D00280ED02325E079DF210840E0712946204601F07AFD284670BD02200C
:4061000070BD072070BD002E05D02046FFF788FB0500EAD1F1E70C2070BD000070B50E460C2500F069FD040011D0002522892946094802F051FE02212046FFF78BFEA07835
:4061400000F03EFF2046FFF73EFE022000E000203070284670BD00000E200000F8B5044600F04AFD002801D00C20F8BD02216846FFF73AF9012850D1684600782D4F0028B9
:4061800001D0002601E03E462036002E45D035460020403528706870A8700620FFF7E0F8208A6882228AE189A08902F0ADF828820246608AA882E18AA08A02F077F8E8828E
:4061C000288AFEF793FD6873288AFEF77FFDE881184806228778A11DA830FCF726FB207901281CD06079E870A01D01F0E2FAFB20074010488770217E012915D0C278FB21B2
:406200000A40C270B178204601F00CF9012001F0B5FB3046FFF76AFBF8BD0920F8BD0020E87004200743E4E7C17804221143C170E8E70000A413002070B50D46124A010027
:4062400001D0002401E014462034002C1BD0204600F09CFA01280AD18820484380186030007FFEF75BFF002801D101F02DFF20464030817E491B8176204600F051FD2089D6
:40628000294603F05BF870BDA413002070B503460088FFF71BFE040013D000F062FA00280FD02079092819D02546997840352973204601F082FF0646A878012803D0AA8A32
:4062C00002E0022070BDEA880A20424301212046FFF74AF8002E01D109202071002070BD0EB5002217216B460292198100905A810120029B00990AF07FFF0EBDF8B5184E71
:406300000024F079002820D10025AC20FDF77EFE000B21E0204600F02FFFFDF777FE07462A46214600F0C6FA01280FD00D48012187838577C477F171002D01D0002000E069
:406340002030002801D000F0EBFCF8BDAC20FDF75DFE000B641CE4B20028DBD1F8BD000054140020A413002010B5C0060ED50020084A03E0002801D0002100E0114609798E
:40638000022904D0401C0006000EF3D010BD00F003F810BDC413002070B5144D002801D0002401E02C4620342179022904D0002901D001F093FA70BD264601224036F2763A
:4063C00000F0E8FE032020710820FEF7C9FF002030700121F01C00F0BFFE00212046FFF739FDA87B401CA87370BD0000A413002010B50C46002121700088FFF767FD030094
:406400000BD000F0AEF9002807D009481121807A0840C00603D4112010BD022010BD022020701A8A1889002103F030F8002010BD5013002070B50088FFF748FD040008D035
:4064400000F08FF9002804D0E079C10903D0002070BD022070BDC1068025002908DA2843E07108480221C28A2046FEF77DFFEEE7204600F0E3F90028ECD1E1792943E17149
:4064800070BD000050130020F8B50F46002100910088FFF71BFD040012D000F062F900280ED0E079410641D4617E02264A07002A08DB8907402500291ADA2843E07135E0AE
:4064C0000220F8BD02F0F8FA0021017021894180A1898180217E4170E189C1803E7005460178134802F032FD284602F073FF1DE0204600F051F9012806D068460AF09CFD21
:40650000002803D00720F8BD2A20F8BDE07900992843E071204601F079FE607E0421304360760448C28A2046FEF71EFF0020F8BD1D040000501300203EB500220F236C463B
:406540000292238100910190628169460EC900200AF052FE3EBD0000F8B50446002000902088FFF7B3FC05001AD0FEF761FC002812D02248807AC00710D0284600F0F1F862
:4065800000280DD0287903280CD004280AD0072808D0092828D103E00C20F8BD1120F8BD0220F8BD2F464037387801281CD02846FFF79EFC060019D00822211DFCF735F94F
:4065C0003046A1782030017261881022090A417221460C311838FCF728F9B878002807D0012038700098F8BD0D20F8BD0720F8BD284600F013FA0090F8BD0000501300202A
:4066000010B5002801D0002400E0094C002C0ED0204640304178022904D1002141702046FEF706FC2046FFF7BFF8FEF71FFE10BDC413002070B503460D460088FFF746FC11
:4066400004000BD000F08DF8002807D012481121807A0840C00603D4112070BD022070BD20464030418A008A491C41430804C10C5888884201D2122070BD2082207907287C
:4066800002D12046FFF79AF8022028702089002102F024FF002070BD50130020016A491C016204D1817E491C4906490E81767047C169491CC16104D1C17E491C4906490E20
:4066C000C176704770B500250646002801D0002400E0114C002C1CD0882200212046FCF7ADF8A67000202646207140363070204600F02EF8204601F0F5F90848208208488F
:40670000B577807A1121084000D001202075012070BD002070BD0000C4130020B80B00005013002010B50020074B084AFF2119541418401CC0B221740428F8D31F21195412
:406740001018017410BD000054140020A4130020002101628176C161C17620300177417770470079002805D0012803D0022801D0012070470020704740304078012803D005
:40678000022801D000207047012070474030807F002800D00120704740300078002807D0012805D0052803D00E2801D0012070470020704710B500F07BFC0446AC20FDF71F
:4067C00025FC010B02D02046FFF7B6FE10BD000070B5054604464035A87F002823D1FF206075A0788821144A484380186030417F8823491CC9B24177A078584380186030A7
:40680000052901D300214177A0788821484380186030467F0677A1783046FEF77FFC002802D00120A87770BD0220A877A078314600F06CFD70BD0000A413002038B5002126
:4068400005460091FFF7A8FF012806D068460AF0F3FB002803D0072038BD2A2038BD2846009CFEF7E5FA00280BD02146284601F0F7FB05480221C28A2846FEF775FD00206A
:4068800038BD112038BD00005013002070B50024074D03E0002C01D0002000E02846FEF783FF641C2406240EF4D0002070BD0000C4130020F0B515468207920F85B0C004D1
:4068C000C00E02926A469080002D01D0002400E0514C002C29D0084600F04EFC03906846808800280BD00298012845D0022843D003280CD03D20005D012872D086E003989C
:40690000FDF784FB01462046FFF707F87EE00020029002A80AF070FB002807D03D20005D012876D12046FFF7B9FE72E06846029E8388324600210398FDF7F6FA0398FDF795
:4069400065FB01462046FEF7E8FF284600F042FB01AA21463046FEF769FD002806D030460AF0BAFB3D204C21085528E0F5773146204601F085F94CE000200090278968466C
:406980000AF02AFB002802D0002005B0F0BD6846009E8388321D00210398FDF7C5FA0398FDF734FB01462046FEF7B7FF284600F011FB25464035287E00280CD103E02046D3
:4069C000FFF7BCF925E001AA21463046029BFEF761FD002806D030460AF074FB3D202873EDE710E00298FEF7A7FF390A000101433770717068468088B070000AF0703046DB
:406A0000FFF76EFC05E02046FFF748FE284600F0E1FA0120B9E70000C413002070B501790546032904D0042904D0072908D109E0052400E006240121FFF7C0F8002805D0A1
:406A40000D2070BD0824FFF799F8F7E7284600F067F92C71002070BDFEB5064602F02CF8044602F022F8074602F015F8054602F027F8029002F036F801902570280A607096
:406A8000280CA070280E3546E0704035687B20716771380AA071380CE071A87B2072E8892849000A6072287CA072288A0522000AE072A87C2073688A000A6073287DA0734C
:406AC000A88A000AE073204610300091FBF7ADFE0027F770B078009900F018FF777101984101029867750143A175080AE07504E0298A308849004018308000F0E9FA3188B7
:406B0000042200F075FB0128F2D0012031884002FDF782FA1821204600F068FCA88A298AC000FBF7DBFD81B24120C000FDF774FAB07800F030FAE98AB07800F0EBFD00F09B
:406B400036FAFEBDB413002010B5044A917B002901D0491E9173FFF7B5FD10BDA4130020F8B5074606464037B87F00283DD0B0788821009048431F4945186035287F0099C4
:406B8000FEF7E1FA012831D0287F401CC4B2052C00D300240020B877FF276F772F77A87702460146009800F02FFD717DFF2903D0304600F058FF777501F086FA00252F463A
:406BC0002246694630460097FEF720FE0099002902D03046FEF7CFFA641CE4B2052C00D300246D1CEDB2052DEAD3F8BD0320B877F8BD0000A413002000B5022000F002F8ED
:406C000000BD000010B502460021084B03E0002901D0002000E018460479944204D0491C0906090EF3D0002010BD0000C4130020F7B50646087982B00C46092807D0A07865
:406C4000F0770846FFF7A2FD012806D010E030460AF056FA022005B0F0BDA1788820284A484380186030007FFEF758FA012810D0A078FEF7F7FC01280BD037780121304697
:406C800001F043F925462035062F36D00B2F0FD107E06846027C21463046FEF731FE0D20D9E72046FEF7C4F8012801D1002028772046FFF72DF9054604AA21463046FEF773
:406CC0001EFC01205F2108556946087C0090A07833463A46294600F0C5FA69460A7CA0780323294600F02EFEA0782946FDF7BEFF30460AF005FA0020ADE70120D7E7000052
:406D0000A41300208A8802804A884280CA8882800A89C2808A890281498941817047000010B502464032937F0021002B03D1927E002A00D00121064AD279002A00D00021B7
:406D40000279092A00D10121807800F025FE10BD54140020704770B50D4602280DD004280DD0082808D1A8241146B020FDF754F929462046FDF750F970BD3820FAE75020AE
:406D8000F8E710B501460820FDF746F910BD000010B50446FF20F130022C02D0042C05D102E0FF20D93001E0FF20DD30002200F011FE1020FDF72AF90349A04308800146EE
:406DC0001020FDF729F910BDC201002010B504461020FDF71BF90449A043088001461020FDF71AF910BD0000C201002010B50446022804D0042C05D0082C07D111E0FF2042
:406E0000D93001E0FF20DD3000F0D9FD1020FDF7FDF805492043088001461020FDF7FCF810BDFF20F130EFE7C201002010B504461020FDF7EBF8044920430880014610203A
:406E4000FDF7EAF810BD0000C2010020F8B507460120B84085B214460E46012229467C2000F0B8FD32462946782000F0B3FD6078217800020143E078A57800020543607953
:406E80002679000206430C2047430D2080013C182046FDF7C1F8241D29462046FDF7BCF8201D3146FDF7B8F8F8BD401880B270478B00034310B5D10191201943C000FDF7E8
:406EC000ABF810BD70B505460C46407829780002014341200001FDF79FF8E878A978000201430A48FDF798F860782178000201438320C000FDF790F8E078A17800020143EA
:406F000002480830FDF788F870BD00001404000070B50D46044681B201208002FDF77CF8210C0448FDF778F881202946C000FDF773F870BD0404000010B50C460146B020A7
:406F4000FDF76AF8FF2021462D30FDF765F810BD10B50C460146B020FDF75EF8204600F063FD0021FDF758F810BD70B50C46054600F005F821462846FFF7DEFF70BD10B511
:406F80000C460146B020FDF747F8FF2021462930FDF742F810BD10B50146B020FDF73CF8FF20012220211D3000F014FD10BD10B544210020FDF730F80420FFF737FF10BD36
:406FC00010B50146B020FDF727F845210020FDF723F810BD010210B54D310020FDF71CF810BD10B50C460146B020FDF715F8FF202530FDF70BF8001980B210BD10B5040288
:407000000029014608D0B020FDF706F8214675310020FDF701F810BDB020FCF7FDFF512000214001FCF7F8FF00210348FCF7F4FF21467631ECE70000240A000010B5542148
:407040000020FCF7E9FF10BD10B553210020FCF7E3FF10BD10B5034908884880FFF7B6FE10BD0000C201002010B502484088FFF7DDFE10BDC201002010B5FDF7AFF810BD05
:4070800010B552210020FCF7C7FF10BD884201D8081A03E00022D243101A401880B2704710B50B4602460021F820FCF73DFF10BD10B5B020FCF7AAFFC0B210BD10B5014699
:4070C000B020FCF7A9FFFF202530FCF79FFF10BD10B5C820FCF79AFF10BD10B50C46002812D05820FCF792FF2070000A60705C20FCF78CFFA070000AE0706020FCF786FF6A
:407100002071000A607110BDFF20C130FCF77EFF2070000A6070FF20C530FCF777FFA070000AE070FF20C930E8E770B504466820FCF76CFF06466C20FCF768FF05467020FC
:40714000FCF764FF2670310A6170A570290AE1702071000A607170BD10B50446012905D01820FCF753FFC00B207010BD4820FCF74DFF8007C00FF7E70120C002704710B5F8
:407180000C460146B020FCF747FF0321A0014902401810BD10B504460146B020FCF73CFF8821074A61438A18FF206032507710770020907702460146204600F025FA10BD6D
:4071C000A413002088225043074A10B58018FF21603041770177002181770448418EFF201D3000F0ECFB10BDA41300205013002010B50023884201D8081A03E00024E44374
:40720000201A4018044980B2884201D8824200D90123184610BD0000FF7F0000F8B503465078167800020643D07895780002054350791779000288240743002900D09824F4
