:400000000040002011000000890500008905000080B500AF00F0ECFA80B500AF244B12221A6002F09FF8234B181C02F0F5F9012002F0A8F8302001F0ABFE1F4B1F4A1A6083
:400040001F4B8022D2051A601E4B1E4A126802210A431A601C4B1D4A1A601D4B00221A601C4B1C4A126808218A431A60FA23DB00181C01F0D9FE184B181C01F079FF174B95
:40008000882292011A60164B164A1A60164B802212061A60154B8022D2021A60144B40221A60074B8022D2051A60BD4680BDC04630001040001BB70004010B40060000807B
:4000C0000C020B4078002E407C002E406A2D000064F02E406CF02E40DC050000000301400000014040FF008008010B4000010B400401014080B582B000AF72B6374B0022C7
:400100001A60FB1D00221A7023E0FB1D1A78131C5B009B185B00324A9B183B603B681A78597809020A43997809040A43DB781B061343191C3B681A795B791B0213439BB2E0
:40014000081C191C00F0D8FAFB1D1A78FB1D01321A70FB1D1B78012BD7D9224BEE2212061A60214B992212041A60204B992212041A601F4B992212041A601E4A1D4B1B78CA
:40018000DBB202210B43DBB213701B4A1A4B1B78DBB23C218B43DBB214210B43DBB21370144A144B1B78DBB216210B43DBB21370124BD82212041A60114B20221A60114B2F
:4001C000C42292021A60104B20221A60FFF724FF00F0A2FABD4602B080BDC0466CF02E403C590100000002400001024000500F4010500F4000700F4001700F400800044059
:4002000000010440080104401801044010B5064C2378002B07D1054B002B02D0044800E000BF0123237010BD680F0020000000004857010008B5084B002B03D00748084979
:4002400000E000BF07480368002B00D108BD064B002BFBD09847F9E700000000485701006C0F0020A80B002000000000F0B58DB004AF786039607B68202B14D02B2B00D111
:40028000D2E0012B00D0D8E06D4B181C02F01AFD012000F0EFFB031E04D16A4B181C02F011FDCAE0C9E00823FB183A6813CA13C303CA03C3644B181C02F004FD634B181CD8
:4002C00002F084FC0823FB181B78042B1DD89A005F4BD3181B689F465E4B181C02F0F2FC13E05D4B181C02F0EDFC0EE05B4B181C02F0E8FC09E05A4B181C02F0E3FC04E084
:40030000584B181C02F0DEFCC046574B181C02F05DFC0823FB185B78002B04D1534B181C02F0D0FC08E00823FB185B78012B03D14F4B181C02F0C6FC0823FB185B6805339E
:400340001B781E1C0823FB185B6804331B781D1C0823FB185B6803331B781C1C0823FB185B6802331B78181C0823FB185B6801331B78191C0823FB185B681B781A1C3D4B5E
:40038000009001910292181C311C2A1C231C02F01DFC0823FB181B7A1A1C374B181C111C02F014FC354B181C02F010FC0823FB181B7A002B26D01F23FB1800221A7019E0E8
:4003C0000823FB18DB680822BA18127A111C1F22BA1812788A1A9B181B781A1C284B181C111C02F0F3FB1F23FB181A781F23FB1801321A700823FB181B7A1F22BA181278ED
:400400009A42DDD31F4B181C02F05CFC0823FB181B7C5BB21C4A101C191C02F0D7FB194B181C02F04FFC08E0184B1B78042B03D1012000F01FFBFFE7C046BD4609B0F0BDA5
:400440004C5701005C5701006C5701009457010028590100A0570100C4570100E85701000C5801003458010040580100545801005C580100685801009C580100DC580100C6
:400480001059010014590100185901001821002090B583B000AF00F06BF962B601F014FE032001F00BFD274B181C00F051FA00F091F9011C244B1A6880231B02134001D09A
:4004C000012300E00023CB18002B39D11F4B1B78012B33D0FC1D032003F038FB031C2370BC1D01F0A2FF031C23707C1D05F0DAFA031C2370FB1D1B78032B0AD17B1D1B786D
:40050000042B03D07B1D1B78062B12D101F05EFD0FE07B1D1B78022B0BD0022001F0F2FB01F0E4FB01F038FD01F0D2FB002001F0E9FBBB1D1B78181C01F07BFF03F00EFB5D
:40054000B5E7C0466D020000080224401821002080B586B000AFF860B9607A6000237B6109E0BB685A1CBA601B78181C00F01CF97B6901337B617A697B689A42F1DB7B6892
:40058000181CBD4606B080BD80B500AF02F0D2FA031C1B680C2B00D1FEE7FEE780B584B000AF7860104B1A687B68D3181A1C0F4BD21A8023DB009A4209DC0B4B1B68FB6071
:4005C000094B1A687B68D218074B1A6007E002F0B1FA031C0C221A6001235B42FB60FB68181CBD4604B080BDAC0B00204821002080B586B000AF224B7B61224B3B61204B63
:400600007B6135E03B691B68FB603B695B68BB603B699B683B6000237B600CE0FB681A68BB681A60BB680433BB60FB680433FB607B6804337B607A683B689A42EED13B69F4
:40064000DB683B6000237B6008E0BB6800221A60BB680433BB607B6804337B607A683B689A42F2D13B6910333B617B69013B7B617B69002BC6D102F063FAFFF709FFFEE712
:4006800001000000145C010080B582B000AF154B144A126801218A431A6000237B600FE07B68032B04D8104B7A689200D35800E00E4B0F4A796889008B507B6801337B6074
:4006C0007B682F2BECD9FFF715FD0A4B00221A60044B044A126801210A431A60BD4602B080BDC04600001040000000008905000000000020C000002080B582B000AF78603B
:4007000039607A683B68101C00211A1C02F056FABD4602B080BDC04680B500AF054B03221A60054B03221A60044B00221A60BD4680BDC0463000304030003140000E3F401D
:4007400080B500AF00F056F8BD4680BD80B500AF064B064A1268802109060A431A6000F019F800F01BF8BD4680BDC0460000244080B500AF064B1B78002B04D1FFF7E0FF56
:40078000034B01221A70FFF7E1FFBD4680BDC046840F002080B500AFBD4680BD80B500AF00F088F8BD4680BD80B582B000AF7860C046064B1B681F221340082BF9D0044B10
:4007C0007A681A60BD4602B080BDC046080224404002244080B582B000AF054B1B681F2213407B607B68181CBD4602B080BDC0460802244080B500AF1B4B1C4A1A601C4B2B
:4008000000221A601B4B01221A601B4B1B4A1A601B4B07221A601B4B00221A601A4B01221A601A4B154A1A60194B00221A60194B04221A60184B00221A60184B00221A6087
:40084000174B00221A60174B00221A60164B00221A60164B00221A60144B1B689AB2144B1A80BD4680BDC046000024400B0000024000244048002440000324400700008066
:40088000040324401003244044002440000224400402244050002440880E2440C80E2440480F2440080F2440C80F2440880F2440860F002080B500AF074B074A1268074984
:4008C0000A40902109040A431A60054B054A12881A60BD4680BDC04600010240FFFF0FFF880F2440860F002080B500AF064B00221A70064B00221A70054B00221A7000F067
:4009000009F8BD4680BDC0463E210020282100203C21002080B500AF0A4B1B88002B05D1094B181C00210C2202F048F9054BDB88002B05D1054B181C0021062202F03EF97A
:40094000BD4680BDC80B00203021002020210020B0B594B004AF78603E23FB1800221A802823FA183A4B111C1A1C1423081C111C1A1C02F01AF9374B1B78002B04D1FFF7FB
:40098000B3FF344B01221A707B68002B55D0324B7A681A603E23FB181B88002B29D11023FB181C22BA185A601023FB182022BA181A601023FB1800221A812023FB181B2297
:4009C0001A802023FB181B225A802023FB1804221A711C23FB1800221A703E23FC181023FA180E23FB18101C191C03F093F9031C23803E23FB181B88002B22D13E23FC18A1
:400A000016481749AE231A012823FD1805230093144B0193144B02932B1C03F0D1F8031C23803E23FB181B88002B0AD10F4B01221A700F4B08221A7003E03E23FB18012299
:400A40001A803E23FB181B88181CBD4610B0B0BD48590100880F002014210020D90D0000C80000208064010079020000182100201921002090B585B000AF021CFB1D1A70E9
:400A8000FB1D1B78022B04D90E23FB1801221A8036E0FB1D1B78002B09D11D4B1D4A1A811B4B30225A801A4B30229A800FE0FB1D1B78012B0BD1164B012252421A81144B39
:400AC000802212015A80124BE122D2009A80124BFA1D12781A700E23FC180D4B181C0EF0D1F9031C23800E23FB181B88002B07D10A4B1B78DBB204221343DAB2074B1A70F5
:400B00000E23FB181B88181CBD4605B090BDC046B00B0020102700003C2100203E21002080B582B000AF78607B681B789AB27B6801331B789BB21B029BB213439BB2181C99
:400B4000BD4602B080BDC04680B582B000AF78607B68DB880D4A934214D10D4B5B88002B08D17B689A880A4B5A807B689A78084B1A7007E0074B1B687A68911D86225200AD
:400B8000101C9847BD4602B080BDC046052A0000202100201421002080B582B000AF78607B689B880B4A934210D10B4B9B88002B04D17B685A88084B9A8007E0074B1B68E7
:400BC0007A68111D86225200101C9847BD4602B080BDC04602290000202100201421002080B582B000AF78600C4B5A887B689B899A420FD10A4B1B68832251007A68081C49
:400C0000111C9847074B1B78DBB201229343DAB2044B1A70BD4602B080BDC04620210020142100203E21002080B582B000AF7860BD4602B080BDC04680B582B000AF7860D7
:400C4000BD4602B080BDC04680B582B000AF7860BD4602B080BDC04680B582B000AF7860BD4602B080BDC04680B582B000AF7860BD4602B080BDC04680B500AF094B002270
:400C80005A70084B00221A70074B1B78052B03D1054B07221A7002E0034B08221A70BD4680BDC0462C2100201921002080B582B000AF78607B681B78032B3ED1204B1B78EF
:400CC000DBB21A1C0223134037D01E4B1B78022B10D002DC012B05D024E0032B12D0042B18D01FE0184B1B680822FF32101C0021984717E0144B1B6884225200101C002115
:400D000098470FE0104B1B680A22FF32101C0021984707E00C4B1B6885225200101C00219847C046064B1B78DBB202229343DAB2034B1A70034B00221A70BD4602B080BDD7
:400D40003E210020192100201421002080B500AFBD4680BD80B584B000AF78600E23FB1800221A707B689B79002B1CD10F23FB1800221A7012E00F23FB181B787A68D35C66
:400D8000002B04D00E23FB1801221A700BE00F23FB181A780F23FB1801321A700F23FB181B78052BE7D90E23FB181B78181CBD4604B080BD80B582B000AF021CBB1D1A8012
:400DC000BD4602B080BDC04680B582B000AF7860BD4602B080BDC04680B588B000AF021C3960FB1D1A70C24B1B78DBB201221343DAB2BF4B1A70FB1D1B78712B00D997E142
:400E00009A00BC4BD3181B689F461023FB1807221A701023FB1800225A701023FB18181C04F0A0FE1023FB1807221A701023FB1801225A701023FB18181C04F093FEAE4B63
:400E40001B68181CFFF786FF031E05D0AA4B1B68181C02F087FE2CE0A84B1B781A1C3F231A40A74B1B78191C3F230B409B011A43A44B1B78191C1F230B401B031A43A24B97
:400E80001B78191C7F230B405B041343BB61BB69DAB29E4B1A70BB691B0ADAB29B4B5A70BB691B0CDAB2994B9A70984B181C02F059FE00200DF0FAFE0C23FB183F221A709D
:400EC0000C23FB1800225A700C23FB18181C0DF00BFF8F4B04221A702BE13B68181CFFF7E5FE26E13B681A788A4B1A7021E13B687B617B691B78002B18D17B695B78002B78
:400F00000BD1854B0022DA80834B00229A80824B824A1A607B69804A5A60754B1B78DBB201229343DAB2724B1A7002E101E1704B1B78DBB21A1C2023134007D1784B1B78BE
:400F4000102B03D1764B0522DA70F2E0F1E03B68181CFFF739FFECE03B68181CFFF734FF6B4B02221A70E4E0694B04221A70E0E0674B1B78022B40D05D4B1B78DBB21A1CF0
:400F80000123134039D05A4B1B78DBB21A1C042313400BD05E4B03221A70554B1B78DBB204229343DAB2524B1A7026E0504B1B78DBB21A1C082313400BD0554B04221A70FA
:400FC0004B4B1B78DBB208229343DAB2484B1A7013E04F4B1B78032B0FD14D4B04221A70504B1B78002B08D10120FFF743FD031E03D1474B03221A709BE09AE03B681B8822
:40100000181CFFF7D7FE94E0474A3B68111C1A1C0223081C111C1A1C01F0C7FD3D4B00221A70424B00221A70FFF790FE81E0FFF723FE7EE03B685B88162B05D81E23FB1886
:401040003A6852881A8003E01E23FB1817221A803B681E22BA1811881A8800231204120C1B0C1B041343181C0EF0D0FF61E03B68181C00F07DF85CE03B68181C00F06EFA84
:4010800057E000F0BFFD54E03B68181C00F09CFC4FE03B68181C00F005FE4AE03B68181CFFF7CAFD45E03B68181CFFF799FD3B68181CFFF7C9FD0E4B1B78DBB21A1C012315
:4010C000134004D13B6818680EF03AFC31E030E03B68181CFFF7C0FD2BE03B68181CFFF7C3FD26E03B68181CFFF79EFD21E0C0463E2100205C590100C40B00207CF1FF0F1A
:401100007DF1FF0F7BF1FF0F78F1FF0FBC0B002018210020282100208C0F0020A80B0020D40B00203C2100202C21002019210020C0460D4B1B78DBB21A1C112313400FD0AE
:40114000094B1B78DBB201229343DAB2064B1A70064B1B68FA1D11783A68081C111C9847BD4608B080BDC0463E2100201421002080B586B000AF78600023FB60664B1B78CF
:40118000012B00D0C5E0654B1B78DBB21A1C0223134000D1BDE00A23FB187A6812891A800A23FB181B88062B05D00A23FB181B88142B00D0A6E00823FB187A6852891A8055
:4011C0001423FB1800221A808AE07B685A681423FB181B88D318FB601323FB1800221A70FB681A884E4B1B889A4200D26EE0FB681A884B4B5B889A4200D967E00A23FB18BB
:401200001B88062B62D11623FB1800221A8053E01623FB181A884349131C5B009B185B00CB189A88FB689B889A423ED11623FB181A883C49131C5B009B185B005B5A002BF9
:4012400013D11623FB181A883649131C5B009B185B00FA68CB18111C0422181C01F0A5FC1323FB1801221A701FE01623FB181B88002B0ED11623FB181B885A1C2949131C33
:401280005B009B185B00CB189A88FB689B889A420BD0254B1B68FA68111D0C22FF32101C98471323FB1801221A701623FB181A881623FB1801321A801623FB181B88012B7E
:4012C00004D81323FB181B78002BA1D01423FB181422B9180A22BA18098812888A181A801423FA180823FB1812881B889A4200D26BE70A4B1B78DBB201229343DAB2074BD4
:401300001A7006E0084B1B680822FF32101C00219847BD4606B080BD192100203E2100201C210020C80B00201421002080B582B000AF021CFB1D1A70FB1D1B78002B06D0EA
:40134000324B1B780133DAB2304B1A7002E02F4B00221A7005E02D4B1B780133DAB22B4B1A702A4B1B78012B19D8284B1B78191C274A0B1C5B005B185B009A5A254B1B88B8
:401380009A42E8D3214B1B78191C214A0B1C5B005B185B009A5A1F4B5B889A42DBD81B4B1B78012B28D8194B1B781A1C131C5B009B185B00164A9918174B1A785B781B02F8
:4013C0001A4300231204120C1B0C1B041343181C0EF0F0FA031E15D0104B1B6884225200101C002198470E4B1B78DBB202229343DAB20B4B1A7005E00A4B03221A70002091
:4014000000F02CFABD4602B080BDC0463D210020C80B00201C2100202C210020142100203E2100201921002080B582B000AF78607B68DB88434A934238D0424A934207DC53
:40144000A822920193420DD03F4A93421CD075E03E4A93424ED03D4A934239DB3C4A93425AD06BE03B4B1B88002B04D17B689A88384B1A8062E0384B1B687A68911D862238
:401480005200101C984759E0324B5B88002B04D17B689A882F4B5A8050E02F4B1B687A68911D86225200101C984747E0294B9B88002B04D17B689A88264B9A803EE0264B3E
:4014C0001B687A68911D86225200101C984735E0204BDB88002B04D17B689A881D4BDA802CE01D4B1B687A68911D86225200101C984723E0174B1B89002B04D17B689A8890
:40150000144B1A811AE0144B1B687A68911D86225200101C984711E00E4B5B89002B04D17B689A880B4B5A8107E00B4B1B687A68911D86225200101C9847C046BD4602B0CC
:4015400080BDC046022A0000012A0000042A0000A62A0000302100201421002080B592B000AF7860B64B1B78DBB21A1C0223134000D161E13E23FB187A6812891A803C2343
:40158000FB187A6852891A807B685B683B64AD4B1B78032B00D099E04623FB1800221A808AE03B6C181CFFF7BBFA031C1A1C2423FB181A803B6C02333B643B6C1A7824230E
:4015C000FB189A703B6C01333B643B6C181CFFF7A7FA031C1A1C2423FB189A803B6C02333B643E23FB181B88152B20D12423FB1802229A752423FB180622396C9B181022BD
:40160000181C01F0D2FA3B6C10333B648E4B1B78191C8E4A0B1C5B005B185B00D3189B881A1E8B4B9A4200D000E0C04632E03E23FB181B88072B2DD12423FB1801229A75D4
:401640003B6C181CFFF76CFA031C1A1C2423FB18DA803B6C02333B647B4B1B78191C7B4A0B1C5B005B185B00D3189B88C0225201934203D0774A934206D00BE02423FB1870
:40168000181CFFF7D1FE05E02423FB18181CFFF75BFAC0466A4B1B78DBB201229343DAB2674B1A704623FB184622B9183E22BA18098812888A181A804623FA183C23FB189C
:4016C00012881B889A4200D26BE7B5E05D4B1B78022B00D0B0E04623FB1800221A80A2E03B6C181CFFF71CFA031C1A1C0C23FB181A803B6C02333B643B6C181CFFF710FA28
:40170000031C1A1C0C23FB185A803B6C02333B643B6C181CFFF704FA031C1A1C0C23FB189A803B6C02333B643E23FB181B88062B04D10C23FB1802229A7562E03E23FB187A
:401740001B88082B5DD10C23FB1801229A753B6C181CFFF7E5F9031C1A1C0C23FB18DA803B6C02333B644423FB1800221A8033E04423FB181A883549131C5B009B185B005B
:40178000CB189A880C23FB18DB889A421DD14423FB181A882D49131C5B009B185B005B5A002B12D14423FB181A882849131C5B009B185B000C22BA180220C918131804224F
:4017C000081C191C01F0F1F90BE04423FB181A884423FB1801321A804423FB181B88012BC6D9194B1B78191C184A0B1C5B005B185B00D3189B881A1E174B9A4200D000E06D
:40180000C0460F4B1B78DBB201229343DAB20C4B1A704623FB184622B9183E22BA18098812888A181A804623FA183C23FB1812881B889A4200D253E7BD4612B080BDC0465A
:401840003E210020192100203D210020C80B0020FEFF0000011800001218000080B582B000AF021CFB1D1A70FB1D1B78002B06D0354B1B780133DAB2334B1A7002E0324B22
:4018800000221A7005E0304B1B780133DAB22E4B1A702D4B1B78012B19D82B4B1B78191C2A4A0B1C5B005B185B009A5A284B1B889A42E8D3244B1B78191C244A0B1C5B00D4
:4018C0005B185B009A5A224B5B889A42DBD81E4B1B78012B2FD81C4B1B78181C1D491B4A031C5B001B185B00087849780902084300210004000C090C09040143985AD3180C
:401900005B881B04034300221A1C081C111C0EF035F8031E15D0104B1B680A22FF32101C002198470D4B1B78DBB202229343DAB20A4B1A7005E00A4B04221A70002000F047
:40194000D3F8BD4602B080BD3D210020C80B00201C2100202C210020142100203E2100201921002080B582B000AF3B1C00221A803B1C00225A80114B1B78002B09D1104B76
:401980005B8801339AB23B1C1A800E4B1A893B1C5A803B1D3A1C12681A603A1D002311880904090C1B0C1B040B43528812041B041B0C1343181CBD4602B080BD3D2100200B
:4019C00020210020C80B002080B58AB000AF78600823FB1800225A80404B1B78042B00D079E03F4B1B78DBB21A1C0223134000D171E01E23FB187A6812891A807B681A7B90
:401A00000823FB181A750823FB187A6812881A800823FB181B7D012B04D12623FB1804221A8003E02623FB1812221A807B685B683B622423FB1800221A803CE03B6A181C37
:401A4000FFF76EF8031C1A1C0823FB185A803B6A02333B620823FB181B7D022B0CD10823FB183A6A0433111C1022181C01F09DF83B6A10333B6214E03B6A181CFFF750F884
:401A8000031C1A1C0823FB189A803B6A02333B62144B1B78002B04D10823FB18181CFFF77BF82423FB182422B9182622BA18098812888A181A802423FA181E23FB181288FC
:401AC0001B889A42BAD3064B1B78DBB201229343DAB2034B1A70BD460AB080BD192100203E2100203D21002080B584B000AF021CFB1D1A700C23FB1800221A800C23FB18A3
:401B000000225A80FB1D1B78002B06D0374B1B780133DAB2354B1A7005E0344B00221A70FB1D01221A70FFF71DFF031C1A1C0C23FB181A600C23FB181A882D4B1B889A424B
:401B400015D90C23FB181A88294B5B889A420ED80C23FB185A88264B1B889A4207D30C23FB181A880C23FB185B889A4203D91F4B1B78002BC6D01D4B1B78002B21D11D4B8D
:401B80000C22B9181A785B781B021A4300231204120C1B0C1B041343181C0DF0D9FE031E21D0154B1B6885225200101C00219847124B1B78DBB202229343DAB20F4B1A704B
:401BC00011E00F4B05221A700B4B1B681222FF32101C00219847094B1B78DBB202229343DAB2064B1A70BD4604B080BD3D2100201C2100202C210020142100203E2100209A
:401C00001921002080B500AF244B1B78DBB21A1C022313403FD0224B1B78022B17D002DC012B05D037E0032B1DD0042B27D032E01B4B02221A700020FFF778FB174B1B782B
:401C4000DBB201229343DAB2144B1A7023E00120FFF76CFB114B1B78DBB201229343DAB20E4B1A7017E00120FFF7F8FD0B4B1B78DBB201229343DAB2084B1A700BE001201D
:401C8000FFF732FF054B1B78DBB201229343DAB2024B1A70C046BD4680BDC0463E2100201921002080B582B000AF7860074B1B78DBB21A1C0223134005D07B689B790A2BFD
:401CC00001D1FFF79FFFBD4602B080BD3E21002080B500AF044B044A1268802109060A431A60BD4680BDC04608010B4080B500AF034B034A1268520052081A60BD4680BDA2
:401D000008010B4090B585B000AF78600F23FC1800F08BFB031C23700B4B1B6807229343BB607B6807221340BA681343BB60064BBA681A600F23FB181B78181C00F079FB9E
:401D4000BD4605B090BDC04600010B4090B585B000AF78600F23FC1800F067FB031C2370094B7A6807210A40D104074A1268074802400A431A600F23FB181B78181C00F025
:401D800058FBBD4605B090BD00010B40FFFFC7FF90B58BB000AF78602723FC1800F045FB031C2370184B1A680C23FB181A60174B1A680C23FB185A607B68033B144AD35C45
:401DC0001A1C0C23FB189A60124B1A680C23FB18DA601C23FB18104A1A600C23FA181C23FB185A600D4B1C22BA181A600C4B0D4A1A600A4B1B682723FB181B78181C00F0AD
:401E000018FBBD460BB090BD08010B4000010B40245B010030001040B6EA000008001040040010401700008080B584B000AF78600023FB60154B154A126801210A431A6071
:401E4000134B144A1A60144B134A1268802109020A431A607B68002B12D01023FB600CE0012000F085F800F019F8031E02D00023FB6005E07B68013B7B607B68002BEFD16C
:401E8000FB68181CBD4604B080BDC04660F02E4078002E400220000010002E4080B582B000AF054B1B68012213407B607B68181CBD4602B080BDC0460C002E4090B585B010
:401EC00000AF7860114B1B6807221340022B16D00F23FC1800F0A9FA031C23700C4B7A68032111400A4A1268032082430A431A600F23FB181B78181C00F09BFA02E00020A4
:401F000000F008F8BD4605B090BDC04600010B4064F02E4080B582B000AF021CFB1D1A7001BEBD4602B080BD80B582B000AF786009E00C4B1B68181C00F06EFA7B680A4A9D
:401F4000944663447B607A6880231B029A42F0D8064B1B687A685343181C00F05DFABD4602B080BDE80B00200080FFFFE00B002080B582B000AF021CBB1D1A80BB1D1B8849
:401F8000044A12785343181C00F046FABD4602B080BDC046E40B002090B583B000AFFC1D00F043FA031C2370074B074A126804218A431A6030BFFB1D1B78181C00F039FAAF
:401FC000BD4603B090BDC04610ED00E090B583B000AFFC1D00F029FA031C2370114B114A1268520052081A600F4B104A128892B21A600F4B0E4A126804210A431A600D4B23
:402000001B683B600220FFF7A1FE30BF094B3A681A60FB1D1B78181C00F00BFABD4603B090BDC04600000B400C000B4052F1FF0F10ED00E000010B4080B500AF0E4B0E4ADE
:40204000126801218A431A600B4B0B4A126802218A431A60094B094A126830218A4310210A431A60054B054A126807218A4301210A431A60BD4680BD00F02E4000FF2E40B5
:4020800080B500AF0E4B0E4A126802218A431A600C4B0C4A126807218A4302210A431A60084B084A126830218A4320210A431A60034B034A126801210A431A60BD4680BD1E
:4020C00000F02E4000FF2E4090B583B000AF00F079F8031E22D100F027F8031E1ED000F031F8031E14D1FC1D00F09FF9031C237000F028F90B4B0B4A1268520052081A608D
:4021000000F06CF9FB1D1B78181C00F092F905E0044B044A1268520052081A60BD4603B090BDC04604010B4080B500AF044B1B68002B01DA012300E00023181CBD4680BD1E
:4021400004010B4080B582B000AF054B1B689B0F9B077B607B68181CBD4602B080BDC0460C020B4080B500AFFFF766FF044B044A1268802109060A431A60BD4680BDC04684
:4021800000F02E4080B584B000AF78600C4B1B6801221340FB607B68002B02D0012B03D005E0FFF749FF06E0FFF76AFF03E00020FFF7B0FEC046FB68181CBD4604B080BDA7
:4021C00000F02E4080B500AF054B1A68C0231B02134001D0012300E00023181CBD4680BD00010B4080B582B000AF78607B68022B02D90020FFF78EFE054B1B687A68D200BE
:402200000132D34001221340181CBD4602B080BD10020B4080B584B000AF786039607B68022B02D90020FFF775FE7B68181CFFF7D9FF031E15D10C4B1B687A68D200111CBB
:4022400003228A40D2431340FB603B68032213407A68D2009340FA681343FB60024BFA681A60BD4604B080BD0C020B4080B582B000AF7860054B1B687A68D200D3400322D4
:402280001340181CBD4602B080BDC0460C020B4080B582B000AF7860144B144A11687A680A431A607B680122134005D0C0460020FFF798FF031EFAD07A6880235B0013407A
:4022C00005D0C0460120FFF78DFF031EFAD07A6880235B02134005D0C0460220FFF782FF031EFAD0BD4602B080BDC04610020B4080B584B000AF78600023FB607B68012B0F
:4023000009D002D3022B0BD00EE00C4B1B681B041B0CFB600CE0094B1B681B0CFB6007E0074B1B68FB6003E00020FFF7F3FDC046FB68181CBD4604B080BDC04600020B4055
:4023400004020B4080B582B000AF0020FFF74AFF031E03D01E4B00221A6024E00120FFF741FF031E03D01A4B01221A601BE00220FFF738FF031E03D0154B02221A6012E01F
:40238000144B01221A60124B00221A600020FFF76DFF021C104B1A6000200021FFF73AFF0120FFF775FF0A4B1B68181CFFF7A0FF031C7B60C046064B1B68181CFFF798FF82
:4023C000021E7B689A42F6D0BD4602B080BDC046B80F0020940F0020980F002080B500AF0A4B1B68002B0ED0094B094A126801218A431A60074B1B680020191CFFF70AFF57
:40240000024B00221A60BD4680BDC046940F002010020B40980F00200230800803D00138FDD1C046C046C0467047EFF3108072B6704780F31088704780B582B000AF786028
:402440000A1CBB1C1A80BB1C1A887B681A60BD4602B080BD80B582B000AF78600A1CBB1C1A80BB1C1A887B681A60BD4602B080BD80B584B000AF494B1B78DBB21B02484A35
:402480001278D2B21343FB60464B1B78DBB21B02454A1278D2B21343BB60BB68434A934207D1FB68072B04D1414BBB600423FB6009E0BA68D4231B019A4204D1FB68042B30
:4024C00001D13B4BBB603B4BBA681A603A4BFA681A603A4B1B78DBB21B02394A1278D2B21343FB60FA6880239B019A4202D0FB68002B01D1334BFB60334BFA681A60334B82
:402500001B78DBB21B02324A1278D2B21343FB60FB68304A934206D0FB682F4A934202D0FB68052B01D12D4BFB602D4BFA681A602C4B1B681B097B602B4B1B68AA2B29D1CB
:402540007B68012B26D9214B1B78DBB20E2B21D1264B1B78DBB29BB21B0299B2244B1B78DBB29AB2BB1C0A431A80224BBA1C12881A60214B1B78DBB29BB21B0299B21F4BB5
:402580001B78DBB29AB23B1C0A431A801C4B3A1C12881A60BD4604B080BDC046D9F0FF0FD8F0FF0FDFF0FF0FDEF0FF0F580B0000580D00006C002E4074002E40DBF0FF0FE3
:4025C000DAF0FF0F0220000078002E40DDF0FF0FDCF0FF0F0F0F000005050000050F000080002E40EC0F00F0E00F00F06DF2FF0F6CF2FF0F84002E406FF2FF0F6EF2FF0FAA
:4026000094002E4080B582B000AF021CBB1D1A80BB1D1B88181CFFF7ABFCBD4602B080BD80B582B000AF78607B68181CFFF77CFCBD4602B080BDC04680B500AF00F0DEF89F
:40264000BD4680BD80B500AF00F0E2F8BD4680BD80B500AF00F0DCF8044B181C00F09CF8032000F0A5F8BD4680BDC0462528000080B500AF024B181C00F07CF8BD4680BD31
:402680002528000080B500AF0223FF33181CBD4680BDC04680B582B000AF78602B23181CBD4602B080BDC04680B582B000AF78602B23181CBD4602B080BDC04680B582B0E1
:4026C00000AF78602B23181CBD4602B080BDC04680B582B000AF78602B23181CBD4602B080BDC04680B582B000AF78602B23181CBD4602B080BDC04680B582B000AF78601B
:402700002B23181CBD4602B080BDC04680B582B000AF78602B23181CBD4602B080BDC04680B582B000AF78602B23181CBD4602B080BDC04680B500AF2B23181CBD4680BDA9
:4027400080B582B000AF021CFB1D1A702B23181CBD4602B080BDC04680B582B000AF786039602B23181CBD4602B080BD80B500AFBD4680BD80B582B000AF786000F048F8CC
:402780007B68181C00F008F8032000F011F800F035F8BD4602B080BD80B582B000AF7860024B7A681A67BD4602B080BD0000002090B585B000AF021CFB1D1A700623FB60CA
:4027C0000B23FC18FFF731FE031C23700A4B0A4A1268C0218A43111CFA1D1078FA689040021C0A431A600B23FB181B78181CFFF720FEBD4605B090BD0CE400E080B500AF37
:40280000024B802252011A60BD4680BD00E100E080B500AF024B802252011A60BD4680BD80E100E080B500AF12F07AFFBD4680BD002243088B4274D303098B425FD3030A82
:402840008B4244D3030B8B4228D3030C8B420DD3FF22090212BA030C8B4202D31212090265D0030B8B4219D300E0090AC30B8B4201D3CB03C01A5241830B8B4201D38B03B4
:40288000C01A5241430B8B4201D34B03C01A5241030B8B4201D30B03C01A5241C30A8B4201D3CB02C01A5241830A8B4201D38B02C01A5241430A8B4201D34B02C01A52415F
:4028C000030A8B4201D30B02C01A5241CDD2C3098B4201D3CB01C01A524183098B4201D38B01C01A524143098B4201D34B01C01A524103098B4201D30B01C01A5241C308AE
:402900008B4201D3CB00C01A524183088B4201D38B00C01A524143088B4201D34B00C01A5241411A00D20146524110467047FFE701B5002000F0FCF802BDC0460029F7D08D
:4029400003B5FFF775FF0EBC4243891A1847C04603460B437FD4002243088B4274D303098B425FD3030A8B4244D3030B8B4228D3030C8B420DD3FF22090212BA030C8B4211
:4029800002D31212090265D0030B8B4219D300E0090AC30B8B4201D3CB03C01A5241830B8B4201D38B03C01A5241430B8B4201D34B03C01A5241030B8B4201D30B03C01A0F
:4029C0005241C30A8B4201D3CB02C01A5241830A8B4201D38B02C01A5241430A8B4201D34B02C01A5241030A8B4201D30B02C01A5241CDD2C3098B4201D3CB01C01A52415F
:402A000083098B4201D38B01C01A524143098B4201D34B01C01A524103098B4201D30B01C01A5241C3088B4201D3CB00C01A524183088B4201D38B00C01A524143088B42C4
:402A400001D34B00C01A5241411A00D201465241104670475DE0CA0F00D04942031000D34042534000229C4603098B422DD3030A8B4212D3FC22890112BA030A8B420CD381
:402A8000890192118B4208D3890192118B4204D389013AD0921100E08909C3098B4201D3CB01C01A524183098B4201D38B01C01A524143098B4201D34B01C01A5241030949
:402AC0008B4201D30B01C01A5241C3088B4201D3CB00C01A524183088B4201D38B00C01A5241D9D243088B4201D34B00C01A5241411A00D20146634652415B10104601D360
:402B00004042002B00D54942704763465B1000D3404201B5002000F00BF802BD0029F8D003B5FFF715FF0EBC4243891A1847C0467047C046014B18687047C046600F002001
:402B40000E4B70B500251E1C0D4CE41AA410A54204D0AB00F35898470135F8E713F048F8084B00251E1C084CE41AA410A54204D0AB00F35898470135F8E770BDFC5B0100A3
:402B8000FC5B0100FC5B0100045C010030B50024944208D0035D651C0C5DA34201D0181B02E02C1CF4E7002030BD002310B5934203D0CC5CC4540133F9E710BD031C82189E
:402BC000934202D019700133FAE770470FB40B4B13B51C68002C05D0A369002B02D1201C00F03EFA05AB201CA168049A019300F0E7FB16BC08BC04B01847C046600F0020CE
:402C000070B5051C0E1C002804D08369002B01D100F026FAAC68A3891B0702D52369002B19D1281C211C00F0AFF8002813D00120404245E03178002B1BDAA269934211DAD6
:402C4000221C281C00F048F8013042424241D0B20028ECD10136A3683278013BA360002AE8D10CE023681970236819780A2903D1E6E723681970236801332360EAE7002BB3
:402C800017DAA269934208DB0A2322681370236819780A2911D1281C01E0281C0A21221C00F01AF8013042424241D0B2002806D0BDE70A23226813702368013323600A201F
:402CC00070BD000008B5034B011C1868FFF798FF08BDC046600F002070B5051C0E1C141C002804D08369002B01D100F0B9F9234B9C4201D16C6808E0214B9C4201D1AC68E7
:402D000003E0204B9C4200D1EC68A369A360A3891B070AD52369002B07D023682269F6B2981A636998420FDB08E0281C211C00F02BF80028F1D0012040421DE0281C211CF2
:402D400000F020F90028F6D1A3680130013BA36023685A1C22601E706369984205D0A389301CDB0708D50A2E06D1281C211C00F009F90028DFD1301C70BDC0465C5B01008C
:402D80007C5B01009C5B0100354B70B51D68061C0C1C002D05D0AB69002B02D1281C00F05FF9304B9C4201D16C6808E02E4B9C4201D1AC6803E02D4B9C4200D1EC68A38981
:402DC0009AB2110723D4D10607D409220120326037321343A381404240E0530713D5616B002908D0231C4433994202D0301C00F021FA002363632422A3899343A381002322
:402E00006360236923600822A3891343A3812369002B0BD1A023A2899B00134080229200934203D0301C211C00F0ACF90123A289134005D00023A36063695B42A36103E09A
:402E4000910700D46369A36000202369834205D1130603D540231A43A281013870BDC046600F00205C5B01007C5B01009C5B0100F7B58A89051C0C1C13075ED44B68002B47
:402E800002DC0B6C002B1ADDE76A002F17D000232E682B6080235B011A4001D0626D15E0281C216A0123B847021C431C0ED12B68002B0BD01D2B01D0162B02D12E60002040
:402EC0005EE04021A3890B43A38159E0A3895B0706D56368D21A636B002B01D0236CD21A0023281C216AE76AB847A389421C06D12A68002A03D01D2A01D0162A19D1002261
:402F0000626022692260DB0405D5431C02D12B68002B00D16065616B2E600029CFD0231C4433994202D0281C00F084F90020606326E040221343A38122E00F69002FBED051
:402F40000B680F60DB1B01930023920700D14B69A360019B002BB2DD281C216A3A1C019BA66AB047002806DC40220120A38940421343A38104E0019B3F181B1A0193E8E75F
:402F8000FEBD000038B50B69051C0C1C002B01D100201CE0002804D08369002B01D100F05FF80B4B9C4201D16C6808E0094B9C4201D1AC6803E0084B9C4200D1EC680C2226
:402FC000A35E002BE4D0281C211CFFF751FF38BD5C5B01007C5B01009C5B010008B5024900F0AEF808BDC046852F0000002310B5041C03604360836081814366C28103614D
:4030000043618361191C08225C30FFF7D7FD054B24626362044BA362044BE362044B236310BDC0461139000039390000713900009D39000070B568254B1E5D430E1C291CC2
:40304000743100F03DF9041E08D000212A1C016046600C30A0606832FFF7B0FD201C70BD836913B5002B28D18364C3640365134B134A1B6882620193984201D10123836183
:40308000041C00F01FF86060201C00F01BF8A060201C00F017F80421E06000226068FFF7A5FFA06809210122FFF7A0FFE06812210222FFF79BFF0123A36113BD585B010001
:4030C000DD2F0000F8B51D4B061C1D68AB69002B02D1281CFFF7C4FF4835AC686B68013B05D40C22A75E002F10D06834F7E72B68002B06D1301C0421FFF79CFF286000287D
:4031000001D02D68E9E70C23336016E00123201C5B42E3810233A38167662760A760676027616761A7615C30391C0822FFF746FD201C6763A763A764E764F8BD585B01005A
:40314000F7B5041C071C002601914834002C16D06368A5680093009B013B00930DD4AB89012B08D90E22AB5E013304D0381C291C019B984706436835EDE72468E6E7301C6F
:40318000FEBD0000F0B58B8991B09B0706D50B1C47330B600B6101234B6145E00C1C0E23C95E061C002904DA8023A5891D4010D10CE001AA00F01EFC0028F5DBF023029D6D
:4031C0001B021D40194BED186B425D418027FF0001E000254027301C391C00F071F800280CD1A3899A051FD402221343A381231C4733236023610123636115E080220C4B9D
:40320000B362A38920601343A38120616761002D0AD00E23E15E301C00F0FEFB002803D00122A3891343A38111B0F0BD00E0FFFFDD2F000030B500293ED004390B68002B4B
:4032400000DAC9181D4A1368141C002B02D14B60116031E099420DD208680A189A4203D11368C3180B6053684B60216024E08A4203D8131C5A68002AF9D11D685C198C425A
:403280000BD10968691858181960904214D110685268091819605A600EE08C4202D90C23036009E008680C18944203D114685268001908604A60596030BDC046102100206C
:4032C000032370B5CC1C9C430834051C0C2C01D20C2405E0002C03DA0C2300202B6042E08C42F9D3204A1368101C191C002913D00A68121B0DD40B2A02D90A608B181FE0B2
:403300008B4202D15A6802601BE04A685A600B1C17E00B1C4968E9E7144E3368002B03D1281C00F0E3FA3060281C211C00F0DEFA031C421CD0D00322C61C964386420AD116
:403340001C60181C07210B301A1D8843821A0AD05142995007E0311A281C00F0C7FA431CBAD0331CECE770BD102100200C210020936810B5013B9360002B05DA9469A3426E
:4033800008DBCBB20A2B05D01368581C10601970C8B201E0FFF7A0FC10BDF8B5061C0F1C141CD518AC4208D02178301C3A1CFFF7DFFF0134431CF5D100E00020F8BD000006
:4033C000F0B59FB0061C0F1C02920593002804D08369002B01D1FFF743FE794B9F4201D1776808E0774B9F4201D1B76803E0764B9F4200D1F768BB891B070AD53B69002BA9
:4034000007D0002306AD6B6120336B761033AB763DE0301C391CFFF7B7FC0028F1D001204042CAE0059A111D12680591002A7EDB0992013423782E2B00D189E0217863483C
:40344000032200F00FFB002808D0604B0134C01A40238340181C2B68184328602178631C5B4806220293297600F0FCFA002800D191E0584B002B00D084E00722059B073337
:403480009343083305936B69039A9B186B61029C2378002B04D1029BE31A049311D003E0252BF8D00134F3E7049B301C391C029AFFF773FF431C7BD06A69049B944663443D
:4034C0006B612378002B73D00122002352426A6002A95432521801342B60EB60AB601370AB6521783C48052200F0BCFA002809D0394B0134C01A01238340181C2B68184388
:403500002860EEE72B68DA0604D55322202102A8121811701A0704D553222B2102A81218117022782A2A00D17CE7099B05E05242EA60022213432B607BE72278303A092AA0
:4035400004D80A214B4301349B18F6E7099371E763782A2B09D1059B02341A1D1B680592002B0DDA01235B420AE0002301342278303A092A04D80A214B4301349B18F6E726
:4035800007935BE705AB0093301C291C3A1C134B00E000BF07E005AB0093301C291C3A1C0E4B00F08BF80390039B013300D06AE7BB895B0600D532E70B981FB0F0BDC046ED
:4035C0005C5B01007C5B01009C5B0100C25B0100C65B010000000000BC5B01009B330000F7B5171C01930A698B6800900C1C934200DA131C221C3B6043321278002A01D0DB
:4036000001333B6023689B0602D53B6802333B60062523681D401ED0231C43331B785A1E9341226892061CD53020E1184031C870211C5A1C45310978A21840320233D1705F
:403640000FE0221C0123009801991932089EB047431C0ED00135E3683A689B1A9D42F0DBDAE7221C009801994332089DA847431C02D10120404220E006232068E1683A6875
:4036800003400025042B03D18D1AEB43DB171D40A3682269934201DD9B1AED180027AF420ADA221C0123009801991A32089EB047431CDED00137F2E70020FEBDF0B58BB026
:4036C00006920A1C43320793059004920A7E0C1C109B6E2A00D1A8E011D8632A22D009D8002A00D1B2E0582A00D0C2E045310A707C4A4FE0642A1DD0692A1BD0B9E0732AA8
:4037000000D1A7E009D86F2A29D0702A00D0B0E0202209680A43226037E0752A1FD0782A33D0A6E00E1C1A684236111D196013683370A1E021681A68080606D4490604D5ED
:40374000111D19600023D55E02E0111D19601568002D3BDA2D23049A6D42137036E021681A68080606D4490604D51568111D1960ADB202E0111D196015685A4B227E03934F
:403780000A276F2A1DD108271BE0221C782145321170554A19680392081D226818600D68100602D4500600D5ADB2D30702D520231A4322601027002D03D1202322689A43DC
:4037C0002260231C002243331A7002E00A27454B03936368A360002B03DB0422216891432160002D02D1049E002B0ED0049E281C391CFFF7A3F8039B013E5B5C281C3370E0
:40380000391CFFF715F8051EF1D1082F09D12368DB0706D563682269934202DC3023013E3370049B9B1B23612BE009681A68080607D4490605D5111D19601368A28A1A80E3
:4038400004E0111D1960136862691A600023049E236116E01A68111D196016680021301C626800F0FFF8002801D0801B6060636803E0261C42363270012323610023049A32
:403880001370079B05980093211C069B09AAFFF7A7FE431C02D10120404221E0236905980699321C079DA847431CF4D023689B0705D4099BE068984212DA181C10E00025E4
:4038C000E368099A9B1A9D42F3DA221C0123059806991932079EB047431CDCD00135EFE70BB0F0BDCD5B0100DE5B010038B50023064C051C081C2360FCF750FE431C03D174
:403900002368002B00D02B6038BDC0464021002038B50C1C0E25495F00F0B0F8002803DB636D1B18636503E0A289024B1340A38138BDC046FFEFFFFFF8B51E1C8B89051CCC
:403940000C1C171CDB0505D50E23C95E0022022300F074F8A289054B281C1340A3813A1C0E23E15E331C00F01FF8F8BDFFEFFFFF38B50C1C0E25495F00F060F8A389421C82
:4039800003D1054A1340A38104E0802252011343A381606538BDC046FFEFFFFF08B50E23C95E00F015F808BD38B5051C0020074C2060081C111C1A1CFCF7CAFD431C03D122
:4039C0002368002B00D02B6038BDC0464021002038B50023064C051C081C236000F062F8431C03D12368002B00D02B6038BDC0464021002038B50023064C051C081C111C32
:403A0000236000F057F8431C03D12368002B00D02B6038BD4021002038B50023064C051C081C236000F04EF8431C03D12368002B00D02B6038BDC0464021002038B5051CDC
:403A40000020074C2060081C111C1A1C00F042F8431C03D12368002B00D02B6038BDC04640210020C9B28218904204D003788B4202D00130F8E700207047000038B5051C18
:403A80000020074C2060081C111C1A1C00F02AF8431C03D12368002B00D02B6038BDC0464021002058220120014B40421A6070474021002058220120014B40421A60704705
:403AC000402100205822024B00201A607047C0464021002058220120014B40421A6070474021002058220120014B40421A60704740210020134A1088810703D08107890F00
:403B0000401A001D11791030484381B25088820703D08207920F801A001D800040180A494030098980B2CA0701D0503080B2890706D504495422091F09785143081880B201
:403B400070470000F60B0020C80F002010B501F009FF10BD10B501F01BFF10BD10B500F055FA10BD10B50749044609780220002907D1204601F064FF002802D120460BF064
:403B800067F910BD7A0D002070B504460120002C12D02368002B0FD0616800290CD0074D06222889208118462968FEF7FEFF6968606809780170002070BD0000C80F0020B2
:403BC000FFB585B0002768460E9D07734F481C460078002802D0082009B0F0BD10990F9801900095029105A807C800F001F90028F2D16946264603AB84460873002C19D06C
:403C0000002115E08A00B75A082F09D990198078002805D0083FB7521878401C187005E0002914D00027B75290198770491CC9B2A942E7D360460028CED10F98002809D0FC
:403C4000109901F03FFA002804D00120C4E701208446EFE701F09CFE2D480021416081600599016021888180022D07D3A1798171A17AC171A1890181218A418100211EE002
:403C8000481C19E082008B00A75AE65ABE46BE4211D26F463E80B4461E190296B678BE7001967646E6521719029EBB78B3706646A652019EBE70401CA842E3D3491CA9426C
:403CC000DED3134822460C3000906846037B0799069800F015F90028B8D168460B4C007B60700B480C3001F083FE0028AED1084907480C3108F048F80028A7D108F062F86C
:403D00000028A3D10121217066E70000F00B0020BC0F0020F8B5054633480E460078002802D002242046F8BD002E5BD000242F49002D16D02A89D0070DD02868002808D068
:403D400003881B3BE12B04D24088FB2801D81B2801D2012409E0900707D56868002804D1F7E70020088108604860002CDAD11F482F8907811C481B21801D0180418004219F
:403D8000017119490020891C0870F80705D016480622801D2968FEF708FF1449B80703D56A681148127882700F480D46801D0860001F486001F06AFE0B48801D01F058FECD
:403DC00028890DF00DFF28890EF042F803461033FFF790FE1F21C018890140180249308088809FE701249DE7F00B0020C80F0020FFB58446384F1C460020BB883F78054606
:403E000002460646002F11D100290ED0029999420BD36146002908D0002C06D00A99002906D02E4B0B99994202D2012004B0F0BD002144E0AB001F19BF78002F3BD0E35A12
:403E4000002B38D07B43591889B22B0000F04AF8050410161C253100A7782388BC46FF27233BEB37BB4222D26346032B1FD322E0A388002B1FD0302B19D31CE02389002B1A
:403E800019D0282B13D316E0A289002A13D01346134F233BBB420AD20DE0268A002A0AD033460F4F233BBB4201D2964203D901200EE0002001E000280AD16D1CEDB2099B87
:403EC0009D42B7D31C2463435B1802998B42ACD89642AAD8AAE70000F00B002079020000BAFF000030B47446641E2578641CAB4200D21D46635D5B00E31830BC184700001A
:403F0000FFB583B0002469460C801F4606468C80002806D00598002803D004983043800701D0012466E0002FFBD03449049809888842F6D3FEF79CFBFEF784FB00F00EFCE5
:403F4000002855D100F05EFD002851D12C49084601F0ECF805042D0C4AD12A480499066081800021C18007810C98007AC00704D0684601F026FD040007D10C98007A80070D
:403F800003D501A801F026FD0446BF1DFEB2002C20D13146059800F05DF804001AD10DF065FF040016D16A461088928808368518144AF1B29088D288AEB29319984207D375
:403FC000401B801A80B201F0A1FB050007D000E0FF25012400F05AFA002D04D008E0F8B200F01CF9F6E700F07DFA07490120087000F0C6FB204607B0F0BD0000F40B002065
:4040000041410000D40F0020FC0B002010B503480078012801D101F01BFA10BDFC0B002070B5084B0446DA889E8800205518B54206D81D68AA182260DA885118D98070BD91
:40404000032070BDD40F00200148008970470000D40F0020F0B587B007460D4600208900009006916846FFF7DBFF844600285DD1304800990160002117E02E4B88001A686A
:404080000629115406D22C4C0419667882185670628805E0C419203CA67A8218567022891B68C018491C4280C9B2A942E5D300242DE0601CC2B2059025E01E4FA300396882
:4040C0009600581840887118039604904E88B04217D938466F46FE80B6464F786E4677710297049F4F800168039F5E18767879184E700168764659184E800068029F18180E
:404100004770521CD2B2AA42D7D30598C4B2AC42CFD36046002809D168460699FFF780FF8446002802D1054900980860604607B0F0BD0000000C0020285C0100040C002035
:404140007047000010B5002809D005494A68002A05D0011F08788000105801F085FA10BD000C002010B50446FFF76EFFC0B2801DA0420CD307484068002808D0A100405860
:4041800001F0E4F9002801D00470001D10BD002010BD0000000C0020F8B516460D460446FFF752FFC0B2801DA04203D20020C0430090F8BDB2B2E9B2684601F0EDF9009989
:4041C000481C03D0024AA000526811500098F8BD000C0020F8B50746FFF736FF801DC6B20A49002005460C680DE06178002907D06188B94202D32078FFF7B4FF002804D1DF
:40420000241D6D1CEDB2B542EFD3F8BD000C002010B5002801D0FFF795FF10BD70B506460948002504680BE06178002905D062882078121D0023FFF7AFFF241D6D1CEDB270
:40424000B542F1D370BD0000000C0020FFB581B00A9C16002BD000F0EFF80546042826D0214F002C0BD02046FFF7B4FF2901C919486000281BD022460499FEF796FC1A490E
:4042800028010E5046187481019805707D20029CC000444300F0BEF8074604280AD000F053FAA0420ED800F04FFA201A06E0FF2005B0F0BD204600F0ABFA0020F0603572AA
:4042C0000020F5E700F040FA009000F0B7FA00980121001B009000F0EDF803493A0151180098C860E6E70000E00F0020F8B5060116483418217A042903D0E068002802D066
:4043000017E00020F8BD00F01FFA054600F096FA00F0A0F804280CD001010C480F18F8680021451900F0C6F80020F860284600F06FFA6068054D002801D0FFF769FF04206F
:4043400020720020A8516081E060DAE7E00F0020FEB500266A46304601232549050169180D7A042D02D0C96800291BD000211154401CC0B20428F0D300246846005D002820
:4043800030D01B48210108184189476805680291002101604160042241810272C160002E02D015E01354E3E700F054F804280ED001010F4808180190C6680021304600F014
:4043C00079F801980021C160304600F021FA0126002D07D038460299A847002F02D03846FFF716FF641CE4B2042CC6D3FEBD0000E00F00200EB5002005216A4600901181AF
:4044000050810348694600680EF0A5FB0EBD0000080C0020074A0020010189180B7A042B02D0C968002903D0401CC0B20428F3D370470000E00F0020054900200201521884
:40444000127A042A03D0401CC0B20428F6D37047E00F002030B50A4B04200A4C00210A011219157A042D06D0D268002A03D09A4201D808461346491CC9B20429EFD330BD36
:40448000FFFF0000E00F00207047000030B50020074C05460423020111190B72A5504D60401C4D81C0B2CD600428F4D330BD0000E00F002030B5094C00231A011219157A38
:4044C000042D04D0D568002906D02D18D5605B1CDBB2042BF1D330BD2D1AF7E7E00F0020002070471CB5002469460C70142001902346054A05480EF033FB04480068401CEC
:4045000000D1FF2420461CBD61450000080C00203EB5124A0146FF2000230124126800290DD0012914D0042908D104206946009308814B8110460EF00EFB80B23EBD6846EA
:40454000009304814381694610460EF0FFFAF4E768460093048143816946EBE7080C002070B545890468416800890300FFF7BAFC08280509091E22282628002006F0A2F95B
:404580001EE0022908D0C8B22A4621460CF0E0FC2046FFF73DFE13E002202A4621460CF0D7FC2946204600F00DF809E000200DF0C1FF05E02046FFF7CBFE01E0FEF7D6F841
:4045C000002070BD014B0022DB6818470C0C002070B5448905680089022803D0032809D0FF2070BD2246094C0023A46829460120A04708E0FFF7AEFA241DA2B200232946E1
:40460000022007F08AFA002070BD00000C0C0020704700000248002141600180418070470C0C002070B50C46002186B016460391012802D0022859D116E003A9012007F09D
:40464000B4FA01281BD1039D324621462846FEF7ACFA0095287801900220694608814E816846FFF7B5FF41E0214D002B686809D0049004A9022007F098FA01281DD0022021
:4046800006B070BD002812D0298840182146FEF78CFA28880024801980B228806988091D884206D12C801348FFF792FF03E00320E6E788421AD96C6018E004986860E27883
:4046C000A378110219430B4A698000231060E3565360032313815181A1788170E178C1706178417021780170042028800020C7E70C0C0020201000203EB515460C460228D3
:4047000003D004280CD000203EBD0091019002206946088107484A8100680EF01CFA07E00CF016FC044B0022DB6829462046984701203EBD080C00200C0C0020014AD16010
:40474000906070470C0C0020034801688068081A0A214843000970472C10002010B5FDF777FF482204490548FEF71FFA03490120C870002010BD0000445C010030140020F2
:4047800010B5FDF759FF10BD70B5134C2368002B08D0207B1149C20705D04008400020738868A08070BD88680B4AA18880B29268814203D90A4D691A091802E0814202D271
:4047C000411A5118A160A080A0689842EAD30EF0DFF900F013F870BD2C100020C0102E40FFFF000010B508461946FFF7A7FF10BD704710B5FFF780FF10BD0000034800219A
:40480000016041608160C160704700002C100020024610B5FF20002A0CD0FFF7EFFF064C0321207B0843207310010A21FEF786F82060002010BD00002C10002000B50448E3
:404840000A21806848430209FFF7D8FF104600BD2C1000200248007B8007C00F704700002C10002010B54B490868002802DA4A4B01221A7002229043086048480069454930
:40488000C00B4031096A0246C907C90F0A4259D0012000F0D5FA3F480E216C30FDF7DAFD3E4820218430FDF7D5FD3C4814219C30FDF7D0FD3948FF21C131A430FDF7CAFD3E
:4048C0003648FF212F31B030FDF7C4FD33483449BC30FDF7BFFD31483249AC30FDF7BAFD30492E48491CB430FDF7B4FD2B482E49B830FDF7AFFD29482C49CC30FDF7AAFD4A
:4049000026482B490830FDF7A5FD24482949A830FDF7A0FD214828498830FDF79BFD1F4826498C30FDF796FD1C481921C9029030FDF790FDFDF79CFDFDF7A4FEC0B20228E0
:4049400012D01FE000290BD0002101420AD0114801216030FDF77EFD0120FDF761FE97E70121F2E7FF2010BD15491648FDF772FD14481549001DFDF76DFD124800210830BA
:40498000FDF768FD54200449C043891C0870002010BD000000F02E401C0C002000002E40320300002F3F00003102000010520000EC160000FA12000031D000003AE3000058
:4049C0009956000080012E40F80F000070B50646581C80B245086D00002408E0304600F0A9F81055000A1119A41C4870A4B2AC42F4D3D80705D0D0182038D15CC47FD45446
:404A0000C17770BD10B5FF2000F01AFA0F49FF2048700E481021801D41800121417001700A490020C91C4870FFF71CFF04000AD100F02EF907210648FDF7FEFC04480721E2
:404A40001830FDF7F9FC204610BD00001C0C0020CC112E4070B5002405465B1E0AE0284600F068F8010A161971702D1D1055A41CADB2A4B29C42F2DB9C4203D1284600F090
:404A800059F8105570BD000070B500210A4D5B1E0AE0541864782602545C344346193480001D891C80B289B29942F2DB994202D1515C4019018070BD00102E40F0B505996F
:404AC000091FCFB200217E1E0BE0541864782502545C2C43164D45192C80001D891C80B289B2B142F1DBFC0712D01C78515C24020F4A0C4381180C809C785D78001D21023A
:404B000080B2294384182180001D80B2D9780CE059781A7809021143054A84182180001DD9789B78090280B2194380180180F0BD00102E40014940180088704700102E4003
:404B400010B50B490020487000F0A2F8002000F09DF9002000F08AF907210648FDF76CFC044807211830FDF767FC002010BD00001F0C0020CC112E4010B50C48007801285F
:404B80000FD100F055FF00F0DDF8002804D10848016A490849000162054802213030FDF759FC02490020C91E087010BD1F0C002040F02E4010B50B46062812D006DC01288D
:404BC0000CD0032801D1FFF7BBFF10BD0A28FCD00B28FAD105480078107010BDFFF712FF10BD1146184600F06DF910BD220C0020F8B5244DAC6A0127A007234E002816DACB
:404C0000307806280ED1286A384328621F480069F903084381B21D481030FDF71BFC042000F00EF9174802212830FDF705FCE00718D000F03FFF01280FD1002000F08CFFA3
:404C4000062000F0FDF81049FF20C91E48707078002802D1686B384368630A4801212830FDF7EAFBE0050BD53078042802D1052000F0E6F80348FF2101312830FDF7DCFB52
:404C8000F8BD000040F02E401F0C002000002E4010B503212348FDF7DDFB0120FDF7B2FC20483038406A204C80076178800F890001431C480C38FDF7CDFB6078002808D027
:404CC000401E022181401820FDF728FFC000083800E0B82081B21548FDF7BCFB1348032109021438FDF7B6FB10481149B830FDF7B1FB612189010F48FDF7ACFB0D48032100
:404D0000001FFDF7A7FB0C490C48FDF7A3FB0B480B496038FDF79EFB084801218838FDF799FB10BD70F02E40220C0020D8102E4090890000041E2E40FF0F000058122E402F
:404D400020900000044800684007400F022801D0002070470120704700010B4000B5FFF7F1FF002805D009480168C908C900016000BD0748016A49084900016205480169CB
:404D80000122D2039143016100BD000000010B4040F02E4000002E400849087806280BD148780749002803D1486B400840004863C86A01221043C862704700001F0C00200F
:404DC00040F02E4001480078704700001F0C002002484078022800D0012070471C0C002000B50300FFF77EF8080D050D0B070507090D012000BD032000BD042000BD0220F6
:404E000000BDFF2000BD0000074A9168D26889B2064B92B2994204D105498A4201D1012100E000210170704780002E4033D000003FE3000001494870704700001F0C002087
:404E400010B50446FDF7FEFB072C01D9FF2C01D102480470FDF7F0FB10BD00001F0C002001494870704700001C0C002010B5064A012805D01921C9021046FDF7EBFA10BD62
:404E80001D21C902F8E7000090002E4010B50A4A141D012808D009491046FDF7DBFA08492046FDF7D7FA10BD04491046891CFDF7D1FA0349491DF3E788002E4031D000007D
:404EC0003AE3000070B50C460546FDF7DBFBC0B202280E49287804D0FF2810D04C280CD810E0FF2809D10A4AD0680004800F032801D0087807E09069000A553803E00878DD
:404F0000207070BD4F382070087070BD1E0C002000002E40F0B50122002830D000292ED00424420600D00524792342065B06D21800D0641C034600221EE00C2516466E439A
:404F4000104D00277519AF720E4F002ABB51696007D0661EB24209D10B4E86197606760E05E05E06760E8027BE1B00E080269B198919521C2E81D2B2A242DED300221046AA
:404F8000F0BD0000B812002079020000074900200C2242435218927A012A05D0401CC0B20628F5D30020704701207047B8120020F8B50F000446164609D0184D1849686818
:404FC000A04202D94018A04201D38E4201D90120F8BD39462046FDF7D9FD00281BD0324639462046FDF7E1FDF0B200210C224A43521913895668F718A74208D90127A41B72
:405000001B1B9772834206DAC01A1469C0B2491CC9B20629EAD30020F8BD0000B81200207902000010B500F05DF80748054AC16806480C46FDF7B9FD04492046FFF76AFF90
:4050400010BD000079020000280C00203C100020002070470020054A002902D0012902D002E0506000E0906000207047280C002070B5084C154608460549A26889182A46D3
:40508000FDF793FDA0684019A06028B270BD00003C100020280C00203EB50A226946FFF7E7FF044606480A2200686946FDF76EFD002802D00020C0433EBD20463EBD0000E7
:4050C000280C0020002802D0044A914201D2FF20704703490A61C8600020704779020000280C0020024800214160816070470000280C002070B5074C154605486268801899
:405100002A46FFF755FF60684019606028B270BD3C100020280C002010B503490A220968FFF7E8FF10BD0000280C002010B50F4A002313600E4A13600E4B18600E4801605A
:405140000E49012008600E490860000290600E490C4808600D4914300860FF381538506000F0BCF800F0CAF9002010BD540C00203C0C0020680C00206C0C0020580C002079
:40518000480C0020001400204C0C0020600C0020014610B50020002910D0094B1A689C685118A14209D25868196080188A0704D08A07920F891A091D196010BD002010BDA9
:4051C0003C0C0020F8B50024164E671E321F3D463168136806E01422624310328A58521C1BD0641C9C42F6D36A1C14D02C461422544322460C3288500C214843FFF7C8FFA4
:405200003168002808510AD031680020103408517068401C70602846F8BD2546E4E73846F8BD00004C0C0020F3B50026F64381B000281BDB1E490968884217D80299002971
:4052400014D01B4F142204463F1D54432546396810354859401C09D0FDF7F4F938682F1F4159C359994203DBFDF7E6F93046FEBD214608310091465801590C2070430818DC
:405280000C220299FDF791FC0948761C001D0068C159B14200D100260549009A091D865008684159491C4151FDF7C6F90020FEBD480C0020002803DB07490968884202D9E5
:4052C0000020C043704704491422091D096850431030085870470000480C0020F0B500200D4A451E0346171F50600FE014260146714314680E1DA3510C461668083433515F
:405300001668083435511468401C635039688842ECD30020F0BD00004C0C0020F3B50026F64381B0002841DB2349096888423DD8029900293AD0204F142204463F1D54434B
:405340002546396810354859401C2FD0FDF77AF93868415900292BD0211D009146580C21005971430F46C1190C220298FDF71DFC11480021001D0068761C00590C34C0196D
:405380000160416081600C48001D00680159B14200D100260849009A091D865008684159491E4151FDF748F90020FEBD3046FEBDFDF742F9FAE70000480C0020FEB5044641
:4053C0000D4600201E49089E0860471E009001900290002C11D0486885420ED2002A0CD0002E0AD0642E08D808460C3001681C2068430C18207A002801D03846FEBD0120DE
:40540000226020721846FFF7DDFE6060401C13D06681A6810A4827610C3067610179A94200D205710021684601810A462846029B00F040F82846FEBD00202072DDE700001E
:40544000540C002038B50124009400F039F838BDFEB50027164EFF433D4600240EE01C20316860430818017A002906D04068FFF721FF002801D0254603E0641C3079A042B9
:40548000EDDA681C12D01C2130684D434419FDF7D9F869466068FFF741FF0546FDF7CCF8002DD9D1216868468847D5E7FEBD0000600C002038B50024009400F001F838BD25
:4054C0001FB500220C49541E0A60002811DB496888420ED808491C220C31096850430818406801A9FFF7A0FE401C02D0002004B010BD2046FBE70000540C0020F0B50021DD
:40550000114A4D1E174611710C3F0B46BD6016E008461C2460431668041D355114680646235014680836A3551468361DA353044616680A34335318301468491C2550786805
:405540008142E5D30020F0BD600C002038B500210091002811DB0F49097888420DDA0D4D04010C3529680859002807D0201D0818694600F06FF9002801D0002038BDFDF723
:4055800061F828680F34015D491E0155FDF754F8009838BD700C0020F7B582B0002502986E1E06602E48D21C024017462D4A2C4610460C380178106805E02301C358002BE6
:4055C0000FD0641CE4B28C42F7D3711C28D03401211D40180191039900F02AF900281FD101E02646F1E71F48016820460C300F521C480399026820460E301154194803990D
:40560000026820460F3011540398784300F0A0F8144900280968085102D00024009011E001251AE00F48016801980818009900F02CF9002801D0012502E00098C019009009
:40564000641CE4B203988442ECD3002D05D10298066004480179491C0171284605B0F0BDFCFF00007C0C0020F8B50D4600216A468C461180002839DB23490978884235DAAB
:40568000214B04010C3319680A59002A2ED020460C300B5A801C0E5C184670438018954224D3854222D2002006E007465F43BF18AF4206D0401CC0B2B042F6D36046002805
:4056C00014D0114E271DC8190C366A46294600F006F900280AD168460088012808D030682946C01900F0D1F8002803D00120F8BD0020F8BDFCF7A6FF30680F34015D491C43
:405700000155FCF799FFF3E7700C0020F8B50F46002400F031F8002817D10C4900220B460C334A600EE021011D680E466A501D680C36AA53B61C1D680F31AA551D68641C10
:405740006A54E4B2BC42EED31A71F8BD700C002000280BD0C01C074A81085068890053884118994203D89368516018187047002070470000700C0020F8B5064600200F4DDB
:40578000009029700C0121466846FEF749FC00280CD129460C3100980860301B001F84B221466846FEF73CFC002801D0FF20F8BD6C800098A8600020F8BD0000700C002007
:4057C000F8B5002827DB19490978884223DA174C05010C342168485900281CD028460C30085A009028460E300E5C401C0E5420682F1DC01900F064F800280CD12068002427
:4058000045590EE0094829460C300068C01900F03CF8002801D00120F8BD00982D18641CE4B2B442EED30020F8BD0000700C002030B50D4604000BD0A800FFF789FF606094
:40584000002805D000202570C0436080002030BD012030BD70B50D46040005D0002D03D00220205E002801DA012070BDFCF7EAFE0221615E60688900405828606088401EC2
:405880006080FCF7D9FE002070BD70B50D46040007D0002D05D002212078615E401E814201DB012070BDFCF7CDFE6088401C00B26080616880000D50FCF7BEFE002070BDA1
:4058C00010B5040009D0227800216068FDF776F90020C0436080002010BD012010BDF0B500231D46002802D00224045F0AE00120F0BD46689F00F6598E4201D1012503E095
:405900005B1CDBB29C42F4DA15700020F0BD00000148007870470000840C00207CB505460024FEF717F9A8796946087000A8062229460130FDF739F90021684605F088FA74
:405940000C2806D0072806D01F2806D0122806D006E0022404E0042402E0272400E0012420467CBD10B502280BD0032802D0042809D102E000F094F905E000F037FAFF28A9
:4059800001D100F047FAFFF71DFAFFF729FA10BD10B500F067FAFFF715FAFFF721FA10BD70B504460025FEF7D5F8002C06D0A079012803D8214602F043FE00E00125284675
:4059C00070BD01460120002902D05020088000207047000001460120002905D003485422007850430880002070470000860C002010B502460D49FE204870032410460DF052
:405A0000CDFB002810D10DF071FB00280CD106F029F9002808D100F05BFC002804D105F0E7FC002800D10024204610BD840C002002480021018280210180704700102E40AD
:405A400070B50025044600280ED0A07901280BD8FEF780F8A0790028204602D003F088F903E003F05DF900E00125284670BD0000014610B50120002904D006220248FDF7B0
:405A800094F8002010BD0000900C002001460120002903D0087802490870002070470000860C002010B5FFF78DF9012801D1FFF78FF910BD01480079704700003815002014
:405AC00038B504460120002C20D0617801291DD800290BD0FF25E535FEF73CF80C4828180088C0B22070072803D00EE0FF25CD35F2E70020694608706846FFF785F96946AA
:405B00000878012801D108202070002038BD000000102E40014A002192681047840C002008B500226B461A7026280CD0094A342852680BD0352805D1900703D50021352092
:405B400006F062F908BD19462620F9E7D007F9D03420F5E7840C0020014908717047000038150020F8B504460120002C26D06178012902D92278092A20D8002905D0FF2524
:405B8000E5352078092803D004E0FF25CD35F8E708202070FDF7DEFF2078114F114E08280DD00020FFF772F970780128207810D00D4969180880FE2070700020F8BD0120FC
:405BC000FFF764F90720B8810549203188800120F2E7B8810248217820308180EBE70000C0112E40840C002000102E4070B50E46050001D0002400E00C4C002C11D0E28A81
:405C0000500609D5D107C90F022003F095F9E08A40218843E08204E0D107C90F012003F08BF93146284602F065FE70BD98140020F8B50546002004460D4E009013E02246DE
:405C40006946284600F0B6FF0098002801D00DF087FAA878214602F025FCA878214602F013FC641CE4B2308AA042E8D8F8BD00005C150020064A02235188891C89B251807A
:405C8000814201D8102900D95380508870470000960C00200148407870470000960C0020F8B54A4CFFF78EF8012840D14848007800283CD002F0A6FD002838D004F06AFD43
:405CC000002834D0434E307E00287DD17078002500285BD0000706D53F488089070B00F025F9384370D13B484178684604F096FB21793A4CA2788918C9B2814262D802F061
:405D000081FD002860D0344860300789314E203602F0B8FB6846008802F0E2FB02F08AFC2F490988884203D10120FFF789F84BE02C49012008702748807B00281DD0002FD4
:405D40001BD04036F07E002817D123486030008820494000C031C98881420AD26078002807D103F017F92049088A03221202104308822078002800D0257002F0FDFB01201B
:405D8000FFF758F800F07AFC164C15E002F03AFD002819D0102402F04DFC214602F036FB02F09EFB0F4C0120207002F0E5FB0020FFF740F800F062FC20780128B4D1FEF76D
:405DC000CDFF25700020F8BDFF20F8BD701400201C0C002078140020A0102E409A0C0020AC0C0020960C0020E0112E4010B50848FF244078002809D102F004FD012805D140
:405E0000FEF7BAFE0720FFF71BF80024204610BD7814002008B5FEF7D5FF012801D0002008BD02F0EFFC002803D00D48017E002901D0FF2008BD417800290FD0684604F030
:405E4000EDFA022806D96846008802F049FB012002F09CFB0320FEF7F3FFE0E70020F7E77814002038B51E4CFEF7ACFF042813D0052811D0062812D003282AD007280AD14E
:405E800000206946087002460120FEF793FEFEF799FF0128FBD138BD00F010FC38BD02F08DFB00F00BFC02F0FFFB8007800F0228F4D10C4841880029F0D05B21095D0029D1
:405EC000ECD101210170A07D0140022003F034F838BD02F077FB0120FEF7B2FF38BD0000981400209A0C0020F8B50646002403F081F80546304603F097F803460A48002184
:405F0000068A0DE001228A401046174628401F40002803D0002F01D1224394B2491CC9B28E42EFD82046F8BD5C15002070B500252C460A4E03E0002C01D0002000E0304649
:405F40000079002803D02046FFF7CEFF0543641C2406240EEFD0284670BD0000981400201CB50020694648706846FFF7A9FD01AA69460A20FEF71EFE6946042008561CBDF9
:405F800070B50D4601F0BCF904000BD02079002808D0FDF7DFFDE178A0782A4602F040FD002070BD022070BD0148007870470000701400204030C07E002800D00120704735
:405FC00000B500F001F800BD902148430749084A40186030417F491CC9B24177D289914201D300214177C8B270470000781400205C15002013B501F083F904000BD001F0DA
:4060000046FE002807D0214601AA0A310620FEF7D1FD00201CBD02201CBD000010B50C4601F06EF900280AD001F031FE002806D0224604490A20FEF7BDFD002010BD0220C7
:4060400010BD000059140020F3B581B0074601460026029802F0C6FF0446002F01D0002500E0154D002D21D0284601F07FF9032C04D13946029803F011F8064638460299BE
:4060800002F002FA032C06D0002C10D00121384601F01CFB03E03146384603F093F9284602F0F8F80221284602F00EF9FEBD3846029902F0E9F9FEBD9814002010B50446CA
:4060C00000F0C4FA002804D104F01AF9002801D00C2010BD2078611C02F09EFDFF2801D01F2010BD02F0E4FDFF280AD02178621C02F05EF9044821780068026B601C904715
:4061000010BD072010BD0000B80C002010B504F0F7F8002801D00C2010BD02F05FFD03480068C06A8047002010BD0000B80C002070B50D46044610210CF052FF1021601874
:4061400006460CF04DFF334610221946204604F005F9102130460CF043FF02202870204605F06AF870BD0000F8B504464078217802028006870FE0781143A678090500025E
:40618000090D0643084601F0BBF800210546F2B2002812D0002C10D0022F0ED0032F0CD0002A0AD00279092A07D0002A05D0134A5A23527E1B5C9A4207D82889002104F021
:4061C00031FF20460CF0CCFFFF21002914D10C48224600682946436930469847C0B2FF280AD128464030817EF2B2491C8176FF232146284600F009F9F8BD0000301400202D
:40620000D40C00200020704710B5044604F078F8002801D00C2010BD2078611C02F0FCFCFF2808D002F040FC044821780068426B601C904710BD1F2010BD0000B80C0020EC
:4062400010B500F09DF905F0D3F8002010BD000010B504460F4801F043FD012817D00D4805222146A830FCF7A0FC0A490522A8310846B838FCF799FC00F050FD05488022F0
:406280002038C17B1143C17300F0B0F910BD3A2010BD00009814002010B5044600786178E2780843A17811430843217908436179084305D004F016F8002803D00C2010BDD7
:4062C000122010BD204602F053FD002010BD000010B5FCF7D7F902F0AFFE044804F0B2F902F0ECFB012000F003F810BD40140020F1B586B003A8009005A8019028489F224C
:40630000817A114081726846FDF73EFC002845D169460989C90705D0224806990068C2686846904769460989890706D5002835D11D480068816A0698884700282ED11B4E6F
:406340000025757075737571F575357675767575B570F570B5713746F5730120C83738731F20F880FF2130467972A0300176457603F02AFD01F06CFC00242046069901F034
:4063800019FC002803D1641C2406240EF5D0FD720649BD72B573C0310D600D7107B0F0BD30140020D40C0020B80C00207814002070B505460E46084602F01CFE0446304604
:4063C00002F032FE0121A9400A46224001400A4301D0012070BD002070BD10B50446084602F022FE0121A140014201D0012010BD002010BD10B5FEF7E5FC032804D102F0D6
:40640000E1F80120FEF71CFD10BDFEB51C4616460F46054601F03EFFA878FFF7D1FD02460190334639460094284600F00DF8002808D1A8780199FFF7D9FBFF2C02D138469B
:406440000CF08EFEFEBD0000FFB585B005460E980C46FF2810D02B49C00009680A5840180179C0795278814201D9012601E09006860F6846038108E06078A1788006860FD4
:40648000E0780002014368460181284601F014FC070007D021462846079A00F037FB384609B0F0BD304600F01DFC04AE0346039002AA29460096204600F023FA3C20405D1B
:4064C000002818D0284601F0F7FB012813D0684600890096C0B20190A878231DFF22079902F0BCF968460089039BC2B2A878079902F000FDD3E7684600890021C0B200918A
:40650000E9E70000D00C0020F8B5104F002500242846FFF7E9FC060012D00EE03046E040C007C00F07D02146284601F0A3FF21462846FFF789FD641CE4B2388AA042EDD8E0
:406540006D1C2D062D0EE2D0F8BD00005C15002070B50024094D03E0002C01D0002000E028464121095C012901D100F088FA641C2406240EF0D000F039F870BD9814002054
:4065800010B502F09BFA0020FFF7B2FE0CF07EFE002010BDF8B5002403F0B2FB012800D10224114F00203E46203601230425082203E0002801D0002100E031460979002903
:4065C00007D001290BD002290BD0114681402143CCB2401C0006000EEBD07C70F8BD1C43F7E72C43F5E700007814002070B5144E0024F07BC00921D03546203503E0002C10
:4066000001D0002000E0284601F04CFB012814D0641C2406240EF2D0F07B4006400EF073002403E0002C01D0002000E0284600F026FA641C2406240EF4D0002070BD000067
:406640007814002010B5FFF7A5FF10BD10B5044605F0ABF8002802D1601C00F001F810BD1CB500240094062269460194FCF78EFA002800D1122420461CBD000070B50E4C11
:40668000FBF7D3FE0546FEF79DFB062802D02078012803D02846FBF7CCFE70BDFBF77CFC2846FBF7C6FEFEF78DFB0628F5D020780028E5D170BD0000960C002010B5FBF73A
:4066C000B4FE0446FEF77EFB012809D0FEF77AFB022805D0FBF760FC2046FBF7AAFEEEE72046FBF7A6FE10BD10B50B4681791943817103D08078114602F0B4FB10BD10B526
:4067000082798A43827102D1807802F0BFFB10BD0346084800B5834209D8184600F0F0FD002804D00089984201D1012000BD002000BD0000FF0E0000074A9179491C8906E3
:40674000890E917138220A4092014907090E1143084302490840704778140020FF0E0000C006C00E70470000F8B507460E4600240D4803E0002C01D0002500E0054629795C
:40678000002905D0641C2406240EF3D00020F8BD0021204601F00EFA2E712046FFF7CCFF28813C700120F8BD98140020F7B53D20405C88B015460C46002802D028780428DA
:4067C00002D200200BB0F0BD6946087200262046FFF7F0FB012800D00126204603A938300191009023460327A17E34333246206A03F048FF02A8089900900B460191204672
:406800003A4603A9243003F089FD02466846007A2870204601F0BAF91046D3E7FFB587B00C4605461078694608723D20005D1746002826D000262046FFF7BCFB012800D09D
:406840000126204603A93830019100902346A17E34333246206A03F015FF02A80090291D019120462B1D03A924300A9A03F056FD02006846007A388002D1204601F086F928
:4068800010460BB0F0BDF0B505463C20405C89B016460C4600280CD0307869460873002806D000272046FFF785FB012803D003E01F2009B0F0BD012703200890204604A9FA
:4068C0003830019100902346E17E34333A46E06903F0D8FE6846007B03A928180290009120462B46019504A92430089A03F04AFD02466846007B3070204601F051F91046C3
:40690000D7E7FFB505463C20405C89B016460C46002810D0084601F0CFF901280BD0308869468883002809D000272046FFF742FB012805D005E000200DB0F0BD0220FBE704
:406940000127204603A93830019100902346E17E34333A46E06903F095FE291D2B1D07A8129A6D4607C5204603A924300C9A03F009FD02466846808B3080204601F010F957
:406980001046D9E710B518490446484028D0002101231A468A40904221D0491C2029F8D300212046C840C243520618D0400616D0491C1929F5D3A0B2210C020AC3B28842ED
:4069C00001D193420BD01F21204600F090F9182805D8A00E062100F08AF9022801D2002010BD012010BD0000D6BE898E002801D0002000E003484030C07F012800D0002002
:406A000070470000981400200146002049070ED50021084B03E0002901D0002200E01A461279022A04D0491C0906090EF3D0704701207047981400200146002049070ED5B8
:406A40000021084B03E0002901D0002200E01A461279022A04D0491C0906090EF3D07047012070479814002010B5044680346068002803D00CF088FB0020606010BD38B590
:406A80000546002000902846FFF794FA01281FD1284601F0FCF800281AD028792C46C01E40340300FDF71EFA07050511110511141100284601F006F9012806D068460CF082
:406AC000F5FA002805D0012008E060780028FAD038BD2846009902F0B9FD0220607038BD40308170704770B50546403528780C46052904D0002C05D1801E022802D8022095
:406B000002F034FF2C7070BD0171704792001018C166704710B5002801D0002000E00348002802D0008904F0F1FA10BD9814002010B5002801D0002000E00448002804D09C
:406B40000179072901D100F08BF810BD9814002010B54121095C012901D1FFF790FF002010BD000070B50546008A00281ED01049F122897A1140C90618D5294640314A8A53
:406B8000098A521C4A4392B2D10800D10121540801E0621A94B2A042FBD9FEF7B9FE012804D1298AA878224601F0E0FE70BD00003014002010B50023054C0B60248A944215
:406BC00004D992001018C26E0A60C36610BD00005C150020FEB506460020009001908020855968460CF062FA002801D00720FEBD20213046009FFFF782FD34464034A08A5B
:406C0000E080608AA080208A2081304602F014FFA88C218A884207D1288A618A884203D1688AA18A884203D0F07920210843F071688AA082288A6082A88C2082E98CE18202
:406C4000FFF718F8E081208AFFF724F860733946304602F023FD0120A0700198FEBD000038B5044600200090A079002814D14020015D052901D00E290ED168460CF016FAF8
:406C8000002809D12046009902F0EAFD03481021C28A2046FFF728FD38BD00003014002010B50446807802F0F7FE204601F080F9002010BD10B50B4604460146184602F0B6
:406CC00021FA002802D020460CF054FA10BD13B5044601AA11460620FDF76CFF6846818861811CBD002800D102207047704770B500231A46491E0CE00446D440E507ED0F2D
:406D0000541C0646E640F407E40FA54200D05B1C521C8A42F0D3D8B270BD000030B50021124C0A46A05C002308E0C50701D0491CC9B201290AD840085B1CDBB20028F4D124
:406D4000012903D8521CD2B2052AEBD302290BD207488118C87B0122082B03D29A400243D0B200E01043C87330BD000040150020781400207FB504468034616805460E461A
:406D8000183108226846FBF710FF31462031082202A8FBF70AFF102168460CF021F96068102108300CF01CF960682B46083024331022694603F0D2FA7FBD10B50446082107
:406DC000FFF79DFC10212046FFF799FC2079052822D0062820D008281DD12189002004F007F9072020712046FFF7E4F8012819D00E212046FFF777FE0021582001552046D9
:406E000001F05CF92046FFF72FFE2046FFF7AAFE2046FFF79DFE10BD20890122002104F0CBF8DEE70521E4E7FFB581B01F4604460821FFF764FC10212046FFF760FC2079CC
:406E4000082803D0092804D0042503E00425012601E009250026204600F010FF00212046FFF741FE25712046FFF7FEFD0398002E02D0012808D00BE001280AD12089002215
:406E8000029904F099F804E02189029804F0B0F801272046002140300176012F07D0204601F00CF92046FFF753FE05B0F0BD02990173204602F017FD054605480121C28A65
:406EC0002046FFF711FC002DEFD109202071ECE73014002070B50C460546FFF76BF8012809D108212846FFF70AFC0023012221462846FFF799FF70BD10B5044600F0BEFE09
:406F00002046FFF7B1FD00212046FFF7ECFD10BD70B505461A24FFF74DF8012809D108212846FFF7ECFB0023012221462846FFF77BFF70BD38B505460021684600910CF068
:406F4000B5F8002801D00D2038BD2846009C00F0E5FE2146284602F02DFC06480821C28A2846FFF7C1FB06212846FFF7BCFD002038BD000030140020F8B504460020009035
:406F80000E4668460CF092F8002801D00D20F8BD204604213430009D00F0ADF9842000590821183000F0A7F9012E02D1204600F0B5FE2946204602F0B7FB06480821C28A07
:406FC0002046FFF791FB02212046FFF78CFD0020F8BD00003014002010B50446FFF7CAFE03212046FFF77FFD204601F053F910BD10B50021FFF7C0FF10BD000038B5044690
:407000000021684600910CF051F8002811D12046009A00F033FE1146204602F0D6FB05480821C28A2046FFF75FFB07212046FFF75AFD38BD3014002038B50446002168464E
:4070400000910CF033F8002810D12046009902F03FFC07480821C28A2046FFF745FB04212046FFF740FD204601F014F938BD00003014002010B5FFF7A0FE10BD00787047F3
:40708000F8B5002569460D70002801D0002400E01E4C002C18D0204600F0F9FD002813D0207903280BD005280CD026464036B18AA07801F0CFFEB078012806D01CE004201E
:4070C00020711CE006202071F8BD0021204602F049F8274680373868002802D00CF054F83D600020B0702046FFF732FD2079072802D12046FFF736FD20790428E4D1207A31
:40710000694608703420FEF70BFDF8BD9814002010B54C22115400F04CF810BD10B50446FF21FFF7ECFA09202071A07801F0B8FE10BD000038B5FF216A461180002801D025
:40714000002400E0084C002C0DD011460620FDF731FD684601882046FFF7B9FD03480068C1692046884738BD98140020D40C002010B504468079002809D022214C200155E5
:40718000FF212046FFF7BBFA204600F012F810BD10B5037902464032002B03D01173092B02D003E0002100E02221117300F001F810BDFEB50446008900270090278120790F
:4071C0002646403600281AD0012818D0022816D0002002F0CBFB09E002AA01A9204601F07FFF002807D101980BF0C4FF204601F09FFF0028F0D02046FEF71AFDB776254650
:4072000080352868002802D00BF0BEFF2F606868002802D00BF0B8FF6F60317B002916D0009800F061F8A078002101F085F9A07801F0BCFAA07800F02FFFFF212046FFF7C8
