:400000000040002011000000396000003960000080B500AF06F03EF880B584B000AF021CFB1D1A70204A3B1C0B3312781A701F4A3B1C0A3312781A700423013BFB6018E05B
:400040001B4B1868391C0B31FA68131C5B009B18C3185B780B70164B1868391C0A31FA68131C5B009B18C3189B780B70FB68013BFB60FB68002B0ADB0D4B1968FA68131CF1
:400080005B009B185B5CFA1D12789A42D8D9094B3A1C0B3212781A60074B3A1C0A3212781A60BD4604B080BDCCF1FF0FCDF1FF0FE00000201CFF0B4020FF0B4080B500AF3B
:4000C0002D4B12221A603020FFF7A6FF2B4B2C4A1278D2B21A6005200BF050FA294B35221A600AF06FFFFA235B00181C0BF022FA01200AF077FF244B244A1A60244B8022A8
:40010000D2051A60234B244A1A60244B234A126808218A431A60FA23DB00181C0AF00CFF1F4B181C0BF02AFA1E4B902252011A601D4B1E4A1A601E4B1E4A1A601A4B1E4A1A
:400140001A601E4BA022D2001A60174B1C4A1A601C4B802212061A601B4B8022D2021A601A4B41221A601A4B42221A60194B40221A60BD4680BDC0463000104028FF0B405E
:40018000FDF1FF0F2CFF0B4004010B40060000800C020B407C002E406A2D00006CF02E40DC050000040301400000014041FF008008030140007FBB0042FF0080000301409E
:4001C00040FF008008010B4000010B40200101401C0101400401014080B582B000AF72B6514B00221A60FB1D00221A7023E0FB1D1A78131C5B009B185B004C4A9B183B6037
:400200003B681A78597809020A43997809040A43DB781B0613431A1C3B6819795B791B020B439BB2101C191C05F0B8FFFB1D1A78FB1D01321A70FB1D1B78012BD7D93C4A9B
:400240003C4B101C191C05F0B9FF3B4BEE2212061A603A4B992212041A60394B802212021A60384B04221A60374B384A1A60384B20221A60374BC42292021A60364B8022C4
:4002800092001A60354B20221A60354B40221A60344B802212031A60334B802292011A60324B0C221A60324BC82212011A60314B30221A60304B992212041A602F4B992261
:4002C00012041A602E4B992212041A602D4B802292051A602C4B992212041A602B4B802292031A602A4B2A4A1278D2B202210A43D2B21A70274B274A1278D2B23C218A4306
:40030000D2B214210A43D2B21A70214B204A1278D2B216210A43D2B21A70FFF7CFFE05F08DFFBD4602B080BD6CF02E40BCD80100C8D80100CCD801000000024000010240D3
:400340000003024000000440080004400001D80000010440080104400C0104401801044000020440080204400C02044000030440080304400C03044000500F4010500F4072
:4003800020500F4024500F4030500F4034500F4000700F4001700F4010B5064C2378002B07D1054B002B02D0044800E000BF0123237010BDF003002000000000B0D1010094
:4003C00008B5084B002B03D00748084900E000BF07480368002B03D0064B002B00D0984708BDC04600000000B0D10100F4030020C80000200000000090B583B000AF674BA8
:400400007B60674B1A680423134000D1B0E0654B1B78002B01D0644B7B607A68624B9A4208D1624B1B78DBB2002B03D0604B04221A60B0E093E05F4B1B68591C5D4A1160F2
:400440007A68D41805F0FCFF031CDBB2237006F0EDF906F0D9F9584B1B78DBB2012B20D002DC002B05D07AE0022B26D0032B58D075E0524B00221A804E4B1B68012B0FD96D
:400480007B681B78432B07D17B6801331B78592B02D1494B01221A70464B00221A605EE05DE0464B00221A80424B1B68022B03D1414B02221A7052E051E03E4B1B68042B60
:4004C0002BD17B685A883D4B1A803C4B1B889AB28023DB009A420BD9364B00221A60364B00221A70314B01221A7006F09FF936E0324B1B889BB2002B03D02F4B03221A70BA
:400500002DE02C4B00221A602B4B00221A70274B01221A7006F08AF921E0284B00221A801DE0264B1B889BB2002B06D0234B1B889BB2013B9AB2214B1A80204B1B889BB20B
:40054000002B0BD11B4B00221A601B4B00221A70164B01221A7006F069F9FFE7C04605F07FFF031C002B00D065E7114B04221A600B4B1A6882231B0113400CD00E4B0022F6
:400580001A700C4B00221A60094B802212011A60074B20221A60BD4603B090BD0C040020CC0F244039080020100800201C080020C00F2440200800201D08002024080020D2
:4005C00080B582B000AF06F08FF9031C7B607B68012B09D1074B00221A70074B00221A607B68181C06F08AF906F0D8FABD4602B080BDC0461D0800202008002090B58DB039
:4006000002AF78603B1C273300221A703B1C0C3300221A6000225A6000229A600022DA6000221A6100225A6100221A833B1C27331B783A1C2732591C11707A6811783A1C6B
:400640000C32D1543B1C27331B783A1C0C32D2187B685B68101C191C06220BF008FC3B1C27333A1C2732127806321A703B1C27331B783A1C2732591C11707A6851783A1C91
:400680000C32D1543B1C27331B783A1C2732591C11707A68127CD1B23A1C0C32D1543B1C27331B783A1C2732591C11707A68117A3A1C0C32D154104B19887B681B7A1A1C89
:4006C0003B1C27331B789BB20C483C1C0C34009403F0C0FC7B681B7A002B07D07B68DA687B681B7A101C191C05F018FF0023181CBD460BB090BDC046042E00208A0600006C
:4007000080B588B002AF78607B681B89DAB23B1C1633043A1A707B685A897B681B89101C191C0BF0A3FA031C9AB23B1C15331A703B1C0F3300221A703B1C16331B78022BC9
:4007400002D0102B05D009E03B1C0F3301221A7004E03B1C0F3302221A70C046304B1A887B6859893B1C15331B789BB2CB189BB27868C021C9000090081C111C1A1C0223E0
:4007800003F068FC3B1C173300221A702AE07B685A683B1C17331B78796809894B43D318181C042105F0BAFE3B1C0F33181C012105F0B4FE7B685A683B1C17331B78796870
:4007C00009894B430433D2183B1C16331B78101C191C05F0A3FE3B1C17331A783B1C173301321A703A1C17323B1C153312781B789A42CCD37B685A687B685B89191C7B68A3
:400800001B89CB1AD3183B613B695A88054B9A4201D1012300E00023181CBD4606B080BD042E0020FFFF000080B586B002AF78607B681B89023B9AB23B1C0C331A807B686C
:400840005A897B681B89101C191C0BF00FFA031C9AB23B1C0E331A70274B1A887B6859893B1C0E331B789BB2DB189BB2CB189BB2786822490090081C111C1A1C022303F0E1
:40088000E9FB3B1C0F3300221A702AE07B685A683B1C0F331B78796809894B43D318181C022105F03BFE3B1C0C33181C022105F035FE7B685A683B1C0F331B78796809896A
:4008C0004B430233D2183B1C0C331B88101C191C05F024FE3B1C0F331A783B1C0F3301321A703A1C0F323B1C0E3312781B789A42CCD3BD4604B080BD042E002007060000FF
:4009000090B587B002AF78607B685A897B681B89101C191C0BF0AAF9031C9AB23B1C0E331A703B1C093300221A703B1C0D3305221A707B681B89D9B23B1C0C333A1C0D3215
:4009400012788A1A1A703B1C0C331B78022B02D0102B05D009E03B1C093301221A7004E03B1C093302221A70C046374B1A887B6859893B1C0E331B789BB2CB189BB27868C2
:4009800032490090081C111C1A1C022303F062FB3B1C0F3300221A7030E07B685A683B1C0F331B78796809894B43D2183B1C0D331B78101C191C05F0B1FD3B1C0933181C2A
:4009C000012105F0ABFD7B685A683B1C0F331B787968098959433B1C0D331B78CB18D2183B1C0C331B78101C191C05F097FD3B1C0F331A783B1C0F3301321A703A1C0F3236
:400A00003B1C0E3312781B789A42C6D37B685A687B685B89191C7B681B89CB1AD3183C1C0A34181C06F0ACFD031C2380084B1B883A1C0A3212889A4201D1012300E0002372
:400A4000181CBD4605B090BD042E002003060000FA2D002080B586B002AF78607B685A897B681B89101C191C0BF000F9031C9AB23B1C0E331A703B1C0D3305221A707B684D
:400A80001B89D9B23B1C0C333A1C0D3212788A1A1A702B4B1A887B6859893B1C0C331B789BB2381C0E30007880B243439BB2CB1A9BB2786823490090081C111C1A1C022308
:400AC00003F0C8FA3B1C0F3300221A7016E07B685A683B1C0F331B78796809894B43D2183B1C0D331B78101C191C05F017FD3B1C0F331A783B1C0F3301321A703A1C0F329E
:400B00003B1C0E3312781B789A42E0D37B685A687B685B89191C7B681B89CB1AD318181C06F02EFD031C1A1C074B1B889A4201D1012300E00023181CBD4604B080BDC046D7
:400B4000042E002004060000FA2D002090B58DB002AF78607B685A897B681B89101C191C0BF084F8031C9AB23B1C23331A703B1C1F3300221A707B6859893B1C23331B78A6
:400B80009AB23B1C24338A181A803B1C223306221A703B1C22331B789AB27B681B899A4211D13B1C1F3302221A703B1C23331B789BB21B0199B23B1C24333A1C2432128892
:400BC0008A181A8003E03B1C1F3301221A70434B1A88786842493B1C24331B880090081C111C1A1C022303F035FA3B1C273300221A7043E07B685A683B1C27331B787968EC
:400C000009894B43D2183B1C22331B78101C191C05F084FC3B1C1F33181C012105F07EFC3B1C1F331B78012B11D17B685A683B1C27331B787968098959433B1C22331B78A6
:400C4000CB18D318181C022105F068FC0FE03B1C0C3300221A6000225A6000229A600022DA603B1C0C33181C102105F057FC3B1C27331A783B1C273301321A703A1C2732DE
:400C80003B1C233312781B789A42B3D37B685B89DAB27B681B89DBB2D31ADAB23B1C273304321A707B685A683B1C27331B78D3183C1C2034181C06F063FC031C2380094B98
:400CC0001B883A1C203212889A4201D1012300E00023181CBD460BB090BDC046042E002002060000FA2D002090B585B000AF78603B1C0F3300221A701E4B1B881E4A9342C5
:400D000016D01D4A934203DC1C4A934222D02AE01B4A934215D01B4A934200D023E07B68181CFFF781FD3B1C0F3301221A701AE03C1C0F347B68181CFFF7E2FD031C23704B
:400D400011E03C1C0F347B68181CFFF783FE031C237008E03C1C0F347B68181CFFF7F6FE031C2370C0463B1C0F331B78181CBD4605B090BD042E002003FE000002FE0000B3
:400D800004FE000007FE000080B584B002AF7860154B1A887B681B7A9B009BB2786813490090081C111C1A1C022303F053F97B685A687B681B7A9B00101C191C05F0AEFB6A
:400DC0007B685A687B681B7A09495B189B00D3185A88084B9A4201D1012300E00023181CBD4602B080BDC046042E002001060000FFFFFF3FFFFF000080B588B002AF7860CC
:400E00003B1C163300221A807B681B7B012B07D0022B00D009E03B1C163310221A8004E03B1C163302221A80C0467B681B891A1C3B1C16331B880233101C191C0AF016FF9B
:400E4000031C1A1C3B1C12331A80354B1A883B1C16331B8803339BB2391C123109884B439BB278682F490090081C111C1A1C022303F0F0F83B1C143300221A802EE07B6841
:400E80005A683B1C14331B88391C1631098802314B43D318181C022105F040FB7B680C33181C012105F03AFB7B685A683B1C14331B88391C1631098802314B430233D2183A
:400EC0003B1C16331B88101C191C05F027FB3B1C14331A883B1C143301321A803A1C14323B1C123312881B889A42C8D37B685A687B681B89191C3B1C16331B88CB1A023BDA
:400F0000D318FB60FB681A88074B1B889A4201D1012300E00023181CBD4606B080BDC046042E002005060000FA2D002080B586B002AF78603B1C0E33454A1A803B1C0A337F
:400F400001221A803B1C0D3300221A703B1C0A33181C16F085F93F4B1B883F4A9B18092B00D971E09A003D4BD3181B689F463B1C0E333B4A1A803B1C0D3301221A7038E0D6
:400F80003B1C0E33C122D2001A807B681B891A1C3B1C0A331B88013B9A4204DA3B1C0D3301221A7025E024E03B1C0E332D4A1A803B1C0D3301221A701BE03B1C0E332A4A1F
:400FC0001A803B1C0D3301221A7012E03B1C0E33264A1A807B681B891A1C3B1C0A331B88013B9A4204DA3B1C0D3301221A70FFE7C046184B1A887B681B8902339BB2786877
:40100000391C0E3109880090081C111C1A1C022303F020F87B680833181C022105F07EFA7B685A687B681B89101C191C05F076FA3B1C0D331B78002B07D0064B1B88181C1C
:40104000002103F0CBF800E0C046BD4604B080BD04040000042E0020FA01FFFFB4D1010006060000090600000A0600000B06000080B586B002AF78607B681A893B1C0E3398
:4010800004321A807968114A3B1C0E331B880091101C00211A1C022302F0DCFF7B680C33181C022105F03AFA7B680833181C022105F034FA7B685A687B681B89101C191C1C
:4010C00005F02CFABD4604B080BDC0460C06000080B586B002AF78607B68186816F090F9031C1A1C3B1C0C331A807B681A893B1C0E3306321A807968134A3B1C0E331B88F5
:401100000091101C00211A1C022302F0A3FF7B680C33181C022105F001FA3B1C0C33181C022105F0FBF97B680833181C022105F0F5F97B685A687B681B89101C191C05F0C9
:40114000EDF9BD4604B080BD0D06000090B59BB002AF786039607B687A2B01D900F053FC9A00D64BD3181B689F463B1C1833181C0BF02CFD031C002B08D13B1C183302223E
:401180001A703B1C1833181C0BF06EFDCC4B01221A70CC4B1B78181C15F000FA031CCA4A101C191C03F01AF800F02EFC3B681B78022B04D0032B1CD0012B36D036E0C34B6E
:4011C0001B78002B14D0C24B1A88C24B9A420FD1C14B00220092181C00210022002302F039FFBB4B1B88181C002102F0F7FF1DE01CE0B74B1B88DB099BB21A1C07231340E9
:40120000042B11D1B24B1B88B44A00210091101C191C0022002302F01DFFAD4B1B88181C002102F0DBFF01E000E0C04600F0ECFB3B1C163300221A803B1C16331B8802336B
:401240009BB2A74A391D0091101C00211A1C022302F000FF3B1C1633181C022105F05EF900F0D2FB3B1C143301221A803B1C14331B8802339BB29A4A391D0091101C00217A
:401280001A1C022302F0E6FE3B1C1433181C022105F044F93B1C14331B883A68101C191C05F03CF900F0B0FB3B1C123301221A803B1C12331B8802339BB2894A391D0091F9
:4012C000101C00211A1C022302F0C4FE3B1C1233181C022105F022F93B1C12331B883A68101C191C05F01AF900F08EFB784B1A88784B9A4215D13C1C5E343B68181CFFF72B
:401300007DF9031C23803B1C5E331B88002B08D06F4B1A883B1C5E331B88101C191C02F05DFF71E36F4B704A0092181C00210422022302F08FFE3B68181C042105F0EEF801
:4013400062E3634B1B88694A67490091101C191C0022022302F07EFE56E35D4B1B88644A61490091101C191C0422022302F072FE3B68181C042105F0D1F845E33B68BB65AD
:401380003B1C103310221A803B1C10331B8802339BB2534A391D0091101C00211A1C022302F058FE3B1C1033181C022105F0B6F8BB6D1A1C1A323B1C10331B88101C191CB8
:4013C00005F0ACF820E3424B1A884A4B9A4204D1484B181C002102F001FF15E33C4B1A88444B9A4211D1394B00221A70424A414B3D490091101C191C0122022302F02AFE72
:401400003B68181C012105F089F8FDE23B4B1A78354B1A70D223DB00334A0092181C00210122022302F016FE3B68181C012105F075F8264B1B78002B0FD0254B1A88304BC4
:401440009A4204D02F4B1A882D4B9A4205D12C4B181C002102F0C2FED6E2D5E23B687B653B1C523307221A80274A3B1C52331B881D490091101C00211A1C022302F0EAFDFF
:401480007B6D181C012105F049F87B6D0233181C022105F043F87B6D0433181C022105F03DF87B6D0633181C022105F037F8084B1B88181C002102F091FEA5E2DCD10100D7
:4014C00038080020CC00002007FC000039080020042E002093FE000091060000110600000404000092060000683000208D0600008E06000099FE000093060000F82D0020B7
:4015000098FE0000FC2D0020840600003B68FB643B1C4A3307221A80CC4A3B1C4A331B88CB490091101C00211A1C022302F092FDFB6C181C012104F0F1FFFB6C0233181CDD
:40154000022104F0EBFFFB6C0433181C022104F0E5FFFB6C0633181C022104F0DFFFBD4B1B88181C002102F039FE4DE23B687B64B94BB74A0092181C00210822022302F0CD
:4015800069FD7B6C181C022104F0C8FF7B6C0233181C022104F0C2FF7B6C0433181C022104F0BCFF7B6C0633181C022104F0B6FF2AE23B681B88012B06D1A64B1B88181C43
:4015C000002102F00BFE1FE21EE2A44B1A88A44B9A4219D1A34B00221A70A34B00220092181C00210022002302F034FD9B4B1A883B681B78101C191C02F0F0FD974B181C7B
:40160000002108220AF03CFC924B1A88974B9A4214D13B681B78002B10D0934B00220092181C00210022002302F014FD894B1A883B681B78101C191C02F0D0FDE4E13B6867
:401640003B643B6C9B79072B08D00A2B17D1814B1B88181C002102F0C1FD39E07D4B1A88834B9A4204D07B4B1A88824B9A4206D1784B1B88181C002102F0B0FD28E03B1CD3
:401680003F3304221A70774B00221A70714B1A883B1C3F331B789BB2386C77490090081C111C1A1C022302F0D5FC3B6C0233181C012104F033FF3B6C0433181C022104F0AF
:4016C0002DFF3B6C0633181C012104F027FFC0469AE15F4A3B68111C1A1C0223081C111C1A1C0AF0C4FB5A4B1A78644B1A70594B1B88634A56490091101C191C002202239D
:4017000002F0A8FC80E1534B1A885E4B9A4210D1504B1B885C4A39680091101C191C0022042302F097FC4B4B1B88181C002102F055FD69E13B68181CFEF7E2FF031C002BB4
:4017400005D0444B1B88181C002102F047FD5BE13B68181CFFF7C8FA031C002B05D03D4B1B88181C002102F039FD4DE13B68181CFFF742FB031C002B05D0364B1B88181C96
:40178000002102F02BFD3FE13B68181CFFF7FCFA031C002B05D02F4B1B88181C002102F01DFD31E13B68181CFFF7C0FB2CE1294B1B88181C002102F011FD25E13B689B789F
:4017C000002B06D0234B1B88181C002102F006FD1AE1204B1B88181CFF2102F0FFFC13E13B68181CFFF744FC0EE13B68181CFFF76FFC09E13B68BB633B1C36330A221A80EA
:40180000BB6B1A783B1C0C331A70A023DA003B1C36331B88391C0C310091101C00211A1C022302F017FCBB6B0233181C022104F075FEBB6B0433181C022104F06FFEBB6BAC
:401840000633181C062104F069FEDDE08406000068300020042E002096060000FC2D002094FE0000390800209106000093FE00000FFE000008FE00000E060000F82D0020BC
:401880008F06000012FE00000F0600003B683B633B1C2E330A221A803B6B1A783B1C08331A705B4B1A885B493B1C2E331B88381C08300090081C111C1A1C022302F0CAFB95
:4018C0003B6B0233181C022104F028FE3B6B0433181C022104F022FE3B6B0633181C062104F01CFE4A4B1B88181C002102F076FC8AE0494B3A680092181C0021002202234D
:4019000002F0A8FB80E0424B1B88444A39680091101C191C0022042302F09CFB3C4B1B88181C002102F05AFC6EE03B68BB62BB6A1A893B1C263304321A80B96A384A3B1C76
:4019400026331B880091101C00211A1C022302F081FBBB6A0233181C022104F0DFFDBB6A0833181C022104F0D9FDBB6A5A68BB6A1B89101C191C04F0D1FD45E0294B3A68B4
:401980000092181C00210022042302F063FB3BE0254B3A680092181C00210022062302F059FB31E03B683B623B6A1A893B1C1E3304321A80164B1A88386A1C493B1C1E333F
:4019C0001B880090081C111C1A1C022302F042FB3B6A0233181C022104F0A0FD3B6A0833181C022104F09AFD3B6A5A683B6A1B89101C191C04F092FD054B1B88181C002179
:401A000002F0ECFB00E0C046BD4619B090BDC046042E00200105000002050000030500000405000005050000060500000705000080B582B000AF786039607B687A2B0ED842
:401A40007B689A000B4BD3181B689F460A4B1B7801225340DBB2002B00D007E000E0C0467A683B68101C191CFFF770FBBD4602B080BDC046C8D301003908002080B586B0A6
:401A800002AF78600123FB607B681B888022D200391C0C310091101C191C0022042302F0D9FA0023181CBD4604B080BD80B586B002AF78603A1C08320C4B111C1A1C0823DE
:401AC000081C111C1A1C0AF0D2F97B681B88084A391C08310091101C191C0022082302F0B9FA0023181CBD4604B080BDB4D501000104000080B586B002AF78603A1C0832F2
:401B00000C4B111C1A1C0823081C111C1A1C0AF0AEF97B681B88084A391C08310091101C191C0022082302F095FA0023181CBD4604B080BDBCD501000204000080B586B024
:401B400002AF78603B1C0F3303221A707B681B88074A391C0F310091101C191C0022012302F078FA0023181CBD4604B080BDC0460504000080B586B002AF78603B1C0F33A5
:401B800002221A707B681B88074A391C0F310091101C191C0022012302F05CFA0023181CBD4604B080BDC0460604000080B586B002AF78603B1C0F3303221A707B681B886E
:401BC000074A391C0F310091101C191C0022012302F040FA0023181CBD4604B080BDC0460704000080B586B002AF78603B1C0F3302221A707B681B888122D200391C0F3174
:401C00000091101C191C0022012302F023FA0023181CBD4604B080BD80B500AF094B1B78022B04D1084B1B78181C14F001FB03F06DFF064B00221A70054B00221A70BD46D0
:401C400080BDC04648300020683000203A0800203808002080B582B000AF7860FFF7DCFF04F018F9044B181C05F02CFB031C181CBD4602B080BDC046311A000080B582B0AF
:401C800000AF78600B4B00221A700B4B1B78002B0AD0C046012005F065FB031C002BF9D1FFF7BAFF03F0A0FE0023181CBD4602B080BDC046390800203A08002080B582B064
:401CC00000AF7860114B00221A70114B1B88DB099BB21A1C07231340042B02D115F00EFD0EE00B4B1A880B4B9A4202D105F028FC06E0074B1A88084B9A4201D105F0B4FBDD
:401D00000023181CBD4602B080BDC04639080020042E002097FE000093FE000080B586B002AF78603B1C0F332E221A703B1C0E3316221A707B681A883B1C0F331B789BB2BC
:401D40001449381C0E300090081C111C1A1C012302F080F93B1C0E331B780F4A101C191C04F0DCFB3B1C0E3317221A703B1C0E33181C012104F0D2FB3B1C0E331B78074A98
:401D8000101C191C04F0CAFB0023181CBD4604B080BDC0460A040000C4D50100DCD5010080B586B002AF78603B1C083301221A803B1C083300225A803B1C083300229A80BF
:401DC0003B1C08330022DA807B681B88074A391C08310091101C191C0022082302F03AF90023181CBD4604B080BDC0460B04000090B587B002AF78603C1C0E343B1C08337B
:401E0000181C0AF00DF9031C23807B681A883B1C0E331B88101C191C02F084F93B1C0E331B88002B0BD17B681B88084A391C08310091101C191C0022042302F00BF93B1CEC
:401E40000E331B88181CBD4605B090BD0304000080B586B002AF78600BF010FD031C1A1C3B1C0F331A707B681B88074A391C0F310091101C191C0022012302F0EBF800232E
:401E8000181CBD4604B080BD0904000080B582B000AF78607B685B681A78064B1A70054B1B78181C14F07AFB031C181CBD4602B080BDC046CC00002080B584B002AF786033
:401EC0007B681B88D022D20006490091101C191C0022012302F0BEF80023181CBD4602B080BDC046CC00002090B589B002AF78603B1C0C3300221A703B1C0C3300225A7063
:401F00003B1C0C3300229A703B1C0C330022DA703B1C0C3300221A713B1C0C3300225A713B1C0C3300229A717B685B681A783B1C0C339A713C1C16343B1C0C33181C0AF015
:401F40006BF8031C23807B681A883B1C16331B88101C191C02F0E6F83B1C16331B88002B12D17B681B880C4A391C0C310091101C191C0122062302F06DF83B1C0C33063320
:401F8000181C012104F0CAFA3B1C16331B88181CBD4607B090BDC0468106000080B584B000AF78607B685B683A1C0832111C1A1C0623081C111C1A1C09F059FF7B685B68D8
:401FC0009A793B1C08339A713B1C0833181C0AF039F8031C181CBD4604B080BD90B589B002AF78603B1C0C3300221A703B1C0C3300225A703B1C0C3300229A703B1C0C33D6
:402000000022DA703B1C0C3300221A713B1C0C3300225A713B1C0C3300229A717B685B68214A111C1A1C0223081C111C1A1C09F01EFF1D4B1A783C1C16343B1C0C33101C17
:40204000191C14F0F9F9031C23807B681A883B1C16331B88101C191C02F064F83B1C16331B88002B18D17B681A887B6859680F4B0091181C111C0722022301F0EBFF3B1CB0
:402080000C33181C062104F049FA3B1C0C330633181C012104F042FA3B1C16331B88181CBD4607B090BDC046683000208206000090B589B002AF78603A1C08322A4B111CFD
:4020C0001A1C0223081C111C1A1C09F0D0FE7B685B683A1C0C32111C1A1C0623081C111C1A1C09F0C4FE7B685B689A793B1C0C339A713C1C16343A1C08323B1C0C33101CE1
:40210000191C14F0AAF9031C23807B681A883B1C16331B88101C191C02F004F83B1C16331B88002B18D17B681B88104A391C08310091101C191C0722022301F08BFF3B1C13
:402140000C33181C062104F0E9F93B1C0C330633181C012104F0E2F93B1C16331B88181CBD4607B090BDC046683000208306000090B59BB002AF78603B1C0F3302221A70D6
:402180003C1C5E343A1C0F323B1C1033101C191C14F043F9031C23803B1C5E331B88002B03D03B1C5E331B8834E07B685B681A783C1C5E34391C54313B1C10331A33081C72
:4021C000111C1A1C14F04CF8031C23807B681A883B1C5E331B88101C191C01F0A3FF3B1C5E331B88002B12D17B681B880B4A391C54310091101C191C0122062301F02AFFC8
:402200003B1C54330633181C012104F087F93B1C5E331B88181CBD4619B090BD8B06000080B582B000AF78600223181CBD4602B080BDC04680B586B002AF78603B1C0E3389
:4022400017221A807B681A8823493B1C0E331B8822480090081C111C1A1C022301F0FAFE1F4B181C022104F059F91E4B181C012104F054F91C4B181C062104F04FF91B4B65
:40228000181C012104F04AF9194B181C012104F045F9184B181C022104F040F9164B181C022104F03BF9154B181C022104F036F9134B181C022104F031F9124B181C02217D
:4022C00004F02CF9104B181C022104F027F90023181CBD4604B080BD850600002C3000202E300020303000203130002037300020383000203A3000203C3000203E3000207B
:4023000040300020423000204430002080B584B000AF78603B1C0F3300221A707B685B68BB603B1C0F331B78BA68D318181C05F027F9031C1A1C6B4B1A803B1C0F333A1CDB
:402340000F32127802321A703B1C0F331B78BA68D318181C05F014F9031C1A1C614B5A803B1C0F333A1C0F32127802321A703B1C0F331B78BA68D3181A785A4B1A713B1CC0
:402380000F333A1C0F32127801321A703B1C0F331B78BA68D3185349052289181A1C0623081C111C1A1C09F062FD3B1C0F333A1C0F32127806321A703B1C0F331B78BA6858
:4023C000D3181A78474BDA723B1C0F333A1C0F32127801321A703B1C0F331B78BA68D3181A78404B1A733B1C0F333A1C0F32127801321A703B1C0F331B78BA68D318181C44
:4024000005F0BEF8031C1A1C364BDA813B1C0F333A1C0F32127802321A703B1C0F331B78BA68D318181C05F0ABF8031C1A1C2D4B1A823B1C0F333A1C0F32127802321A7062
:402440003B1C0F331B78BA68D318181C05F098F8031C1A1C234B5A823B1C0F333A1C0F32127802321A703B1C0F331B78BA68D318181C05F085F8031C1A1C1A4B9A823B1C47
:402480000F333A1C0F32127802321A703B1C0F331B78BA68D318181C05F072F8031C1A1C104BDA823B1C0F333A1C0F32127802321A703B1C0F331B78BA68D318181C05F049
:4024C0005FF8031C1A1C074B1A833B1C0F333A1C0F32127802321A700023181CBD4604B080BDC0462C30002080B586B002AF78603B1C0E330A221A807B681A8819493B1C6C
:402500000E331B8818480090081C111C1A1C012301F0A0FD154B181C012103F0FFFF144B181C022103F0FAFF124B181C022103F0F5FF114B181C012103F0F0FF0F4B181C88
:40254000012103F0EBFF0E4B181C022103F0E6FF0C4B181C012103F0E1FF0023181CBD4604B080BD86060000E4000020E5000020E6000020E8000020EA000020EB00002051
:40258000EC000020EE00002080B584B000AF78603B1C0F3300221A707B685B68BB603B1C0F331B78BA68D3181A78414B1A703B1C0F333A1C0F32127801321A703B1C0F331A
:4025C0001B78BA68D3181A78394B5A703B1C0F333A1C0F32127801321A703B1C0F331B78BA68D318181C04F0CBFF031C1A1C304B5A803B1C0F333A1C0F32127802321A7097
:402600003B1C0F331B78BA68D318181C04F0B8FF031C1A1C264B9A803B1C0F333A1C0F32127802321A703B1C0F331B78BA68D3181A781F4B9A713B1C0F333A1C0F32127830
:4026400001321A703B1C0F331B78BA68D3181A78174BDA713B1C0F333A1C0F32127801321A703B1C0F331B78BA68D318181C04F087FF031C1A1C0E4B1A813B1C0F333A1C8F
:402680000F32127802321A703B1C0F331B78BA68D3181A78064B9A723B1C0F333A1C0F32127801321A700023181CBD4604B080BDE400002080B586B002AF78603B1C0E3317
:4026C00003221A807B681A880F493B1C0E331B880E480090081C111C1A1C012301F0BAFC0B4B181C012103F019FF0A4B181C012103F014FF084B181C012103F00FFF002396
:40270000181CBD4604B080BD870600003401002035010020360100203701002080B584B000AF78603B1C0F3300221A707B685B68BB603B1C0F331B78BA68D3181A781D4B61
:402740001A703B1C0F333A1C0F32127801321A703B1C0F331B78BA68D3181A78154B5A703B1C0F333A1C0F32127801321A703B1C0F331B78BA68D3181A780E4B9A703B1C67
:402780000F333A1C0F32127801321A703B1C0F331B78BA68D3181A78064BDA703B1C0F333A1C0F32127801321A700023181CBD4604B080BD3401002090B587B002AF786077
:4027C0003B1C083300221A703B1C083300225A703B1C083300229A703B1C08330022DA707B685B681B4A111C1A1C0223081C111C1A1C09F03CFB174B1A783C1C0E343B1C32
:402800000833101C191C13F039FE031C23807B681A883B1C0E331B88101C191C01F082FC3B1C0E331B88002B0CD17B681B88D122D200391C08310091101C191C0022042319
:4028400001F008FC3B1C0E331B88181CBD4605B090BDC0466830002090B595B002AF78603C1C44343A1C41323B1C0833101C191C13F0DEFD031C23807B681A883B1C44339F
:402880001B88101C191C01F04DFC3B1C44331B88002B45D13B1C41331B783A1C4232191CC900CB1A13807B681A8821493B1C42331B8800200090081C111C1A1C002301F0E1
:4028C000C9FB3B1C463300221A8021E03B1C46331A88391C0831131CDB009B1ACB18181C062103F01BFE3B1C46331A88391C0831131CDB009B1ACB180633181C012103F05A
:402900000DFE3B1C46331A883B1C463301321A803B1C41331B783A1C463212889A42D5D33B1C44331B88181CBD4613B090BDC0468906000090B587B000AF78603B1C163343
:40294000FF221A807B685B683A1C0C32111C1A1C0623081C111C1A1C09F089FA7B685B689A793B1C0C339A713C1C16343B1C0C33181C13F0A7FB031C23803B1C16331B8863
:40298000181CBD4607B090BD90B587B000AF78603B1C1633FF221A807B685B683A1C0C32111C1A1C0623081C111C1A1C09F05FFA7B685B689A793B1C0C339A713C1C1634E3
:4029C0003B1C0C33181C13F08BFD031C23803B1C16331B88002B02D1012004F0C3FC3B1C16331B88181CBD4607B090BD90B587B000AF78603B1C1633FF221A803B1C0C3339
:402A000000221A703B1C0C3300225A703B1C0C3300229A703B1C0C330022DA703B1C0C3300221A713B1C0C3300225A713B1C0C3300229A713C1C16343B1C0C33181C13F0AC
:402A40004FFD031C23803B1C16331B88002B02D1012004F087FC3B1C16331B88181CBD4607B090BD80B582B000AF7860022004F0B1FC031C181CBD4602B080BD80B584B092
:402A800000AF78603B1C0E3300221A80094B1A88094B9A4202D104F0E7FC03E03B1C0E3302221A803B1C0E331B88181CBD4604B080BDC046042E002093FE000090B597B05A
:402AC00002AF78607B685B681A783C1C4E343B1C0C33101C191C13F016FC031C23807B681A883B1C4E331B88101C191C01F01AFB3B1C4E331B88002B67D17B681B88364A22
:402B000000210091101C191C4522002301F0A2FA3B1C0B3310221A703B1C0B33181C012103F0FCFC3B1C0B331B783A1C0C32101C191C03F0F3FC3B1C0B330A221A703B1CA3
:402B40000B33181C012103F0E9FC3B1C0B331B783A1C0C321032101C191C03F0DFFC3B1C0B3310221A703B1C0B33181C012103F0D5FC3B1C0B331B783A1C0C321A32101C88
:402B8000191C03F0CBFC3B1C0C332B33181C062103F0C4FC3B1C0C332A33181C012103F0BDFC3B1C0B3310221A703B1C0B33181C012103F0B3FC3B1C0B331B783A1C0C3295
:402BC0003132101C191C03F0A9FC3B1C4E331B88181CBD4615B090BD8C06000080B582B000AF78600223181CBD4602B080BDC04680B584B000AF78607B685B683A1C0832BE
:402C0000111C1A1C0623081C111C1A1C09F02FF97B685B689A793B1C08339A713B1C0833181C04F031FC031C181CBD4604B080BD80B586B002AF7860134B1B78022B18D0E2
:402C40003B1C0F3300221A70D223DB000F4A0092181C00210122022301F0FCF93B1C0F33181C012103F05AFC094B00221A70002306E07B685B681B78181C13F0D9FA031C2E
:402C8000181CBD4604B080BD48300020683000203908002080B582B000AF78607B685B680A4A111C1A1C0223081C111C1A1C09F0DEF8064B1A78064B101C191C13F03FFAA4
:402CC000031C181CBD4602B080BDC046683000203401002090B587B000AF78607B685B683A1C0C32111C1A1C0623081C111C1A1C09F0BDF87B685B689A793B1C0C339A7124
:402D00003C1C16343B1C0C33181C13F0E9FB031C23803B1C16331B88002B08D17B685B683C1C1634181C13F0CDF9031C23803B1C16331B88181CBD4607B090BD80B586B047
:402D400000AF78603B1C173302221A707B685B683B613B1C17331B783A1C1732591C11703A69D3181B78FB60264B1A88264B9A4201D0022342E03B1C17331B783A1C1732AB
:402D8000591C11703A69D3181B781B02FA681343FB603B1C17331B783A1C1732591C11703A69D3181B781B04FA681343FB603B1C17331B783A1C1732591C11703A69D31859
:402DC0001B781B06FA681343FB60104A3B69111C1A1C0223081C111C1A1C09F048F80B4B19783B1C17331B783A69D3181B78FA68081C111C1A1C13F08BF9031C181CBD46C4
:402E000006B080BD042E002099FE00006830002080B584B000AF78607B685B68FB600B4AFB68111C1A1C0223081C111C1A1C09F01EF8064B1A78FB680233101C191C13F058
:402E40009FFC031C181CBD4604B080BD6830002090B587B002AF78603C1C0E3404F070FB031C23807B681A883B1C0E331B88101C191C01F057F93B1C0E331B88002B0DD152
:402E80000A4B00221A707B681B88094A00210091101C191C0022002301F0DCF83B1C0E331B88181CBD4605B090BDC046390800209406000090B58FB002AF78603C1C2C34E1
:402EC0003B1C0C33181C13F060FA031C23807B681A883B1C2C331B88101C191C01F022F93B1C2C331B88002B46D13B1C0C331B783A1C2A32191CC900CB1A13807B681A882D
:402F000021493B1C2A331B8800200090081C111C1A1C002301F09EF83B1C2E3300221A8022E03B1C2E331A88391C0C31131CDB009B1ACB180133181C062103F0EFFA3B1C29
:402F40002E331A88391C0C31131CDB009B1ACB180733181C012103F0E1FA3B1C2E331A883B1C2E3301321A803B1C0C331B783A1C2E3212889A42D4D33B1C2C331B88181C54
:402F8000BD460DB090BDC0469506000090B585B000AF78607B685B68FB600D4AFB68111C1A1C0223081C111C1A1C08F060FF084B1C78FB680233181C04F0E2FA031C201C63
:402FC000191C11F07DFA031C181CBD4605B090BD6830002090B599B002AF78607B685B687B657B6D19787B685B689A1C3C1C52343B1C1033081C111C1A1C13F04FFA031C38
:4030000023807B681A883B1C52331B88101C191C01F088F83B1C52331B88002B67D17B681B88364A796D0091101C191C4522022301F010F83B1C0F3310221A703B1C0F33E4
:40304000181C012103F06AFA3B1C0F331B783A1C1032101C191C03F061FA3B1C0F330A221A703B1C0F33181C012103F057FA3B1C0F331B783A1C10321032101C191C03F054
:403080004DFA3B1C0F3310221A703B1C0F33181C012103F043FA3B1C0F331B783A1C10321A32101C191C03F039FA3B1C10332B33181C062103F032FA3B1C10332A33181C21
:4030C000012103F02BFA3B1C0F3310221A703B1C0F33181C012103F021FA3B1C0F331B783A1C10323132101C191C03F017FA3B1C52331B88181CBD4617B090BD9706000051
:4031000080B582B000AF78607B685B681A785B781B021A4300231204120C1B0C1B041343181C14F0A7F9031C181CBD4602B080BD80B586B000AF78603B1C173302221A70CB
:403140003B1C163300221A707B685B682C4A111C1A1C0223081C111C1A1C08F088FE7B685A683B1C17331B78391C1731581C0870D2183B1C163312781A703B1C16331B7827
:40318000012B04D13B1C0C3302229A8008E03B1C16331B78022B03D13B1C0C3310229A807B685B881A1C3B1C0C339B88191C3B1C17331B78CB189A4201D001231BE07B688C
:4031C0005A683B1C17331B78D2183B1C0C331A600B4B3A1C0C3219785B781B02194300230904090C1B0C1B040B43181C1168526814F08CF9031C181CBD4606B080BDC04600
:403200006830002080B584B000AF78607B685B680233FB607B685B68104A111C1A1C0223081C111C1A1C08F022FEFB685A880C4B1A800A4BFA6819785B781B02194300239C
:403240000904090C1B0C1B040B43181C111C14F08BF9031C181CBD4604B080BD68300020FA2D002080B584B000AF78607B685B680233FB607B685B68134A111C1A1C0223B8
:40328000081C111C1A1C08F0F2FDFB685A880F4B1A800D4BFA6819785B781B02194300230904090C1B0C1B040B43118852881204114300220A1C181C111C14F0BFF8031C97
:4032C000181CBD4604B080BD68300020FA2D002090B58BB000AF021C3960FB1D1A703B1C273302221A703B1C243302221A803B1C233307221A703B685B685A4A111C1A1C87
:403300000223081C111C1A1C08F0B1FD3B685A683B1C27331B78391C2731581C0870D3181A783B1C0C331A753B1C0C331B7D012B1CD13B685A683B1C27331B78D318181C48
:4033400004F01EF9031C1A1C3B1C0C339A803B1C23333A1C2332127802321A703B1C27333A1C2732127802321A7022E03B1C0C331B7D022B1DD13B685A683B1C27331B7801
:40338000D3183A1C0C32111D1A1C1023081C111C1A1C08F06CFD3B1C23333A1C2332127810321A703B1C27333A1C2732127810321A703B685A883B1C23331B789BB29A42BD
:4033C00044D13B685A683B1C27331B78D3183A1C0C32111C1A1C0423081C111C1A1C08F046FDFB1D1B78002B1AD03B1C0C335A881D4B1A803C1C24341A4B3A1C0C321978D0
:403400005B781B02194300230904090C1B0C1B040B43181C111C14F045F8031C238019E03C1C24340F4B3A1C0C3219785B781B02194300230904090C1B0C1B040B43181C82
:40344000111C14F0F7F8031C238003E03B1C243301221A803B1C24331B88181CBD460BB090BDC04668300020FA2D002080B582B000AF78607B680120191CFFF729FF031C23
:40348000181CBD4602B080BD80B584B000AF78607B685B680233FB607B685B68104A111C1A1C0223081C111C1A1C08F0E0FCFB685A880C4B1A800A4BFA6819785B781B026F
:4034C000194300230904090C1B0C1B040B43181C111C13F09DFF031C181CBD4604B080BD68300020FA2D002080B584B000AF78607B685B680233FB607B685B680F4A111CFF
:403500001A1C0223081C111C1A1C08F0B0FCFB681A880A4B19785B781B02194300230904090C1B0C1B040B43181C111C14F041F8031C181CBD4604B080BDC0466830002052
:4035400080B582B000AF78607B680020191CFFF7BFFE031C181CBD4602B080BD80B584B000AF78607B685B680233FB607B685B680E4A111C1A1C0223081C111C1A1C08F002
:4035800076FC0A4BFA6819785B781B02194300230904090C1B0C1B040B43181C111C14F025F8031C181CBD4604B080BD6830002080B584B000AF78607B685B685A883B1CDC
:4035C00008339A807B685B881A1C3B1C08339B8802335B009A4201D0012322E07B685B68124A111C1A1C0223081C111C1A1C08F03EFC7B685B681A1D3B1C08331A600B4BE0
:403600003A1C083219785B781B02194300230904090C1B0C1B040B43181C111C13F0FCFF031C181CBD4604B080BDC0466830002090B587B000AF021C3960FB1D1A703B1C05
:40364000153302221A703B1C163302221A803B685B684E4A111C1A1C0223081C111C1A1C08F005FC3B685A683B1C15331B78D3181A883B1C08331A813B1C15333A1C153263
:40368000127802321A703B685A683B1C15331B78D3181A883B1C08339A803B1C15333A1C1532127802321A703B685A683B1C15331B78D2183B1C08331A603B685B881A1C25
:4036C0003B1C08339B88191C3B1C15331B78CB189A4204D13B1C08331B68002B04D13B1C163301221A804AE0FB1D1B78012B1AD0022B2ED0002B00D041E03C1C1634234B66
:403700003A1C083219785B781B02194300230904090C1B0C1B040B43181C111C13F0F4FF031C23802BE03C1C1634184B3A1C083219785B781B02194300230904090C1B0C41
:403740001B040B43181C111C13F0E8FF031C238015E03C1C16340D4B3A1C083219785B781B02194300230904090C1B0C1B040B43181C111C14F028F8031C2380C0463B1CF6
:4037800016331B88181CBD4607B090BD6830002080B582B000AF78607B680220191CFFF747FF031C181CBD4602B080BD80B582B000AF78607B680120191CFFF739FF031C0D
:4037C000181CBD4602B080BD90B585B000AF021C3960FB1D1A703B1C0D3302221A703B1C0E3302221A803B685B68474A111C1A1C0223081C111C1A1C08F039FB3B685A68EF
:403800003B1C0D331B78D3181A88404B1A813B1C0D333A1C0D32127802321A703B685A683B1C0D331B78D3181A88384B9A813B1C0D333A1C0D32127802321A703B685A68A4
:403840003B1C0D331B78D3181A88304B9A803B1C0D333A1C0D32127802321A703B685A683B1C0D331B78D218284B1A603B685B881A1C264B9B88191C3B1C0D331B78CB1890
:403880009A4203D1214B1B68002B04D13B1C0E3301221A8030E0FB1D1B78002B14D13C1C0E34194B194A19785B781B02194300230904090C1B0C1B040B43181C111C13F0CE
:4038C00037FF031C238017E0FB1D1B78012B13D13C1C0E340C4B0D4A19785B781B02194300230904090C1B0C1B040B43181C111C13F044FF031C23803B1C0E331B88181C48
:40390000BD4605B090BDC046683000202808002080B582B000AF78607B680120191CFFF753FF031C181CBD4602B080BD90B587B000AF78607B685B683B613B1C16330222B7
:403940001A703B1C143302221A803B1C16331B783A69D318181C03F013FE031C1A1C3B1C0F331A703B1C0F331B78181C102108F02DFA031C1A1C614B1A60604B1B68002B6C
:4039800009D17B681A88FD231B02101C191C00F0C9FB0123ADE0594B1B68BB603B1C16333A1C1632127802321A703B1C173300221A7066E03B1C17331B781B01BA68D418EC
:4039C0003B1C16331B783A69D318181C03F0D8FD031C23813B1C16333A1C1632127802321A703B1C17331B781B01BA68D4183B1C16331B783A69D318181C03F0C1FD031C9E
:403A0000A3813B1C16333A1C1632127802321A703B1C17331B781B01BA68D4183B1C16331B783A69D318181C03F0AAFD031CA3803B1C16333A1C1632127802321A703B1CD0
:403A400017331B781B01BA68D3183A1C1632127839698A181A603B1C17331B781B01BA68D3189B88D9B23B1C16333A1C163212788A181A703B1C17331A783B1C1733013254
:403A80001A703A1C17323B1C0F3312781B789A4290D37B685A883B1C16331B789BB29A4204D03B1C143301221A801FE0144A3B69111C1A1C0223081C111C1A1C08F0D7F9C0
:403AC0003C1C14340E4BB9683A1C0F32127818785B781B02184300230004000C1B0C1B040343181C13F0C6FD031C23803B1C14331B88181CBD4607B090BDC0468408002007
:403B00006830002080B584B000AF78607B685B68FB607B685B68104A111C1A1C0223081C111C1A1C08F0A3F9FB6802331A880A4B19785B781B02194300230904090C1B0C61
:403B40001B040B43181C111C13F02CFD031C181CBD4604B080BDC0466830002080B584B000AF78607B685B680233FB607B685B680E4A111C1A1C0223081C111C1A1C08F01B
:403B800076F90A4BFA6819785B781B02194300230904090C1B0C1B040B43181C111C13F00FFD031C181CBD4604B080BD6830002080B582B000AF78607B680020191CFFF79E
:403BC00037FD031C181CBD4602B080BD80B582B000AF78607B680020191CFFF7F5FD031C181CBD4602B080BD80B582B000AF78607B685B68104A111C1A1C0223081C111C32
:403C00001A1C08F034F97B685B6802331A880A4B19785B781B02194300230904090C1B0C1B040B43181C111C13F08CFC031C181CBD4602B080BDC0466830002080B586B047
:403C400002AF78603B1C0E3302221A80154B1B88DB099BB21A1C07231340042B1AD113F04DFD114B00221A700E4B1B88181C002100F058FA0B4B1B88C222D200002100911B
:403C8000101C191C0022002300F0E4F93B1C0E3300221A803B1C0E331B88181CBD4604B080BDC046042E00203908002090B585B000AF78607B685B683C1C0E34181C03F0B9
:403CC0005FFC031C23807B685B6802333C1C0C34181C03F055FC031C23803B1C0E331A883B1C0C331B88101C191C10F0C5FA031C181CBD4605B090BD90B585B000AF78600E
:403D00007B685B683C1C0E34181C03F039FC031C23803B1C0E331B88181C10F0EEFA031C181CBD4605B090BD90B587B000AF78607B685B687B613B1C133302221A703B1C4F
:403D400013331B787A69D3183C1C1034181C03F017FC031C23803B1C13333A1C1332127802321A703B1C13331B787A69D3183C1C0E34181C03F004FC031C23803B1C133366
:403D80003A1C1332127802321A703B1C13331B787A69D318181C03F0F3FB031C1A1C3B1C08331A803B1C13333A1C1332127802321A703B1C13331B787A69D318181C03F0E7
:403DC000DFFB031C1A1C3B1C08335A803B1C13333A1C1332127802321A703B1C13331B787A69D318181C03F0CBFB031C1A1C3B1C08339A803B1C13333A1C133212780232C6
:403E00001A707B6918783B1C103319883B1C0E331A883B1C083310F00FFA031C181CBD4607B090BD90B587B000AF78607B685B687B613B1C133300221A703B1C13331B781C
:403E40007A69D3183C1C1034181C03F099FB031C23803B1C13333A1C1332127802321A703B1C13331B787A69D3183C1C0E34181C03F086FB031C23803B1C13333A1C1332A1
:403E8000127802321A703B1C13331B787A69D318181C03F075FB031C1A1C3B1C08331A803B1C13333A1C1332127802321A703B1C13331B787A69D318181C03F061FB031C84
:403EC0001A1C3B1C08335A803B1C13333A1C1332127802321A703B1C13331B787A69D318181C03F04DFB031C1A1C3B1C08339A803B1C13333A1C1332127802321A703B1C5B
:403F0000103319883B1C0E331A883B1C0833081C111C1A1C10F0A1F9031C181CBD4607B090BDC04690B585B000AF78607B685B683C1C0E34181C03F023FB031C23807B6825
:403F40005B6802333C1C0C34181C03F019FB031C23803B1C0E331A883B1C0C331B88101C191C10F0BFF9031C181CBD4605B090BD90B587B000AF78607B685B683B613B1C34
:403F80000F3302221A703B1C163301221A803B1C0F331B783A69D3183C1C0C34181C03F0EFFA031C23803B1C0F333A1C0F32127802321A703B1C0F331B783A69D3183C1C06
:403FC0000A34181C03F0DCFA031C23803B1C0F333A1C0F32127802321A703B1C0A331A883B1C0F331B78D2187B685B889A4212D13B6918783B1C0F331B783A69D2183C1C36
:4040000016343B1C0C3319883B1C0A331B8810F07FF9031C23803B1C16331B88181CBD4607B090BD90B585B000AF78607B685B683C1C0E34181C03F0A3FA031C23803B1CF2
:404040000E331B88181C10F030FA031C181CBD4605B090BD90B587B000AF041C081C111C1A1CBB1D1C803B1D1880BB1C19803B1C1A803B1C0A332A4A1A803B1C0A33181CA5
:40408000022102F04BFA3B1C0C33BA1D12885A803B1C1B8802339AB23B1C0C331A803B1C173304221A703B1D1B88002B13D03B1C0C333A1D12889A803B1C17333A1C1732DF
:4040C000127802321A703B1C0C331B8802339AB23B1C0C331A803B1C0C331A88BB1C1B88D3189AB23B1C0C331A803B1C17331B783A1C0C32101C191C02F010FA3B1C1B8856
:40410000002B09D0BB6A002B06D03B1C1B88BA6A101C191C02F002FABD4607B090BDC046BDA7FFFF80B586B000AF0A1CBB1D011C19803B1D1A803B1C0E33214A1A803B1DC4
:404140001B88002B16D01F4B1B88BA1D12889A420AD11D4B00221A701C4A1D4B101C00211A1C07F08DFE05E01A4B181C00210C2207F086FE3B1C0E33181C022102F0CEF97F
:404180003B1C103306221A803B1C1033124A5A803B1C1033BA1D12889A803B1C10333A1D1288DA803B1C10331B8802333A1C1032101C191C02F0B2F9BD4606B080BDC046C5
:4041C000BDA7FFFF042E0020390800200C04002004040000100800207E04000080B586B000AF0A1CBB1D011C19803B1D1A803B1C0E33254A1A803B1C0E33181C022102F076
:404200008DF9224B1B88BA1D12889A420AD1204B00221A701F4A204B101C00211A1C07F02FFE05E01D4B181C00210C2207F028FE1B4B1B783A1D128851424A41D2B2134062
:4042400002D0184B01221A703B1C103306221A803B1C1033144A5A803B1C1033BA1D12889A803B1C10333A1D1288DA803B1C10331B8802333A1C1032101C191C02F04EF980
:40428000BD4606B080BDC046BDA7FFFF042E0020390800200C0400200404000010080020380800203A0800207F04000080B582B000AF104B7B60104B3B60104B1B78002BDD
:4042C00003D00F4B7B600F4B3B607B681A883B681A807B685A883B685A803B685B88002B03D07B681A1D3B685A603B68181CBD4602B080BD0C040020042E00203908002016
:4043000010080020FC2D002090B585B000AF3B1C0A3306221A800023FB60FFF7C7FF031C7B607B681B88D9B2FB1C7F220A401A707B681B88DB099BB2D9B2BB1C07220A4020
:404340001A70BB1C1B78052B34D89A00754BD3181B689F46FB1C1B780D2B06D8FB1C1B78DA00714BD318FB6027E026E0FB1C1B78062B06D8FB1C1B78DA006C4BD318FB60D3
:404380001BE01AE0FB1C1B78132B06D8FB1C1B78DA00674BD318FB600FE00EE0FB1C1B78202B06D8FB1C1B78DA00624BD318FB6003E002E0C04600E0C0465F4B1B7801228E
:4043C0005340DBB2002B0CD0BB1C1B78002B08D05A4B00221A707B681B88181C0221FFF7A1FE574B1B78002B09D0BB1C1B78002B05D0FB681B781A1C1023134006D0FB68D8
:40440000002B03D0FB685B68002B09D14B4B00221A707B681B88181C0221FFF783FE7EE07B685A888023DB009A420BD9434B00221A707B681A88FD231B02101C191CFFF709
:4044400071FE6CE0FB681B781A1C0123134005D0FB685A887B685B889A4207D17B685B88002B0DD07B685B68002B09D1334B00221A707B681B88181C0121FFF753FE4EE056
:40448000304B1B78DBB2012B09D12C4B00221A707B681B88181C0821FFF744FE3FE0FB681B781A1C0223134005D07B681B88181C0021FFF737FE07F0C0FD214B01221A70B2
:4044C0001E4B00221A70FB685B683C1C0A347A68101C9847031C2380FB681B781A1C0423134008D07B681A883B1C0A331B88101C191CFFF717FE3B1C0A331B88002B0ED155
:40450000FB681B781A1C0823134008D07B681A883B1C0A331B88101C191CFFF75FFEBD4605B090BD44D80100F4D501000CD801006CD7010064D60100380800201C08002095
:40454000390800206430002080B500AF06F0E8FE021C8023DB009A4200D01AE08023DB00181C06F0EBFE0C4B1B781A1C0B4B1B68D2180A4B1A600A4B1B68002B09D0094BB1
:404580001B7801225340DBB2002B02D0044B1B689847BD4680BDC046400800203C080020440800200C2E002080B582B000AF7860154B7A681A607B68002B02D0134B002295
:4045C0001A7006F059FD124B0820191C06F0ECFE082006F063FF0120012106F08BFD01201F2106F055FE0120012106F0B3FD80235B00181C06F0E6FD06F014FD054B0122F2
:404600001A70BD4602B080BD440800200C2E0020494500004008002080B500AF024B1B68181CBD4680BDC0463C08002080B584B000AF786039603B1C0F3300221A70114B86
:404640001A687B68D21A3B689A4204D33B1C0F3301221A700FE00B4B1B687A689A420AD97A683B68D218074B1B689A4203D33B1C0F3301221A703B1C0F331B78181CBD4645
:4046800004B080BD3C08002080B500AF01F002FCBD4680BD80B500AF074B1B78052B09D101F0F8FB022002F095FE031C002B01D0FFF7EAFFBD4680BD48300020B0B584B0C9
:4046C00000AF021CFB1D1A703C1C0E34104BFD1D1A785B781B021A4300231204120C1B0C1B041343181C002101222B1C03F0A8F9031C23803B1C0E331B88002B01D0FFF728
:40470000C3FF3B1C0E331B88181CBD4604B0B0BD6830002080B500AF074B1B78162B09D0064B1B78181C11F083FD031C002B01D0FFF7AAFFBD4680BDD0000020683000204E
:4047400090B587B002AF0A1CFB1D011C1970BB1D1A703C1C0E34134BBA1D127801210091F91D019119785B781B02194300230904090C1B0C1B040B43181C0021022305F0ED
:4047800099FA031C23803B1C0E331B88002B01D0FFF77AFF3B1C0E331B88181CBD4605B090BDC0466830002080B586B002AF0A1CFB1D011C1970BB1D1A703B1C0E330122AF
:4047C0001A80124BFA1D1178BA1D127802200090381C0E30019018785B781B02184300230004000C1B0C1B040343181C002305F03BFB031C002B02D0FFF746FF02E0044B48
:4048000003221A70BD4604B080BDC046683000206008002090B587B002AFD24B1B78002B03D1D14B02221A7042E2CE4B1B78013BDAB2CC4B1A70CB4B1B78162B00D936E2D5
:404840009A00CA4BD3181B689F46C94B1A78C94B101C191C11F073FC031C002B03D1C24B03221A7024E2C44B01221A70BD4B17221A701DE2BE4B8022920019785B781B0287
:40488000194300230904090C1B0C1B040B43181C111C12F057FE031C002B03D1B24B03221A7005E2FFF7F0FE02E2B44B1A89B04B19785B781B02194300230904090C1B0CAC
:4048C0001B040B43181C111C12F073FE031C002B03D1A54B03221A70EAE1FFF7D5FEE7E1A34B1A78A64B101C191C11F049FFDFE101200021FFF724FFDAE13B1C0F330122B1
:404900001A709B4B012200923A1C0F3201921A785B781B021A4300231204120C1B0C1B041343181C00210022002305F0C3F9031C002B02D0FFF7A8FEBAE1B9E10020FFF708
:40494000BDFEB5E18F4B1B78002B25D13B1C0833181C242102F026FE3B1C08330233181C122102F01FFE824B3C1C08341A785B781B021A4300231204120C1B0C1B041343C7
:40498000181C00210422231C05F06EFF031C002B02D0FFF779FE8BE18AE1754B1A785B781B021A4300231204120C1B0C1B041343181C00210022012305F0ECF9031C002B2A
:4049C00003D1694B03221A7072E1FFF75DFE6FE16D4B07221A706C4B1B781A1C531CD9B2694B1970624B19785B781B02194300230904090C1B0C1B040B43181C002101238E
:404A000005F09EFA031C002B03D1574B03221A704EE1FFF739FE4BE15B4B1B781A1C531CD9B2594B1970524B19785B781B02194300230904090C1B0C1B040B43181C0021B4
:404A4000012305F07DFA031C002B03D1464B03221A702DE1FFF718FE2AE14B4B1B781A1C531CD9B2484B1970414B19785B781B02194300230904090C1B0C1B040B43181C38
:404A80000021012305F05CFA031C002B03D1364B03221A700CE1FFF7F7FD09E13A4B1B781A1C531CD9B2384B1970314B19785B781B02194300230904090C1B0C1B040B43D1
:404AC000181C0021012305F03BFA031C002B03D1254B03221A70EBE0FFF7D6FDE8E02A4B1B781A1C531CD9B2274B1970204B19785B781B02194300230904090C1B0C1B0474
:404B00000B43181C0021012305F01AFA031C002B03D1154B03221A70CAE0FFF7B5FDC7E0194B1B781A1C531CD9B2174B1970104B19785B781B02194300230904090C1B0CC9
:404B40001B040B43181C0021012305F0F9F9031C002B03D1044B03221A70A9E0FFF794FDA6E0C046D0000020600800205CD8010068300020340100204B0800206C300020C7
:404B8000D40000204D08002061080020FB1D02221A70494BFC1D1A785B781B021A4300231204120C1B0C1B041343181C00210122231C02F0BDFE031C002B03D13F4B03228D
:404BC0001A7075E0FFF760FD72E03B1D01221A80394B3A1D00921A785B781B021A4300231204120C1B0C1B041343181C01210022022305F07FFE031C002B03D12F4B032211
:404C00001A7055E0FFF740FD52E0BB1C01221A80294B02220092BA1C01921A785B781B021A4300231204120C1B0C1B041343181C00210022002302F0CDF8031C002B03D1E8
:404C40001E4B03221A7033E0FFF71EFD30E01C4B5B78062B06D91A4B5B780020191CFFF7A3FD25E024E0164BDB78062B06D9144BDB780020191CFFF797FD19E018E0104BD1
:404C80005B79062B06D90E4B5B790020191CFFF78BFD0DE00CE00A4BDB79062B06D9084BDB790020191CFFF77FFD01E000E0C046BD4605B090BDC0466830002060080020FE
:404CC0005808002080B584B000AF78603B1C0E3300221A8064E07B68DA683B1C0E331B88D2183B1C0C3312781A703B1C0C331B78002B53D07B68DA683B1C0E331B880133AD
:404D0000D2183B1C0B3312781A703B1C0B331B78022B09D03B1C0B331B78032B04D03B1C0B331B78142B2BD13B1C0E331B88DAB23B1C0D3302321A7016E07B68DA683B1C97
:404D40000D331B78D318181C02F01AFC031C1A1C194B9A4201D101232AE03B1C0D333A1C0D32127802321A703B1C0D331A783B1C0E3319883B1C0C331B78CB189A42DCDB2F
:404D80003B1C0C331B789AB23B1C0E331B88D3189AB23B1C0E3301321A8001E0002307E07B681B7A3A1C0E3212889A4293D30023181CBD4604B080BD1218000080B582B0F6
:404DC00000AF7860144B00221A707B68002B00D11EE07B681B78012B06D07B68181CFFF771FF031C002B13D002F03EFB7B685B680A4A111C1A1C0623081C111C1A1C07F0F3
:404E000036F87B685A78054B9A71034B01221A70BD4602B080BDC046490800205008002080B584B002AF3B1C00221A703B1C00225A703B1C00229A703B1C0022DA703B1C5B
:404E400000221A713B1C00225A713B1C00229A713B1C0022DA71224B1B78012B15D002DC002B05D035E0022B19D0032B24D030E03B1C01221A701B4B3A1C0092181C002106
:404E800000220623FFF7E6F823E0174B3A1C0092181C002100220823FFF7DCF819E03B1C03221A700F4B3A1C0092181C002100220323FFF7CFF80CE03B1C04221A70094B38
:404EC0003A1C0092181C002100220223FFF7C2F8C046034B04221A70BD4602B080BDC046D1000020610400006204000090B58DB002AFCF4B1B78DBB2012B00D1CDE1CD4B96
:404F00001B78002B01D0FFF705FC07F096F8CA4B1B78012B00D16AE102DC002B07D07AE1022B00D12EE1032B00D157E173E1C34B1B78052B00D07DE0C14B1B78002B0DD0FE
:404F4000BF4B00221A70BF4B181C02F09DFA031C002B00D1A1E0FFF797FB9EE0BA4B1B78DBB2002B34D03B1C00221A703B1C00225A703B1C00229A703B1C0022DA703B1CDB
:404F800000221A713B1C00225A713B1C00229A713B1C181C11F0A4FA031C002B01D0FFF773FB3B1C083300221A703B1C0833181C11F0EBF93B1C08331B78002B04D1A34BD7
:404FC0000022DA71FFF766FB9A4B00221A7064E03B1C083300221A703B1C0833181C11F0D4F93B1C08331B78002B14D03B1C08331B78042B06D111F0B5FA031C002B01D01C
:40500000FFF742FB914B0122DA71FFF743FB894B00221A7041E000F03DFF864B1B78002B3BD08A4B0022DA71FFF734FB814B00221A7032E0814B1B78032B2CD1834BDB79BB
:40504000002B13D100F0E2FE031C002B0AD0804B00221A70FF2300939C2019219C22C82300F036FE784B00221A7016E000F0CEFE031C002B11D0764B00221A709C23D800EE
:40508000FA2359009C239A00FA239B00FF24009400F01EFE01E000F0FDFE6E4B1B78002B31D13B1C0833181C11F06FF9654A3B1C08330133101C191C072206F0C9FE031C57
:4050C000002B0CD13B1C08331B78002B07D0614B1B78072B03D15F4B05221A7051E05E4B1A785B781B021A4300231204120C1B0C1B041343181C02F06DFA031C002B40D04E
:40510000FFF7C2FA3DE0534B1B78052B39D13B1C0833181C11F039F94A4A3B1C08330133101C191C072206F093FE031C002B0CD13B1C08331B78002B07D0484BDB78002B72
:4051400003D0474B01221A7014E0444B181C0021082206F095FE414B01221A703F4B02229A703E4B03221A713C4B04229A713C4B00221A703B4B17221A702F4B01221A700D
:4051800049E048E0334B1B78052B02D02A4B00221A70FA239B01181C00F01AFE3B1C273301221A703C1C2634022006F02DFF031C237072B63C1C273408F058FB031C237097
:4051C0003B1C26331B78022B06D13B1C27331B78022B01D006F0E6F962B61CE01D4B1B78052B03D0144B00221A7014E013E0194B1B78052B03D0104B00221A700AE0194BFE
:405200001B78002B02D0FFF705FB03E00A4B02221A70FFE7C0460C4B1B78DBB2002B3CD0064B1B78022B1FD1024B01221A7034E0643000204B080020600800204830002012
:40524000490800205008002048080020E40000200C2E00204930002068300020580800204A080020D00000200D4B1B78042B07D102F066F9031C002B0FD0FFF705FA0CE0F7
:40528000074B1B78032B08D1064BDB79002B04D002F0EAF8034B0022DA71BD460BB090BD48300020E400002080B588B000AF786039607B68252B00D170E00DD8042B06D855
:4052C000032B33D2012B1ED0022B32D0C2E0202B3BD0242B58D0BDE0492B00D171E007D8402B00D180E0442B3FD0282B32D0B1E0702B00D193E000D2ACE0083BFF3B032BC9
:4053000000D9A7E087E03B1C0C33181C07F05EFC031C002B09D13B1C0C3302221A703B1C0C33181C07F0A0FC94E093E0FFF7ACF990E03B681B78032B06D1484B01221A7059
:40534000474B17221A7085E084E03B68181CFFF735FD7FE000F09EFD424B00221A70FFF75FFD3E4B01221A7074E03F4B01221A703E4B1B78002B06D03C4B00221A70384B07
:4053800000221A7066E065E03B68BB61BB695A78344B1A70344B01221A705BE02F4B01221A702F4B17221A703B681B78062B03D03B681B78042B03D12D4B01221A7049E06C
:4053C00048E03B687B61264B1B78142B0BD17B695B68284A101C191C082206F048FD224B01221A7036E035E03B683B613B699B79052B0BD03B699B79082B07D03B699B7947
:405400000C2B03D03B699B790F2B03D1184B01221A701FE01EE0114B01221A701AE03B1C1E3301221A80104B1B78022B03D13B1C1E3300221A80104B1A783B1C1E331B889C
:40544000101C191C0FF03CF8031C002B01D0FFF71BF9C046BD4608B080BDC0464B080020D00000204D080020600800204A08002048080020D40000206830002080B586B016
:4054800002AF786039607A688E235B009A4223D13B68FB603B1C0B3305221A70FB685B689B88002B17D0FB685B689B88104A391C0B310091101C00211A1C0123FEF7CAFD45
:4054C000FB685B681A68FB685B689B88101C191C01F024F808E007E07A682023FF339A4202D1044B01221A70BD4604B080BDC046610400006008002080B590B002AF786097
:4055000039607B68B6225200934200D15EE1B6225200934204D86C22FF3293420BD067E1B7225200934200D110E17022FF32934200D147E15CE1B04B1B78022B00D004E14E
:405540003B683B633B1C373300221A70AB4B1B78DBB2002B05D0002001F02AFBA74B00221A703B1C373300221A70E8E03B1C37331B78A34A5B00D3185A783B6BDB789A4230
:4055800000D0D5E03B1C37331B78012B40D002DC002B06D0C6E0022B72D0032B00D19AE0C0E03B6B5B689B88052B30D83B1C1C3301221A703B1C1C3300225A703B1C1C337A
:4055C00000229A703B1C1C330022DA703B1C1C3300221A713B1C1C3300225A713B6B5B681A683B6B5B689B88391C1C310131081C111C1A1C06F03BFC824B3A1C1C32009285
:40560000181C002100220623FEF724FD8AE089E03B1C143300221A703B1C143300225A703B1C143300229A703B1C14330022DA703B1C143300221A713B1C143300225A7163
:405640003B1C143300229A713B1C14330022DA713B6B5B681A683B6B5B689B88391C1431081C111C1A1C06F002FC674B3A1C14320092181C002100220823FEF7EBFC51E039
:405680003B6B5B689B88022B24D83B1C103303221A703B1C103300225A703B1C103300229A703B6B5B681A683B6B5B689B88391C10310131081C111C1A1C06F0D8FB514B75
:4056C0003A1C10320092181C002100220323FEF7C1FC27E026E03B6B5B689B88012B20D83B1C0C3304221A703B1C0C3300225A703B6B5B681A683B6B5B689B88391C0C31A3
:405700000131081C111C1A1C06F0B1FB3D4B3A1C0C320092181C002100220223FEF79AFCFFE7C046394B3A1C373212781A700CE03B1C37331A783B1C373301321A703B1CE2
:4057400037331B78032B00D810E751E03B68FB62FB6A9B689B88002B30D0FB6A9B681B68BB62BB6A01331B78012B27D13B1C363300221A703B1C363300221A7019E03B1C08
:4057800036331A781E4B5200D25CBB6A1B789A4208D13B1C36331B78FA6AD27818495B00CB185A703B1C36331A783B1C363301321A703B1C36331B78032BE0D90E4B0122A9
:4057C0001A7015E00C4B01221A7011E03B687B627B6ADB78012B0AD17B6A5B689B88002B02D00B4B01221A70034B01221A70C046BD460EB080BDC046600800208008002076
:40580000580800206104000062040000D10000204C08002090B585B000AF786039607A68D7235B009A4226D13B1C0C33181C242101F0B8FE3B1C0C330233181C122101F03B
:40584000B1FE124B3C1C0C341A785B781B021A4300231204120C1B0C1B041343181C00210422231C05F000F8031C002B02D0FEF70BFF08E007E07A68D8235B009A4202D13A
:40588000034B01221A70BD4605B090BD683000206008002080B582B000AF786039607A688823FF339A4202D1024B01221A70BD4602B080BD6008002090B583B000AFFB1D00
:4058C00001221A70404B1B78032B02D101F0CCFD1CE03E4B1B78002B15D03D4B1B78002B0ED03C4B1B7801225340DBB2002B0DD000200021FEF724FF364B01221A7005E005
:40590000FEF708FF02E0334B01221A7000F0C2FABC1D032006F078FB031C237072B6FC1D07F0A4FF031C2370BB1D1B78032B30D1FB1D1B78042B03D0FB1D1B78062B28D1F2
:4059400000F028FE00F072FF05F096FB80235B00181C05F069FC05F065FB00F09BFA01F0C7F805F039FE1C4B181C01F0AFF81B4B181C00F0D1FC1A4B181C00F073FC00F076
:4059800043FF184B181CFEF70FFE00F099F900F007FE62B606F051FB0C4B1B78002B10D00C4B1B7801225340DBB2002B09D001200021FEF7C5FE031C002B02D1054B00228C
:4059C0001A70BD4603B090BD48300020600800204C08002062080020C1050000095F0000315B0000E95E000080B500AF3A4B181C03F000FE394B181C01F012F9384B181C02
:405A000004F0BCFE374B181C01F0CAFE364B00221A70364B00221A70354B00221A70354B00221A70334B01225A70324B24225A80304B12229A802F4B00229A712D4B002285
:405A4000DA712C4B00221A812A4B01229A72294B5A88294B1A80274B9A88274B5A80254B9A79254B1A73234BDA79234B1A71224B0622DA81204B08221A821F4B00225A82FC
:405A80001D4B32229A821C4B0022DA821A4B012252421A83194B11221A70184B01225A70164B10229A70154B0022DA70144B1B78DBB220221343DAB2114B1A70114B00228F
:405AC0001A70114B181C01F0FDFB031C002B01D0FEF7DAFDBD4680BDF95400007D5400001558000095580000490800204A0800204B080020E40000202C30002034010020D9
:405B00007830002060080020A952000080B500AF01F01AFC002003F06DFD002001F080F8002004F02BFE002001F03AFEBD4680BD80B500AF034B01221A7000F019FEBD467A
:405B400080BDC0464808002080B500AF524B1B7801225340DBB2002B00D19AE04F4B1A684F4B1B88101C191CFEF760FD031C01225340DBB2002B0DD04A4B1B881A1C4A4B2C
:405B80001B68D218484B1A60474B1B68181C00F065FF7EE0414B1A68414B1B88191C434B1B88CB18101C191CFEF740FD031C01225340DBB2002B04D03B4B1A683A4B1A60EF
:405BC00067E0364B1A68364B1B88191C374B1B88C918374B1B88CB18101C191CFEF726FD031C01225340DBB2002B13D0314B1B881A1C2D4B1B689A4206D22B4B1A682D4B97
:405C00001B88D21A284B1A60274B1B68181C00F025FF3EE0214B1A68214B1B88191C234B1B88C918224B1B88C918234B1B88CB18101C191CFEF7FAFC031C01225340DBB2D6
:405C4000002B08D0184B00221A60174B1B68181C00F004FF1DE0194B1B78002B02D100F019F916E0154B1B78FF2B05D0134B1B78013BDAB2114B1A70FEF7CEFC021C074B6C
:405C80001A60094B00221A60074B1B68181C00F0E5FEBD4680BDC0467C080020700800206408002074080020780800206608002068080020760800206A0800206C08002072
:405CC00080B500AF00F03EFE00F02AFDBD4680BD90B583B000AF041C081C111C1A1CBB1D1C803B1D1880BB1C19803B1C1A8000F08DF8031C002B56D02C4BBA1D12881A8043
:405D00002B4B3A1D12881A802A4BBA1C12881A80294B3A1C12881A80284B3A1C183212781A70FEF779FC021C254B1A60254B00221A60052000F0EEFD224B1B68181C00F02C
:405D40008DFEBB1D1B88002B0BD0BB1D1B88FA22D001191C05F08AFF031C9AB21A4B1A8008E0194BFA22D2011A80FA23DB01181C00F074FEBB1C1B88002B0BD0BB1C1B8834
:405D8000FA22D001191C05F071FF031C9AB20F4B1A8003E00D4BFA22D2011A80FF2000F0A9FC00F015FEBD4603B090BD6408002066080020680800206A0800206C080020AF
:405DC0007008002078080020740800207608002080B582B000AF786000F018F8031C002B0ED0094B01221A70052000F093FD7B68181C00F033FEFF2000F07CFC00F0E8FDE1
:405E0000BD4602B080BDC0467C08002090B583B000AFFB1D00221A70174B1B881A1C174B1B88D218164B1B88D218164B1B88D3183B60154B1B78002B17D1144B1B7801221E
:405E40005340DBB2002B10D03B68002B0AD0104B1A68FC1D3B68101C191CFEF7E7FB031C237002E0FB1D01221A70FB1D1B78181CBD4603B090BDC046640800206608002023
:405E8000680800206A0800206C0800207C0800207008002080B500AF012000F03BFD00F0A9FD00F03DFC0A4B00221A80094B00221A80094B00221A80084B00221A80084B71
:405EC00000221A70074B00221A70BD4680BDC0466408002066080020680800206A0800206C0800207C08002080B500AFFFF72CFEFFF78CFF031C002B02D0024B01221A70A3
:405F0000BD4680BD0C2E002080B500AF094B1B78DBB25A1E9341DBB201225340DBB21A1C01231340DAB2034B1A7000F009FCBD4680BDC0468008002080B500AF00F05AFA37
:405F40000D4B181C00F068FA0C4B181C00F0BEFD0B4B181C00F0E0F90A4B181C00F082F9094B181CFEF720FBFFF7AAFE62B6FFF73BFDBD4680BDC046F9030000C105000042
:405F8000095F0000315B0000E95E000080B500AFFFF7D2FF06F051F8214B1B78DBB2002B02D0FFF789FC3AE01E4B1B7801225340DBB2002B08D01C4B1B68002B04D01A4B0E
:405FC0001B68181C05F03AFF184B1B78DBB2002B02D0FEF799F908E0154B1B7801225340DBB2002B01D0FEF781FF00F0B1FA021C104B196880231B020B4001D0012300E0B1
:406000000023D318002B0AD1064B1B7801225340DBB2002B03D0002001F0A4F9BAE7B9E78008002039080020840800201C0800203A0800200802244080B500AFFEE7C046A0
:4060400080B584B000AF7860104B1A687B68D3181A1C0F4BD21A8023DB009A4209DC0B4B1B68FB60094B1A687B68D218074B1A6007E005F0B7FE031C0C221A6001235B420E
:40608000FB60FB68181CBD4604B080BDDC0000202831002080B586B000AF224B7B61224B3B61204B7B6135E03B691B68FB603B695B68BB603B699B683B6000237B600CE08D
:4060C000FB681A68BB681A60BB680433BB60FB680433FB607B6804337B607A683B689A42EED13B69DB683B6000237B6008E0BB6800221A60BB680433BB607B6804337B600E
:406100007A683B689A42F2D13B6910333B617B69013B7B617B69002BC6D105F069FEFFF735FFFEE701000000E0DA010080B582B000AF154B144A126801218A431A60002315
:406140007B600FE07B68032B04D8104B7A689200D35800E00E4B0F4A796889008B507B6801337B607B682F2BECD9FAF735F80A4B00221A60044B044A126801210A431A6094
:40618000BD4602B080BDC04600001040000000003960000000000020C000002080B582B000AF786039607A683B68101C00211A1C05F066FEBD4602B080BDC04680B586B0B3
:4061C00000AF7860396000233B6100237B612EE07B699B007A68D3181B68BB603B1C0F33BA681A70BB68FF229343BB6017E03B695B003A68D3181B781A1CBB68D3183A6952
:40620000520039688A1852781A703B6901333B613B1C0F331A783B1C0F33013A1A703B1C0F331B78002BE2D17B6901337B617B69002BCDD0BD4606B080BDC04680B500AFEE
:40624000054B03221A60054B03221A60044B00221A60BD4680BDC0463000304030003140000E3F4080B582B000AF786000F04AF87B68181C00F008F8032000F011F800F00E
:4062800037F8BD4602B080BD80B582B000AF7860024B7A689A64BD4602B080BD0000002090B585B000AF021CFB1D1A701623FB603C1C0B3404F0D5FD031C23700A4B0A4A5B
:4062C00011680A4A1140FA1D1078FA68041C9440221C0A431A603B1C0B331B78181C04F0C4FDBD4605B090BD00E400E0FFFF3FFF80B500AF024B04221A60BD4680BDC04659
:4063000000E100E080B500AF024B04221A60BD4680BDC04680E100E080B582B000AF786000F048F87B68181C00F008F8032000F011F800F035F8BD4602B080BD80B582B08D
:4063400000AF7860024B7A68DA64BD4602B080BD0000002090B585B000AF021CFB1D1A701E23FB603C1C0B3404F07BFD031C23700A4B0A4A126892009108FA1D1078FA688E
:40638000041C9440221C0A431A603B1C0B331B78181C04F06AFDBD4605B090BD00E400E080B500AF024B08221A60BD4680BDC04600E100E080B500AF024B08221A60BD46B0
:4063C00080BDC04680E100E080B500AF00F0EEF8BD4680BD80B500AF054B054A1268802109060A431A6000F023F8BD4680BDC0460000244080B500AF064B1B78002B04D12E
:40640000FFF7E2FF034B01221A70FFF7E3FFBD4680BDC0468808002080B582B000AF7860024B7A681A60BD4602B080BD8C08002080B500AF092005F031F8BD4680BDC0460E
:4064400080B582B000AF00237B60044B1B687B607B68181CBD4602B080BDC0464003244080B582B000AF054B1A681F2313407B607B68181CBD4602B080BDC04608032440CF
:4064800080B584B000AF78601D4B1B680133FB60FA6880239B009A4202D10023FB60FFE7C046184B1B68FA689A42FAD0144B1A68144B1B689A4209D1134B1A681F231340DD
:4064C000102B03D0114B7A681A6015E0104B02221A607B68DAB20F49FB68CB181A70084BFA681A600223BB600B4B1B68BA681343BB60094BBA681A60BD4604B080BDC0468C
:40650000142E0020102E00200802244040022440800F2440182E0020880F244080B584B000AF786039600023FB6009E07A68FB68D3181B78181CFFF7A3FFFB680133FB60C2
:40654000FA683B689A42F1D3BD4604B080BDC04680B582B000AF0D4B1B683B600C4B1A683B689A4205D30A4B1A683B68D31A7B6007E0074B1A683B68D31A802292009B184C
:406580007B607B68181CBD4602B080BD102E0020142E002080B500AF00F088F8BD4680BD80B500AF00F098F8BD4680BD80B500AF274B284A1A60284B00221A60274B012219
:4065C0001A60274B274A1A60274B07221A60274B00221A60264B01221A60264B264A1A60264B00221A60264B04221A60092004F06BFF0920032104F0FDFE224B0920191C8C
:4066000004F0D2FE012004F05FFF0120032104F0F1FE1D4B0120191C04F0C6FE1B4B00221A601B4B00221A601A4B00221A601A4B00221A60194B04221A60194B00221A607B
:40664000184B00221A60184B00221A60BD4680BD000024400F080002400024404800244000032440070200800403244010032440440024400002244007000080040224403E
:406680005000244045B60000E9660000880E2440C80E2440480F2440080F2440C80F2440880F2440142E0020102E002080B500AF084B084A1268802189010A431A6004F093
:4066C000AFFB012004F016FF012004F0E7FEBD4680BDC0464800244080B500AF012004F0F3FEBD4680BDC04680B500AF04F098FBBD4680BD80B582B000AF7860C046064BBA
:406700001B68002BFBDB044B7A68120203490A431A60BD4602B080BD000001404100008080B500AFC046044B1B68002BFBDB024B024A1A60BD4680BD0000014041000040B7
:4067400080B582B000AF094B1B68D9B2FB1D04220A401A70054BFA1D12781A60FB1D1B789B08DBB2181CBD4602B080BD1003044080B582B000AF094B1B68D9B2FB1D4022DA
:406780000A401A70054BFA1D12781A60FB1D1B789B09DBB2181CBD4602B080BD1002044080B500AF084B812292041A60074B0C221A60012000F08CF8092000F05DF800203B
:4067C00000F04CF8BD4680BD000120402401204090B583B000AFFC1D04F043FB031C2370084B084A126801210A431A60FB1D1B78181C04F03AFB0120182100F04BF8BD467B
:4068000003B090BD0000204080B500AF064B1B78002B04D1FFF7C4FF034B01221A70FFF7D7FFBD4680BDC0469008002090B583B000AFFC1D04F015FB031C2370064B064A1B
:40684000126801218A431A60FB1D1B78181C04F00CFBBD4603B090BD0000204080B582B000AF7860034B7A681204120C1A60BD4602B080BD0801204080B582B000AF7860E3
:40688000034B7A681204120C1A60BD4602B080BD1401204090B585B000AF786039603C1C0F3404F0DEFA031C2370084B3A687968081C9040021C1A603B1C0F331B78181C1E
:4068C00004F0D3FABD4605B090BDC0460800204080B582B000AF7860024B7A681A60BD4602B080BD3801204080B500AF024B1B68181CBD4680BDC0463001204080B582B01C
:4069000000AF7860024B7A681A60BD4602B080BD3001204080B582B000AF021CFB1D1A70064B064A1168064A1140FA1D127852020A431A60BD4602B080BDC0460803044010
:40694000FFF1FFFF80B500AF0F4BC422D2041A600D4B0D4A12681A60012000F063F80B4B0C221A60002000F0A5F8094B3F221A60084B181C00F064F8FA239B00181C00F01D
:406980006DF8BD4680BDC046400120406401204068012040FF7F000090B583B000AFFC1D04F05FFA031C2370084B084A126802210A431A60FB1D1B78181C04F056FA0220F2
:4069C000182100F059F8BD4603B090BD0000204080B500AF064B1B78002B04D1FFF7B2FF034B01221A70FFF7D7FFBD4680BDC0469108002090B583B000AFFC1D04F031FA26
:406A0000031C2370064B064A126802218A431A60FB1D1B78181C04F028FABD4603B090BD0000204080B582B000AF7860034B7A681204120C1A60BD4602B080BD4801204060
:406A400080B582B000AF7860034B7A681204120C1A60BD4602B080BD5401204080B582B000AF7860034B7A681204120C1A60BD4602B080BD4C01204090B585B000AF786037
:406A800039603C1C0F3404F0ECF9031C2370084B3A687968081C9040021C1A603B1C0F331B78181C04F0E1F9BD4605B090BDC0460800204080B582B000AF7860024B7A68F7
:406AC0001A60BD4602B080BD7801204080B582B000AF786000F058F87B68181C00F014F8032000F01FF800F045F8BD4602B080BD80B500AF00F048F8024B181C00F004F846
:406B0000BD4680BD3960000080B582B000AF7860034A84237968D150BD4602B080BDC0460000002090B585B000AF021CFB1D1A700E23FB603C1C0B3404F093F9031C237042
:406B40000A4B0A4A11680A4A1140FA1D1078FA68041C9440221C0A431A603B1C0B331B78181C04F082F9BD4605B090BD10E400E0FF3FFFFF80B500AF024B802292021A6093
:406B8000BD4680BD00E100E080B500AF024B802292021A60BD4680BD80E100E080B500AF024B802292021A60BD4680BD80E200E080B584B000AF021CFB1D1A700E4B1B685B
:406BC000DAB23B1C0F3304218A431A70FB1D1B789B00DAB204231340D9B23B1C0F333A1C0F3212780A431A70034B3A1C0F3212781A60BD4604B080BD0000044080B500AF87
:406C0000054B181C00210C2205F03AF9034B00221A80BD4680BDC046183000209808002080B582B000AF7860024B7A681A60BD4602B080BD9408002080B582B000AF021C68
:406C40003960BB1D1A803B68DA88194B9A422CD1BB1D1A881749131C5B009B189B00CB189B88002B18D1BB1D1A883B6899881148131C5B009B189B00C3180A1C9A80BB1D99
:406C80001A883B6899780B48131C5B009B189B00C3180A1C9A7008E0074B1B683A68063286214900081C111C9847BD4602B080BD192A0000183000202830002080B582B015
:406CC00000AF021C3960BB1D1A803B689A883C4B9A4223D1BB1D1A883A49131C5B009B189B00CB1808331B88002B0DD1BB1D1A883B6859883348131C5B009B189B00C318D5
:406D000008330A1C1A8058E02F4B1B683A68043286214900081C111C98474EE03B689A882A4B9A4221D1BB1D1A882649131C5B009B189B00CB18DB88002B0CD1BB1D1A886C
:406D40003B6859881F48131C5B009B189B00C3180A1CDA8031E01C4B1B683A68043286214900081C111C984727E03B689A88184B9A4222D1BB1D1A881249131C5B009B18F2
:406D80009B00CB1808335B88002B0DD1BB1D1A883B6859880B48131C5B009B189B00C31808330A1C5A8008E0074B1B683A68043286214900081C111C9847BD4602B080BD48
:406DC000022900001830002028300020042900000829000090B587B000AF3C1D2080081C111C1A1CFB1C1870BB1C19707B1C1A702B4B1B78052B05D03B1C163383225200BA
:406E00001A8046E0FB1C1B78002B07D1BB1C1B78002B03D17B1C1B78012B04D93B1C163301221A8035E07B1C1B78002B04D03B1C163302221A802CE0FB1C1A781949131C0A
:406E40005B009B189B00CB1808331A883B1C08331A813B1C0833FA6A1A603B1C28331B789AB23B1C08339A803C1C16343B1D3A1C08321868111C10F047FC031C23803B1C3C
:406E800016331B88002B04D13B1C08331A89064B1A803B1C16331B88181CBD4607B090BD49300020183000209808002080B586B000AF7860254B1B68002B44D03B1C1733C2
:406EC00000221A703AE03B1C17331A782049131C5B009B189B00CB189A887B689B899A4225D13B1C0C337A6812881A803B1C0C333A1C173212789A703B1C0C330022DA7003
:406F00007B681A1D3B1C0C335A60104B1B688E2251003A1C0C32081C111C98470D4B1B78DBB201229343DAB20A4B1A700BE03B1C17331A783B1C173301321A703B1C17334B
:406F40001B78002BBFD0BD4606B080BD94080020183000207830002080B588B000AF78603B1C1E3300221A705E4B1B68002B00D1B5E05D4B1B88002B00D1B0E03B1C1F335D
:406F800000221A70A0E03B1C1F331A785749131C5B009B189B00CB189A88534B1B889A422DD13B1C14337A6812881A803B1C14333A1C1F3212789A703B1C14330022DA703B
:406FC0007B681A1D3B1C14335A60494B1B78DBB201229343DAB2464B1A70434B00221A80404B1B681E22111CFF313A1C1432081C111C98473B1C1E3301221A705DE03B1C21
:407000001F331A783949131C5B009B189B00CB1808331A88344B1B889A420DD03B1C1F331A783249131C5B009B189B00CB18DA882D4B1B889A4240D13B1C08337A6812888E
:407040001A803B1C08333A1C1F3212789A703B1C08330022DA703B1C1F331A782349131C5B009B189B00CB1808331A881E4B1B88D31A5A1E9341DBB21A1C3B1C08331A7147
:407080007B681A1D3B1C08339A60194B1B78DBB201229343DAB2164B1A70134B00221A80104B1B688F2251003A1C0832081C111C98473B1C1E3301221A703B1C1F331A78EC
:4070C0003B1C1F3301321A703B1C1F331B78002B05D13B1C1E331B78002B00D153E7BD4608B080BD9408002098080020183000207830002080B586B000AF78602F4B1B68E9
:40710000002B57D02E4B1B88002B53D03B1C173300221A7049E03B1C17331A782949131C5B009B189B00CB1808331A88244B1B889A4233D13A1C08327B68111C1A1C0223F3
:40714000081C111C1A1C04F092FE3B1C08333A1C173212789A703B1C08330022DA703B1C083300221A713B1C083300229A60144B00221A80144B1B78DBB201229343DAB235
:40718000114B1A700D4B1B682022111CFF313A1C0832081C111C9847C0460BE03B1C17331A783B1C173301321A703B1C17331B78002BB0D0BD4606B080BDC0469408002096
:4071C00098080020183000207830002080B582B000AF78607B68002B06D0054B1B88002B02D0034B00221A80BD4602B080BDC0469808002080B500AF1A4B00221A701A4BC1
:4072000000221A70194B00221A70194B5A88194B1A80174B9A88174B5A80154B9A79154B1A73134BDA79134B1A71124B0622DA81104B08221A820F4B00225A820D4B32228F
