:400000000040002011000000011A0000011A000080B500AF01F0F8FC80B500AF2B4B12221A6004F0C9FB2A4B181C04F099FA012004F0D2FB102004F0A3FA264B264A1A6062
:40004000264B8022D2051A60254B254A126802210A431A60234B244A1A60244B234A126808218A431A60FA23DB00181C04F0D4FA1F4B181C04F044FB1E4B1F4A1A601F4B48
:400080001F4A1A601F4B9F2212021A601B4B1E4A1A601E4B8822D2011A60184B1C4A1A601C4B802212061A601B4B42221A601B4B41221A601A4B40221A60084B8022D2058A
:4000C0001A60024B00221A60BD4680BD30001040001BB70004010B40060000800C020B4078002E407C002E402D3E00006CF02E40DC05000008030140007F3E0000000140AC
:4001000042FF00800403014041FF00800003014040FF008008010B4038010140300101400401014080B582B000AF72B6564B00221A60564B01221A70FB1D00221A7023E0DD
:40014000FB1D1A78131C5B009B185B00504A9B183B603B681A78597809020A43997809040A43DB781B061343191C3B681A795B791B0213439BB2081C191C01F0C9FCFB1D9C
:400180001A78FB1D01321A70FB1D1B78012BD7D9404A414B101C191C01F0CAFC3F4BA02212011A803E4B01221A703E4BEE2212061A603D4B992212041A603C4BC0229204F7
:4001C0001A603B4BCC2292051A603A4B992212041A60394B992212041A60384B384A1A60384B802212061A60374B802252051A60364B992212041A60354B802252051A6077
:40020000344B02221A60344B02221A60334A334B1B78DBB202210B43DBB21370304A304B1B78DBB23C218B43DBB214210B43DBB213702A4A294B1B78DBB216210B43DBB26E
:400240001370284BD82212041A60274B20221A60264BC42292021A60254B20221A60254BC0221A60244B8822D2031A60234BC0221A60234B902292031A60FFF7CDFE01F060
:4002800097FCBD4602B080BD6CF02E401C700F40E86E0100F46E0100186F010000600F4002600F400000024000010240000202400003024000500F4010500F4020500F4057
:4002C0000400990024500F4028500F4030500F4038500F402000104000800F4000700F4001700F40080004400001044008010440180104400002044008020440000304405D
:400300000803044010B5064C2378002B07D1054B002B02D0044800E000BF0123237010BD1005002000000000B467010008B5084B002B03D00748084900E000BF07480368A5
:40034000002B00D108BD064B002BFBD09847F9E700000000B467010014050020C80000200000000080B582B000AF00F03DF804F0C7FD00F073FF01F067F801F0B9F801F041
:4003800037FA134ABB1D101C191C03F005F9114B1B78022B1AD1BB1D1A888023DB0013409BB2002B12D10C4B181C03F0EFFF202004F006F801F0E0FC084B181C01F06AFC8F
:4003C000074B01221A70074B01221A70CFE7C0461C112E40A21F002000680100E50800002C050020E400002080B586B000AF62B65C4B181C01F04EFC03F026FD03F00EFEBF
:40040000FF2003F0A3FDFF2003F0B0FDFF2003F087FE062003F0BAFD062003F0CFFD062003F0E4FD504B181C00F020FA802003F077FE142004F040F9FF2003F071FE4B4BAC
:400440009B684B4A111C1A1C2023081C111C1A1C04F041FD454B9B68DB7F1C2B15D8434B9B68DB7F1A1C424B012199543F4B9B68DB7F01333F4A11783D4AD1543B4B9B6845
:40048000DB7F0233DAB23A4BDA77384B384A9A60394B7B617B695A1C7A611A781023FB181A707B691A781023FB185A701023FB181B78FF2B04D11023FB185B78FF2B3BD0A9
:4004C0001023FB181B78002B04D11023FB185B78002B31D01023FB185B781B029AB21023FB181B789BB213439BB29AB2234B1A801F4B54225A711E4B69229A711C4B742298
:40050000DA711B4B61221A72194B6E225A72174B174A9A603B1D15221A813B1D02229A803B1D1022BA181A603A1D154B101C00211A1C002311F0DCFA03F0AEFF114B181C84
:4005400003F050FF03F086FE202003F039FF0E4B181C03F01BFF202003F032FFBD4606B080BDC046E5080000CC0C00003C01002070140020CC00002080F2FF0F30050020D6
:40058000B01F0020E91900003468010080B584B000AF78600A1CFB1C1A70FB1C1B78042B50D17B681B781A1C7B6803331B785343181CFF2104F068FB031C1A1C0F23FB18C9
:4005C0001A707B6801331B781A1C7B6803331B785343181CFF2104F057FB031C1A1C0E23FB181A707B6802331B781A1C7B6803331B785343181CFF2104F046FB031C1A1C91
:400600000D23FB181A700F23FB181B78DB43DBB2181C03F09BFC0E23FB181B78DB43DBB2181C03F0A3FC0D23FB181B78DB43DBB2181C03F075FD054B181C03F0A7FE2020EE
:4006400003F0BEFEBD4604B080BDC0468868010080B582B000AF021CFB1D1A70FB1D1B78062B27D89A00194BD3181B689F46184B181C03F08BFE22E0164B181C03F086FEBD
:400680001DE0154B181C03F081FE18E0134B181C03F07CFE13E0124B181C03F077FE0EE0104B181C03F072FE09E00F4B181C03F06DFE04E00D4B181C03F068FEC046202090
:4006C00003F07EFEBD4602B080BDC046C069010098680100BC680100E46801000869010030690100546901007C690100A469010090B585B000AF021CFB1D1A70FB1D1B78A4
:40070000181C0A2104F0B6FA0B1CDAB20C23FB181A70FC1DFB1D1B78181C0A2104F024FA031C2370FB1D1B78181C0A2104F0A2FA0B1CDAB20C23FB185A70FC1DFB1D1B7833
:40074000181C0A2104F010FA031C2370FB1D1B78181C0A2104F08EFA0B1CDAB20C23FB189A700C23FB189B78002B1BD10C23FB185B78002B07D10C23FB181B783033181CF5
:4007800003F084FD23E00C23FB185B783033181C03F07CFD0C23FB181B783033181C03F075FD14E00C23FB189B783033181C03F06DFD0C23FB185B783033181C03F066FD9A
:4007C0000C23FB181B783033181C03F05FFDBD4605B090BD80B584B000AF021CFB1D1A70FB1D1B780F221340DAB20C23FB181A70FB1DFA1D127812091A70FB1D1B780F22A0
:400800001340DAB20C23FB185A70174B181C03F0BDFD0C23FB185B78092B07D80C23FB185B783033181C03F031FD06E00C23FB185B783733181C03F029FD0C23FB181B780E
:40084000092B07D80C23FB181B783033181C03F01DFD06E00C23FB181B783733181C03F015FDBD4604B080BDDC69010080B582B000AF786003F0FAFF0020012104F034F818
:400880000020012104F05CF87B680020191C04F0BDF85A2003F034FF012004F087F803F0BBFF034B181C03F05BFCBD4602B080BDB508000080B500AF03F0AAFC04F0EEF81A
:4008C000021C0423134009D0042004F0F5F8044B1B889BB201339AB2014B1A80BD4680BD6C14002090B59BB000AF786039607B682B2B00D19DE012D8262B65D006D8012B4C
:4009000027D0202B00D16CE200F08EFC272B00D151E3282B01D100F03DFC00F085FC4C2B00D1ABE007D8412B00D195E0422B00D19BE000F079FC4E2B00D119E201D200F03C
:4009400003FC1222FF32934201D100F06CFC00F06BFCE04B181C03F019FD202003F030FDDD4B1B78002B0FD16623FC18002001F00FFA031C23806623FB181B88002B1ED15D
:40098000D64B01221A701AE06623FC18002001F0ADFA031C23806623FB181B88002B0ED1CF4B181C03F0F2FC202003F009FDCD4B1B889AB2CC4B1A80C84B02221A70C64B1D
:4009C00000221A7000F030FCC84B181C03F0DEFC3B681B78181CFFF7FDFEC54B1B78181CFFF736FE202003F0EBFCC14B1B78062B1DD1C04B1B78002B19D16623FC18002077
:400A000001F0C6F9031C23806623FB181B88002B0DD1B94B181C03F0B9FCB54B1B78181CFFF716FE202003F0CBFC00F0FDFB00F0FBFBB24B181C03F0A9FC3B681B78181C50
:400A4000FFF7C8FEAA4B1B78181CFFF701FE202003F0B6FC00F0E8FBA94B181C03F096FC202003F0ADFC00F0DFFBA64B181C03F08DFC202003F0A4FC00F0D6FB5423FB183F
:400A80003A6813CA13C312681A605423FB189B89152B60D15423FB181B89022B4FD19A4B181C03F073FC5423FB185B6801331B781B029AB25423FB185B681B789BB21343D8
:400AC0009BB29AB2914B1A80904B1B88002B04D08E4B1B888E4A93420FD15423FB189B891220191C042200F05BFD8A4B181C03F04DFC864B00221A8096E3844B1B88181CED
:400B000000F01EFE5423FB181A1D834B101C00211A1C002310F0ECFF202003F051FC7F4B54225A717D4B69229A717C4B7422DA717A4B61221A72794B6E225A720BE05423A2
:400B4000FB189B891220191C0D2200F029FD6F4B00221A8068E35423FB189B890E2B00D0F7E06A4B1B88002B00D1E9E05423FB181B89082B00D0A4E0694B181C03F006FC94
:400B8000202003F01DFC5423FB185B681A78654B1A705423FB185B6803331B781B029AB25423FB185B6802331B789BB213439BB29AB25D4B1A805423FB185B681A795B4B38
:400BC0001A705423FB185B685A79584B5A705423FB185B689A79554B9A705423FB185B68DA79524BDA705423FB185B681B78012B25D14D4B1B881A1C444B1B885A40FF23EC
:400C00001B02134040D1494B181C0421FFF7BEFC5423FB181A1D404B101C00211A1C002310F066FF424B181C03F0B0FB304B1B78181CFFF70DFD202003F0C2FB24E03A4B25
:400C40001A88324B1B889A4203D0374B1B88002B1AD1364B181C0421FFF798FC5423FB181A1D2D4B101C00211A1C002310F040FF2F4B181C03F08AFB1D4B1B78181CFFF7FB
:400C8000E7FC202003F09CFB2A4B1B780133DAB2284B1A70284B181C03F078FB254B1B78181CFFF725FD202003F08AFB114B01221A70224B181C03F069FB202003F080FBFF
:400CC00047E05423FB189B891220191C0D2200F067FCA9E2E06901002C050020E4000020F46901006C14002038050020146A0100A21F00202E050020406A0100586A010090
:400D00007C6A0100986A0100B86A010030050020FFFF0000D06A0100B01F002070140020E86A01003A0500203C050020A0140020086B0100CC000020186B0100586B0100F6
:400D40005423FB189B891220191C112200F028FC6AE2E64B1A785B781B021A4300231204120C1B0C1B041343181C10F08FF95BE22423FB183A6813CA13C312681A60DC4B05
:400D80001B88002B2CD02423FB189B89112B27D12423FB181B89012B22D12423FB185B681A78D44B1A70D34B1B78013BDAB2D14B1A702423FB181A1DCC4B101C00211A1CF8
:400DC000002310F095FECC4B181C03F0DFFAC94B1B78181CFFF78CFC202003F0F1FA23E222E2C64B1B78022B00D1E3E03423FB183A6813CA13C303CA03C3C14B181C03F0BC
:400E0000C5FA202003F0DCFA3423FB181B78002B61D13423FB181A7ABA4BDB7F9A425AD13423FB18DA683423FB181B7A023BD3181B78012B4FD13423FB18DA683423FB1864
:400E40001B7A013BD3181A78AA4B1B789A420ED33423FB18DA683423FB181B7A013BD3181B78FF2B1FD1A34B1B78002B1BD1A64B01221A703423FB185B68A44A111C1A1CAC
:400E80000623081C111C1A1C04F025F83423FB185A789F4B1A709F4B181C03F077FA202003F08EFA17E0984B00221A70984B00221A70964B00221A70944B00225A70934B39
:400EC00000229A70914B0022DA70904B00221A718E4B00225A713423FB181B78042B69D13423FB181B7A142B64D1874B1B78002B60D03423FB185A68844B101C191C062213
:400F000003F0DAFF031E55D13423FB185A78804B1B789A424ED13423FB18DA683423FB181B7A1C1C7C4B101C191C221C03F0C4FF031E3FD1794B181C03F028FA202003F099
:400F40003FFA01F025F8764B181C03F01FFA202003F036FA3423FB185A78724B9A713423FB185B681A786F4B1A703423FB185B685A786C4B5A703423FB185B689A78694B4C
:400F80009A703423FB185B68DA78664BDA703423FB185B681A79634B1A713423FB185B685A79604B5A71604B01221A70564B00221A7039E138E15D4B181C03F0E7F94B4B21
:400FC0001A781023FB18101C191C0EF007FC1023FB181B78181CFFF7FDFB1023FB185B78181CFFF7F7FB1023FB189B78181CFFF7F1FB202003F0E4F94D4B1B78022B73D16C
:401000004C4B01221A704C4B181C03F0BFF93B4B1B78181CFFF71CFB202003F0D1F94823FB1811221A814823FB18324A1A604823FB1801229A802D4B4822B9181A785B780C
:401040001B021A4300231204120C1B0C1B041343181C0FF0F3FC394B1A780823FB181A700823FB1800225A70354B1B88DAB20823FB189A70324B1B881B0A9BB2DAB2082399
:40108000FB18DA702F4B1A780823FB181A712D4B5A780823FB185A712A4B9A780823FB189A71284BDA780823FB18DA711823FB180E221A811823FB180822BA181A60182375
:4010C000FB1808229A80094B1822B9181A785B781B021A4300231204120C1B0C1B041343181C0FF0A1FC9FE09EE0C046B01F002030050020CC000020706B0100A21F0020A8
:40110000A86B010070140020320500209814002033050020D06B0100D0000020E86B0100F86B010090140020340500200C6C0100E400002035050020306C01003A050020A8
:401140003C050020A0140020394B181C03F01EF9384B1B78181CFFF77BFA202003F030F9354B1B78002B14D0334B1B78181C0EF0D5FA324B01221A70314B181C03F006F967
:401180002C4B1B78181CFFF763FA202003F018F94AE049E02B4B00221A702B4B181C03F0F5F8244B1B78181CFFF752FA202003F007F9264B1B78012B18D1254B1B78012B68
:4011C00014D01C4B1B78062B0FD1002000F0E0FD204B181C03F0DAF8164B1B78181CFFF737FA202003F0ECF81CE01BE0174B1B78022B17D1164B1B78012B13D00D4B1B785A
:40120000062B0FD1002000F071FE134B181C03F0BDF8084B1B78181CFFF71AFA202003F0CFF801E000E0C046BD461BB090BDC046586C0100A21F0020B01F002036050020EE
:40124000746C010035050020986C0100E40000202E050020406A0100BC6C010090B583B000AF674B1B78012B00D0C6E003F048FE644B1B78002B12D0624B1B78181C0EF0FB
:401280004DFA03F03DFE604B181C03F07FF85F4B1B78181CFFF7DCF9202003F091F85C4B1B78012B02D0022B4CD0A6E0574B1B78032B0FD100F0DAFD03F022FE554B181C80
:4012C00003F064F8514B1B78181CFFF7C1F9202003F076F84D4B1B78062B30D1BC1D002000F004FE031C2380BB1D1B88002B17D1494B181C03F04AF8444B1B78181CFFF70A
:40130000A7F9202003F05CF8444B1B889AB2444B1A803F4B02221A70394B00221A700EE03B4B01221A703F4B181C03F02FF8374B1B78181CFFF78CF9202003F041F803F05B
:40134000DFFD5AE0314B1B78042B0AD100F020FE03F0D6FD344B181C03F018F8202003F02FF82A4B1B78062B44D1304BDB7F013B2F4A11782D4AD1542E4B2C4A9A602E4BFB
:40138000181C03F003F82A4B1B78181CFFF7B0F9202003F015F8BC1D002000F0F9FC031C2380BB1D1B88002B15D1194B01221A70224B00221A70124B00221A70204B181CF2
:4013C00002F0E4FF114B1B78181CFFF741F9202002F0F6FF0EE00E4B02221A70194B181C02F0D4FF094B1B78181CFFF731F9202002F0E6FF03F084FDC046BD4603B090BD7D
:401400002E050020B01F0020D06C0100A21F0020E4000020F06C0100146D01006C140020380500202C6D0100446D010070140020CC0000203C0100205C6D01003405002010
:40144000706D0100906D010090B583B000AF234B1B78DBB2002B3DD003F052FD204B1B78062B37D11D4B00221A70BC1D1D4B181C00F09EFD031C2380BB1D1B88002B0CD0D2
:40148000194B181C02F082FF154B1B78181CFFF7DFF8202002F094FF1AE0144B181C02F075FF104B1B78181CFFF794F90D4B5B78181CFFF78FF90B4B9B78181CFFF78AF9DD
:4014C000074B1B78181CFFF7C3F8202002F078FF03F016FDBD4603B090BDC04634050020A21F002090140020B86D0100D06D010080B500AF224B1B78022B1CD1214B1B88FB
:401500009BB21A1C204B1B889BB2D31A1E2B12DD1E4B1B78062B03D01C4B1B78042B0AD11B4B01221A701B4B181C02F02FFF202002F046FF22E0184B1B78002B1ED003F05C
:40154000DFFC134B1B78012B15D0104B1B78062B14D1114B00221A7003F0D2FC0F4B181C02F014FF202002F02BFF002000F0BEFC03F0C6FC02E0084B00221A70BD4680BD32
:40158000E40000206C14002038050020A21F00202E050020E86D010036050020106E010090B585B000AF041C081C111CFB1D221C1A703B1D021C1A80BB1D0A1C1A700C2385
:4015C000FB18FA1D12789A700C23FB183A1D12881A800C23FB18BA1D1278DA70094B0C22B9181A785B781B021A4300231204120C1B0C1B041343181C0FF0E2FCBD4605B085
:4016000090BDC046B01F002080B5ACB000AF021C3960FB1D1A700023A822BA1813603A4B1B68FB61394B1B68BB61394B1B687B61384B1B683B61384B1B68FB60374B1B682B
:40164000BB60374B374A1A60374B384A1A602023FB18374A1A602023FB187F225A60AF23FB1800221A7015E0AF23FB181B789A1CAF23FB181B789B003968CB181968202343
:40168000FB189200D150AF23FB181A78AF23FB1801321A70AF23FB181B781F2BE4D9204B2022BA181A60204B224A1A602023FB18214A1A60FB1D1A782023FB185A60184B2A
:4016C0002022BA181A60184B1C4A1A60144B1B68A822BA1813600C4BFA691A600B4BBA691A600B4B7A691A600A4B3A691A600A4BFA681A60094BBA681A60A823FB181B685A
:40170000181CBD462CB080BD00010B4008010B401CFF0B4020FF0B4028FF0B402CFF0B4008001040B6E800000400104015000080B6D7000004000080B6EB000018000080D8
:4017400080B5A6B000AF021CBB1D1A80254B9422BA1813609223FB1800221A8015E09223FB181A889423FB181B68191D94203818016019680C23FB189200D1509223FB182B
:401780001A889223FB1801321A809223FB181B881F2BE4D9BB1D1A880C23FB181A600C23FB180120191CFFF72FFF031C8C22BA1813608C23FB181A68A0231B069A4207D1A0
:4017C000094B181C02F0E2FD202002F0F9FD06E0064B181C02F0DAFD202002F0F1FDBD4626B080BD80F2FF0F386E0100606E010080B500AF0C4B1B78012B13D10B4B1B7841
:40180000012B0CD10A4B1B78032B08D1094B181C02F0BCFD202002F0D3FD00F00DF8024B00221A70BD4680BD3E050020E4000020A21F0020886E010080B582B000AF634B4A
:401840001B78082B00D984E09A00614BD3181B689F46FB1DFF221A70BB1D00221A707B1D00221A703B1DFF221A70584B02221A707FE0FB1D00221A70BB1DFF221A707B1DAF
:4018800000221A703B1DFF221A70504B03221A706FE0FB1D00221A70BB1D00221A707B1DFF221A703B1DFF221A70484B04221A705FE0FB1DFF221A70BB1DFF221A707B1DF2
:4018C00000221A703B1DFF221A70404B05221A704FE0FB1D00221A70BB1DFF221A707B1DFF221A703B1DFF221A70384B06221A703FE0FB1DFF221A70BB1D00221A707B1D0E
:40190000FF221A703B1DFF221A70304B07221A702FE0FB1DFF221A70BB1DFF221A707B1DFF221A703B1DFF221A70284B08221A701FE0FB1DFF221A70BB1DFF221A707B1D2C
:40194000FF221A703B1D22221A70204B01221A700FE0FB1DFF221A70BB1D00221A707B1D00221A703B1DFF221A70184B01221A70C046184BFA1D12781A70164BBA1D12789B
:401980005A70144B7A1D12789A70124B3A1D1278DA70104B181C0421FEF7F8FD0E4B1B780133DAB20C4B1A700C4B01221A700C4B181C02F0EBFC0B4B1B78181CFEF748FE60
:4019C000202002F0FDFCBD4602B080BDE8000020C46E0100A0140020CC0000202E0500209C6E0100A21F002080B500AF02F054FD024B01221A70BD4680BDC0463E050020C6
:401A000080B500AFFEE7C04680B586B000AF224B7B61224B3B61204B7B6135E03B691B68FB603B695B68BB603B699B683B6000237B600CE0FB681A68BB681A60BB68043303
:401A4000BB60FB680433FB607B6804337B607A683B689A42EED13B69DB683B6000237B6008E0BB6800221A60BB680433BB607B6804337B607A683B689A42F2D13B691033A5
:401A80003B617B69013B7B617B69002BC6D103F0EDF9FEF767FCFEE7010000002C77010080B582B000AF154B144A126801218A431A6000237B600FE07B68032B04D8104B41
:401AC0007A689200D35800E00E4B0F4A796889008B507B6801337B607B682F2BECD9FEF721FB0A4B00221A60044B044A126801210A431A60BD4602B080BDC0460000104032
:401B000000000000011A000000000020C000002080B582B000AF786039607A683B68101C00211A1C03F0E0F9BD4602B080BDC04680B586B000AF7860396000233B610023CA
:401B40007B612FE07B699B007A68D3181B68BB600F23FB18BA681A70BB68FF229343BB6018E03B695B003A68D3181B781A1CBB68D318191C3B695B003A68D3185B780B7000
:401B80003B6901333B610F23FB181A780F23FB18013A1A700F23FB181B78002BE1D17B6901337B617B69082BCCD9BD4606B080BD80B500AF054B03221A60054B03221A60B3
:401BC000044B00221A60BD4680BDC0463000304030003140000E3F4080B500AF1B4B00221A701B4B00221A701A4B00221A701A4B00221A70194B5A88194B1A80174B9A88F4
:401C0000174B5A80154B9A79154B1A73134BDA79134B1A71124B0722DA81114B09221A820F4B00225A820E4B962292009A820C4B0022DA820A4B012252421A83094B1E2241
:401C40001A8000F011F8BD4680BDC046C11F0020AC1F0020BF1F0020BE1F002050010020841F00209E1F002080B500AF074B181C00210A2203F038F9054B181C00210622EC
:401C800003F032F901F06EFDBD4680BDB41F0020A41F0020F0B58FB004AF78602623FB1800221A800C23FA18294B111C1A1C1823081C111C1A1C03F00EF9264B1B78002B0A
:401CC00004D1FFF789FF234B01221A707B68002B33D02623FB181B88002B32D12623FC181D491E4A1E4E0C23FD18062300931D4B01936E23FF330293081C111C321C2B1C67
:401D000003F026F9031C2380174B7A681A602623FB181B88002B14D1144B01221A70144B08221A702623FC18124B181C16211A220FF0C6FE031C238003E02623FB1801229B
:401D40001A802623FB181B88181CBD460BB0F0BDF07101003F05002089250000B0140020D40A0000007E0100A8140020A21F0020A31F0020D872010080B500AF03F0D6F8E7
:401D8000024B00221A70BD4680BDC046A21F002090B585B000AF021CFB1D1A70FB1D1B78022B04D90E23FB1801221A804DE02A4B1B78062B44D1294B1B78DBB21A1C0423F8
:401DC00013403DD1FB1D1B78002B0DD1244B254A1A82234B5B68902252001A80204B5B68A02252005A8010E0FB1D1B78012B0CD11B4B96221A821A4B5B68C822D2001A808D
:401E0000174B5B688022D2015A80174BFA1D12781A700E23FC18124B181C0DF0F9FE031C23800E23FB181B88002B08D10B4B1B78DBB204221343DAB2084B1A7005E004E006
:401E40000E23FB180422FF321A800E23FB181B88181CBD4605B090BDA21F0020C11F00203C010020E8FDFFFFBF1F002080B500AF0DF018FF044B1B78DBB208221343DAB27B
:401E8000014B1A70BD4680BDC11F002080B584B000AF78600A1CFB1C1A700023BB60BB68002B20D07B689A79BB681A700F23FB1800221A7012E00F23FB181B780133BA6825
:401EC000D3180F22BA18127879688A5C1A700F23FB181A780F23FB1801321A700F23FB181B78052BE7D9BD4604B080BD90B585B000AF021CFB1D1A70FB1D1B78022B04D9E6
:401F00000E23FB1801221A8035E0FB1D1B78002B09D11C4B06221A811A4B30225A80194B20229A800EE0FB1D1B78012B0AD1154B96221A81134B802212015A80114BE122C1
:401F4000D2009A80104BFA1D12781A700E23FC180C4B181C0DF0E6FD031C23800E23FB181B88002B07D1094B1B78DBB204221343DAB2064B1A700E23FB181B88181CBD461E
:401F800005B090BD50010020BE1F0020C11F002080B500AF0DF0F4FD044B1B78DBB208221343DAB2014B1A70BD4680BDC11F002090B585B000AF7860294B1B78062B05D040
:401FC0000E23FB180422FF321A8041E07B68002B04D10E23FB1801221A8039E00D23FB1800221A7012E00D23FB181B780D22BA1812787968895C1B4AD3180A1C5A710D2315
:40200000FB181A780D23FB1801321A700D23FB181B78052BE7D97B689A79124BDA720E23FC18104B181C0DF029FD031C23800E23FB181B88002B0BD1094B05221A700A4B95
:402040001B88002B04D0084B1B88181C0AF00AFE0E23FB181B88181CBD4605B090BDC046A21F0020841F00209E1F002090B583B000AFBC1D0DF0F4FC031C2380094B1B8845
:40208000002B01D00AF008FEBB1D1B88002B02D1054B06221A70BB1D1B88181CBD4603B090BDC0469E1F0020A21F002080B582B000AF78607B681B789AB27B6801331B78D9
:4020C0009BB21B029BB213439BB2181CBD4602B080BDC04690B585B000AF78600F23FB1800221A707B689B890B22934237D17B681A1D7B680F217C18101C00211A1C4023B0
:402100000FF0F6FC031C23700F23FB181B78002B1DD17B685B68181CFFF7C8FF031C1A1C022313409BB2002B08D0104B1B68822251007A68081C111C984708E00B4B1B68B1
:402140000622FF32111C7A68081C111C9847084B1B78DBB201229343DAB2054B1A700F23FB181B78181CBD4605B090BDA8140020C11F002080B582B000AF78607B68DB88D4
:402180000D4A934214D10D4B5B88002B08D17B689A880A4B5A807B689A78084B1A7007E0074B1B687A68911D86225200101C9847BD4602B080BDC046052A0000A41F00206E
:4021C000A814002080B582B000AF78607B689B880B4A934210D10B4B9B88002B04D17B685A88084B9A8007E0074B1B687A68111D86225200101C9847BD4602B080BDC04690
:4022000002290000A41F0020A814002080B582B000AF78600C4B5A887B689B899A420FD10A4B1B68832251007A68081C111C9847074B1B78DBB201229343DAB2044B1A701A
:40224000BD4602B080BDC046A41F0020A8140020C11F002090B585B000AF78600F23FC187B68181CFFF736FF031C2370144B1B78DBB21A1C012313401FD10F23FB181B7878
:40228000002B16D00823FB1812229A707B689A890823FB181A800823FB180F22BA181278DA707B680822BA181868111C0EF088FE03E07B6818680EF0E9FEBD4605B090BD5E
:4022C000C11F002080B582B000AF7860BD4602B080BDC04680B582B000AF7860BD4602B080BDC04680B582B000AF7860BD4602B080BDC04680B582B000AF7860BD4602B089
:4023000080BDC04690B589B000AF7860394B1B78022B6BD1384B1B88002B67D00C23F918354B02229B180422081C191C02F0D3FD7B685A687B681B891C1C0C23FB18043398
:40234000181C111C221C02F0C6FD0C23FB18181C01F06EFA284B1B8801339AB20C23FB181A80264B1B78191C254A0B1C5B005B185B00D3185A880C23FB185A800C23FB18A5
:402380001A880C23FB185B889A4221D81D4B0C22B9181A785B781B021A4300231204120C1B0C1B041343181C0EF0BCFA031E12D0154B1B6884225200101C00219847134BF8
:4023C0001B78DBB202229343DAB2104B1A7002E0012000F0A3FB0D4B1B78DBB201229343DAB20A4B1A70044B00221A80BD4609B090BDC046A31F002044050020C01F002081
:4024000038020020B01F0020A8140020C11F002080B500AF094B00225A70084B00221A70074B1B78052B03D1054B07221A7002E0034B08221A70BD4680BDC046B01F00204F
:40244000A31F002080B582B000AF78607B681B78032B3ED1254B1B78DBB21A1C0223134037D0234B1B78022B10D002DC012B05D024E0032B12D0042B18D01FE01D4B1B6892
:402480000822FF32101C0021984717E0194B1B6884225200101C002198470FE0154B1B680A22FF32101C0021984707E0114B1B6885225200101C00219847C0460B4B1B785E
:4024C000DBB202229343DAB2084B1A70084B00221A707B681B78042B05D1074B1B78052B01D1FFF7C3FDBD4602B080BDC11F0020A31F0020A8140020A21F002080B500AF60
:40250000BD4680BD80B584B000AF78600E23FB1800221A707B689B79002B1CD10F23FB1800221A7012E00F23FB181B787A68D35C002B04D00E23FB1801221A700BE00F2393
:40254000FB181A780F23FB1801321A700F23FB181B78052BE7D90E23FB181B78181CBD4604B080BD80B582B000AF021CBB1D1A80BD4602B080BDC04680B582B000AF786061
:40258000BD4602B080BDC04680B584B000AF021C3960FB1D1A70D04B1B78DBB201221343DAB2CD4B1A70FB1D1B78712B00D9B1E19A00CA4BD3181B689F460C23FB180722B1
:4025C0001A700C23FB1800225A700C23FB18181C04F05FF90C23FB1807221A700C23FB1801225A700C23FB18181C04F052F9BC4B1B68181CFFF786FF031E11D0B84B1B68C7
:40260000181C02F081FCB64B1B68181C0021FFF73DFCB34B1B68181C0121FFF737FC19E0B04B1A78B04B1A70B04B1A78AE4B5A70AF4B1A78AC4B9A70AB4B181C02F064FC8B
:40264000A94B181C0021FFF721FCA74B181C0121FFF71CFC03200DF0FBF8A64B06221A7059E13B68181CFFF7EDFE54E13B681A78A14B1A704FE1984B1B78DBB21A1C202374
:40268000134015D19D4B1B78102B02D19B4B0522DA709B4B1A78994B101C191C0DF082FA974B1A78954B101C191C0CF0BFFF32E131E13B68181CFFF75FFF2CE13B68181C28
:4026C000FFF75AFF8F4B1B88002B01D00AF0E4FA884B02221A701EE1864B06221A701AE1844B1B78022B34D07B4B1B78DBB21A1C012313402DD0784B1B78DBB21A1C0423D9
:4027000013400BD07B4B03221A70734B1B78DBB204229343DAB2704B1A701AE06E4B1B78DBB21A1C082313400BD0724B06221A70694B1B78DBB208229343DAB2664B1A70DF
:4027400007E06C4B1B78032B03D16A4B06221A70E1E0E0E0674B1B78022B34D05E4B1B78DBB21A1C012313402DD05B4B1B78DBB21A1C042313400BD05E4B04221A70564B0A
:402780001B78DBB204229343DAB2534B1A701AE0514B1B78DBB21A1C082313400BD0554B06221A704C4B1B78DBB208229343DAB2494B1A7007E04F4B1B78042B03D14D4BA2
:4027C00006221A70A7E0A6E03B681B88181CFFF7C9FEA0E04A4A3B68111C1A1C0223081C111C1A1C02F077FB454B1B78B4335A00454BD3180533454A111C1A1C0223081C67
:40280000111C1A1C02F067FB414B00221A70FFF775FE80E0FFF7FCFD7DE03B685B88162B05D80E23FB183A6852881A8003E00E23FB1817221A803B680E22BA1811881A88BC
:4028400000231204120C1B0C1B041343181C0EF0C3FB60E03B68181CFFF7FCFC5BE03B68181CFFF72FFD56E03B68181C00F072F851E03B68181C00F039FA4CE03B68181CA7
:4028800000F0E6FC47E03B68181C00F02FFE42E03B68181CFFF726FD3DE03B68181CFFF7B5FC3B68181CFFF725FD0B4B1B78DBB21A1C0123134004D13B6818680DF0F8FF80
:4028C00029E028E03B68181CFFF71CFD23E03B68181CFFF7FFFC1EE0C11F002090740100640100207CF1FF0F5C0100207DF1FF0F7BF1FF0FA21F0020AC1F00205002002062
:40290000B01F00209E1F0020007E0100A01F0020A31F0020C0460D4B1B78DBB21A1C112313400FD0094B1B78DBB201229343DAB2064B1A70064B1B68FA1D11783A68081C63
:40294000111C9847BD4604B080BDC046C11F0020A814002080B586B000AF786000233B61694B1B78012B00D0CAE0684B1B78DBB21A1C0223134000D1C2E00C23FB187A68BF
:4029800012891A800C23FB181B88062B05D00C23FB181B88142B00D0ABE00A23FB187A6852891A801423FB1800221A8081E07B685A681423FB181B88D3183B610F23FB181C
:4029C00000221A700C23FB181B88062B63D11623FB1800221A8053E01623FB181A884C49131C5B009B185B00CB189A883B699B889A423ED11623FB181A884549131C5B00CE
:402A00009B185B005B5A002B13D11623FB181A883F49131C5B009B185B003A69CB18111C0422181C02F057FA0F23FB1801221A701FE01623FB181B88022B0ED81623FB1827
:402A40001B885A1C3249131C5B009B185B00CB189A883B699B889A420BD02E4B1B683A69111D0C22FF32101C98470F23FB1801221A701623FB181A881623FB1801321A8077
:402A80001623FB181B88032B09D80F23FB181B78002BA1D003E03B69181C00F0C9FE1423FB181422B9180C22BA18098812888A181A801423FA180A23FB1812881B889A42D8
:402AC00000D274E73B69002B0AD03B695B88124A934205D10C4B02221A70002000F01EF80A4B1B78DBB201229343DAB2074B1A7006E0084B1B680822FF32101C002198472E
:402B0000BD4606B080BDC046A31F0020C11F002038020020A8140020FFFF000080B582B000AF021CFB1D1A70FB1D1B78002B06D02C4B1B780133DAB22A4B1A7005E0294BDF
:402B400000221A70284B00221A8005E0254B1B780133DAB2234B1A70224B1B78032B0AD8204B1B78191C214A0B1C5B005B185B009B5A002BEAD01B4B1B78032B28D8194B77
:402B80001B781A1C131C5B009B185B00174A9918174B1A785B781B021A4300231204120C1B0C1B041343181C0DF0BCFE031E15D0104B1B6884225200101C002198470E4B22
:402BC0001B78DBB202229343DAB20B4B1A7005E00A4B03221A70002000F094FABD4602B080BDC046C01F00204405002038020020B01F0020A8140020C11F0020A31F002061
:402C000080B582B000AF78607B68DB88334A94466344042B5ED89A00314BD3181B689F46304B1B88002B04D17B689A882D4B1A8051E02D4B1B687A68911D86225200101C7D
:402C4000984748E0274B5B88002B04D17B689A88244B5A803FE0244B1B687A68911D86225200101C984736E01E4B9B88002B04D17B689A881B4B9A802DE01B4B1B687A6805
:402C8000911D86225200101C984724E0154BDB88002B04D17B689A88124BDA801BE0124B1B687A68911D86225200101C984712E00C4B1B89002B04D17B689A88094B1A818D
:402CC00009E0094B1B687A68911D86225200101C984700E0C046BD4602B080BD00D6FFFF58760100B41F0020A814002090B593B000AF7860CD4B1B78DBB21A1C0223134040
:402D000000D1F2E13E23FB187A6812891A803C23FB187A6852891A807B685B683B64C44B1B78032B00D0D4E04623FB1800221A80C5E03B6C181CFFF7B9F9031C1A1C242306
:402D4000FB181A803B6C02333B643B6C1A782423FB189A703B6C01333B643B6C181CFFF7A5F9031C1A1C2423FB189A803B6C02333B643E23FB181B88152B34D12423FB18AB
:402D800002229A752423FB180622396C9B181022181C02F0A0F83B6C10333B64A54B1B78191CA54A0B1C5B005B185B00D3189B881A1EA24B9A4214D09E4B1B78012B0FD913
:402DC0009C4B1B78032B0BD89A4B1B789BB2023B9AB22423FB18101C191C00F091FD01E000E0C04647E03E23FB181B88072B42D12423FB1801229A753B6C181CFFF756F9CB
:402E0000031C1A1C2423FB18DA803B6C02333B64884B1B78191C884A0B1C5B005B185B00D3189B88C0225201934203D0844A934206D00BE02423FB18181CFFF7E1FE1AE0A5
:402E40002423FB18181CFFF795F914E0794B1B78012B0FD9774B1B78032B0BD8754B1B789BB2023B9AB22423FB18101C191C00F047FDFFE7C0462423FB189A886D4B1B78B0
:402E8000181C6D49031C5B001B185B00CB185B889A4202D1012000F035F9644B1B78DBB201229343DAB2614B1A704623FB184622B9183E22BA18098812888A181A8046232B
:402EC000FA183C23FB1812881B889A4200D230E70BE1574B1B78022B00D006E14623FB1800221A80F8E03B6C181CFFF7DFF8031C1A1C0C23FB181A803B6C02333B643B6C3C
:402F0000181CFFF7D3F8031C1A1C0C23FB185A803B6C02333B643B6C181CFFF7C7F8031C1A1C0C23FB189A803B6C02333B643E23FB181B88062B30D10C23FB1802229A7536
:402F40000DF06CFD0C23FB1859883E4B1A785B781B021A4300231204120C1B0C1B041343181C0DF0FDFC031E07D1374B0C22BA1813CA13C313CA13C386E0344B1B68842254
:402F80005200101C00219847284B1B78DBB202229343DAB2254B1A7076E03E23FB181B88082B00D070E00C23FB1801229A753B6C181CFFF77BF8031C1A1C0C23FB18DA8017
:402FC0003B6C02333B644423FB1800221A8046E04423FB181A881849131C5B009B185B00CB189A880C23FB18DB889A4230D14423FB181A881049131C5B009B185B005B5A9C
:40300000002B25D14423FB181A880B49131C5B009B185B000C22BA180220C91813180422081C191C01F057FF1EE0C046C11F0020A31F0020C01F002038020020FEFF000037
:4030400001180000B01F002044050020A81400204423FB181A884423FB1801321A804423FB181B88032BB3D9214B1B78191C214A0B1C5B005B185B00D3189B881A1E1E4B2B
:403080009A4200D000E0C0460C23FB181A88184B1B78181C1749031C5B001B185B00CB185B889A4206D1154B1B88002B02D00120FFF734FD124B1B78DBB201229343DAB245
:4030C0000F4B1A704623FB184622B9183E22BA18098812888A181A804623FA183C23FB1812881B889A4200D2FDE6BD4613B090BDC01F0020380200201218000044050020E4
:40310000C11F002080B582B000AF021CFB1D1A70FB1D1B78002B06D02E4B1B780133DAB22C4B1A7002E02B4B00221A7005E0294B1B780133DAB2274B1A70264B1B78032B62
:403140000AD8244B1B78191C234A0B1C5B005B185B009B5A002BEAD01E4B1B78032B2FD81C4B1B78181C1D491B4A031C5B001B185B00087849780902084300210004000CA5
:40318000090C09040143985AD3185B881B04034300221A1C081C111C0DF0A8FB031E15D00F4B1B680A22FF32101C002198470D4B1B78DBB202229343DAB20A4B1A7005E00D
:4031C000094B04221A70002000F0F0F8BD4602B080BDC046C01F002038020020B01F0020A8140020C11F0020A31F002080B582B000AF3B1C00221A803B1C00225A80114BFD
:403200001B78002B09D1104B5B8801339AB23B1C1A800E4B1A893B1C5A803B1D3A1C12681A603A1D002311880904090C1B0C1B040B43528812041B041B0C1343181CBD46EC
:4032400002B080BDC01F0020A41F00203802002080B58AB000AF78600823FB1800225A804E4B1B78042B00D095E04D4B1B78DBB21A1C0223134000D18DE01E23FB187A6879
:4032800012891A807B681A7B0823FB181A750823FB187A6812881A800823FB181B7D012B04D12623FB1804221A8003E02623FB1812221A807B685B683B622423FB18002281
:4032C0001A804EE03B6A181CFEF7F0FE031C1A1C0823FB185A803B6A02333B620823FB181B7D022B15D10823FB183A6A0433111C1022181C01F0EFFD3B6A10333B62294BFB
:403300001B78012B23D10823FB18181C00F0B2FC1DE03B6A181CFEF7C9FE031C1A1C0823FB189A803B6A02333B621E4B1B78002B04D10823FB18181CFEF744FF194B1B7877
:40334000012B04D10823FB18181C00F093FC2423FB182422B9182622BA18098812888A181A802423FA181E23FB1812881B889A42A8D30823FB185A880B4B1B889A4202D160
:40338000012000F013F8064B1B78DBB201229343DAB2034B1A70BD460AB080BDA31F0020C11F0020C01F00204005002080B584B000AF021CFB1D1A70464B1B78012B17D0D4
:4033C000FB1D1B78002B0DD0424B1B780133DAB2404B1A703F4B1B78012B09D1FB1D00221A7005E03B4B00221A70FB1D01221A70384B1B78012B0CD1FB1D1B78181C00F074
:4034000083FB031C1A1C0C23FB181A60FB1D01221A70304B1B78012B06D0FFF7E7FE031C1A1C0C23FB181A600C23FB181B88012B0CD00C23FB185B88002B07D00C23FB18E6
:403440001A880C23FB185B889A4203D9214B1B78012BB1D91F4B1B78012B26D81E4B0C22B9181A785B781B021A4300231204120C1B0C1B041343181C0DF022FA031E0ED06B
:40348000164B1B6885225200101C00219847144B1B78DBB202229343DAB2114B1A700C23FB185A880F4B1A8011E00F4B05221A700A4B1B681222FF32101C00219847084B48
:4034C0001B78DBB202229343DAB2054B1A70BD4604B080BDC01F0020B01F0020A8140020C11F002040050020A31F002080B582B000AF7860264B1B78DBB21A1C022313401A
:4035000043D07B689B790A2B3FD1224B1B78022B17D002DC012B05D037E0032B1DD0042B27D032E01B4B02221A700020FFF7F6FA174B1B78DBB201229343DAB2144B1A70D5
:4035400023E00120FFF7EAFA114B1B78DBB201229343DAB20E4B1A7017E00120FFF7D2FD0B4B1B78DBB201229343DAB2084B1A700BE00120FFF71AFF054B1B78DBB2012206
:403580009343DAB2024B1A70C046BD4602B080BDC11F0020A31F002080B582B000AF786039607B681B689AB23B681A80BD4602B080BDC04680B582B000AF78600A1CBB1C9F
:4035C0001A80BB1C1A887B681A60BD4602B080BD80B582B000AF78600A1CBB1C1A80BB1C1A887B681A60BD4602B080BD80B582B000AF304B1B78DBB21B022F4A1278D2B2C7
:4036000013437B602D4B1B78DBB21B022C4A1278D2B213433B603B682A4A934207D17B68072B04D1284B3B6004237B6009E03A68D4231B019A4204D17B68042B01D1224BD1
:403640003B60224B3A681A60214B7A681A60214B1B78DBB21B02204A1278D2B213437B607A6880239B019A4202D07B68002B01D11A4B7B601A4B7A681A601A4B1B78DBB2D7
:403680001B02194A1278D2B213437B607B68174A934206D07B68164A934202D07B68052B01D1144B7B60144B7A681A60BD4602B080BDC046D9F0FF0FD8F0FF0FDFF0FF0F16
:4036C000DEF0FF0F580B0000580D00006C002E4074002E40DBF0FF0FDAF0FF0F0220000078002E40DDF0FF0FDCF0FF0F0F0F000005050000050F000080002E4080B582B06B
:4037000000AF021CBB1D1A80BB1D1B88181C00F0F7FFBD4602B080BD80B500AF00F00AFFBD4680BD80B500AF00F00EFFBD4680BD80B500AF00F008FF044B181C00F0C8FE71
:40374000002000F0D1FEBD4680BDC046294B000080B500AF024B181C00F0A8FEBD4680BD294B000080B582B000AFBB1D00221A8055E03B1D00221A8040E0BB1D1B882B4AFE
:403780001B01D31808335A683B1D1B881B01D31800221A80BB1C00221A8019E0BB1D1B88224A1B01D31808335A683B1D1B881B01D318D968BB1C1A88131C5B009B189B003C
:4037C000CB1800221A80BB1C1A88BB1C01321A80BB1D1B88154A1B01D31808335A683B1D1B881B01D3189B7A9BB2BA1C12889A42D4D33B1D1A883B1D01321A80BB1D1B883E
:403800000A4A1B01D31808335B789BB23A1D12889A42B2D3BB1D1A88BB1D01321A80BB1D1B88012BA5D9BD4602B080BDA802002080B584B000AF78600D23FB1800221A70A1
:403840000E23FB1800221A8046E00E23FB181B88284A1B01D31808331B78022B35D10E23FB181B88234A1B01D3185A687B680433101C191C102201F01FFB031E25D10E23A4
:40388000FB181B889A1C1C49131C5B009B185B005B5A002B19D10E23FB181B889A1C1649131C5B009B185B007A68CB18111C0422181C01F010FB114B1B780133DAB20F4BF0
:4038C0001A700D23FB1801221A700E23FB181A880E23FB1801321A800E23FB181B88012B04D80D23FB181B78002BAED0BD4604B080BDC046A802002038020020C01F0020CC
:4039000080B584B000AF021C3960BB1D1A800D23FB1800221A70774B1B68002B0FD0764B1B88BA1D12889A4206D1724B1B683A681288013A92B21A806E4B00221A600E2365
:40394000FB1800221A80ADE00C23FB1800221A703B689B7D022B28D1BB1D1B88674A1B01D31808335A680E23FB181B881B01D3181B7A022B19D1BB1D1B88604A1B01D31826
:4039800008335A680E23FB181B881B01D3185A683B680633101C191C102201F08DFA031E03D10C23FB1801221A703B689B7D012B28D1BB1D1B88514A1B01D31808335A6895
:4039C0000E23FB181B881B01D3181B7A012B19D1BB1D1B88494A1B01D31808335A680E23FB181B881B01D3185A683B680633101C191C022201F060FA031E03D10C23FB1889
:403A000001221A700C23FB181B78012B43D1BB1D1B883A4A1B01D31808335A680E23FB181B881B01D3181B88002B34D1BB1D1B88324A1B01D31808335A680E23FB181B881E
:403A40001B01D3183A6892881A80BB1D1B882B4A1B01D31808335A680E23FB181B881B01D3183A6892785A72BB1D1B88234A1B01D31808335A680E23FB181B881B01D318B5
:403A80009A1C1C4B1A601C4BBA1D12881A800D23FB1801221A700E23FB181A880E23FB1801321A80BB1D1B88144A1B01D31808335B789BB20E22BA1812889A4205D20D235C
:403AC000FB181B78002B00D13EE70A4B1B68002B0CD0084B1A680A4B1B78181C0949031C5B001B185B00CB185B881380BD4604B080BDC0466005002064050020A8020020AA
:403B0000C01F00203802002080B584B000AF021CFB1D1A700823FB1800221A800823FB1800225A80FB1D1B78002B2ED04D4B1B8801334D4A12884D4912018A18083252785D
:403B4000934206D2474B1B8801339AB2454B1A8024E0454B1B880133012B09D8424B1B8801339AB2404B1A803E4B00221A8015E03F4B1B780133DAB23D4B1A70394B1B881C
:403B800001339AB2374B1A8008E0374B00221A80344B00221A80FB1D01221A70324B1B88324A1B01D31808335B789AB22D4B1B889A421FD92C4B1B882C4A1B01D318083385
:403BC0005A68284B1B881B01D3181B8801339AB20823FB181A80244B1B88244A1B01D31808335A681F4B1B881B01D3185A880823FB185A800823FB181B88012B0CD0082345
:403C0000FB185B88002B07D00823FB181A880823FB185B889A420CD9134B1B88134A1B01D31808335B789AB20E4B1B889A4200D978E70C23FB180822BA1812681A600C239A
:403C4000FA18002311880904090C1B0C1B040B43528812041B041B0C1343181CBD4604B080BDC0465E0500205C050020A8020020C01F002080B584B000AF78600E23FB1805
:403C800000221A700F23FB1800221A70BBE00D23FB1800221A707B681B7D022B38D1674B1B88674A1B01D31808335A68654B1B881B01D318D9680F23FB181A78131C5B0026
:403CC0009B189B00CB181B7A022B21D15B4B1B885B4A1B01D31808335A685A4B1B881B01D318D9680F23FB181A78131C5B009B189B00CB185A687B680433101C191C10225C
:403D000001F0DAF8031E03D10D23FB1801221A707B681B7D012B38D1484B1B88484A1B01D31808335A68474B1B881B01D318D9680F23FB181A78131C5B009B189B00CB1850
:403D40001B7A012B21D13D4B1B883D4A1B01D31808335A683B4B1B881B01D318D9680F23FB181A78131C5B009B189B00CB185A687B680433101C191C022201F09DF8031ECF
:403D800003D10D23FB1801221A700D23FB181B78012B31D1294B1B88294A1B01D31808335A68284B1B881B01D318D9680F23FB181A78131C5B009B189B00CB181B88002BEF
:403DC0001AD11E4B1B881E4A1B01D31808335A681C4B1B881B01D318D9680F23FB181A78131C5B009B189B00CB187A6852881A800E23FB1801221A700F23FB181A780F232C
:403E0000FB1801321A700D4B1B880D4A1B01D31808335A680B4B1B881B01D3189B7A0F22BA1812789A4205D20E23FB181B78002B00D12CE7BD4604B080BDC0465C050020A6
:403E4000A80200205E05002080B500AF064B1B78002B04D100F00AF8034B01221A7000F03DF8BD4680BDC0466805002090B583B000AFFF2000F040F8B82000F057F80120A2
:403E800000F064F8012000F071F8FC1D00F071FB031C23700F4A0F4B1B78DBB201210B43DBB21370FB1D1B78181C00F066FB0A4A094B1B78DBB202218B43DBB21370064A79
:403EC000054B1B78DBB204218B43DBB21370BD4603B090BD90000F4070000F4080B500AF044A044B1B78DBB201210B43DBB21370BD4680BD70000F4080B582B000AF021C5A
:403F0000FB1D1A70FB1D1B78002B07D0054AFB1D1B781370044AFB1D1B781370BD4602B080BDC04640000F4000000F4080B582B000AF021CFB1D1A70034AFB1D1B78137012
:403F4000BD4602B080BDC04610000F4080B582B000AF021CFB1D1A70034AFB1D1B781370BD4602B080BDC04620000F4080B582B000AF021CFB1D1A70034AFB1D1B781370E1
:403F8000BD4602B080BDC04630000F4080B582B000AF021CFB1D1A70064B064A126806491140FA1D127892040A431A60BD4602B080BDC04608020440FFFFE3FF80B582B06E
:403FC00000AF021CFB1D1A70064B064A126806491140FA1D127892040A431A60BD4602B080BDC04608030440FFFFE3FF80B582B000AF021CFB1D1A70064B064A1268064932
:404000001140FA1D127852050A431A60BD4602B080BDC04608030440FFFF1FFF80B500AF064B1B78002B04D100F00AF8034B01221A7000F03DF8BD4680BDC046690500205F
:4040400090B583B000AFFF2000F040F8B82000F057F8012000F064F8012000F071F8FC1D00F087FA031C23700F4A0F4B1B78DBB201210B43DBB21370FB1D1B78181C00F076
:404080007CFA0A4A094B1B78DBB202218B43DBB21370064A054B1B78DBB204218B43DBB21370BD4603B090BD92000F4072000F4080B500AF044A044B1B78DBB201210B4348
:4040C000DBB21370BD4680BD72000F4080B582B000AF021CFB1D1A70FB1D1B78002B07D0054AFB1D1B781370044AFB1D1B781370BD4602B080BDC04642000F4002000F4059
:4041000080B582B000AF021CFB1D1A70034AFB1D1B781370BD4602B080BDC04612000F4080B582B000AF021CFB1D1A70034AFB1D1B781370BD4602B080BDC04622000F401B
:4041400080B582B000AF021CFB1D1A70034AFB1D1B781370BD4602B080BDC04632000F4080B582B000AF786000F048F87B68181C00F008F8032000F011F800F035F8BD4614
:4041800002B080BD80B582B000AF7860024B7A681A66BD4602B080BD0000002090B585B000AF021CFB1D1A700623FB600B23FC1800F0DFF9031C23700A4B0A4A1268C02134
:4041C0008A43111CFA1D1078FA689040021C0A431A600B23FB181B78181C00F0CEF9BD4605B090BD08E400E080B500AF024B802252001A60BD4680BD00E100E080B500AFFB
:40420000024B802252001A60BD4680BD80E100E080B500AF024B802252001A60BD4680BD80E200E080B500AF00F046F8BD4680BD80B500AF064B064A1268802109060A43D3
:404240001A6000F019F800F01BF8BD4680BDC0460000244080B500AF064B1B78002B04D1FFF7E0FF034B01221A70FFF7E1FFBD4680BDC0466A05002080B500AFBD4680BDAF
:4042800080B500AF00F070F8BD4680BD80B582B000AF7860C046064B1B681F221340082BF9D0044B7A681A60BD4602B080BDC046080224404002244080B500AF184B194AC9
:4042C0001A60194B00221A60184B01221A60184B184A1A60184B07221A60184B00221A60174B01221A60174B124A1A60164B00221A60164B04221A60154B00221A60154B6F
:4043000000221A60144B00221A60144B00221A60134B00221A60134B00221A60BD4680BD000024400B00000240002440480024400003244007000080040324401003244026
:4043400044002440000224400402244050002440880E2440C80E2440480F2440080F2440C80F2440880F244080B500AF054B054A126805490A40902109040A431A60BD4654
:4043800080BDC04600010240FFFF0FFF80B584B000AF78600023FB6009E07A68FB68D3181B78181CFFF772FFFB680133FB607A68FB68D3181B78002BEFD1BD4604B080BD22
:4043C00080B582B000AF78607B68181CFFF75EFF0D20FFF75BFF0A20FFF758FFBD4602B080BDC04680B582B000AF786000F04AF87B68181C00F008F8032000F011F800F046
:4044000037F8BD4602B080BD80B582B000AF7860024B7A685A64BD4602B080BD0000002090B585B000AF021CFB1D1A700E23FB600B23FC1800F09DF8031C23700A4B0A4AD7
:4044400012680A491140FA1D1078FA689040021C0A431A600B23FB181B78181C00F08DF8BD4605B090BDC04600E400E0FF3FFFFF80B500AF024B02221A60BD4680BDC046CB
:4044800000E100E080B500AF024B02221A60BD4680BDC04680E100E080B500AF024B02221A60BD4680BDC04680E200E080B582B000AF786000F048F87B68181C00F008F869
:4044C000002000F011F800F035F8BD4602B080BD80B582B000AF7860024B7A681A67BD4602B080BD0000002090B585B000AF021CFB1D1A700623FB600B23FC1800F039F814
:40450000031C23700A4B0A4A1268C0218A43111CFA1D1078FA689040021C0A431A600B23FB181B78181C00F028F8BD4605B090BD0CE400E080B500AF024B802252011A6088
:40454000BD4680BD00E100E080B500AF024B802252011A60BD4680BD80E100E0000000000230800803D00138FDD1C046C046C0467047EFF3108072B6704780F310887047A9
:4045800090B58BB000AF78602723FC18FFF7F1FF031C2370184B1A680C23FB181A60174B1A680C23FB185A607B68033B144AD35C1A1C0C23FB189A60124B1A680C23FB183C
:4045C000DA601C23FB18104A1A600C23FA181C23FB185A600D4B1C22BA181A600C4B0D4A1A600A4B1B682723FB181B78181CFFF7C4FFBD460BB090BD08010B4000010B40A4
:40460000D876010030001040B6EA000008001040040010401700008080B584B000AF78600023FB60154B154A126801210A431A60134B144A1A60144B134A12688021090220
:404640000A431A607B68002B12D01023FB600CE0012000F055F800F019F8031E02D00023FB6005E07B68013B7B607B68002BEFD1FB68181CBD4604B080BDC04660F02E403D
:4046800078002E400220000010002E4080B500AF034B1B6801221340181CBD4680BDC0460C002E4080B582B000AF021CFB1D1A7001BEBD4602B080BD80B582B000AF7860E0
:4046C00009E00C4B1B68181CFFF74AFF7B680A4A944663447B607A6880231B029A42F0D8064B1B687A685343181CFFF739FFBD4602B080BDD40200200080FFFFCC020020A9
:4047000080B582B000AF021CBB1D1A80BB1D1B88044A12785343181CFFF722FFBD4602B080BDC046D002002080B500AF0E4B0E4A126801218A431A600B4B0B4A12680221F5
:404740008A431A60094B094A126830218A4310210A431A60054B054A126807218A4301210A431A60BD4680BD00F02E4000FF2E4080B500AF0E4B0E4A126802218A431A6040
:404780000C4B0C4A126807218A4302210A431A60084B084A126830218A4320210A431A60034B034A126801210A431A60BD4680BD00F02E4000FF2E4080B500AFFFF7B4FF18
:4047C000044B044A1268802109060A431A60BD4680BDC04600F02E4080B584B000AF78600C4B1B6801221340FB607B68002B02D0012B03D005E0FFF797FF06E0FFF7B8FF09
:4048000003E00020FFF74EFFC046FB68181CBD4604B080BD00F02E4090B583B000AFFC1DFFF7A7FE031C2370074B074A1268C02109020A431A60FB1D1B78181CFFF79DFE76
:40484000BD4603B090BDC04600010B4080B500AF054B1A68C0231B02134001D0012300E00023181CBD4680BD00010B4090B583B000AFFC1DFFF77DFE031C23700C4B0C4A12
:4048800012680C490A408021C9010A431A60084B074A126807490A40802109020A431A60FB1D1B78181CFFF768FEBD4603B090BD00010B40FF3FFFFF80B582B000AF7860CE
:4048C0007B68022B02D90020FFF7ECFE054B1B687A68D2000132D34001221340181CBD4602B080BD10020B4080B584B000AF786039607B68022B02D90020FFF7D3FE7B68C9
:40490000181CFFF7D9FF031E15D10C4B1B687A68D200111C03228A40D2431340FB603B68032213407A68D2009340FA681343FB60024BFA681A60BD4604B080BD0C020B40D6
:4049400080B584B000AF786039607B68002B02D07B68012B01D1012300E00023002B02D10020FFF79FFE7B68181CFFF7A5FF031E16D10D4B1B687A68D2000232111C012249
:404980008A40D2431340FB607B68DB0002331A1C3B689340FA681343FB60034BFA681A60BD4604B080BDC0460C020B4080B582B000AF7860144B144A11687A680A431A606E
:4049C0007B680122134005D0C0460020FFF774FF031EFAD07A6880235B00134005D0C0460120FFF769FF031EFAD07A6880235B02134005D0C0460220FFF75EFF031EFAD027
:404A0000BD4602B080BDC04610020B4080B584B000AF786039607B68002B02D07B68012B01D1012300E00023002B02D10020FFF739FE174B1B689B0F9B0701D1C92300E096
:404A40005D23181CFFF75CFE124B1B68FB607B681B011A1C104B9340DA43FB681340FB600C4B7A681201111C3A688A40111CFA680A431A60064B1B689B0F9B0701D14323D3
:404A800000E01F23181CFFF73BFEBD4604B080BD0C020B4008020B40FFFF000080B500AF034B1B68034A1340181CBD4680BDC04610020B400404040090B585B000AF786098
:404AC0000B23FC18FFF755FD031C2370FFF7BEFE031E04D00123FB60FFF7C8FE01E00023FB607B680D4A13407B600D4B0C4A12680C4911407A680A431A60094B1B68FB6820
:404B0000012B01D1FFF788FE0B23FB181B78181CFFF733FDBD4605B090BDC0460404040010020B40FBFBFBFF80B500AF05F052FBBD4680BD90B583B000AFFC1DFFF719FDB7
:404B4000031C2370074B074A126804218A431A6030BFFB1D1B78181CFFF70FFDBD4603B090BDC04610ED00E0002243088B4274D303098B425FD3030A8B4244D3030B8B42EC
:404B800028D3030C8B420DD3FF22090212BA030C8B4202D31212090265D0030B8B4219D300E0090AC30B8B4201D3CB03C01A5241830B8B4201D38B03C01A5241430B8B4288
:404BC00001D34B03C01A5241030B8B4201D30B03C01A5241C30A8B4201D3CB02C01A5241830A8B4201D38B02C01A5241430A8B4201D34B02C01A5241030A8B4201D30B02C9
:404C0000C01A5241CDD2C3098B4201D3CB01C01A524183098B4201D38B01C01A524143098B4201D34B01C01A524103098B4201D30B01C01A5241C3088B4201D3CB00C01ABF
:404C4000524183088B4201D38B00C01A524143088B4201D34B00C01A5241411A00D20146524110467047FFE701B5002000F0FCF802BDC0460029F7D003B5FFF775FF0EBC84
:404C80004243891A1847C04603460B437FD4002243088B4274D303098B425FD3030A8B4244D3030B8B4228D3030C8B420DD3FF22090212BA030C8B4202D31212090265D061
:404CC000030B8B4219D300E0090AC30B8B4201D3CB03C01A5241830B8B4201D38B03C01A5241430B8B4201D34B03C01A5241030B8B4201D30B03C01A5241C30A8B4201D3E4
:404D0000CB02C01A5241830A8B4201D38B02C01A5241430A8B4201D34B02C01A5241030A8B4201D30B02C01A5241CDD2C3098B4201D3CB01C01A524183098B4201D38B0143
:404D4000C01A524143098B4201D34B01C01A524103098B4201D30B01C01A5241C3088B4201D3CB00C01A524183088B4201D38B00C01A524143088B4201D34B00C01A52418E
:404D8000411A00D201465241104670475DE0CA0F00D04942031000D34042534000229C4603098B422DD3030A8B4212D3FC22890112BA030A8B420CD3890192118B4208D3D5
:404DC000890192118B4204D389013AD0921100E08909C3098B4201D3CB01C01A524183098B4201D38B01C01A524143098B4201D34B01C01A524103098B4201D30B01C01A34
:404E00005241C3088B4201D3CB00C01A524183088B4201D38B00C01A5241D9D243088B4201D34B00C01A5241411A00D20146634652415B10104601D34042002B00D5494276
:404E4000704763465B1000D3404201B5002000F00BF802BD0029F8D003B5FFF715FF0EBC4243891A1847C0467047C0460E4B70B500251E1C0D4CE41AA410A54204D0AB0075
:404E8000F35898470135F8E712F03EFC084B00251E1C084CE41AA410A54204D0AB00F35898470135F8E770BD1477010014770100147701001C77010030B50024944208D0FE
:404EC000035D651C0C5DA34201D0181B02E02C1CF4E7002030BD002310B5934203D0CC5CC4540133F9E710BD031C8218934202D019700133FAE7704710B501F069FC10BD1F
:404F000010B500F079F910BD10B50749044609780220002907D1204601F07DFC002802D120460AF07FFD10BDF203002010B507F065FE01F04DFC01F06CFC00F067F900F0FF
:404F40007FF902490020087010BD0000D8020020FFB585B0002568460E9F057339481C460078002802D0082009B0F0BD10990F9801900097029105A807C800F067F800284D
:404F8000F2D10120694603AA0D73002C1BD0002113E08B00E55A082D09D91E19B678002E05D0083DE55213785B1C137003E0042901D2012003E0491CC9B2B942E9D31178B5
:404FC000042900D300200028CED110990F9800F0AFFF002801D00120C6E701F0F9FB1A480599016021888180A188C180A27A0272A17B4172A089012540084843A0810220F7
:40500000A073208950432081A5726846037B22460799069800F0A2F80028A5D16846094C007B607001F0DCFB00289DD1064807F0C5FD002898D107F0E9FD002894D125702C
:4050400092E70000D80200206C050020FFB53A4F1C4603463F780020364A0A9E0B9D002F12D100290FD0029991420CD3002B0AD0002C08D00999042905D3002E03D0FF2165
:405080006E318D4202D2012004B0F0BD00210A460D463FE08B001E19B678002E36D0E35A002B33D073435B199DB20B0000F048F806040E15191D253F2388FF27A678233BF2
:4050C000EB37BB42DFD2032EDDD31FE0A3880C2BD9D91A4EB342D6D818E02389302BD2D114E0A389482BCED110E0228A134E1346233B223EB342C6D208E0A38A0F4F1E4695
:40510000233E223FBE42BED29342BCD80028BBD1491CC9B2099B9942BCD319461C2251434A190449521802998A42ACD8ACE70020EEE70000D8080000D8020020DCFF00009F
:4051400030B47446641E2578641CAB4200D21D46635D5B00E31830BC18470000FFB50F4606460024384381B01D46800701D0012438E0FEF7EDFAFEF7D5FA00F0D7FA0028C9
:405180002ED100F015FC00282AD11849084600F003FF0004000C23D13000154E04D03060B7800020F0803581AD1DEFB23946039800F072F804000ED1B088F2880837801A66
:4051C000F9B280B201F0DAF9002801D0012407E0E8B200F045F900F071F906490120087000F0B6FA204605B0F0BD00008553000078050020DA02002010B503480078012875
:4052000001D101F05DF810BDDA02002010B500F031FC002803D100F09FFA002801D0FF2010BD0548007A801DC0B200F031F9034A0020107010BD000078050020DA020020FE
:4052400010B500F033FC00F0D9FE0449002008608880C88008810249087010BD78050020DA02002070B5084B0446DA889E8800205518B54206D81D68AA182260DA8851186C
:40528000D98070BD032070BD78050020014800897047000078050020F0B587B007460D4600208900009006916846FFF7DBFF844600285DD1304800990160002117E02E4B68
:4052C00088001A680629115406D22C4C0419667882185670628805E0C419203CA67A8218567022891B68C018491C4280C9B2A942E5D300242DE0601CC2B2059025E01E4F6A
:40530000A30039689600581840887118039604904E88B04217D938466F46FE80B6464F786E4677710297049F4F800168039F5E18767879184E700168764659184E80006848
:40534000029F18184770521CD2B2AA42D7D30598C4B2AC42CFD36046002809D168460699FFF780FF8446002802D1054900980860604607B0F0BD0000DC020020407701003D
:40538000E00200207047000010B5002809D005494A68002A05D0011F08788000105801F09BF810BDDC02002010B50446FFF76EFFC0B2801DA0420CD307484068002808D05F
:4053C000A100405800F0FAFF002801D00470001D10BD002010BD0000DC020020F8B516460D460446FFF752FFC0B2801DA04203D20020C0430090F8BDB2B2E9B2684601F090
:4054000003F80099481C03D0024AA000526811500098F8BDDC020020F8B50746FFF736FF801DC6B20A49002005460C680DE06178002907D06188B94202D32078FFF7B4FF23
:40544000002804D1241D6D1CEDB2B542EFD3F8BDDC02002010B5002801D0FFF795FF10BD70B506460948002504680BE06178002905D062882078121D0023FFF7AFFF241D77
:405480006D1CEDB2B542F1D370BD0000DC020020F8B5084F064600243D6808E0287879688000085801F0C6F82D1D641CE4B2B442F4D3F8BDDC020020002070471CB5002431
:4054C00069460C70142001902346054A05480EF0B7FC04480068401C00D1FF2420461CBD39550000E40200203EB5124A0146FF2000230124126800290DD0012914D0042977
:4055000008D104206946009308814B8110460EF092FC80B23EBD6846009304814381694610460EF083FCF4E768460093048143816946EBE7E402002070B5458904684168C8
:4055400000890300FFF7FCFD06240408081D2124002006F06FF91BE0022908D0C8B22A4621460CF03DFD2046FFF774FF10E002202A4621460CF034FD2946204600F00AF861
:4055800006E000200EF048F902E020460EF0DEFC002070BD014B0022DB681847E802002070B5448905680089022803D0032809D0FF2070BD2246094C0023A468294601206E
:4055C000A04708E0FFF798FC241DA2B200232946022007F0D6F9002070BD0000E802002070477047024800214160018041807047E802002070B50C46002186B016460391B1
:40560000012802D0022859D116E003A9012007F010FA01281BD1039D324621462846FFF75AFC0095287801900220694608814E816846FFF7B5FF41E0214D002B686809D05F
:40564000049004A9022007F0F4F901281DD0022006B070BD002812D0298840182146FFF73AFC28880024801980B228806988091D884206D12C801348FFF792FF03E003208F
:40568000E6E788421AD96C6018E004986860E278A378110219430B4A698000231060E3565360032313815181A1788170E178C1706178417021780170042028800020C7E749
:4056C000E8020020840500203EB515460C46022803D004280CD000203EBD0091019002206946088107484A8100680EF0A4FB07E00CF076FC044B0022DB68294620469847DF
:4057000001203EBDE4020020E8020020014AD16090607047E8020020034801688068081A0A214843000970479005002010B5FDF7FFFF542204490548FFF7CDFB0349012035
:40574000C870002010BD00005C7701007008002010B5FDF7E1FF10BD0020704770B5134C2368002B08D0207B1149C20705D04008400020738868A08070BD88680B4AA188F0
:4057800080B29268814203D90A4D691A091802E0814202D2411A5118A160A080A0689842EAD300F015F80EF063FB70BD90050020C0102E40FFFF000010B508461946FFF747
:4057C000A5FF10BD704710B5FFF77EFF10BD000003480021016041608160C160704700009005002010B502000DD0FFF7F1FF074C0321207B0843207310010A21FFF73AFAC0
:405800002060002010BDFF2010BD00009005002000B504480A21806848430209FFF7D8FF104600BD900500200248007B8007C00F704700009005002010B5374908680028B7
:4058400002DA364B01221A70022290430860344800693149C00B4031096A08425AD0012000F03CFA2E482F497C30FDF7B1FE2A480E216C30FDF7ACFE294820218430FDF784
:40588000A7FE274814219C30FDF7A2FE2448FF21C131A430FDF79CFE2148FF212F31B030FDF796FE1E482049BC30FDF791FE1C481E49AC30FDF78CFE1C491948491CB4309C
:4058C000FDF786FE16481A49B830FDF781FE14481849CC30FDF77CFE114817490830FDF777FE0F481549A830FDF772FE0C4814498830FDF76DFE0A4812498C30FDF768FE17
:4059000007481921C9029030FDF762FEFDF76EFE002010BDFF2010BD00F02E40F802002000002E4055650000320300002F3F00003102000010520000EC160000FA120000E0
:4059400031D000003AE3000070B50646581C80B245086D00002408E0304600F07FF81055000A1119A41C4870A4B2AC42F4D3D80705D0D0182038D15CC47FD454C17770BD42
:4059800030B50A4C002100195B1E07E0541864782502545C2C430480891C89B29942F5DB994201D1515C018030BD000000102E4010B5FF2000F092F90F49FF2048700E484B
:4059C0001021801D41800121417001700A490020C91C4870FFF730FF04000AD100F0DEF807210648FDF7E6FD044807211830FDF7E1FD204610BD0000F8020020CC112E4087
:405A000030B504465B1C1804450C002308E0204600F024F8241D59005B1CA4B250529BB2AB42F4D330BD000070B500210A4D5B1E0AE0541864782602545C34434619348035
:405A4000001D891C80B289B29942F2DB994202D1515C4019018070BD00102E40014940180088704700102E40014A80180180704700102E4010B50B490020487000F08EF810
:405A8000002000F051F9002000F03EF907210648FDF790FD044807211830FDF78BFD002010BD0000FB020020CC112E4010B506480078012803D102210448FDF789FD024905
:405AC0000020C91E087010BDFB02002070F02E4010B50B46062812D006DC01280CD0032801D1FFF7C7FF10BD0A28FCD00B28FAD105480078107010BDFFF75AFF10BD11465B
:405B0000184600F02DF910BDFE020020F8B5204DAC6A0127A0071F4E002816DA307806280ED1286A384328621B480069F903084381B219481030FDF74BFD042000F0CEF837
:405B4000134802212830FDF735FDE00711D0062000F0C4F80F49FF20C91E48707078002802D1686B38436863094801212830FDF721FDE0050BD53078042802D1052000F01F
:405B8000ADF80348FF2101312830FDF713FDF8BD40F02E40FB02002000002E4010B503212348FDF715FD0120FDF7A8FD20483038406A204C80076178800F890001431C484F
:405BC0000C38FDF705FD6078002808D0401E022181401820FFF73EF9C000083800E0B82081B21548FDF7F4FC1348032109021438FDF7EEFC10481149B830FDF7E9FC612117
:405C000089010F48FDF7E4FC0D480321001FFDF7DFFC0C490C48FDF7DBFC0B480B496038FDF7D6FC084801218838FDF7D1FC10BD70F02E40FE020020D8102E4090890000B2
:405C4000041E2E40FF0F000058122E40209000000849087806280BD148780749002803D1486B400840004863C86A01221043C86270470000FB02002040F02E40014800782C
:405C800070470000FB02002000B50300FFF758FA080D050D0B070507090D012000BD032000BD042000BD022000BDFF2000BD0000074A9168D26889B2064B92B2994204D157
:405CC00005498A4201D1012100E000210170704780002E4033D000003FE3000010B50446FDF720FD072C01D9FF2C01D102480470FDF712FD10BD0000FB0200200149487083
:405D000070470000F802002010B5064A012805D01921C9021046FDF75BFC10BD1D21C902F8E7000090002E4010B50A4A141D012808D009491046FDF74BFC08492046FDF74D
:405D400047FC10BD04491046891CFDF741FC0349491DF3E788002E4031D000003AE300000078074AFF2803D04C2804D9553803E01078087070474F38087010707047000089
:405D8000FA020020F0B50122002830D000292ED00224420600D003246D2342065B06D21800D0641C034600221EE00C2516466E43104D00277519AF720E4F002ABB516960A2
:405DC00007D0661EB24209D106466D367606760E05E05E06760E8027BE1B00E080269B198919521C2E81D2B2A242DED300221046F0BD000010070020074900200C224243AD
:405E00005218927A012A05D0401CC0B20428F5D3002070470120704710070020F8B5044616460F000BD0184D6868A04203D9FF306E30A04203D3FF206E30864201D901200F
:405E4000F8BD2046FFF738F800281BD0324639462046FFF740F8F0B200210C224A43521913895668F718A74208D90127A41B1B1B9772834206DAC01A1469C0B2491CC9B2B3
:405E80000429EAD30020F8BD1007002010B500F05FF80648FF22C1686E320C460448FFF71AF803492046FFF76DFF10BD04030020A005002010B500F04BF810BD0020704799
:405EC0000020054A002902D0012902D002E0506000E09060002070470403002070B5084C154608460549A26889182A46FEF7F3FFA0684019A06028B270BD0000A00500203D
:405F0000040300203EB50A226946FFF7E7FF044606480A2200686946FEF7CEFF002802D00020C0433EBD20463EBD000004030020002803D0FF226E32914201D2FF2070471B
:405F400002490A61C860002070470000040300200248002141608160704700000403002070B5074C15460548626880182A46FFF755FF60684019606028B270BDA005002091
:405F80000403002010B503490A220968FFF7E8FF10BD00000403002010B50F4A002313600E4A13600E4B18600E4801600E49012008600E490860000290600E490C48086090
:405FC0000D4914300860FF381538506000F0BEF800F0CCF9002010BD30030020180300204403002048030020340300202403002040080020280300203C030020002070473C
:40600000014610B50020002910D0094B1A689C685118A14209D25868196080188A0704D08A07920F891A091D196010BD002010BD18030020F8B50024164E671E321F3D46FD
:406040003168136806E01422624310328A58521C1BD0641C9C42F6D36A1C14D02C461422544322460C3288500C214843FFF7C8FF3168002808510AD03168002010340851C1
:406080007068401C70602846F8BD2546E4E73846F8BD000028030020F3B50026F64381B000281BDB1E490968884217D80299002914D01B4F142204463F1D5443254639688D
:4060C00010354859401C09D0FDF72CFB38682F1F4159C359994203DBFDF71EFB3046FEBD214608310091465801590C20704308180C220299FEF7EFFE0948761C001D006894
:40610000C159B14200D100260549009A091D865008684159491C4151FDF7FEFA0020FEBD24030020002803DB07490968884202D90020C043704704491422091D0968504375
:40614000103008587047000024030020F0B500200D4A451E0346171F50600FE014260146714314680E1DA3510C461668083433511668083435511468401C6350396888424E
:40618000ECD30020F0BD000028030020F3B50026F64381B0002841DB2349096888423DD8029900293AD0204F142204463F1D54432546396810354859401C2FD0FDF7B2FA33
:4061C0003868415900292BD0211D009146580C21005971430F46C1190C220298FEF77BFE11480021001D0068761C00590C34C0190160416081600C48001D00680159B14229
:4062000000D100260849009A091D865008684159491E4151FDF780FA0020FEBD3046FEBDFDF77AFAFAE7000024030020FEB504460D4600201E49089E0860471E0090019008
:406240000290002C11D0486885420ED2002A0CD0002E0AD0642E08D808460C3001681C2068430C18207A002801D03846FEBD0120226020721846FFF7DDFE6060401C13D07B
:406280006681A6810A4827610C3067610179A94200D205710021684601810A462846029B00F040F82846FEBD00202072DDE700003003002038B50124009400F039F838BDC3
:4062C000FEB50027164EFF433D4600240EE01C20316860430818017A002906D04068FFF721FF002801D0254603E0641C3079A042EDDA681C12D01C2130684D434419FDF784
:4063000011FA69466068FFF741FF0546FDF704FA002DD9D1216868468847D5E7FEBD00003C03002038B50024009400F001F838BD1FB500220C49541E0A60002811DB496846
:4063400088420ED808491C220C31096850430818406801A9FFF7A0FE401C02D0002004B010BD2046FBE7000030030020F0B50021114A4D1E174611710C3F0B46BD6016E013
:4063800008461C2460431668041D355114680646235014680836A3551468361DA353044616680A34335318301468491C255078688142E5D30020F0BD3C03002038B5002116
:4063C0000091002811DB0F49097888420DDA0D4D04010C3529680859002807D0201D0818694600F071F9002801D0002038BDFDF799F928680F34015D491E0155FDF78CF97C
:40640000009838BD4C030020F7B582B0002502986E1E06602E48D21C024017462D4A2C4610460C380178106805E02301C358002B0FD0641CE4B28C42F7D3711C28D03401C4
:40644000211D40180191039900F02CF900281FD101E02646F1E71F48016820460C300F521C480399026820460E30115419480399026820460F3011540398784300F0A0F871
:40648000144900280968085102D00024009011E001251AE00F48016801980818009900F02EF9002801D0012502E00098C0190090641CE4B203988442ECD3002D05D10298F8
:4064C000066004480179491C0171284605B0F0BDFCFF000058030020F8B50D4600216A468C461180002839DB23490978884235DA214B04010C3319680A59002A2ED02046FB
:406500000C300B5A801C0E5C184670438018954224D3854222D2002006E007465F43BF18AF4206D0401CC0B2B042F6D36046002814D0114E271DC8190C366A46294600F0DF
:4065400008F900280AD168460088012808D030682946C01900F0D3F8002803D00120F8BD0020F8BDFDF7DEF830680F34015D491C0155FDF7D1F8F3E74C030020F8B50F46D9
:40658000002400F033F8002817D10C4900220B460C334A600EE021011D680E466A501D680C36AA53B61C1D680F31AA551D68641C6A54E4B2BC42EED31A71F8BD4C03002017
:4065C000014610B5002000290CD0C91C064B8A08596892005C888A18A24202D898685A60401810BD002010BD4C030020F8B5064600200F4D009029700C0121466846FEF71B
:4066000031FE00280CD129460C3100980860301B001F84B221466846FEF724FE002801D0FF20F8BD6C800098A8600020F8BD00004C030020F8B5002827DB1949097888428D
:4066400023DA174C05010C342168485900281CD028460C30085A009028460E300E5C401C0E5420682F1DC01900F064F800280CD12068002445590EE0094829460C3000682C
:40668000C01900F03CF8002801D00120F8BD00982D18641CE4B2B442EED30020F8BD00004C03002030B50D4604000BD0A800FFF787FF6060002805D000202570C043608090
:4066C000002030BD012030BD70B50D46040005D0002D03D00220205E002801DA012070BDFDF720F80221615E60688900405828606088401E6080FDF70FF8002070BD70B54B
:406700000D46040007D0002D05D002212078615E401E814201DB012070BDFDF703F86088401C00B26080616880000D50FCF7F4FF002070BD10B5040009D0227800216068A1
:40674000FEF7D2FB0020C0436080002010BD012010BDF0B500231D46002802D00224045F0AE00120F0BD46689F00F6598E4201D1012503E05B1CDBB29C42F4DA1570002077
:40678000F0BD00000148007870470000600300207CB505460024FEF7AFFBA8796946087000A8062229460130FEF795FB0021684605F09EFA0C2804D0072804D01F2804D033
:4067C00004E0022402E0042400E0272420467CBD10B500F0CFF8FFF751FAFFF755FA10BD10B503240DF054FF002810D10DF0F8FE00280CD106F06CF9002808D100F098FAD1
:40680000002804D105F022FD002800D10024204610BDFF20704770B50025044600280ED0A07901280BD8FEF767FBA0790028204602D003F04DFB03E003F002FB00E001257E
:40684000284670BD38B504460120002C20D0617801291DD800290BD0FF25E535FEF74CFB2846FFF7FBF8C0B22070072803D00EE0FF25CD35F2E70020694608706846FFF760
:4068800017FA69460878012801D108202070002038BD70B504460120002C1FD06178012902D92278092A19D8002905D0FF25E5352078092803D004E0FF25CD35F8E70720A1
:4068C0002070FEF719FB2078082808D00020FFF72BFA21782846FFF7C7F8002070BD0120FFF722FA0721F5E770B50D46040001D0002000E00548002802D0012102F064FCDC
:406900002946204602F0BEFF70BD0000E408002038B5054600200446009022466946284600F05AFF0098002801D00DF093FEA878214602F08BFDA878214602F07AFD641C0A
:40694000E4B2052CE9D338BD064A02235188891C89B25180814201D8102900D953805088704700006203002001484078704700006203002038B5FFF781F9042819D005282F
:4069800017D006281AD0032842D007280AD100206946087002460120FFF79AF8FFF76EF90128FBD138BDFEF7C5F8FFF767F90128F8D0FFF763F90128F5D138BD02F0DAFD1A
:4069C00005E0FEF7B7F8FFF759F9012803D0FFF755F90128F5D1A12424012046FFF73EF801220E4983079B0F0A70022BE5D149880029E2D0104301462046FFF735F82046DB
:406A0000FFF72CF8410849002046FFF72DF838BD02F0B4FD0120FFF761F938BD6A030020F8B50646002403F0ABFB0546304603F0BFFB00210346012632468A4017461046F4
:406A40002F401840002F03D0002801D1224394B2491CC9B20529EFD32046F8BD1CB50020694648706846FFF7EDFE01AA69460A20FFF72EF86946042008561CBD10B50C4615
:406A800001F084FB002809D00179002906D0C1788078224602F0C9FF002010BD022010BD0148007870470000B00800204030C07E002800D00120704700B500F001F800BD94
:406AC00088214843064940186030417F491CC9B24177052901D300214177C8B270470000C408002013B501F051FB04000BD002F056F8002807D0214601AA0A310620FEF750
:406B0000E7FF00201CBD02201CBD000010B50C4601F03CFB00280AD002F041F8002806D0224604490A20FEF7D3FF002010BD022010BD000099080020F3B581B00746014661
:406B40000026029803F014FB0446002F01D0002500E0154D002D21D0284601F04DFB032C04D13946029803F02DFB06463846029902F05FFC032C06D0002C10D00121384642
:406B800001F0EEFC03E03146384603F079FD284602F000FB0221284602F016FBFEBD3846029902F046FCFEBDE408002070B50446002504F0A7FC002801D00C2070BD2078E6
:406BC000611C03F043F8FF2802D01F25284670BD03F090F8FF2804D02178621C02F09CFBF4E70725F2E710B504F08CFC002801D00C2010BD03F002F8002010BD70B50D4697
:406C0000044610210DF066FC1021601806460DF061FC334610221946204604F0A7FC102130460DF057FC02202870204605F058FA70BD70B504464078217802028006850FBB
:406C4000E0781143A67809050002090D0643084601F09CFA002812D0022D10D0032D0ED0002E08D00179092909D0002907D0214600F0C1F870BD0089002105F01EF92046FB
:406C80000DF0E8FC70BD0020704770B50446002504F038FC002801D00C2070BD2078611C02F0D4FFFF2802D002F005FF00E01F25284670BD10B505F0C9FA00F02FF90020A4
:406CC00010BD000010B5014605220A48FEF703F9084905220846A038FEF7FDF800F0A0FE04488022B038C17B1143C17300F052F910BD00007409002010B50446007861789C
:406D0000E2780843A17811430843217908436179084305D004F0E0FB002803D00C2010BD122010BD204603F0D3F8002010BD000010B5044804F07AFC02F0C6FE00F004F827
:406D4000002010BD80080020F8B5134D00266E706E736E716E76AE76EE766E75AE70EE70AE712F46EE730120B03778723F207871FF20B87100F05AFA04F098F901F0F0FEC3
:406D80000024204601F0BCFE641C2406240EF8D03E72FE71AE73F8BDC408002070B505460E46084603F0ECF90446304603F000FA0121A9400A46224001400A4301D0012045
:406DC00070BD002070BD10B50446084603F0F0F90121A140014201D0012010BD002010BD10B5FEF74BFF032804D102F0C7FB0120FEF774FF10BD70B5044600790D46092874
:406E00001CD000281AD020464030817E491C8176204602F0BFF9A078FFF74EFE064602462946204600F00CF8002806D1A0783146FFF75AFD28460DF00DFC70BD0846FAE7B1
:406E4000F7B5054648780C468006870FC8788978000282B0014368468180284601F0B4FE060007D021462846049A00F044FC304605B0F0BD384600F041FD0746034601AA2F
:406E80002946204600F016FB68468088231DC0B20090A878FF22049902F0AEFC684680883B46C2B2A878049903F0E2F8DFE770B5002500242846FFF7B3FD060010D03046B1
:406EC000E040C007C00F07D02146284602F0A5FA21462846FFF730FE641CE4B2052CEED36D1C2D062D0EE4D070BD000070B50024094D03E0002C01D0002000E02846412177
:406F0000095C012901D100F0BAFB641C2406240EF0D000F03FF870BDE408002010B502F0D3FDFFF711FF0DF0FDFB002010BD0000F8B5002400F0B3F80125012800D101242F
:406F400004F056F8012801D102200443104F00203E4620360423082203E0002801D0002100E031460979002907D001290BD002290BD0114681402143CCB2401C0006000E76
:406F8000EBD07C70F8BD2C43F7E71C43F5E70000C408002070B5144E0024F07BC00921D03546203503E0002C01D0002000E0284601F000FE012814D0641C2406240EF2D079
:406FC000F07B4006400EF073002403E0002C01D0002000E0284600F052FB641C2406240EF4D0002070BD0000C408002010B5FFF79FFF10BD10B50B4681791943817103D050
:407000008078114602F0DCFF10BD10B582798A43827102D1807802F0EBFF10BD70B5FF25D53502242846FEF719FD0C4A9178002901D0022906D1137852789A18282A01D9F3
:40704000032402E0032900D101244105490DE00201432846FEF708FD70BD00006603002010B500F022F8002807D0012805D0032801D0042801D0002010BD012010BD01461E
:4070800010B50020C90701D000F009F810BD014610B50020C90701D000F001F810BD10B52020FEF7DBFC000A10BD10B51820FEF7D5FC410501D5042010BD4007800F10BDEE
:4070C00038B5044640060CD5684602F067FA0220FFF78CFF072002F025FE6846007801F019FC200613D5FFF7E0FF01280FD1684602F054FA6846007800F001FB072002F021
:4071000011FE012002F0C2F80220FFF76FFF38BD10B5034A0178117002F013FE002010BD6603002010B50446FFF7B9FF002801D00C2010BDA27B01211848002A827801D030
:407140000A4301E05208520082706279012A0FD0C17849084900C170207901280CD06188208803F0FDFD2080207904280BD00DE0C2780A43C270EFE7E01D02F091FE0848B4
:40718000808C208002E0E01D02F08AFE054920798870204602F0E4FD002010BDC4080020700800206603002038B50478FFF777FF844201D10C2038BD002C18D00720694640
:4071C0000870FFF74DFF012807D10121684600F08DF8012801D0092038BD6846007802F0A1FDFFF71BFF02F0E8FD012010E0FFF737FF012806D1684602F0D0F9684600780E
:4072000000F0B0FA072002F08DFD02F0CDFD0220FFF7ECFE002038BD10B5034A0178517002F0A6FE002010BD6603002038B568460DF0A6F9002801D01F2038BD01210098C8
