:400000000040002011000000F9080000F908000080B500AF00F060FE00F078FC80B500AF254B12221A6002F095FB244B181C02F0C3FB012002F09EFB202002F0DDF9204BC1
:40004000204A1A60204B8022D2051A601F4B1F4A126802210A431A601D4B1E4A1A601E4B00221A601D4B1D4A126808218A431A60FA23DB00181C02F00BFA194B181C02F052
:400080000DFB184B802252001A60174B174A1A60174B802212061A60164B802212031A60154B40221A60084B8022D2051A60024B11221A60BD4680BD30001040001BB700F4
:4000C00004010B40060000800C020B4078002E407C002E406A2D000064F02E406CF02E40DC050000000301400000014040FF008008010B4000010B400801014080B582B068
:4001000000AF72B6434B00221A60FB1D00221A7023E0FB1D1A78131C5B009B185B003E4A9B183B603B681A78597809020A43997809040A43DB781B061343191C3B681A79E1
:400140005B791B0213439BB2081C191C00F06AFCFB1D1A78FB1D01321A70FB1D1B78012BD7D92E4BEE2212061A602D4BEE221A602C4B992212041A602B4B992212041A6096
:400180002A4B992212041A60294B992212041A60284A284B1B78DBB202210B43DBB21370254A254B1B78DBB23C218B43DBB214210B43DBB213701F4A1E4B1B78DBB21621C7
:4001C0000B43DBB213701D4BD82212041A601C4B20221A601B4BC02292021A601A4B40221A601A4BC02252031A60194B40221A60184BC02252031A60174B03221A60174B28
:4002000024221A60FFF70AFF00F01CFCBD4602B080BDC0466CF02E40342E0000000002400005024000500F4010500F4020500F4030500F4000700F4001700F4008000440A3
:40024000000104400801044000020440080204400003044008030440000504400805044010B5064C2378002B07D1054B002B02D0044800E000BF0123237010BD580100203E
:4002800000000000302E000008B5084B002B03D00748084900E000BF07480368002B00D108BD064B002BFBD09847F9E700000000302E00005C010020D00000200000000047
:4002C00080B500AF002001F0F1FE002001F0C8FE62B600F005F802F02DFD00F059FCFEE780B500AFC046BD4680BDC04680B588B000AFF860081C7A60191C0A23FB18021CC3
:400300001A800923FB180A1C1A7001235B42FB610023BB610A23FB180A22BA1812881A800923FB180922BA1812781A708A4B1B68002B00D078E0884B01221A60874B002009
:4003400080211A1C00F09AFA844B5B7C9BB21B029AB2824B1B7C9BB213439AB2804B1A807E4B5B7B9BB21B029AB27C4B1B7B9BB213439AB27B4B1A80784B5B7A9BB21B020B
:4003800099B2764B1B7A9AB21423FB180A431A80724B1A79744B1A7000F09AF9031C1A1C1423FB181B88934202D06C4B00221A706A4B1B78562B0ED1FB68013338221A7094
:4003C0007B6807221A800023BB610023FB61674B00221A80B1E0614B1B784C2B17D1002000F0AAFC031E03D1002000F029FCA4E0FB68013338221A707B6807221A80002354
:40040000BB610023FB61594B00221A8095E0002000F092FC031E03D1002000F011FC8CE0002002F021F988E04B4B1B68012B00D083E04C4B1A884D4B1B889A4263D3484B0B
:400440001B884B4A934208D9454B1A881623FB1848498C4662441A8004E01623FB18404A12881A80FB68013339221A70FB6804333B4A12883E498A4201D9012200E00022F8
:400480001A70FB6805331622BA181288D2B21A70FB6806331622BA181288120A92B2D2B21A70324B1B880133DA01FB680733101C80211A1C00F0E2F92A4B1B88013B2B4A54
:4004C000128893420BD1FB68043301221A70FB680533FF221A70FB68063301221A707B688A221A808323BB610023FB611F4B1B8801339AB21D4B1A80194B1B8801339AB25B
:40050000174B1A8019E0154B002080211A1C00F0B5F9124B4C221A70104B002080211A1C00F056F9FB6801333B221A707B6807221A800023BB610023FB61FB69D9B2BB69F6
:400540009BB2FA68081C111C1A1C00F075F80023181CBD4608B080BD74010020E80200206A030020BA0100207A010020B8010020FF01000000FEFFFF80B500AF044B0022CD
:400580001A60044B00221A6000F008F9BD4680BDB40100207401002080B500AFBD4680BD80B584B000AFF860081C7A60191C0A23FB18021C1A800923FB180A1C1A700A2360
:4005C000FB180A22BA1812881A800923FB180922BA1812781A700023181CBD4604B080BD80B584B000AF78600A1CBB1C1A800E23FB1800221A8012E0BB1C1B88013B7A680A
:40060000D3181B7899B20E23FB180E22BA1812888A181A80BB1C1A88BB1C013A1A80BB1C1B88002BE8D10E23FB181B885B429BB2181CBD4604B080BD90B585B000AF396097
:40064000111CFB1D021C1A703B1D0A1C1A803B6801221A703B6802333A1D1288D2B21A703B6803333A1D1288120A92B2D2B21A703B1D1B8804339BB20E22BC183A68101CC5
:40068000191CFFF7ADFF031C23803B1D1B8804333A68D3180E22BA181288D2B21A703B1D1B8805333A68D3180E22BA181288120A92B2D2B21A703B1D1B8806333A68D318AD
:4006C00017221A700023181CBD4605B090BDC04680B5A2B000AF8423FB1800221A802E4B002080211A1C00F0C9F82B4B5B7B9BB21B0299B2284B1B7B9AB28023FB180A43AF
:400700001A808623FB1800221A802FE08623FB181B880133DA013B1C101C80211A1C00F0ADF88223FB1880221A8013E08223FB181A888223FB18013A1A808223FB181B8812
:400740003A1CD35C99B28423FB188422BA1812888A181A808223FB181B88002BE6D18623FB181A888623FB1801321A808623FA188023FB1812881B889A42C7D38423FB189F
:400780008422BA18128852421A808423FB181B88181CBD4622B080BDE802002080B500AF01F050FABD4680BD80B584B000AF786001235B42FB607B68181C0021002200F097
:4007C00007F8031CFB60FB68181CBD4604B080BD80B588B000AFF860B9607A6001235B42BB61FB68234A934201D9512200E050221723FB181A70FB681B0ADAB21E4B1A708F
:40080000FB68DAB21C4B5A700023FB610AE0FB6902337968FA698A181178174AD154FB690133FB61FA69BB689A42F0D31723FB181978BB680233104A081C111C1A1C00234E
:4008400001F096FAC04601F0B7FB021C02231340F9D001F0B1FB021C80239B00134001D10023BB6101F0CAFBBB69181CBD4608B080BDC046FFFF0000BC01002080B586B040
:4008800000AFF860B9607A60FB681A4A934201D9512200E050221323FB181A70FB68181CFFF782FF031C7B617B69002B1DD11323FB1819787A68BB68081C111C1A1C0023A1
:4008C00001F0E4FAC04601F077FB021C01231340F9D001F071FB021C80239B00134002D001235B427B6101F089FB7B69181CBD4606B080BDFFFF000080B500AF02F0D8F9BF
:40090000031C1B680C2B00D1FEE7FEE780B586B000AF224B7B61224B3B61204B7B6135E03B691B68FB603B695B68BB603B699B683B6000237B600CE0FB681A68BB681A60C9
:40094000BB680433BB60FB680433FB607B6804337B607A683B689A42EED13B69DB683B6000237B6008E0BB6800221A60BB680433BB607B6804337B607A683B689A42F2D143
:400980003B6910333B617B69013B7B617B69002BC6D102F093F9FFF793FCFEE701000000282F000080B582B000AF184B174A126801218A431A6000237B600FE07B68032B17
:4009C00004D8134B7A689200D35800E0114B124A796889008B507B6801337B607B682F2BECD9FFF78BFB0D4B00221A600C4B1B68002B02D10A4B00221A60044B034A1268FE
:400A000001210A431A60BD4602B080BD0000104000000000F908000000000020C8000020C000002080B582B000AF786039607A683B68101C00211A1C02F06FF9BD4602B004
:400A400080BDC04680B500AF054B03221A60054B03221A60044B00221A60BD4680BDC0463000304030003140000E3F4080B584B000AF78600A1CBB1C1A800E23FB18002285
:400A80001A8012E0BB1C1B88013B7A68D3181B7899B20E23FB180E22BA1812888A181A80BB1C1A88BB1C013A1A80BB1C1B88002BE8D10E23FB181B885B429BB2181CBD46A2
:400AC00004B080BD80B586B000AFF860B960BB1D1A801723FB1800221A701423FB1800221A801AE01423FB181A88FB68D3181B78DAB21423FB181B88B968CB181B789A4256
:400B000004D01723FB1802221A700DE01423FB181A881423FB1801321A801423FA18BB1D12881B889A42DDD31723FB181B78181CBD4606B080BDC04680B586B000AFF8608A
:400B4000B9607A601723FB1800221A70FB68002B02D0002001F088FD0FE07B68013B7B60FA68BB68D2187B68D31819781723FB181722BA1812788A181A707B68002BECD103
:400B80001723FB181B78181CBD4606B080BDC04690B583B000AF06237B60002000F0CCF8031E01D100237B601C4B1B681B68C03BFC1C0020C0211A1CFFF7BEFF031C237019
:400BC000174B1B681A78FB1CF91C09788A1A1A70FB1CFA1C127852421A70114B1B681B78FA1C12789A4204D10C4B1B681B68002B02D1002001F038FD0A4B1B68402B02D055
:400C00007B68002B05D0074B00221A60002000F001F900F009F8BD4603B090BDD8000020D4000020C000002080B500AF034B80221A6001F023FDBD4680BDC046C000002094
:400C400080B584B000AF021CFB1D1A70FB1D1B78022B03D11E4B00221A6034E0FB1D1B78181C00F069F8031E2AD10F23FB1800221A701CE00F23FB181A78131C5B069B1A82
:400C8000DB01144A99180F23FA18FB1D12781B78D31A5A425341DBB2081C191C00F050FE0F23FB181A780F23FB1801321A700F23FB181B78002BDDD0054B80221A6002E0B8
:400CC000034B00221A6001F0D9FCBD4604B080BDC0000020D0FF010080B582B000AF134B1B681022134002D1114B00221A60104B1B68802B17D1FB1D00221A700C4B0022AB
:400D00001A60FB1D1B780220191C00F065FE031E09D0FB1D1B780220191C00F05DFE031C181C00F007F8BD4602B080BD00030B40C00000200047C04690B587B000AF021CA5
:400D4000FB1D1A70FB1D1B780320191C00F044FE031C0133DC01FB1D1B780420191C00F03BFE031CE318FB601323FB1800221A701223FB1800221A70FB1D1B780320191CDE
:400D800000F02AFE031C0133DB017B611FE07A690B23FB1812781A700B23FB181B78002B08D00B23FB181B78FF2B03D01323FB1801221A701223FB181222B9180B22BA18EF
:400DC000097812788A181A707B6901337B617A69FB689A42DBD31223FB181222BA18127852421A701223FB181C78FB1D1B780120191C00F0F1FD031C9C4204D11323FB182C
:400E00001B78002B01D1062300E00023181CBD4607B090BD90B5D94CA54400AF021CD84BAC2189008C46BC4463441A70D54BFB1800221A80D44BFB180A221A70AA239B00E0
:400E4000FB1800221A70D14BFB1800221A80FFF793FB62B6CE4BFB1800221A70C84BAC2292009446BC4463441B78002B07D0C44BAC2292009446BC4463441B7800E0FF2346
:400E8000AA225200B81896225100A0229200BA18FFF72CFA031CA7229200BA181360B84BAC2292009446BC4463441B78002B06D0B54BFB181A78B44BFB18013A1A70B24B49
:400EC000FB181B78002B05D0A7239B00FB181B68002BC3D1A7239B00FB181B68002B01D000F098FCA0239B00FB181B88062B08D9A84BAC2292009446BC4463441B78012B5E
:400F000004D0A34BFB1804221A7073E0A14BAC2292009446BC446344DB789BB21B0299B29C4BAC2292009446BC4463449B789AB2944BFB180A431A80924BFB181B88073337
:400F4000A0229200BA181288934207D88D4BFB181B88DA1D96235B009A4204D98C4BFB1803221A7046E0874BFB181B880533894AAC2189008C46BC446244D35C9BB21B02F2
:400F800099B2804BFB181B880433824AAC2080008446BC446244D35C9AB27F4BFB180A431A80784BFB181B8806337A4AAC2189008C46BC446244D35C172B04D0744BFB180C
:400FC00004221A7016E06F4BFB181B8804339BB2AA225200BA18101C191CFFF747FD031C1A1C6D4BFB181B88934203D0684BFB1808221A70694BFB1800221A80644BFB18A2
:401000001B78002B01D000F0F7FB654BFB18614AAC2189008C46BC44624412791A705C4BFB1804221A705B4BAC2292009446BC4463445B78313B142B00D94DE39A00594B38
:40104000D3181B689F46AA239B00FB181B78012B1DD14C4BFB181B88002B18D10020FFF76BFE031C5A425341DBB21A1C494BAC2189008C46BC4463441A71484BFB1801224C
:401080001A80434BFB1800221A7000F0B5FB00F0B3FBAA239B00FB181B78012B00D09AE0384BFB181B88032B05D0364BFB181B88832B00D08FE0374BAC2292009446BC446B
:4010C00063449B799BB21B0299B2324BAC2292009446BC4463445B799AB2334BFB180A431A80A5239B00FB1800221A80284BFB1800221A70294BFB1800221A80214BFB1864
:401100001B88032B0DD01F4BFB181B88DA1E2823F918AA235B00FB180733081C191C01F0F3FD1F4BFB181B78012B4FD81C4BFB181B785A021C4BFB181B88D318DB01A42268
:401140009200BA181360A5239B00FB18802292001A80154BFA18A5239B00FB1812881B889A4201D2002200E00A22094BFB181A70074BFB181B78002B18D03DE34CFDFFFFEF
:4011800057FDFFFFAA020000A9020000A6020000AD020000A4FEFFFF9A020000AE02000099020000482E000096020000D34BFC18A4239B00FB181A682823FB18101C191CB2
:4011C0008022FFF77FFC031C237004E0CB4BFB1809221A7010E30FE3AA239B00FB181B78012B6BD1C64BFB181B88012B66D1C54BFB181B78012B61D8C34B1B681B681A0C8E
:40120000C24BFB181A70BF4BFA18C04BFB1812781B789A420BD1BC4B1B681B68DB099AB2A9239B00FB18D205D20D1A8013E0B54BFA18B64BFB1812781B789A4205D9A92332
:401240009B00FB1800221A8005E0A9239B00FB18802292001A80A9239B00FB181B88DAB2AB4BAC2189008C46BC4463441A71A9239B00FB181B881B0A9BB2DAB2A44BAC2107
:4012800089008C46BC4463445A71A14BAC2292009446BC446344FF229A719D4BAC2292009446BC4463440122DA719A4BFB1804221A80924BFB1800221A709DE29CE2944B01
:4012C000AC2292009446BC4463445B78342B1AD1AA239B00FB181B78012B00D08CE2884BFB181B88032B00D086E28B4BFB1880221A80894BFB181B882822BA18101C002171
:401300001A1C01F00AFDAA239B00FB181B78012B00D0AEE07A4BFB181B88022B00D8A8E07D4BFB181B882822BA18D118744BFB181B88DA1EAA235B00FB180733081C191C21
:4013400001F0E2FC744BFA186D4BFB1812881B88D3189AB2704BFB18033A1A80684BFB1880221A80A3239B00FB18802292001A80694BFA18624BFB1812881B889A4200D036
:401380006EE0634BAC2292009446BC4463449B799BB21B0299B25E4BAC2292009446BC4463445B799AB25C4BFB180A431A805A4BFA18A3239B00FB1812881B889A4201D225
:4013C000002200E00A224D4BFB181A704B4BFB181B78002B00D00FE24A4BFB181B789BB25B0299B24D4BFB184B4ABA1812888A181A80454B1B681B68DA09494BFB181A8090
:40140000414B1B681B687F22134006D0444BFB181A88434BFB1801321A80404BFA18404BFB1812881B889A4208D2344BFB180A221A70394BFB1800221A80DDE1374BFB1882
:401440001A882823FB18101C191C00F055FE031E01D00A2200E00022284BFB181A7003E0264BFB1803221A702B4BFB1800221A80C2E1C1E1AA239B00FB181B78012B04D1E9
:40148000254BFB1800221A80C4E1B5E1AA239B00FB181B78012B30D11F4BFB181A88184BFB181B88D3181A1C96235B009A421FD8124BFB1800221A70174BFB181B882822B9
:4014C000BA18D1180E4BFB181A88AA235B00FB180433081C191C01F017FC0F4BFB180E4AB918074ABA18098812888A181A8004E0024BFB1803221A707EE17DE1AD020000D5
:40150000AA02000099020000D80000208F020000A4FEFFFFAE020000A60200008A020000A2020000C74BFB181B88002B27D1C64BAC2292009446BC446344C44A03CA03C335
:40154000AA239B00FB1801221A70C14BFB1808221A80C04BFB1800221A80BD4BFB181A88AA235B00FB18191D2023FB18081C191C01F0CAFBB84BFB1800221A703CE1B64B13
:40158000FB1804221A7037E1AA239B00FB181B78012B00D092E0AB4BFB181B88032B00D08CE0AE4BAC2292009446BC4463449B799BB21B0299B2A94BAC2292009446BC44ED
:4015C00063445B799AB2A2239B00FB180A431A80A34BFB181B785A02A2239B00FB181B88D318DB01A1229200BA181360A2239B00FB181B889B4A934201D8002200E00A228C
:40160000954BFB181A70944BFB181B78002B00D0F2E0954BFC18A1239B00FB181B680020191C8022FFF788FA031C23708C4BFB181B789BB25B0299B28C4BFB18A22292001F
:40164000BA1812888A181A80854BFB181B78012B1FD1864BFB181B88854A934219D10520002100F0B9F9031CDAB27F4BFB187E49791809788A1A1A700620002100F0ACF9C8
:40168000031CDAB2784BFB187749791809788A1A1A70754BFB181B785B42DAB26F4BAC2189008C46BC4463441A716B4BFB1800221A70674BFB1801221A809DE09CE00020F6
:4016C000FFF73AFB031E02D16A4B80221A60FEF763FF00F0D3FF8FE0674B1B68002B00D184E0AA239B00FB181B78012B00D07DE05A4BAC2292009446BC4463445A785F4B74
:40170000AC2189008C46BC4463441A705B4BAC2292009446BC4463444A4ABA1812885A80564BAC2292009446BC446344AA225200BA1804325A600C23FB18181C00210C22C8
:4017400001F0EBFA4E4BAC2292009446BC446344AA225200BA1804329A60474B1B681822B9180C22BA18081C111C9847384BFB18434AAC2189008C46BC44624492881A8004
:40178000334BFB181A882623FF339A420CD93C4BAC2292009446BC4463449A68AA235B00FB1804339A420DD0354BAC2292009446BC4463449B68002B0DD1254BFB181B8892
:4017C000002B08D0244BFB180E221A70204BFB1800221A800FE02A4BAC2292009446BC4463441A681C4BFB181A7004E01A4BFB1805221A70FFE7C046174BFB181978AA23D9
:401800005B00FA18124BFB181B88081C111C1A1C00F03AF81B4BAC2292009446BC4463441B78002B01D1FFF715FBAA239B00FB181B78012B01D1FFF70DFBBD46AD239B002A
:401840009D4490BDAA02000070FDFFFF402E0000AE020000A6020000AD020000A4FEFFFF99020000FF010000A102000082020000FF030000C00000207C01002068FDFFFF6A
:401880005CFDFFFF57FDFFFF90B585B000AF3960111CFB1D021C1A703B1D0A1C1A803B6801221A703B680133FA1D12781A703B6802333A1D1288D2B21A703B6803333A1D5F
:4018C0001288120A92B2D2B21A703B1D1B8804339BB20E22BC183A68101C191CFFF7C6F8031C23803B1D1B8804333A68D3180E22BA181288D2B21A703B1D1B8805333A68A6
:40190000D3180E22BA181288120A92B2D2B21A703B1D1B8806333A68D31817221A703B1D1B8807339AB239683B1D081C111C1A1C9623FEF735FE031C181CBD4605B090BDF4
:4019400080B5A6B000AF78600A1CFB1C1A707B689022BA1813609023FB181B68DA098E23FB181A807B687F2293438822BA1813609623FB1800221A8014E09623FB181B88F6
:401980009622BA1811888822BA1812688A1811780822BA18D1549623FB181A889623FB1801321A809623FB181B887F2BE5D97B687F2213400822BA18F91C0978D1548E23A5
:4019C000FB181A880823FB18101C191C00F094FBBD4626B080BDC04680B586B000AF021CFB1D1A70BB1D0A1C1A701323FB1802221A700023FB60FB1D1B780C2B00D9A8E0DE
:401A00009A00774BD3181B689F46BB1D1A78131C5B069B1ADB01734A944663447B611323FB1801221A709AE0BB1D1A78131C5B069B1ADB016C4A944663447B611323FB18FB
:401A400004221A708BE0BB1D1A78131C5B069B1ADB01664A944663447B6180E0BB1D1A78131C5B069B1ADB01614A944663447B611323FB1804221A7071E0BB1D1A78131CDD
:401A80005B069B1ADB015B4A944663447B611323FB1801221A7062E0BB1D1A78131C5B069B1ADB01544A944663447B611323FB1801221A7053E0BB1D1A78131C5B069B1A9C
:401AC000DB014E4A944663447B6148E0BB1D1A78131C5B069B1ADB01494A944663447B613DE0BB1D1A78131C5B069B1ADB01454A944663447B6132E0BB1D1A78131C5B06D2
:401B00009B1ADB01404A944663447B611323FB1804221A7023E0BB1D1A78131C5B069B1ADB013A4A944663447B611323FB1801221A7014E0BB1D1A78131C5B069B1ADB0150
:401B4000334A944663447B611323FB1804221A7005E0002000F088FD00237B61C0461323FB181B78012B03D17B691B78DBB2FB601323FB181B78022B0BD17B691B78DBB2EF
:401B8000FB607B6901331B78DBB21B02FA681343FB601323FB181B78042B1BD17B691B78DBB2FB607B6901331B78DBB21B02FA681343FB607B6902331B78DBB21B04FA68EA
:401BC0001343FB607B6903331B78DBB21B06FA681343FB60FB68181CBD4606B080BDC0469C2E0000C0FF0100C1FF0100C5FF0100C9FF0100D0FF0100D1FF0100D6FF0100E3
:401C0000D2FF0100D4FF0100D8FF0100DCFF0100E0FF010080B500AF00F032F8BD4680BD80B500AF064B064A1268802109060A431A6000F019F800F01FF8BD4680BDC04668
:401C40000000254080B500AF064B1B78002B04D1FFF7E0FF034B01221A70FFF7E1FFBD4680BDC0468001002080B500AF0A2000F0D3FCBD4680BDC04680B500AFBD4680BD73
:401C800080B500AF234B234A126823490A401A60224B00221A60224B224A1A60224B234A1A60234B00221A60224B00221A60224B224A1A60224B00221A600A2000F0C0FCC6
:401CC0000A20032100F054FC1E4B0A20191C00F029FC1D4B00221A601C4B00221A601C4B00221A601B4B1422FF321A601A4B00221A601A4B00221A60194B10221A70194BA2
:401D000000221A80184B00221A60184B00221A60BD4680BD70002540EFEFFFFF000025406000254096080080000325400703008004032540100325400002254007010080EB
:401D400004022540D9270000C80E2540880E2540480F2540080F2540C80F2540880F25406C0300208C030020880300207C03002080B586B000AFF860B9607A603B600423A3
:401D80007B61BB68002B20D0324B1B78DBB2102B0CD10A2000F054FC2F4B1B680122134001D0082300E000237B610EE0294B1B78DBB2602B09D1294B1B889BB20822934351
:401DC0009AB2264B1A8000237B617B69002B38D1204B28221A70224B00221A60214B00221A60214B7A681A60204BBA681A603B68DAB21F4B1A70FB685B00FF221340FB60A6
:401E0000164B1B889BB2022293439AB2134B1A80184B194A1A60194B40221A60184B40221A603B680122134005D000F0FFF8154BFA681A6005E0134BFA681A60124B0222A3
:401E40001A600A2000F0E8FB7B69181CBD4606B080BDC0466C030020640025408C030020900300207C030020800300208403002070030020000F254017030000800F25401F
:401E8000880F2540400225406800254080B586B000AFF860B9607A603B6004237B61BB68002B20D0374B1B78DBB2102B0CD10A2000F0C6FB344B1B680122134001D0082368
:401EC00000E000237B610EE02E4B1B78DBB2602B09D12E4B1B889BB2082293439AB22B4B1A8000237B617B69002B43D1254B29221A70274B00221A60264B7A681A60264B9F
:401F0000BA681A603B68DAB2244B1A70FB685B00FF22134001221343FB601C4B1B889BB2012293439AB2194B1A801D4B1D4A1A60184B1B68072B03D81B4B04221A6009E012
:401F40001A4B1A4A1268802149000A431A60164B08221A603B680122134005D000F066F8134BFA681A6005E0114BFA681A60114B02221A600A2000F04FFB7B69181CBD465C
:401F800006B080BD6C030020640025408C03002088030020780300207403002070030020000F254017030000C80F254060002540400225406800254080B582B000AF0A2074
:401FC00000F03EFB0B4B1B889BB27B600A4B1B78DBB220221340DBB2002B03D07B68042213437B600A2000F017FB7B68181CBD4602B080BD8C0300206C03002080B582B0EE
:4020000000AF0A2000F01CFB074B1B889BB27B60054B00221A800A2000F0FEFA7B68181CBD4602B080BDC0468C03002080B582B000AF01237B60084B1B682022134001D076
:40204000082300E000237A6813437B60034B7A681A60BD4602B080BD640025406800254080B584B000AF021CFB1D1A700E4B1B68DAB20F23FB1840218A431A70FB1D1B7805
:402080009B01DBB240221340D9B20F23FB180F22BA1812780A431A70034B0F22BA1812781A60BD4604B080BD0002044080B584B000AF021CFB1D1A700E4B1B68DAB20F230D
:4020C000FB1840218A431A70FB1D1B789B01DBB240221340D9B20F23FB180F22BA1812780A431A70034B0F22BA1812781A60BD4604B080BD0003044090B5A9B000AF7860A3
:40210000396000239822BA18136000239422BA1813607B68594A934200D9A4E03B68002B00D1A0E00C23FB1808331A1C3B68101C191C802200F0E8FD7B68514A934201D994
:40214000504A00E0504A0C23FB181A600C23FB187F225A604D4B0C22BA181A604C4B4D4A1A60C046494B1B681B0F1A07F0231B069A4204D1454B1B68FF2213400BE0434BEB
:402180001B681B0F1A07A0231B069A4202D03F4B1B6800E000239822BA1813609823FB181B68002B5ED19F23FC1800F00EFB031C237000F075F8031C9422BA181360942356
:4021C000FB181B68002B05D100F0A6F8031C9822BA1813609823FB181B68002B30D10C23FB182D4A1A600C23FB181A687B681B041A430C23FB181A60244B0C22BA181A6024
:40220000234B264A1A60C046204B1B681B0F1A07F0231B069A4204D11C4B1B68FF2213400BE01A4B1B681B0F1A07A0231B069A4202D0164B1B6800E000239822BA1813602E
:402240009423FB181B68002B05D100F099F8031C9422BA1813609F23FB181B78181C00F0B8FA04E003E004239822BA1813609823FB181B68181CBD4629B090BDFF0300009A
:40228000FF010000B6D70001B6D70000080010400400104004000080B6D800000500008080B584B000AF0023FB603B1D154A1A60154A3B1D5A60154B3A1D1A60144B154A99
:4022C0001A60C046114B1B681B0F1A07F0231B069A4204D10D4B1B68FF2213400BE00B4B1B681B0F1A07A0231B069A4202D0074B1B6800E00023FB60FB68181CBD4604B0DE
:4023000080BDC046B6E900008C01002008001040040010401600008080B582B000AF00237B60134B134A1A60134B144A1A60C0460F4B1B681B0F1A07F0231B069A4204D13A
:402340000B4B1B68FF2213400BE0094B1B681B0F1A07A0231B069A4202D0054B1B6800E000237B607B68181CBD4602B080BDC04608001040B6E800000400104015000080D2
:4023800080B584B000AF0023FB603B1D154A1A60154A3B1D5A60154B3A1D1A60144B154A1A60C046114B1B681B0F1A07F0231B069A4204D10D4B1B68FF2213400BE00B4BD7
:4023C0001B681B0F1A07A0231B069A4202D0074B1B6800E00023FB60FB68181CBD4604B080BDC046B6EA00008C01002008001040040010401700008090B58BB000AF786022
:402400002723FC1800F0E1F9031C2370184B1A680C23FB181A60174B1A680C23FB185A607B68033B144AD35C1A1C0C23FB189A60124B1A680C23FB18DA601C23FB18104A1A
:402440001A600C23FA181C23FB185A600D4B1C22BA181A600C4B0D4A1A600A4B1B682723FB181B78181C00F0B4F9BD460BB090BD08010B4000010B40D02E000030001040C9
:40248000B6EA000008001040040010401700008080B584B000AF78600023FB60154B154A126801210A431A60134B144A1A60144B134A1268802109020A431A607B68002BBC
:4024C00012D01023FB600CE0012000F0E7F800F019F8031E02D00023FB6005E07B68013B7B607B68002BEFD1FB68181CBD4604B080BDC04660F02E4078002E40022000001A
:4025000010002E4080B582B000AF054B1B68012213407B607B68181CBD4602B080BDC0460C002E4080B584B000AF021C3960FB1D1A7080239B05FB60FB1D1B781F2B02D97B
:40254000002000F091F8FB1D1B7810339B00FA68D3181B68BB60FB1D1B7810339B00FA68D3183A681A60BB68181CBD4604B080BD90B587B000AF021CFB1D1A70BB1D0A1C28
:402580001A70BB1D1B78032B02D9002000F06CF8FB1D1B781F2B02D9002000F065F8FB1D1B7803221340DB0006337B611323FC1800F00BF9031C2370FB1D1B789B08DBB28E
:4025C0009B00144A944663441B68FB607B6903229A40131CDA43FB681340FB60BB1D1A787B699A40131CFA681343FB60FB1D1B789B08DBB29B00074A94466344FA681A60B5
:402600001323FB181B78181C00F0E3F8BD4607B090BDC04600E400E080B582B000AF021CFB1D1A70054BFA1D12781F210A40012191400A1C1A60BD4602B080BD00E100E057
:4026400080B582B000AF021CFB1D1A70054BFA1D12781F210A40012191400A1C1A60BD4602B080BD80E100E080B582B000AF021CFB1D1A7001BEBD4602B080BD80B500AFD8
:40268000044B044A12681204120C03490A431A60BD4680BD0CED00E00400FA0580B582B000AF021CBB1D1A80BB1D1B88044A12785343181C00F080F8BD4602B080BDC0467D
:4026C000E400002080B500AF0E4B0E4A126801218A431A600B4B0B4A126802218A431A60094B094A126830218A4310210A431A60054B054A126807218A4301210A431A60A1
:40270000BD4680BD00F02E4000FF2E4080B500AF0E4B0E4A126802218A431A600C4B0C4A126807218A4302210A431A60084B084A126830218A4320210A431A60034B034A2F
:40274000126801210A431A60BD4680BD00F02E4000FF2E4080B500AFFFF7B4FF044B044A1268802109060A431A60BD4680BDC04600F02E4080B584B000AF78600C4B1B6862
:4027800001221340FB607B68002B02D0012B03D005E0FFF797FF06E0FFF7B8FF03E00020FFF762FFC046FB68181CBD4604B080BD00F02E40000000000230800803D0013856
:4027C000FDD1C046C046C0467047EFF3108072B6704780F31088704780B582B000AF00233B60C04B1B68002B02D0BE4B1B689847BD4B1B680122134002D0BC4B00221A60EF
:40280000BB4B1B78DBB220221340DBB2002B38D0B84B1A6880235B0013400AD0B64B1B889BB2C022920013439AB2B34B1A8001233B60B04B1B68012213400AD0AE4B1B88A5
:402840009BB29022920013439AB2AB4B1A8001233B603B68002B14D0A54B1B78DBB201221340DBB2002B01D0012300E00223A24A128892B213439AB29F4B1A809C4B0022F3
:402880001A709B4B1B78DBB220221340DBB2002B00D1A4E1974B1B681022134018D0974B10221A60924B1B78DBB201221340DBB2002B01D0012300E002238F4A128892B2A9
:4028C00013439AB28C4B1A80894B10221A70AAE1874B1B78DBB208221340DBB2002B29D0844B1B68022213400ED0844B02221A60814B1B889BB28822920013439AB27E4B13
:402900001A8001233B6015E0794B1B78DBB201221340DBB2002B03D0754B25221A7009E0734B24221A70764B1B68002B02D0754B10221A606E4B1B78DBB204221340DBB2D0
:40294000002B00D113E16A4B1B78DBB201221340DBB2002B5BD06C4B1B680822134033D06A4B1A686A4B1B681F211940694B1B68CB18D31A7B607B68082B02D908237B609E
:402980000CE07B68002B09D1634B634A126863490A401A6008237B6001233B6010E0604B1A685C4B1B68D2185E4B1B68DBB21370584B1B685A1C574B1A607B68013B7B601A
:4029C0007B68002BEBD11EE04F4B1B680422134019D0534B1A684F4B1B68D218514B1B68DBB213704B4B1B685A1C4A4B1A60494B1A68464B1B689A4203D24B4B04221A608B
:402A000001E001233B60494B494A1A60AFE0394B1B680222134032D0384B02221A60454B1B681F221A40434B196880231B020B4001D0012300E00023D2183F4B1B689A1ABA
:402A40003D4B1A603C4B1A683C4B1A602A4B1B889BB28422920013439AB2274B1A80384B374A1268802149020A431A60344B344A126834490A401A6001233B6077E0324B83
:402A80001B681022134067D022E02B4B1A681C4B1B689A421BD21A4B1B685A1E264B1B689A4205D1294B40221A60164B40221A60274A284B1968204B1B68CB181B78DBB241
:402AC00013601D4B1B685A1C1B4B1A6000E005E0184B1B681F221340082BD6D11B4B10221A6044E0840100208C0E2540880E25406C0300200C0F25408C030020000F254002
:402B000080030020880F2540CC0F254078030020080325408803002060002540FFFEFFFF740300204003254068002540C00F2540ED0F000008022540900300207C03002043
:402B400004022540FFFFFEFF8C0F2540800F25404002254084030020344B1B684022134005D0334B1A68334B1A6001233B603B68002B58D0304B304A126830490A401A60C8
:402B80002F4B00221A602F4B00221A602E4B1B78DBB202221340DBB2002B15D02B4B1B78DBB201221340DBB2002B01D0092300E00A23274A128892B213439AB2244B1A8074
:402BC000224B60221A702EE0224B234A126820210A4001D0182200E010221A6023E01B4B1B78DBB210221340DBB2002B1BD11B4B1A4A1268520052081A60144B10221A70A1
:402C00000D4B0D4A126816490A401A600A4B0A4A126814490A401A60104B104A1268802109060A431A60BD4602B080BD8C0F2540900300207C03002060002540FFFEFFFF5A
:402C4000C80F2540880F2540700300206C0300208C030020680025406400254000002540FF5FFFFFFFFCFFFF80B582B000AF78600A1CBB1C1A80BB1C1A887B681A60BD469D
:402C800002B080BD80B582B000AF021CBB1D1A80BB1D1B88181CFFF701FDBD4602B080BD80B500AF0223FF33181CBD4680BDC046014B18687047C046500100200E4B70B5BD
:402CC00000251E1C0D4CE41AA410A54204D0AB00F35898470135F8E700F014F9084B00251E1C084CE41AA410A54204D0AB00F35898470135F8E770BD102F0000102F0000C0
:402D0000102F0000182F0000002310B5934203D0CC5CC4540133F9E710BD031C8218934202D019700133FAE7704700009B0000000030000038B5FFF7B3FF00F03DF80321FE
:402D40001948FFF791FF0120FFF79CFF16483038406A04218007800F084381B2009012480C38FFF781FF1148016802221143009189B2FFF779FFB8210D48FFF775FF0C488D
:402D8000032109021438FFF76FFF094C5321D83C2046FFF769FF07210648FFF765FF54212046FFF761FF38BD70F02E40001F2E40D8102E4098142E4010B5002400F006F8FB
:402DC000002800D00124204610BD0000174902460B680020002B08D10A605207520F012A04D0022A10D0086012207047112292018A80CA80032252020A810122D2024A81E4
:402E000040228A8105220DE0092252028A80CA80012252030A810322D2024A81012252028A810422CA810A82704700009C0100200000000000300F40000400400F4000046E
:402E40009E11340E0032010146100000D8110000D8160000BE12000074140000D81600008C14000024150000BE12000088150000BE160000D8160000D8160000D8160000D6
:402E8000D8160000D8160000D8160000D8160000D8160000D816000092100000521B00000A1A0000281A0000461A00005C1A00007A1A0000981A0000CC1A0000B61A000037
:402EC000E21A0000F81A0000161B0000341B0000030405060708090A0B0C0E0F101112131415161718191B1C1D1E1F2021222325262728292A2B2E2F303132333435000054
:402F000043000000F8B5C046F8BC08BC9E46704789020000A5090000F8B5C046F8BC08BC9E46704761020000382F0000D00000208800000040020000000000002C2D0000AC
:402F4000302D00000024F400803E0000100000000000401F010000000000000000000000000000000000000000000000000000000000000000000000002F0000000000007F
:402F80000000000000000000000000000000000000000000000000000000000000000000000000000000000000000000000000000000000000000000F00000200000000001
:402FC00000000000000000000000000000000000000000000000000000000000000000000000000000000000000000000000000000000000000000000000000000000000D1
:403000000040002011300000C1410000C141000080B500AF024B83F3088801F0DBF8C0460040002080B500AF244B12221A6002F0A9FD234B181C02F077FF012002F0B2FD25
:40304000182002F03FFB1F4B1F4A1A601F4B8022D2051A601E4B1E4A126802210A431A601C4B1D4A1A601D4B00221A601C4B1C4A126808218A431A60FA23DB00181C02F0EC
:403080006DFB184B181C02F093FC174B00221A60164B174A1A60174B802212061A60164B00221A60154B40221A60084B8022D2051A60024B11221A60BD4680BD3000104087
:4030C000001BB70004010B40060000800C020B4078002E407C002E406A2D000064F02E406CF02E40DC050000000301400000014040FF008008010B4000010B4008010140CD
:4031000080B582B000AF72B6454B00221A60FB1D00221A7023E0FB1D1A78131C5B009B185B00404A9B183B603B681A78597809020A43997809040A43DB781B061343191C7C
:403140003B681A795B791B0213439BB2081C191C01F0CCF8FB1D1A78FB1D01321A70FB1D1B78012BD7D9304BEE2212061A602F4BEE221A602E4B992212041A602D4B992259
:4031800012041A602C4B992212041A602B4B992212041A602A4A2A4B1B78DBB202210B43DBB21370274A274B1B78DBB23C218B43DBB214210B43DBB21370214A204B1B78BB
:4031C000DBB216210B43DBB213701F4BD82212041A601E4B20221A601D4BC02292021A601C4BC0221A601C4BB022D2031A601B4B802212021A601A4BC0221A60194BD8223C
:4032000012041A60184B03221A60184B24221A60FFF708FF01F07AF8BD4602B080BDC0466CF02E4058840100000002400005024000500F4010500F4020500F4030500F4075
:4032400000700F4001700F4008000440000104400801044000020440080204400C0204400003044008030440000504400805044010B5064C2378002B07D1054B002B02D0D9
:40328000044800E000BF0123237010BD4012002000000000E082010008B5084B002B03D00748084900E000BF07480368002B00D108BD064B002BFBD09847F9E700000000FC
:4032C000E082010044120020C00C00200000000080B500AF0D4B00221A700D4B00221A700C4B00221A6000F0BFF862B60A4B181C01F0D4FB00F0A8F8002000F0BBF803F0DC
:403300006DFC00F07BF900F073F8F8E79523002094230020902300201D33000090B587B000AF7860396000237B617B684F2B55D87B689A002B4BD3181B689F461223FC1800
:40334000002001F045FC031C23800823FB1800229A710823FB18181C03F03CFC06237B6102E07B69013B7B617B69002BF9D136E0012001F02BFA32E01223FC18002001F0BC
:4033800027FC031C23802AE0174B1B78042B11D1002001F03FFA002000F0CCFF002001F015FA01F0E5FA01F0CBFA01F059FA02F069FB14E013E00D4A3B68111C1A1C02234A
:4033C000081C111C1A1C03F0C0FB08E0074B00221A7004E000200FF0D9FA00E0C046BD4607B090BDE4820100E02700208C23002080B500AF01F0AEFA031E03D0104B1B7833
:40340000012B1AD1642002F0AFFA01F0A3FA031E03D00B4B1B78012B0FD1012000F02AF8012001F0D3F9074B01221A70044B00221A7000F0BFF800F02DFABD4680BDC046D0
:40344000942300209523002080B500AF01F090FA01F076FA034B181C01F014FA00F07AF8BD4680BD9935000080B500AFC046BD4680BDC04680B582B000AF78607B68002BC0
:4034800005D10A4B1B88181C10F018F807E07B68012B04D1054B1B88181C10F045F800F089F8C046BD4602B080BDC046A886010080B500AF1A4B1B78002B23D1194B1B684B
:4034C0005A1E184B1A60174B1B68002B25D1154BFA2292001A60144B1B7801225340DAB2114B1A70114B1B78002B05D10E4B1B78181C01F06BF910E00B4B1B78181C01F06C
:4035000089F90AE0094B1B78002B03D1002001F05DF902E0002001F07DF9BD4680BDC0468C230020C40C0020C80C00209523002080B500AF02F098FC021C8023DB0013403F
:4035400006D0FFF7B5FF8023DB00181C02F09AFCBD4680BD80B500AF02F06EFB0D4B181C01F01EFA0120012102F0A4FB0120012102F0CCFB0120202102F02EFC012002F01C
:40358000B9FC80235B00181C02F0F6FB02F02AFBBD4680BD3135000080B500AF044B01221A7001F0E5F901F0CBF9BD4680BDC0469423002080B584B000AF0E4B1B881B04D0
:4035C0000C4A92881343FB603B1C0C22BA181A603B1C04229A80084B5A883B1C1A813B1C181C0021002200230FF0CCFFBD4604B080BDC046A88601007884010090B583B0C2
:4036000000AF194B1B78032B03D0174B1B78022B27D1FC1D032003F0D5FA031C2370BC1D02F08BFC031C2370FB1D1B78032B0CD105F090FA031E042B04D005F08BFA031E21
:40364000062B09D102F004FA06E005F083FA031E022B01D002F0FCF9BB1D1B78181C02F070FCBD4603B090BDE027002080B500AF00F09EFEBD4680BD80B584B000AF78602A
:4036800001235B42FB607B68181C0021002200F007F8031CFB60FB68181CBD4604B080BD80B588B000AFF860B9607A6001235B42BB61FB68234A934201D9512200E0502218
:4036C0001723FB181A70FB681B0ADAB21E4B1A70FB68DAB21C4B5A700023FB610AE0FB6902337968FA698A181178174AD154FB690133FB61FA69BB689A42F0D31723FB186F
:403700001978BB680233104A081C111C1A1C002300F0E4FEC04601F005F8021C02231340F9D000F0FFFF021C80239B00134001D10023BB6101F018F8BB69181CBD4608B0B5
:4037400080BDC046FFFF0000F825002080B586B000AFF860B9607A60FB681A4A934201D9512200E050221323FB181A70FB68181CFFF782FF031C7B617B69002B1DD113231C
:40378000FB1819787A68BB68081C111C1A1C002300F032FFC04600F0C5FF021C01231340F9D000F0BFFF021C80239B00134002D001235B427B6100F0D7FF7B69181CBD46D0
:4037C00006B080BDFFFF000080B584B000AF78600A1CBB1C1A800E23FB1800221A8012E0BB1C1B88013B7A68D3181B7899B20E23FB180E22BA1812888A181A80BB1C1A8869
:40380000BB1C013A1A80BB1C1B88002BE8D10E23FB181B885B429BB2181CBD4604B080BD80B5A4B000AF786000238C22BA18136080238822BA1813607B680133DA010823B0
:40384000FB18101C80211A1CFFF780FF15E08823FB181B68013B8822BA1813600823FA188823FB181B68D3181B781A1C8C23FB181B689B188C22BA1813608823FB181B68FE
:40388000002BE4D18C23FB181B68181CBD4624B080BDC04680B500AFFFF7E8FE002000F09DF8BD4680BDC04680B5A6B000AF9723FB1800221A7000238822BA181360002302
:4038C0008422BA181360444B1B88002B00D178E0414B1B88DA013B1C101C80211A1CFFF735FF8323FB183A1C4021525C1A7000239022BA18136043E09023FB181B68013367
:40390000DA013B1C101C80211A1CFFF71FFF00238C22BA18136027E03A1C8C23FB181B68D3181B78002B0BD03A1C8C23FB181B68D3181B78FF2B03D001238822BA181360D9
:403940003A1C8C23FB181B68D31819789723FB189722BA1812788A181A708C23FB181B6801338C22BA1813608C23FB181B687F2BD2D99023FB181B6801339022BA181360A8
:40398000154B1B885A1E9023FB181B689A42B3D89723FB189722BA18127852421A709723FA188323FB1812781B789A4204D18823FB181B68002B08D106238422BA18136030
:4039C00003E006238422BA1813608423FB181B68181CBD4626B080BDA427002080B5B04FBD4400AF021CAF4BC42189008C46BC4463441A70AC4BFB1800221A80C2239B00AB
:403A0000FB1800221A80A94BFB180A221A70A84BFB1800221A7001F083FD62B6A54BFB1800221A709F4BC42292009446BC4463441B78002B07D09B4BC42292009446BC4460
:403A400063441B7800E0FF23E0225200B81896225100994ABA1801F0DBFD031CBE229200BA1813608F4BC42292009446BC4463441B78002B06D08D4BFB181A788B4BFB18BC
:403A8000013A1A70894BFB181B78002B05D0BE239B00FB181B68002BC4D1BE239B00FB181B68002B00D009E3834BFB181B88062B08D9824BC42292009446BC4463441B780D
:403AC000012B04D07B4BFB1804221A706AE07B4BC42292009446BC446344DB789BB21B0299B2764BC42292009446BC4463449B789AB26D4BFB180A431A806B4BFB181B88F5
:403B000005336E4AC42189008C46BC446244D35C9BB21B0299B2644BFB181B880433674AC42080008446BC446244D35C9AB2644BFB180A431A805C4BFB181B8807335E4A47
:403B4000BA181288934204D95A4BFB1803221A7028E0554BFB181B880633584AC42189008C46BC446244D35C172B04D0514BFB1804221A7016E04C4BFB181B8804339BB236
:403B8000E0225200BA18101C191CFFF71DFE031C1A1C4B4BFB181B88934203D0454BFB1808221A70474BFB1800221A80414BFB181B78002B00D073E2434BFB183F4AC421DB
:403BC00089008C46BC44624412791A70394BFB1804221A70394BC42292009446BC4463445B78313B0A2B00D955E29A00374BD3181B689F462E4BFB181B78012B1BD12A4B4C
:403C0000FB181B88002B16D1FFF74EFE031C5A425341DBB21A1C294BC42189008C46BC4463441A71274BFB1801221A80214BFB1800221A7034E233E21D4BFB181B78012BB0
:403C40002DD1194BFB181B88012B28D11B4BC42292009446BC44634400221A71174BC42292009446BC44634400225A71134BC42292009446BC446344FF229A710F4BC422F0
:403C800092009446BC4463440122DA710D4BFB1804221A80074BFB1800221A7000E2FFE1F0FCFFFFF7FCFFFF0A03000007030000060300000D030000EE020000B0FEFFFFDE
:403CC000F60200000E030000F50200002C840100C34BFB181B78012B00D0C1E0C14BFB181B88022B00D8BBE0C2239B00FB181B889422BA18D118BB4BFB181B88DA1EE02302
:403D00005B00FB180733081C191C02F01EFFC2239B00FA18B34BFB1812881B88D3189AB2C2239B00FB18033A1A80AE4BFB1880221A80C2239B00FA18AA4BFB1812881B88D3
:403D40009A4200D082E08023C0229200BA181360A54B1B88002B29D1A44BC42292009446BC4463449B799BB21B0299B29F4BC42292009446BC4463445B799AB2C2239B00ED
:403D8000FB180A431A809A4BFB181B789BB25B0299B2984BFB18C2229200BA1812888A181A80954B934ABA1812881A808E4B1B88002B13D1914BC42292009446BC44634452
:403DC0001A1C8023101C00211A1C02F0C7FE0C23FB18002080211A1CFFF762FC1AE0C0239B00FB181B68013BC0229200BA181360834BC4229200BA18D218C0239B00FB188D
:403E00001B68D3181B789AB27E4B1B88D3189AB27C4B1A80C0239B00FB181B68002BDED1714B1B880133DA019423FB18101C80211A1CFFF735FC6C4B1B8801339AB26A4B52
:403E40001A80714BFB1800221A7003E06E4BFB1803221A70C2239B00FB1800221A801FE11EE15F4BFB181B78012B34D1C2239B00FB181A885B4BFB181B88D3181A1C962395
:403E80005B009A4222D8604BFB1800221A70C2239B00FB181B889422BA18D118514BFB181A88E0235B00FB180433081C191C02F04CFEC2239B00FB18C2229200B918494AC5
:403EC000BA18098812888A181A8004E04E4BFB1803221A70E4E0E3E0424BFB181B88002B45D14A4BC42292009446BC446344484A03CA03C33A4BFB1801221A70454BFB18A4
:403F000008221A80434BFB181A88E0235B00FB18191D8C23FB18081C191C02F016FE324B00221A80374B00221A800023BF229200BA18136010E0384ABF239B00FB181B68DB
:403F4000D31800221A70BF239B00FB181B680133BF229200BA181360BF239B00FB181B687F2BE8D9284BFB1800221A7098E097E01B4BFB181B78012B23D11A4BFB181B88C5
:403F8000032B1ED1184B1B88013B181CFFF748FC021C224BFB181A70204BFB181B785B42DAB2124BC42189008C46BC4463441A71154BFB1800221A70164BFB1801221A80B3
:403FC0006EE06DE0FFF770FC031E2BD1144B40221A60114B56221A700F4B00221A7124E0060300000A030000A4270020B0FEFFFFF5020000F2020000A6270020FCFCFFFF88
:4040000084FDFFFF5C1200200D0300007CFDFFFF248401000E03000024270020F1020000C0000020304B00221A70304B1B88DAB22D4B1A732D4B1B881B0A9BB2DAB22A4B90
:404040005A732B4B1B88DAB2274B1A74284B1B881B0A9BB2DAB2244B5A74264B1B885B429AB2244B1A80234B1B88DAB21E4B1A72204B1B881B0A9BB2DAB21B4B5A721A4B42
:4040800040221A75184B002080211A1CFFF708FB01F05AFC04E0184BFB1805221A70C046154BFB181978E0235B00FA18134BFB181B88081C111C1A1C00F026F8104BC42206
:4040C00092009446BC4463441B78002B00D1A5E40C4BFB181B78012B00D19FE4BD46C4239B009D4480BDC04624270020A4270020A62700205C1200200D0300000E0300007D
:40410000F7FCFFFF0603000090B585B000AF3960111CFB1D021C1A703B1D0A1C1A803B6801221A703B680133FA1D12781A703B6802333A1D1288D2B21A703B6803333A1D65
:404140001288120A92B2D2B21A703B1D1B8804339BB20E22BC183A68101C191CFFF734FB031C23803B1D1B8804333A68D3180E22BA181288D2B21A703B1D1B8805333A688C
:40418000D3180E22BA181288120A92B2D2B21A703B1D1B8806333A68D31817221A703B1D1B8807339AB239683B1D081C111C1A1C962301F0B9F9031C181CBD4605B090BDD1
:4041C00080B500AF02F086FC031C1B680C2B00D1FEE7FEE780B586B000AF224B7B61224B3B61204B7B6135E03B691B68FB603B695B68BB603B699B683B6000237B600CE0FB
:40420000FB681A68BB681A60BB680433BB60FB680433FB607B6804337B607A683B689A42EED13B69DB683B6000237B6008E0BB6800221A60BB680433BB607B6804337B60EC
:404240007A683B689A42F2D13B6910333B617B69013B7B617B69002BC6D102F041FCFFF737F8FEE7010000000887010080B582B000AF184B174A126801218A431A6000234B
:404280007B600FE07B68032B04D8134B7A689200D35800E0114B124A796889008B507B6801337B607B682F2BECD9FEF729FF0D4B00221A600C4B1B68002B02D10A4B002219
:4042C0001A60044B034A126801210A431A60BD4602B080BD0000104000300000C141000000000020C8000020C000002080B582B000AF786039607A683B68101C00211A1C5A
:4043000002F02CFCBD4602B080BDC04680B500AF054B03221A60054B03221A60044B00221A60BD4680BDC0463000304030003140000E3F4080B584B000AF021CFB1D1A70D2
:404340000E4B1B68DAB20F23FB1840218A431A70FB1D1B789B01DBB240221340D9B20F23FB180F22BA1812780A431A70034B0F22BA1812781A60BD4604B080BD000304408B
:4043800080B500AF00F032F8BD4680BD80B500AF064B064A1268802109060A431A6000F019F800F01FF8BD4680BDC0460000254080B500AF064B1B78002B04D1FFF7E0FFF9
:4043C000034B01221A70FFF7E1FFBD4680BDC0466012002080B500AF0A2001F083FABD4680BDC04680B500AFBD4680BD80B500AF234B234A126823490A401A60224B002236
:404400001A60224B224A1A60224B234A1A60234B00221A60224B00221A60224B224A1A60224B00221A600A2001F070FA0A20032101F004FA1E4B0A20191C01F0D9F91D4B37
:4044400000221A601C4B00221A601C4B00221A601B4B1422FF321A601A4B00221A601A4B00221A60194B10221A70194B00221A80184B00221A60184B00221A60BD4680BDD3
:4044800070002540EFEFFFFF0000254060002540E908008000032540070300800403254010032540000225400701008004022540495F0000C80E2540880E2540480F2540E6
:4044C000080F2540C80F2540880F2540A8270020C8270020C4270020B827002080B586B000AFF860B9607A603B6004237B61BB68002B20D0324B1B78DBB2102B0CD10A20E0
:4045000001F004FA2F4B1B680122134001D0082300E000237B610EE0294B1B78DBB2602B09D1294B1B889BB2082293439AB2264B1A8000237B617B69002B38D1204B2822D0
:404540001A70224B00221A60214B00221A60214B7A681A60204BBA681A603B68DAB21F4B1A70FB685B00FF221340FB60164B1B889BB2022293439AB2134B1A80184B194ACC
:404580001A60194B40221A60184B40221A603B680122134005D000F0FFF8154BFA681A6005E0134BFA681A60124B02221A600A2001F098F97B69181CBD4606B080BDC04617
:4045C000A827002064002540C8270020CC270020B8270020BC270020C0270020AC270020000F254017030000800F2540880F2540400225406800254080B586B000AFF86081
:40460000B9607A603B6004237B61BB68002B20D0374B1B78DBB2102B0CD10A2001F076F9344B1B680122134001D0082300E000237B610EE02E4B1B78DBB2602B09D12E4BAF
:404640001B889BB2082293439AB22B4B1A8000237B617B69002B43D1254B29221A70274B00221A60264B7A681A60264BBA681A603B68DAB2244B1A70FB685B00FF22134045
:4046800001221343FB601C4B1B889BB2012293439AB2194B1A801D4B1D4A1A60184B1B68072B03D81B4B04221A6009E01A4B1A4A1268802149000A431A60164B08221A6068
:4046C0003B680122134005D000F066F8134BFA681A6005E0114BFA681A60114B02221A600A2001F0FFF87B69181CBD4606B080BDA827002064002540C8270020C42700203B
:40470000B4270020B0270020AC270020000F254017030000C80F254060002540400225406800254080B582B000AF0A2001F0EEF80B4B1B889BB27B600A4B1B78DBB22022A2
:404740001340DBB2002B03D07B68042213437B600A2001F0C7F87B68181CBD4602B080BDC8270020A827002080B582B000AF0A2001F0CCF8074B1B889BB27B60054B0022BC
:404780001A800A2001F0AEF87B68181CBD4602B080BDC046C827002080B582B000AF01237B60084B1B682022134001D0082300E000237A6813437B60034B7A681A60BD4641
:4047C00002B080BD640025406800254080B584B000AF021CFB1D1A700D4B1B68DAB20F23FB187F210A401A70FB1D1B78DB01D9B20F23FB180F22BA1812780A431A70044B32
:404800000F22BA1812781A60BD4604B080BDC0460003044080B584B000AF021CFB1D1A700E4B1B68DAB20F23FB1840218A431A70FB1D1B789B01DBB240221340D9B20F23AD
:40484000FB180F22BA1812780A431A70034B0F22BA1812781A60BD4604B080BD0002044080B500AF00F062F8054B181C00F020F8032000F029F800F04FF8BD4680BDC046C7
:40488000A948000080B582B000AF786000F04EF87B68181C00F00CF8032000F015F800F03BF8BD4602B080BD80B500AFBD4680BD80B582B000AF7860024B7A689A64BD4661
:4048C00002B080BD0000002090B585B000AF021CFB1D1A701623FB600B23FC1801F02DFB031C23700A4B0A4A12680A491140FA1D1078FA689040021C0A431A600B23FB1861
:404900001B78181C01F01DFBBD4605B090BDC04600E400E0FFFF3FFF80B500AF024B04221A60BD4680BDC04600E100E080B500AF024B04221A60BD4680BDC04680E100E06C
:4049400080B500AF024B04221A60BD4680BDC04680E200E080B500AF044B1B6880221340DB09DBB2181CBD4680BDC0460402044080B582B000AF094B1B68DAB2FB1D7F21CD
:404980008A431A70054BFA1D12781A60FB1D1B78DB09DBB2181CBD4602B080BD1002044080B582B000AF786000F048F87B68181C00F008F8032000F011F800F035F8BD463C
:4049C00002B080BD80B582B000AF7860024B7A681A66BD4602B080BD0000002090B585B000AF021CFB1D1A700623FB600B23FC1801F0A3FA031C23700A4B0A4A1268C02126
:404A00008A43111CFA1D1078FA689040021C0A431A600B23FB181B78181C01F092FABD4605B090BD08E400E080B500AF024B802252001A60BD4680BD00E100E080B500AFEC
:404A4000024B802252001A60BD4680BD80E100E080B500AF094B00221A70094B00221A70084B00221A7000F013F8074B00221A70064B00221A70BD4680BDC046EB270020A9
:404A8000E4270020EA270020D0270020D827002080B500AF00F054FCBD4680BDB0B594B004AF78603E23FB1800221A802823FA183E4B111C1A1C1423081C111C1A1C02F0A3
:404AC00044F83B4B1B78002B04D1FFF7C1FF384B01221A707B68002B5CD0364B7A681A603E23FB181B88002B29D11023FB181C22BA185A601023FB182022BA181A60102311
:404B0000FB1800221A812023FB181B221A802023FB181B225A802023FB1804221A711C23FB1800221A703E23FC181023FA180E23FB18101C191C02F02DF9031C23803E236C
:404B4000FB181B88002B29D13E23FC181A481B49AE231A012823FD1805230093184B0193184B02932B1C02F06BF8031C23803E23FB181B88002B11D1134B01221A703E233B
:404B8000FC18124B181C1A2190220EF07FFC031C238003E03E23FB1801221A803E23FB181B88181CBD4610B0B0BDC0466484010068120020D4270020214F0000D000002095
:404BC00080FC010079020000E0270020A084010090B585B000AF021CFB1D1A70FB1D1B78022B04D90E23FB1801221A804BE0294B1B78042B42D1284B1B78DBB21A1C04236E
:404C000013403BD1FB1D1B78002B0BD1234B1E221A82224B5B6820221A80204B5B6820225A8010E0FB1D1B78012B0CD11B4B96221A821A4B5B68C822D2001A80174B5B68C2
:404C4000C822D2005A80164BFA1D12781A700E23FC18124B181C0CF021FD031C23800E23FB181B88002B08D10B4B1B78DBB204221343DAB2084B1A7005E004E00E23FB180D
:404C80000422FF321A800E23FB181B88181CBD4605B090BDE0270020EB2700201C0D0020EA27002080B584B000AF78600A1CFB1C1A700023BB60BB68002B20D07B689A79E7
:404CC000BB681A700F23FB1800221A7012E00F23FB181B780133BA68D3180F22BA18127879688A5C1A700F23FB181A780F23FB1801321A700F23FB181B78052BE7D9BD4689
:404D000004B080BD80B582B000AF78607B681B789AB27B6801331B789BB21B029BB213439BB2181CBD4602B080BDC04690B585B000AF78600F23FB1800221A707B689B89A9
:404D40000B22934237D17B681A1D7B680F217C18101C00211A1C40230EF014FC031C23700F23FB181B78002B1DD17B685B68181CFFF7C8FF031C1A1C022313409BB2002BF5
:404D800008D0104B1B68822251007A68081C111C984708E00B4B1B680622FF32111C7A68081C111C9847084B1B78DBB201229343DAB2054B1A700F23FB181B78181CBD46FC
:404DC00005B090BDD4270020EB27002090B585B000AF78600F23FC187B68181CFFF7A6FF031C23701C4B1B78DBB21A1C0123134007D00F23FC187B68181C00F0A5FA031CA3
:404E00002370154B1B78DBB21A1C012313401FD10F23FB181B78002B16D00823FB1812229A707B689A890823FB181A800823FB180F22BA181278DA707B680822BA1818680B
:404E4000111C0DF053FD03E07B6818680DF0EAFDBD4605B090BDC046EB27002080B582B000AF7860BD4602B080BDC04680B500AF034B00225A70024B00221A70BD4680BD14
:404E8000E827002080B582B000AF7860BD4602B080BDC04680B500AFBD4680BD80B584B000AF78600E23FB1800221A707B689B79002B1CD10F23FB1800221A7012E00F23B5
:404EC000FB181B787A68D35C002B04D00E23FB1801221A700BE00F23FB181A780F23FB1801321A700F23FB181B78052BE7D90E23FB181B78181CBD4604B080BD80B582B019
:404F000000AF021CBB1D1A80BD4602B080BDC04680B582B000AF7860BD4602B080BDC04680B588B000AF021C3960FB1D1A70C94B1B78DBB201221343DAB2C64B1A70FB1DF3
:404F40001B78412B00D157E123DC212B00D1C1E00DDC022B00D193E002DC012B3BD0CFE1052B00D191E0062B00D193E0C8E1272B00D1E9E006DC242B00D1DBE0262B00D1F2
:404F8000EEE0BDE1282B00D1E6E02A2B00D1D6E0B6E14F2B00D191E10BDC432B00D14EE100DA49E14C2B00D183E14E2B00D1A4E1A6E1572B00D1A2E106DC502B00D18AE1A1
:404FC000542B00D18CE19BE1712B00D10EE1FA2B00D18AE194E11423FB1807221A701423FB1800225A701423FB18181C03F012FE1423FB1807221A701423FB1801225A705E
:405000001423FB18181C03F005FE934B1B68181CFFF744FF031E11D08F4B1B68181C01F0E1FD8D4B1B68181C0021FFF73BFE8A4B1B68181C0121FFF735FE0DE0874B181C23
:4050400001F0D0FD854B181C0021FFF72BFE834B181C0121FFF726FE03200CF0CDF91023FB183F221A701023FB1800225A701023FB18181C0CF0DEF9794B04221A703FE1C7
:405080003B68181CFFF7FEFE3AE13B681A78754B1A7035E13B68BB61BB691B78002B18D1BB695B78002B0BD16F4B0822DA806E4B90229A806C4B6D4A1A60BB696A4A5A60B2
:4050C000644B1B78DBB201229343DAB2614B1A7016E115E15F4B1B78DBB21A1C2023134027D1634B1B78102B02D1614B0522DA70604B1A785E4B101C191C0CF08DFA031C56
:405100001A1C0E23FB181A800E23FB181B88002B06D0594B1B680E22BA183620111C98474C4B1B78DBB201221343DAB2494B1A70E6E0E5E03B685A78504B1A70E0E03B6886
:40514000181CFFF7E5FEDBE03B68181CFFF7E0FE434B02221A70D3E0414B04221A70CFE03F4B1B78022B40D03A4B1B78DBB21A1C0123134039D0374B1B78DBB21A1C04232E
:4051800013400BD0364B03221A70324B1B78DBB204229343DAB22F4B1A7026E02D4B1B78DBB21A1C082313400BD02D4B04221A70284B1B78DBB208229343DAB2254B1A70FA
:4051C00013E0274B1B78032B0FD1254B04221A702B4B1B78002B08D10120FFF7F9FC031E03D11F4B03221A708AE089E03B681B88181CFFF783FE83E01E4A3B68111C1A1CCD
:405200000223081C111C1A1C01F09FFC154B00221A70184B1B789E339A001A4BD3180133194A111C1A1C0423081C111C1A1C01F08CFCFFF72FFE63E0FFF718FE60E03B6803
:405240005B88162B22D81E23FB183A6852881A8020E0C046EB270020380D0020300D0020E0270020E42700206C120020B00B0020A80E0020E8270020D4270020D8270020A2
:40528000EA27002080FC0100DC2700201E23FB1817221A803B681E22BA1811881A8800231204120C1B0C1B041343181C0DF028FB26E03B68181CFFF789FD21E01D4B1B786A
:4052C000DBB21A1C0123134004D03B68181C00F0BDF815E014E03B68181C00F0DBF80FE03B68181CFFF7BAFD0AE0134B1B7801221343DAB2104B1A7002E0C04600E0C0469B
:405300000C4B1B78DBB21A1C112313400FD0094B1B78DBB201229343DAB2064B1A70074B1B68FA1D11783A68081C111C9847BD4608B080BDEB270020D0270020D4270020E3
:4053400080B500AFBD4680BD90B585B000AF78600F23FB1800221A707B689B891A22934227D119235A1E3449131C9B009B189B00CB185A6880235B0313400DD07B681A1DCE
:405380007B680F217C18101C00211A1C40230EF0F9F8031C237003E00F23FB1806221A70264B1B78DBB201229343DAB2234B1A703BE07B689B891922934236D17B681A1D84
:4053C0007B680F217C18101C00211A1C40230EF0D9F8031C237019235A1E1749131C9B009B189B00CB1808339B685A68144B1A60134B1B6803331B789BB21B029AB2104BFC
:405400001B6802331B789BB213439BB207339AB20C4B1A800C4B01221A70084B1B78DBB201229343DAB2054B1A700F23FB181B78181CBD4605B090BDA0840100EB2700207C
:40544000EC270020761200207412002080B582B000AF78607B685B681B891922934211D17B681B7A012B05D101200DF08FFA074B00221A80064B1B78DBB201229343DAB25C
:40548000034B1A70BD4602B080BDC04676120020EB27002080B582B000AF78607B685B681B89192293422FD17B685B7A012B23D17B685B681A68164B1A60154B1B68033306
:4054C0001B789BB21B029AB2114B1B6802331B789BB213439BB207339AB20E4B1A800D4B1A880823FF339A4203D90A4B0822FF321A80094B01221A70084B1B78DBB2012263
:405500009343DAB2054B1A70BD4602B080BDC046EC2700207612002074120020EB27002080B500AFBD4680BD80B58AB000AFF860081C7A60191C0A23FB18021C1A80092393
:40554000FB180A1C1A7004237B621A235A1E2E49131C9B009B189B00CB1808339B685B68181CFFF7CFFB031C1A1C012313409BB2002B43D019235A1E2349131C9B009B1854
:405580009B00CB1808339B685B683B620A23FB181B88396AFA68081C111C1A1C01F0D5FA1423FB180A22BA1812889A801423FB183A6A1A6019221423FB181A81134B142288
:4055C000B9181A785B781B021A4300231204120C1B0C1B041343181C0DF0C6F9031E07D17B680A22BA1812881A8000237B6205E07B6800221A8001235B427B627B6A181CCF
:40560000BD460AB080BDC046A0840100E827002090B587B000AFF860081C7A60191C0A23FB18021C1A800923FB180A1C1A7010233B610923FB181A78131C9B009B185B0001
:405640007B612FE001F0CAFA1B4B1B78012B23D1194B00221A70194B1B880A22BA1812889A4211D9164B1A68144B1B881C1CFB68181C111C221C01F068FA104B1A887B68AA
:405680001A8000233B6110E00023FB607B6800221A8006233B6108E0012000F065F97B69013B7B617B69002BCCD101F097FA3B69181CBD4607B090BD741200207612002011
:4056C000EC27002090B58BB000AF78602723FC1800F033FC031C2370184B1A680C23FB181A60174B1A680C23FB185A607B68033B144AD35C1A1C0C23FB189A60124B1A68C1
:405700000C23FB18DA601C23FB18104A1A600C23FA181C23FB185A600D4B1C22BA181A600C4B0D4A1A600A4B1B682723FB181B78181C00F006FCBD460BB090BD08010B4023
:4057400000010B40B086010030001040B6EA000008001040040010401700008080B584B000AF78600023FB60154B154A126801210A431A60134B144A1A60144B134A126847
:40578000802109020A431A607B68002B12D01023FB600CE0012000F00BF900F019F8031E02D00023FB6005E07B68013B7B607B68002BEFD1FB68181CBD4604B080BDC04647
:4057C00060F02E4078002E400220000010002E4080B582B000AF054B1B68012213407B607B68181CBD4602B080BDC0460C002E4080B584B000AF021C3960FB1D1A7080238E
:405800009B05FB60FB1D1B781F2B02D9002000F091F8FB1D1B7810339B00FA68D3181B68BB60FB1D1B7810339B00FA68D3183A681A60BB68181CBD4604B080BD90B587B0D7
:4058400000AF021CFB1D1A70BB1D0A1C1A70BB1D1B78032B02D9002000F06CF8FB1D1B781F2B02D9002000F065F8FB1D1B7803221340DB0006337B611323FC1800F05DFB67
:40588000031C2370FB1D1B789B08DBB29B00144A944663441B68FB607B6903229A40131CDA43FB681340FB60BB1D1A787B699A40131CFA681343FB60FB1D1B789B08DBB27E
:4058C0009B00074A94466344FA681A601323FB181B78181C00F035FBBD4607B090BDC04600E400E080B582B000AF021CFB1D1A70054BFA1D12781F210A40012191400A1CF4
:405900001A60BD4602B080BD00E100E080B582B000AF021CFB1D1A70054BFA1D12781F210A40012191400A1C1A60BD4602B080BD80E100E080B582B000AF021CFB1D1A704D
:4059400001BEBD4602B080BD80B500AF044B044A12681204120C03490A431A60BD4680BD0CED00E00400FA0580B582B000AF786009E00C4B1B68181C00F0D6FA7B680A4A3C
:40598000944663447B607A6880231B029A42F0D8064B1B687A685343181C00F0C5FABD4602B080BDBC0E00200080FFFFB40E002080B582B000AF021CBB1D1A80BB1D1B88B9
:4059C000044A12785343181C00F0AEFABD4602B080BDC046B80E002080B500AF154B154A1268920092081A60134B134A1268920092081A60114B114A1268920092081A601A
:405A00000F4B0F4A1268920092081A600D4B0D4A1268920092081A600B4B0B4A1268920092081A60094B094A1268920092081A60BD4680BD0800044008010440080204400B
:405A40000803044008040440080504400806044090B583B000AFFC1D00F06FFA031C2370074B074A126804218A431A6030BFFB1D1B78181C00F065FABD4603B090BDC046EA
:405A800010ED00E090B583B000AFFC1D00F055FA031C2370FFF7A0FF114B114A1268802109060A431A600F4B0F4A128892B21A600E4B0E4A126804210A431A600C4B0C4ACC
:405AC0001268FF218A43F1210A431A6030BFFB1D1B78181C00F035FABD4603B090BDC04600000B400C000B4050F1FF0F10ED00E02C000B4080B500AF0E4B0E4A12680121FA
:405B00008A431A600B4B0B4A126802218A431A60094B094A126830218A4310210A431A60054B054A126807218A4301210A431A60BD4680BD00F02E4000FF2E4080B500AF72
:405B40000E4B0E4A126802218A431A600C4B0C4A126807218A4302210A431A60084B084A126830218A4320210A431A60034B034A126801210A431A60BD4680BD00F02E40A9
:405B800000FF2E4080B500AFFFF7B4FF044B044A1268802109060A431A60BD4680BDC04600F02E4080B584B000AF78600C4B1B6801221340FB607B68002B02D0012B03D03F
:405BC00005E0FFF797FF06E0FFF7B8FF03E00020FFF7B0FEC046FB68181CBD4604B080BD00F02E4090B583B000AFFC1D00F0A5F9031C2370074B074A1268C02109020A4335
:405C00001A60FB1D1B78181C00F09BF9BD4603B090BDC04600010B4080B500AF054B1A68C0231B02134001D0012300E00023181CBD4680BD00010B4090B583B000AFFC1D31
:405C400000F07BF9031C23700C4B0C4A12680C490A408021C9010A431A60084B074A126807490A40802109020A431A60FB1D1B78181C00F066F9BD4603B090BD00010B406E
:405C8000FF3FFFFF80B582B000AF78607B68022B02D90020FFF74EFE054B1B687A68D2000132D34001221340181CBD4602B080BD10020B4080B584B000AF786039607B683B
:405CC000022B02D90020FFF735FE7B68181CFFF7D9FF031E15D10C4B1B687A68D200111C03228A40D2431340FB603B68032213407A68D2009340FA681343FB60024BFA6896
:405D00001A60BD4604B080BD0C020B4080B584B000AF786039607B68002B02D07B68012B01D1012300E00023002B02D10020FFF701FE7B68181CFFF7A5FF031E16D10D4B07
:405D40001B687A68D2000232111C01228A40D2431340FB607B68DB0002331A1C3B689340FA681343FB60034BFA681A60BD4604B080BDC0460C020B4080B582B000AF7860BE
:405D8000144B144A11687A680A431A607B680122134005D0C0460020FFF774FF031EFAD07A6880235B00134005D0C0460120FFF769FF031EFAD07A6880235B02134005D0DA
:405DC000C0460220FFF75EFF031EFAD0BD4602B080BDC04610020B4080B584B000AF786039607B68002B02D07B68012B01D1012300E00023002B02D10020FFF79BFD174B69
:405E00001B689B0F9B0701D1C92300E05D23181CFFF7CEFD124B1B68FB607B681B011A1C104B9340DA43FB681340FB600C4B7A681201111C3A688A40111CFA680A431A6079
:405E4000064B1B689B0F9B0701D1432300E01F23181CFFF7ADFDBD4604B080BD0C020B4008020B40FFFF000080B500AF034B1B68034A1340181CBD4680BDC04610020B4008
:405E80000404040090B585B000AF78600B23FC1800F053F8031C2370FFF7BEFE031E04D00123FB60FFF7C8FE01E00023FB607B680D4A13407B600D4B0C4A12680C4911402F
:405EC0007A680A431A60094B1B68FB68012B01D1FFF788FE0B23FB181B78181C00F031F8BD4605B090BDC0460404040010020B40FBFBFBFF80B582B000AF7860084B084A2D
:405F000011687A68074802400A431A60C046044B1B68044A1340FAD1BD4602B080BDC04610020B40080808000230800803D00138FDD1C046C046C0467047EFF3108072B606
:405F4000704780F31088704780B582B000AF00233B60C04B1B68002B02D0BE4B1B689847BD4B1B680122134002D0BC4B00221A60BB4B1B78DBB220221340DBB2002B38D0ED
:405F8000B84B1A6880235B0013400AD0B64B1B889BB2C022920013439AB2B34B1A8001233B60B04B1B68012213400AD0AE4B1B889BB29022920013439AB2AB4B1A80012382
:405FC0003B603B68002B14D0A54B1B78DBB201221340DBB2002B01D0012300E00223A24A128892B213439AB29F4B1A809C4B00221A709B4B1B78DBB220221340DBB2002B46
:4060000000D1A4E1974B1B681022134018D0974B10221A60924B1B78DBB201221340DBB2002B01D0012300E002238F4A128892B213439AB28C4B1A80894B10221A70AAE1A0
:40604000874B1B78DBB208221340DBB2002B29D0844B1B68022213400ED0844B02221A60814B1B889BB28822920013439AB27E4B1A8001233B6015E0794B1B78DBB2012234
:406080001340DBB2002B03D0754B25221A7009E0734B24221A70764B1B68002B02D0754B10221A606E4B1B78DBB204221340DBB2002B00D113E16A4B1B78DBB20122134033
:4060C000DBB2002B5BD06C4B1B680822134033D06A4B1A686A4B1B681F211940694B1B68CB18D31A7B607B68082B02D908237B600CE07B68002B09D1634B634A12686349CD
:406100000A401A6008237B6001233B6010E0604B1A685C4B1B68D2185E4B1B68DBB21370584B1B685A1C574B1A607B68013B7B607B68002BEBD11EE04F4B1B680422134059
:4061400019D0534B1A684F4B1B68D218514B1B68DBB213704B4B1B685A1C4A4B1A60494B1A68464B1B689A4203D24B4B04221A6001E001233B60494B494A1A60AFE0394BDD
:406180001B680222134032D0384B02221A60454B1B681F221A40434B196880231B020B4001D0012300E00023D2183F4B1B689A1A3D4B1A603C4B1A683C4B1A602A4B1B8833
:4061C0009BB28422920013439AB2274B1A80384B374A1268802149020A431A60344B344A126834490A401A6001233B6077E0324B1B681022134067D022E02B4B1A681C4B50
:406200001B689A421BD21A4B1B685A1E264B1B689A4205D1294B40221A60164B40221A60274A284B1968204B1B68CB181B78DBB213601D4B1B685A1C1B4B1A6000E005E0B0
:40624000184B1B681F221340082BD6D11B4B10221A6044E0641200208C0E2540880E2540A82700200C0F2540C8270020000F2540BC270020880F2540CC0F2540B4270020D8
:4062800008032540C427002060002540FFFEFFFFB02700204003254068002540C00F2540ED0F000008022540CC270020B827002004022540FFFFFEFF8C0F2540800F25402C
:4062C00040022540C0270020344B1B684022134005D0334B1A68334B1A6001233B603B68002B58D0304B304A126830490A401A602F4B00221A602F4B00221A602E4B1B78D3
:40630000DBB202221340DBB2002B15D02B4B1B78DBB201221340DBB2002B01D0092300E00A23274A128892B213439AB2244B1A80224B60221A702EE0224B234A12682021D8
:406340000A4001D0182200E010221A6023E01B4B1B78DBB210221340DBB2002B1BD11B4B1A4A1268520052081A60144B10221A700D4B0D4A126816490A401A600A4B0A4A10
:40638000126814490A401A60104B104A1268802109060A431A60BD4602B080BD8C0F2540CC270020B827002060002540FFFEFFFFC80F2540880F2540AC270020A8270020BE
:4063C000C8270020680025406400254000002540FF5FFFFFFFFCFFFF80B582B000AF78600A1CBB1C1A80BB1C1A887B681A60BD4602B080BD80B582B000AF78600A1CBB1C06
:406400001A80BB1C1A887B681A60BD4602B080BD80B584B000AF494B1B78DBB21B02484A1278D2B21343FB60464B1B78DBB21B02454A1278D2B21343BB60BB68434A93425F
:4064400007D1FB68072B04D1414BBB600423FB6009E0BA68D4231B019A4204D1FB68042B01D13B4BBB603B4BBA681A603A4BFA681A603A4B1B78DBB21B02394A1278D2B207
:406480001343FB60FA6880239B019A4202D0FB68002B01D1334BFB60334BFA681A60334B1B78DBB21B02324A1278D2B21343FB60FB68304A934206D0FB682F4A934202D048
:4064C000FB68052B01D12D4BFB602D4BFA681A602C4B1B681B097B602B4B1B68AA2B29D17B68012B26D9214B1B78DBB20E2B21D1264B1B78DBB29BB21B0299B2244B1B7842
:40650000DBB29AB2BB1C0A431A80224BBA1C12881A60214B1B78DBB29BB21B0299B21F4B1B78DBB29AB23B1C0A431A801C4B3A1C12881A60BD4604B080BDC046D9F0FF0F76
:40654000D8F0FF0FDFF0FF0FDEF0FF0F580B0000580D00006C002E4074002E40DBF0FF0FDAF0FF0F0220000078002E40DDF0FF0FDCF0FF0F0F0F000005050000050F00005E
:4065800080002E40EC0F00F0E00F00F06DF2FF0F6CF2FF0F84002E406FF2FF0F6EF2FF0F94002E4080B582B000AF021CBB1D1A80BB1D1B88181CFFF7FBF9BD4602B080BD48
:4065C00080B582B000AF78607B68181CFFF7CCF9BD4602B080BDC04680B500AF00F0DEF8BD4680BD80B500AF00F0E2F8BD4680BD80B500AF00F0DCF8044B181C00F09CF85C
:40660000032000F0A5F8BD4680BDC046C567000080B500AF024B181C00F07CF8BD4680BDC567000080B500AF0223FF33181CBD4680BDC04680B582B000AF78602B23181CDE
:40664000BD4602B080BDC04680B582B000AF78602B23181CBD4602B080BDC04680B582B000AF78602B23181CBD4602B080BDC04680B582B000AF78602B23181CBD4602B02D
:4066800080BDC04680B582B000AF78602B23181CBD4602B080BDC04680B582B000AF78602B23181CBD4602B080BDC04680B582B000AF78602B23181CBD4602B080BDC0465F
:4066C00080B582B000AF78602B23181CBD4602B080BDC04680B500AF2B23181CBD4680BD80B582B000AF021CFB1D1A702B23181CBD4602B080BDC04680B582B000AF78604E
:4067000039602B23181CBD4602B080BD80B500AFBD4680BD80B582B000AF786000F048F87B68181C00F008F8032000F011F800F035F8BD4602B080BD80B582B000AF7860EA
:40674000024B7A681A67BD4602B080BD0000002090B585B000AF021CFB1D1A700623FB600B23FC18FFF7E9FB031C23700A4B0A4A1268C0218A43111CFA1D1078FA6890404D
:40678000021C0A431A600B23FB181B78181CFFF7D8FBBD4605B090BD0CE400E080B500AF024B802252011A60BD4680BD00E100E080B500AF024B802252011A60BD4680BDCD
:4067C00080E100E080B500AF11F076FDBD4680BD002243088B4274D303098B425FD3030A8B4244D3030B8B4228D3030C8B420DD3FF22090212BA030C8B4202D312120902D9
:4068000065D0030B8B4219D300E0090AC30B8B4201D3CB03C01A5241830B8B4201D38B03C01A5241430B8B4201D34B03C01A5241030B8B4201D30B03C01A5241C30A8B4227
:4068400001D3CB02C01A5241830A8B4201D38B02C01A5241430A8B4201D34B02C01A5241030A8B4201D30B02C01A5241CDD2C3098B4201D3CB01C01A524183098B4201D3A0
:406880008B01C01A524143098B4201D34B01C01A524103098B4201D30B01C01A5241C3088B4201D3CB00C01A524183088B4201D38B00C01A524143088B4201D34B00C01A3A
:4068C0005241411A00D20146524110467047FFE701B5002000F0FCF802BDC0460029F7D003B5FFF775FF0EBC4243891A1847C04603460B437FD4002243088B4274D30309AC
:406900008B425FD3030A8B4244D3030B8B4228D3030C8B420DD3FF22090212BA030C8B4202D31212090265D0030B8B4219D300E0090AC30B8B4201D3CB03C01A5241830BD6
:406940008B4201D38B03C01A5241430B8B4201D34B03C01A5241030B8B4201D30B03C01A5241C30A8B4201D3CB02C01A5241830A8B4201D38B02C01A5241430A8B4201D3E9
:406980004B02C01A5241030A8B4201D30B02C01A5241CDD2C3098B4201D3CB01C01A524183098B4201D38B01C01A524143098B4201D34B01C01A524103098B4201D30B012B
:4069C000C01A5241C3088B4201D3CB00C01A524183088B4201D38B00C01A524143088B4201D34B00C01A5241411A00D201465241104670475DE0CA0F00D04942031000D353
:406A00004042534000229C4603098B422DD3030A8B4212D3FC22890112BA030A8B420CD3890192118B4208D3890192118B4204D389013AD0921100E08909C3098B4201D3BC
:406A4000CB01C01A524183098B4201D38B01C01A524143098B4201D34B01C01A524103098B4201D30B01C01A5241C3088B4201D3CB00C01A524183088B4201D38B00C01AB6
:406A80005241D9D243088B4201D34B00C01A5241411A00D20146634652415B10104601D34042002B00D54942704763465B1000D3404201B5002000F00BF802BD0029F8D009
:406AC00003B5FFF715FF0EBC4243891A1847C0467047C046014B18687047C0463C1200200E4B70B500251E1C0D4CE41AA410A54204D0AB00F35898470135F8E711F0F2FD4C
:406B0000084B00251E1C084CE41AA410A54204D0AB00F35898470135F8E770BDF0860100F0860100F0860100F886010030B50024944208D0035D651C0C5DA34201D0181BFD
:406B400002E02C1CF4E7002030BD002310B5934203D0CC5CC4540133F9E710BD031C8218934202D019700133FAE77047134A1088810703D08107890F401A001D11791030EC
:406B8000484381B25088820703D08207920F801A001D800040180A494030098980B2CA0701D0503080B2890706D504495422091F09785143081880B270470000CA0E0020E3
:406BC0008412002010B501F025FF10BD10B501F037FF10BD10B501F03BFF10BD10B500F055FA10BD10B50749044609780220002907D1204601F07CFF002802D120460AF0C1
:406C0000F1FC10BD5C10002070B504460120002C12D02368002B0FD0616800290CD0074D06222889208118462968FFF78EFF6968606809780170002070BD0000841200203F
:406C4000FFB585B0002768460E9D07734F481C460078002802D0082009B0F0BD10990F9801900095029105A807C800F001F90028F2D16946264603AB84460873002C19D0BB
:406C8000002115E08A00B75A082F09D990198078002805D0083FB7521878401C187005E0002914D00027B75290198770491CC9B2A942E7D360460028CED10F98002809D04C
:406CC000109901F057FA002804D00120C4E701208446EFE701F0B4FE2D480021416081600599016021888180022D07D3A1798171A17AC171A1890181218A418100211EE022
:406D0000481C19E082008B00A75AE65ABE46BE4211D26F463E80B4461E190296B678BE7001967646E6521719029EBB78B3706646A652019EBE70401CA842E3D3491CA942BB
:406D4000DED3134822460C3000906846037B0799069800F015F90028B8D168460B4C007B60700B480C3001F09BFE0028AED1084907480C3107F01AFC0028A7D107F034FCF9
:406D80000028A3D10121217066E70000C40E002078120020F8B5054633480E460078002802D002242046F8BD002E5BD000242F49002D16D02A89D0070DD02868002808D022
:406DC00003881B3BE12B04D24088FB2801D81B2801D2012409E0900707D56868002804D1F7E70020088108604860002CDAD11F482F8907811C481B21801D018041800421EF
:406E0000017119490020891C0870F80705D016480622801D2968FFF798FE1449B80703D56A681148127882700F480D46801D0860001F486001F082FE0B48801D01F070FE5C
:406E400028890DF04FFC28890DF0B6FD03461033FFF78CFE1F21C018890140180249308088809FE701249DE7C40E002084120020FFB58446384F1C460020BB883F7805460C
:406E800002460646002F11D100290ED0029999420BD36146002908D0002C06D00A99002906D02E4B0B99994202D2012004B0F0BD002144E0AB001F19BF78002F3BD0E35A62
:406EC000002B38D07B43591889B22B0000F04AF8050410161C253100A7782388BC46FF27233BEB37BB4222D26346032B1FD322E0A388002B1FD0302B19D31CE02389002B6A
:406F000019D0282B13D316E0A289002A13D01346134F233BBB420AD20DE0268A002A0AD033460F4F233BBB4201D2964203D901200EE0002001E000280AD16D1CEDB2099BD6
:406F40009D42B7D31C2463435B1802998B42ACD89642AAD8AAE70000C40E002079020000BAFF000030B47446641E2578641CAB4200D21D46635D5B00E31830BC1847000092
:406F8000FFB583B0002469460C801F4606468C80002806D00598002803D004983043800701D0012466E0002FFBD03449049809888842F6D3FFF72CFBFFF714FB00F00EFC13
:406FC000002855D100F076FD002851D12C49084601F004F905042D0C4AD12A480499066081800021C18007810C98007AC00704D0684601F03EFD040007D10C98007A800714
:4070000003D501A801F03EFD0446BF1DFEB2002C20D13146059800F05DF804001AD10DF0D9FC040016D16A461088928808368518144AF1B29088D288AEB29319984207D33B
:40704000401B801A80B201F0B9FB050007D000E0FF25012400F05AFA002D04D008E0F8B200F01CF9F6E700F07DFA07490120087000F0C6FB204607B0F0BD0000C80E0020C5
:40708000C171000090120020D00E002010B503480078012801D101F033FA10BDD00E002070B5084B0446DA889E8800205518B54206D81D68AA182260DA885118D98070BDAC
:4070C000032070BD90120020014800897047000090120020F0B587B007460D4600208900009006916846FFF7DBFF844600285DD1304800990160002117E02E4B88001A683C
:407100000629115406D22C4C0419667882185670628805E0C419203CA67A8218567022891B68C018491C4280C9B2A942E5D300242DE0601CC2B2059025E01E4FA3003968D1
:407140009600581840887118039604904E88B04217D938466F46FE80B6464F786E4677710297049F4F800168039F5E18767879184E700168764659184E800068029F18185D
:407180004770521CD2B2AA42D7D30598C4B2AC42CFD36046002809D168460699FFF780FF8446002802D1054900980860604607B0F0BD0000D40E002018870100D80E0020BE
:4071C0007047000010B5002809D005494A68002A05D0011F08788000105801F09DFA10BDD40E002010B50446FFF76EFFC0B2801DA0420CD307484068002808D0A1004058C2
:4072000001F0FCF9002801D00470001D10BD002010BD0000D40E0020F8B516460D460446FFF752FFC0B2801DA04203D20020C0430090F8BDB2B2E9B2684601F005FA0099D1
