:400000000040002011000000250600002506000080B500AF00F00AFB80B500AF164B12221A600C2001F086F8144B154A1A60154B144A126802210A431A60134B134A1A6003
:40004000134B134A126808218A431A60FA23DB00181C01F0BBF80F4B181C01F049F90E4B802212061A600D4B00221A60024B00221A60BD4680BDC0463000104004010B40CA
:400080000600008078002E407C002E402D3E00006CF02E40DC05000008010B400C020B4080B582B000AF72B6394B00221A60FB1D00221A7023E0FB1D1A78131C5B009B181B
:4000C0005B00344A9B183B603B681A78597809020A43997809040A43DB781B0613431A1C3B6819795B791B020B439BB2101C191C00F020FBFB1D1A78FB1D01321A70FB1D4C
:400100001B78012BD7D9244BEE2212061A60234B992212041A60224B992212041A60214B992212041A60204B1F4A1278D2B202210A43D2B21A701D4B1C4A1278D2B23C217E
:400140008A43D2B214210A43D2B21A70164B164A1278D2B216210A43D2B21A70144BD82212041A60134B40221A60134BC02252031A60124B40221A60114BC02252031A60C5
:40018000FFF74AFF00F0E6FABD4602B080BDC0466CF02E40001C01000000024000500F4020500F4030500F4000700F4001700F40080004400002044008020440000304403C
:4001C0000803044010B5064C2378002B07D1054B002B02D0044800E000BF0123237010BD0004002000000000EC1B010008B5084B002B03D00748084900E000BF074803680C
:40020000002B03D0064B002B00D0984708BDC04600000000EC1B010004040020C80000200000000080B500AF00F0D0F801F086F900F0F4F801F08AF8012001F08FF980231A
:40024000DB05181C01F050F901F0FEF8002000F0BDFF00F0F3F801F079F800F0FDF8BD4680BDC04680B500AF032001F00BF800F0E7FF094B181C01F001FCFFF7D3FF074BB4
:40028000181C00F097FA01E001F0D4FE044B1B78012BF9D0BD4680BD7D030000790400003A20002090B583B000AFFB1D00221A701F4B1B78032B03D01D4B1B78022B33D142
:4002C000BC1D032001F0AEFE031C2370FC1D00F0CCFE031C23707C1D03F040FB031C2370BB1D1B78032B0AD17B1D1B78042B03D07B1D1B78062B12D101F028F80FE07B1D3D
:400300001B78022B0BD0022000F0D0FE00F0C2FE01F002F800F0B0FE002000F0C7FEFB1D1B78181C00F0A5FEBD4603B090BDC0463A20002090B583B000AF62B6FFF792FF79
:400340000D4B1B78DBB2062B11D10B4B07221A7000F082F8BC1D022000F08CFA031C2380BB1D1B88002B02D0002000F0B7FF01F061FEFFF797FFE3E71C04002080B500AF44
:4003800001F0CAFA021C042313400ED00E4B1B78DBB2072B06D00C4B1B78DBB20133DAB2094B1A70042001F0C5FA01F0B5FA021C8023DB00134004D08023DB00181C01F0A2
:4003C000B9FABD4680BDC0461C04002080B500AF01F00EF90020012101F048F90120012101F044F90020012101F082F90120012101F07EF9074B0020191C01F01BFA0120DC
:40040000202101F017FA01F0C9F8034B00221A70BD4680BDFF3F00001C04002080B500AF01F0E6F8012001F09BF901F0B7F8024B00221A70BD4680BD1C04002080B500AFB9
:4004400001F0D6F880235B00181C01F089F901F0A5F8BD4680BDC04680B500AF01F0C8F8012001F0AFF980235B00181C01F0AAF901F094F8BD4680BD80B582B000AF786084
:4004800039607B68012B02D0262B0ED026E0154B01221A70134B1B78181C00F029F8124B00221A70FFF7BAFF18E0104B1B78032B13D00C4B1B78002B03D00A4B00221A70B2
:4004C00002E0084B01221A70064B1B78181C00F00FF8022000F0CEF9FFE7C046BD4602B080BDC046CC0000201C0400203A20002080B582B000AF021CFB1D1A70474B03221B
:40050000DA70464B14221A71444BAA225A71434BFE229A71FB1D1B78002B39D0002001F007FB012001F02AFB3D4B19221A823B4B0E22DA71394B16221A72384BAA225A7254
:40054000364BFE229A72354B1022DA72334BF2221A73324B00225A73304B63229A732F4B7922DA732D4B70221A742C4B72225A742A4B65229A74294B7322DA74274B7322FD
:400580001A75264B00225A75244B1622DA7741E0012001F0CDFA002001F0F0FA204B05221A821E4B1122DA711C4B16221A721B4BAA225A72194BFE229A72184B2022DA729E
:4005C000164B00221A73154B00225A73134B00229A73124B8022DA73104B00221A740F4B00225A740D4B00229A740C4B0022DA740A4B00221A75094B00225A75074B002260
:400600009A75064B0022DA75044B00221A76034B1922DA77BD4602B080BDC046E00000200001002080B500AFFEE7C04680B586B000AF224B7B61224B3B61204B7B6135E05E
:400640003B691B68FB603B695B68BB603B699B683B6000237B600CE0FB681A68BB681A60BB680433BB60FB680433FB607B6804337B607A683B689A42EED13B69DB683B60C7
:4006800000237B6008E0BB6800221A60BB680433BB607B6804337B607A683B689A42F2D13B6910333B617B69013B7B617B69002BC6D101F071FCFFF73DFEFEE7010000006D
:4006C0001C21010080B582B000AF154B144A126801218A431A6000237B600FE07B68032B04D8104B7A689200D35800E00E4B0F4A796889008B507B6801337B607B682F2B2B
:40070000ECD9FFF7CDFC0A4B00221A60044B044A126801210A431A60BD4602B080BDC04600001040000000002506000000000020C000002080B582B000AF786039607A6868
:400740003B68101C00211A1C01F064FCBD4602B080BDC04680B500AF054B03221A60054B03221A60044B00221A60BD4680BDC0463000304030003140000E3F4080B500AF65
:40078000064B00221A70064B00221A70054B00221A7000F009F8BD4680BDC046432000203C2000204220002080B500AF00F068FBBD4680BDB0B58EB004AF78603B1C263336
:4007C00001221A80224B1B78002B04D1FFF7D6FF1F4B01221A707B68002B31D03A1C0C321C4B111C1A1C1823081C111C1A1C01F008FC3C1C263418481849194A3B1C0C33CA
:4008000006250095174D01956E25FF35029501F027FC031C2380144B7A681A603B1C26331B88002B0CD1114B01221A703C1C26340F4B181C16210C220CF042FE031C238008
:400840003B1C26331B88181CBD460AB0B0BDC046200400200C1C0100CD0B000070150020C40A000000140020801300203A200020201D010090B585B000AF021CFB1D1A7081
:40088000FB1D1B78022B04D93B1C0E3301221A804DE02A4B1B78042B44D1294B1B78DBB21A1C042313403DD1FB1D1B78002B0DD1244B0A221A82234B5B68C822D2001A80F1
:4008C000204B5B68C822D2005A8010E0FB1D1B78012B0CD11B4B96221A821A4B5B68C822D2001A80174B5B688022D2015A80164BFA1D12781A703C1C0E34124B181C0AF033
:400900003BFF031C23803B1C0E331B88002B08D10B4B1B78DBB204221343DAB2084B1A7005E004E03B1C0E330422FF321A803B1C0E331B88181CBD4605B090BD3A200020E1
:4009400043200020000100204220002080B584B000AF78600A1CFB1C1A700023BB60BB68002B20D07B689A79BB681A703B1C0F3300221A7012E03B1C0F331B780133BA68C2
:40098000D3183A1C0F32127879688A5C1A703B1C0F331A783B1C0F3301321A703B1C0F331B78052BE7D9BD4604B080BD80B582B000AF78607B681B781A1C7B6801331B7805
:4009C0001B029BB213439BB2181CBD4602B080BD90B585B000AF78603B1C0F3300221A707B689A8909239A4237D17B681A1D7B683C1C0F34101C00211A1C40230CF078FD79
:400A0000031C23703B1C0F331B78002B1DD17B685B68181CFFF7CAFF031C1A1C022313409BB2002B08D0104B1B68822251007A68081C111C984708E00B4B1B680622111C0E
:400A4000FF317A68081C111C9847084B1B78DBB201229343DAB2054B1A703B1C0F331B78181CBD4605B090BD801300204320002090B585B000AF78603C1C0F347B68181C14
:400A8000FFF7A6FF031C23701E4B1B78DBB21A1C012313400CD03B1C0F331B78002B07D13C1C0F347B68181C00F0EEF9031C2370144B1B78DBB21A1C012313401FD13B1CFA
:400AC0000F331B78002B16D03B1C083312229A707B689A893B1C08331A803B1C08333A1C0F321278DA707B683A1C08321868111C0BF066FF03E07B6818680BF0C7FFBD4687
:400B000005B090BD4320002080B582B000AF7860BD4602B080BDC04680B500AF034B00225A70024B00221A70BD4680BD4020002080B582B000AF7860BD4602B080BDC0468D
:400B400080B500AFBD4680BD80B584B000AF78603B1C0E3300221A707B689B79002B1CD13B1C0F3300221A7012E03B1C0F331B787A68D35C002B04D03B1C0E3301221A7056
:400B80000BE03B1C0F331A783B1C0F3301321A703B1C0F331B78052BE7D93B1C0E331B78181CBD4604B080BD80B582B000AF021CBB1D1A80BD4602B080BDC04680B582B055
:400BC00000AF7860BD4602B080BDC04680B584B000AF021C3960FB1D1A709B4B1B78DBB201221343DAB2984B1A70FB1D1B78712B00D90EE19A00954BD3181B689F463B1C5A
:400C00000C3307221A703B1C0C3300225A703B1C0C33181C02F0D1FE3B1C0C3307221A703B1C0C3301225A703B1C0C33181C02F0C4FE874B1B68181CFFF786FF031C002B1D
:400C400011D0834B1B68181C01F0F8F9804B1B68181C0021FFF77AFE7D4B1B68181C0121FFF774FE19E07B4B1A787B4B1A707B4B1A78794B5A707A4B1A78774B9A70764BA7
:400C8000181C01F0DBF9744B181C0021FFF75EFE714B181C0121FFF759FE00200AF064FC704B04221A70B5E03B68181CFFF740FFB0E03B681A786C4B1A70ABE0624B1B781F
:400CC000DBB21A1C2023134007D1684B1B78102B03D1664B0522DA709CE09BE03B68181CFFF76CFF96E03B68181CFFF767FF5D4B02221A708EE05B4B04221A708AE0594B4C
:400D00001B78022B34D0504B1B78DBB21A1C012313402DD04C4B1B78DBB21A1C042313400BD0504B03221A70474B1B78DBB204229343DAB2444B1A701AE0434B1B78DBB203
:400D40001A1C082313400BD0464B04221A703E4B1B78DBB208229343DAB23B4B1A7007E0404B1B78032B03D13E4B04221A7051E050E03B681B88181CFFF716FF4AE03C4A88
:400D80003B68111C1A1C0223081C111C1A1C01F038F9374B1B781A1C131C5B009B185B00344A9B18344A111C1A1C0623081C111C1A1C01F026F9FFF7C3FE2BE0FFF7ACFE48
:400DC00028E03B685B88162B05D83B1C0E333A6852881A8003E03B1C0E3317221A803B683A1C0E321288198800230904090C1B0C1B040B43181C111C0BF0EEFD0AE03B682A
:400E0000181CFFF735FE05E03B68181CFFF77CFE00E0C0460C4B1B78DBB21A1C112313400FD0094B1B78DBB201229343DAB2064B1A70124B1B68FA1D11783A68081C111CE9
:400E40009847BD4604B080BD43200020001F01001C0100207CF1FF0F140100207DF1FF0F7BF1FF0F3A2000203C2000209401002040200020001D01003420002080130020A9
:400E800080B500AFBD4680BD90B589B000AF78603B1C1F3300221A703B1C1E3300221A708E235B00BB613B1C16337A6892891A800F233A1C163212889A4205D014233A1C59
:400EC000163212889A4245D10E235A1E5F49131C9B009B189B00CB185A6880235B0113400CD113235A1E5949131C9B009B189B00CB185A6880235B01134026D07B685B68E6
:400F0000181CFFF753FD031C1A1C012313409BB2002B03D08D235B00BB6102E01C23FF33BB610F233A1C163212889A4204D13B1C0C3301229A7003E03B1C0C3303229A7004
:400F40003B1C0C3300225A6036E03B1C1F3306221A7031E016233A1C163212889A4227D17B685B681B78052B15D87B685B6801331B78092B05D97B685B6801331B78FF2BCC
:400F800009D13B1C0C3304229A707B681A1D3B1C0C335A6010E02E4B1B78DBB201229343DAB22B4B1A703B1C1F33A0221A7003E03B1C1E3301221A703B1C1F331B78002B85
:400FC0002FD13B1C1E331B78002B2AD17B681A1D7B683C1C1F34101C00211A1C40230CF087FA031C23703B1C1F331B78002B18D13B1C0C337A6812881A80154B1B78DBB257
:4010000001229343DAB2124B1A70124B1B68002B07D0104B1B68B9693A1C0C32081C111C98473B1C1F331B78002B07D0084B1B78DBB201229343DAB2054B1A703B1C1F33E5
:401040001B78181CBD4609B090BDC046201D010043200020440400200230800803D00138FDD1C046C046C0467047EFF3108072B6704780F31088704780B500AF044B044A80
:401080001268802109060A431A60BD4680BDC04608010B4080B500AF034B034A1268520052081A60BD4680BD08010B4090B585B000AF78603C1C0F34FFF7D7FF031C2370D8
:4010C0000A4B0A4A12680721101C8843011C7868032202400A431A603B1C0F331B78181CFFF7C7FFBD4605B090BDC04600010B4090B585B000AF78603C1C0F34FFF7B5FFCA
:40110000031C2370094B796807220A40D104074A1068074A02400A431A603B1C0F331B78181CFFF7A6FFBD4605B090BD00010B40FFFFC7FF90B58BB000AF78603C1C273493
:40114000FFF793FF031C2370184B1A683B1C0C331A60174B1A683B1C0C335A607B68033B144AD35C1A1C3B1C0C339A60124B1A683B1C0C33DA603B1C1C33104A1A603A1C19
:401180000C323B1C1C335A600D4B3A1C1C321A600C4B0D4A1A600A4B1B683B1C27331B78181CFFF766FFBD460BB090BD08010B4000010B40C820010030001040B6EA000094
:4011C00008001040040010401700008080B584B000AF78600023FB60154B154A126801210A431A60134B144A1A60144B134A1268802109020A431A607B68002B13D0102319
:40120000FB600DE0012000F073F800F02FF8031C002B02D00023FB6005E07B68013B7B607B68002BEED1FB68181CBD4604B080BD60F02E4078002E400220000010002E40BE
:4012400080B500AF064B064A126801218A431A60044B044A1168044A0A401A60BD4680BD60F02E4010002E40FF7FFFFF80B500AF034B1A6801231340181CBD4680BDC04641
:401280000C002E4090B585B000AF7860114B1A6807231340022B16D03C1C0F34FFF7E5FE031C23700C4B7968032211400A4A1268032082430A431A603B1C0F331B78181C94
:4012C000FFF7D7FE02E0002000F008F8BD4605B090BDC04600010B4064F02E4080B582B000AF021CFB1D1A7001BEBD4602B080BD80B582B000AF021CBB1D1A80BB1D1B8870
:40130000044A12785343181CFFF7A6FEBD4602B080BDC046A001002090B583B000AFFC1DFFF7A3FE031C2370074B074A126804218A431A6030BFFB1D1B78181CFFF799FE4B
:40134000BD4603B090BDC04610ED00E090B583B000AFFC1DFFF789FE031C2370114B114A1268520052081A600F4B104A128892B21A600F4B0E4A126804210A431A600D4B45
:401380001B683B600220FFF7B3FE30BF094B3A681A60FB1D1B78181CFFF76BFEBD4603B090BDC04600000B400C000B4052F1FF0F10ED00E000010B4080B500AF0E4B0E4AEF
:4013C000126801218A431A600B4B0B4A126802218A431A60094B094A126830218A4310210A431A60054B054A126807218A4301210A431A60BD4680BD00F02E4000FF2E4042
:4014000080B500AF0E4B0E4A126802218A431A600C4B0C4A126807218A4302210A431A60084B084A126830218A4320210A431A60034B034A126801210A431A60BD4680BDAA
:4014400000F02E4000FF2E4090B583B000AF00F0BFF8031C002B24D100F028F8031C002B1FD000F031F8031C002B14D1FC1DFFF7FCFD031C237000F095FA0B4B0A4A1268A6
:40148000520052081A6000F0DBFAFB1D1B78181CFFF7EFFD05E0044B034A1268520052081A60BD4603B090BD04010B4080B500AF044B1B68002B01DA012300E00023181CF5
:4014C000BD4680BD04010B4080B582B000AF054B1B689B0F9B077B607B68181CBD4602B080BDC0460C020B4090B585B000AF7860FFF7EAFF021C7B689A4219D03C1C0F34A3
:40150000FFF7B3FD031C237000F04CFA0A4B0A4A1268920091087A68920F92070A431A6000F08EFA3B1C0F331B78181CFFF7A1FDBD4605B090BDC0460C020B4080B500AF38
:40154000FFF73AFF044B044A1268802109060A431A60BD4680BDC04600F02E4080B584B000AF78600C4B1A6801231340FB607B68002B02D0012B03D005E0FFF71DFF06E0B3
:40158000FFF73EFF03E00020FFF7A8FEC046FB68181CBD4604B080BD00F02E4090B583B000AFFC1DFFF761FD031C2370074B074A1268C02109020A431A60FB1D1B78181C75
:4015C000FFF757FDBD4603B090BDC04600010B4080B500AF054B1A68C0231B02134001D0012300E00023181CBD4680BD00010B4090B583B000AFFC1DFFF737FD031C23706F
:401600000C4B0C4A11680C4A0A408021C9010A431A60084B074A1168074A0A40802109020A431A60FB1D1B78181CFFF722FDBD4603B090BD00010B40FF3FFFFF80B582B0A1
:4016400000AF78607B68022B02D90020FFF746FE054B1A687B68DB000133DA4001231340181CBD4602B080BD10020B4080B584B000AF786039607B68022B02D90020FFF73C
:401680002DFE7B68181CFFF7D9FF031C002B18D10D4B1B687A68D2000321081C9040021CD2431340FB603A6803231A407B68DB00111C99400B1CFA681343FB60024BFA6890
:4016C0001A60BD4604B080BD0C020B4080B582B000AF7860054B1A687B68DB00DA4003231340181CBD4602B080BDC0460C020B4080B584B000AF786039607B68002B02D024
:401700007B68012B01D1012300E00023002B02D10020FFF7E3FD7B68181CFFF78FFF031C002B18D10D4B1B687A68D20002320121081C9040021CD2431340FB607B68DB0067
:4017400002333A68111C99400B1CFA681343FB60024BFA681A60BD4604B080BD0C020B4080B582B000AF7860154B154A11687A680A431A607A680123134006D0C0460020B8
:40178000FFF75CFF031C002BF9D07A6880235B00134006D0C0460120FFF750FF031C002BF9D07A6880235B02134006D0C0460220FFF744FF031C002BF9D0BD4602B080BDCC
:4017C00010020B4080B582B000AF7860FFF700FF031C002B29D1164B154A12687968C9430A401A607A680123134006D0C0460020FFF724FF031C002BF9D17A6880235B0018
:40180000134006D0C0460120FFF718FF031C002BF9D17A6880235B02134006D0C0460220FFF70CFF031C002BF9D1BD4602B080BD10020B4080B584B000AF786039607B6834
:40184000002B02D07B68012B01D1012300E00023002B02D10020FFF741FD174B1B689B0F9B0701D1C92300E05D23181CFFF740FD124B1B68FB607B681B01114A111C9940C0
:401880000B1CDA43FB681340FB600C4B7A68120139689140FA680A431A60074B1B689B0F9B0701D1432300E01F23181CFFF720FDBD4604B080BDC0460C020B4008020B4082
:4018C000FFFF000080B584B000AF78600023FB607B68012B09D002D3022B0BD00EE00C4B1B681B041B0CFB600CE0094B1B681B0CFB6007E0074B1B68FB6003E00020FFF7F9
:40190000EDFCC046FB68181CBD4604B080BDC04600020B4004020B4080B500AF034B1A68034B1340181CBD4680BDC04610020B400404040090B585B000AF78603C1C0B34B9
:40194000FFF793FB031C2370FFF742FE031C002B04D00123FB60FFF74BFE01E00023FB607A680D4B13407B600C4B0C4A11680C4A11407A680A431A60084B1B68FB68012B7D
:4019800001D1FFF70BFE3B1C0B331B78181CFFF770FBBD4605B090BD0404040010020B40FBFBFBFF80B582B000AF0020FFF746FE031C002B03D01F4B00221A6026E0012081
:4019C000FFF73CFE031C002B03D01A4B01221A601CE00220FFF732FE031C002B03D0154B02221A6012E0144B01221A60114B00221A600020FFF76AFE021C104B1A600020C2
:401A00000021FFF733FE0120FFF7AAFE094B1B68181CFFF757FF031C7B60C046054B1B68181CFFF74FFF021C7B689A42F6D0BD4602B080BD60040020480400204C04002008
:401A400080B500AF0A4B1B68002B0ED0094B094A126801218A431A60074B1B680020191CFFF704FE024B00221A60BD4680BDC0464804002010020B404C04002080B582B026
:401A800000AF786000F04AF87B68181C00F008F8022000F011F800F037F8BD4602B080BD80B582B000AF7860024B7A681A66BD4602B080BD0000002090B585B000AF021C44
:401AC000FB1D1A700623FB603C1C0B34FFF7CDFA031C23700B4B0B4A1268C021101C8843011CFA1D1078FA68041C9440221C0A431A603B1C0B331B78181CFFF7BAFABD469D
:401B000005B090BD08E400E080B500AF024B802252001A60BD4680BD00E100E080B500AF024B802252001A60BD4680BD80E100E080B584B000AF021CFB1D1A700E4B1B6863
:401B4000DAB23B1C0F3340218A431A70FB1D1B789B01DAB240231340D9B23B1C0F333A1C0F3212780A431A70034B3A1C0F3212781A60BD4604B080BD0002044080B584B057
:401B800000AF021CFB1D1A700E4B1B68DAB23B1C0F3340218A431A70FB1D1B789B01DAB240231340D9B23B1C0F333A1C0F3212780A431A70034B3A1C0F3212781A60BD466C
:401BC00004B080BD0003044080B582B000AF78600A1CBB1C1A80BB1C1A887B681A60BD4602B080BD80B582B000AF78600A1CBB1C1A80BB1C1A887B681A60BD4602B080BD13
:401C000080B582B000AF304B1B78DBB21A022F4B1B78DBB213437B602D4B1B78DBB21A022C4B1B78DBB213433B603A682A4B9A4207D17B68072B04D1284B3B6004237B600B
:401C400009E03A68D4231B019A4204D17B68042B01D1224B3B60224B3A681A60214B7A681A60214B1B78DBB21A02204B1B78DBB213437B607A6880239B019A4202D07B68C2
:401C8000002B01D11A4B7B601A4B7A681A601A4B1B78DBB21A02194B1B78DBB213437B607A68174B9A4206D07A68164B9A4202D07B68052B01D1144B7B60144B7A681A600F
:401CC000BD4602B080BDC046D9F0FF0FD8F0FF0FDFF0FF0FDEF0FF0F580B0000580D00006C002E4074002E40DBF0FF0FDAF0FF0F0220000078002E40DDF0FF0FDCF0FF0F94
:401D00000F0F000005050000050F000080002E4080B582B000AF021CBB1D1A80BB1D1B88181CFFF7E5FABD4602B080BD80B500AF00F068F8BD4680BD80B500AF00F06CF8B1
:401D4000BD4680BD80B500AF00F066F8044B181C00F024F8002000F02DF8BD4680BDC0462D1E000080B500AF024B181C00F004F8BD4680BD2D1E000080B582B000AF7860D2
:401D800000F04AF87B68181C00F008F8002000F011F800F037F8BD4602B080BD80B582B000AF7860024B7A681A67BD4602B080BD0000002090B585B000AF021CFB1D1A7027
:401DC0000623FB603C1C0B34FFF74FF9031C23700B4B0B4A1268C021101C8843011CFA1D1078FA68041C9440221C0A431A603B1C0B331B78181CFFF73CF9BD4605B090BD38
:401E00000CE400E080B500AF024B802252011A60BD4680BD00E100E080B500AF024B802252011A60BD4680BD80E100E080B500AF0FF0C8FEBD4680BD002934D001230022B4
:401E400010B488422CD301242407A14204D2814202D209011B01F8E7E400A14204D2814202D249005B00F8E7884201D3401A1A434C08A04202D3001B5C0822438C08A042BF
:401E800002D3001B9C082243CC08A04202D3001BDC082243002803D01B0901D00909E3E7101C10BC7047002801D00020C04307B4024802A14018029003BDC046D900000072
:401EC0000029F0D003B5FFF7B9FF0EBC4243891A1847C046002941D010B4041C4C40A44601230022002900D54942002800D5404288422CD301242407A14204D2814202D2F1
:401F000009011B01F8E7E400A14204D2814202D249005B00F8E7884201D3401A1A434C08A04202D3001B5C0822438C08A04202D3001B9C082243CC08A04202D3001BDC08A8
:401F40002243002803D01B0901D00909E3E7101C6446002C00D5404210BC7047002806D003DB0020C043400801E08020000607B4024802A14018029003BDC0461900000015
:401F80000029EBD003B5FFF7A7FF0EBC4243891A1847C0467047C04670B50E4B0E4D0024ED1AAD101E1CAC4204D0A300F35898470134F8E710F0A0F8084B094D0024ED1ACB
:401FC000AD101E1CAC4204D0A300F35898470134F8E770BD0421010004210100042101000C21010030B50023934208D0C55C0133CC18013C2478A542F6D0281B00E00020C3
:4020000030BD10B50023934203D0CC5CC4540133F9E710BD031C8218934202D019700133FAE7704710B501F04BFC10BD10B501F05DFC10BD10B500F067F910BD10B50749B0
:40204000044609780220002907D1204601F06FFC002802D1204609F071FB10BDB2020020FFB585B0002568460E9F057339481C460078002802D0082009B0F0BD10990F9835
:4020800001900097029105A807C800F067F80028F2D10120694603AA0D73002C1BD0002113E08B00E55A082D09D91E19B678002E05D0083DE55213785B1C137003E004292D
:4020C00001D2012003E0491CC9B2B942E9D31178042900D300200028CED110990F9800F0A1FF002801D00120C6E701F0FFFB1A480599016021888180A188C180A27A02726B
:40210000A17B4172A089012540084843A0810220A073208950432081A5726846037B22460799069800F0A2F80028A5D16846094C007B607001F0E2FB00289DD1064806F074
:40214000D7FC002898D106F0F3FC002894D1257092E70000A801002064040020FFB53A4F1C4603463F780020364A0A9E0B9D002F12D100290FD0029991420CD3002B0AD02F
:40218000002C08D00999042905D3002E03D0FF216E318D4202D2012004B0F0BD00210A460D463FE08B001E19B678002E36D0E35A002B33D073435B199DB20B0000F048F869
:4021C00006040E15191D253F2388FF27A678233BEB37BB42DFD2032EDDD31FE0A3880C2BD9D91A4EB342D6D818E02389302BD2D114E0A389482BCED110E0228A134E1346D2
:40220000233B223EB342C6D208E0A38A0F4F1E46233E223FBE42BED29342BCD80028BBD1491CC9B2099B9942BCD319461C2251434A190449521802998A42ACD8ACE7002036
:40224000EEE70000D8080000A8010020DCFF000030B47446641E2578641CAB4200D21D46635D5B00E31830BC18470000FFB50F4606460024384381B01D46800701D0012440
:4022800038E0FFF76FFDFFF757FD00F097FA00282ED100F0D3FB00282AD11849084600F0F5FE0004000C23D13000154E04D03060B7800020F0803581AD1DEFB23946039842
:4022C00000F046F804000ED1B088F2880837801AF9B280B201F0CAF9002801D0012407E0E8B200F019F900F031F906490120087000F076FA204605B0F0BD00003D24000085
:4023000070040020AA01002010B503480078012801D101F04DF810BDAA01002070B5084B0446DA889E8800205518B54206D81D68AA182260DA885118D98070BD032070BDD7
:4023400070040020014800897047000070040020F0B587B007460D4600208900009006916846FFF7DBFF844600285DD1304800990160002117E02E4B88001A680629115421
:4023800006D22C4C0419667882185670628805E0C419203CA67A8218567022891B68C018491C4280C9B2A942E5D300242DE0601CC2B2059025E01E4FA3003968960058182D
:4023C00040887118039604904E88B04217D938466F46FE80B6464F786E4677710297049F4F800168039F5E18767879184E700168764659184E800068029F18184770521C0C
:40240000D2B2AA42D7D30598C4B2AC42CFD36046002809D168460699FFF780FF8446002802D1054900980860604607B0F0BD0000AC01002030210100B001002070470000B1
:4024400010B5002809D005494A68002A05D0011F08788000105801F0B7F810BDAC01002010B50446FFF76EFFC0B2801DA0420CD307484068002808D0A100405801F016F864
:40248000002801D00470001D10BD002010BD0000AC010020F8B516460D460446FFF752FFC0B2801DA04203D20020C0430090F8BDB2B2E9B2684601F01FF80099481C03D06B
:4024C000024AA000526811500098F8BDAC010020F8B50746FFF736FF801DC6B20A49002005460C680DE06178002907D06188B94202D32078FFF7B4FF002804D1241D6D1CC8
:40250000EDB2B542EFD3F8BDAC01002010B5002801D0FFF795FF10BD70B506460948002504680BE06178002905D062882078121D0023FFF7AFFF241D6D1CEDB2B542F1D3FB
:4025400070BD0000AC010020002070471CB5002469460C70142001902346054A05480CF07BFF04480068401C00D1FF2420461CBDC9250000B40100203EB5124A0146FF206F
:4025800000230124126800290DD0012914D0042908D104206946009308814B8110460CF056FF80B23EBD6846009304814381694610460CF047FFF4E768460093048143817A
:4025C0006946EBE7B401002070B545890468416800890300FFF73CFE06240408081D2124002005F05BFA1BE0022908D0C8B22A4621460BF0DBF92046FFF788FF10E00220A4
:402600002A4621460BF0D2F92946204600F00AF806E000200CF014FC02E020460CF0A2FF002070BD014B0022DB681847B801002070B5448905680089022803D0032809D020
:40264000FF2070BD2246094C0023A46829460120A04708E0FFF7EAFC241DA2B200232946022006F028F9002070BD0000B801002070470000024800214160018041807047A5
:40268000B801002070B50C46002186B016460391012802D0022859D116E003A9012006F062F901281BD1039D324621462846FFF7A8FC0095287801900220694608814E8195
:4026C0006846FFF7B5FF41E0214D002B686809D0049004A9022006F046F901281DD0022006B070BD002812D0298840182146FFF788FC28880024801980B228806988091D1A
:40270000884206D12C801348FFF792FF03E00320E6E788421AD96C6018E004986860E278A378110219430B4A698000231060E3565360032313815181A1788170E178C170F1
:402740006178417021780170042028800020C7E7B80100207C0400203EB515460C46022803D004280CD000203EBD0091019002206946088107484A8100680CF068FE07E0AB
:402780000BF014F9044B0022DB6829462046984701203EBDB4010020B8010020014AD16090607047B8010020034801688068081A0A214843000970478804002010B5FFF748
:4027C000C1FA542204490548FFF71BFC03490120C870002010BD00004C2101006807002010B5FFF7A3FA10BD70B5134C2368002B08D0207B1149C20705D04008400020738D
:402800008868A08070BD88680B4AA18880B29268814203D90A4D691A091802E0814202D2411A5118A160A080A0689842EAD300F015F80CF029FE70BD88040020C0102E40F3
:40284000FFFF000010B508461946FFF7A7FF10BD704710B5FFF780FF10BD000003480021016041608160C160704700008804002010B502000DD0FFF7F1FF074C0321207B52
:402880000843207310010A21FFF71AFB2060002010BDFF2010BD00008804002000B504480A21806848430209FFF7D8FF104600BD880400200248007B8007C00F70470000E6
:4028C0008804002010B537490868002802DA364B01221A70022290430860344800693149C00B4031096A08425AD0012000F074FA2E482F497C30FFF775F92A480E216C30AA
:40290000FFF770F9294820218430FFF76BF9274814219C30FFF766F92448FF21C131A430FFF760F92148FF212F31B030FFF75AF91E482049BC30FFF755F91C481E49AC305A
:40294000FFF750F91C491948491CB430FFF74AF916481A49B830FFF745F914481849CC30FFF740F9114817490830FFF73BF90F481549A830FFF736F90C4814498830FFF7DF
:4029800031F90A4812498C30FFF72CF907481921C9029030FFF726F9FFF732F9002010BDFF2010BD00F02E40C801002000002E4055650000320300002F3F00003102000001
:4029C00010520000EC160000FA12000031D000003AE3000070B50646581C80B245086D00002408E0304600F07FF81055000A1119A41C4870A4B2AC42F4D3D80705D0D018D7
:402A00002038D15CC47FD454C17770BD30B50A4C002100195B1E07E0541864782502545C2C430480891C89B29942F5DB994201D1515C018030BD000000102E4010B5FF20A5
:402A400000F0CAF90F49FF2048700E481021801D41800121417001700A490020C91C4870FFF730FF04000AD100F0DEF807210648FFF7AAF8044807211830FFF7A5F82046AE
:402A800010BD0000C8010020CC112E4030B504465B1C1804450C002308E0204600F024F8241D59005B1CA4B250529BB2AB42F4D330BD000070B500210A4D5B1E0AE0541822
:402AC00064782602545C344346193480001D891C80B289B29942F2DB994202D1515C4019018070BD00102E40014940180088704700102E40014A80180180704700102E40E9
:402B000010B50B490020487000F08EF8002000F089F9002000F076F907210648FFF754F8044807211830FFF74FF8002010BD0000CB010020CC112E4010B506480078012894
:402B400003D102210448FFF74DF802490020C91E087010BDCB01002070F02E4010B50B46062812D006DC01280CD0032801D1FFF7C7FF10BD0A28FCD00B28FAD10548007832
:402B8000107010BDFFF75AFF10BD1146184600F065F910BDCE010020F8B5204DAC6A0127A0071F4E002816DA307806280ED1286A384328621B480069F903084381B2194876
:402BC0001030FFF70FF8042000F006F9134802212830FEF7F9FFE00711D0062000F0FCF80F49FF20C91E48707078002802D1686B38436863094801212830FEF7E5FFE00555
:402C00000BD53078042802D1052000F0E5F80348FF2101312830FEF7D7FFF8BD40F02E40CB01002000002E4010B503212348FEF7D9FF0120FFF76CF820483038406A204C2C
:402C400080076178800F890001431C480C38FEF7C9FF6078002808D0401E022181401820FFF78EF9C000083800E0B82081B21548FEF7B8FF1348032109021438FEF7B2FFF4
:402C800010481149B830FEF7ADFF452189010F48FEF7A8FF0D480321001FFEF7A3FF0C490C48FEF79FFF0B480B496038FEF79AFF084801218838FEF795FF10BD70F02E4068
:402CC000CE010020D8102E4090890000041E2E40FF0F000058122E4020900000044800684007400F022801D0002070470120704700010B4000B5FFF7F1FF002805D0094827
:402D00000168C908C900016000BD0748016A490849000162054801690122D2039143016100BD000000010B4040F02E4000002E400849087806280BD148780749002803D1DA
:402D4000486B400840004863C86A01221043C86270470000CB01002040F02E400148007870470000CB01002002484078022800D001207047C801002000B50300FFF768FA29
:402D8000080D050D0B070507090D012000BD032000BD042000BD022000BDFF2000BD0000074A9168D26889B2064B92B2994204D105498A4201D1012100E000210170704723
:402DC00080002E4033D000003FE300000149487070470000CB01002010B50446FEF7ACFF072C01D9FF2C01D102480470FEF79EFF10BD0000CB0100200149487070470000A0
:402E0000C801002010B5064A012805D01921C9021046FEF7E7FE10BD1D21C902F8E7000090002E4010B50A4A141D012808D009491046FEF7D7FE08492046FEF7D3FE10BDA7
:402E400004491046891CFEF7CDFE0349491DF3E788002E4031D000003AE300000078074AFF2803D04C2804D9553803E01078087070474F380870107070470000CA0100204E
:402E8000F0B50122002830D000292ED00224420600D003246D2342065B06D21800D0641C034600221EE00C2516466E43104D00277519AF720E4F002ABB51696007D0661E92
:402EC000B24209D106466D367606760E05E05E06760E8027BE1B00E080269B198919521C2E81D2B2A242DED300221046F0BD000008060020074900200C2242435218927ACA
:402F0000012A05D0401CC0B20428F5D3002070470120704708060020F8B5044616460F000BD0184D6868A04203D9FF306E30A04203D3FF206E30864201D90120F8BD2046A2
:402F4000FFF750F800281BD0324639462046FFF758F8F0B200210C224A43521913895668F718A74208D90127A41B1B1B9772834206DAC01A1469C0B2491CC9B20429EAD3E3
:402F80000020F8BD0806002010B500F05BF80648FF22C1686E320C460448FFF732F803492046FFF76DFF10BDD401002098040020002070470020054A002902D0012902D041
:402FC00002E0506000E0906000207047D401002070B5084C154608460549A26889182A46FFF70FF8A0684019A06028B270BD000098040020D40100203EB50A226946FFF73E
:40300000E7FF044606480A2200686946FEF7EAFF002802D00020C0433EBD20463EBD0000D4010020002803D0FF226E32914201D2FF20704702490A61C86000207047000096
:40304000D4010020024800214160816070470000D401002070B5074C15460548626880182A46FFF759FF60684019606028B270BD98040020D401002010B503490A2209683B
:40308000FFF7E8FF10BD0000D401002010B50F4A002313600E4A13600E4B18600E4801600E49012008600E490860000290600E490C4808600D4914300860FF381538506090
:4030C00000F0BCF800F0CAF9002010BD00020020E8010020140200201802002004020020F401002038070020F80100200C020020014610B50020002910D0094B1A689C6801
:403100005118A14209D25868196080188A0704D08A07920F891A091D196010BD002010BDE8010020F8B50024164E671E321F3D463168136806E01422624310328A58521C06
:403140001BD0641C9C42F6D36A1C14D02C461422544322460C3288500C214843FFF7C8FF3168002808510AD031680020103408517068401C70602846F8BD2546E4E738467C
:40318000F8BD0000F8010020F3B50026F64381B000281BDB1E490968884217D80299002914D01B4F142204463F1D54432546396810354859401C09D0FEF7BEFD38682F1F10
:4031C0004159C359994203DBFEF7B0FD3046FEBD214608310091465801590C20704308180C220299FEF70DFF0948761C001D0068C159B14200D100260549009A091D86504B
:4032000008684159491C4151FEF790FD0020FEBDF4010020002803DB07490968884202D90020C043704704491422091D096850431030085870470000F4010020F0B50020F7
:403240000D4A451E0346171F50600FE014260146714314680E1DA3510C461668083433511668083435511468401C635039688842ECD30020F0BD0000F8010020F3B500266D
:40328000F64381B0002841DB2349096888423DD8029900293AD0204F142204463F1D54432546396810354859401C2FD0FEF744FD3868415900292BD0211D009146580C2179
:4032C000005971430F46C1190C220298FEF799FE11480021001D0068761C00590C34C0190160416081600C48001D00680159B14200D100260849009A091D8650086841594A
:40330000491E4151FEF712FD0020FEBD3046FEBDFEF70CFDFAE70000F4010020FEB504460D4600201E49089E0860471E009001900290002C11D0486885420ED2002A0CD029
:40334000002E0AD0642E08D808460C3001681C2068430C18207A002801D03846FEBD0120226020721846FFF7DDFE6060401C13D06681A6810A4827610C3067610179A94255
:4033800000D205710021684601810A462846029B00F040F82846FEBD00202072DDE700000002002038B50124009400F039F838BDFEB50027164EFF433D4600240EE01C2023
:4033C000316860430818017A002906D04068FFF721FF002801D0254603E0641C3079A042EDDA681C12D01C2130684D434419FEF7A3FC69466068FFF741FF0546FEF796FCE5
:40340000002DD9D1216868468847D5E7FEBD00000C02002038B50024009400F001F838BD1FB500220C49541E0A60002811DB496888420ED808491C220C31096850430818FB
:40344000406801A9FFF7A0FE401C02D0002004B010BD2046FBE7000000020020F0B50021114A4D1E174611710C3F0B46BD6016E008461C2460431668041D355114680646F5
:40348000235014680836A3551468361DA353044616680A34335318301468491C255078688142E5D30020F0BD0C02002038B500210091002811DB0F49097888420DDA0D4D0B
:4034C00004010C3529680859002807D0201D0818694600F071F9002801D0002038BDFEF72BFC28680F34015D491E0155FEF71EFC009838BD1C020020F7B582B000250298A0
:403500006E1E06602E48D21C024017462D4A2C4610460C380178106805E02301C358002B0FD0641CE4B28C42F7D3711C28D03401211D40180191039900F02CF900281FD19B
:4035400001E02646F1E71F48016820460C300F521C480399026820460E30115419480399026820460F3011540398784300F0A0F8144900280968085102D00024009011E0CB
:4035800001251AE00F48016801980818009900F02EF9002801D0012502E00098C0190090641CE4B203988442ECD3002D05D10298066004480179491C0171284605B0F0BD1A
:4035C000FCFF000028020020F8B50D4600216A468C461180002839DB23490978884235DA214B04010C3319680A59002A2ED020460C300B5A801C0E5C184670438018954207
:4036000024D3854222D2002006E007465F43BF18AF4206D0401CC0B2B042F6D36046002814D0114E271DC8190C366A46294600F008F900280AD168460088012808D0306862
:403640002946C01900F0D3F8002803D00120F8BD0020F8BDFEF770FB30680F34015D491C0155FEF763FBF3E71C020020F8B50F46002400F033F8002817D10C4900220B46C9
:403680000C334A600EE021011D680E466A501D680C36AA53B61C1D680F31AA551D68641C6A54E4B2BC42EED31A71F8BD1C020020014610B5002000290CD0C91C064B8A0895
:4036C000596892005C888A18A24202D898685A60401810BD002010BD1C020020F8B5064600200F4D009029700C0121466846FEF715FE00280CD129460C3100980860301B65
:40370000001F84B221466846FEF708FE002801D0FF20F8BD6C800098A8600020F8BD00001C020020F8B5002827DB19490978884223DA174C05010C342168485900281CD050
:4037400028460C30085A009028460E300E5C401C0E5420682F1DC01900F064F800280CD12068002445590EE0094829460C300068C01900F03CF8002801D00120F8BD0098DB
:403780002D18641CE4B2B442EED30020F8BD00001C02002030B50D4604000BD0A800FFF787FF6060002805D000202570C0436080002030BD012030BD70B50D46040005D0E8
:4037C000002D03D00220205E002801DA012070BDFEF7B2FA0221615E60688900405828606088401E6080FEF7A1FA002070BD70B50D46040007D0002D05D002212078615E12
:40380000401E814201DB012070BDFEF795FA6088401C00B26080616880000D50FEF786FA002070BD10B5040009D0227800216068FEF7F0FB0020C0436080002010BD012065
:4038400010BDF0B500231D46002802D00224045F0AE00120F0BD46689F00F6598E4201D1012503E05B1CDBB29C42F4DA15700020F0BD000001480078704700003002002002
:403880007CB505460024FEF7D1FBA8796946087000A8062229460130FEF7B3FB0021684604F05AFB0C2804D0072804D01F2804D004E0022402E0042400E0272420467CBD30
:4038C00010B502280BD0032802D0042809D102E000F0CEF805E000F09DF9FF2801D100F0ADF9FFF73BFAFFF747FA10BD10B500F0D5F9FFF733FAFFF73FFA10BD10B50324AC
:403900000CF0B6F9002810D10CF05AF900280CD105F078F8002808D100F09CFB002804D104F074FD002800D10024204610BD70B50025044600280ED0A07901280BD8FEF72C
:4039400075FBA0790028204602D002F093FF03E002F048FF00E00125284670BD10B5FFF7FDF9012801D1FFF7FFF910BD38B504460120002C20D0617801291DD800290BD046
:40398000FF25E535FEF752FB2846FFF7ADF8C0B22070072803D00EE0FF25CD35F2E70020694608706846FFF7FBF969460878012801D108202070002038BD70B50446012027
:4039C000002C1FD06178012902D92278092A19D8002905D0FF25E5352078092803D004E0FF25CD35F8E707202070FEF71FFB2078082808D00020FFF715FA21782846FFF7C7
:403A000079F8002070BD0120FFF70CFA0721F5E770B50D46040001D0002000E00548002802D0012102F0D6F82946204602F038FC70BD0000DC07002038B505460020044664
:403A4000009022466946284600F09CFF0098002801D00CF0EFF8A878214602F0E0F9A878214602F0CFF9641CE4B2052CE9D338BDF8B5624CFFF772F9012846D1604800788B
:403A8000002842D002F090FB0028FAD003F06EFF0028F6D05B4E7078C00703D000F047FC0128EED0B07E0028E7D170780025002878D0000707D5AC20FFF716F8070B00F08A
:403AC00061F9384321D14F484178684603F026FE4D4F06462079B9784018C1B2B14271D802F062FB002810D0464C203402F089F96846008802F0B5F902F05EFA4349098843
:403B0000884203D10120FFF767F974E04049012008703C48807B00282BD04034608A002827D0E07E002824D1A1200001FEF7DCFF208A4000B04218D97878002815D1A1243E
:403B400024012046FEF7D0FF0221884301462046FEF7D0FFFF24F1342046FEF7C5FF0321090201432046FEF7C5FF3878002800D03D7002F0B9F90120FFF728F9244C08E015
:403B8000FDF7CAFBFFF7EAF806282CD02078002829D0FFF7E3F8062825D020780128EFD021E0FFE702F000FB002824D0142002F058F9174C0120207002F096F90020FFF70B
:403BC00005F909E015E0FDF7A7FBFFF7C7F8062809D02078002806D0FFF7C0F8062802D020780128EFD0207801288BD1FFF782F825700020F8BDFF20F8BD0000A807002039
:403C0000C8010020BC07002036020020480200203102002010B50848FF244078002809D102F0C2FA012805D1FEF786FF0720FFF7D3F80024204610BDBC07002038B5FFF785
:403C40008DF8012801D0002038BD02F0ADFA00280AD0114C6078C00703D000F068FB012802D0A07E002801D0FF2038BD617800290FD0684603F052FD022806D968460088BD
:403C800002F0EFF8012002F035F90320FFF7A4F8D9E70020F7E70000BC07002038B5FFF75DF8042819D0052817D006281AD0032842D007280AD10020694608700246012024
:403CC000FEF74CFFFFF74AF80128FBD138BDFDF723FBFFF743F80128F8D0FFF73FF80128F5D138BD02F024F905E0FDF715FBFFF735F8012803D0FFF731F80128F5D1A12433
:403D000024012046FEF7F0FE01220E4983079B0F0A70022BE5D149880029E2D0104301462046FEF7E7FE2046FEF7DEFE410849002046FEF7DFFE38BD02F0FEF80120FFF78F
:403D40004BF838BD36020020F8B50646002402F0A3FE0546304602F0B7FE00210346012632468A40174610462F401840002F03D0002801D1224394B2491CC9B20529EFD3D7
:403D80002046F8BD70B500252C460A4E03E0002C01D0002000E030460079002803D02046FFF7D2FF0543641C2406240EEFD0284670BD0000DC0700201CB500206946487004
:403DC0006846FFF7D3FD01AA69460A20FEF7C6FE6946042008561CBD10B50C4601F076F9002809D00179002906D0C1788078224602F004FB002010BD022010BD01480078F0
:403E000070470000A80700204030C07E002800D00120704700B500F001F800BD88214843064940186030417F491CC9B24177052901D300214177C8B270470000BC07002071
:403E400013B501F043F904000BD001F096FC002807D0214601AA0A310620FEF77FFE00201CBD02201CBD000010B50C4601F02EF900280AD001F081FC002806D022460449C1
:403E80000A20FEF76BFE002010BD022010BD000091070020F3B581B0074601460026029802F0F2FD0446002F01D0002500E0154D002D21D0284601F03FF9032C04D13946EF
:403EC000029802F00BFE06463846029901F09AFF032C06D0002C10D00121384601F01AFA03E03146384602F0ADFF284601F058FE0221284601F06EFEFEBD3846029901F0AA
:403F000081FFFEBDDC07002070B50446002503F09BFB002801D00C2070BD2078611C02F067FBFF2802D01F25284670BD02F0B4FBFF2804D02178621C01F0D6FEF4E7072514
:403F4000F2E710B503F080FB002801D00C2010BD02F026FB002010BD70B50D46044610210BF0A8FD1021601806460BF0A3FD334610221946204603F093FB102130460BF08D
:403F800099FD02202870204604F098F970BD70B504464078217802028006850FE0781143A67809050002090D0643084601F08EF8002812D0022D10D0032D0ED0002E08D090
:403FC0000179092909D0002907D0214600F0A1F870BD0089002104F0A6F820460BF02AFE70BD0020704770B50446002503F02CFB002801D00C2070BD2078611C02F0F8FA5D
:40400000FF2802D002F03AFA00E01F25284670BD10B504F0FBF900F0F6F8002010BD10B5044600786178E2780843A17811430843217908436179084305D003F0F7FA002882
:4040400003D00C2010BD122010BD204602F012FC002010BD10B5044803F018FC02F018FA00F004F8002010BD78070020F8B5114D00266E706E736E716E76AE76EE766E7570
:40408000AE70EE70AE712F46EE730120B03778723F207871FF20B87100F00AFA0024204601F032FB641C2406240EF8D03E72FE71AE73F8BDBC07002070B505460E460846E3
:4040C00002F0EAFC0446304602F0FEFC0121A9400A46224001400A4301D0012070BD002070BD10B50446084602F0EEFC0121A140014201D0012010BD002010BD10B5FEF7A0
:404100002DFE032804D101F017FF0120FEF764FE10BD70B5044600790D4609281CD000281AD020464030817E491C8176204601F037FDA078FFF76EFE0646024629462046FF
:4041400000F00CF8002806D1A0783146FFF760FC28460BF06FFD70BD0846FAE7F7B5054648780C468006870FC8788978000282B0014368468180284601F00AFB060007D06C
:4041800021462846049A00F091FB304605B0F0BD384600F039FC0746034601AA2946204600F0CAFA68468088231DC0B20090A878FF22049902F02EF8684680883B46C2B232
:4041C000A878049902F0D2FBDFE770B5002500242846FFF7B9FD060010D03046E040C007C00F07D02146284601F0FFFD21462846FFF750FE641CE4B2052CEED36D1C2D066D
:404200002D0EE4D070BD10B502F042F9FFF72EFF0BF078FD002010BDF8B5002400F081F80123012800D10124104F00203E4620360425082203E0002801D0002100E0314673
:404240000979002907D001290BD002290BD0114681402143CCB2401C0006000EEBD07C70F8BD1C43F7E72C43F5E70000BC07002010B5FFF7D1FF10BD10B50B4681791943BC
:40428000817103D08078114602F034FB10BD10B582798A43827102D1807802F043FB10BD70B5FF25D53502242846FEF71DFC0C4A9178002901D0022906D1137852789A185D
:4042C000282A01D9032402E0032900D101244105490DE00201432846FEF70CFC70BD00003202002010B500F022F8002807D0012805D0032801D0042801D0002010BD0120E6
:4043000010BD014610B50020C90701D000F009F810BD014610B50020C90701D000F001F810BD10B52020FEF7DFFB000A10BD10B51820FEF7D9FB410501D5042010BD4007DD
:40434000800F10BD38B5044640060CD5684601F003FE0220FFF78CFF072002F0B5F96846007801F03FF9200613D5FFF7E0FF01280FD1684601F0F0FD6846007800F09AFA08
:40438000072002F0A1F9012001F072FC0220FFF76FFF38BD10B5034A0178117002F0A3F9002010BD3202002010B50446FFF7B9FF002801D00C2010BDA27B01211848002AFC
:4043C000827801D00A4301E05208520082706279012A0FD0C17849084900C170207901280CD06188208802F09BFF2080207904280BD00DE0C2780A43C270EFE7E01D02F0D7
:4044000021FA0848808C208002E0E01D02F01AFA054920798870204602F074F9002010BDBC070020680700203202002038B50478FFF777FF844201D10C2038BD002C18D087
:40444000072069460870FFF74DFF012807D10121684600F08DF8012801D0092038BD6846007802F031F9FFF71BFF02F078F9012010E0FFF737FF012806D1684601F06CFD54
:404480006846007800F04AFA072002F01DF902F05DF90220FFF7ECFE002038BD10B5034A0178517002F0FEF9002010BD3202002038B568460BF054FB002801D01F2038BD8C
:4044C00001210098C90201804180002505714571857107214173857302F014F9009C202200212046FDF796FD25702A460021601CFDF790FD204602F0F6F8204602F0D2F963
:4045000000980BF097FB042200210248FDF782FD002038BD320200200346084800B5834209D8184600F0D2FD002804D00089984201D1012000BD002000BD0000FF0E0000DF
:40454000074A9179491C8906890E917138220A4092014907090E11430843024908407047BC070020FF0E0000C006C00E70470000F8B507460E4600240D4803E0002C01D0EA
:40458000002500E005462979002905D0641C2406240EF3D00020F8BD204601F0B5F82E712046FFF7CDFF28813C700120F8BD0000DC07002010B503F0A7F80222002100F012
:4045C00003F801F00DFF10BD10B5094B40074907000F090F185A595A40185043C0086421FDF76EFC002800D1012080B210BD0000A0210100F7B53D20405C88B016460C46FE
:40460000002829D030786946087200252046FFF7FBFB012800D00125204603A938300191009023460327A17E34332A46206A03F047F902A8089900900B46019120463A466C
:4046400003A9243003F00EF802466846007A3070204601F045F810460BB0F0BDFFB587B00C4605461078694608723D20005D1746002826D000262046FFF7C6FB012800D035
:404680000126204603A93830019100902346A17E34333246206A03F013F902A80090291D019120462B1D03A924300A9A02F0DAFF02006846007A388002D1204601F010F804
:4046C00010460BB0F0BDF7B53C20405C88B015460C4600280CD0287869460872002806D000262046FFF790FB012803D003E01F200BB0F0BD0126204603A938300191009052
:4047000023460327E17E34333246E06903F0D8F802A8089900900B46019120463A4603A9243002F0D1FF02466846007A2870204600F0E0FF1046DBE7FFB505463C20405CEA
:4047400087B016460C46002810D0084601F020F801280BD0308869460883002809D000272046FFF751FB012805D005E000200BB0F0BD0220FBE70127204602A9383001918D
:4047800000902346E17E34333A46E06903F098F806A80090291D019120462B1D02A924300A9A02F091FF02466846008B30806846008BA870000AE870204600F09BFF1046DB
:4047C000D5E770B50D460446FFF71EFB01280AD0E87AA97A00020143A07801F0BFFC012808D0002070BD00222421204602F0E2FC242070BD28214C200155204600F09AFB48
:40480000282070BD002801D0002000E003484030C07F012800D0002070470000DC0700200146002049070ED50021084B03E0002901D0002200E01A461279022A04D0491C00
:404840000906090EF3D0704701207047DC0700200146002049070ED50021084B03E0002901D0002200E01A461279022A04D0491C0906090EF3D0704701207047DC07002005
:4048800010B5044680346068002803D00BF0E6F90020606010BD4030417070474030817070474030017070470171704792001018C166704770B53C2501F0F4F8040004D067
:4048C00020460021433001F0E9FB2946204600F0C0FB002C02D0A07801F076F870BD000010B5002801D0002000E00348002802D0008903F05FFC10BDDC07002010B5002830
:4049000001D0002000E00448002804D00179072901D100F041F810BDDC07002010B501F0C1F8002802D0807801F04EF810BD00207047000070B50546008A00281ED0104944
:404940001122897A1140C90618D5294640314A8A098A521C4A4392B2D10800D10121540801E0621A94B2A042FBD9FEF783FF012804D1298AA878224601F0E0FC70BD000043
:404980006807002000230B60052A04D292001018C26E0A60C366704738B5044600200090A079002814D14020015D052901D00E290ED168460BF0E4F8002809D1204600993B
:4049C00002F0E0FB03481021C28A2046FFF754FC38BD00006807002010B50B4604460146184602F0AFF8002802D020460BF02CF910BD13B5044601AA11460620FEF7AEF832
:404A00006846818861811CBD002800D10220704770470000F8B504462346401D543300909A1EA078911E01F0A6FA25464035A88A298A8000FDF744FA401E81B2688A8842D3
:404A400003D96982A07801F0E0FF20460021433001F024FB8020FEF747F8E88102F054FEE989891C8AB26179FFF7AEFD01F0B8FC02F04AFE2A8A6179FFF7A6FD074601F0EA
:404A8000A1FC688A00280BD0FF26F1363046FEF72BF80321090201433046FEF72BF802E0002001F0A0FFFF206130FEF71DF86E8A002E0BD070431049FDF762FA0004000CD0
:404AC00001D0401C80B20D49488002E00B4800214180288A704381B2A07801F0F1FE2837B9B2204602F020FCE98AA07801F040FEA07801F0AAF9F8BD71020000360200206E
:404B00007FB504468034616805460E46183108226846FDF776FA31462031082202A8FDF770FA102168460AF0C5FF6068102108300AF0C0FF60682B4608302433102269462C
:404B400002F0AEFD7FBD10B504460821FFF79FFB10212046FFF79BFB207905281FD006281DD008281AD12189002003F09BFA072020712046FFF748F9014620464030012998
:404B800013D00E21017000210176204600F028FF2046FFF775FE2046FFF7CCFE10BD20890122002103F062FAE1E70521EAE70000FFB581B01F4604460821FFF768FB102159
:404BC0002046FFF764FB2079082803D0092804D0042203E00422012501E009220025204600F0C2FD264600204036307022712046FFF746FE0398002D02D0012808D00BE063
:404C000001280AD120890022029903F02FFA04E02189029803F046FA012700203076012F04D0204600F0DCFE05B0F0BD02983073204602F0EBFA054605480121C28A204629
:404C4000FFF71AFB002DEFD109202071ECE700006807002070B50C460546FFF7D5F8012809D108212846FFF712FB0023012221462846FFF79DFF70BD10B5044600F074FDB4
:404C80002046FFF7FDFD00214034217010BD70B505461A24FFF7B8F8012809D108212846FFF7F5FA0023012221462846FFF780FF70BD0000F8B50446002000900E46684672
:404CC0000AF05EFF002801D00D20F8BD8420005908212030009D00F0F4F920460421383000F0EFF9002E02D1204600F07BFD2946204602F0D7F90E480821C28A2046FFF73A
:404D0000BBFA204600F0D3FE25464035002808D0204600F023F8002801D0092028700020F8BD08202870204600F03AFFF7E7000068070020014610B540310A46097808297C
:404D400006D0092907D00A2901D100F091F810BD0B20107010BD00F001F810BD70B50446007925464035052805D0062803D008280FD00C2070BD03220621204602F01AFAF0
:404D80000D480821C28A2046FFF776FA1120287010E006202873204602F038FA0646AA8A0A20424301212046FFF766FA002E01D109202071002070BD6807002038B504467F
:404DC0000020009068460AF0DBFE002801D00D2038BD2046009D00F08BF908202071204600F000FD2946204602F08EF900213D2001550F2040210855204600F0D1FE002090
:404E000038BD00B5024600F0AFFC10214032117000BD10B50446FEF7F7FF012809D04020005D112805D100231A4606212046FFF7BFFE10BD10B5FFF786FE10BD38B5044669
:404E40000021684600910AF09BFE00280CD12046009902F0D0F905480821C28A2046FFF70BFA0D204034207038BD00006807002038B504460021684600910AF081FE002870
:404E800001D00D2038BD2046009902F0A9F905480821C28A2046FFF7EFF90C2040342070002038BD6807002000787047F8B50025002801D0002400E01A4C002C28D02046A4
:404EC00000F05BFC002823D0207903281CD005281CD026464036B18AA07801F0FFFCB078012815D10021204601F049FE274680373868002802D00AF0B1FE3D600020B0702C
:404F00002079072805D007E0042000E006202071F8BD2046FFF70EFD0221204600F05AFEF8BD0000DC07002010B54C22115400F046F810BD10B50446FF21FFF7A8F909200B
:404F40002071A07801F0FAFC10BD000038B5FF216A461180002801D0002400E0064C002C08D011460620FDF7F9FD684601882046FFF73FFD38BD0000DC07002010B50446F6
:404F80008079002809D022214C200155FF212046FFF77DF9204600F012F810BD10B5037902464032002B03D01173092B02D003E0002100E02221117300F001F810BDFEB53C
:404FC00004460089002701902781207926464036002817D0012815D002280AD112E002AA6946204601F09CFD002807D100980AF02BFE204601F0BCFD0028F0D02046FEF796
:405000001BFDB776254680352868002802D00AF025FE2F606868002802D00AF01FFE6F60317B002902D0019800F044F8A078002100F024FF2046FFF7BDFAA07801F078F8E1
:40504000A07800F0C1FC0B20FFF712F900F000FCFEBD70B50E46054602F052FB044606702846FEF7D1FE014601204140204661700C3000F0FCFF002D10D028896080284650
:405080004030C1782171002E10D169796171018AE180418A2181808A608107E01820FDF723FDC005C00F207100206080204602F0A2FF70BD0A4610B50146002003F092F837
:4050C00010BD10B50AF0D2FA10BD000000B50146FFF74AFA002801D0002000E00348002802D002898A4200D0002000BDDC07002038B5044680346068002806D168460AF0B6
:405100004FFD002801D100986060606838BD000010B5014600F03CFB0128887802D0FEF77DFE10BD88214843024940186030007F10BD0000BC07002070B5054604464035E4
:40514000A87F012811D1A1788820084A484380186030067F3046FEF7AFFF002805D10220A877A078314601F0A9F870BDBC07002010B50E4CE079002816D0FFF726F80C483B
:40518000827FC17F808B00F06BFB01280CD10020E07100F0EAFE0446AC20FDF7A5FC010B02D0204600F00EFA10BD00006C080020BC07002070477047490510B5490F0B00EF
:4051C000FDF746F8060704080C0C0F073E21FFF7ABFE10BD0821FFF7E1FE10BDFFF7EFFE10BDFFF7CBFE10BDF8B507460025002D01D0002600E0204E00F06CFE3046403093
:4052000044890021418100F08BFE304600F0B5FA01282BD1A00702D52846FFF747FEE00602D52846FFF792FEA00601D5FEF7CDFF600601D500F0C8FA200602D5284600F0AD
:405240001DF8600702D5284600F0FAF9380402D52846FFF753FB780402D52846FFF740FBE00703D021463046FFF7A6FF6D1C2D062D0EBCD0F8BD0000DC070020F8B5002891
:4052800001D0002400E0204C002C39D025464035A878012834D1E98AA07801F069FA2046FEF7B2FD01282BD002F02EFA2A8A6179FFF78AF9064601F085F82836B1B220463B
:4052C00002F032F8E98AA07801F052FAFF206130FDF70AFC6E8A0D4F0146002E11D0304648430B49FCF74CFE0004000C01D0401C80B27880288A704381B2A07801F0E0FA02
:40530000F8BD0020F5E70000DC070020360200207102000070B50D46124A010001D0002401E014462034002C1BD0204600F030FA01280AD18820484380186030007FFEF72B
:40534000BBFE002801D101F0EBFE20464030817E491B8176204600F023FC2089294602F0E2FE70BDBC07002070B503460088FFF7ADFE040013D000F000FA00280FD02079F9
:40538000092819D02546997840352973204601F03DFF0646A878012803D0AA8A02E0022070BDEA880A20424301212046FEF764FF002E01D109202071002070BD0EB50022F9
:4053C00017216B460292198100905A810120029B00990AF0B5FC0EBDF8B5184E0024F079002820D10025AC20FDF77EFB000B21E0204600F06FFEFDF777FB07462A462146EE
:4054000000F02EFA01280FD00D48012187838577C477F171002D01D0002000E02030002801D000F0BDFBF8BDAC20FDF75DFB000B641CE4B20028DBD1F8BD00006C08002038
:40544000BC07002010B50088FFF740FE002809D0014640310C460978082905D00B2903D00C2010BD022010BDFFF778FC002801D009202070002010BD70B503460088FFF752
:4054800025FE040008D0254640352878082805D00B2803D00C2070BD022070BD8420005910220830991CFCF7ACFD2046FFF728FB2878082804D02046FFF7DAFC002801D0B4
:4054C0000A202870204600F06BFB002070BD000010B50C46002121700088FFF7F7FD03000BD000F04AF9002807D009481121807A0840C00603D4112010BD022010BD022025
:4055000020701A8A1889002102F088FE002010BD68070020F8B50F46002100910088FFF7D5FD040012D000F028F900280ED0E079410641D4617E02264A07002A08DB8907D6
:40554000402500291ADA2843E07135E00220F8BD02F0D6F80021017021894180A1898180217E4170E189C1803E7005460178134802F0BAFB284602F0F5FD1DE0204600F005
:405580000DF9012806D068460AF0FAFA002803D00720F8BD2A20F8BDE07900992843E071204601F05DFE607E0421304360760448C28A2046FEF760FE0020F8BD1D04000081
:4055C000680700203EB500220F236C460292238100910190628169460EC900200AF0B0FB3EBD000070B5054600F05CFA040021D003202071254600264035EE76E67020461B
:40560000FFF708FA01F0A2F80920FEF731FEA07800F07CFD0121204600F0DCFA2E706E70AE7000212046FFF714FD0449887B401C887370BD284601F081F970BDBC070020E6
:4056400010B5002801D0002400E00A4C002C0FD020464030417802290AD1002141702046FEF7D2FB002803D10221204600F0B2FA10BD0000DC07002070B503460D4600883E
:40568000FFF724FD04000BD000F077F8002807D012481121807A0840C00603D4112070BD022070BD20464030418A008A491C41430804C10C5888884201D2122070BD208213
:4056C0002079072802D12046FFF734F9022028702089002102F0CAFD002070BD68070020016A491C016204D1817E491C4906490E81767047C169491CC16104D1C17E491C83
:405700004906490EC176704770B500250646002801D0002400E0114C002C1CD0882200212046FCF777FCA67000202646207140363070204600F018F8204601F015FA0848D1
:4057400020820848B577807A1121084000D001202075012070BD002070BD0000DC070020B80B000068070020002101628176C161C17620300177417770470079002805D0A0
:40578000012803D0022801D001207047002070474030807F002800D00120704740300078002807D0012805D0052803D00E2801D0012070470020704710B5807801F084F93E
:4057C000002800D0012010BD10B500F0CEFB0446AC20FDF789F9010B02D02046FFF7F2FE10BD000070B5054604464035A87F002823D1FF206075A0788821144A484380181A
:405800006030417F8823491CC9B24177A078584380186030052901D300214177A0788821484380186030467F0677A1783046FEF743FC002802D00120A87770BD0220A877FE
:40584000A078314600F03AFD70BD0000BC0700200020401C0006000EFBD0002070470000F0B515468207920F85B0C004C00E02926A469080002D01D0002400E0514C002C20
:4058800029D0084600F026FC03906846808800280BD00298012845D0022843D003280CD03D20005D012872D086E00398FDF71CF901462046FFF79DF87EE00020029002A806
:4058C0000AF03EF9002807D03D20005D012876D12046FFF705FF72E06846029E8388324600210398FDF776F80398FDF7FDF801462046FFF77EF8284600F0B9FA01AA2146ED
:405900003046FEF777FE002806D030460AF088F93D204C21085528E0F5773146204601F071FA4CE000200090278968460AF0F8F8002802D0002005B0F0BD6846009E8388CD
:40594000321D00210398FDF745F80398FDF7CCF801462046FFF74DF8284600F088FA25464035287E00280CD103E02046FFF7E2FA25E001AA21463046029BFEF76FFE002876
:4059800006D030460AF042F93D202873EDE710E00298FFF73DF8390A000101433770717068468088B070000AF0703046FFF706FD05E02046FFF794FE284600F058FA012082
:4059C000B9E70000DC07002010B5044A917B002901D0491E9173FFF797FE10BDBC070020F8B5074606464037B87F00283DD0B0788821009048431F4945186035287F009996
:405A0000FEF76FFB012831D0287F401CC4B2052C00D300240020B877FF276F772F77A87702460146009800F0C9FD717DFF2903D0304601F05AF8777501F072FB00252F46B9
:405A40002246694630460097FEF79CFF0099002902D03046FEF75DFB641CE4B2052C00D300246D1CEDB2052DEAD3F8BD0320B877F8BD0000BC07002010B502460021084BA6
:405A800003E0002901D0002000E018460479944204D0491C0906090EF3D0002010BD0000DC07002000B50120FFF7E6FF00BD10B5044601F025FE218901808034616841606C
:405AC00061682831816002F007FB10BDF7B50646087982B00C46092807D0A078F0770846FFF756FE012806D010E030460AF0ACF8022005B0F0BDA1788820284A48438018E9
:405B00006030007FFEF7D8FA012810D0A078FEF779FE01280BD037780121304601F0ADFA25462035062F36D00B2F0FD107E06846027C21463046FEF74FFF0D20D9E7204684
:405B4000FEF762F9012801D1002028772046FFF7DFFA054604AA21463046FEF7B4FD01205F2108556946087C0090A07833463A46294600F04FFB69460A7CA078032329460D
:405B800000F0F4FEA0782946FDF742FF30460AF05BF80020ADE70120D7E70000BC07002010B502464032937F0021002B03D1927E002A00D00121064AD279002A00D000217B
:405BC0000279092A00D10121807800F0F9FE10BD6C08002070B50C460646FEF715F9002814D1012C0ED935464035A87800280DD1687802280AD03079092807D03046FFF7C6
:405C0000DBFD0446204600F008FE70BD0124F9E770B50D4601280BD0082808D1A8241146B020FCF767FF29462046FCF763FF70BD2020FAE710B501460820FCF75BFF10BD1D
:405C400010B50446FF20F130012C01D1FF20D530002200F000FF1020FCF746FF0349A043088001461020FCF745FF10BD3A02002010B504461020FCF737FF0449A04308808B
:405C800001461020FCF736FF10BD00003A02002010B50446012802D0082C07D102E0FF20D53001E0FF20F13000F0CAFE1020FCF71BFF04492043088001461020FCF71AFF2F
:405CC00010BD00003A02002010B504461020FCF70BFF04492043088001461020FCF70AFF10BD00003A020020F8B507460120B84085B214460E46012229467C2000F0ABFEAC
:405D000032462946782000F0A6FE6078217800020143E078A5780002054360792679000206430C2047430D2080013C182046FCF7E1FE241D29462046FCF7DCFE201D314690
:405D4000FCF7D8FEF8BD401880B270478B00034310B5D10191201943C000FCF7CBFE10BD70B505460C46407829780002014341200001FCF7BFFEE878A978000201430A481A
:405D8000FCF7B8FE60782178000201438320C000FCF7B0FEE078A1780002014302480830FCF7A8FE70BD00001404000070B50D46044681B201208002FCF79CFE210C0448CA
:405DC000FCF798FE81202946C000FCF793FE70BD0404000070B5054600242846FCF784FE641CA4B2102CF8D370BD10B50C460146B020FCF77FFEFF2021462D30FCF77AFE24
:405E000010BD704710B50C460146B020FCF772FE204600F04BFE0021FCF76CFE10BD70B50C46054600F005F821462846FFF7DDFF70BD10B50C460146B020FCF75BFEFF2047
:405E400021462930FCF756FE10BD10B50146B020FCF750FEFF20002220211D3000F0FBFD10BD10B50146C020FCF744FE10BD010210B54D310020FCF73DFE10BD10B5040293
:405E80000029014608D0B020FCF734FE214675310020FCF72FFE10BDB020FCF72BFE512000214001FCF726FE00210348FCF722FE21467631ECE70000240A000010B55421ED
:405EC0000020FCF717FE10BD10B553210020FCF711FE10BD10B5034908884880FFF7C8FE10BD00003A02002010B550210020FCF701FE10BD10B50E2400280CD0C420FCF750
:405F0000F3FD20430146C420FCF7F4FD51210020FCF7F0FD10BDC420FCF7E6FDA043F1E710B502484088FFF7CFFE10BD3A02002010B5FCF7FDFE10BD10B552210020FCF7BD
:405F4000D9FD10BD884201D8081A03E00022D243101A401880B2704710B504461820FCF7C3FD8004400F207010BD10B5B020FCF7BBFDC0B210BDF8B50E4601461C46154686
:405F8000B020FCF7B7FDFF20E930FCF7ADFD0746FF200130FCF7A8FD3080FF200930FCF7A3FD2880FF200530FCF79EFD208079070698490F0170F8BD10B5C820FCF794FDCE
:405FC00010BD10B50C46002812D05820FCF78CFD2070000A60705C20FCF786FDA070000AE0706020FCF780FD2071000A607110BDFF20C130FCF778FD2070000A6070FF20CF
:40600000C530FCF771FDA070000AE070FF20C930E8E7000000B5024A00F004F800BD0000FF7F000000B51346FFF78CFF984201D8022800D2002000BD10B50146B020FCF7A7
:4060400059FD0248FCF750FD10BD0000080A000010B52420FCF748FD10BD10B50146B020FCF748FDFF202130FCF73EFD10BD70B504466820FCF738FD06466C20FCF734FDB9
:4060800005467020FCF730FD2670310A6170A570290AE1702071000A607170BD10B50446012905D01820FCF71FFDC00B207010BD4820FCF719FD8007C00FF7E710B50146E3
:4060C000B020FCF717FD0248FCF70EFD10BD0000280A00000120C0027047000010B50146B020FCF707FD0248FCF7FEFC10BD00000C0A000010B50C460146B020FCF7FAFCE4
:406100000321A0014902401810BD00008821074B414310B5C918FF2260314A770A7700228A77114600F04AFA10BD0000BC07002088225043074A10B58018FF216030417760
:406140000177002181770448418EFF201D3000F077FC10BDBC0700206807002010B50C460146B020FCF7C6FCFF202530FCF7BCFC0222214600F002F810BD000010B5002339
:40618000884201D8081A03E00024E443201A4018044980B2884201D8824200D90123184610BD0000FF7F000010B5C420FCF79CFC0006C00F10BD000010B50348FCF794FC65
:4061C000C007C00F10BD00002C0A0000F8B503465078167800020643D07895780002054350791779000288240743002900D098241946B020FCF77EFC31462046FCF77AFCE8
:40620000201D2946FCF776FC204608303946FCF771FCF8BDFFB581B014460D4606460A9FFFF768FF3B460021049AFCF743FC02484019845505B0F0BD3E02002070B5064616
:406240000D4611242520A40108214001FCF752FC2B46324600212046FCF72CFC70BD70B5212405466401FFF72FFE10232A4600212046FCF71FFC70BD10B504464078217847
:40628000000201438F20C000FCF734FCE078A178000201430148FCF72DFC10BD7C04000010B50C460146B020FCF724FC802021460143FF202930FCF71DFC10BD70B50D4648
:4062C0000146B020FCF716FCFF241D342046FCF70BFC01090901FF202943013001432046FCF708FC70BDF8B500242646012807D0032802D0052808D105E002240A2604E0B1
:4063000004240C2601E004240D26492701463F013846FCF7EFFB25204001FCF7E5FBC5B228462042F7D0252031464001FCF7E2FB00213846FCF7DEFB2846F8BD70B50D463B
:40634000044601461646B020FCF7D4FB512029464001FCF7CFFB31460648FCF7CBFB032189030820FFF794FC210275310020FCF7C1FB70BD240A000070B50D4604460146E8
:40638000B020FCF7B7FBFF2029461930FCF7B2FB21024B310020FCF7ADFB70BD70B5491E8CB205460146B020FCF7A4FBFF2021461930FCF79FFB29024C310020FCF79AFB00
:4063C00070BD0000054910B5884200D908460146FF206130FCF78EFB10BD0000FF0F0000054910B5884200D908460146FF206530FCF780FB10BD0000FF0F000070B5882504
:406400001446002900D098250146B020FCF772FB2846FCF769FB2070000A6070281DFCF763FBA070000AE07028460830FCF75CFB2071000A607170BD10B514460246112085
:406440000B4680010021FCF721FB012C01D1FFF735FD10BD10B504460920C001FCF744FB2070000A60700448FCF73EFBA070000AE070FFF723FD10BD840400000121814061
:4064800010B589B200227C2000F0E5FA10BD000070B5FF210120FFF7D3FBFF210820FFF7CFFB3020FFF7E4FB80210020FCF722FB002211460320FCF751FB374DFF20A98DA6
:4064C000D530FCF717FB0024FF26F1362146B020FCF710FB298F3046FCF70CFB2046FFF727FE641C2406240EF0D0FF20A98FF930FCF700FB28481030044600F073F920467E
:4065000000F0B8F900F04CF8234CB82040346188FCF7F0FAA188BC20FCF7ECFAE188C420FCF7E8FAFF20698EE130FCF7E3FAA12000210001FCF7DEFA3920FFF7C5FBFFF75B
:40654000C3FC93200721C000FCF7D4FAFFF7B6FCE020FFF73FFCE820FFF73CFCF020FFF739FC0020FEF726F8618A0C48FCF7C2FA0A482821001DFCF7BDFAFF210131AC2015
:40658000FCF7B8FA832000218000FCF7B3FA5B210020FCF7AFFA70BD68070020140A000010B500217C20FCF7A5FA00217820FCF7A1FA74210020FCF79DFA10BD70B50D4661
:4065C00001461446B020FCF795FAFF261D363046FCF78AFA01090901FF20294301308143002C01D1102041403046FCF783FA70BDF3B589B0FF2001900D208001009048785E
:406600000D7800020543C8788E780002064348790979000201437C200791FCF765FA06907820FCF761FA059074210020FCF762FA18480024049026E00120A04087B20098E6
:40664000FCF752FA03900098FCF74EFA02900098FCF74AFA039A29465140029A72401143079A424011430BD10698074208D00598E040C1070998C90F814201D1019405E0B6
:40668000641C0498E4B20078A042D5D801980BB0F0BD0000A807002070B5FF257C20FCF723FA0849002401230A7805E01946A140014205D0641CE4B2A242F7D8284670BDA0
:4066C0002546FBE7A807002010B504461820FCF70BFA0721C90288436107890C01431820FCF708FA10BD10B50446E020FFF772FB20782246401CC3B20021E020FCF786F970
:4067000010BD000010B5044641790079042817D040000843A17B032901D8C9000843617B4A010243A079010207201143C00201431820FCF7DFF921881C20FCF7DBF910BDF2
:4067400008460149E5E700000204000010B50120FFF78EFA41210020FCF7CCF910BD10B50120FFF7B1FA40210020FCF7C3F910BD10B50C460146B020FCF7BCF9FF20214664
:406780000D30FCF7B7F910BD70B50C4601461E461546B020FCF7AEF9E92021468000FCF7A9F975202946C000FCF7A4F9EB2031468000FCF79FF96C433B20A1B20001FCF78E
:4067C00099F970BD70B50C4601461546B020FCF791F921468420FCF78DF929468020FCF789F970BD10B504464078217800020143FF20C130FCF77EF9E078A1780002014368
:40680000FF20C530FCF776F96079217900020143FF20C930FCF76EF910BD70B5A124054624012046FCF760F9012D07D041084900814202D02046FCF75DF970BD014601226C
:406840001143F5E710B5044640782178000201436820FCF74FF9E078A178000201436C20FCF748F960792179000201437020FCF741F910BD10B5044640782178000201431F
:406880005820FCF737F9E078A178000201435C20FCF730F960792179000201436020FCF729F910BD10B50446E820FFF793FA20782246401CC3B20021E820FCF7A7F810BDE0
:4068C00010B50C460146B020FCF714F921460248FCF710F910BD00001C0A000010B50C460146B020FCF706F9FF2021460530FCF701F910BD70B5054688000521FBF7E0FA4B
:4069000084B22946B020FCF7F5F821460448FCF7F1F8290272310020FCF7ECF870BD0000040A000010B504460146B020FCF7E2F8210273310020FCF7DDF810BD10B50446F5
:406940000146B020FCF7D6F8210270310020FCF7D1F810BD10B504460146B020FCF7CAF8210271310020FCF7C5F810BDF8B505461E4614460F46084600F098F80090280202
:40698000A1000843304304462946B020FCF7B2F821460098FCF7AEF80148C0194655F8BD4302002010B50446B820FCF79DF88005800DA102014389B2B820FCF79BF810BD15
:4069C00070B50D460146B020FCF794F8FF241D342046FCF789F840218843A90101432046FCF788F870BD70B5A124054624012046FCF77AF80222002D01D0104300E09043CE
:406A000001462046FCF776F870BD70B50D460146B020FCF76FF8FF2029460930FCF76AF8A12424012046FCF75FF80222002D01D0104300E0904301462046FCF75BF870BD34
:406A400070B50C460546FCF74FF8204301462846FCF750F870BDF8B516460D460746FCF743F8014600202C0003D104E06408401C80B2E207FAD08640A9430E43B1B23846E7
:406A8000FCF738F8F8BD0000024A1018405C8007800F70474302002010B50146B020FCF729F8FF202D30FCF71FF810BD8000FF30413070470246FF20052902D20148401898
:406AC000805C70473E02002010B50146B020FCF711F8FF202930FCF707F810BD0A4600B501461046FFF7E6FF00BD38B50C46054600216846009109F043F8002804D10099A6
:406B000028464C7000F09EFB38BD10B5044680780021FFF72DFE01212046FFF75BF810BD436E002B0CD00B60014660318B781370826E4266CA788A70002181660846704764
:406B4000FF20704710B50346446E6033002C04D0846E002C04D0FF2010BD41669A7001E08166DA70002010BD0021416681667047406E002801D000207047FF20704770B57F
:406B80000446C0790D46810610D5DF210840E07100F0B6FD0570218941804034218A8180618AC180A18A018101F0F8F970BD000010B50446FEF7ECFD01280AD1A1788820BD
:406BC000054A484380186030007FFDF775FA012801D000F0A5FA10BDBC07002070B50D460446FDF711F901281CD02079042801D0072816D1E879AE7900020643A078314695
:406C0000FFF7ACFA012813D03246691C204600F035FA02212046FDF73EFE01212046FEF7D9FF70BD01222421204600F0C3FA70BD28214C2001552046FEF77CF970BD70B51A
:406C40000D460646FDF7BDFD002847D120213046FDF71DFB3446687840346073E87820220002E081A9780843E0816879010228790843218A814203D0F1791143F17120827E
:406C8000E8790102A8790843618A814203D0F1791143F1716082687A0102287A0843A18AE180814203D0F1791143F171A082A08A218A8000FBF704F9401E618A80B28142C9
:406CC00000D9608201213046FDF7E8FDE87AA97A000201430022304600F0DCFA70BD0000F8B50C460546FDF78FF8012849D0294EB07AC00709D028464030009000780028BC
:406D000005D0102805D01F212EE01A212CE0002700E001272846FEF7EBF9002823D02E4680360822611C7068FBF76BF97068617A20300172A17A4172706821461830082257
:406D40000B31FBF75EF921462846042213313430FBF757F939462846FDF7ACFF002810D1002F0FD012E007210322284600F022FAF28A08212846FDF77FFA11212846FDF739
:406D800090FDF8BD06212846FDF78EFD009801210176F8BD6807002010B5FDF7CBFF10BD38B504460020009020790D46042801D007281BD12046FDF727F8012817D0684696
:406DC00008F0DEFE002811D10C486A78807A00991040112210402075607E082210436076204600F079F92046FDF7A1FD38BD08222421204600F0DEF938BD0000680700207E
:406E00007047000070B506460D460846FEF74CF804463046FEF7B1FC00280CD0142C04D32946304600F0C7F805E00549A0000A58294630469047284608F0F2FE70BD0000CB
:406E4000B021010070B50D460021002801D0002400E00C4C002C14D020464030C177807F032802D12046FEF7BBFD2046FFF7A0FE142D04D20449A800095820468847FEF793
:406E8000E7FC70BDDC0700200022010010B5014640310C4609780E2903D1FDF78FFF0120207610BD10B54021095C0F2901D1FDF7A8FF10BD4021095C0F2902D100212030FC
:406EC0004177704738B5044600220E4800920D46807A11210840C0060ED52046FEF75EFC012809D0684608F04BFE002803D12046009900F053F938BD2946204600F05BF888
:406F000038BD00006807002010B51021FDF7BFF910BD10B54978FDF79DFE10BD10B5FDF778FF10BD012120304177704710B54021095C0C2901D1FDF781FF10BD10B54021A5
:406F4000095C0D2901D1FDF775FF10BD70B5044600790D46052803D0062801D0082802D12046FDF789FE68784C21085509212046FDF79AFC2046FFF7C8FD2046FCF744FFD0
:406F80000128A07805D0FFF7D9FC2046FEF708FE70BDFFF7DFFCF8E710B50446FF21FDF776F916214C200155A078FFF7C7FC2046FEF7F6FD10BD70B50C460546FEF7E8FBA1
:406FC000002802D02078687570BD21782846FFF78CFD70BD70B5054648780C46032802D12846FDF754FE6078122803D110212846FDF74DF970BD704738B5044600200D46C1
:40700000009004212046FDF742F968782076E8780002A081A9780843A08168790002E08129790843E081607E04210843607680070CD4684608F0A4FD00281CD12046009908
:4070400000F00EF9607E022108436076E079410611D5BF210840E07100F052FB00210090017021894180A1898180217E4170E189C18001F077F838BD7047704770B50446D6
:40708000C07815460A4600280AD00020E070C1B2A078FFF79BF8A0782946FFF76DF970BD0120F3E770B50546042008700C468420415908222031601CFAF7A3FF2946204661
:4070C000042238310930FAF79CFF0D2229462046FEF7FCFC002070BD70B5054609200C46087008220021601CFAF794FF287D607004480922C07AA07029462046FEF7E6FC6E
:40710000002070BD680700200B4610B501460B20187001221846FEF7D9FC002010BD0000FEB50024164F03E0002C01D0002500E03D462846FFF71CFD00281BD15F20405DDA
:40714000002817D16A4601A92846FFF7E9FC002810D1019869460A7806782946FEF7B6FC022E07D1A8780121FFF72AFC09212846FDF79AFB641C2406240ED5D0FEBD000032
:40718000DC07002010B50B46122119708178D977014601221846FEF799FC10BD10B50B46132119708178D977014601221846FEF78DFC10BD38B50546002000900C4668467B
:4071C00008F0DEFC002801D0072038BD00980D210170447002222946FEF778FC002038BD0B4610B501460520187001221846FEF76DFC002010BD0B4610B5014606201870CB
:4072000001221846FEF762FC002010BD38B5054600200090684608F0B3FC002801D01F2038BD009C022020704C20405D6070A878E0772846FFF769FC022229462046FEF7CE
